EPN42
DA000000775800000566540021735257DIGNA MARIA                                       ABREU                                   GALVAN                                  C01000438935              19400329001FS000000000000000000000000000000                                                  C/MAXIMO GOMEZ #45                                                                                                                                                                                                  000107N00000000000000000000000000000000000000000000000000                                                                                                                                                           00000000000000000000000000000000000000000                                                                                                                                                                                                                                                          000000                                                                                                                                                                                                                                                                                                                                                              000000        
DA000000776000000566660018519153MERCEDES LIDIA                                    RAMIREZ                                 DIAZ                                    C01000523025              19530207001FC000000000000000000000000000000                                                  C/ 16 DE AGOSTO # 26                                                                                                                                                                                                000107N00000000000000000000000000000000000000000000000000                                                                                                                                                           00000000000000000000000000000000000000000                                                                                                                                                                                                                                                          000000                                                                                                                                                                                                                                                                                                                                                              000000        
DA000000860000000571670023470935REYNALDO                                          TAVERAS                                 REYES                                   C01700073834              19451019001MC000000000000000000000000000000                                                  SAN ISIDRO #71                                                                                                                                                                                                      000017N00000000000000000000000000000000000000000000000000                                                                                                                                                           00000000000000000000000000000000000000000                                                                                                                                                                                                                                                          000000                                                                                                                                                                                                                                                                                                                                                              000000        
DA000000776800000566580019393035FLAVIA                                            ACERO                                   MONTAÑO DE CRUZ                         C01000454437              19491222001FC000000000000000000000000000000                                                  MARIA TRINIDAD SANCHEZ # 08                                                                                                                                                                                         000107N00000000000000000000000000000000000000000000000000                                                                                                                                                           00000000000000000000000000000000000000000                                                                                                                                                                                                                                                          000000                                                                                                                                                                                                                                                                                                                                                              000000        
DA000000775500000566550018321625COFESOR                                           MEDINA                                                                          C01000443562              19450702001MS000000000000000000000000000000                                                  LAS CARRERAS # 02                                                                                                                                                                                                   000107N00000000000000000000000000000000000000000000000000                                                                                                                                                           00000000000000000000000000000000000000000                                                                                                                                                                                                                                                          000000                                                                                                                                                                                                                                                                                                                                                              000000        
DA000000777500000566520019388684MINGDALIA                                         DE LA PAZ                               DE GONZALEZ                             C01000409514              19541128001FC000000000000000000000000000000                                                  ENRRIQUILLO # 28                                                                                                                                                                                                    000107N00000000000000000000000000000000000000000000000000                                                                                                                                                           00000000000000000000000000000000000000000                                                                                                                                                                                                                                                          000000                                                                                                                                                                                                                                                                                                                                                              000000        
DA000000590000000656770049747653CORNELIA EDITA                                    SANTANA                                 TAPIA                                   C07300013039              19540916001FC000000000000000000000000000000                                                  C/ SLOTERO BLANCO # 78                                                                                                                                                                                              000073N00000000000000000000000000000000000000000000000000                                                                                                                                                           00000000000000000000000000000000000000000                                                                                                                                                                                                                                                          000000                                                                                                                                                                                                                                                                                                                                                              000000        
DA000000381000000482440016040705ROSELINE                                          ALVARADO                                                                        C00100067230              19331214001FS000000000000000000000000000000                                                  C/ C EDIF. 2, APTO. 3-B                                                                                                                                                                                             000001N00000000000000000000000000000000000000000000000000                                                                                                                                                           00000000000000000000000000000000000000000                                                                                                                                                                                                                                                          000000                                                                                                                                                                                                                                                                                                                                                              000000        
DA000000782400000873120041620900CARMEN ENOVI                                      ESTEVEZ                                 ALMONTE                                 C04600030128              19531017001FC000000000000000000000000000000                                                  C/SAN JUAN #90                                                                                                                                                                                                      000224N00000000000000000000000000000000000000000000000000                                                                                                                                                           00000000000000000000000000000000000000000                                                                                                                                                                                                                                                          000000                                                                                                                                                                                                                                                                                                                                                              000000        
DA000000860100000832200019402293FRANCISCA ELVIRA                                  PERALTA                                 CASTILLO                                C00200633477              19470704001FS000000000000000000000000000000                                                  AV. INDEPENDENCIA #1505, APTO. B-204                                                                                                                                                                                000001N00000000000000000000000000000000000000000000000000                                                                                                                                                           00000000000000000000000000000000000000000                                                                                                                                                                                                                                                          000000                                                                                                                                                                                                                                                                                                                                                              000000        
DA000000359700000641860045194465PABLO                                             HERNANDEZ                                                                       C05100082774              19430118001MC000000000000000000000000000000                                                  LA GINA # 37                                                                                                                                                                                                        000051N00000000000000000000000000000000000000000000000000                                                                                                                                                           00000000000000000000000000000000000000000                                                                                                                                                                                                                                                          000000                                                                                                                                                                                                                                                                                                                                                              000000        
DA000000538500000589640028801065EUROPA AMERICA                                    DELGADO                                 MARTE                                   C02500032525              19391030001FS000000000000000000000000000000                                                  JOSE MA. BERAS#77                                                                                                                                                                                                   000025N00000000000000000000000000000000000000000000000000                                                                                                                                                           00000000000000000000000000000000000000000                                                                                                                                                                                                                                                          000000                                                                                                                                                                                                                                                                                                                                                              000000        
DA000000591200000650370047167037DULCE MARIA                                       PEREZ                                   BRITO                                   C06100022877              19461118001FC000000000000000000000000000000                                                                                                                                                                                                                                                                      000054N00000000000000000000000000000000000000000000000000                                                                                                                                                           00000000000000000000000000000000000000000                                                                                                                                                                                                                                                          000000                                                                                                                                                                                                                                                                                                                                                              000000        
DA000000592200000643150044386824AGUSTINA ISABEL                                   JIMENEZ                                 LANTIGUA                                C05400213145              19540828001FS000000000000000000000000000000                                                  LA CEIBA DE MADERA                                                                                                                                                                                                  000054S00000000199306090000000000000000000000000000000000                                                                                                                                                           00000000000000000000000000000000000000000                                                                                                                                                                                                                                                          000000                                                                                                                                                                                                                                                                                                                                                              000000        
DA000000398700000641550043854878ROSA E                                            FERNANDEZ                               DURAN                                   C05100001287              19410727001FS000000000000000000000000000000                                                  JUANA SALTITOPA # 06                                                                                                                                                                                                000051N00000000000000000000000000000000000000000000000000                                                                                                                                                           00000000000000000000000000000000000000000                                                                                                                                                                                                                                                          000000                                                                                                                                                                                                                                                                                                                                                              000000        
DA000000343000001048260043689984GERARDO MERCEDES                                  GARCIA                                                                          C06000085198              19470924001MC000000000000000000000000000000                                                  16 DE AGOSTO#14                                                                                                                                                                                                     000060N00000000000000000000000000000000000000000000000000                                                                                                                                                           00000000000000000000000000000000000000000                                                                                                                                                                                                                                                          000000                                                                                                                                                                                                                                                                                                                                                              000000        
DA000000785700000564650019581403MARINO                                            PEÑA                                                                            C00800077091              19510303001MS000000000000000000000000000000                                                  C/2DA#22                                                                                                                                                                                                            000008N00000000000000000000000000000000000000000000000000                                                                                                                                                           00000000000000000000000000000000000000000                                                                                                                                                                                                                                                          000000                                                                                                                                                                                                                                                                                                                                                              000000        
DA000000472300000561960017659185LEOPOLDINA                                        LARA                                                                            C00300163409              19401108001FC000000000000000000000000000000                                                  AV FAVIO # 110                                                                                                                                                                                                      000003N00000000000000000000000000000000000000000000000000                                                                                                                                                           00000000000000000000000000000000000000000                                                                                                                                                                                                                                                          000000                                                                                                                                                                                                                                                                                                                                                              000000        
DA000000170800000629580030431297RAMON LORENZO                                     DE LEON                                 HIRALDO                                 C03900120225              19430909001MC000000000000000000000000000000                                                  LA LOMOTA, BISONO # 1-17                                                                                                                                                                                            000096N00000000000000000000000000000000000000000000000000                                                                                                                                                           00000000000000000000000000000000000000000                                                                                                                                                                                                                                                          000000                                                                                                                                                                                                                                                                                                                                                              000000        
DA000000173900000674740053561828DELMIRA NUNCIA                                    ESTRELLA                                DE PEREZ                                C10200088390              19480713001FC000000000000000000000000000000                                                  CRISTOBAL COLON # 93                                                                                                                                                                                                000102N00000000000000000000000000000000000000000000000000                                                                                                                                                           00000000000000000000000000000000000000000                                                                                                                                                                                                                                                          000000                                                                                                                                                                                                                                                                                                                                                              000000        
DA000000360700000641800044924521DORINA ALTAGRACIA                                 JAQUEZ                                  DE ABREU                                C05100069896              19400404001FC000000000000000000000000000000                                                  C/ POLANCO S/N                                                                                                                                                                                                      000051N00000000000000000000000000000000000000000000000000                                                                                                                                                           00000000000000000000000000000000000000000                                                                                                                                                                                                                                                          000000                                                                                                                                                                                                                                                                                                                                                              000000        
DA000000359200000641880045937623RAMON AMADO                                       LOPEZ                                   ALMANZAR                                C05100091486              19520410001MC000000000000000000000000000000                                                  LAS GUAZUMAS S/N                                                                                                                                                                                                    000051N00000000000000000000000000000000000000000000000000                                                                                                                                                           00000000000000000000000000000000000000000                                                                                                                                                                                                                                                          000000                                                                                                                                                                                                                                                                                                                                                              000000        
DA000000360500000641700045443311ICELSO DE JESUS                                   JORGE                                   GIL                                     C05100037166              19450212001MC000000000000000000000000000000                                                  EL HOSPITAL # 31                                                                                                                                                                                                    000051N00000000000000000000000000000000000000000000000000                                                                                                                                                           00000000000000000000000000000000000000000                                                                                                                                                                                                                                                          000000                                                                                                                                                                                                                                                                                                                                                              000000        
DA000000343200000677670053098463CRISTINA                                          DE LA CRUZ                              REYES                                   C10900017541              19721202001FS000000000000000000000000000000                                                  TERMINAL ESSO#41                                                                                                                                                                                                    000223S19990923000000000000000000000000000000000000000000                                                                                                                                                           00000000000000000000000000000000000000000                                                                                                                                                                                                                                                          000000                                                                                                                                                                                                                                                                                                                                                              000000        
DA000000573400000608320030496343PRESBITERA BIENVENIDA                             CABRERA                                 ALVAREZ                                 C03100523152              19600609001FC000000000000000000000000000000                                                  AV. CAMBORIL EDIF. 02, APTO. 2-4                                                                                                                                                                                    000031N00000000000000000000000000000000000000000000000000                                                                                                                                                           00000000000000000000000000000000000000000                                                                                                                                                                                                                                                          000000                                                                                                                                                                                                                                                                                                                                                              000000        
DA000000591900000611730033427206JULIA DEL CARMEN                                  VASQUEZ                                 DE GRULLON                              C03100995079              19410108001FC000000000000000000000000000000                                                  C/ ALEGRIA # 13                                                                                                                                                                                                     000031N00000000000000000000000000000000000000000000000000                                                                                                                                                           00000000000000000000000000000000000000000                                                                                                                                                                                                                                                          000000                                                                                                                                                                                                                                                                                                                                                              000000        
DA000000589800000621520030271420JESUS MARIA                                       BARRERA                                 LLANOS                                  C03200180119              19350712001MC000000000000000000000000000000                                                  CANCA ARRIBA # 07                                                                                                                                                                                                   000032N00000000000000000000000000000000000000000000000000                                                                                                                                                           00000000000000000000000000000000000000000                                                                                                                                                                                                                                                          000000                                                                                                                                                                                                                                                                                                                                                              000000        
DA000000589700000672660052229971ELSA AMARILIS CONSUELO                            ARIAS                                   RODRIGUEZ                               C09500100848              19590105001FS000000000000000000000000000000                                                  KM 9 # 11                                                                                                                                                                                                           000095N00000000000000000000000000000000000000000000000000                                                                                                                                                           00000000000000000000000000000000000000000                                                                                                                                                                                                                                                          000000                                                                                                                                                                                                                                                                                                                                                              000000        
DA000000590300000621140032574665RAFAEL SANTIAGO                                   LEDESMA                                 VALERIO                                 C03200043341              19460724001MC000000000000000000000000000000                                                  JUAN MARIA CAPELLAN #40                                                                                                                                                                                             000032N00000000000000000000000000000000000000000000000000                                                                                                                                                           00000000000000000000000000000000000000000                                                                                                                                                                                                                                                          000000                                                                                                                                                                                                                                                                                                                                                              000000        
DA000000591300000608100031973775ALTAGRACIA MDES                                   PAULINO                                 PE#A                                    C03100491921              19381107001FS000000000000000000000000000000                                                  C/ 13 # 6                                                                                                                                                                                                           000031N00000000000000000000000000000000000000000000000000                                                                                                                                                           00000000000000000000000000000000000000000                                                                                                                                                                                                                                                          000000                                                                                                                                                                                                                                                                                                                                                              000000        
DA000000589500000616750035279820MARIA DEL CARMEN                                  FABIAN                                  DE MUÑOZ                                C03101740615              19440110001FC000000000000000000000000000000                                                  C/ PRIMERA # 37                                                                                                                                                                                                     000031N00000000000000000000000000000000000000000000000000                                                                                                                                                           00000000000000000000000000000000000000000                                                                                                                                                                                                                                                          000000                                                                                                                                                                                                                                                                                                                                                              000000        
DA000000585000000624170034072772MARIA MATILDE                                     ESPINAL                                 DE ESPINAL                              C03600072684              19330607001FC000000000000000000000000000000                                                  S/C                                                                                                                                                                                                                 000036N00000000000000000000000000000000000000000000000000                                                                                                                                                           00000000000000000000000000000000000000000                                                                                                                                                                                                                                                          000000                                                                                                                                                                                                                                                                                                                                                              000000        
DA000000577700000618930035987640LEOVIGILDO ANTONIO                                REY                                     COPON                                   C03102366568              19331208001MC000000000000000000000000000000                                                  ESTRELLA SADHALA    EDF.4 APTO 2A                                                                                                                                                                                   000031N00000000000000000000000000000000000000000000000000                                                                                                                                                           00000000000000000000000000000000000000000                                                                                                                                                                                                                                                          000000                                                                                                                                                                                                                                                                                                                                                              000000        
DA000000590500000624180035475675EDUARDO ANTONIO                                   PERALTA                                 PEREZ                                   C03600073377              19480427001MC000000000000000000000000000000                                                  S/C # 11                                                                                                                                                                                                            000036N00000000000000000000000000000000000000000000000000                                                                                                                                                           00000000000000000000000000000000000000000                                                                                                                                                                                                                                                          000000                                                                                                                                                                                                                                                                                                                                                              000000        
DA000000576100000616370031950545ONEIDA                                            ESTEVEZ                                 DE NUÑEZ                                C03101658403              19440910001FC000000000000000000000000000000                                                  C/ SANTOME # 42                                                                                                                                                                                                     000031N00000000000000000000000000000000000000000000000000                                                                                                                                                           00000000000000000000000000000000000000000                                                                                                                                                                                                                                                          000000                                                                                                                                                                                                                                                                                                                                                              000000        
DA000000592700000615060031568491MARIA MELBA                                       CRUZ                                                                            C03101485914              19450425001FC000000000000000000000000000000                                                  C/ 10, ENTRADA SAN BARTOLO # 31                                                                                                                                                                                     000031N00000000000000000000000000000000000000000000000000                                                                                                                                                           00000000000000000000000000000000000000000                                                                                                                                                                                                                                                          000000                                                                                                                                                                                                                                                                                                                                                              000000        
DA000000578000000617160036995132MARIA MARGARITA                                   NICASIO                                 VARGAS                                  C03101888463              19450405001FC000000000000000000000000000000                                                  AV. SADHALA EDIF. 2 APTO. 2-1                                                                                                                                                                                       000031N00000000000000000000000000000000000000000000000000                                                                                                                                                           00000000000000000000000000000000000000000                                                                                                                                                                                                                                                          000000                                                                                                                                                                                                                                                                                                                                                              000000        
DA000000589600000607130032365691MARIA MAGDALENA                                   ROJAS                                   MERCADO                                 C03100389273              19520722001FC000000000000000000000000000000                                                  C/ 2 MANZ. D EDIF, 10, APTO. 1                                                                                                                                                                                      000031N00000000000000000000000000000000000000000000000000                                                                                                                                                           00000000000000000000000000000000000000000                                                                                                                                                                                                                                                          000000                                                                                                                                                                                                                                                                                                                                                              000000        
DA000000590700000617580034482931JUAN OSVALDO                                      TOLENTINO                               MARTINEZ                                C03102002502              19400615001MC000000000000000000000000000000                                                  C/ 13 ESQ. 16 # 40                                                                                                                                                                                                  000031N00000000000000000000000000000000000000000000000000                                                                                                                                                           00000000000000000000000000000000000000000                                                                                                                                                                                                                                                          000000                                                                                                                                                                                                                                                                                                                                                              000000        
DA000000575800000608510031982525AUSTRIA RAMONA                                    MARTE                                   ARIAS                                   C03100553795              19610509001FC000000000000000000000000000000                                                  C/ LAS PALOMAS # 96                                                                                                                                                                                                 000031N00000000000000000000000000000000000000000000000000                                                                                                                                                           00000000000000000000000000000000000000000                                                                                                                                                                                                                                                          000000                                                                                                                                                                                                                                                                                                                                                              000000        
DA000000575700000619420035040075SONIA MERCEDES                                    GUZMAN                                                                          C03102448309              19490316001FS000000000000000000000000000000                                                  JACAGUA # 7                                                                                                                                                                                                         000031N00000000000000000000000000000000000000000000000000                                                                                                                                                           00000000000000000000000000000000000000000                                                                                                                                                                                                                                                          000000                                                                                                                                                                                                                                                                                                                                                              000000        
DA000000586000000623950035008575ROSA HILDA MERCEDES                               RODRIGUEZ                               RODRIGUEZ                               C03600036549              19630920001FS000000000000000000000000000000                                                  PROL SAN JOSE NO. 60                                                                                                                                                                                                000031S19950602199904070000000000000000000000000000000000                                                                                                                                                           00000000000000000000000000000000000000000                                                                                                                                                                                                                                                          000000                                                                                                                                                                                                                                                                                                                                                              000000        
DA000000102300000621660032612256GISOL DAMELO                                      ESCOTO                                  TEJADA                                  C03300030719              19520523001FC000000000000000000000000000000                                                  AV. MARIA T. SANCHEZ # 42-A                                                                                                                                                                                         000033N00000000000000000000000000000000000000000000000000                                                                                                                                                           00000000000000000000000000000000000000000                                                                                                                                                                                                                                                          000000                                                                                                                                                                                                                                                                                                                                                              000000        
DA000000103200000621850033602492ANA DOMINICA                                      PEÑA                                    DE BEJARAN                              C03300079807              19550711001FC000000000000000000000000000000                                                  C/ SAN JOSE # 6                                                                                                                                                                                                     000033N00000000000000000000000000000000000000000000000000                                                                                                                                                           00000000000000000000000000000000000000000                                                                                                                                                                                                                                                          000000                                                                                                                                                                                                                                                                                                                                                              000000        
DA000000100700000621860036390053CARMEN EDA DE JESUS                               ALMONTE                                 DE REYNOSO                              C03300081985              19461022001FC000000000000000000000000000000                                                  C/ JOSE EUGENIO FERNANDEZ # 24                                                                                                                                                                                      000034N00000000000000000000000000000000000000000000000000                                                                                                                                                           00000000000000000000000000000000000000000                                                                                                                                                                                                                                                          000000                                                                                                                                                                                                                                                                                                                                                              000000        
DA000000104800000621600034974162JOSE RAMON                                        PICHARDO                                MATIAS                                  C03300018862              19400405001MC000000000000000000000000000000                                                  AV. MARIA T. SANCHEZ # 99                                                                                                                                                                                           000034N00000000000000000000000000000000000000000000000000                                                                                                                                                           00000000000000000000000000000000000000000                                                                                                                                                                                                                                                          000000                                                                                                                                                                                                                                                                                                                                                              000000        
DA000000101400000621840036389955MARIA DE LOS ANGELES                              PALLERO                                 LORA                                    C03300079740              19610304001FC000000000000000000000000000000                                                  C/ COLON # 25                                                                                                                                                                                                       000033N00000000000000000000000000000000000000000000000000                                                                                                                                                           00000000000000000000000000000000000000000                                                                                                                                                                                                                                                          000000                                                                                                                                                                                                                                                                                                                                                              000000        
DA000000590200000615110037122170MARIA LUCRECIA                                    RINCON                                  ARIAS                                   C03101495400              19500210001FC000000000000000000000000000000                                                  C/ PENETRACION # 23                                                                                                                                                                                                 000031N00000000000000000000000000000000000000000000000000                                                                                                                                                           00000000000000000000000000000000000000000                                                                                                                                                                                                                                                          000000                                                                                                                                                                                                                                                                                                                                                              000000        
DA000000592300000624150032151926GREGORIO DE JESUS                                 ESPINAL                                 ESPINAL                                 C03600072544              19540610001MS000000000000000000000000000000                                                                                                                                                                                                                                                                      000036S20000921200305090000000000000000000000000000000000                                                                                                                                                           00000000000000000000000000000000000000000                                                                                                                                                                                                                                                          000000                                                                                                                                                                                                                                                                                                                                                              000000        
DA000000581500000632380037971096ROSA EMILIA                                       ALMONTE                                 COLLADO                                 C04600005880              19391002001FS000000000000000000000000000000                                                  C/ 30 DE MARZO # 03                                                                                                                                                                                                 000031N00000000000000000000000000000000000000000000000000                                                                                                                                                           00000000000000000000000000000000000000000                                                                                                                                                                                                                                                          000000                                                                                                                                                                                                                                                                                                                                                              000000        
DA000000102400000621650034037685RAFAEL                                            SOSA                                    PE#A                                    C03300028374              19451024001MC000000000000000000000000000000                                                  C/ H # 7                                                                                                                                                                                                            000033N00000000000000000000000000000000000000000000000000                                                                                                                                                           00000000000000000000000000000000000000000                                                                                                                                                                                                                                                          000000                                                                                                                                                                                                                                                                                                                                                              000000        
DA000000104500000622060031645577RAMON BAUTISTA                                    LUCIANO                                 SANCHEZ                                 C03300181538              19521014001MS000000000000000000000000000000                                                  C/ LIBERTAD ESQ. GASPAR POLANCO # 3                                                                                                                                                                                 000033N00000000000000000000000000000000000000000000000000                                                                                                                                                           00000000000000000000000000000000000000000                                                                                                                                                                                                                                                          000000                                                                                                                                                                                                                                                                                                                                                              000000        
DA000000103000000622010032126867PABLO EMILIO                                      CORNIEL                                 ORTIZ                                   C03300133869              19450630001MS000000000000000000000000000000                                                  C/ ENRRIQUE SANCHEZ # 44                                                                                                                                                                                            000033N00000000000000000000000000000000000000000000000000                                                                                                                                                           00000000000000000000000000000000000000000                                                                                                                                                                                                                                                          000000                                                                                                                                                                                                                                                                                                                                                              000000        
DA000000102800000622050033617931BEATRIZ DEL CARMEN                                JIMENEZ                                 RODRIGUEZ                               C03300161506              19520118001FC000000000000000000000000000000                                                  C/ LIBERTAD # 25                                                                                                                                                                                                    000033N00000000000000000000000000000000000000000000000000                                                                                                                                                           00000000000000000000000000000000000000000                                                                                                                                                                                                                                                          000000                                                                                                                                                                                                                                                                                                                                                              000000        
DA000000101000000621980035452132CARMEN ERNESTINA                                  GOMEZ                                   DE PEREZ                                C03300118449              19240225001FC000000000000000000000000000000                                                  C/ PRINCIPAL # 52                                                                                                                                                                                                   000033N00000000000000000000000000000000000000000000000000                                                                                                                                                           00000000000000000000000000000000000000000                                                                                                                                                                                                                                                          000000                                                                                                                                                                                                                                                                                                                                                              000000        
DA000000102600000621740035448111SONIA ALT                                         CABRAL                                  ACOSTA                                  C03300051954              19420212001FS000000000000000000000000000000                                                  C/ B # 37                                                                                                                                                                                                           000033N00000000000000000000000000000000000000000000000000                                                                                                                                                           00000000000000000000000000000000000000000                                                                                                                                                                                                                                                          000000                                                                                                                                                                                                                                                                                                                                                              000000        
DA000000101100000621790033098214MARIA MAGDALENA                                   REYES                                   NUÑEZ                                   C03300074568              19571221001FC000000000000000000000000000000                                                  AGSTON F. DELIGNE  # 43                                                                                                                                                                                             000033N00000000000000000000000000000000000000000000000000                                                                                                                                                           00000000000000000000000000000000000000000                                                                                                                                                                                                                                                          000000                                                                                                                                                                                                                                                                                                                                                              000000        
DA000000100100000621900032620458JUAN ANTONIO                                      MINIER                                  ALMONTE                                 C03300089509              19490128001MC000000000000000000000000000000                                                  C/ JUANA SALTITOPA # 26                                                                                                                                                                                             000034S20020518000000000000000000000000000000000000000000                                                                                                                                                           00000000000000000000000000000000000000000                                                                                                                                                                                                                                                          000000                                                                                                                                                                                                                                                                                                                                                              000000        
DA000000102000000621810031790296VICTOR MIGUEL A                                   BRITO                                   VARGAS                                  C03300076548              19520602001MC000000000000000000000000000000                                                  C/ SANTIAGO # 30                                                                                                                                                                                                    000033N00000000000000000000000000000000000000000000000000                                                                                                                                                           00000000000000000000000000000000000000000                                                                                                                                                                                                                                                          000000                                                                                                                                                                                                                                                                                                                                                              000000        
DA000000104000000621820035918840RAFAEL DARIO                                      ESTEVEZ                                                                         C03300077496              19460209001MS000000000000000000000000000000                                                  C/ LUPERON # 23                                                                                                                                                                                                     000033N00000000000000000000000000000000000000000000000000                                                                                                                                                           00000000000000000000000000000000000000000                                                                                                                                                                                                                                                          000000                                                                                                                                                                                                                                                                                                                                                              000000        
DA000000589900000665780052520403JOSE DE JESUS                                     TREMOLS                                 ACOSTA                                  C09200014927              19480827001MC000000000000000000000000000000                                                  C/ DUARTE # 36-A                                                                                                                                                                                                    000092N00000000000000000000000000000000000000000000000000                                                                                                                                                           00000000000000000000000000000000000000000                                                                                                                                                                                                                                                          000000                                                                                                                                                                                                                                                                                                                                                              000000        
DA000000103100000621870034044326RAFAEL TOMAS                                      MINIER                                  ROJAS                                   C03300084591              19410315001MC000000000000000000000000000000                                                  MELLA # 48                                                                                                                                                                                                          000033S19920512199610201999100900000000000000000000000000                                                                                                                                                           00000000000000000000000000000000000000000                                                                                                                                                                                                                                                          000000                                                                                                                                                                                                                                                                                                                                                              000000        
DA000000381800000863180029733146FELIX                                             SILVESTRE                               UBIERA                                  C02700222504              19471128001MC000000000000000000000000000000                                                  C/ MANUEL DE JESUS SILVERIO # 24                                                                                                                                                                                    000027N00000000000000000000000000000000000000000000000000                                                                                                                                                           00000000000000000000000000000000000000000                                                                                                                                                                                                                                                          000000                                                                                                                                                                                                                                                                                                                                                              000000        
DA000000504600000600340027663135ROSA HERMINIA                                     SEVERINO                                FULGENCIO                               C02700064997              19541120001FC000000000000000000000000000000                                                  C/ SAN ANTONIO # 96                                                                                                                                                                                                 000027N00000000000000000000000000000000000000000000000000                                                                                                                                                           00000000000000000000000000000000000000000                                                                                                                                                                                                                                                          000000                                                                                                                                                                                                                                                                                                                                                              000000        
DA000000772700000600060025873963IRENE                                             GIL                                                                             C02700027416              19420413001FS000000000000000000000000000000                                                  C/ MANUEL DE JS. SILVERIO#36                                                                                                                                                                                        000027N00000000000000000000000000000000000000000000000000                                                                                                                                                           00000000000000000000000000000000000000000                                                                                                                                                                                                                                                          000000                                                                                                                                                                                                                                                                                                                                                              000000        
DA000000342000000600010029178873MARIA YOLANDA                                     PEGUERO                                 PUELLO                                  C02700018795              19411102001FS000000000000000000000000000000                                                  C/ SANTIAGO SILVESTRE # 34                                                                                                                                                                                          000027N00000000000000000000000000000000000000000000000000                                                                                                                                                           00000000000000000000000000000000000000000                                                                                                                                                                                                                                                          000000                                                                                                                                                                                                                                                                                                                                                              000000        
DA000000504500000600370029715767YSIDRA                                            VASQUEZ                                 MERCEDES                                C02700070465              19380515001FS000000000000000000000000000000                                                  C/ SANTO DOMINGO # 15                                                                                                                                                                                               000027N00000000000000000000000000000000000000000000000000                                                                                                                                                           00000000000000000000000000000000000000000                                                                                                                                                                                                                                                          000000                                                                                                                                                                                                                                                                                                                                                              000000        
DA000000504700000600490028276192ELBA MIREYA                                       MOREL                                   CASTILLO                                C02700077791              19390619001FS000000000000000000000000000000                                                  C/ SAN ESTEBAN # 5                                                                                                                                                                                                  000027N00000000000000000000000000000000000000000000000000                                                                                                                                                           00000000000000000000000000000000000000000                                                                                                                                                                                                                                                          000000                                                                                                                                                                                                                                                                                                                                                              000000        
DA000000504200000590010027586253DIEGO                                             SALAS                                                                           C02500065384              19451112001MS000000000000000000000000000000                                                  PROL. F # 1                                                                                                                                                                                                         000027N00000000000000000000000000000000000000000000000000                                                                                                                                                           00000000000000000000000000000000000000000                                                                                                                                                                                                                                                          000000                                                                                                                                                                                                                                                                                                                                                              000000        
DA000000859800000538100002761595DIRSIO                                            HICIANO                                 GARCIA                                  C00107340218              19481228001MC000000000000000000000000000000                                                  C/ MANOLO TAVARES JUSTO#12                                                                                                                                                                                          000223S00000000199501150000000000000000000000000000000000                                                                                                                                                           00000000000000000000000000000000000000000                                                                                                                                                                                                                                                          000000                                                                                                                                                                                                                                                                                                                                                              000000        
DA000000309800000677580053693282JOSE MORALES                                      MONTERO                                                                         C10800019902              19421106001MS000000000000000000000000000000                                                  PRESIDENTE VASQUEZ # 15                                                                                                                                                                                             000223N00000000000000000000000000000000000000000000000000                                                                                                                                                           00000000000000000000000000000000000000000                                                                                                                                                                                                                                                          000000                                                                                                                                                                                                                                                                                                                                                              000000        
DA000000328700000824970010758756LUIS EMILIO                                       FERMIN                                                                          C00108948639              19320120001MC000000000000000000000000000000                                                  PRESIDENTE VASQUEZ # 4                                                                                                                                                                                              000223N00000000000000000000000000000000000000000000000000                                                                                                                                                           00000000000000000000000000000000000000000                                                                                                                                                                                                                                                          000000                                                                                                                                                                                                                                                                                                                                                              000000        
S000074                                                                                                                               
