EPN42
DA000000781900000571660024058576LEONOR                                            CABRAL                                  MORILLO                                 C01700072372              19451004001FC000000000000000000000000000000                                                  ALEJANDRO CABRAL#28                                                                                                                                                                                                 000017N00000000000000000000000000000000000000000000000000                                                                                                                                                           00000000000000000000000000000000000000000                                                                                                                                                                                                                                                          000000                                                                                                                                                                                                                                                                                                                                                              000000        
DA000000783100000571700022890860ANA MARTINA                                       BELTRE                                  CABRAL                                  C01700084021              19551111001FC000000000000000000000000000000                                                  C/MELLA #37                                                                                                                                                                                                         000017N00000000000000000000000000000000000000000000000000                                                                                                                                                           00000000000000000000000000000000000000000                                                                                                                                                                                                                                                          000000                                                                                                                                                                                                                                                                                                                                                              000000        
DA000000860900000565040021637623PAULA OLIVA                                       FELIZ                                                                           C01000026920              19670623001FC000000000000000000000000000000                                                  ROCCO CAPANO#85                                                                                                                                                                                                     000010S19920225199406151997081320020903000000000000000000                                                                                                                                                           00000000000000000000000000000000000000000                                                                                                                                                                                                                                                          000000                                                                                                                                                                                                                                                                                                                                                              000000        
DA000000467000000573100024082570TERESA                                            PINEDA                                  FELIZ                                   C01800071290              19491102001FC000000000000000000000000000000                                                  C/ ANACAONA # 101                                                                                                                                                                                                   000018N00000000000000000000000000000000000000000000000000                                                                                                                                                           00000000000000000000000000000000000000000                                                                                                                                                                                                                                                          000000                                                                                                                                                                                                                                                                                                                                                              000000        
DA000000465600000573090024082540ALCIDES DAVID                                     PEÑA                                                                            C01800070847              19440420001MC000000000000000000000000000000                                                  C/ 3RA, EDIF. 20, APTO. 301.                                                                                                                                                                                        000018N00000000000000000000000000000000000000000000000000                                                                                                                                                           00000000000000000000000000000000000000000                                                                                                                                                                                                                                                          000000                                                                                                                                                                                                                                                                                                                                                              000000        
DA000000466000000573280024929615TEODOCIA SEMIRAME                                 FELIZ                                   NOLASCO DE GONZALEZ                     C01800086983              19460915001FC000000000000000000000000000000                                                  C/ CAROLINA JIMENEZ CABALLO # 2                                                                                                                                                                                     000018N00000000000000000000000000000000000000000000000000                                                                                                                                                           00000000000000000000000000000000000000000                                                                                                                                                                                                                                                          000000                                                                                                                                                                                                                                                                                                                                                              000000        
DA000000467100000572970023290588FRANCIA                                           MATOS                                                                           C01800065920              19400211001FC000000000000000000000000000000                                                  C/ CARLOS A. MOTA # 53                                                                                                                                                                                              000018N00000000000000000000000000000000000000000000000000                                                                                                                                                           00000000000000000000000000000000000000000                                                                                                                                                                                                                                                          000000                                                                                                                                                                                                                                                                                                                                                              000000        

DA000000460800000576910023139885JOSE                                              MEDRANO                                 PEREZ                                   C01800343046              19410620001MC000000000000000000000000000000                                                  C/ PROF. CARLOS LASSIS # 8                                                                                                                                                                                          000018N00000000000000000000000000000000000000000000000000                                                                                                                                                           00000000000000000000000000000000000000000                                                                                                                                                                                                                                                          000000                                                                                                                                                                                                                                                                                                                                                              000000        

DA000000465100000572650022573050INES MARIA                                        MATOS                                                                           C01800051730              19500818001FS000000000000000000000000000000                                                  DUVERGE # 25                                                                                                                                                                                                        000018N00000000000000000000000000000000000000000000000000                                                                                                                                                           00000000000000000000000000000000000000000                                                                                                                                                                                                                                                          000000                                                                                                                                                                                                                                                                                                                                                              000000        

DA000000352300000574600023302116LUISA MARIA                                       ESPINOSA                                DE ARIAS                                C01800151811              19421228001FC000000000000000000000000000000                                                  AV. SIMON OROZCO MANZ. 4722 EDF.2 APTO.2                                                                                                                                                                            000224N00000000000000000000000000000000000000000000000000                                                                                                                                                           00000000000000000000000000000000000000000                                                                                                                                                                                                                                                          000000                                                                                                                                                                                                                                                                                                                                                              000000        

DA000000461700000573580024085846IRIS MAGALIS                                      PEREZ                                   ROCHA                                   C01800098970              19470310001FC000000000000000000000000000000                                                  C/ PALETA MEDRANO # 32                                                                                                                                                                                              000018N00000000000000000000000000000000000000000000000000                                                                                                                                                           00000000000000000000000000000000000000000                                                                                                                                                                                                                                                          000000                                                                                                                                                                                                                                                                                                                                                              000000        

DA000000462100000576130023710124CLEOPATRA                                         RODRIGUEZ                               DE BATISTA                              C01800243642              19360116001FC000000000000000000000000000000                                                  C/ SANCHEZ # 20                                                                                                                                                                                                     000131N00000000000000000000000000000000000000000000000000                                                                                                                                                           00000000000000000000000000000000000000000                                                                                                                                                                                                                                                          000000                                                                                                                                                                                                                                                                                                                                                              000000        

DA000000463600000572480023487798JUANA                                             BALBUENA                                                                        C01800042051              19471110001FS000000000000000000000000000000                                                  INVI CEA BATEY # 10                                                                                                                                                                                                 000018N00000000000000000000000000000000000000000000000000                                                                                                                                                           00000000000000000000000000000000000000000                                                                                                                                                                                                                                                          000000                                                                                                                                                                                                                                                                                                                                                              000000        

DA000000782300000537840000459816NUÑEZ  VDA SANCH                                  REYES                                   NUÑEZ DE SANCHEZ                        C00107305658              19431025001FS000000000000000000000000000000                                                  AV. BELVEREDE EDF. 3, APTO. B-6                                                                                                                                                                                     000225N00000000000000000000000000000000000000000000000000                                                                                                                                                           00000000000000000000000000000000000000000                                                                                                                                                                                                                                                          000000                                                                                                                                                                                                                                                                                                                                                              000000        

DA000000861400000522520017180198MARTINA                                           RIVERA                                  Y ALCANTARA                             C00105356653              19490130001FC000000000000000000000000000000                                                  C/JOSE CABRERA #20                                                                                                                                                                                                  000223N00000000000000000000000000000000000000000000000000                                                                                                                                                           00000000000000000000000000000000000000000                                                                                                                                                                                                                                                          000000                                                                                                                                                                                                                                                                                                                                                              000000        

DA000000860700000547920003735297MERCEDES MIRIAM                                   MENDEZ                                                                          C00108890781              19600609001FC000000000000000000000000000000                                                  M.RR #13, SOLOME URE#A                                                                                                                                                                                              000225N00000000000000000000000000000000000000000000000000                                                                                                                                                           00000000000000000000000000000000000000000                                                                                                                                                                                                                                                          000000                                                                                                                                                                                                                                                                                                                                                              000000        

DA000000860500000504260013749732LUIS MANUEL                                       PADILLA                                 ALVAREZ                                 C00102441011              19410317001MS000000000000000000000000000000                                                  C/MANZ. 28#15                                                                                                                                                                                                       000001N00000000000000000000000000000000000000000000000000                                                                                                                                                           00000000000000000000000000000000000000000                                                                                                                                                                                                                                                          000000                                                                                                                                                                                                                                                                                                                                                              000000        

DA000000862900000488010005687346RAMONA ANTONIA                                    TAVERA                                  PE#A                                    C00100653641              19520831001FC000000000000000000000000000000                                                  C/ CESAR AUGUSTO ROQUE # 5 APTO 1A                                                                                                                                                                                  000001S00000000199306161995110500000000000000000000000000                                                                                                                                                           00000000000000000000000000000000000000000                                                                                                                                                                                                                                                          000000                                                                                                                                                                                                                                                                                                                                                              000000        

DA000000039700000571030023846777SERGIO CELESTINO                                  SOLER                                   SOLIS                                   C01600004319              19450406001MC000000000000000000000000000000                                                  SANCHEZ#47                                                                                                                                                                                                          000016N00000000000000000000000000000000000000000000000000                                                                                                                                                           00000000000000000000000000000000000000000                                                                                                                                                                                                                                                          000000                                                                                                                                                                                                                                                                                                                                                              000000        

DA000000039600000835660024032933RAFAEL MILCIADES                                  SEGURA                                  DE OLEO                                 C01600012353              19440423001MC000000000000000000000000000000                                                  DUARTE#37                                                                                                                                                                                                           000016N00000000000000000000000000000000000000000000000000                                                                                                                                                           00000000000000000000000000000000000000000                                                                                                                                                                                                                                                          000000                                                                                                                                                                                                                                                                                                                                                              000000        

DA000000038900000835620021872572RAMON EMILIO                                      MEDINA                                  RODRIGUEZ                               C01600002628              19450920001MC000000000000000000000000000000                                                  MELLA#11                                                                                                                                                                                                            000016N00000000000000000000000000000000000000000000000000                                                                                                                                                           00000000000000000000000000000000000000000                                                                                                                                                                                                                                                          000000                                                                                                                                                                                                                                                                                                                                                              000000        

DA000000039300000571350022085357ANTONIO                                           VALDEZ                                                                          C01600042061              19400803001MC000000000000000000000000000000                                                  JOSE JOAQUIN PUELLO#37                                                                                                                                                                                              000016N00000000000000000000000000000000000000000000000000                                                                                                                                                           00000000000000000000000000000000000000000                                                                                                                                                                                                                                                          000000                                                                                                                                                                                                                                                                                                                                                              000000        

DA000000035700000571410022872683CESAREO                                           RAMON                                   Y RAMON                                 C01600093429              19490127001MS000000000000000000000000000000                                                  EDFI.11 APTO. 202                                                                                                                                                                                                   000016S19970515000000000000000000000000000000000000000000                                                                                                                                                           00000000000000000000000000000000000000000                                                                                                                                                                                                                                                          000000                                                                                                                                                                                                                                                                                                                                                              000000        

DA000000035600000571060022277748CATALINA                                          PEÑA                                    PENA                                    C01600007122              19480312001FC000000000000000000000000000000                                                  CARRET. SANCHEZ KM.1 1/2#23                                                                                                                                                                                         000016N00000000000000000000000000000000000000000000000000                                                                                                                                                           00000000000000000000000000000000000000000                                                                                                                                                                                                                                                          000000                                                                                                                                                                                                                                                                                                                                                              000000        

DA000000034900000571190022082007ROSITA                                            POCHE                                   VALDEZ DE MORILLO                       C01600011744              19430213001FC000000000000000000000000000000                                                  MARIA T. SANCHEZ #71                                                                                                                                                                                                000016N00000000000000000000000000000000000000000000000000                                                                                                                                                           00000000000000000000000000000000000000000                                                                                                                                                                                                                                                          000000                                                                                                                                                                                                                                                                                                                                                              000000        

DA000000034800000571070022654904ROSALIA                                           PEREZ                                   FLORENTINO                              C01600007189              19460930001FC000000000000000000000000000000                                                  MELLA#14                                                                                                                                                                                                            000016N00000000000000000000000000000000000000000000000000                                                                                                                                                           00000000000000000000000000000000000000000                                                                                                                                                                                                                                                          000000                                                                                                                                                                                                                                                                                                                                                              000000        

DA000000039100000391190053408176ARISTIDES                                         BAUTISTA                                BAUTISTA                                C11000013661              19441125001MC000000000000000000000000000000                                                  SAN ISIDRO#21                                                                                                                                                                                                       000110N00000000000000000000000000000000000000000000000000                                                                                                                                                           00000000000000000000000000000000000000000                                                                                                                                                                                                                                                          000000                                                                                                                                                                                                                                                                                                                                                              000000        

DA000000038800000571390024258072ARSENILIA                                         FELIZ                                   BAUTISTA                                C01600092660              19380528001FS000000000000000000000000000000                                                  PEDRO SANTANA#9                                                                                                                                                                                                     000016N00000000000000000000000000000000000000000000000000                                                                                                                                                           00000000000000000000000000000000000000000                                                                                                                                                                                                                                                          000000                                                                                                                                                                                                                                                                                                                                                              000000        

DA000000038700000571250023057138RUFINO                                            ROSARIO                                 MERAN                                   C01600016370              19340228001MC000000000000000000000000000000                                                  SANCHEZ#35                                                                                                                                                                                                          000016N00000000000000000000000000000000000000000000000000                                                                                                                                                           00000000000000000000000000000000000000000                                                                                                                                                                                                                                                          000000                                                                                                                                                                                                                                                                                                                                                              000000        

DA000000035800000571290021875222FRANCISCA                                         ROSARIO                                 MERAN                                   C01600020422              19490604001FC000000000000000000000000000000                                                  GASTON F. DELIGNE#29                                                                                                                                                                                                000016N00000000000000000000000000000000000000000000000000                                                                                                                                                           00000000000000000000000000000000000000000                                                                                                                                                                                                                                                          000000                                                                                                                                                                                                                                                                                                                                                              000000        

DA000000035200000571100022532223JUAN DE LA CRUZ                                   ADAMES                                  MORILLO                                 C01600008419              19300503001MC000000000000000000000000000000                                                  SANTA TERESA#74                                                                                                                                                                                                     000016N00000000000000000000000000000000000000000000000000                                                                                                                                                           00000000000000000000000000000000000000000                                                                                                                                                                                                                                                          000000                                                                                                                                                                                                                                                                                                                                                              000000        

DA000000035300000835650022081568ANTERA                                            RAMIREZ                                 DE LOS SANTOS DE B                      C01600003774              19380103001FC000000000000000000000000000000                                                  LAS CARRERAS #13                                                                                                                                                                                                    000016N00000000000000000000000000000000000000000000000000                                                                                                                                                           00000000000000000000000000000000000000000                                                                                                                                                                                                                                                          000000                                                                                                                                                                                                                                                                                                                                                              000000        

DA000000035500000571430023453656JULIANA                                           BERIGUETE                                                                       C01600097388              19520101001FC000000000000000000000000000000                                                  MELLA#55                                                                                                                                                                                                            000016N00000000000000000000000000000000000000000000000000                                                                                                                                                           00000000000000000000000000000000000000000                                                                                                                                                                                                                                                          000000                                                                                                                                                                                                                                                                                                                                                              000000        

DA000000035100000571120024877852DELFA CLEMENTINA                                  FELIZ                                   SANCHEZ                                 C01600009524              19380227001FS000000000000000000000000000000                                                  C/ CELESTE LARA#54                                                                                                                                                                                                  000016N00000000000000000000000000000000000000000000000000                                                                                                                                                           00000000000000000000000000000000000000000                                                                                                                                                                                                                                                          000000                                                                                                                                                                                                                                                                                                                                                              000000        

DA000000860300000650470047992037ESPAMINONDA AMADA                                 MORALES                                 PICHARDO                                C06100039731              19580513001FC000000000000000000000000000000                                                  JOBA ARRIBA#                                                                                                                                                                                                        000061N00000000000000000000000000000000000000000000000000                                                                                                                                                           00000000000000000000000000000000000000000                                                                                                                                                                                                                                                          000000                                                                                                                                                                                                                                                                                                                                                              000000        

DA000000861800000603020028764068MERCEDES                                          GARCIA                                  DO#E                                    C02800355006              19550223001FC000000000000000000000000000000                                                  C/F#2                                                                                                                                                                                                               000028N00000000000000000000000000000000000000000000000000                                                                                                                                                           00000000000000000000000000000000000000000                                                                                                                                                                                                                                                          000000                                                                                                                                                                                                                                                                                                                                                              000000        

DA000000063600000634430038029060RAMONA                                            CANELA                                  CASTILLO                                C04700123906              19561209001FC000000000000000000000000000000                                                  C/ VINICIO JORGE # 18                                                                                                                                                                                               000047S19920608199307090000000000000000000000000000000000                                                                                                                                                           00000000000000000000000000000000000000000                                                                                                                                                                                                                                                          000000                                                                                                                                                                                                                                                                                                                                                              000000        

DA000000486000000634530041062258TEODORO                                           JIMENEZ                                 BAUTISTA                                C04700136858              19401207001MC000000000000000000000000000000                                                  C/ PEÑA REYNOSO # 55                                                                                                                                                                                                000047N00000000000000000000000000000000000000000000000000                                                                                                                                                           00000000000000000000000000000000000000000                                                                                                                                                                                                                                                          000000                                                                                                                                                                                                                                                                                                                                                              000000        

DA000000064000000634840042319614CARMEN MARIA                                      VILORIO                                 ROQUES                                  C04700196142              19240219001FS000000000000000000000000000000                                                  C/ SANCHEZ # 102                                                                                                                                                                                                    000047N00000000000000000000000000000000000000000000000000                                                                                                                                                           00000000000000000000000000000000000000000                                                                                                                                                                                                                                                          000000                                                                                                                                                                                                                                                                                                                                                              000000        

DA000000485100000634520040481601MARIA MAGDALENA                                   CONCEPCION                              DE MATEO                                C04700135173              19380920001FC000000000000000000000000000000                                                  C/ 7 S/N                                                                                                                                                                                                            000047N00000000000000000000000000000000000000000000000000                                                                                                                                                           00000000000000000000000000000000000000000                                                                                                                                                                                                                                                          000000                                                                                                                                                                                                                                                                                                                                                              000000        

DA000000063800000637030039005013ANA MARIA                                         JIMENEZ                                 CONCEPCION                              C04701233415              19540726001FC000000000000000000000000000000                                                  C/3 # 7                                                                                                                                                                                                             000047N00000000000000000000000000000000000000000000000000                                                                                                                                                           00000000000000000000000000000000000000000                                                                                                                                                                                                                                                          000000                                                                                                                                                                                                                                                                                                                                                              000000        

DA000000484900000873760040181552MARIA PETRONILA                                   FAÑA                                    BELTRE                                  C04700695572              19470629001FC000000000000000000000000000000                                                  AUT. DUARTE KM. 3 S/N                                                                                                                                                                                               000047N00000000000000000000000000000000000000000000000000                                                                                                                                                           00000000000000000000000000000000000000000                                                                                                                                                                                                                                                          000000                                                                                                                                                                                                                                                                                                                                                              000000        

DA000000486400000636060038067555NERYS A                                           ABREU                                   SURIEL DE A                             C04700659032              19460525001FC000000000000000000000000000000                                                  C/ PRINCIPAL # 0-95                                                                                                                                                                                                 000047N00000000000000000000000000000000000000000000000000                                                                                                                                                           00000000000000000000000000000000000000000                                                                                                                                                                                                                                                          000000                                                                                                                                                                                                                                                                                                                                                              000000        

DA000000484800001044480040765707MARIA CRISTINA                                    MERCEDES                                MARTE                                   C04700232517              19480724001FS000000000000000000000000000000                                                  C/ DUVERGE # 59                                                                                                                                                                                                     000047N00000000000000000000000000000000000000000000000000                                                                                                                                                           00000000000000000000000000000000000000000                                                                                                                                                                                                                                                          000000                                                                                                                                                                                                                                                                                                                                                              000000        

DA000000484400000873240039857707CAROLINA ANT                                      BURGOS                                  GARCIA                                  C04700001003              19471217001FC000000000000000000000000000000                                                  C/ MAXIMO GOMEZ # 15                                                                                                                                                                                                000047N00000000000000000000000000000000000000000000000000                                                                                                                                                           00000000000000000000000000000000000000000                                                                                                                                                                                                                                                          000000                                                                                                                                                                                                                                                                                                                                                              000000        

DA000000486500001062380039864257JUVENZA NATIVIDAD                                 ABREU                                   DE MARMOLEJOS                           C04700658455              19460601001FC000000000000000000000000000000                                                  C/ PRINCIPAL S/N                                                                                                                                                                                                    000047N00000000000000000000000000000000000000000000000000                                                                                                                                                           00000000000000000000000000000000000000000                                                                                                                                                                                                                                                          000000                                                                                                                                                                                                                                                                                                                                                              000000        

DA000000042800000640980040062131ANA DOLORES                                       RAMIREZ                                 ORTIZ                                   C05000059278              19540110001FS000000000000000000000000000000                                                  C/ 1 # 02                                                                                                                                                                                                           000047N00000000000000000000000000000000000000000000000000                                                                                                                                                           00000000000000000000000000000000000000000                                                                                                                                                                                                                                                          000000                                                                                                                                                                                                                                                                                                                                                              000000        

DA000000485300000633830039860366MARIA ENEDINA                                     ROSARIO                                 SANTANA DE S                            C04700022066              19491225001FC000000000000000000000000000000                                                  C/ LOLA MORILLO # 3                                                                                                                                                                                                 000047N00000000000000000000000000000000000000000000000000                                                                                                                                                           00000000000000000000000000000000000000000                                                                                                                                                                                                                                                          000000                                                                                                                                                                                                                                                                                                                                                              000000        

DA000002557100000873500039875703LUZ ANTUSA                                        PEÑA                                    GARCIA                                  C04700155064              19480822001FC000000000000000000000000000000                                                  HNAS MIRABAL #1                                                                                                                                                                                                     000047N00000000000000000000000000000000000000000000000000                                                                                                                                                           00000000000000000000000000000000000000000                                                                                                                                                                                                                                                          000000                                                                                                                                                                                                                                                                                                                                                              000000        

DA000000485700000633850039860373MATILDE DEL CARMEN                                UREÑA                                   CONIELL                                 C04700022751              19411206001FC000000000000000000000000000000                                                  C/ 5 # 18                                                                                                                                                                                                           000047N00000000000000000000000000000000000000000000000000                                                                                                                                                           00000000000000000000000000000000000000000                                                                                                                                                                                                                                                          000000                                                                                                                                                                                                                                                                                                                                                              000000        

DA000000861500000649960043686126NIÑO                                              TEJADA                                  MARTINEZ                                C06000046612              19500310001MC000000000000000000000000000000                                                  C/ DUARTE # 57                                                                                                                                                                                                      000060N00000000000000000000000000000000000000000000000000                                                                                                                                                           00000000000000000000000000000000000000000                                                                                                                                                                                                                                                          000000                                                                                                                                                                                                                                                                                                                                                              000000        

DA000000861600000637950037817827MARGARITA                                         PEÑA                                    ROSARIO                                 C04800130413              19461007001FC000000000000000000000000000000                                                  C/ SAN PEDRO#3                                                                                                                                                                                                      000048N00000000000000000000000000000000000000000000000000                                                                                                                                                           00000000000000000000000000000000000000000                                                                                                                                                                                                                                                          000000                                                                                                                                                                                                                                                                                                                                                              000000        

DA000000861700000638760038152690JOSE ALTAGRACIA                                   NUÑEZ                                                                           C04800395594              19570102001MS000000000000000000000000000000                                                  C/ PRINCIPAL #43                                                                                                                                                                                                    000048N00000000000000000000000000000000000000000000000000                                                                                                                                                           00000000000000000000000000000000000000000                                                                                                                                                                                                                                                          000000                                                                                                                                                                                                                                                                                                                                                              000000        

DA000000862100000673300052846976FRANCISCA                                         NOLASCO                                 CABRERA                                 C09600096458              19630704001FS000000000000000000000000000000                                                  C/ 2 # 4                                                                                                                                                                                                            000037N00000000000000000000000000000000000000000000000000                                                                                                                                                           00000000000000000000000000000000000000000                                                                                                                                                                                                                                                          000000                                                                                                                                                                                                                                                                                                                                                              000000        

DA000000862200000628070031776254LINA MERCEDES                                     FERNANDEZ                               DE CESPEDES                             C03700645538              19410923001FS000000000000000000000000000000                                                  PROYECTO MONTE MAR E NO. 4 APTO. 103                                                                                                                                                                                000037N00000000000000000000000000000000000000000000000000                                                                                                                                                           00000000000000000000000000000000000000000                                                                                                                                                                                                                                                          000000                                                                                                                                                                                                                                                                                                                                                              000000        

DA000000862300000625370035059887CARMEN MARIA                                      SANCHEZ                                 DE RICARDO                              C03700065083              19421230001FC000000000000000000000000000000                                                  C/5 #30                                                                                                                                                                                                             000037N00000000000000000000000000000000000000000000000000                                                                                                                                                           00000000000000000000000000000000000000000                                                                                                                                                                                                                                                          000000                                                                                                                                                                                                                                                                                                                                                              000000        

DA000000309500000674630053414065GRACIELA                                          UREÑA                                   HILARIO                                 C10200024619              19420818001FS000000000000000000000000000000                                                  C/1ERA #02                                                                                                                                                                                                          000037N00000000000000000000000000000000000000000000000000                                                                                                                                                           00000000000000000000000000000000000000000                                                                                                                                                                                                                                                          000000                                                                                                                                                                                                                                                                                                                                                              000000        

DA000000862000000630000030457068RAMON MARIA                                       MARTINEZ                                SILVERIO                                C04000040321              19370529001MC000000000000000000000000000000                                                  EL ESTRECHO LUPERON                                                                                                                                                                                                 000040N00000000000000000000000000000000000000000000000000                                                                                                                                                           00000000000000000000000000000000000000000                                                                                                                                                                                                                                                          000000                                                                                                                                                                                                                                                                                                                                                              000000        

DA000000284800000639890039995748MARIA DEL ROSARIO                                 RONDON                                  SANTOS DE NUÑEZ                         C04900116775              19491126001FC000000000000000000000000000000                                                  CALLE # 10                                                                                                                                                                                                          000049N00000000000000000000000000000000000000000000000000                                                                                                                                                           00000000000000000000000000000000000000000                                                                                                                                                                                                                                                          000000                                                                                                                                                                                                                                                                                                                                                              000000        

DA000000862400000640080040924496YLDELIZA MERCEDES                                 MARTE                                   FERNANDEZ                               C04900260060              19470111001FC000000000000000000000000000000                                                  C/ MELLA                                                                                                                                                                                                            000049N00000000000000000000000000000000000000000000000000                                                                                                                                                           00000000000000000000000000000000000000000                                                                                                                                                                                                                                                          000000                                                                                                                                                                                                                                                                                                                                                              000000        

DA000000284100000640230040933645LUZ MARIA                                         AMARANTE                                NUÑEZ                                   C04900340409              19440525001FS000000000000000000000000000000                                                  C/ MELLA # 21                                                                                                                                                                                                       000049N00000000000000000000000000000000000000000000000000                                                                                                                                                           00000000000000000000000000000000000000000                                                                                                                                                                                                                                                          000000                                                                                                                                                                                                                                                                                                                                                              000000        

DA000000180800000569240021829385NIURKA                                            DEL CARMEN                              PIÑA                                    C01200509204              19640316001FC000000000000000000000000000000                                                  C/ C #68                                                                                                                                                                                                            000229N00000000000000000000000000000000000000000000000000                                                                                                                                                           00000000000000000000000000000000000000000                                                                                                                                                                                                                                                          000000                                                                                                                                                                                                                                                                                                                                                              000000        

DA000000036300000571440024043091VICTOR CESAR                                      FELIZ                                   ALCANTARA                               C01600097420              19470115001MC000000000000000000000000000000                                                  MARIA T. SANCHEZ#11                                                                                                                                                                                                 000012S20041223000000000000000000000000000000000000000000                                                                                                                                                           00000000000000000000000000000000000000000                                                                                                                                                                                                                                                          000000                                                                                                                                                                                                                                                                                                                                                              000000        

DA000000859900000569310024208472CRISTIANA IVELISSE                                VICENTE                                 RAMIREZ                                 C01200527883              19601222001FS000000000000000000000000000000                                                  C/SAN ISIDRO#142                                                                                                                                                                                                    000012N00000000000000000000000000000000000000000000000000                                                                                                                                                           00000000000000000000000000000000000000000                                                                                                                                                                                                                                                          000000                                                                                                                                                                                                                                                                                                                                                              000000        

DA000000862800000623420033250365LUZ DEL CARMEN                                    NUÑEZ                                   ROSARIO                                 C03500011535              19430425001FC000000000000000000000000000000                                                  SABANA IGLESIA #5                                                                                                                                                                                                   000031N00000000000000000000000000000000000000000000000000                                                                                                                                                           00000000000000000000000000000000000000000                                                                                                                                                                                                                                                          000000                                                                                                                                                                                                                                                                                                                                                              000000        

DA000000862500000610820034935286GILDA RAFAELA                                     GONZALEZ                                MU#OZ                                   C03100866866              19460209001FC000000000000000000000000000000                                                  MIRADOR DEL YAQUE, ADIF.9, APTO, 1, 2DO. PISO                                                                                                                                                                       000031N00000000000000000000000000000000000000000000000000                                                                                                                                                           00000000000000000000000000000000000000000                                                                                                                                                                                                                                                          000000                                                                                                                                                                                                                                                                                                                                                              000000        

DA000000862700000629250036967363MIGUEL ANGEL                                      URE#A                                   CONCEPCION                              C03900021134              19431020001MC000000000000000000000000000000                                                  MARIA TRINIDAD SANCHEZ#12                                                                                                                                                                                           000120S19950113199601262004072700000000000000000000000000                                                                                                                                                           00000000000000000000000000000000000000000                                                                                                                                                                                                                                                          000000                                                                                                                                                                                                                                                                                                                                                              000000        

DA000000861900000621890033099003ANA ALTAGRACIA                                    GONZALEZ                                DISLA                                   C03300088527              19530222001FC000000000000000000000000000000                                                  C/ 8 # 16                                                                                                                                                                                                           000031S19970303000000000000000000000000000000000000000000                                                                                                                                                           00000000000000000000000000000000000000000                                                                                                                                                                                                                                                          000000                                                                                                                                                                                                                                                                                                                                                              000000        

DA000000862600000633420039224516ELBA GISELA ANT. DE JS.                           HIDALGO                                 TORRES                                  C04600163101              19490613001FC000000000000000000000000000000                                                  C/ LOS LOBOS                                                                                                                                                                                                        000046N00000000000000000000000000000000000000000000000000                                                                                                                                                           00000000000000000000000000000000000000000                                                                                                                                                                                                                                                          000000                                                                                                                                                                                                                                                                                                                                                              000000        

DA000000180300000819380017225455ANALICIA                                          SANTANA                                 SANCHEZ                                 C00106842032              19370925001FS000000000000000000000000000000                                                  PABLO FIALLO#47                                                                                                                                                                                                     000224N00000000000000000000000000000000000000000000000000                                                                                                                                                           00000000000000000000000000000000000000000                                                                                                                                                                                                                                                          000000                                                                                                                                                                                                                                                                                                                                                              000000        

DA000000863200000545160008429152ESPERANZA                                         VICTORIANO                              DE PATIÑO                               C00108426347              19490629001FS000000000000000000000000000000                                                  C/PALMERA #14                                                                                                                                                                                                       000229N00000000000000000000000000000000000000000000000000                                                                                                                                                           00000000000000000000000000000000000000000                                                                                                                                                                                                                                                          000000                                                                                                                                                                                                                                                                                                                                                              000000        

DA000000863100000496520000135168VICTOR MANUEL RAMIRO                              PEGUERO                                 CAAMAÑO                                 C00101477057              19321214001MS000000000000000000000000000000                                                  ESPEVILLA # 10, EDF. LIA KAMILLE , APT. 2A                                                                                                                                                                          000001N00000000000000000000000000000000000000000000000000                                                                                                                                                           00000000000000000000000000000000000000000                                                                                                                                                                                                                                                          000000                                                                                                                                                                                                                                                                                                                                                              000000        

DA000000329200000542800011140315GEORGINA                                          MONTAÑO                                 ANGUSTIAS DE MARTINEZ                   C00107991440              19390215001FC000000000000000000000000000000                                                  C/ A EDFI. 58 APTO. 201                                                                                                                                                                                             000224N00000000000000000000000000000000000000000000000000                                                                                                                                                           00000000000000000000000000000000000000000                                                                                                                                                                                                                                                          000000                                                                                                                                                                                                                                                                                                                                                              000000        

