ppnEPN42

DA000001565700000674020052874594MIREYA MINERVA                                    GIL                                     GARCIA                                  C09700123798              19550510001FS000000000000000000000000000000                                                  FRANCO  BIDO #354                                                                                                                                                                                                   000031N00000000000000000000000000000000000000000000000000                                                                                                                                                           00000000000000000000000000000000000000000                                                                                                                                                                                                                                                          000000                                                                                                                                                                                                                                                                                                                                                              000000        

DA000000552500000238670022550483GLADIS MERCEDES                                   MALTINEZ                                MATOS                                   C01700002510              19490916001FS000000000000000000000000000000                                                  MANZ.41 #13A                                                                                                                                                                                                        000001N00000000000000000000000000000000000000000000000000                                                                                                                                                           00000000000000000000000000000000000000000                                                                                                                                                                                                                                                          000000                                                                                                                                                                                                                                                                                                                                                              000000        

DA000001527800000345210045526840ALTAGRACIA FCA. EDUVIGIS R.                       HERNANDEZ                               VASQUEZ DE LOPEZ                        C05401000582              19370815001FC000000000000000000000000000000                                                  PRINCIPAL #65                                                                                                                                                                                                       000054N00000000000000000000000000000000000000000000000000                                                                                                                                                           00000000000000000000000000000000000000000                                                                                                                                                                                                                                                          000000                                                                                                                                                                                                                                                                                                                                                              000000        

DA000000301600000339350044949510BARTOLO                                           PARRA                                   PARRA                                   C05300137121              19501121001MC000000000000000000000000000000                                                  C/LEONIDAS SANTANA #11 B,                                                                                                                                                                                           000053N00000000000000000000000000000000000000000000000000                                                                                                                                                           00000000000000000000000000000000000000000                                                                                                                                                                                                                                                          000000                                                                                                                                                                                                                                                                                                                                                              000000        

DA000001528300000416570001329334INOCENCIA                                         DE LA CRUZ                              R DE SANCHEZ                            C00104885249              19350104001FS000000000000000000000000000000                                                  ANT. MA. PINEDA #29                                                                                                                                                                                                 000225N00000000000000000000000000000000000000000000000000                                                                                                                                                           00000000000000000000000000000000000000000                                                                                                                                                                                                                                                          000000                                                                                                                                                                                                                                                                                                                                                              000000        

DA000001530600000229030023058906JUANA MARIA                                       CARVAJAL                                ESPINOSA                                C01100043908              19500531001FC000000000000000000000000000000                                                  ISABEL AGUIAR #56                                                                                                                                                                                                   000001N00000000000000000000000000000000000000000000000000                                                                                                                                                           00000000000000000000000000000000000000000                                                                                                                                                                                                                                                          000000                                                                                                                                                                                                                                                                                                                                                              000000        

DA000001526200000227270020917421ALTAGRACIA OLIVA                                  ESCANIO                                 PEREYRA DE FELIZ                        C01000223261              19340905001FC000000000000000000000000000000                                                  BELLER #19                                                                                                                                                                                                          000010N00000000000000000000000000000000000000000000000000                                                                                                                                                           00000000000000000000000000000000000000000                                                                                                                                                                                                                                                          000000                                                                                                                                                                                                                                                                                                                                                              000000        

DA000001529400000249480023696406ROSA PERLINA                                      MOQUETE                                 PEREZ                                   C02000035416              19270203001FC000000000000000000000000000000                                                  C/ PENETRACION # 38                                                                                                                                                                                                 000225N00000000000000000000000000000000000000000000000000                                                                                                                                                           00000000000000000000000000000000000000000                                                                                                                                                                                                                                                          000000                                                                                                                                                                                                                                                                                                                                                              000000        

DA000001432300000150650003867728RAMONA DOLORES                                    HERNANDEZ                               NUÑEZ                                   C00107626780              19330223001FC000000000000000000000000000000                                                  LOS LIRIOS #1, URB. CASETA                                                                                                                                                                                          000223N00000000000000000000000000000000000000000000000000                                                                                                                                                           00000000000000000000000000000000000000000                                                                                                                                                                                                                                                          000000                                                                                                                                                                                                                                                                                                                                                              000000        

DA000001525900000074100001297546OLGA ALTAGRACIA                                   ALMANZAR                                GARCIA                                  C00102485265              19410329001FS000000000000000000000000000000                                                  C/ COSTA RICA #131                                                                                                                                                                                                  000225N00000000000000000000000000000000000000000000000000                                                                                                                                                           00000000000000000000000000000000000000000                                                                                                                                                                                                                                                          000000                                                                                                                                                                                                                                                                                                                                                              000000        

DA000000862800000359370047484606TOMASINA                                          OVALLES                                 LOPEZ DE SOSA                           C06400006810              19350318001FS000000000000000000000000000000                                                  C/ 1RA URB MARTINEZ # 5                                                                                                                                                                                             000064N00000000000000000000000000000000000000000000000000                                                                                                                                                           00000000000000000000000000000000000000000                                                                                                                                                                                                                                                          000000                                                                                                                                                                                                                                                                                                                                                              000000        

DA000001584200000020700000034330SOCORRO EDUVIGIS                                  GUZMAN                                  C DE MARTINEZ                           C00100580281              19310417001FS000000000000000000000000000000                                                  C/GUAROCUYA #48                                                                                                                                                                                                     000001N00000000000000000000000000000000000000000000000000                                                                                                                                                           00000000000000000000000000000000000000000                                                                                                                                                                                                                                                          000000                                                                                                                                                                                                                                                                                                                                                              000000        

DA000001538900000516970005562034JOSE RAMON                                        VENTURA                                 VALVERDE                                C00104499645              19460922001MS000000000000000000000000000000                                                  CALLE 6 #112                                                                                                                                                                                                        000001N00000000000000000000000000000000000000000000000000                                                                                                                                                           00000000000000000000000000000000000000000                                                                                                                                                                                                                                                          000000                                                                                                                                                                                                                                                                                                                                                              000000        

DA000001536500000657180048863594MARCOS IGNACIO                                    MENDEZ                                  FORTUNA                                 C07300120669              19470729001MC000000000000000000000000000000                                                  C/ JUAN PABLO DUARTE #23                                                                                                                                                                                            000073N00000000000000000000000000000000000000000000000000                                                                                                                                                           00000000000000000000000000000000000000000                                                                                                                                                                                                                                                          000000                                                                                                                                                                                                                                                                                                                                                              000000        

DA000001567900000877110046195082DARIO BARDEMAL                                    FERNANDEZ                               SANTOS                                  C05400012174              19441111001MS000000000000000000000000000000                                                  COLON #9                                                                                                                                                                                                            000054N00000000000000000000000000000000000000000000000000                                                                                                                                                           00000000000000000000000000000000000000000                                                                                                                                                                                                                                                          000000                                                                                                                                                                                                                                                                                                                                                              000000        

DA000001453800000318300037952773MARIA ANTONIA                                     RIVAS                                   GONZALEZ                                C04500072089              19420613001FS000000000000000000000000000000                                                  APTO. I3, EDF. ONICE RES. JOYA DE LUXE                                                                                                                                                                              000031N00000000000000000000000000000000000000000000000000                                                                                                                                                           00000000000000000000000000000000000000000                                                                                                                                                                                                                                                          000000                                                                                                                                                                                                                                                                                                                                                              000000        

DA000001295800000375460005010490MARIA OCTAVIA                                     GONZALEZ                                G DE ACOSTA                             C08000019730              19301020001FC000000000000000000000000000000                                                  C/ PRIMERA #5                                                                                                                                                                                                       000080N00000000000000000000000000000000000000000000000000                                                                                                                                                           00000000000000000000000000000000000000000                                                                                                                                                                                                                                                          000000                                                                                                                                                                                                                                                                                                                                                              000000        

DA000001291400000348420045378921CATALINA                                          ORTEGA                                  ACOSTA                                  C05600024789              19360813001FC000000000000000000000000000000                                                  ESPAILLAT #39                                                                                                                                                                                                       000056N00000000000000000000000000000000000000000000000000                                                                                                                                                           00000000000000000000000000000000000000000                                                                                                                                                                                                                                                          000000                                                                                                                                                                                                                                                                                                                                                              000000        

DA000001525000000657230049406434PAULINO                                           JIMENEZ                                                                         C07400016296              19580505001MC000000000000000000000000000000                                                  C/ FRANCISCO A, CAAMAÑO #22                                                                                                                                                                                         000229N00000000000000000000000000000000000000000000000000                                                                                                                                                           00000000000000000000000000000000000000000                                                                                                                                                                                                                                                          000000                                                                                                                                                                                                                                                                                                                                                              000000        

DA000001526300000014160001094890JUANITA                                           GONZALEZ                                RAMIREZ DE SOSA                         C00100270529              19380107001FS000000000000000000000000000000                                                  C/ JUAN MORLA # 6                                                                                                                                                                                                   000001N00000000000000000000000000000000000000000000000000                                                                                                                                                           00000000000000000000000000000000000000000                                                                                                                                                                                                                                                          000000                                                                                                                                                                                                                                                                                                                                                              000000        

DA000001527500000236490024244007MARIA TEOLINDA                                    SEGURA                                  DE MONTERO                              C01400004097              19390206001FS000000000000000000000000000000                                                  C/ LANDESTOY # 37                                                                                                                                                                                                   000014N00000000000000000000000000000000000000000000000000                                                                                                                                                           00000000000000000000000000000000000000000                                                                                                                                                                                                                                                          000000                                                                                                                                                                                                                                                                                                                                                              000000        

DA000001409200000098690015229998CARMEN BOLIVIA                                    VALDEZ                                  MONTILLA                                C00104169370              19510815001FC000000000000000000000000000000                                                  C/8 #152                                                                                                                                                                                                            000001N00000000000000000000000000000000000000000000000000                                                                                                                                                           00000000000000000000000000000000000000000                                                                                                                                                                                                                                                          000000                                                                                                                                                                                                                                                                                                                                                              000000        

DA000000020900000338910044432654ASIA MARIA DEL C.                                 COLON                                   M.                                      C05300031290              19400609001FC000000000000000000000000000000                                                  C/ 27 DE FEBRERO # 6                                                                                                                                                                                                000053N00000000000000000000000000000000000000000000000000                                                                                                                                                           00000000000000000000000000000000000000000                                                                                                                                                                                                                                                          000000                                                                                                                                                                                                                                                                                                                                                              000000        

DA000000108300000614430035245863DULCE MARIA                                       BRITO                                   DE RODRIGUEZ                            C03101412728              19541110001FC000000000000000000000000000000                                                  C/ 4 EDIF 1 APT 1A  VILLA MAGISTERIAL                                                                                                                                                                               000031N00000000000000000000000000000000000000000000000000                                                                                                                                                           00000000000000000000000000000000000000000                                                                                                                                                                                                                                                          000000                                                                                                                                                                                                                                                                                                                                                              000000        

DA000001531000000043920010280004BERNARDITA DEL CARMEN                             RODRIGUEZ                               RODRIGUEZ                               C00101243707              19530212001FS000000000000000000000000000000                                                  C/PROY ECTO #79                                                                                                                                                                                                     000001N00000000000000000000000000000000000000000000000000                                                                                                                                                           00000000000000000000000000000000000000000                                                                                                                                                                                                                                                          000000                                                                                                                                                                                                                                                                                                                                                              000000        

DA000004341500000004560006793050ANA CONSUELO                                      GONZALEZ                                VARGAS                                  C00100079888              19370720001FU000000000000000000000000000000                                                  C/21 #1                                                                                                                                                                                                             000001N00000000000000000000000000000000000000000000000000                                                                                                                                                           00000000000000000000000000000000000000000                                                                                                                                                                                                                                                          000000                                                                                                                                                                                                                                                                                                                                                              000000        

DA000001525200000212890021031871PABLO                                             ROMERO                                  ROMERO                                  C00200639995              19340630001MC000000000000000000000000000000                                                  C/19 DE MARZO #8                                                                                                                                                                                                    000002N00000000000000000000000000000000000000000000000000                                                                                                                                                           00000000000000000000000000000000000000000                                                                                                                                                                                                                                                          000000                                                                                                                                                                                                                                                                                                                                                              000000        

DA000000928400000878900043984295EFRAIN                                            UREÑA                                   GARCIA                                  C05500048854              19450421001MC000000000000000000000000000000                                                  LAS CAOBAS # 11                                                                                                                                                                                                     000055N00000000000000000000000000000000000000000000000000                                                                                                                                                           00000000000000000000000000000000000000000                                                                                                                                                                                                                                                          000000                                                                                                                                                                                                                                                                                                                                                              000000        

DA000001564300000605440031497925FATIMA DEL ROSARIO                                TERRERO                                 DE MORA                                 C03100161763              19501020001FC000000000000000000000000000000                                                  AV. SABANA IGLESIA #37                                                                                                                                                                                              000031N00000000000000000000000000000000000000000000000000                                                                                                                                                           00000000000000000000000000000000000000000                                                                                                                                                                                                                                                          000000                                                                                                                                                                                                                                                                                                                                                              000000        

DA000001530700000093510000226296ROSA ADELAIDA                                     OLIVO                                   DE TEJEDA                               C00103837332              19241215001FU000000000000000000000000000000                                                  C/ JOSE DOLORES CERO  # 3                                                                                                                                                                                           000001N00000000000000000000000000000000000000000000000000                                                                                                                                                           00000000000000000000000000000000000000000                                                                                                                                                                                                                                                          000000                                                                                                                                                                                                                                                                                                                                                              000000        

DA000000629700000335080040620218MARCELINO                                         GUERRERO                                ROJAS                                   C04900234784              19430101001MC000000000000000000000000000000                                                  C/ PRINCIPAL # 78                                                                                                                                                                                                   000049N00000000000000000000000000000000000000000000000000                                                                                                                                                           00000000000000000000000000000000000000000                                                                                                                                                                                                                                                          000000                                                                                                                                                                                                                                                                                                                                                              000000        

DA000001537500000326150038064163GLADYS MARIA                                      ABREU                                   GUTIERREZ VDA, TAVERA                   C04700627682              19281027001FC000000000000000000000000000000                                                  C/ PRINCIPAL #56                                                                                                                                                                                                    000047N00000000000000000000000000000000000000000000000000                                                                                                                                                           00000000000000000000000000000000000000000                                                                                                                                                                                                                                                          000000                                                                                                                                                                                                                                                                                                                                                              000000        

DA000001536200000177130013409332RAMONA ESPERANZA                                  MENA                                    MENA                                    C00110682473              19280109001FU000000000000000000000000000000                                                  PALACIO DE LOS DEPORTES #55B                                                                                                                                                                                        000001N00000000000000000000000000000000000000000000000000                                                                                                                                                           00000000000000000000000000000000000000000                                                                                                                                                                                                                                                          000000                                                                                                                                                                                                                                                                                                                                                              000000        

DA000001539700000204740018077480FELICIA                                           JIMENEZ                                                                         C00200043578              19571220001FS000000000000000000000000000000                                                  FRANCISCO PRADEL #21                                                                                                                                                                                                000002N00000000000000000000000000000000000000000000000000                                                                                                                                                           00000000000000000000000000000000000000000                                                                                                                                                                                                                                                          000000                                                                                                                                                                                                                                                                                                                                                              000000        

DA000001546800000568950022459740MARGARITA                                         RODRGUEZ                                AQUINO                                  C01200317509              19400124001FC000000000000000000000000000000                                                  EL CORBANO #100                                                                                                                                                                                                     000012N00000000000000000000000000000000000000000000000000                                                                                                                                                           00000000000000000000000000000000000000000                                                                                                                                                                                                                                                          000000                                                                                                                                                                                                                                                                                                                                                              000000        

DA000001546200000122990015075548ANIBAL DE LA CRUZ                                 JAQUEZ                                  RAMIREZ                                 C00105684724              19490915001MC000000000000000000000000000000                                                  MANZ.G EDIF.18, APTO 4-A                                                                                                                                                                                            000001N00000000000000000000000000000000000000000000000000                                                                                                                                                           00000000000000000000000000000000000000000                                                                                                                                                                                                                                                          000000                                                                                                                                                                                                                                                                                                                                                              000000        

DA000001534700000653560048260492ALTAGRACIA MILANDINA                              PUJOLS                                  SUAZO DE DIAZ                           C06800069525              19440724001FS000000000000000000000000000000                                                  C/MELLA #81                                                                                                                                                                                                         000002N00000000000000000000000000000000000000000000000000                                                                                                                                                           00000000000000000000000000000000000000000                                                                                                                                                                                                                                                          000000                                                                                                                                                                                                                                                                                                                                                              000000        

DA000001539000001023070024366115FRANCISCO ANTONIO                                 VALENZUELA                              ANGOMAS                                 C01200115044              19481004001MC000000000000000000000000000000                                                  C/M.A. #19                                                                                                                                                                                                          000012N00000000000000000000000000000000000000000000000000                                                                                                                                                           00000000000000000000000000000000000000000                                                                                                                                                                                                                                                          000000                                                                                                                                                                                                                                                                                                                                                              000000        

DA000001529500000152890013241603JUANA                                             GOMEZ                                   MONTERO DE GENAO                        C00107782591              19481227001FC000000000000000000000000000000                                                  C/ 4TA #3                                                                                                                                                                                                           000001N00000000000000000000000000000000000000000000000000                                                                                                                                                           00000000000000000000000000000000000000000                                                                                                                                                                                                                                                          000000                                                                                                                                                                                                                                                                                                                                                              000000        

DA000001515400000279240035202222LUCRECIA                                          CRUZ                                    PEREZ                                   C03100311335              19361123001FC000000000000000000000000000000                                                  VILLA MARINA #44                                                                                                                                                                                                    000031N00000000000000000000000000000000000000000000000000                                                                                                                                                           00000000000000000000000000000000000000000                                                                                                                                                                                                                                                          000000                                                                                                                                                                                                                                                                                                                                                              000000        

DA000001559600000520370004543616SILVIO DOMINICANO                                 MEDINA                                  GUZMAN                                  C00105043244              19341020001MC000000000000000000000000000000                                                  SEPTENTRIONAL #13                                                                                                                                                                                                   000223N00000000000000000000000000000000000000000000000000                                                                                                                                                           00000000000000000000000000000000000000000                                                                                                                                                                                                                                                          000000                                                                                                                                                                                                                                                                                                                                                              000000        

DA000001359400000568770024372607RHINA MILEDYS                                     VALENZUELA                              VILLEGAS                                C01200169702              19530505001FU000000000000000000000000000000                                                  C/MELLA #120                                                                                                                                                                                                        000012N00000000000000000000000000000000000000000000000000                                                                                                                                                           00000000000000000000000000000000000000000                                                                                                                                                                                                                                                          000000                                                                                                                                                                                                                                                                                                                                                              000000        

DA000000357500000044530010282317ANA HILDA                                         MENDEZ                                  ALMANZAR                                C00101257426              19321104001FC000000000000000000000000000000                                                  C/3ERA. #60                                                                                                                                                                                                         000001N00000000000000000000000000000000000000000000000000                                                                                                                                                           00000000000000000000000000000000000000000                                                                                                                                                                                                                                                          000000                                                                                                                                                                                                                                                                                                                                                              000000        

DA000001531500000071670001281838MARIA ALTAGRACIA                                  PEÑA                                    TERRERO                                 C00102349305              19340121001FS000000000000000000000000000000                                                  BALTAZAR ALVAREZ #64                                                                                                                                                                                                000001N00000000000000000000000000000000000000000000000000                                                                                                                                                           00000000000000000000000000000000000000000                                                                                                                                                                                                                                                          000000                                                                                                                                                                                                                                                                                                                                                              000000        

DA000001545000000216420021016397ANTONIA ROSALIA                                   GUERRERO                                DE GONZALEZ                             C00300055605              19390118001FC000000000000000000000000000000                                                  FRANCISCA LA FRANCISQUERA NO. 8                                                                                                                                                                                     000003N00000000000000000000000000000000000000000000000000                                                                                                                                                           00000000000000000000000000000000000000000                                                                                                                                                                                                                                                          000000                                                                                                                                                                                                                                                                                                                                                              000000        

DA000001545200000233980023394812MARIA LEONIDAS                                    DE LOS SANTOS                           SILVA                                   C01200386785              19360220001FS000000000000000000000000000000                                                  C/ INDEPENDENCIA #24                                                                                                                                                                                                000012N00000000000000000000000000000000000000000000000000                                                                                                                                                           00000000000000000000000000000000000000000                                                                                                                                                                                                                                                          000000                                                                                                                                                                                                                                                                                                                                                              000000        

DA000001531100000362980047386814SENEIDA                                           JIMENEZ                                 ESPINO                                  C06600136441              19440326001FC000000000000000000000000000000                                                  CARRET, SANCHEZ SAMANA S/N                                                                                                                                                                                          000066N00000000000000000000000000000000000000000000000000                                                                                                                                                           00000000000000000000000000000000000000000                                                                                                                                                                                                                                                          000000                                                                                                                                                                                                                                                                                                                                                              000000        

DA000001538700000341380046872913MARIA DEL CARMEN                                  LOPEZ                                   LOPEZ                                   C05400121561              19420306001FC000000000000000000000000000000                                                  OCTAVIO GUZMAN #5                                                                                                                                                                                                   000054N00000000000000000000000000000000000000000000000000                                                                                                                                                           00000000000000000000000000000000000000000                                                                                                                                                                                                                                                          000000                                                                                                                                                                                                                                                                                                                                                              000000        

DA000001534900000050910011776072LIBRADA                                           MARTINEZ                                                                        C00101476059              19300615001FC000000000000000000000000000000                                                  C/ PASE DE LOS PROFESORES #16                                                                                                                                                                                       000001N00000000000000000000000000000000000000000000000000                                                                                                                                                           00000000000000000000000000000000000000000                                                                                                                                                                                                                                                          000000                                                                                                                                                                                                                                                                                                                                                              000000        

DA000001529700000414700013890618ERCIRA                                            PEREZ                                   RAMIREZ                                 C00104322631              19440523001FS000000000000000000000000000000                                                  VICENZA NO. 36                                                                                                                                                                                                      000010N00000000000000000000000000000000000000000000000000                                                                                                                                                           00000000000000000000000000000000000000000                                                                                                                                                                                                                                                          000000                                                                                                                                                                                                                                                                                                                                                              000000        

DA000001535200000228680023928993LEOCADIO MANUEL                                   POLANCO                                 TERRERO                                 C01100012192              19281209001MS000000000000000000000000000000                                                  DUARTE #4                                                                                                                                                                                                           000011N00000000000000000000000000000000000000000000000000                                                                                                                                                           00000000000000000000000000000000000000000                                                                                                                                                                                                                                                          000000                                                                                                                                                                                                                                                                                                                                                              000000        

DA000003548300000332800040592437GERTRUDYS                                         OTAÑEZ                                  MANZUETA                                C04900007552              19321116001FS000000000000000000000000000000                                                  C/ JUAN SANCHEZ RAMIREZ # 99                                                                                                                                                                                        000049N00000000000000000000000000000000000000000000000000                                                                                                                                                           00000000000000000000000000000000000000000                                                                                                                                                                                                                                                          000000                                                                                                                                                                                                                                                                                                                                                              000000        

DA000001515100000293240034311221HILSA ALTAGRACIA                                  SANTOS                                  CASTILLO                                C03101561714              19670224001FC000000000000000000000000000000                                                  MONTE ADENTRO                                                                                                                                                                                                       000095N00000000000000000000000000000000000000000000000000                                                                                                                                                           00000000000000000000000000000000000000000                                                                                                                                                                                                                                                          000000                                                                                                                                                                                                                                                                                                                                                              000000        

DA000001526400000009700009619051IVONNE ISAAC                                      VANDERHORST                             CASTELLANOS                             C00100132547              19480603001FC000000000000000000000000000000                                                  C/STO. RODRIGUEZ EDIF.14 APT.8                                                                                                                                                                                      000001N00000000000000000000000000000000000000000000000000                                                                                                                                                           00000000000000000000000000000000000000000                                                                                                                                                                                                                                                          000000                                                                                                                                                                                                                                                                                                                                                              000000        

DA000001528500000375560048962326HILDA DILENIA                                     FELIZ                                   DE HOLGUIN                              C08000036379              19491114001FC000000000000000000000000000000                                                  C/ PADRE MERIÑO #71                                                                                                                                                                                                 000080N00000000000000000000000000000000000000000000000000                                                                                                                                                           00000000000000000000000000000000000000000                                                                                                                                                                                                                                                          000000                                                                                                                                                                                                                                                                                                                                                              000000        

DA000000078400000631530039511532LUZ OLIVIA                                        DOMINGUEZ                               P DE RODRIGUEZ                          C04400090306              19380603001FC000000000000000000000000000000                                                  54 PHIL BRICK ST. 1                                                                                                                                                                                                 000115N00000000000000000000000000000000000000000000000000                                                                                                                                                           00000000000000000000000000000000000000000                                                                                                                                                                                                                                                          000000                                                                                                                                                                                                                                                                                                                                                              000000        

DA000000927500001048120045849562FRANCISCO                                         ROJAS                                                                           C05900001917              19440618001MC000000000000000000000000000000                                                  C/PEDRO MA. GOMEZ#14                                                                                                                                                                                                000059N00000000000000000000000000000000000000000000000000                                                                                                                                                           00000000000000000000000000000000000000000                                                                                                                                                                                                                                                          000000                                                                                                                                                                                                                                                                                                                                                              000000        

DA000000652100000647900044546263ORFILIA ARGENTINA                                 VARGAS                                  CRUZ                                    C05600741317              19430123001FS000000000000000000000000000000                                                  EDIF. 1 APTO. 301                                                                                                                                                                                                   000056N00000000000000000000000000000000000000000000000000                                                                                                                                                           00000000000000000000000000000000000000000                                                                                                                                                                                                                                                          000000                                                                                                                                                                                                                                                                                                                                                              000000        

DA000000205300000576350023500987DAVID                                             GARCIA                                  PEREZ                                   C01800252916              19410803001MC000000000000000000000000000000                                                  CONFESOR GARCIA#48                                                                                                                                                                                                  000018N00000000000000000000000000000000000000000000000000                                                                                                                                                           00000000000000000000000000000000000000000                                                                                                                                                                                                                                                          000000                                                                                                                                                                                                                                                                                                                                                              000000        

DA000001569200000633440039838168LUZ MARIA                                         RODRIGUEZ                               TEJADA                                  C04600177408              19550815001FC000000000000000000000000000000                                                  MANZ. A EDF.2 APTO.1-B                                                                                                                                                                                              000031N00000000000000000000000000000000000000000000000000                                                                                                                                                           00000000000000000000000000000000000000000                                                                                                                                                                                                                                                          000000                                                                                                                                                                                                                                                                                                                                                              000000        

DA000001557600000524000002649506ANA FLORINDA                                      BEATO                                   POLANCO                                 C00105601892              19320225001FS000000000000000000000000000000                                                  AUT DE SAN ISIDRO RES AMARILIS 3 #5A                                                                                                                                                                                000223N00000000000000000000000000000000000000000000000000                                                                                                                                                           00000000000000000000000000000000000000000                                                                                                                                                                                                                                                          000000                                                                                                                                                                                                                                                                                                                                                              000000        

DA000000301300000672690051482942MARIA ALTAGRACIA                                  PEÑA                                    DE LA ROSA                              C09500104196              19580121001FC000000000000000000000000000000                                                  LICEY AL MEDIO #27                                                                                                                                                                                                  000095N00000000000000000000000000000000000000000000000000                                                                                                                                                           00000000000000000000000000000000000000000                                                                                                                                                                                                                                                          000000                                                                                                                                                                                                                                                                                                                                                              000000        

DA000001078700000811960011645203VALENCIA ALTAGRACIA                               CHUAN                                   DE FATULE                               C00105260103              19381016001FC000000000000000000000000000000                                                  PRESIDENTE  VASQUEZ #122                                                                                                                                                                                            000225N00000000000000000000000000000000000000000000000000                                                                                                                                                           00000000000000000000000000000000000000000                                                                                                                                                                                                                                                          000000                                                                                                                                                                                                                                                                                                                                                              000000        

DA000001456100000629710031335628SIXTA CELESTINA                                   SANTOS                                  SANTOS                                  C03900150743              19550706001FC000000000000000000000000000000                                                  C/3, EDIF. 20 APTO 2-B                                                                                                                                                                                              000031N00000000000000000000000000000000000000000000000000                                                                                                                                                           00000000000000000000000000000000000000000                                                                                                                                                                                                                                                          000000                                                                                                                                                                                                                                                                                                                                                              000000        

S000066                                                                                                                                                 