EPN42
DA000000345900000565210021477156GONZALEZ  DE SILFA                                MATOS                                   GONZALEZ DE SILFA                       C01000048122              19440707001FC000000000000000000000000000000                                                  DR. ARMANDO AYBAR # 82                                                                                                                                                                                              000010N00000000000000000000000000000000000000000000000000                                                                                                                                                           00000000000000000000000000000000000000000                                                                                                                                                                                                                                                          000000                                                                                                                                                                                                                                                                                                                                                              000000        
DA000000776800000566580019393035FLAVIA                                            ACERO                                   MONTAÑO DE CRUZ                         C01000454437              19491222001FC000000000000000000000000000000                                                  MARIA TRINIDAD SANCHEZ # 08                                                                                                                                                                                         000107N00000000000000000000000000000000000000000000000000                                                                                                                                                           00000000000000000000000000000000000000000                                                                                                                                                                                                                                                          000000                                                                                                                                                                                                                                                                                                                                                              000000        
DA000000465600000573090024082540ALCIDES DAVID                                     PENA                                                                            C01800070847              19440420001MC000000000000000000000000000000                                                  C/ 3RA, EDIF. 20, APTO. 301.                                                                                                                                                                                        000018N00000000000000000000000000000000000000000000000000                                                                                                                                                           00000000000000000000000000000000000000000                                                                                                                                                                                                                                                          000000                                                                                                                                                                                                                                                                                                                                                              000000        
DA000000873300000574960022137352MANUEL ANTONIO                                    PEÑA                                    SANTANA                                 C01800170704              19410614001MC000000000000000000000000000000                                                  C/ 7 #24                                                                                                                                                                                                            000018N00000000000000000000000000000000000000000000000000                                                                                                                                                           00000000000000000000000000000000000000000                                                                                                                                                                                                                                                          000000                                                                                                                                                                                                                                                                                                                                                              000000        
DA000000355700000575680024945898ESTELA MARGARITA                                  PEÑA                                    SEGURA DE PEÑA                          C01800221952              19410623001FC000000000000000000000000000000                                                  DR. FERIS OLIVERO #87                                                                                                                                                                                               000130N00000000000000000000000000000000000000000000000000                                                                                                                                                           00000000000000000000000000000000000000000                                                                                                                                                                                                                                                          000000                                                                                                                                                                                                                                                                                                                                                              000000        
DA000000459300000881970050156023EMMA TERESA                                       NAVARRO                                 GONZALEZ                                C07900009841              19460308001FS000000000000000000000000000000                                                  BENJAMIN FELIZ # 30                                                                                                                                                                                                 000079N00000000000000000000000000000000000000000000000000                                                                                                                                                           00000000000000000000000000000000000000000                                                                                                                                                                                                                                                          000000                                                                                                                                                                                                                                                                                                                                                              000000        
DA000000459400000658650049823440MANUEL EMILIO                                     GONZALEZ                                CASTILLO                                C07900026746              19601001001MC000000000000000000000000000000                                                  ARZOBISPO MERIÑO # 88                                                                                                                                                                                               000079N00000000000000000000000000000000000000000000000000                                                                                                                                                           00000000000000000000000000000000000000000                                                                                                                                                                                                                                                          000000                                                                                                                                                                                                                                                                                                                                                              000000        
DA000000748900000631150038300331SABAS ARGENCIANO                                  HENRIQUEZ                               PEÑA                                    C04300032200              19540105001MC000000000000000000000000000000                                                  C/ DUARTE # 30                                                                                                                                                                                                      000073S19950927199804290000000000000000000000000000000000                                                                                                                                                           00000000000000000000000000000000000000000                                                                                                                                                                                                                                                          000000                                                                                                                                                                                                                                                                                                                                                              000000        
DA000001011300000504660017096961ELOISA YSABEL DEL CARMEN                          ARREDONDO                               RODRIGUEZ                               C00102480696              19500708001FC000000000000000000000000000000                                                  C/ ROCCO CUCHIA # 42                                                                                                                                                                                                000001N00000000000000000000000000000000000000000000000000                                                                                                                                                           00000000000000000000000000000000000000000                                                                                                                                                                                                                                                          000000                                                                                                                                                                                                                                                                                                                                                              000000        
DA000000937200000487980005687316LUCILA                                            ROSARIO                                 ZAYAS                                   C00100653070              19470625001FS000000000000000000000000000000                                                  PLAZA # 19                                                                                                                                                                                                          000225N00000000000000000000000000000000000000000000000000                                                                                                                                                           00000000000000000000000000000000000000000                                                                                                                                                                                                                                                          000000                                                                                                                                                                                                                                                                                                                                                              000000        
DA000001005100000496690017082221INDIANA ALTAGRACIA                                RODRIGUEZ                               VASQUEZ DE MOLINA                       C00101485456              19420724001FC000000000000000000000000000000                                                  C/ MADRE CARMEN # 1                                                                                                                                                                                                 000001N00000000000000000000000000000000000000000000000000                                                                                                                                                           00000000000000000000000000000000000000000                                                                                                                                                                                                                                                          000000                                                                                                                                                                                                                                                                                                                                                              000000        
DA000000062000001044540038347144ALBERTA CECILIA                                   CUSTODIO                                NERIS DE TAVERAS                        C04700419049              19360807001FS000000000000000000000000000000                                                  PROL. EDUARDO BRITO # 35                                                                                                                                                                                            000223N00000000000000000000000000000000000000000000000000                                                                                                                                                           00000000000000000000000000000000000000000                                                                                                                                                                                                                                                          000000                                                                                                                                                                                                                                                                                                                                                              000000        
DA000000936500000518310000269877ANTONIA PAULINA                                   NAAR                                                                            C00104727607              19440910001FS000000000000000000000000000000                                                  MANZ. 22 # 22                                                                                                                                                                                                       000223N00000000000000000000000000000000000000000000000000                                                                                                                                                           00000000000000000000000000000000000000000                                                                                                                                                                                                                                                          000000                                                                                                                                                                                                                                                                                                                                                              000000        
DA000000749500000644150045741786ANA GERTRUDIS                                     ALMANZAR                                COMPRES                                 C05400598081              19560501001FC000000000000000000000000000000                                                  C/ SEGUNDA # 11                                                                                                                                                                                                     000054N00000000000000000000000000000000000000000000000000                                                                                                                                                           00000000000000000000000000000000000000000                                                                                                                                                                                                                                                          000000                                                                                                                                                                                                                                                                                                                                                              000000        
DA000000905000000661420050351973GUILLERMINA                                       ESPINAL                                 PEREYRA DE SANTANA                      C08500001501              19490626001FC000000000000000000000000000000                                                  C/ RAMON MARRERO ARISTY # 19                                                                                                                                                                                        000085N00000000000000000000000000000000000000000000000000                                                                                                                                                           00000000000000000000000000000000000000000                                                                                                                                                                                                                                                          000000                                                                                                                                                                                                                                                                                                                                                              000000        
DA000000701100000661690051293778TORIBIA                                           REYNA                                   NUÑEZ DE LOPEZ                          C08500009793              19480416001FC000000000000000000000000000000                                                  SAN RAFAEL DEL YUMA # 20                                                                                                                                                                                            000085N00000000000000000000000000000000000000000000000000                                                                                                                                                           00000000000000000000000000000000000000000                                                                                                                                                                                                                                                          000000                                                                                                                                                                                                                                                                                                                                                              000000        
DA000000058100000640920041864153DOLORES                                           RAMIREZ                                 DE LOS SANTOS                           C05000049139              19530327001FC000000000000000000000000000000                                                  C/ GASTON F. DELIGNE # 43                                                                                                                                                                                           000050N00000000000000000000000000000000000000000000000000                                                                                                                                                           00000000000000000000000000000000000000000                                                                                                                                                                                                                                                          000000                                                                                                                                                                                                                                                                                                                                                              000000        
DA000000059400000636090040180631MIRIAN BERNARDA                                   ALMONTE                                 VALDEZ                                  C04700678552              19440310001FS000000000000000000000000000000                                                  RESCATE 94 # 12                                                                                                                                                                                                     000050N00000000000000000000000000000000000000000000000000                                                                                                                                                           00000000000000000000000000000000000000000                                                                                                                                                                                                                                                          000000                                                                                                                                                                                                                                                                                                                                                              000000        
DA000000057500000635350038030074ANTONIO                                           RAMIREZ                                 GRULLON                                 C04700345061              19460725001MC000000000000000000000000000000                                                  C/ PRINCIPAL # 48                                                                                                                                                                                                   000047N00000000000000000000000000000000000000000000000000                                                                                                                                                           00000000000000000000000000000000000000000                                                                                                                                                                                                                                                          000000                                                                                                                                                                                                                                                                                                                                                              000000        
DA000000059100000635710039253273MARIA TERESA                                      JIMENEZ                                 JIMENEZ                                 C04700537246              19400214001FS000000000000000000000000000000                                                  C/ VIEJA # 16                                                                                                                                                                                                       000047N00000000000000000000000000000000000000000000000000                                                                                                                                                           00000000000000000000000000000000000000000                                                                                                                                                                                                                                                          000000                                                                                                                                                                                                                                                                                                                                                              000000        
DA000000058500000635800042021635FRANCISCO JOSE                                    TORRES                                  PETITON                                 C04700556584              19360524001MC000000000000000000000000000000                                                  CARRETERA DUARTE # 111                                                                                                                                                                                              000047N00000000000000000000000000000000000000000000000000                                                                                                                                                           00000000000000000000000000000000000000000                                                                                                                                                                                                                                                          000000                                                                                                                                                                                                                                                                                                                                                              000000        
DA000000059200000633800038958722MIGUEL ANTONIO                                    MIESES                                  GALAN                                   C04700020060              19470929001MC000000000000000000000000000000                                                  C/ EUCALISTO # 2                                                                                                                                                                                                    000047S19990130000000000000000000000000000000000000000000                                                                                                                                                           00000000000000000000000000000000000000000                                                                                                                                                                                                                                                          000000                                                                                                                                                                                                                                                                                                                                                              000000        
DA000000058800000633750039556447AGUEDA RAMONA                                     GUTIERREZ                               F DE SILIA                              C04700013131              19470205001FC000000000000000000000000000000                                                  AV. IMBERT # 108                                                                                                                                                                                                    000047N00000000000000000000000000000000000000000000000000                                                                                                                                                           00000000000000000000000000000000000000000                                                                                                                                                                                                                                                          000000                                                                                                                                                                                                                                                                                                                                                              000000        
DA000000058700000634610037725627MERCEDES CARMEN HAYDEE                            CONTIN                                  CONCEPCION DE GOMEZ                     C04700152855              19360215001FC000000000000000000000000000000                                                  C/ 8 EDIF. 49 APTO. 101                                                                                                                                                                                             000047N00000000000000000000000000000000000000000000000000                                                                                                                                                           00000000000000000000000000000000000000000                                                                                                                                                                                                                                                          000000                                                                                                                                                                                                                                                                                                                                                              000000        
DA000000057100000634790038977602NIDIA                                             PAYANO                                  FERNANDEZ                               C04700190285              19600120001FC000000000000000000000000000000                                                  C/ TORIBIO RAMIREZ # 130                                                                                                                                                                                            000047S19971212200504040000000000000000000000000000000000                                                                                                                                                           00000000000000000000000000000000000000000                                                                                                                                                                                                                                                          000000                                                                                                                                                                                                                                                                                                                                                              000000        
DA000000059900000636700042366492MARIA CRISTINA                                    RAMIREZ                                 TORRES                                  C04700999081              19520612001FC000000000000000000000000000000                                                  C/ ENRIQUILLO # 5                                                                                                                                                                                                   000047N00000000000000000000000000000000000000000000000000                                                                                                                                                           00000000000000000000000000000000000000000                                                                                                                                                                                                                                                          000000                                                                                                                                                                                                                                                                                                                                                              000000        
DA000000223100000630400041923211DIVINA ALTAGRACIA                                 ROSARIO                                 FRANCISCO DE BAEZ                       C04100035346              19490415001FC000000000000000000000000000000                                                  C/ JOSE ANTONIO SALCEDO # 01                                                                                                                                                                                        000041N00000000000000000000000000000000000000000000000000                                                                                                                                                           00000000000000000000000000000000000000000                                                                                                                                                                                                                                                          000000                                                                                                                                                                                                                                                                                                                                                              000000        
DA000000223300000674340053258336FIDENCIA CASILDA                                  RIVAS                                   ARIAS                                   C10100013423              19490208001FC000000000000000000000000000000                                                  C/ PRINCIPAL # 7                                                                                                                                                                                                    000101N00000000000000000000000000000000000000000000000000                                                                                                                                                           00000000000000000000000000000000000000000                                                                                                                                                                                                                                                          000000                                                                                                                                                                                                                                                                                                                                                              000000        
DA000000222900000630320038862473BENECIA ALTAGRACIA                                LOZANO                                  DE VILLANUEVA                           C04100027038              19590401001FC000000000000000000000000000000                                                  C/ RAFAEL PELLERO # 5                                                                                                                                                                                               000041N00000000000000000000000000000000000000000000000000                                                                                                                                                           00000000000000000000000000000000000000000                                                                                                                                                                                                                                                          000000                                                                                                                                                                                                                                                                                                                                                              000000        
DA000000224800000630390041638116NURYS GRISELDA                                    RIVAS                                   FAWCETT                                 C04100035114              19420919001FS000000000000000000000000000000                                                  C/ HUMBERTO MARZAN # 14                                                                                                                                                                                             000041N00000000000000000000000000000000000000000000000000                                                                                                                                                           00000000000000000000000000000000000000000                                                                                                                                                                                                                                                          000000                                                                                                                                                                                                                                                                                                                                                              000000        
DA000001011100000485710007511561MINERVA                                           JAVIER                                  GARCIA                                  C00100400399              19531023001FC000000000000000000000000000000                                                  C/ LIMON # 294                                                                                                                                                                                                      000225N00000000000000000000000000000000000000000000000000                                                                                                                                                           00000000000000000000000000000000000000000                                                                                                                                                                                                                                                          000000                                                                                                                                                                                                                                                                                                                                                              000000        
DA000000451000000564120021600620MOISES                                            HERRERA                                 REYES                                   C00800003188              19361027001MS000000000000000000000000000000                                                  C/ MIGUEL ANGEL MONCLU # 15                                                                                                                                                                                         000008N00000000000000000000000000000000000000000000000000                                                                                                                                                           00000000000000000000000000000000000000000                                                                                                                                                                                                                                                          000000                                                                                                                                                                                                                                                                                                                                                              000000        
DA000000149600000629170036966980PEDRO ANTONIO                                     PAULINO                                 LEVY                                    C03900014428              19350220001MC000000000000000000000000000000                                                  C/ PEDRO MONTON # 23                                                                                                                                                                                                000039N00000000000000000000000000000000000000000000000000                                                                                                                                                           00000000000000000000000000000000000000000                                                                                                                                                                                                                                                          000000                                                                                                                                                                                                                                                                                                                                                              000000        
DA000000150000000628950030946508CRISTINA COLOMBINA                                ESCOTTO                                 MONTAN                                  C03900004759              19320313001FS000000000000000000000000000000                                                  C/ JAVIER MARTINEZ # 4                                                                                                                                                                                              000039N00000000000000000000000000000000000000000000000000                                                                                                                                                           00000000000000000000000000000000000000000                                                                                                                                                                                                                                                          000000                                                                                                                                                                                                                                                                                                                                                              000000        
DA000000148500000629700030862976MARTINA                                           ROSARIO                                 ROSARIO                                 C03900150628              19491015001FC000000000000000000000000000000                                                  C/ PEDRO MONTAN # 17                                                                                                                                                                                                000039N00000000000000000000000000000000000000000000000000                                                                                                                                                           00000000000000000000000000000000000000000                                                                                                                                                                                                                                                          000000                                                                                                                                                                                                                                                                                                                                                              000000        
DA000000244900000629040034367273ELVIRA                                            VERAS                                   AYBAR                                   C03900007547              19570525001FS000000000000000000000000000000                                                  C/ MATIAS FCO. # 15                                                                                                                                                                                                 000039N00000000000000000000000000000000000000000000000000                                                                                                                                                           00000000000000000000000000000000000000000                                                                                                                                                                                                                                                          000000                                                                                                                                                                                                                                                                                                                                                              000000        
DA000000214900000630100035593041ELEUTERIO                                         MARTE                                   PILAR                                   C04000098246              19450830001MC000000000000000000000000000000                                                  C/ C # 22                                                                                                                                                                                                           000031N00000000000000000000000000000000000000000000000000                                                                                                                                                           00000000000000000000000000000000000000000                                                                                                                                                                                                                                                          000000                                                                                                                                                                                                                                                                                                                                                              000000        
DA000000177300000625770030822982ALTAGRACIA                                        ROBLE                                   DE GUZMAN                               C03700127073              19271204001FS000000000000000000000000000000                                                  AV. IMBERT BARRERA # 53                                                                                                                                                                                             000037N00000000000000000000000000000000000000000000000000                                                                                                                                                           00000000000000000000000000000000000000000                                                                                                                                                                                                                                                          000000                                                                                                                                                                                                                                                                                                                                                              000000        
DA000000523900000626270030405264EDITA                                             TAVAREZ                                 ELIVO                                   C03700199049              19421010001FS000000000000000000000000000000                                                  AV. GRAL GREGORIO LUPERON APTO. 6-B                                                                                                                                                                                 000037N00000000000000000000000000000000000000000000000000                                                                                                                                                           00000000000000000000000000000000000000000                                                                                                                                                                                                                                                          000000                                                                                                                                                                                                                                                                                                                                                              000000        
DA000000523700000673530051519470DANIEL                                            FARINGTHON                              HERNANDEZ                               C09700007108              19480906001MC000000000000000000000000000000                                                  LOS CASTILLOS # 84                                                                                                                                                                                                  000097N00000000000000000000000000000000000000000000000000                                                                                                                                                           00000000000000000000000000000000000000000                                                                                                                                                                                                                                                          000000                                                                                                                                                                                                                                                                                                                                                              000000        
DA000000149400000629130034859502SIXTO                                             HENRIQUEZ                               ALMONTE                                 C03900013339              19370406001MC000000000000000000000000000000                                                  LOS ARROYOS # 10                                                                                                                                                                                                    000039N00000000000000000000000000000000000000000000000000                                                                                                                                                           00000000000000000000000000000000000000000                                                                                                                                                                                                                                                          000000                                                                                                                                                                                                                                                                                                                                                              000000        
DA000000791700000557340017589234DULCE ROMUALDA                                    DOLORES                                 DE AMPARO                               C00200136596              19560102001FC000000000000000000000000000000                                                  C/ GREGORIO LUPERON #32 ENS. CONST # 32                                                                                                                                                                             000002N00000000000000000000000000000000000000000000000000                                                                                                                                                           00000000000000000000000000000000000000000                                                                                                                                                                                                                                                          000000                                                                                                                                                                                                                                                                                                                                                              000000        
DA000000216100000639440039089685ANA DELSA DE JESUS                                ROBLES                                  SANCHEZ                                 C04900022874              19551018001FC000000000000000000000000000000                                                  C/ JUAN SANCHEZ RAMIREZ # 25                                                                                                                                                                                        000049N00000000000000000000000000000000000000000000000000                                                                                                                                                           00000000000000000000000000000000000000000                                                                                                                                                                                                                                                          000000                                                                                                                                                                                                                                                                                                                                                              000000        
DA000001004900000599980029582626DOMINGA                                           PEÑA                                                                            C02700013986              19500801001FC000000000000000000000000000000                                                  C/ SAN ANTONIO # 89                                                                                                                                                                                                 000027N00000000000000000000000000000000000000000000000000                                                                                                                                                           00000000000000000000000000000000000000000                                                                                                                                                                                                                                                          000000                                                                                                                                                                                                                                                                                                                                                              000000        
DA000000215300001052710051648815MARIA CARIDAD                                     RAMOS                                   DIAZ DE BUENO                           C09500031027              19420325001FC000000000000000000000000000000                                                  C/ FRANCISCO CAAMAÑO # 26                                                                                                                                                                                           000095N00000000000000000000000000000000000000000000000000                                                                                                                                                           00000000000000000000000000000000000000000                                                                                                                                                                                                                                                          000000                                                                                                                                                                                                                                                                                                                                                              000000        
DA000000749600000885650051654771ZOILA ERIDANIA ALTAGRACIA                         PORTES                                  ARIAS                                   C09500075594              19510908001FC000000000000000000000000000000                                                  C/ LAS PALOMAS # 33                                                                                                                                                                                                 000095N00000000000000000000000000000000000000000000000000                                                                                                                                                           00000000000000000000000000000000000000000                                                                                                                                                                                                                                                          000000                                                                                                                                                                                                                                                                                                                                                              000000        
DA000000748200000619150035498924CATALINA                                          ALMANZAR                                                                        C03102402074              19511125001FS000000000000000000000000000000                                                  C/ 7 # 7-B                                                                                                                                                                                                          000031N00000000000000000000000000000000000000000000000000                                                                                                                                                           00000000000000000000000000000000000000000                                                                                                                                                                                                                                                          000000                                                                                                                                                                                                                                                                                                                                                              000000        
DA000000749400000605620032344055MARIA DE LA CRUZ                                  PERALTA                                 PEREZ                                   C03100179740              19530503001FC000000000000000000000000000000                                                  C/ 10ENTRADA E # 3                                                                                                                                                                                                  000031N00000000000000000000000000000000000000000000000000                                                                                                                                                           00000000000000000000000000000000000000000                                                                                                                                                                                                                                                          000000                                                                                                                                                                                                                                                                                                                                                              000000        
DA000000216200000619790030647835MARY NURIS ALTAGRACIA                             PICHARDO                                HERNANDEZ DE ORTEGA                     C03102586678              19530906001FC000000000000000000000000000000                                                  C/ 2 # 6                                                                                                                                                                                                            000031N00000000000000000000000000000000000000000000000000                                                                                                                                                           00000000000000000000000000000000000000000                                                                                                                                                                                                                                                          000000                                                                                                                                                                                                                                                                                                                                                              000000        
DA000000748400000644040045732415CLARA MARIA MERCEDES                              GOMEZ                                   BURGOS                                  C05400520671              19530131001FC000000000000000000000000000000                                                  AUT. DUARTE # 14                                                                                                                                                                                                    000047N00000000000000000000000000000000000000000000000000                                                                                                                                                           00000000000000000000000000000000000000000                                                                                                                                                                                                                                                          000000                                                                                                                                                                                                                                                                                                                                                              000000        
DA000000748300000604760032807895MARIA GERTRUDIS                                   DIAZ                                    HERNANDEZ                               C03100062094              19560105001FC000000000000000000000000000000                                                  CARR. SANTA RITA # 9, KM. 8                                                                                                                                                                                         000031N00000000000000000000000000000000000000000000000000                                                                                                                                                           00000000000000000000000000000000000000000                                                                                                                                                                                                                                                          000000                                                                                                                                                                                                                                                                                                                                                              000000        
DA000000082100000611850033429556MINERVA I DE JESUS                                PEREZ                                   GLEZ DE CRUZ                            C03101008740              19411227001FC000000000000000000000000000000                                                  AV. 27 DE FEBRERL # 82                                                                                                                                                                                              000031N00000000000000000000000000000000000000000000000000                                                                                                                                                           00000000000000000000000000000000000000000                                                                                                                                                                                                                                                          000000                                                                                                                                                                                                                                                                                                                                                              000000        
DA000000748100000616050031943844RAMONA ANTONIA                                    BAEZ                                    DURAN                                   C03101600140              19450220001FC000000000000000000000000000000                                                  C/ PENETRACION # 58                                                                                                                                                                                                 000031N00000000000000000000000000000000000000000000000000                                                                                                                                                           00000000000000000000000000000000000000000                                                                                                                                                                                                                                                          000000                                                                                                                                                                                                                                                                                                                                                              000000        
DA000000246500000612520035922891DELVA DE JESUS                                    COLON                                   GOMEZ                                   C03101080673              19450806001FC000000000000000000000000000000                                                  C/ 16 DE AGOSTO # 69                                                                                                                                                                                                000031N00000000000000000000000000000000000000000000000000                                                                                                                                                           00000000000000000000000000000000000000000                                                                                                                                                                                                                                                          000000                                                                                                                                                                                                                                                                                                                                                              000000        
DA000000214800000868810033557147MARIA CRESCENCIA                                  CHAVEZ                                  TAVERAS                                 C03102840422              19430914014FS000000000000000000000000000000                                                  MANZ. A # 1-D                                                                                                                                                                                                       000031N00000000000000000000000000000000000000000000000000                                                                                                                                                           00000000000000000000000000000000000000000                                                                                                                                                                                                                                                          000000                                                                                                                                                                                                                                                                                                                                                              000000        
DA000000749700000615050035723326OLGA JOSEFINA DEL CARMEN                          AZCONA                                  PERALTA                                 C03101485401              19431026001FC000000000000000000000000000000                                                  C/ 15 # 60                                                                                                                                                                                                          000031N00000000000000000000000000000000000000000000000000                                                                                                                                                           00000000000000000000000000000000000000000                                                                                                                                                                                                                                                          000000                                                                                                                                                                                                                                                                                                                                                              000000        
DA000000749900000610360031423740JOSEFINA                                          ACOSTA                                  MEJIA                                   C03100797707              19660913001FS000000000000000000000000000000                                                  AV. TAMBORIL EDIF. 12 APTO. 1-5                                                                                                                                                                                     000031N00000000000000000000000000000000000000000000000000                                                                                                                                                           00000000000000000000000000000000000000000                                                                                                                                                                                                                                                          000000                                                                                                                                                                                                                                                                                                                                                              000000        
DA000000749000000633320038291977SATURNINA MERCEDES                                BAEZ                                    DURAN                                   C04600136537              19451129001FC000000000000000000000000000000                                                  C/RAMON JAQUEZ #7                                                                                                                                                                                                   000116N00000000000000000000000000000000000000000000000000                                                                                                                                                           00000000000000000000000000000000000000000                                                                                                                                                                                                                                                          000000                                                                                                                                                                                                                                                                                                                                                              000000        
DA000000749300000630880041658926ANGELA ADORFINA                                   ESPINAL                                 SANTANA                                 C04200026831              19531016001FS000000000000000000000000000000                                                                                                                                                                                                                                                                      000042N00000000000000000000000000000000000000000000000000                                                                                                                                                           00000000000000000000000000000000000000000                                                                                                                                                                                                                                                          000000                                                                                                                                                                                                                                                                                                                                                              000000        
DA000001005400000511520013013350FE ESPERANZA                                      CARRASCO                                MATOS                                   C00103555991              19570406001FC000000000000000000000000000000                                                  C/ EL SOL # 20                                                                                                                                                                                                      000223N00000000000000000000000000000000000000000000000000                                                                                                                                                           00000000000000000000000000000000000000000                                                                                                                                                                                                                                                          000000                                                                                                                                                                                                                                                                                                                                                              000000        
DA000000003000000496520000135168VICTOR MANUEL RAMIRO                              PEGUERO                                 CAAMAÑO                                 C00101477057              19321214001MS000000000000000000000000000000                                                  ESPEVILLA # 10, EDF. LIA KAMILLE , APT. 2A                                                                                                                                                                          000001N00000000000000000000000000000000000000000000000000                                                                                                                                                           00000000000000000000000000000000000000000                                                                                                                                                                                                                                                          000000                                                                                                                                                                                                                                                                                                                                                              000000        
DA000000789500001024330023212781NEREYDA MILADYS                                   FELIZ                                   OLIVERO                                 C01900021476              19340203001FS000000000000000000000000000000                                                  PABLO URBAEZ # 16                                                                                                                                                                                                   000019N00000000000000000000000000000000000000000000000000                                                                                                                                                           00000000000000000000000000000000000000000                                                                                                                                                                                                                                                          000000                                                                                                                                                                                                                                                                                                                                                              000000        
DA000000938500000538010015430063ALTAGRACIA DIGNA                                  GONZALEZ                                GARCIA                                  C00107333338              19360719001FS000000000000000000000000000000                                                  IMBERT #  8                                                                                                                                                                                                         000023N00000000000000000000000000000000000000000000000000                                                                                                                                                           00000000000000000000000000000000000000000                                                                                                                                                                                                                                                          000000                                                                                                                                                                                                                                                                                                                                                              000000        
DA000000941800000504270015113858IRIS ALTAGRACIA CELESTE                           BAEZ                                    PUJOLS                                  C00102442712              19440117001FS000000000000000000000000000000                                                  JUAN PINA # 21                                                                                                                                                                                                      000001N00000000000000000000000000000000000000000000000000                                                                                                                                                           00000000000000000000000000000000000000000                                                                                                                                                                                                                                                          000000                                                                                                                                                                                                                                                                                                                                                              000000        
DA000000037000000571160023640421IRMA GISELA                                       OGANDO                                  SIERRA DE PEREZ                         C01600011165              19310823001FS000000000000000000000000000000                                                  JOSE JOAQUIN PUELLO # 12                                                                                                                                                                                            000001N00000000000000000000000000000000000000000000000000                                                                                                                                                           00000000000000000000000000000000000000000                                                                                                                                                                                                                                                          000000                                                                                                                                                                                                                                                                                                                                                              000000        
DA000000935200000827230008594456ROSA AMERICA                                      DIAZ                                    REYES                                   C00110524741              19511016001FS000000000000000000000000000000                                                  SANTIAGO RODRIGUEZ # 12                                                                                                                                                                                             000224N00000000000000000000000000000000000000000000000000                                                                                                                                                           00000000000000000000000000000000000000000                                                                                                                                                                                                                                                          000000                                                                                                                                                                                                                                                                                                                                                              000000        
DA000000474400000562580018192544ALSENIO ENRIQUE                                   GONZALEZ                                HERRERA                                 C00300559325              19390503001MS000000000000000000000000000000                                                  16 DE AGOSTO # 42                                                                                                                                                                                                   000003N00000000000000000000000000000000000000000000000000                                                                                                                                                           00000000000000000000000000000000000000000                                                                                                                                                                                                                                                          000000                                                                                                                                                                                                                                                                                                                                                              000000        
DA000000471400000561350021365795AMANTINA                                          MARTINEZ                                                                        C00300082997              19401107001FS000000000000000000000000000000                                                  PROLG. 16 DE AGOSTO                                                                                                                                                                                                 000003N00000000000000000000000000000000000000000000000000                                                                                                                                                           00000000000000000000000000000000000000000                                                                                                                                                                                                                                                          000000                                                                                                                                                                                                                                                                                                                                                              000000        
DA000000917200000484450015830043FRANCISCO ADOLFO                                  GOLIBART                                PIERALDI                                C00100245307              19270616001MS000000000000000000000000000000                                                  MONTECRISTI # 48                                                                                                                                                                                                    000001N00000000000000000000000000000000000000000000000000                                                                                                                                                           00000000000000000000000000000000000000000                                                                                                                                                                                                                                                          000000                                                                                                                                                                                                                                                                                                                                                              000000        
DA000000189100000546220006204320AURA                                              OLIVERO                                 FELIZ                                   C00108602186              19520613001FS000000000000000000000000000000                                                  1RA # 28                                                                                                                                                                                                            000001N00000000000000000000000000000000000000000000000000                                                                                                                                                           00000000000000000000000000000000000000000                                                                                                                                                                                                                                                          000000                                                                                                                                                                                                                                                                                                                                                              000000        
DA000000912400000499860010770010PORFIRIA MERCEDES                                 CRUUZ                                   JENRIQUEZ                               C00101870848              19480227001FS000000000000000000000000000000                                                  AV. 30 # 10                                                                                                                                                                                                         000225N00000000000000000000000000000000000000000000000000                                                                                                                                                           00000000000000000000000000000000000000000                                                                                                                                                                                                                                                          000000                                                                                                                                                                                                                                                                                                                                                              000000        
DA000000919500000556480020454745MARIA ALTGRACIA                                   MORENO                                  CARO                                    C00200027175              19330928001FS000000000000000000000000000000                                                  OSVALDO BAZIL # 40                                                                                                                                                                                                  000002N00000000000000000000000000000000000000000000000000                                                                                                                                                           00000000000000000000000000000000000000000                                                                                                                                                                                                                                                          000000                                                                                                                                                                                                                                                                                                                                                              000000        
DA000000081000000637590041484422MARGARITA MARIA                                   VERAS                                   REYES                                   C04800079065              19350527001FS000000000000000000000000000000                                                  ESPERANZA # 3                                                                                                                                                                                                       000048N00000000000000000000000000000000000000000000000000                                                                                                                                                           00000000000000000000000000000000000000000                                                                                                                                                                                                                                                          000000                                                                                                                                                                                                                                                                                                                                                              000000        
