EPN42
DA000001441000000644430043959371ELIDA DEL CARMEN                                  GONZALEZ                                PEREZ DE GUZMAN                         C05401025266              19421018001FC000000000000000000000000000000                                                  PRINCIPAL #04                                                                                                                                                                                                       000054N00000000000000000000000000000000000000000000000000                                                                                                                                                           00000000000000000000000000000000000000000                                                                                                                                                                                                                                                          000000                                                                                                                                                                                                                                                                                                                                                              000000        
DA000001181900000341040046259186JOSE MERCEDES                                     BERIGUETTE                                                                      C05400110309              19380924001MS000000000000000000000000000000                                                  LAS FLORES                                                                                                                                                                                                          000054N00000000000000000000000000000000000000000000000000                                                                                                                                                           00000000000000000000000000000000000000000                                                                                                                                                                                                                                                          000000                                                                                                                                                                                                                                                                                                                                                              000000        
DA000000362800000589310027539646CARMEN                                            AMADOR                                  DE AQUINO                               C02500008434              19530327001FC000000000000000000000000000000                                                  RESP. BENITO MONCION # 12                                                                                                                                                                                           000026N00000000000000000000000000000000000000000000000000                                                                                                                                                           00000000000000000000000000000000000000000                                                                                                                                                                                                                                                          000000                                                                                                                                                                                                                                                                                                                                                              000000        
DA000001559000001025650025382493VIRGINIA                                          SANCHEZ                                 ABREU DE ABREU                          C02300194210              19450114001FC000000000000000000000000000000                                                  ANDRES SORIANO #26                                                                                                                                                                                                  000023N00000000000000000000000000000000000000000000000000                                                                                                                                                           00000000000000000000000000000000000000000                                                                                                                                                                                                                                                          000000                                                                                                                                                                                                                                                                                                                                                              000000        
DA000000553900000341770044678536LILIAN ANTONIA                                    JOAQUIN                                 CUEVAS                                  C05400130679              19421010001FC000000000000000000000000000000                                                  C/SALOME URE#A #54                                                                                                                                                                                                  000054N00000000000000000000000000000000000000000000000000                                                                                                                                                           00000000000000000000000000000000000000000                                                                                                                                                                                                                                                          000000                                                                                                                                                                                                                                                                                                                                                              000000        
DA000000553000000352460046076742ROSA MARIA EULOGIA                                SANTANA                                 LANTIGUA                                C05600602956              19520611001FC000000000000000000000000000000                                                  AVE. LIBERTAD NO. 84                                                                                                                                                                                                000056N00000000000000000000000000000000000000000000000000                                                                                                                                                           00000000000000000000000000000000000000000                                                                                                                                                                                                                                                          000000                                                                                                                                                                                                                                                                                                                                                              000000        
DA000000927400000649420044298420MARTIN                                            REYNOSO                                 ROJAS                                   C05900066068              19470320001MS000000000000000000000000000000                                                  EL RUCIO #18                                                                                                                                                                                                        000059N00000000000000000000000000000000000000000000000000                                                                                                                                                           00000000000000000000000000000000000000000                                                                                                                                                                                                                                                          000000                                                                                                                                                                                                                                                                                                                                                              000000        
DA000001523500000054860005391397ALTAGRACIA VERENA                                 GENAO                                   SOSA                                    C00101571008              19320626001FU000000000000000000000000000000                                                  XII JUEGOS #69                                                                                                                                                                                                      000224N00000000000000000000000000000000000000000000000000                                                                                                                                                           00000000000000000000000000000000000000000                                                                                                                                                                                                                                                          000000                                                                                                                                                                                                                                                                                                                                                              000000        
DA000000403200000844650027277473SILVIA ELENA                                      FULGENCIO                               MANZANILLO                              C02300473853              19471231001FC000000000000000000000000000000                                                  C/ FRANCISCA MERCEDES # 29                                                                                                                                                                                          000138N00000000000000000000000000000000000000000000000000                                                                                                                                                           00000000000000000000000000000000000000000                                                                                                                                                                                                                                                          000000                                                                                                                                                                                                                                                                                                                                                              000000        
DA000000091600000613500035934713MARIA EMILIA ELIGIA                               BAEZ                                    PEREZ                                   C03101171845              19601028001FC000000000000000000000000000000                                                  C/ 2 # 11                                                                                                                                                                                                           000031N00000000000000000000000000000000000000000000000000                                                                                                                                                           00000000000000000000000000000000000000000                                                                                                                                                                                                                                                          000000                                                                                                                                                                                                                                                                                                                                                              000000        
DA000000404900000509420008706961NEREIDA HERMINIA                                  GUERRERO                                SORIANO                                 C00103201646              19330927001FC000000000000000000000000000000                                                  C/19#6 URB. GISELA 1 # 6                                                                                                                                                                                            000225N00000000000000000000000000000000000000000000000000                                                                                                                                                           00000000000000000000000000000000000000000                                                                                                                                                                                                                                                          000000                                                                                                                                                                                                                                                                                                                                                              000000        
DA000000919100000520510016323057TERESA                                            MEDINA                                  CASTRO                                  C00105056667              19480827001FC000000000000000000000000000000                                                  MANZ,C #7                                                                                                                                                                                                           000225N00000000000000000000000000000000000000000000000000                                                                                                                                                           00000000000000000000000000000000000000000                                                                                                                                                                                                                                                          000000                                                                                                                                                                                                                                                                                                                                                              000000        
DA000000582500000618410030606732YRENE ALTAGRACIA                                  HERNANDEZ                               CRUZ DE VARGAS                          C03102217910              19530907001FC000000000000000000000000000000                                                  MAZ. F C/ 2 APTO. A-D                                                                                                                                                                                               000031N00000000000000000000000000000000000000000000000000                                                                                                                                                           00000000000000000000000000000000000000000                                                                                                                                                                                                                                                          000000                                                                                                                                                                                                                                                                                                                                                              000000        
DA000000572700000608540032452376JUAN ALEJANDRO                                    CAMARENA                                RODRIGUEZ                               C03100558265              19340111001MC000000000000000000000000000000                                                  MARIA TRINIDAD SANCHEZ # 48                                                                                                                                                                                         000031N00000000000000000000000000000000000000000000000000                                                                                                                                                           00000000000000000000000000000000000000000                                                                                                                                                                                                                                                          000000                                                                                                                                                                                                                                                                                                                                                              000000        
DA000000486000000634530041062258TEODORO                                           JIMENEZ                                 BAUTISTA                                C04700136858              19401207001MC000000000000000000000000000000                                                  C/ PEÑA REYNOSO # 55                                                                                                                                                                                                000047N00000000000000000000000000000000000000000000000000                                                                                                                                                           00000000000000000000000000000000000000000                                                                                                                                                                                                                                                          000000                                                                                                                                                                                                                                                                                                                                                              000000        
DA000000057100000634790038977602NIDIA                                             PAYANO                                  FERNANDEZ                               C04700190285              19600120001FC000000000000000000000000000000                                                  TORIBIO RAMIREZ #69                                                                                                                                                                                                 000047N00000000000000000000000000000000000000000000000000                                                                                                                                                           00000000000000000000000000000000000000000                                                                                                                                                                                                                                                          000000                                                                                                                                                                                                                                                                                                                                                              000000        
DA000000791700000557340017589234DULCE ROMUALDA                                    DOLORES                                                                         C00200136596              19560102001FC000000000000000000000000000000                                                  C/ GREGORIO LUPERON #32 ENS. CONST # 32                                                                                                                                                                             000002N00000000000000000000000000000000000000000000000000                                                                                                                                                           00000000000000000000000000000000000000000                                                                                                                                                                                                                                                          000000                                                                                                                                                                                                                                                                                                                                                              000000        
DA000000749900000610360031423740JOSEFINA                                          ACOSTA                                  MEJIA                                   C03100797707              19671227001FS000000000000000000000000000000                                                  AV. TAMBORIL, EDF. 12, APTO. 1-5                                                                                                                                                                                    000031N00000000000000000000000000000000000000000000000000                                                                                                                                                           00000000000000000000000000000000000000000                                                                                                                                                                                                                                                          000000                                                                                                                                                                                                                                                                                                                                                              000000        
DA000000110000000872580030460393SANTIAGO                                          AYBAR                                   ALMONTE                                 C04000069114              19470605001MC000000000000000000000000000000                                                  C/ GUGU HENRRIQUEZ # 07                                                                                                                                                                                             000040N00000000000000000000000000000000000000000000000000                                                                                                                                                           00000000000000000000000000000000000000000                                                                                                                                                                                                                                                          000000                                                                                                                                                                                                                                                                                                                                                              000000        
DA000000059200000633800038958722MIGUEL ANTONIO                                    MIESES                                  GALAN                                   C04700020060              19470929001MC000000000000000000000000000000                                                  C/ EUCALISTO # 2                                                                                                                                                                                                    000047N00000000000000000000000000000000000000000000000000                                                                                                                                                           00000000000000000000000000000000000000000                                                                                                                                                                                                                                                          000000                                                                                                                                                                                                                                                                                                                                                              000000        
DA000000110300000629900034179933VENECIA DEL CARMEN                                VILLAMAN                                MORROBEL DE POLANCO                     C04000008419              19500716001FC000000000000000000000000000000                                                  C/ GRAL. LUPERON # 41                                                                                                                                                                                               000040N00000000000000000000000000000000000000000000000000                                                                                                                                                           00000000000000000000000000000000000000000                                                                                                                                                                                                                                                          000000                                                                                                                                                                                                                                                                                                                                                              000000        
DA000000078500000662700051174255ARGENTINA MILAGROS                                PEREZ                                   CASTILLO DE ORTIZ                       C08700033924              19490909001FC000000000000000000000000000000                                                  C/ DR. SIGFREDO ANT. ALBA#6                                                                                                                                                                                         000087N00000000000000000000000000000000000000000000000000                                                                                                                                                           00000000000000000000000000000000000000000                                                                                                                                                                                                                                                          000000                                                                                                                                                                                                                                                                                                                                                              000000        
DA000000137500000608750030502455MIGUEL ANGEL                                      GUZMAN                                  LENAFF                                  C03100579493              19500929001MC000000000000000000000000000000                                                  C/ BELLER #26                                                                                                                                                                                                       000031N00000000000000000000000000000000000000000000000000                                                                                                                                                           00000000000000000000000000000000000000000                                                                                                                                                                                                                                                          000000                                                                                                                                                                                                                                                                                                                                                              000000        
DA000000287900000642110043635533ANDRES ROBERTO                                    RAMOS                                                                           C05200042686              19420204001MC000000000000000000000000000000                                                  SAN RAFAEL # 2                                                                                                                                                                                                      000052N00000000000000000000000000000000000000000000000000                                                                                                                                                           00000000000000000000000000000000000000000                                                                                                                                                                                                                                                          000000                                                                                                                                                                                                                                                                                                                                                              000000        
DA000000592600000616550033866247HERMOGENA                                         UREÑA                                   UREÑA                                   C03101693855              19550419001FC000000000000000000000000000000                                                  C/ PUÑAL S/N                                                                                                                                                                                                        000031N00000000000000000000000000000000000000000000000000                                                                                                                                                           00000000000000000000000000000000000000000                                                                                                                                                                                                                                                          000000                                                                                                                                                                                                                                                                                                                                                              000000        
DA000000179100000570330024653625ANA LUISA                                         TEJEDA                                  SOTO                                    C01300216932              19680726001FC000000000000000000000000000000                                                  C/ 11 #42                                                                                                                                                                                                           000003N00000000000000000000000000000000000000000000000000                                                                                                                                                           00000000000000000000000000000000000000000                                                                                                                                                                                                                                                          000000                                                                                                                                                                                                                                                                                                                                                              000000        
DA000000372100000642070043635431JUANA                                             DE JESUS                                SOSA                                    C05200040359              19500308001FU000000000000000000000000000000                                                  C/ SAN RAFAEL # 23                                                                                                                                                                                                  000052N00000000000000000000000000000000000000000000000000                                                                                                                                                           00000000000000000000000000000000000000000                                                                                                                                                                                                                                                          000000                                                                                                                                                                                                                                                                                                                                                              000000        
DA000000372200000642130046744603MELANIA ALTAGRACIA                                TAVARES                                 J DE REYNOSO                            C05200044013              19520101001FC000000000000000000000000000000                                                  C/ PEDRO LIVIO SEDEÑO # 176                                                                                                                                                                                         000001N00000000000000000000000000000000000000000000000000                                                                                                                                                           00000000000000000000000000000000000000000                                                                                                                                                                                                                                                          000000                                                                                                                                                                                                                                                                                                                                                              000000        
DA000005387400000538740007276574NIEVES MARIA                                      ECHAVARRIA                              RODRIGUEZ                               C00107420788              19460927001FC000000000000000000000000000000                                                  CARR. MELLA KM. 9, EDIF. 15, APTO. 1-A                                                                                                                                                                              000223N00000000000000000000000000000000000000000000000000                                                                                                                                                           00000000000000000000000000000000000000000                                                                                                                                                                                                                                                          000000                                                                                                                                                                                                                                                                                                                                                              000000        
DA000000314600000509040016182470LUIS ROBERTO                                      TAVERAS                                 LANTIGUA                                C00103161600              19530930001MS000000000000000000000000000000                                                  C/ INTERIOR #171                                                                                                                                                                                                    000001N00000000000000000000000000000000000000000000000000                                                                                                                                                           00000000000000000000000000000000000000000                                                                                                                                                                                                                                                          000000                                                                                                                                                                                                                                                                                                                                                              000000        
DA000000346700000995400011966987MIREYA ALTAGRACIA                                 HURTADO                                 GARCIA                                  C00104541529              19480221001FC000000000000000000000000000000                                                  C/ 1RA. EDIF. 8, APTO. 1-1                                                                                                                                                                                          000001N00000000000000000000000000000000000000000000000000                                                                                                                                                           00000000000000000000000000000000000000000                                                                                                                                                                                                                                                          000000                                                                                                                                                                                                                                                                                                                                                              000000        
DA000000875800000496110000131435LUZ VENECIA                                       PEREZ                                   FRANCISCO                               C00101440824              19570604001FS000000000000000000000000000000                                                  C/ 8 #259                                                                                                                                                                                                           000001N00000000000000000000000000000000000000000000000000                                                                                                                                                           00000000000000000000000000000000000000000                                                                                                                                                                                                                                                          000000                                                                                                                                                                                                                                                                                                                                                              000000        
DA000000315800000519580005613741RAMONA                                            NUÑEZ                                   HERNANDEZ                               C00104925847              19520830001FC000000000000000000000000000000                                                  JOSE ROSADO # 5                                                                                                                                                                                                     000225N00000000000000000000000000000000000000000000000000                                                                                                                                                           00000000000000000000000000000000000000000                                                                                                                                                                                                                                                          000000                                                                                                                                                                                                                                                                                                                                                              000000        
DA000000182600000648470045792660RAFAEL ALBERTO                                    DEL ORBE                                                                        C05700009425              19440904001MC000000000000000000000000000000                                                  SANCHEZ #57                                                                                                                                                                                                         000057N00000000000000000000000000000000000000000000000000                                                                                                                                                           00000000000000000000000000000000000000000                                                                                                                                                                                                                                                          000000                                                                                                                                                                                                                                                                                                                                                              000000        
DA000000554100000678840054401976DOLORES                                           CAPELLAN                                HICIANO                                 C13600051190              19550918001FC000000000000000000000000000000                                                  KM.3, MANZ. B, EDIF. 2, APTO. 201                                                                                                                                                                                   000071N00000000000000000000000000000000000000000000000000                                                                                                                                                           00000000000000000000000000000000000000000                                                                                                                                                                                                                                                          000000                                                                                                                                                                                                                                                                                                                                                              000000        
DA000001312200000635840037748261ANGEL DE JESUS                                    ANGELES                                 AYALA                                   C04700562665              19540610001MC000000000000000000000000000000                                                  C/ PRINCIPAL #026                                                                                                                                                                                                   000047N00000000000000000000000000000000000000000000000000                                                                                                                                                           00000000000000000000000000000000000000000                                                                                                                                                                                                                                                          000000                                                                                                                                                                                                                                                                                                                                                              000000        
DA000002964600000630410038862967LILIA ONANEY MERCEDES                             VILLALONA                               DE LA ROSA                              C04100035916              19350913001FS000000000000000000000000000000                                                  JOSE ANTONIO SALCEDO #53                                                                                                                                                                                            000041N00000000000000000000000000000000000000000000000000                                                                                                                                                           00000000000000000000000000000000000000000                                                                                                                                                                                                                                                          000000                                                                                                                                                                                                                                                                                                                                                              000000        
DA000001388100000612350035419655ADALGISA AGUSTINA                                 SOLANO                                  DIAZ                                    C03101062614              19371210001FC000000000000000000000000000000                                                  CUBA #27                                                                                                                                                                                                            000031N00000000000000000000000000000000000000000000000000                                                                                                                                                           00000000000000000000000000000000000000000                                                                                                                                                                                                                                                          000000                                                                                                                                                                                                                                                                                                                                                              000000        
DA000001025000000294540037164737PETRA NUNILA                                      DE JESUS                                LUNA                                    C03101826067              19431023001FC000000000000000000000000000000                                                  LA ZANJA #34                                                                                                                                                                                                        000096N00000000000000000000000000000000000000000000000000                                                                                                                                                           00000000000000000000000000000000000000000                                                                                                                                                                                                                                                          000000                                                                                                                                                                                                                                                                                                                                                              000000        
DA000000389700000651500047332548JOSE FRANCISCO                                    BALBUENA                                CARRASCO                                C06500016362              19360604001MS000000000000000000000000000000                                                  C/ ANGELA DEL ROSARIO # 22                                                                                                                                                                                          000065N00000000000000000000000000000000000000000000000000                                                                                                                                                           00000000000000000000000000000000000000000                                                                                                                                                                                                                                                          000000                                                                                                                                                                                                                                                                                                                                                              000000        
DA000001105800000677080053529887EUFEMIO                                           SOLANO                                  ROMERO                                  C10400032701              19470903001MS000000000000000000000000000000                                                  CAMBITA GARABITO # 5-C                                                                                                                                                                                              000104N00000000000000000000000000000000000000000000000000                                                                                                                                                           00000000000000000000000000000000000000000                                                                                                                                                                                                                                                          000000                                                                                                                                                                                                                                                                                                                                                              000000        
DA000001329600000613970030494837MARIA ISABEL                                      BETANCES                                DE TAVAREZ                              C03101247223              19511007001FC000000000000000000000000000000                                                  C/  LOS PINOS # 236                                                                                                                                                                                                 000142N00000000000000000000000000000000000000000000000000                                                                                                                                                           00000000000000000000000000000000000000000                                                                                                                                                                                                                                                          000000                                                                                                                                                                                                                                                                                                                                                              000000        
DA000000346400000538650011808331JULIO                                             GUZMAN                                                                          C00107406282              19340527001MC000000000000000000000000000000                                                  RAFAEL UREÑA # 5                                                                                                                                                                                                    000001N00000000000000000000000000000000000000000000000000                                                                                                                                                           00000000000000000000000000000000000000000                                                                                                                                                                                                                                                          000000                                                                                                                                                                                                                                                                                                                                                              000000        
DA000001097800000553360005324006MARIA                                             NIETO                                   DIAZ                                    C00112059555              19451218001FS000000000000000000000000000000                                                  AV. BOLIVAR # 805                                                                                                                                                                                                   000001N00000000000000000000000000000000000000000000000000                                                                                                                                                           00000000000000000000000000000000000000000                                                                                                                                                                                                                                                          000000                                                                                                                                                                                                                                                                                                                                                              000000        
DA000001084200000671750052401995RENE                                              MORAN                                   CABRERA                                 C09400052693              19610923001MC000000000000000000000000000000                                                  C/MANUEL PEÑA #07                                                                                                                                                                                                   000094N00000000000000000000000000000000000000000000000000                                                                                                                                                           00000000000000000000000000000000000000000                                                                                                                                                                                                                                                          000000                                                                                                                                                                                                                                                                                                                                                              000000        
DA000000066200000635460038922023ANTONIO YNFANTE                                   LOPEZ                                   CASTILLO                                C04700410071              19490913001MC000000000000000000000000000000                                                  C/ PRINCIPAL #18                                                                                                                                                                                                    000047N00000000000000000000000000000000000000000000000000                                                                                                                                                           00000000000000000000000000000000000000000                                                                                                                                                                                                                                                          000000                                                                                                                                                                                                                                                                                                                                                              000000        
DA000000595200000634620041362110ARACELIS DEL CARMEN                               DE LA CRUZ                              AYALA                                   C04700152954              19580506001FC000000000000000000000000000000                                                  C/ 2DA # 15 ENS. LAS MAREAS                                                                                                                                                                                         000047N00000000000000000000000000000000000000000000000000                                                                                                                                                           00000000000000000000000000000000000000000                                                                                                                                                                                                                                                          000000                                                                                                                                                                                                                                                                                                                                                              000000        
DA000000005700000659030050397146RAMON NERY                                        GARCIA                                  M                                       C08100036949              19360526001MC000000000000000000000000000000                                                  C/ PRINCIPAL #0                                                                                                                                                                                                     000081N00000000000000000000000000000000000000000000000000                                                                                                                                                           00000000000000000000000000000000000000000                                                                                                                                                                                                                                                          000000                                                                                                                                                                                                                                                                                                                                                              000000        
DA000001419200000650000042783737AMBROSIO                                          LINARES                                 MENDOZA                                 C06000057783              19400404001MC000000000000000000000000000000                                                  C/  SAN RAFAEL #196                                                                                                                                                                                                 000060N00000000000000000000000000000000000000000000000000                                                                                                                                                           00000000000000000000000000000000000000000                                                                                                                                                                                                                                                          000000                                                                                                                                                                                                                                                                                                                                                              000000        
DA000001357300000637990042379001PEDRO                                             CONTRERAS                               CASTAÑOS                                C04800132831              19440219001MC000000000000000000000000000000                                                  C/ FELIX DEL MONTE #2 APTO,A-3                                                                                                                                                                                      000001N00000000000000000000000000000000000000000000000000                                                                                                                                                           00000000000000000000000000000000000000000                                                                                                                                                                                                                                                          000000                                                                                                                                                                                                                                                                                                                                                              000000        
DA000001330000000674310053042121FAINA ALTAGRACIA                                  MERCEDES                                MARTINEZ                                C10100008985              19610816001FC000000000000000000000000000000                                                  C/ 14                                                                                                                                                                                                               000031N00000000000000000000000000000000000000000000000000                                                                                                                                                           00000000000000000000000000000000000000000                                                                                                                                                                                                                                                          000000                                                                                                                                                                                                                                                                                                                                                              000000        
DA000002302300000656490049555116ZOILA TERESITA DE JS.                             NAVARRO DE DE LA ROSA                   NAVARRO                                 C07200040132              19410827001FC000000000000000000000000000000                                                  C/ BERNARDO RODRIGUEZ # 58                                                                                                                                                                                          000072N00000000000000000000000000000000000000000000000000                                                                                                                                                           00000000000000000000000000000000000000000                                                                                                                                                                                                                                                          000000                                                                                                                                                                                                                                                                                                                                                              000000        
DA000000832000000563710021180312LEOCADIO                                          DE LA CRUZ                                                                      C00500096417              19561208001MS000000000000000000000000000000                                                  SAN ANTONIO # 13                                                                                                                                                                                                    000005N00000000000000000000000000000000000000000000000000                                                                                                                                                           00000000000000000000000000000000000000000                                                                                                                                                                                                                                                          000000                                                                                                                                                                                                                                                                                                                                                              000000        
DA000000569300000665680052514370BIENVENIDO                                        FERRERAS                                CUEVAS                                  C09100006601              19421208001MC000000000000000000000000000000                                                  C/ GREGORIO LUPERON#9                                                                                                                                                                                               000091N00000000000000000000000000000000000000000000000000                                                                                                                                                           00000000000000000000000000000000000000000                                                                                                                                                                                                                                                          000000                                                                                                                                                                                                                                                                                                                                                              000000        
DA000000469600000561510018483451RICHARD EMIGDIO                                   ASUNCION                                DE LA CRUZ                              C00300112422              19370328001MC000000000000000000000000000000                                                  FUNDACION PERAVIA NO. 27                                                                                                                                                                                            000003N00000000000000000000000000000000000000000000000000                                                                                                                                                           00000000000000000000000000000000000000000                                                                                                                                                                                                                                                          000000                                                                                                                                                                                                                                                                                                                                                              000000        
DA000000472000000561770021543047DEOANNE MILEDIS                                   PEÑA DE SOTO                                                                    C00300145034              19641023001FC000000000000000000000000000000                                                  C/ EL NUMERO #21                                                                                                                                                                                                    000003N00000000000000000000000000000000000000000000000000                                                                                                                                                           00000000000000000000000000000000000000000                                                                                                                                                                                                                                                          000000                                                                                                                                                                                                                                                                                                                                                              000000        
DA000000165000000678260054298274AQUINO RADHAMES                                   GONZALEZ                                GONZALEZ                                C12100001812              19470203001MC000000000000000000000000000000                                                  PADRE BAIL #68                                                                                                                                                                                                      000121N00000000000000000000000000000000000000000000000000                                                                                                                                                           00000000000000000000000000000000000000000                                                                                                                                                                                                                                                          000000                                                                                                                                                                                                                                                                                                                                                              000000        
DA000000083400000629740030863705RAMON ULISES                                      SILVERIO                                VENTURA                                 C03900163183              19540412001MC000000000000000000000000000000                                                  C.MELLA #62                                                                                                                                                                                                         000038N00000000000000000000000000000000000000000000000000                                                                                                                                                           00000000000000000000000000000000000000000                                                                                                                                                                                                                                                          000000                                                                                                                                                                                                                                                                                                                                                              000000        
DA000000326500000645180042921830ROGERIO MANUEL PABLO                              FIGUEROA                                VERAS                                   C05500111082              19450124001MC000000000000000000000000000000                                                  EDIF. 14 APTO. 102                                                                                                                                                                                                  000055N00000000000000000000000000000000000000000000000000                                                                                                                                                           00000000000000000000000000000000000000000                                                                                                                                                                                                                                                          000000                                                                                                                                                                                                                                                                                                                                                              000000        
DA000008746400000677390053777948JOSE ANTONIO                                      BAUTISTA                                                                        C10400133756              19510115001MC000000000000000000000000000000                                                  C/ 27 DE FEBRERO # 96-A                                                                                                                                                                                             000002N00000000000000000000000000000000000000000000000000                                                                                                                                                           00000000000000000000000000000000000000000                                                                                                                                                                                                                                                          000000                                                                                                                                                                                                                                                                                                                                                              000000        
DA000000535300000567380022222914JOSE ANTONIO                                      CASANOVAS                                                                       C01100232303              19501013001MC000000000000000000000000000000                                                  C/ MAXIMO GOMEZ ESQ. 27 DE FEBRERO # 75                                                                                                                                                                             000001N00000000000000000000000000000000000000000000000000                                                                                                                                                           00000000000000000000000000000000000000000                                                                                                                                                                                                                                                          000000                                                                                                                                                                                                                                                                                                                                                              000000        
DA000000405000000849910028944408ESMELIN MENIEL                                    CASTRO                                  ROJAS                                   C02400000424              19400609001MC000000000000000000000000000000                                                  C/ PROYECTO SUR # 22                                                                                                                                                                                                000024N00000000000000000000000000000000000000000000000000                                                                                                                                                           00000000000000000000000000000000000000000                                                                                                                                                                                                                                                          000000                                                                                                                                                                                                                                                                                                                                                              000000        
DA000000407900000582300029005924TEODORA                                           ARAUJO                                  DE SANTANA                              C02300244015              19430413001FC000000000000000000000000000000                                                  C/ LUIS AMIAMA TIO # 10                                                                                                                                                                                             000023N00000000000000000000000000000000000000000000000000                                                                                                                                                           00000000000000000000000000000000000000000                                                                                                                                                                                                                                                          000000                                                                                                                                                                                                                                                                                                                                                              000000        
DA000000322700000639530042213555ELADIA RAMONA                                     SURIEL                                  JEREZ  DE RODRIGUEZ                     C04900029762              19500312001FC000000000000000000000000000000                                                  C/ D # 10                                                                                                                                                                                                           000001N00000000000000000000000000000000000000000000000000                                                                                                                                                           00000000000000000000000000000000000000000                                                                                                                                                                                                                                                          000000                                                                                                                                                                                                                                                                                                                                                              000000        
DA000000006000000658890051178981AUSTRIA                                           ESTEVEZ C                               DE ALONSO                               C08100001356              19511101001FC000000000000000000000000000000                                                  C/ 9 # 24                                                                                                                                                                                                           000031N00000000000000000000000000000000000000000000000000                                                                                                                                                           00000000000000000000000000000000000000000                                                                                                                                                                                                                                                          000000                                                                                                                                                                                                                                                                                                                                                              000000        
DA000000716200000616290037140340MARIA ALTAGRACIA                                  JIMENEZ                                 CALDERON                                C03101636946              19480505001FC000000000000000000000000000000                                                  C/ 22 #2                                                                                                                                                                                                            000031N00000000000000000000000000000000000000000000000000                                                                                                                                                           00000000000000000000000000000000000000000                                                                                                                                                                                                                                                          000000                                                                                                                                                                                                                                                                                                                                                              000000        
S000068                                                                                                                                                 