EPN42
DA000001322800000225070019346567MARIA ALTAGRACIA                                  MENDEZ                                  DE OLEO                                 C01000065407              19360710001FU000000000000000000000000000000                                                  AV.FRANCISCO DEL ROSARIO SANCHEZ # 175                                                                                                                                                                              000010N00000000000000000000000000000000000000000000000000                                                                                                                                                           00000000000000000000000000000000000000000                                                                                                                                                                                                                                                          000000                                                                                                                                                                                                                                                                                                                                                              000000        
DA000001248200000337240041888281MARCELINA                                         PERALTA                                 PERALTA                                 C05000245794              19490702001FC000000000000000000000000000000                                                  C/ ARROYO CERCADO #267-A                                                                                                                                                                                            000050N00000000000000000000000000000000000000000000000000                                                                                                                                                           00000000000000000000000000000000000000000                                                                                                                                                                                                                                                          000000                                                                                                                                                                                                                                                                                                                                                              000000        
DA000001257200000096160007035741ALTAGRACIA MARIA                                  BACO                                    TIRADO                                  C00103995791              19380121001FS000000000000000000000000000000                                                  C/ MAXIMO GOMEZ ESQ. JUAN # 13                                                                                                                                                                                      000028N00000000000000000000000000000000000000000000000000                                                                                                                                                           00000000000000000000000000000000000000000                                                                                                                                                                                                                                                          000000                                                                                                                                                                                                                                                                                                                                                              000000        
DA000000704600000271520026169324GLENYS MERCEDES                                   SOLIMAN                                 DE GUERRERO                             C02800085363              19400607001FC000000000000000000000000000000                                                  GENERAL SANTANA #81                                                                                                                                                                                                 000028N00000000000000000000000000000000000000000000000000                                                                                                                                                           00000000000000000000000000000000000000000                                                                                                                                                                                                                                                          000000                                                                                                                                                                                                                                                                                                                                                              000000        
DA000001336700000009840009620886LILIAN ALTAGRACIA                                 CORDERO                                 GARCIA                                  C00100136555              19510205001FC000000000000000000000000000000                                                  AVE. MEJICO EDIF. 16-502                                                                                                                                                                                            000001N00000000000000000000000000000000000000000000000000                                                                                                                                                           00000000000000000000000000000000000000000                                                                                                                                                                                                                                                          000000                                                                                                                                                                                                                                                                                                                                                              000000        
DA000001337900000147890010666062SEFERINA                                          RECIO                                   FAMILIA                                 C00107425662              19540826001FC000000000000000000000000000000                                                  C/ C,  EDF.2,APTO.1-1                                                                                                                                                                                               000227N00000000000000000000000000000000000000000000000000                                                                                                                                                           00000000000000000000000000000000000000000                                                                                                                                                                                                                                                          000000                                                                                                                                                                                                                                                                                                                                                              000000        
DA000001336800000369670051347307ALEJANDRINA                                       RAMIREZ                                 GUZMAN                                  C09300005148              19380226001FU000000000000000000000000000000                                                  EL CALICHE # 53                                                                                                                                                                                                     000093N00000000000000000000000000000000000000000000000000                                                                                                                                                           00000000000000000000000000000000000000000                                                                                                                                                                                                                                                          000000                                                                                                                                                                                                                                                                                                                                                              000000        
DA000001324400000378890050497532MARGARITA DE LOS ANGELES                          ZAMBRANO                                AQUINO                                  C09000101254              19530917001FS000000000000000000000000000000                                                  C/ AMANIA TIO #77                                                                                                                                                                                                   000090N00000000000000000000000000000000000000000000000000                                                                                                                                                           00000000000000000000000000000000000000000                                                                                                                                                                                                                                                          000000                                                                                                                                                                                                                                                                                                                                                              000000        
DA000001389700000214710019416857GERGE CRUZ                                        CUESTA                                  SANCHEZ                                 C00200851020              19530503001MS000000000000000000000000000000                                                  C/SAN IGNACIO LOYOLA #13                                                                                                                                                                                            000002N00000000000000000000000000000000000000000000000000                                                                                                                                                           00000000000000000000000000000000000000000                                                                                                                                                                                                                                                          000000                                                                                                                                                                                                                                                                                                                                                              000000        
DA000001340400000298570032622646RAFAELA ANTONIA                                   PERALTA                                 GUZMAN                                  C03102743394              19330515001FC000000000000000000000000000000                                                  C/1ERA. #211                                                                                                                                                                                                        000031N00000000000000000000000000000000000000000000000000                                                                                                                                                           00000000000000000000000000000000000000000                                                                                                                                                                                                                                                          000000                                                                                                                                                                                                                                                                                                                                                              000000        
DA000001340100000621180033051797JOSEFA DEL C                                      HERNANDEZ                               CRUZ                                    C03200049199              19521117001FC000000000000000000000000000000                                                  AV. CAONABO #13                                                                                                                                                                                                     000031N00000000000000000000000000000000000000000000000000                                                                                                                                                           00000000000000000000000000000000000000000                                                                                                                                                                                                                                                          000000                                                                                                                                                                                                                                                                                                                                                              000000        
DA000001385500000656710048850803RAFAEL ANTONIO                                    PEREZ                                   VALERIO                                 C07300007866              19370805001MC000000000000000000000000000000                                                  C/DUARTE #150                                                                                                                                                                                                       000073N00000000000000000000000000000000000000000000000000                                                                                                                                                           00000000000000000000000000000000000000000                                                                                                                                                                                                                                                          000000                                                                                                                                                                                                                                                                                                                                                              000000        
DA000001386300000150320006803874BELIA ZELANDIA                                    URBAEZ                                  OLIVERO                                 C00107601072              19380101001FS000000000000000000000000000000                                                  AV. JARDIN DEL EDEN EDIF.CURVO # B-5                                                                                                                                                                                000001N00000000000000000000000000000000000000000000000000                                                                                                                                                           00000000000000000000000000000000000000000                                                                                                                                                                                                                                                          000000                                                                                                                                                                                                                                                                                                                                                              000000        
DA000000191900000566330020164476ALTAGRACIA MARIELA                                PEREZ                                   MARTINEZ                                C01000183457              19500101001FS000000000000000000000000000000                                                  C/ MULTIFAMILIARES EDIF. 4-B APTO. 301                                                                                                                                                                              000010N00000000000000000000000000000000000000000000000000                                                                                                                                                           00000000000000000000000000000000000000000                                                                                                                                                                                                                                                          000000                                                                                                                                                                                                                                                                                                                                                              000000        
DA000001384300000316200037984120DIVINA                                            SOLIS                                   DE MINAYA                               C04300028562              19371230001FC000000000000000000000000000000                                                  C/  RESTAURACION# 20                                                                                                                                                                                                000043N00000000000000000000000000000000000000000000000000                                                                                                                                                           00000000000000000000000000000000000000000                                                                                                                                                                                                                                                          000000                                                                                                                                                                                                                                                                                                                                                              000000        
DA000001379700000476110050214401JULIA MARIA                                       PEREZ                                   DE CORA                                 C07400021940              19500422001FC000000000000000000000000000000                                                  C/5 #16                                                                                                                                                                                                             000012N00000000000000000000000000000000000000000000000000                                                                                                                                                           00000000000000000000000000000000000000000                                                                                                                                                                                                                                                          000000                                                                                                                                                                                                                                                                                                                                                              000000        
DA000001375800000641330039104211RAMON ODALIS                                      CASTILLO                                RAMIREZ                                 C05000203199              19500513001MC000000000000000000000000000000                                                  C/4 #99                                                                                                                                                                                                             000050N00000000000000000000000000000000000000000000000000                                                                                                                                                           00000000000000000000000000000000000000000                                                                                                                                                                                                                                                          000000                                                                                                                                                                                                                                                                                                                                                              000000        
DA000001390100000482320003438323JOSEFINA T DE MAGALYS                             GRULLON                                 CHUPANY                                 C00100053677              19461111001FS000000000000000000000000000000                                                  SAN JUAN BOSCO # 26-B                                                                                                                                                                                               000001N00000000000000000000000000000000000000000000000000                                                                                                                                                           00000000000000000000000000000000000000000                                                                                                                                                                                                                                                          000000                                                                                                                                                                                                                                                                                                                                                              000000        
DA000001406100000484730012821315RAMONA BELARMINIA                                 PEREZ                                                                           C00100274430              19460822001FS000000000000000000000000000000                                                  C/ ESTHER RASARIO APTO,4-A #21-A                                                                                                                                                                                    000001N00000000000000000000000000000000000000000000000000                                                                                                                                                           00000000000000000000000000000000000000000                                                                                                                                                                                                                                                          000000                                                                                                                                                                                                                                                                                                                                                              000000        
DA000001377000000377860051235452LUISA                                             CRUZ                                    MERCEDES                                C08700013918              19500825001FS000000000000000000000000000000                                                  JUAN S. RAMIREZ #61                                                                                                                                                                                                 000087N00000000000000000000000000000000000000000000000000                                                                                                                                                           00000000000000000000000000000000000000000                                                                                                                                                                                                                                                          000000                                                                                                                                                                                                                                                                                                                                                              000000        
DA000001337600000156740003913904ULSO                                              GUZMAN                                  MARTE                                   C00108022906              19490430001MC000000000000000000000000000000                                                  PROL. REP. DE COLOMBIA # 5                                                                                                                                                                                          000001N00000000000000000000000000000000000000000000000000                                                                                                                                                           00000000000000000000000000000000000000000                                                                                                                                                                                                                                                          000000                                                                                                                                                                                                                                                                                                                                                              000000        
DA000001403700000561530018140176NURCIA MILAGROS                                   CASTILLO                                DE AGUASVIVAS                           C00300119336              19471229001FC000000000000000000000000000000                                                  27 DE FEBRERO NO27                                                                                                                                                                                                  000003N00000000000000000000000000000000000000000000000000                                                                                                                                                           00000000000000000000000000000000000000000                                                                                                                                                                                                                                                          000000                                                                                                                                                                                                                                                                                                                                                              000000        
DA000001400400000508480000149723MARIA ALTAGRACIA                                  HERNANDEZ                               APONTE                                  C00103044962              19551106001FC000000000000000000000000000000                                                  C/RESP 18 #29                                                                                                                                                                                                       000001N00000000000000000000000000000000000000000000000000                                                                                                                                                           00000000000000000000000000000000000000000                                                                                                                                                                                                                                                          000000                                                                                                                                                                                                                                                                                                                                                              000000        
DA000001401700000338480042566561MARIA GUADALUPE                                   SANTANA                                 DE LA CRUZ DE T                         C05200055985              19451212001FC000000000000000000000000000000                                                  C/ GASTON L. DELIGNE #21                                                                                                                                                                                            000052N00000000000000000000000000000000000000000000000000                                                                                                                                                           00000000000000000000000000000000000000000                                                                                                                                                                                                                                                          000000                                                                                                                                                                                                                                                                                                                                                              000000        
DA000001401000000546040017283930MARIA DEL AMPARO                                  RODRIGUEZ                                                                       C00108572637              19520228001FS000000000000000000000000000000                                                  11 #9                                                                                                                                                                                                               000225N00000000000000000000000000000000000000000000000000                                                                                                                                                           00000000000000000000000000000000000000000                                                                                                                                                                                                                                                          000000                                                                                                                                                                                                                                                                                                                                                              000000        
DA000001404100000626470036491432ELSA NEREIDA                                      VARGAS                                  VASQUEZ DE UREÑA                        C03700224292              19411226001FS000000000000000000000000000000                                                  C/SANTA MARIA SOLEDAD #03                                                                                                                                                                                           000037N00000000000000000000000000000000000000000000000000                                                                                                                                                           00000000000000000000000000000000000000000                                                                                                                                                                                                                                                          000000                                                                                                                                                                                                                                                                                                                                                              000000        
DA000001404000000112590001360632FLAVIA FRANCISCA                                  COLLADO                                 GARCIA                                  C00105141592              19391004001FS000000000000000000000000000000                                                  EDIF. 37 APTO. 2                                                                                                                                                                                                    000223N00000000000000000000000000000000000000000000000000                                                                                                                                                           00000000000000000000000000000000000000000                                                                                                                                                                                                                                                          000000                                                                                                                                                                                                                                                                                                                                                              000000        
DA000001403900000147650017260433ALTAGRACIA VERONICA                               COLLADO                                 GARCIA                                  C00107420036              19380609001FU000000000000000000000000000000                                                  MANZ. C EDIF 4 APTO 3-B                                                                                                                                                                                             000223N00000000000000000000000000000000000000000000000000                                                                                                                                                           00000000000000000000000000000000000000000                                                                                                                                                                                                                                                          000000                                                                                                                                                                                                                                                                                                                                                              000000        
DA000000213200000333890038774018ENEIDA M                                          UREÑA                                   SOTO                                    C04900060742              19380202001FU000000000000000000000000000000                                                  C/ MELLA # 55                                                                                                                                                                                                       000049N00000000000000000000000000000000000000000000000000                                                                                                                                                           00000000000000000000000000000000000000000                                                                                                                                                                                                                                                          000000                                                                                                                                                                                                                                                                                                                                                              000000        
DA000001401600000225370018612321DULCE MARIA                                       RAMIREZ                                                                         C01000077428              19400114001FC000000000000000000000000000000                                                  C/ JUAN DIAZ #20                                                                                                                                                                                                    000223N00000000000000000000000000000000000000000000000000                                                                                                                                                           00000000000000000000000000000000000000000                                                                                                                                                                                                                                                          000000                                                                                                                                                                                                                                                                                                                                                              000000        
DA000001400800000485440003218901LUZ DEL CARMEN                                    HERASME                                 FERRERAS                                C00100365816              19401209001FS000000000000000000000000000000                                                  SIMON BOLIVAR #43                                                                                                                                                                                                   000001N00000000000000000000000000000000000000000000000000                                                                                                                                                           00000000000000000000000000000000000000000                                                                                                                                                                                                                                                          000000                                                                                                                                                                                                                                                                                                                                                              000000        
DA000001362500000516140015004887ANA MERCEDES                                      VALOY                                   GONZALEZ                                C00104338629              19480307001FS000000000000000000000000000000                                                  BARTOLOME COLOM #70                                                                                                                                                                                                 000001N00000000000000000000000000000000000000000000000000                                                                                                                                                           00000000000000000000000000000000000000000                                                                                                                                                                                                                                                          000000                                                                                                                                                                                                                                                                                                                                                              000000        
DA000001312200000635840037748261ANGEL DE JESUS                                    ANGELES                                 AYALA                                   C04700562665              19540610001MC000000000000000000000000000000                                                  C/ PRINCIPAL #026                                                                                                                                                                                                   000047N00000000000000000000000000000000000000000000000000                                                                                                                                                           00000000000000000000000000000000000000000                                                                                                                                                                                                                                                          000000                                                                                                                                                                                                                                                                                                                                                              000000        
DA000001389200000160190010684480MODESTA                                           PAULINO                                 DE SANTANA                              C00108337767              19460115001FC000000000000000000000000000000                                                  AV.ROMULO BETANCOUR #1408                                                                                                                                                                                           000001N00000000000000000000000000000000000000000000000000                                                                                                                                                           00000000000000000000000000000000000000000                                                                                                                                                                                                                                                          000000                                                                                                                                                                                                                                                                                                                                                              000000        
DA000001273500000641820043864236ANDRES                                            HERNANDEZ                               DISLA                                   C05100077949              19420315001MC000000000000000000000000000000                                                  SABANA ANGOSTA#70                                                                                                                                                                                                   000051N00000000000000000000000000000000000000000000000000                                                                                                                                                           00000000000000000000000000000000000000000                                                                                                                                                                                                                                                          000000                                                                                                                                                                                                                                                                                                                                                              000000        
DA000001356000000180560006015852LIDIA ROSA                                        UREÑA                                                                           C00112177225              19291117001FU000000000000000000000000000000                                                  AV. CAYETANO GERMONSEN #40                                                                                                                                                                                          000001N00000000000000000000000000000000000000000000000000                                                                                                                                                           00000000000000000000000000000000000000000                                                                                                                                                                                                                                                          000000                                                                                                                                                                                                                                                                                                                                                              000000        
DA000001354500000519370009872374IDELSA RAMONA                                     BURGOS                                  GARCIA                                  C00104884606              19441009001FS000000000000000000000000000000                                                  S/D                                                                                                                                                                                                                 000223N00000000000000000000000000000000000000000000000000                                                                                                                                                           00000000000000000000000000000000000000000                                                                                                                                                                                                                                                          000000                                                                                                                                                                                                                                                                                                                                                              000000        
DA000001354800000355250000000000FE                                                VASSALLOS                               MENDEZ                                  C05700033722              19521231001FC000000000000000000000000000000                                                  LAS MERCEDES#89                                                                                                                                                                                                     000057N00000000000000000000000000000000000000000000000000                                                                                                                                                           00000000000000000000000000000000000000000                                                                                                                                                                                                                                                          000000                                                                                                                                                                                                                                                                                                                                                              000000        
DA000001352400000152050010031481EDUARDA MARIA                                     MOREL                                                                           C00107720088              19291013001FU000000000000000000000000000000                                                  C/1ERA #56                                                                                                                                                                                                          000001N00000000000000000000000000000000000000000000000000                                                                                                                                                           00000000000000000000000000000000000000000                                                                                                                                                                                                                                                          000000                                                                                                                                                                                                                                                                                                                                                              000000        
DA000001354700000537880017254175LEON CONFESOR                                     ESPINO                                  MENDOZA                                 C00107316143              19470306001MC000000000000000000000000000000                                                  C/PTE BILLINI #2                                                                                                                                                                                                    000001N00000000000000000000000000000000000000000000000000                                                                                                                                                           00000000000000000000000000000000000000000                                                                                                                                                                                                                                                          000000                                                                                                                                                                                                                                                                                                                                                              000000        
DA000001354600000544600005832562BIENVENIDO                                        PAREDES                                 DE LA ROSA                              C00108311085              19510413001MC000000000000000000000000000000                                                  ESTADOS UNIDOS #19                                                                                                                                                                                                  000224N00000000000000000000000000000000000000000000000000                                                                                                                                                           00000000000000000000000000000000000000000                                                                                                                                                                                                                                                          000000                                                                                                                                                                                                                                                                                                                                                              000000        
DA000001354300000506930000191970ELIGIO                                            SERRANO                                 GARCIA                                  C00102799541              19480318001MS000000000000000000000000000000                                                  C/ TEJADA FLORENTINO #26-B                                                                                                                                                                                          000001N00000000000000000000000000000000000000000000000000                                                                                                                                                           00000000000000000000000000000000000000000                                                                                                                                                                                                                                                          000000                                                                                                                                                                                                                                                                                                                                                              000000        
DA000001353600000250800026975813VITALIA                                           RUIZ                                                                            C02100033287              19320205001FU000000000000000000000000000000                                                  C/ 12 # 11                                                                                                                                                                                                          000229N00000000000000000000000000000000000000000000000000                                                                                                                                                           00000000000000000000000000000000000000000                                                                                                                                                                                                                                                          000000                                                                                                                                                                                                                                                                                                                                                              000000        
DA000001355200000090300000000000ANA HORTENCIA                                     PEREZ                                   DE MERCEDES                             C00103658035              19390112001FS000000000000000000000000000000                                                  RESPALDO 8 #31                                                                                                                                                                                                      000001N00000000000000000000000000000000000000000000000000                                                                                                                                                           00000000000000000000000000000000000000000                                                                                                                                                                                                                                                          000000                                                                                                                                                                                                                                                                                                                                                              000000        
DA000001271200000678860054532811MARCELINA                                         JOSE                                    HICIANO                                 C13600063880              19480630001FC000000000000000000000000000000                                                  PRINCIPAL #46                                                                                                                                                                                                       000136N00000000000000000000000000000000000000000000000000                                                                                                                                                           00000000000000000000000000000000000000000                                                                                                                                                                                                                                                          000000                                                                                                                                                                                                                                                                                                                                                              000000        
DA000001270900000655040049508154EUFEMIA                                           ROMERO                                  .                                       C07100029045              19390320001FC000000000000000000000000000000                                                  PRIMERA #02                                                                                                                                                                                                         000071N00000000000000000000000000000000000000000000000000                                                                                                                                                           00000000000000000000000000000000000000000                                                                                                                                                                                                                                                          000000                                                                                                                                                                                                                                                                                                                                                              000000        
DA000001203200000228510024545598CANTALIZO                                         ENCARNACION                             PEREZ                                   C01100005899              19351124001FC000000000000000000000000000000                                                  C/ CLUB ROTARIO # 12                                                                                                                                                                                                000011N00000000000000000000000000000000000000000000000000                                                                                                                                                           00000000000000000000000000000000000000000                                                                                                                                                                                                                                                          000000                                                                                                                                                                                                                                                                                                                                                              000000        
DA000001356300000126090006066313JUAN                                              CALZADO                                 DE LOS SANTOS                           C00105937932              19330626001MC000000000000000000000000000000                                                  C/23, #16-A, CARRETERA MELLA KM. 10 1/2                                                                                                                                                                             000223N00000000000000000000000000000000000000000000000000                                                                                                                                                           00000000000000000000000000000000000000000                                                                                                                                                                                                                                                          000000                                                                                                                                                                                                                                                                                                                                                              000000        
DA000001325200000247580023215797MANUEL EMILIO                                     PEREZ                                   TERRERO                                 C01900043967              19520816001MC000000000000000000000000000000                                                  PROYECTO #24 EDF. CONSTANZA1                                                                                                                                                                                        000001N00000000000000000000000000000000000000000000000000                                                                                                                                                           00000000000000000000000000000000000000000                                                                                                                                                                                                                                                          000000                                                                                                                                                                                                                                                                                                                                                              000000        
DA000001329700000630270039470282DORCAS MARIA                                      VERAS                                   SANCHEZ DE CABA                         C04100014150              19521010001FC000000000000000000000000000000                                                  CAONABO NO. 4                                                                                                                                                                                                       000041N00000000000000000000000000000000000000000000000000                                                                                                                                                           00000000000000000000000000000000000000000                                                                                                                                                                                                                                                          000000                                                                                                                                                                                                                                                                                                                                                              000000        
DA000001357600000677330053490654JUAN                                              CHALAS                                  SOTO                                    C10400105564              19500801001MC000000000000000000000000000000                                                  PROYECTO LOS NOVA #50B                                                                                                                                                                                              000104N00000000000000000000000000000000000000000000000000                                                                                                                                                           00000000000000000000000000000000000000000                                                                                                                                                                                                                                                          000000                                                                                                                                                                                                                                                                                                                                                              000000        
DA000001357500000018790009642634JUANA MARIA                                       FERNANDEZ                                                                       C00100508688              19350329001FC000000000000000000000000000000                                                  C/ VICENTE C. DUARTE # 210                                                                                                                                                                                          000001N00000000000000000000000000000000000000000000000000                                                                                                                                                           00000000000000000000000000000000000000000                                                                                                                                                                                                                                                          000000                                                                                                                                                                                                                                                                                                                                                              000000        
DA000001356900000367160048777703VIANELA                                           RAMIREZ                                 DE MENDEZ                               C07000014402              19400308001FC000000000000000000000000000000                                                  PEATON 6#14                                                                                                                                                                                                         000070N00000000000000000000000000000000000000000000000000                                                                                                                                                           00000000000000000000000000000000000000000                                                                                                                                                                                                                                                          000000                                                                                                                                                                                                                                                                                                                                                              000000        
DA000001356800000515430005949774MARIA DEL ROSARIO                                 SANCHEZ                                 DE COLON                                C00104218359              19510526001FC000000000000000000000000000000                                                  AV. LA ISABELA S/N                                                                                                                                                                                                  000001N00000000000000000000000000000000000000000000000000                                                                                                                                                           00000000000000000000000000000000000000000                                                                                                                                                                                                                                                          000000                                                                                                                                                                                                                                                                                                                                                              000000        
DA000001305400000317710040433866ESTELA                                            FRANCO                                  REYES DE BELLIARD                       C04400147304              19450428001FC000000000000000000000000000000                                                  C/JUAN PABLO DUARTE #53                                                                                                                                                                                             000002N00000000000000000000000000000000000000000000000000                                                                                                                                                           00000000000000000000000000000000000000000                                                                                                                                                                                                                                                          000000                                                                                                                                                                                                                                                                                                                                                              000000        
DA000001356400000216590018136343ANTONIO LEONIDAS                                  DIAZ                                    PIMENTEL                                C00300082039              19360613001MC000000000000000000000000000000                                                  C/SANTOME  #111-A-N                                                                                                                                                                                                 000003N00000000000000000000000000000000000000000000000000                                                                                                                                                           00000000000000000000000000000000000000000                                                                                                                                                                                                                                                          000000                                                                                                                                                                                                                                                                                                                                                              000000        
DA000001356600000540510010025460REINA NARCISA                                     ZABALA                                  DE SANCHEZ                              C00107673626              19501030001FC000000000000000000000000000000                                                  C/ SAN RAFAEL #36                                                                                                                                                                                                   000223N00000000000000000000000000000000000000000000000000                                                                                                                                                           00000000000000000000000000000000000000000                                                                                                                                                                                                                                                          000000                                                                                                                                                                                                                                                                                                                                                              000000        
DA000001405900000039230003278617DILIA ONFALIA                                     PEÑA                                    P DE MONSANTO                           C00101124568              19231003001FC000000000000000000000000000000                                                  BLOQUE 8 #15                                                                                                                                                                                                        000001N00000000000000000000000000000000000000000000000000                                                                                                                                                           00000000000000000000000000000000000000000                                                                                                                                                                                                                                                          000000                                                                                                                                                                                                                                                                                                                                                              000000        
DA000001340900000306640033654605CARMEN LUISA                                      RODRIGUEZ                               ULLOA                                   C03600205623              19390426001FC000000000000000000000000000000                                                  30 DE MARZO NO. 9                                                                                                                                                                                                   000036N00000000000000000000000000000000000000000000000000                                                                                                                                                           00000000000000000000000000000000000000000                                                                                                                                                                                                                                                          000000                                                                                                                                                                                                                                                                                                                                                              000000        
DA000001375100000266720027844391DIVINA FRAIDA                                     RODRIGUEZ                               MENDEZ                                  C02600221820              19270602001FC000000000000000000000000000000                                                  PADRE AYALA #92                                                                                                                                                                                                     000002N00000000000000000000000000000000000000000000000000                                                                                                                                                           00000000000000000000000000000000000000000                                                                                                                                                                                                                                                          000000                                                                                                                                                                                                                                                                                                                                                              000000        
DA000001406800000384790051384556MARIA MAGDALENA                                   QUEZADA                                 MARTINEZ                                C09300354116              19420527001FC000000000000000000000000000000                                                  ANDRES DE MORALES #14-D LAS FLORES DEL FARO                                                                                                                                                                         000001N00000000000000000000000000000000000000000000000000                                                                                                                                                           00000000000000000000000000000000000000000                                                                                                                                                                                                                                                          000000                                                                                                                                                                                                                                                                                                                                                              000000        
DA000001406600000235840023119787RAFAEL HILARIO                                    MEJIA                                   MESA                                    C01300052493              19401021001MC000000000000000000000000000000                                                  MANZ.5 EDIF.7 APTO 2-B                                                                                                                                                                                              000223N00000000000000000000000000000000000000000000000000                                                                                                                                                           00000000000000000000000000000000000000000                                                                                                                                                                                                                                                          000000                                                                                                                                                                                                                                                                                                                                                              000000        
DA000001400900000635010041074082MARIA MILAGROS                                    POLANCO                                 FLORES                                  C04700233713              19481208001FC000000000000000000000000000000                                                  C/3 # 70                                                                                                                                                                                                            000047N00000000000000000000000000000000000000000000000000                                                                                                                                                           00000000000000000000000000000000000000000                                                                                                                                                                                                                                                          000000                                                                                                                                                                                                                                                                                                                                                              000000        
DA000001290800000608110036338926BRISEIDA DEL C                                    RAMIREZ                                 O                                       C03100492572              19440108001FS000000000000000000000000000000                                                  C/ H #18                                                                                                                                                                                                            000031N00000000000000000000000000000000000000000000000000                                                                                                                                                           00000000000000000000000000000000000000000                                                                                                                                                                                                                                                          000000                                                                                                                                                                                                                                                                                                                                                              000000        
DA000001400300000582950025114722TERESA                                            OZUNA                                   MONTERO DE RIVERA                       C02300301864              19421203001FC000000000000000000000000000000                                                  C/ PTE. ENRRIQUE # 114                                                                                                                                                                                              000023N00000000000000000000000000000000000000000000000000                                                                                                                                                           00000000000000000000000000000000000000000                                                                                                                                                                                                                                                          000000                                                                                                                                                                                                                                                                                                                                                              000000        
DA000000822000000655290048788652JOSE                                              UREÑA                                   HDEZ                                    C07100046601              19450323001MC000000000000000000000000000000                                                  C/5TA #14                                                                                                                                                                                                           000071N00000000000000000000000000000000000000000000000000                                                                                                                                                           00000000000000000000000000000000000000000                                                                                                                                                                                                                                                          000000                                                                                                                                                                                                                                                                                                                                                              000000        
DA000001320800001048550048618443KIRSIS MINERVA                                    SEVERINO                                FRIAS                                   C06700030015              19421010001FS000000000000000000000000000000                                                  C/1RA KM8-CARRETERA SANCHEZ                                                                                                                                                                                         000001N00000000000000000000000000000000000000000000000000                                                                                                                                                           00000000000000000000000000000000000000000                                                                                                                                                                                                                                                          000000                                                                                                                                                                                                                                                                                                                                                              000000        
DA000001389800000060220012879657MARIA CRISTINA A                                  SUERO                                   CARVAJAL                                C00101769941              19540526001FS000000000000000000000000000000                                                  LOS ROBLES #47                                                                                                                                                                                                      000001N00000000000000000000000000000000000000000000000000                                                                                                                                                           00000000000000000000000000000000000000000                                                                                                                                                                                                                                                          000000                                                                                                                                                                                                                                                                                                                                                              000000        
DA000001272300000655370050048968RAMON FRANCISCO                                   GIL                                                                             C07100052013              19480920001MC000000000000000000000000000000                                                  C/ CAPITALISTA #202                                                                                                                                                                                                 000071N00000000000000000000000000000000000000000000000000                                                                                                                                                           00000000000000000000000000000000000000000                                                                                                                                                                                                                                                          000000                                                                                                                                                                                                                                                                                                                                                              000000        
DA000001383600000078100006987682TEODOLINDA                                        ROBERT                                  PELAEZ                                  C00102753894              19290101001FC000000000000000000000000000000                                                  EDIFICIO CURVO APTO A-6                                                                                                                                                                                             000223N00000000000000000000000000000000000000000000000000                                                                                                                                                           00000000000000000000000000000000000000000                                                                                                                                                                                                                                                          000000                                                                                                                                                                                                                                                                                                                                                              000000        
DA000001389400000610180032475982FREDDY EDUARDO                                    PEÑA                                    CRUZ                                    C03100773914              19470424001MC000000000000000000000000000000                                                  C/ CAMINO LIMONAL ABAJO #122                                                                                                                                                                                        000031N00000000000000000000000000000000000000000000000000                                                                                                                                                           00000000000000000000000000000000000000000                                                                                                                                                                                                                                                          000000                                                                                                                                                                                                                                                                                                                                                              000000        
DA000001404700000518830003702633HILDA                                             LEONARDO                                                                        C00104821525              19380105001FS000000000000000000000000000000                                                  C/VERANO #1                                                                                                                                                                                                         000223N00000000000000000000000000000000000000000000000000                                                                                                                                                           00000000000000000000000000000000000000000                                                                                                                                                                                                                                                          000000                                                                                                                                                                                                                                                                                                                                                              000000        
DA000001404300000082870000164603JUANA MARIA                                       ALMONTE                                 VASQUEZ                                 C00103162160              19440127001FS000000000000000000000000000000                                                  C/ SIMON OROSO EDIF,23 APTO,2-B                                                                                                                                                                                     000001N00000000000000000000000000000000000000000000000000                                                                                                                                                           00000000000000000000000000000000000000000                                                                                                                                                                                                                                                          000000                                                                                                                                                                                                                                                                                                                                                              000000        
