EPN42
DA000000459300000881970050156023EMMA TERESA                                       NAVARRO                                 GONZALEZ                                C07900009841              19460308001FS000000000000000000000000000000                                                  BENJAMIN FELIZ # 30                                                                                                                                                                                                 000079N00000000000000000000000000000000000000000000000000                                                                                                                                                           00000000000000000000000000000000000000000                                                                                                                                                                                                                                                          000000                                                                                                                                                                                                                                                                                                                                                              000000        
DA000000459400000658650049823440MANUEL EMILIO                                     GONZALEZ                                CASTILLO                                C07900026746              19601001001MC000000000000000000000000000000                                                  ARZOBISPO MERIÑO # 88                                                                                                                                                                                               000079N00000000000000000000000000000000000000000000000000                                                                                                                                                           00000000000000000000000000000000000000000                                                                                                                                                                                                                                                          000000                                                                                                                                                                                                                                                                                                                                                              000000        
DA000000571800000656890049193724LUZ MARIA                                         BAEZ                                    TEJADA                                  C07300039950              19630923001FC000000000000000000000000000000                                                                                                                                                                                                                                                                      000031S19950725000000000000000000000000000000000000000000                                                                                                                                                           00000000000000000000000000000000000000000                                                                                                                                                                                                                                                          000000                                                                                                                                                                                                                                                                                                                                                              000000        
DA000000152600000656800050204558SOCORRO                                           BOLOS                                   CABRERA                                 C07300014284              19530223001FC000000000000000000000000000000                                                  C/ DUARTE #23                                                                                                                                                                                                       000073S19920708000000000000000000000000000000000000000000                                                                                                                                                           00000000000000000000000000000000000000000                                                                                                                                                                                                                                                          000000                                                                                                                                                                                                                                                                                                                                                              000000        
DA000000322600000543890000506340FRANCISCO                                         LANTIGUA                                YAUGER                                  C00108189309              19560521001MC000000000000000000000000000000                                                  C/ 2 # 19                                                                                                                                                                                                           000225N00000000000000000000000000000000000000000000000000                                                                                                                                                           00000000000000000000000000000000000000000                                                                                                                                                                                                                                                          000000                                                                                                                                                                                                                                                                                                                                                              000000        
DA000000313200000652950047260822RAMON                                             CONNOR                                  BINET                                   C06800005313              19460928001MC000000000000000000000000000000                                                  C/ 1RA #242                                                                                                                                                                                                         000225N00000000000000000000000000000000000000000000000000                                                                                                                                                           00000000000000000000000000000000000000000                                                                                                                                                                                                                                                          000000                                                                                                                                                                                                                                                                                                                                                              000000        
DA000000868500000486090006814538CESAREA GUILLERMINA                               MENDEZ                                  VASQUEZ                                 C00100452119              19440906001FC000000000000000000000000000000                                                  C/ DR. BETANCES, MANZ. D, ED. 4, APTO. 2-3                                                                                                                                                                          000224N00000000000000000000000000000000000000000000000000                                                                                                                                                           00000000000000000000000000000000000000000                                                                                                                                                                                                                                                          000000                                                                                                                                                                                                                                                                                                                                                              000000        
DA000000328000000561720018486896JUANA IVELISSE                                    GONZALEZ                                MATEO                                   C00300139789              19510611001FS000000000000000000000000000000                                                  RESD GACELA MANZANA E # 15                                                                                                                                                                                          000001N00000000000000000000000000000000000000000000000000                                                                                                                                                           00000000000000000000000000000000000000000                                                                                                                                                                                                                                                          000000                                                                                                                                                                                                                                                                                                                                                              000000        
DA000000323800000488210007943804LUIS ANTONIO                                      PEREZ                                   MENDEZ                                  C00100665850              19461003001MS000000000000000000000000000000                                                  BARRIO ANT. GUZMAN # 23                                                                                                                                                                                             000001N00000000000000000000000000000000000000000000000000                                                                                                                                                           00000000000000000000000000000000000000000                                                                                                                                                                                                                                                          000000                                                                                                                                                                                                                                                                                                                                                              000000        
DA000000331800000649340043601546NORMY                                             HERNANDEZ                               SANTANA                                 C05900020784              19561115001FS000000000000000000000000000000                                                  C/ CENTRAL # 31-A                                                                                                                                                                                                   000059S00000000199603100000000000000000000000000000000000                                                                                                                                                           00000000000000000000000000000000000000000                                                                                                                                                                                                                                                          000000                                                                                                                                                                                                                                                                                                                                                              000000        
DA000000310500000648710046114217DOMINGO ANTONIO                                   PENA                                    POLANCO                                 C05700093775              19530804001MC000000000000000000000000000000                                                  INDEPENDENCIA # S/N                                                                                                                                                                                                 000057N00000000000000000000000000000000000000000000000000                                                                                                                                                           00000000000000000000000000000000000000000                                                                                                                                                                                                                                                          000000                                                                                                                                                                                                                                                                                                                                                              000000        
DA000000581000000643220042876153ELIGIO                                            REYES                                   GARCIA                                  C05400247382              19500315001MS000000000000000000000000000000                                                  MANZ. G EDF. 172 APTO. 1-D                                                                                                                                                                                          000031N00000000000000000000000000000000000000000000000000                                                                                                                                                           00000000000000000000000000000000000000000                                                                                                                                                                                                                                                          000000                                                                                                                                                                                                                                                                                                                                                              000000        
DA000000323600000654860048675802ALTAGRACIA                                        FELIZ                                   MEDINA                                  C07000006887              19360330001FS000000000000000000000000000000                                                  CALLE EL SOL                                                                                                                                                                                                        000229N00000000000000000000000000000000000000000000000000                                                                                                                                                           00000000000000000000000000000000000000000                                                                                                                                                                                                                                                          000000                                                                                                                                                                                                                                                                                                                                                              000000        
DA000000301200000642530042824523FRANCISCA                                         QUELIZ                                  GARCIA                                  C05300187894              19360101001FS000000000000000000000000000000                                                  GRATEREAUX # 97                                                                                                                                                                                                     000053N00000000000000000000000000000000000000000000000000                                                                                                                                                           00000000000000000000000000000000000000000                                                                                                                                                                                                                                                          000000                                                                                                                                                                                                                                                                                                                                                              000000        
DA000000251600000642350045227886ANA                                               ANAZAGATIS                              MARTE                                   C05300030557              19520828001FS000000000000000000000000000000                                                  MONSEÑOR NOUEL # 52 PARTE ATRAS                                                                                                                                                                                     000053N00000000000000000000000000000000000000000000000000                                                                                                                                                           00000000000000000000000000000000000000000                                                                                                                                                                                                                                                          000000                                                                                                                                                                                                                                                                                                                                                              000000        
DA000000020000000642460043337823JUAN A                                            SURIEL                                  ROSA                                    C05300122479              19430830001MC000000000000000000000000000000                                                  ENSANCHEZ LIBERTAD, # 76                                                                                                                                                                                            000053N00000000000000000000000000000000000000000000000000                                                                                                                                                           00000000000000000000000000000000000000000                                                                                                                                                                                                                                                          000000                                                                                                                                                                                                                                                                                                                                                              000000        
DA000000021000000642280045963102MIGUEL ANTONIO                                    GARCIA                                                                          C05300009700              19530826001MC000000000000000000000000000000                                                  LOS PROFESORES NO. 12                                                                                                                                                                                               000053N00000000000000000000000000000000000000000000000000                                                                                                                                                           00000000000000000000000000000000000000000                                                                                                                                                                                                                                                          000000                                                                                                                                                                                                                                                                                                                                                              000000        
DA000000019200000642230044429517MIGUEL                                            REMIGIO                                 SANTOS                                  C05300004982              19330903001MC000000000000000000000000000000                                                  C/ JULIAN COSMA# 3                                                                                                                                                                                                  000053N00000000000000000000000000000000000000000000000000                                                                                                                                                           00000000000000000000000000000000000000000                                                                                                                                                                                                                                                          000000                                                                                                                                                                                                                                                                                                                                                              000000        
DA000000020800000642420046499038ARACELYS ALTAGRACIA                               GARCIA                                  COLLADO                                 C05300057345              19650112001FC000000000000000000000000000000                                                  COL. ESPA#OLA #10                                                                                                                                                                                                   000053S19940323199508101998050100000000000000000000000000                                                                                                                                                           00000000000000000000000000000000000000000                                                                                                                                                                                                                                                          000000                                                                                                                                                                                                                                                                                                                                                              000000        
DA000000001700000873310040157904MIRTA ELINA                                       SANCHEZ                                 RODRIGUEZ                               C04700044979              19530905001FC000000000000000000000000000000                                                  C/7 #8                                                                                                                                                                                                              000047N00000000000000000000000000000000000000000000000000                                                                                                                                                           00000000000000000000000000000000000000000                                                                                                                                                                                                                                                          000000                                                                                                                                                                                                                                                                                                                                                              000000        
DA000000310900000649980046440591DANIELA                                           DISLA                                   VASQUEZ                                 C06000050622              19530721001FS000000000000000000000000000000                                                  AUT. NAGUA          CABRERA PAYITA                                                                                                                                                                                  000060N00000000000000000000000000000000000000000000000000                                                                                                                                                           00000000000000000000000000000000000000000                                                                                                                                                                                                                                                          000000                                                                                                                                                                                                                                                                                                                                                              000000        
DA000000082200000674310053042121FAINA ALTAGRACIA                                  MERCEDES                                MARTINEZ                                C10100008985              19610816001FC000000000000000000000000000000                                                  C/ 14                                                                                                                                                                                                               000031N00000000000000000000000000000000000000000000000000                                                                                                                                                           00000000000000000000000000000000000000000                                                                                                                                                                                                                                                          000000                                                                                                                                                                                                                                                                                                                                                              000000        
DA000002901500000674580053609957VITERBO                                           UREÑA                                   HILARIO                                 C10200018637              19400913001MC000000000000000000000000000000                                                                                                                                                                                                                                                                      000102N00000000000000000000000000000000000000000000000000                                                                                                                                                           00000000000000000000000000000000000000000                                                                                                                                                                                                                                                          000000                                                                                                                                                                                                                                                                                                                                                              000000        
DA000002902400000630050032274345EDILIO                                            POLANCO                                                                         C04000054009              19350327001MC000000000000000000000000000000                                                  ROJA #29                                                                                                                                                                                                            000121N00000000000000000000000000000000000000000000000000                                                                                                                                                           00000000000000000000000000000000000000000                                                                                                                                                                                                                                                          000000                                                                                                                                                                                                                                                                                                                                                              000000        
DA000000152100000673870051733122RAFAELA                                           RODRIGUEZ                               DE THOMAS                               C09700067219              19231024001FS000000000000000000000000000000                                                  C/SABANETA DE YASICA                                                                                                                                                                                                000097N00000000000000000000000000000000000000000000000000                                                                                                                                                           00000000000000000000000000000000000000000                                                                                                                                                                                                                                                          000000                                                                                                                                                                                                                                                                                                                                                              000000        
DA000000111800000628300037617807CASILDA                                           PARRA                                   SANTOS                                  C03800002697              19370814001FS000000000000000000000000000000                                                  MELLA 42-B                                                                                                                                                                                                          000038N00000000000000000000000000000000000000000000000000                                                                                                                                                           00000000000000000000000000000000000000000                                                                                                                                                                                                                                                          000000                                                                                                                                                                                                                                                                                                                                                              000000        
DA000000169300000872400036028494JULIA                                             GARCIA                                  ULLOA                                   C03900017884              19481126001FC000000000000000000000000000000                                                  C/RAFAEL ARISTY#3                                                                                                                                                                                                   000120N00000000000000000000000000000000000000000000000000                                                                                                                                                           00000000000000000000000000000000000000000                                                                                                                                                                                                                                                          000000                                                                                                                                                                                                                                                                                                                                                              000000        
DA000000002200000674570053313751ROSA EMILIA                                       GOMEZ                                   POLANCO                                 C10200016730              19550815001FS000000000000000000000000000000                                                  C/ CARLOS ARIAS #40                                                                                                                                                                                                 000001S00000000199403200000000000000000000000000000000000                                                                                                                                                           00000000000000000000000000000000000000000                                                                                                                                                                                                                                                          000000                                                                                                                                                                                                                                                                                                                                                              000000        
DA000000165000000678260054298274AQUINO RADHAMES                                   GONZALEZ                                GONZALEZ                                C12100001812              19470203001MC000000000000000000000000000000                                                  PADRE BAIL #68                                                                                                                                                                                                      000121N00000000000000000000000000000000000000000000000000                                                                                                                                                           00000000000000000000000000000000000000000                                                                                                                                                                                                                                                          000000                                                                                                                                                                                                                                                                                                                                                              000000        
DA000000083400000629740030863705RAMON ULISES                                      SILVERIO                                VENTURA                                 C03900163183              19540412001MC000000000000000000000000000000                                                  C.MELLA #62                                                                                                                                                                                                         000038N00000000000000000000000000000000000000000000000000                                                                                                                                                           00000000000000000000000000000000000000000                                                                                                                                                                                                                                                          000000                                                                                                                                                                                                                                                                                                                                                              000000        
DA000000535700000659120051109237FABIOLA                                           DE LEON                                 FEBRILLET                               C08200001405              19470622001FC000000000000000000000000000000                                                  C/ GREGORIO LUPERON # 64                                                                                                                                                                                            000082N00000000000000000000000000000000000000000000000000                                                                                                                                                           00000000000000000000000000000000000000000                                                                                                                                                                                                                                                          000000                                                                                                                                                                                                                                                                                                                                                              000000        
DA000000536000000666920052299372JUANA                                             FELIZ                                   TAPIA                                   C09300055515              19390509001FC000000000000000000000000000000                                                  809-237-1897                                                                                                                                                                                                        000093N00000000000000000000000000000000000000000000000000                                                                                                                                                           00000000000000000000000000000000000000000                                                                                                                                                                                                                                                          000000                                                                                                                                                                                                                                                                                                                                                              000000        
DA000000323400000654150048114460JUAN RAMON                                        CRUZ                                    PERALTA                                 C06800166982              19490712001MC000000000000000000000000000000                                                  C/ TAMARINDO #54                                                                                                                                                                                                    000002N00000000000000000000000000000000000000000000000000                                                                                                                                                           00000000000000000000000000000000000000000                                                                                                                                                                                                                                                          000000                                                                                                                                                                                                                                                                                                                                                              000000        
DA000000282700000876470042454052BIENVENIDO                                        MORONTA                                 AQUINO                                  C04900144199              19470215001MC000000000000000000000000000000                                                  SAN JUAN # 11                                                                                                                                                                                                       000049S19960909000000000000000000000000000000000000000000                                                                                                                                                           00000000000000000000000000000000000000000                                                                                                                                                                                                                                                          000000                                                                                                                                                                                                                                                                                                                                                              000000        
DA000000284900000639900038157894HILDA MARIA                                       SANTOS                                  DE ALVAREZ                              C04900140874              19480728001FC000000000000000000000000000000                                                  C/ DIEGO COLON # 16                                                                                                                                                                                                 000049N00000000000000000000000000000000000000000000000000                                                                                                                                                           00000000000000000000000000000000000000000                                                                                                                                                                                                                                                          000000                                                                                                                                                                                                                                                                                                                                                              000000        
DA000000282300000639490041495406CANDIDA                                           GUZMAN                                  SUARES                                  C04900026685              19470927001FC000000000000000000000000000000                                                  C/ ENRIQUILLO # 48                                                                                                                                                                                                  000049N00000000000000000000000000000000000000000000000000                                                                                                                                                           00000000000000000000000000000000000000000                                                                                                                                                                                                                                                          000000                                                                                                                                                                                                                                                                                                                                                              000000        
DA000000282500000639600037842923GISELA ALTAGRACIA                                 RONDON                                  DE JIMENEZ                              C04900034523              19481115001FC000000000000000000000000000000                                                  C/ COLON # 16                                                                                                                                                                                                       000049N00000000000000000000000000000000000000000000000000                                                                                                                                                           00000000000000000000000000000000000000000                                                                                                                                                                                                                                                          000000                                                                                                                                                                                                                                                                                                                                                              000000        
DA000000294500000639450042100422PATRIA                                            ACOSTA                                  SOTO                                    C04900024771              19500610001FC000000000000000000000000000000                                                  C/ 7 # 11                                                                                                                                                                                                           000049N00000000000000000000000000000000000000000000000000                                                                                                                                                           00000000000000000000000000000000000000000                                                                                                                                                                                                                                                          000000                                                                                                                                                                                                                                                                                                                                                              000000        
DA000000282100000640270040023100ROSA DIGNA ALTAGRACIA                             RINCON                                  RINCON                                  C04900345895              19371019001FS000000000000000000000000000000                                                  C/ SANCHEZ # 15                                                                                                                                                                                                     000049N00000000000000000000000000000000000000000000000000                                                                                                                                                           00000000000000000000000000000000000000000                                                                                                                                                                                                                                                          000000                                                                                                                                                                                                                                                                                                                                                              000000        
DA000000284200000640570041235892CESAR                                             VASQUEZ                                 RINCON                                  C04900567332              19510717001MC000000000000000000000000000000                                                  C SAN RAMON                                                                                                                                                                                                         000049N00000000000000000000000000000000000000000000000000                                                                                                                                                           00000000000000000000000000000000000000000                                                                                                                                                                                                                                                          000000                                                                                                                                                                                                                                                                                                                                                              000000        
DA000000282200000639380039372212ROSA ELENA DE JS                                  NICASIO                                 ABREU                                   C04900016397              19431207001FS000000000000000000000000000000                                                  C/ SANCHEZ # 11                                                                                                                                                                                                     000049N00000000000000000000000000000000000000000000000000                                                                                                                                                           00000000000000000000000000000000000000000                                                                                                                                                                                                                                                          000000                                                                                                                                                                                                                                                                                                                                                              000000        
DA000000180500000639880040306707ROSA HERMINIA                                     CASTRO                                                                          C04900093057              19440315001FS000000000000000000000000000000                                                  CRUCE DE ANGELINA S/N                                                                                                                                                                                               000049N00000000000000000000000000000000000000000000000000                                                                                                                                                           00000000000000000000000000000000000000000                                                                                                                                                                                                                                                          000000                                                                                                                                                                                                                                                                                                                                                              000000        
DA000000283000000639290038142270RAMONA ANTONIA                                    HERRERA                                 B                                       C04900006190              19270429001FC000000000000000000000000000000                                                  C / MELLA # 6                                                                                                                                                                                                       000049N00000000000000000000000000000000000000000000000000                                                                                                                                                           00000000000000000000000000000000000000000                                                                                                                                                                                                                                                          000000                                                                                                                                                                                                                                                                                                                                                              000000        
DA000000005100000639370041812038NILDA ALTAGRACIA                                  ACOSTA                                  DE RAMIREZ                              C04900014491              19500704001FC000000000000000000000000000000                                                  C/ PROLONGACION COLON #13                                                                                                                                                                                           000049N00000000000000000000000000000000000000000000000000                                                                                                                                                           00000000000000000000000000000000000000000                                                                                                                                                                                                                                                          000000                                                                                                                                                                                                                                                                                                                                                              000000        
DA000000284600000639820038459507PEDRO                                             VILORIA                                 REYES                                   C04900061096              19410513001MC000000000000000000000000000000                                                  C/ MANUEL RAMON NUÑEZ # 59                                                                                                                                                                                          000049N00000000000000000000000000000000000000000000000000                                                                                                                                                           00000000000000000000000000000000000000000                                                                                                                                                                                                                                                          000000                                                                                                                                                                                                                                                                                                                                                              000000        
DA000000294700000639520040298263INDIANA MILENA                                    SUAREZ                                  ACOSTA                                  C04900029713              19430102001FC000000000000000000000000000000                                                  4 #6                                                                                                                                                                                                                000049N00000000000000000000000000000000000000000000000000                                                                                                                                                           00000000000000000000000000000000000000000                                                                                                                                                                                                                                                          000000                                                                                                                                                                                                                                                                                                                                                              000000        
DA000000003800000639560039374822EULOGIA MARIA                                     RIVERAS                                 MORALES                                 C04900033053              19600311001FC000000000000000000000000000000                                                  RESPALDO COLON NO. 24                                                                                                                                                                                               000049N00000000000000000000000000000000000000000000000000                                                                                                                                                           00000000000000000000000000000000000000000                                                                                                                                                                                                                                                          000000                                                                                                                                                                                                                                                                                                                                                              000000        
DA000000283800000639610039092013FE ALTAGRACIA                                     BONIFACIO                               ACOSTA                                  C04900036122              19551107001FC000000000000000000000000000000                                                  CAPOTILLO # 13                                                                                                                                                                                                      000049S19920810000000000000000000000000000000000000000000                                                                                                                                                           00000000000000000000000000000000000000000                                                                                                                                                                                                                                                          000000                                                                                                                                                                                                                                                                                                                                                              000000        
DA000000091600000613500035934713MARIA EMILIA ELIGIA                               BAEZ                                    PEREZ                                   C03101171845              19601028001FC000000000000000000000000000000                                                  C/ 2 # 11                                                                                                                                                                                                           000031N00000000000000000000000000000000000000000000000000                                                                                                                                                           00000000000000000000000000000000000000000                                                                                                                                                                                                                                                          000000                                                                                                                                                                                                                                                                                                                                                              000000        
DA000000571200001040090030010486ANA LUCIA                                         LOPEZ                                                                           C03100758261              19491213001FS000000000000000000000000000000                                                  C/16 DE AGOSTO #242                                                                                                                                                                                                 000031N00000000000000000000000000000000000000000000000000                                                                                                                                                           00000000000000000000000000000000000000000                                                                                                                                                                                                                                                          000000                                                                                                                                                                                                                                                                                                                                                              000000        
DA000000574100000673220052649323JULIO                                             PIMENTEL                                CABRERA                                 C09600062930              19480630001MC000000000000000000000000000000                                                  HNOS ASCENCIO NO. 6                                                                                                                                                                                                 000096S19990309000000000000000000000000000000000000000000                                                                                                                                                           00000000000000000000000000000000000000000                                                                                                                                                                                                                                                          000000                                                                                                                                                                                                                                                                                                                                                              000000        
DA000000578400000644270044970276VICTOR NAPOLEON                                   RUIZ                                    NUÑEZ                                   C05400675061              19390414001MC000000000000000000000000000000                                                                                                                                                                                                                                                                      000031N00000000000000000000000000000000000000000000000000                                                                                                                                                           00000000000000000000000000000000000000000                                                                                                                                                                                                                                                          000000                                                                                                                                                                                                                                                                                                                                                              000000        
DA000000089000001040370030046575ANGEL ADRIANO                                     LIRIANO                                 VASQUEZ                                 C03101052359              19410301001MC000000000000000000000000000000                                                                                                                                                                                                                                                                      000031N00000000000000000000000000000000000000000000000000                                                                                                                                                           00000000000000000000000000000000000000000                                                                                                                                                                                                                                                          000000                                                                                                                                                                                                                                                                                                                                                              000000        
DA000000572700000608540032452376JUAN ALEJANDRO                                    CAMARENA                                RODRIGUEZ                               C03100558265              19340111001MC000000000000000000000000000000                                                  MARIA TRINIDAD SANCHEZ # 48                                                                                                                                                                                         000031S19920308000000000000000000000000000000000000000000                                                                                                                                                           00000000000000000000000000000000000000000                                                                                                                                                                                                                                                          000000                                                                                                                                                                                                                                                                                                                                                              000000        
DA000000574000000650740047252891JOSE FRANCISCO                                    MARMOLEJOS                                                                      C06100153466              19530504001MC000000000000000000000000000000                                                  C/ FCO. ALBERTO CAAMAÑO DEÑO G. HDEZ # 08                                                                                                                                                                           000061N00000000000000000000000000000000000000000000000000                                                                                                                                                           00000000000000000000000000000000000000000                                                                                                                                                                                                                                                          000000                                                                                                                                                                                                                                                                                                                                                              000000        
DA000000142600000671940052799886AURA LOURDES                                      LOPEZ                                   SANTOS                                  C09400111283              19580213001FC000000000000000000000000000000                                                  CRUCE DE QUINIGUA #81-2                                                                                                                                                                                             000094N00000000000000000000000000000000000000000000000000                                                                                                                                                           00000000000000000000000000000000000000000                                                                                                                                                                                                                                                          000000                                                                                                                                                                                                                                                                                                                                                              000000        
DA000000147500000619390034030263MIRIAM MARINA                                     MIRANDA                                 MONSANTO                                C03102443904              19460203001FS000000000000000000000000000000                                                  C/ AVENIDA FRANCO BIDO#356                                                                                                                                                                                          000031N00000000000000000000000000000000000000000000000000                                                                                                                                                           00000000000000000000000000000000000000000                                                                                                                                                                                                                                                          000000                                                                                                                                                                                                                                                                                                                                                              000000        
DA000000588600001040930033415825RAMONA RAFAELA                                    GRULLON                                 GRULLON                                 C03101742199              19470602001FC000000000000000000000000000000                                                                                                                                                                                                                                                                      000031N00000000000000000000000000000000000000000000000000                                                                                                                                                           00000000000000000000000000000000000000000                                                                                                                                                                                                                                                          000000                                                                                                                                                                                                                                                                                                                                                              000000        
DA000000141600001039360030017493ANGELA                                            ROSARIO                                 RAMOS DE COLLADO                        C03100193246              19471002001FC000000000000000000000000000000                                                  C/ 4 EDF. 13 APTO 4B                                                                                                                                                                                                000031N00000000000000000000000000000000000000000000000000                                                                                                                                                           00000000000000000000000000000000000000000                                                                                                                                                                                                                                                          000000                                                                                                                                                                                                                                                                                                                                                              000000        
DA000000571500000621210030258352FRANCISCO ANTONIO                                 VASQUEZ                                                                         C03200058786              19540204001MS000000000000000000000000000000                                                                                                                                                                                                                                                                      000032N00000000000000000000000000000000000000000000000000                                                                                                                                                           00000000000000000000000000000000000000000                                                                                                                                                                                                                                                          000000                                                                                                                                                                                                                                                                                                                                                              000000        
DA000000137700000624270033642347MIGUELINA DEL CARMEN                              GUILLERMO                               ESPINAL                                 C03600103497              19671102001FC000000000000000000000000000000                                                  C/ PEDREGAL #56                                                                                                                                                                                                     000036S00000000199502150000000000000000000000000000000000                                                                                                                                                           00000000000000000000000000000000000000000                                                                                                                                                                                                                                                          000000                                                                                                                                                                                                                                                                                                                                                              000000        
DA000000092000000632560037669467ARELIS DEL CARMEN                                 TORRES                                  DURAN                                   C04600014486              19600110001FC000000000000000000000000000000                                                  IGNACIO REYES #12                                                                                                                                                                                                   000046N00000000000000000000000000000000000000000000000000                                                                                                                                                           00000000000000000000000000000000000000000                                                                                                                                                                                                                                                          000000                                                                                                                                                                                                                                                                                                                                                              000000        
DA000000151900000665840052319287DIONISIA                                          FRANCISCO                               DE CABRERA                              C09200047877              19440508001FC000000000000000000000000000000                                                  C/EL MOLINO #36, GUAYAC                                                                                                                                                                                             000092N00000000000000000000000000000000000000000000000000                                                                                                                                                           00000000000000000000000000000000000000000                                                                                                                                                                                                                                                          000000                                                                                                                                                                                                                                                                                                                                                              000000        
DA000000000300000645670043063513MARIA ESPERANZA                                   BADIA                                                                           C05500210264              19320803001FS000000000000000000000000000000                                                  C/ MANZ. 4696, EDF. APTO. 2-B                                                                                                                                                                                       000001N00000000000000000000000000000000000000000000000000                                                                                                                                                           00000000000000000000000000000000000000000                                                                                                                                                                                                                                                          000000                                                                                                                                                                                                                                                                                                                                                              000000        
S000066                                                                                                                               
