aaEPN42

DB000003216100000121910000000000ANDRES                                            RODRIGUEZ                               DE LOS SANTOS                           C08200021114              19351130001MS000000000000000000000000000000                                                  C/ROSA DUARTE #23                                                                                                                                                                                                   000002N00000000000000000000000000000000000000000000000000                                                                                                                                                           00000000000000000000000000000000000000000                                                                                                                                                                                                                                                          000000                                                                                                                                                                                                                                                                                                                                                              000000     1  

DA000001245800000057290001127186AIDA CELESTE                                      SANCHEZ                                 GARCIA                                  C00101649887              19371029001FC000000000000000000000000000000                                                  C/GUAROCUYA #20                                                                                                                                                                                                     000001N00000000000000000000000000000000000000000000000000                                                                                                                                                           00000000000000000000000000000000000000000                                                                                                                                                                                                                                                          000000                                                                                                                                                                                                                                                                                                                                                              000000        

DA000001111300000648740046995290MERCEDES                                          CRUZ                                    PAULINO                                 C05800000969              19400808001FS000000000000000000000000000000                                                  HOSTOS #26                                                                                                                                                                                                          000058N00000000000000000000000000000000000000000000000000                                                                                                                                                           00000000000000000000000000000000000000000                                                                                                                                                                                                                                                          000000                                                                                                                                                                                                                                                                                                                                                              000000        

DA000001322800000225070019346567MARIA ALTAGRACIA                                  MENDEZ                                  DE OLEO                                 C01000065407              19360710001FU000000000000000000000000000000                                                  AV.FRANCISCO DEL ROSARIO SANCHEZ # 175                                                                                                                                                                              000010N00000000000000000000000000000000000000000000000000                                                                                                                                                           00000000000000000000000000000000000000000                                                                                                                                                                                                                                                          000000                                                                                                                                                                                                                                                                                                                                                              000000        

DA000002351400000032950011381076CATALINA                                          MERCADO                                 RODRIGUEZ                               C00100978576              19300522001FU000000000000000000000000000000                                                  CUB SCOUTS APTO.B-2                                                                                                                                                                                                 000001N00000000000000000000000000000000000000000000000000                                                                                                                                                           00000000000000000000000000000000000000000                                                                                                                                                                                                                                                          000000                                                                                                                                                                                                                                                                                                                                                              000000        

DA000000097500000628950033359104YRIS ALTAGRACIA                                   FRANCISCO                               ESCOTTO                                 C03900004874              19421212001FC000000000000000000000000000000                                                  PRINCIPAL #13                                                                                                                                                                                                       000039N00000000000000000000000000000000000000000000000000                                                                                                                                                           00000000000000000000000000000000000000000                                                                                                                                                                                                                                                          000000                                                                                                                                                                                                                                                                                                                                                              000000        

DA000001239200000041920008001914EROCIA                                            DE LOS SANTOS                           ZABALA                                  C00101180651              19360625001FS000000000000000000000000000000                                                  C/ DR. TULIO H. ARVELO # 12                                                                                                                                                                                         000001N00000000000000000000000000000000000000000000000000                                                                                                                                                           00000000000000000000000000000000000000000                                                                                                                                                                                                                                                          000000                                                                                                                                                                                                                                                                                                                                                              000000        

DA000001257200000096160007035741ALTAGRACIA MARIA                                  BACO                                    TIRADO                                  C00103995791              19380121001FS000000000000000000000000000000                                                  C/ MAXIMO GOMEZ ESQ. JUAN # 13                                                                                                                                                                                      000028N00000000000000000000000000000000000000000000000000                                                                                                                                                           00000000000000000000000000000000000000000                                                                                                                                                                                                                                                          000000                                                                                                                                                                                                                                                                                                                                                              000000        

DA000000704600000271520026169324GLENYS MERCEDES                                   SOLIMAN                                 DE GUERRERO                             C02800085363              19400607001FC000000000000000000000000000000                                                  GENERAL SANTANA #81                                                                                                                                                                                                 000028N00000000000000000000000000000000000000000000000000                                                                                                                                                           00000000000000000000000000000000000000000                                                                                                                                                                                                                                                          000000                                                                                                                                                                                                                                                                                                                                                              000000        

DA000001248200000124820041888281MARCELINA                                         PERALTA                                 PERALTA                                 C05000245794              19490702001FC000000000000000000000000000000                                                  C/ ARROYO CERCADO #267-A                                                                                                                                                                                            000050N00000000000000000000000000000000000000000000000000                                                                                                                                                           00000000000000000000000000000000000000000                                                                                                                                                                                                                                                          000000                                                                                                                                                                                                                                                                                                                                                              000000        

DA000001273600000345640043416693JOSEFINA FRANCISCA                                HERNANDEZ                               BRITO                                   C05500006662              19360217001FC000000000000000000000000000000                                                  MARIA JOSEFA GOMEZ # 17                                                                                                                                                                                             000055N00000000000000000000000000000000000000000000000000                                                                                                                                                           00000000000000000000000000000000000000000                                                                                                                                                                                                                                                          000000                                                                                                                                                                                                                                                                                                                                                              000000        

DA000001298500000044080000107571ANGELA                                            CUBILETE                                FIGUEREO                                C00101246759              19491002001FC000000000000000000000000000000                                                  C/A ESQ.Y EDF. 1 MANZ. 4 APT. 302                                                                                                                                                                                   000001N00000000000000000000000000000000000000000000000000                                                                                                                                                           00000000000000000000000000000000000000000                                                                                                                                                                                                                                                          000000                                                                                                                                                                                                                                                                                                                                                              000000        

DA000001319800001505550049512405NIDIA MIREYA                                      RECIO                                   DE SIERRA                               C07800042785              19430517001FS000000000000000000000000000000                                                  C/ B #38                                                                                                                                                                                                            000112N00000000000000000000000000000000000000000000000000                                                                                                                                                           00000000000000000000000000000000000000000                                                                                                                                                                                                                                                          000000                                                                                                                                                                                                                                                                                                                                                              000000        

DA000005728300000572830024885270ESPERANZA CARIDAD                                 MEDRANO                                 FELIZ DE QUEZADA                        C01800058958              19521113001FC000000000000000000000000000000                                                  OSVALDO QUEZADA # 7                                                                                                                                                                                                 000018N00000000000000000000000000000000000000000000000000                                                                                                                                                           00000000000000000000000000000000000000000                                                                                                                                                                                                                                                          000000                                                                                                                                                                                                                                                                                                                                                              000000        

DA000000858600000377030050614411FIOLDALIZA                                        UREÑA                                   VALDEZ DE MIRANDA                       C08400008259              19570522001FC000000000000000000000000000000                                                  C/ L # 17                                                                                                                                                                                                           000084N00000000000000000000000000000000000000000000000000                                                                                                                                                           00000000000000000000000000000000000000000                                                                                                                                                                                                                                                          000000                                                                                                                                                                                                                                                                                                                                                              000000        

DA000000551700000220750018012875ELADIO                                            BRITO                                   REYES                                   C00500006846              19470218001MC000000000000000000000000000000                                                  C/ MARIA MATIDE ESTEVEZ #1 17                                                                                                                                                                                       000005N00000000000000000000000000000000000000000000000000                                                                                                                                                           00000000000000000000000000000000000000000                                                                                                                                                                                                                                                          000000                                                                                                                                                                                                                                                                                                                                                              000000        

DA000001196800000272090029586438MARIA ANTONIA                                     DE LA CRUZ                              DE PEÑA                                 C02800158160              19261221001FU000000000000000000000000000000                                                  C/ RAMONCITO TAVARES # 8                                                                                                                                                                                            000028N00000000000000000000000000000000000000000000000000                                                                                                                                                           00000000000000000000000000000000000000000                                                                                                                                                                                                                                                          000000                                                                                                                                                                                                                                                                                                                                                              000000        

DA000001341800000574360023698805ISABEL VICTORIA                                   BURRUDUGHS                              BATISTA                                 C01800136804              19440612001FC000000000000000000000000000000                                                  C/ 16 DE AGOSTO#18                                                                                                                                                                                                  000018N00000000000000000000000000000000000000000000000000                                                                                                                                                           00000000000000000000000000000000000000000                                                                                                                                                                                                                                                          000000                                                                                                                                                                                                                                                                                                                                                              000000        

DA000001351400000603410029225673CELESTE                                           DE LEON                                 DE SALAS                                C02900019486              19481219001FC000000000000000000000000000000                                                  ROSA JULIA DE LEON #10                                                                                                                                                                                              000029N00000000000000000000000000000000000000000000000000                                                                                                                                                           00000000000000000000000000000000000000000                                                                                                                                                                                                                                                          000000                                                                                                                                                                                                                                                                                                                                                              000000        

DA000001352300000488240014752370LUIS  GERMAN                                      ROSARIO                                 ABREU                                   C00100667369              19511011001MU000000000000000000000000000000                                                  C/27 OESTE #25                                                                                                                                                                                                      000001N00000000000000000000000000000000000000000000000000                                                                                                                                                           00000000000000000000000000000000000000000                                                                                                                                                                                                                                                          000000                                                                                                                                                                                                                                                                                                                                                              000000        

DA000001341900000064100016134675AGRIPINA                                          MEREGILDO                               MORONTA                                 C00101941797              19410117001FU000000000000000000000000000000                                                  C/JUAN MEJIA COSTAS ESQ. C/2DA, EDIF.OLIMPO II , APTO A-2                                                                                                                                                           000001N00000000000000000000000000000000000000000000000000                                                                                                                                                           00000000000000000000000000000000000000000                                                                                                                                                                                                                                                          000000                                                                                                                                                                                                                                                                                                                                                              000000        

DA000001345900000080340009253652SALOMON                                           DECENA                                  JIMENEZ                                 C00102920113              19341010001MS000000000000000000000000000000                                                  FELIZ EVARISTO MEJIA  #52                                                                                                                                                                                           000001N00000000000000000000000000000000000000000000000000                                                                                                                                                           00000000000000000000000000000000000000000                                                                                                                                                                                                                                                          000000                                                                                                                                                                                                                                                                                                                                                              000000        

DA000001344100000096880008182142FREDESVINDA                                       LUCIANO                                 L DE FELIZ                              C00104031067              19350503001FC000000000000000000000000000000                                                  C/ CAYETANO RODRIGUEZ #101                                                                                                                                                                                          000001N00000000000000000000000000000000000000000000000000                                                                                                                                                           00000000000000000000000000000000000000000                                                                                                                                                                                                                                                          000000                                                                                                                                                                                                                                                                                                                                                              000000        

DA000001318900000316160038593235TEODORO DE JESUS                                  PERALTA                                 BRITO                                   C04300015585              19261109001MC000000000000000000000000000000                                                  S/D                                                                                                                                                                                                                 000043N00000000000000000000000000000000000000000000000000                                                                                                                                                           00000000000000000000000000000000000000000                                                                                                                                                                                                                                                          000000                                                                                                                                                                                                                                                                                                                                                              000000        

DA000001305600000646210045722213NATIVIDAD VICTORIA                                VANDERHORST                             OVALLE                                  C05600073760              19550627001FS000000000000000000000000000000                                                  C/ F, #9                                                                                                                                                                                                            000001N00000000000000000000000000000000000000000000000000                                                                                                                                                           00000000000000000000000000000000000000000                                                                                                                                                                                                                                                          000000                                                                                                                                                                                                                                                                                                                                                              000000        

DA000001251100000126160004944185DAYSI ALTAGRACIA                                  MORENO                                  MELLA DE MARTINEZ                       C00105942171              19430603001FC000000000000000000000000000000                                                  C/27 DE FEBRERO #2                                                                                                                                                                                                  000001N00000000000000000000000000000000000000000000000000                                                                                                                                                           00000000000000000000000000000000000000000                                                                                                                                                                                                                                                          000000                                                                                                                                                                                                                                                                                                                                                              000000        

DA000001334700000574980023303190AUREA LUISA                                       SUERO                                   CARRASCO                                C01800171736              19480609001FC000000000000000000000000000000                                                  AV LUPERON EDIF 3 APTO 363                                                                                                                                                                                          000018N00000000000000000000000000000000000000000000000000                                                                                                                                                           00000000000000000000000000000000000000000                                                                                                                                                                                                                                                          000000                                                                                                                                                                                                                                                                                                                                                              000000        

DA000001288200000283530031011182HIPOLITO                                          MONTESINO                                                                       C03100709397              19390813001MC000000000000000000000000000000                                                  C/ 11 #38                                                                                                                                                                                                           000031N00000000000000000000000000000000000000000000000000                                                                                                                                                           00000000000000000000000000000000000000000                                                                                                                                                                                                                                                          000000                                                                                                                                                                                                                                                                                                                                                              000000        

DA000000381400000065340003537465JUANA                                             RAMIREZ                                 R DE TERRERO                            C00101992469              19421214001FC000000000000000000000000000000                                                  C/ TULIPAN EDFI. 2#2B                                                                                                                                                                                               000223N00000000000000000000000000000000000000000000000000                                                                                                                                                           00000000000000000000000000000000000000000                                                                                                                                                                                                                                                          000000                                                                                                                                                                                                                                                                                                                                                              000000        

DA000000712300000645050043726130BRUNO PASCUAL                                     ROSARIO                                 MARTE                                   C05500074090              19300221001MS000000000000000000000000000000                                                  C/ JAMAO AFUERA (EL MUERTO)                                                                                                                                                                                         000055N00000000000000000000000000000000000000000000000000                                                                                                                                                           00000000000000000000000000000000000000000                                                                                                                                                                                                                                                          000000                                                                                                                                                                                                                                                                                                                                                              000000        

DA000001357100000527400012063804CLARIBEL ALTAGRACIA                               MENDOZA                                 HERNANDEZ                               C00106153950              19541115001FC000000000000000000000000000000                                                  C/ C#1                                                                                                                                                                                                              000225N00000000000000000000000000000000000000000000000000                                                                                                                                                           00000000000000000000000000000000000000000                                                                                                                                                                                                                                                          000000                                                                                                                                                                                                                                                                                                                                                              000000        

DA000001307900000586870028945452MILEDYS                                           NATERA                                  ROSARIO                                 C02400016412              19540718001FC000000000000000000000000000000                                                  C/1ERA. #14                                                                                                                                                                                                         000023N00000000000000000000000000000000000000000000000000                                                                                                                                                           00000000000000000000000000000000000000000                                                                                                                                                                                                                                                          000000                                                                                                                                                                                                                                                                                                                                                              000000        

DA000001305200000373770049881193JOSE ALTAGRACIA                                   PEREZ                                   FLORIAN                                 C07700005403              19620319001MC000000000000000000000000000000                                                  C/3RA #39                                                                                                                                                                                                           000077N00000000000000000000000000000000000000000000000000                                                                                                                                                           00000000000000000000000000000000000000000                                                                                                                                                                                                                                                          000000                                                                                                                                                                                                                                                                                                                                                              000000        

DA000001302800000368680048964551GERARDO MERCEDES                                  CROSS                                   DE LA CRUZ                              C07100076624              19330924001MC000000000000000000000000000000                                                  LOS CORALES # 2                                                                                                                                                                                                     000001N00000000000000000000000000000000000000000000000000                                                                                                                                                           00000000000000000000000000000000000000000                                                                                                                                                                                                                                                          000000                                                                                                                                                                                                                                                                                                                                                              000000        

DA000001304400000642010044673072VIRGILIA                                          DE JESUS                                DE MOTA                                 C05200004678              19471008001FC000000000000000000000000000000                                                  C/PRINCIPAL #33                                                                                                                                                                                                     000052N00000000000000000000000000000000000000000000000000                                                                                                                                                           00000000000000000000000000000000000000000                                                                                                                                                                                                                                                          000000                                                                                                                                                                                                                                                                                                                                                              000000        

DA000001247600000027360014999783AURA ELISA                                        LAGRANGE                                SANCHEZ                                 C00100771609              19331013001FU000000000000000000000000000000                                                  MANZ. 44 #7-B                                                                                                                                                                                                       000224N00000000000000000000000000000000000000000000000000                                                                                                                                                           00000000000000000000000000000000000000000                                                                                                                                                                                                                                                          000000                                                                                                                                                                                                                                                                                                                                                              000000        

DA000001295600000339230043154156ANTONIO                                           GIL                                     VICTORIANO                              C05300113031              19330613001MC000000000000000000000000000000                                                  S/C S/N                                                                                                                                                                                                             000053N00000000000000000000000000000000000000000000000000                                                                                                                                                           00000000000000000000000000000000000000000                                                                                                                                                                                                                                                          000000                                                                                                                                                                                                                                                                                                                                                              000000        

DA000001167800000645100046611775ANA ROSA                                          GIL                                     SANTANA                                 C05500093777              19460612001FS000000000000000000000000000000                                                  MONTE ADENTRO SALCEDO # 55                                                                                                                                                                                          000055N00000000000000000000000000000000000000000000000000                                                                                                                                                           00000000000000000000000000000000000000000                                                                                                                                                                                                                                                          000000                                                                                                                                                                                                                                                                                                                                                              000000        

DA000001221400000638020038120237DAVID                                             BAUTISTA                                DIAZ                                    C04800136527              19500130001MS000000000000000000000000000000                                                  URBANIZACION LOS PROSERES                                                                                                                                                                                           000048N00000000000000000000000000000000000000000000000000                                                                                                                                                           00000000000000000000000000000000000000000                                                                                                                                                                                                                                                          000000                                                                                                                                                                                                                                                                                                                                                              000000        

DA000001373900001277220010528097MARIA RUFINA                                      PEGUERO                                 CUELLO                                  C00105541759              19521125001FC000000000000000000000000000000                                                  DR. BRENES #5                                                                                                                                                                                                       000001N00000000000000000000000000000000000000000000000000                                                                                                                                                           00000000000000000000000000000000000000000                                                                                                                                                                                                                                                          000000                                                                                                                                                                                                                                                                                                                                                              000000        

DA000001359200000565530021644716LUIS RAFAEL                                       BELTRE                                  GARRIDO                                 C01000096733              19350509001MC000000000000000000000000000000                                                  C/DR. ARMANDO AYBAR #120                                                                                                                                                                                            000010N00000000000000000000000000000000000000000000000000                                                                                                                                                           00000000000000000000000000000000000000000                                                                                                                                                                                                                                                          000000                                                                                                                                                                                                                                                                                                                                                              000000        

DA000001372300000335440038503796LUIS EUGENIO                                      CRUZ                                    MENA                                    C05000009042              19350904001MC000000000000000000000000000000                                                  AV LA POZA #18A                                                                                                                                                                                                     000050N00000000000000000000000000000000000000000000000000                                                                                                                                                           00000000000000000000000000000000000000000                                                                                                                                                                                                                                                          000000                                                                                                                                                                                                                                                                                                                                                              000000        

DA000001353800000565500018001128VIDAL                                             GERALDO                                                                         C01000084812              19290509001MS000000000000000000000000000000                                                  SAVICA                                                                                                                                                                                                              000010N00000000000000000000000000000000000000000000000000                                                                                                                                                           00000000000000000000000000000000000000000                                                                                                                                                                                                                                                          000000                                                                                                                                                                                                                                                                                                                                                              000000        

DA000000269200000647260044523093CARLOS                                            PAULINO                                 AMPARO                                  C05600374762              19531016001MC000000000000000000000000000000                                                  LOMA DE LA JOYA                                                                                                                                                                                                     000056N00000000000000000000000000000000000000000000000000                                                                                                                                                           00000000000000000000000000000000000000000                                                                                                                                                                                                                                                          000000                                                                                                                                                                                                                                                                                                                                                              000000        

DA000001389500000591450027007073ANDREA                                            DE LA CRUZ                              DE GERONIMO                             C02500224627              19510102001FC000000000000000000000000000000                                                  C/ TEO CRUZ #47, B. LONDO                                                                                                                                                                                           000030N00000000000000000000000000000000000000000000000000                                                                                                                                                           00000000000000000000000000000000000000000                                                                                                                                                                                                                                                          000000                                                                                                                                                                                                                                                                                                                                                              000000        

DA000001344700000626850032224534AMERICO NICOLAS                                   SANCHEZ                                 CONSUEGRA                               C03700269339              19370806001MC000000000000000000000000000000                                                  C/5 #11                                                                                                                                                                                                             000037N00000000000000000000000000000000000000000000000000                                                                                                                                                           00000000000000000000000000000000000000000                                                                                                                                                                                                                                                          000000                                                                                                                                                                                                                                                                                                                                                              000000        

DA000001357700000206080018586025ANA MERCEDES                                      DE JESUS                                DE PEÑA                                 C00200092401              19440425001FC000000000000000000000000000000                                                  C/ 27 DE FEBRERO #25                                                                                                                                                                                                000002N00000000000000000000000000000000000000000000000000                                                                                                                                                           00000000000000000000000000000000000000000                                                                                                                                                                                                                                                          000000                                                                                                                                                                                                                                                                                                                                                              000000        

DA000001350800000576780022324845YOCASTA ISLANDA                                   FELIZ                                   Y FELIZ                                 C01800323576              19480511001FC000000000000000000000000000000                                                  NUESTRA SEÑORA DEL ROSARIO # 50                                                                                                                                                                                     000018N00000000000000000000000000000000000000000000000000                                                                                                                                                           00000000000000000000000000000000000000000                                                                                                                                                                                                                                                          000000                                                                                                                                                                                                                                                                                                                                                              000000        

DA000001228800000628970036966333MARITZA                                           FRANCISCO                               PACHECO                                 C03900004916              19460916001FS000000000000000000000000000000                                                  AV.VITELIO RANCIER # 12                                                                                                                                                                                             000039N00000000000000000000000000000000000000000000000000                                                                                                                                                           00000000000000000000000000000000000000000                                                                                                                                                                                                                                                          000000                                                                                                                                                                                                                                                                                                                                                              000000        

DA000001205400000527500006730976NOEMIL ANTONIA                                    DE LOS SANTOS                           TAPIA                                   C00106174295              19561218001FS000000000000000000000000000000                                                  C/ AV. HERMANAS MIRABAL, EDF. VII, APTO.101                                                                                                                                                                         000001N00000000000000000000000000000000000000000000000000                                                                                                                                                           00000000000000000000000000000000000000000                                                                                                                                                                                                                                                          000000                                                                                                                                                                                                                                                                                                                                                              000000        

DA000000750700000674050052240640CASIMIRO                                          RIVAS                                   MEDINA                                  C09900003808              19400304001MC000000000000000000000000000000                                                  C/JOSE JOAQUIN ALVAREZ#2                                                                                                                                                                                            000099N00000000000000000000000000000000000000000000000000                                                                                                                                                           00000000000000000000000000000000000000000                                                                                                                                                                                                                                                          000000                                                                                                                                                                                                                                                                                                                                                              000000        

DA000000341700000024130009087491ROSA FRANCIA                                      MENA                                                                            C00100672799              19480618001FC000000000000000000000000000000                                                  C/ TRANSVERSAL I # 8                                                                                                                                                                                                000001N00000000000000000000000000000000000000000000000000                                                                                                                                                           00000000000000000000000000000000000000000                                                                                                                                                                                                                                                          000000                                                                                                                                                                                                                                                                                                                                                              000000        

DA000000542600000359240047055043OLGA MIREYA                                       GUZMAN                                  GUZMAN DE FERREIRA                      C06400001928              19400105001FC000000000000000000000000000000                                                  C/JUAN CARTAGENA ALVAREZ#30                                                                                                                                                                                         000001N00000000000000000000000000000000000000000000000000                                                                                                                                                           00000000000000000000000000000000000000000                                                                                                                                                                                                                                                          000000                                                                                                                                                                                                                                                                                                                                                              000000        

DA000001177400000157560016303938FAUSTINA SUSANA                                   HERRERA                                 DE VOLQUEZ                              C00108115148              19371213001FC000000000000000000000000000000                                                  C/ 1RA # 18                                                                                                                                                                                                         000225N00000000000000000000000000000000000000000000000000                                                                                                                                                           00000000000000000000000000000000000000000                                                                                                                                                                                                                                                          000000                                                                                                                                                                                                                                                                                                                                                              000000        

DA000000271200000645960043451047MAXIMA                                            MARTINEZ                                M DE MARTINEZ                           C05600024177              19360818001FS000000000000000000000000000000                                                  C/ SANCHEZ ESQ. ING. GUZMAN ABREU # 51                                                                                                                                                                              000056N00000000000000000000000000000000000000000000000000                                                                                                                                                           00000000000000000000000000000000000000000                                                                                                                                                                                                                                                          000000                                                                                                                                                                                                                                                                                                                                                              000000        

DA000001230200000639980042118598PAULA MARINA                                      SANTOS                                  YCIANO DE AYALA                         C04900221864              19420617001FC000000000000000000000000000000                                                  C/ JUAN PABLO DUARTE # 5                                                                                                                                                                                            000001N00000000000000000000000000000000000000000000000000                                                                                                                                                           00000000000000000000000000000000000000000                                                                                                                                                                                                                                                          000000                                                                                                                                                                                                                                                                                                                                                              000000        

DA000000147200000633400038929923AMBROSIA DEL CARMEN                               COLLADO                                 ESPINAL                                 C04600154829              19610201001FS000000000000000000000000000000                                                  C/ ANA PEPIN EDF. C APTO.4-2                                                                                                                                                                                        000046N00000000000000000000000000000000000000000000000000                                                                                                                                                           00000000000000000000000000000000000000000                                                                                                                                                                                                                                                          000000                                                                                                                                                                                                                                                                                                                                                              000000        

DA000001080800000614000033006594NORMA RAFAELA                                     SANCHEZ                                 Y RODRIGUEZ                             C03101273070              19420828001FC000000000000000000000000000000                                                  C/RAUL STERLING #26-C                                                                                                                                                                                               000031N00000000000000000000000000000000000000000000000000                                                                                                                                                           00000000000000000000000000000000000000000                                                                                                                                                                                                                                                          000000                                                                                                                                                                                                                                                                                                                                                              000000        

DA000000274400000648860046120848MARIA ESTELA                                      ROJAS                                   POLANCO                                 C05800007642              19370809001FS000000000000000000000000000000                                                  C/ ALEJANDRO MERCEDES                                                                                                                                                                                               000056N00000000000000000000000000000000000000000000000000                                                                                                                                                           00000000000000000000000000000000000000000                                                                                                                                                                                                                                                          000000                                                                                                                                                                                                                                                                                                                                                              000000        

DA000001237000000655660049694273MARIA ESTELA                                      CORNIEL                                 SOLANO                                  C07100097356              19610908001FC000000000000000000000000000000                                                  C/ MC, EDIF. 2, APTO. 101                                                                                                                                                                                           000071N00000000000000000000000000000000000000000000000000                                                                                                                                                           00000000000000000000000000000000000000000                                                                                                                                                                                                                                                          000000                                                                                                                                                                                                                                                                                                                                                              000000        

DA000000801900000589230026641935MAXIMO                                            MERCEDES                                HERRERA                                 C02500002353              19460122001MC000000000000000000000000000000                                                  C/ MANUEL DE J. GOICO # 201-ALTOS                                                                                                                                                                                   000025N00000000000000000000000000000000000000000000000000                                                                                                                                                           00000000000000000000000000000000000000000                                                                                                                                                                                                                                                          000000                                                                                                                                                                                                                                                                                                                                                              000000        

DA000001219300000525960015357035ANITA                                             HERRERA                                 SORIANO                                 C00105933873              19550609001FU000000000000000000000000000000                                                  C/ DUARTE # 90                                                                                                                                                                                                      000225N00000000000000000000000000000000000000000000000000                                                                                                                                                           00000000000000000000000000000000000000000                                                                                                                                                                                                                                                          000000                                                                                                                                                                                                                                                                                                                                                              000000        

DA000001133300000657120049758106JOSE MANUEL                                       DIAZ                                    GARCIA                                  C07300112625              19511129001MC000000000000000000000000000000                                                  C/ 3  # 1                                                                                                                                                                                                           000031N00000000000000000000000000000000000000000000000000                                                                                                                                                           00000000000000000000000000000000000000000                                                                                                                                                                                                                                                          000000                                                                                                                                                                                                                                                                                                                                                              000000        

DA000000750900000674060051742470ISABEL                                            SENA                                    PEREZ                                   C09900004061              19500608001MC000000000000000000000000000000                                                  LAS MERCEDES # 4                                                                                                                                                                                                    000099N00000000000000000000000000000000000000000000000000                                                                                                                                                           00000000000000000000000000000000000000000                                                                                                                                                                                                                                                          000000                                                                                                                                                                                                                                                                                                                                                              000000        

DA000001372400000572750023897674HEYDI ALTAGRACIA                                  MATOS                                   BATISTA                                 C01800055467              19570710001FC000000000000000000000000000000                                                  C/ COLON # 1                                                                                                                                                                                                        000018N00000000000000000000000000000000000000000000000000                                                                                                                                                           00000000000000000000000000000000000000000                                                                                                                                                                                                                                                          000000                                                                                                                                                                                                                                                                                                                                                              000000        

DA000000109500000629800036048875MARINA                                            CASTILLO                                PAULINO                                 C04000000713              19611226001FC000000000000000000000000000000                                                  LOS BARRIOS #71-2                                                                                                                                                                                                   000040N00000000000000000000000000000000000000000000000000                                                                                                                                                           00000000000000000000000000000000000000000                                                                                                                                                                                                                                                          000000                                                                                                                                                                                                                                                                                                                                                              000000        

DA000001081600000343550043824548PABLO ROBERTO                                     FLORES                                  GUZMAN                                  C05400459136              19350607001MS000000000000000000000000000000                                                  ENTRADA LOS PICHARDO # S/N                                                                                                                                                                                          000054N00000000000000000000000000000000000000000000000000                                                                                                                                                           00000000000000000000000000000000000000000                                                                                                                                                                                                                                                          000000                                                                                                                                                                                                                                                                                                                                                              000000        

DA000001225100000230280023361004ANA JULIA                                         MONTES DE OCA                           PIÑA                                    C01200021838              19520110001FS000000000000000000000000000000                                                  A #89 APTO. 402                                                                                                                                                                                                     000001N00000000000000000000000000000000000000000000000000                                                                                                                                                           00000000000000000000000000000000000000000                                                                                                                                                                                                                                                          000000                                                                                                                                                                                                                                                                                                                                                              000000        

DA000000621500001098120045849562FRANCISCO                                         ROJAS                                                                           C05900001917              19440618001MC000000000000000000000000000000                                                  C/PEDRO MA. GOMEZ#14                                                                                                                                                                                                000059N00000000000000000000000000000000000000000000000000                                                                                                                                                           00000000000000000000000000000000000000000                                                                                                                                                                                                                                                          000000                                                                                                                                                                                                                                                                                                                                                              000000        

DA000001179100000546880009597537NEIDA                                             MONTILLA                                DE LORENZO                              C00108707357              19540222001FS000000000000000000000000000000                                                  JOSE DEL CARMEN RAMIREZ #52                                                                                                                                                                                         000012N00000000000000000000000000000000000000000000000000                                                                                                                                                           00000000000000000000000000000000000000000                                                                                                                                                                                                                                                          000000                                                                                                                                                                                                                                                                                                                                                              000000        

DA000001221600000638810038155702DOMINGO                                           CAMINERO                                PAULINO                                 C04800419931              19560925001MC000000000000000000000000000000                                                  C/ 41, YUMA ADENTRO                                                                                                                                                                                                 000048N00000000000000000000000000000000000000000000000000                                                                                                                                                           00000000000000000000000000000000000000000                                                                                                                                                                                                                                                          000000                                                                                                                                                                                                                                                                                                                                                              000000        

DA000001336400000011770009056998JUAN RAFAEL                                       RAMIREZ                                                                         C00100188820              19430310001MC000000000000000000000000000000                                                  LOS NARDOS #3                                                                                                                                                                                                       000223N00000000000000000000000000000000000000000000000000                                                                                                                                                           00000000000000000000000000000000000000000                                                                                                                                                                                                                                                          000000                                                                                                                                                                                                                                                                                                                                                              000000        

DA000001302500000035950000085902MERCEDES OLIVA                                    MOJICA                                  MONTAS DE GUILLEN                       C00101056778              19230707001FS000000000000000000000000000000                                                  JIMENEZ MOYA EDF. 11 APTO. 7                                                                                                                                                                                        000001N00000000000000000000000000000000000000000000000000                                                                                                                                                           00000000000000000000000000000000000000000                                                                                                                                                                                                                                                          000000                                                                                                                                                                                                                                                                                                                                                              000000        

