EPN52
DA000001159300000267590026539607DOLORES                                           ABREU                                                                           C02600578567              19301210001FS000000000000000000000000000000                                                  TENIENTE AMADO GARCIA                                                                                                                                 64          LA AVIACION                                       000026N00000000000000000000000000000000000000000000000000                                                                                                                                                           00000000000000000000000000000000000000000                                                                                                                                                                                                                                                          000000                                                                                                                                                                                                                                                                                                                                                              000000        
DA000000522600000272900029241481ESTEBANIA REYNA                                   SIERRA                                                                          C03000003461              19350902001FS000000000000000000000000000000                                                  INMACULADA CONCEPCION                                                                                                                                 10          RAMON SANTANA                                     000030N00000000000000000000000000000000000000000000000000                                                                                                                                                           00000000000000000000000000000000000000000                                                                                                                                                                                                                                                          000000                                                                                                                                                                                                                                                                                                                                                              000000        
DA000000596700001022990021790495NUEVA                                             GARCIA                                                                          C01100205143              19510410001FS000000000000000000000000000000                                                  RESP BELLE                                                                                                                                            9           BELLER                                            000011N00000000000000000000000000000000000000000000000000                                                                                                                                                           00000000000000000000000000000000000000000                                                                                                                                                                                                                                                          000000                                                                                                                                                                                                                                                                                                                                                              000000        
DA000001397200000419110004512244RAMONA                                            ROBLES                                                                          C00105537872              19380317001FS000000000000000000000000000000                                                  ANDRE MEDINA                                                                                                                                          62          16 DE AGOSTO                                      000225N00000000000000000000000000000000000000000000000000                                                                                                                                                           00000000000000000000000000000000000000000                                                                                                                                                                                                                                                          000000                                                                                                                                                                                                                                                                                                                                                              000000        
DA000001094700000637040041098361ALTAGRACIA                                        BRUNO                                                                           C04701235816              19550201001FS000000000000000000000000000000                                                  PALMARITO                                                                                                                                             38          LIBERTAD                                          000047N00000000000000000000000000000000000000000000000000                                                                                                                                                           00000000000000000000000000000000000000000                                                                                                                                                                                                                                                          000000                                                                                                                                                                                                                                                                                                                                                              000000        
DA000000459500000377790050302842JOSEFA                                            GOMEZ                                                                           C08700008702              19440915001FC000000000000000000000000000000                                                  LA PIÑA                                                                                                                                               06          FANTINO                                           000049N00000000000000000000000000000000000000000000000000                                                                                                                                                           00000000000000000000000000000000000000000                                                                                                                                                                                                                                                          000000                                                                                                                                                                                                                                                                                                                                                              000000        
DA000002395300001063310008711395MARIA                                             MEJIA                                                                           C00103250338              19471201001FS000000000000000000000000000000                                                  FCO. DEL ROSARIO SANCHEZ 111                                                                                                                          111         ARROYO TORO                                       000001N00000000000000000000000000000000000000000000000000                                                                                                                                                           00000000000000000000000000000000000000000                                                                                                                                                                                                                                                          000000                                                                                                                                                                                                                                                                                                                                                              000000        
DA000000122700000222530019574906SERAPIO                                           TOLENTINO                                                                       C00800019044              19271113001MS000000000000000000000000000000                                                  GASTON F DELIGNE                                                                                                                                      46          VIETNAM                                           000008N00000000000000000000000000000000000000000000000000                                                                                                                                                           00000000000000000000000000000000000000000                                                                                                                                                                                                                                                          000000                                                                                                                                                                                                                                                                                                                                                              000000        
DA000001943200001073500003516047JUAN MARIA                                        GRULLON                                                                         C00105525653              19460712001MS000000000000000000000000000000                                                  MANZ.H                                                                                                                                                N           URB PARQUE DEL ESTE                               000223N00000000000000000000000000000000000000000000000000                                                                                                                                                           00000000000000000000000000000000000000000                                                                                                                                                                                                                                                          000000                                                                                                                                                                                                                                                                                                                                                              000000        
DA000001392600001067040039791735JOSE                                              GUZMAN                                                                          C04300018555              19430319001MS000000000000000000000000000000                                                  PRINCIPAL                                                                                                                                             39          LA ROSA                                           000043N00000000000000000000000000000000000000000000000000                                                                                                                                                           00000000000000000000000000000000000000000                                                                                                                                                                                                                                                          000000                                                                                                                                                                                                                                                                                                                                                              000000        
DA000001072400001067390042458263VITERBO                                           PEREZ                                                                           C05000037738              19440110001MS000000000000000000000000000000                                                  1RA                                                                                                                                                   16          MEDINA                                            000050N00000000000000000000000000000000000000000000000000                                                                                                                                                           00000000000000000000000000000000000000000                                                                                                                                                                                                                                                          000000                                                                                                                                                                                                                                                                                                                                                              000000        
DA000001059200001067460042191561RAFAEL ANTONIO                                    CARMONA                                                                         C05000140615              19550123001MS000000000000000000000000000000                                                  PEDREGAR                                                                                                                                              167         N                                                 000050N00000000000000000000000000000000000000000000000000                                                                                                                                                           00000000000000000000000000000000000000000                                                                                                                                                                                                                                                          000000                                                                                                                                                                                                                                                                                                                                                              000000        
DA000001082300001067650044961552JACOBA                                            INFANTE                                                                         C05300229910              19460125001FS000000000000000000000000000000                                                  ANTONIO DUVERGE                                                                                                                                       18          LOS AUSES                                         000053N00000000000000000000000000000000000000000000000000                                                                                                                                                           00000000000000000000000000000000000000000                                                                                                                                                                                                                                                          000000                                                                                                                                                                                                                                                                                                                                                              000000        
DA000001078900001067610043104048DAVID SANTIAGO                                    ROSARIO                                                                         C05300034781              19350802001MS000000000000000000000000000000                                                  JOSE R QUELIZ                                                                                                                                         11          EL POPULAR                                        000053N00000000000000000000000000000000000000000000000000                                                                                                                                                           00000000000000000000000000000000000000000                                                                                                                                                                                                                                                          000000                                                                                                                                                                                                                                                                                                                                                              000000        
DA000000170900001067300040888961LINO                                              GOMEZ                                                                           C04800297246              19430807001MS000000000000000000000000000000                                                  DOÑA JUANA                                                                                                                                            08          LOS PLATANITOS                                    000048N00000000000000000000000000000000000000000000000000                                                                                                                                                           00000000000000000000000000000000000000000                                                                                                                                                                                                                                                          000000                                                                                                                                                                                                                                                                                                                                                              000000        
DA000002860800001228470009348991MARIA DOLORES                                     CACERES                                                                         C00113960561              19500918001FS000000000000000000000000000000                                                  3RA                                                                                                                                                   24          LA ESPERANZA) LOS RIOS                            000001N00000000000000000000000000000000000000000000000000                                                                                                                                                           00000000000000000000000000000000000000000                                                                                                                                                                                                                                                          000000                                                                                                                                                                                                                                                                                                                                                              000000        
DA000000089700001226510026464885LEOPOLDO                                          JIMENEZ                                                                         C02700112341              19440425001MS000000000000000000000000000000                                                  PROL PALO HINCADO                                                                                                                                     10          LA CHINA                                          000027N00000000000000000000000000000000000000000000000000                                                                                                                                                           00000000000000000000000000000000000000000                                                                                                                                                                                                                                                          000000                                                                                                                                                                                                                                                                                                                                                              000000        
DA000001766400001207180015078664ODALIS ALGESIRA                                   HERRERA                                                                         C00105711006              19480405001FS000000000000000000000000000000                                                  2DA                                                                                                                                                   11          RESD LAYOLA                                       000224N00000000000000000000000000000000000000000000000000                                                                                                                                                           00000000000000000000000000000000000000000                                                                                                                                                                                                                                                          000000                                                                                                                                                                                                                                                                                                                                                              000000        
DA000000073500001048570047946286JUAN ENRIQUEZ                                     PIMENTEL                                                                        C06700033688              19580612001MS000000000000000000000000000000                                                  SANCHEZ                                                                                                                                               ?           CATAREY                                           000001N00000000000000000000000000000000000000000000000000                                                                                                                                                           00000000000000000000000000000000000000000                                                                                                                                                                                                                                                          000000                                                                                                                                                                                                                                                                                                                                                              000000        
DA000001902700001000340002658666DANILO                                            BATISTA                                                                         C00105676654              19380721001MS000000000000000000000000000000                                                  BRISAS DEL ESTE                                                                                                                                       5           N                                                 000223N00000000000000000000000000000000000000000000000000                                                                                                                                                           00000000000000000000000000000000000000000                                                                                                                                                                                                                                                          000000                                                                                                                                                                                                                                                                                                                                                              000000        
DA000000029100001064520017288373HERMOGENA                                         CARABALLO                                                                       C00108644931              19410418001FS000000000000000000000000000000                                                  N                                                                                                                                                     N           LOS ALCARRIZO                                     000229N00000000000000000000000000000000000000000000000000                                                                                                                                                           00000000000000000000000000000000000000000                                                                                                                                                                                                                                                          000000                                                                                                                                                                                                                                                                                                                                                              000000        
DA000000797900001019430020987221FLORENTINO                                        ALFONSECA                                                                       C00200192201              19511017001MS000000000000000000000000000000                                                  1RA                                                                                                                                                   86          PUERTO RICO                                       000002N00000000000000000000000000000000000000000000000000                                                                                                                                                           00000000000000000000000000000000000000000                                                                                                                                                                                                                                                          000000                                                                                                                                                                                                                                                                                                                                                              000000        
DA000000139800000392410054154293MANUEL DE JESUS                                   RODRIGUEZ                                                                       C12300089765              19351011001MS000000000000000000000000000000                                                  1RA DE MAYO                                                                                                                                           11          BUENOS AIRES                                      000123N00000000000000000000000000000000000000000000000000                                                                                                                                                           00000000000000000000000000000000000000000                                                                                                                                                                                                                                                          000000                                                                                                                                                                                                                                                                                                                                                              000000        
DA000000140700000391540053880594SEVERO                                            LOPEZ                                                                           C11800002351              19290612001MS000000000000000000000000000000                                                  COLON                                                                                                                                                 3           PUERTO RICO                                       000118N00000000000000000000000000000000000000000000000000                                                                                                                                                           00000000000000000000000000000000000000000                                                                                                                                                                                                                                                          000000                                                                                                                                                                                                                                                                                                                                                              000000        
DA000000788500000207120019155292ANATALIO                                          DE LA CRUZ                                                                      C00200141729              19310527001MS000000000000000000000000000000                                                  PROYECTO LAS NOVAS                                                                                                                                    32          LOS NOVA                                          000002N00000000000000000000000000000000000000000000000000                                                                                                                                                           00000000000000000000000000000000000000000                                                                                                                                                                                                                                                          000000                                                                                                                                                                                                                                                                                                                                                              000000        
DA000000940900000216340020523606FIOL ESTELA                                       PIMENTEL                                                                        C00300044070              19311210001FS000000000000000000000000000000                                                  MELLA                                                                                                                                                 24          BARRIO B                                          000003N00000000000000000000000000000000000000000000000000                                                                                                                                                           00000000000000000000000000000000000000000                                                                                                                                                                                                                                                          000000                                                                                                                                                                                                                                                                                                                                                              000000        
DA000000966000000218310018669930FRANCISCA AMPARO                                  AVALO                                                                           C00300223476              19380701001FS000000000000000000000000000000                                                  PRINCIPAL                                                                                                                                             22          LOS YAGUARIZOS                                    000003N00000000000000000000000000000000000000000000000000                                                                                                                                                           00000000000000000000000000000000000000000                                                                                                                                                                                                                                                          000000                                                                                                                                                                                                                                                                                                                                                              000000        
DA000000178500000302100037328436JUAN DE DIOS                                      VEGA                                                                            C03300051350              19391204001MS000000000000000000000000000000                                                  C                                                                                                                                                     16          DUARTE                                            000033N00000000000000000000000000000000000000000000000000                                                                                                                                                           00000000000000000000000000000000000000000                                                                                                                                                                                                                                                          000000                                                                                                                                                                                                                                                                                                                                                              000000        
DA000000178600000621770030296093BACILIA                                           SANCHEZ                                                                         C03300063009              19460110001FS000000000000000000000000000000                                                  D                                                                                                                                                     36          DUARTE                                            000033N00000000000000000000000000000000000000000000000000                                                                                                                                                           00000000000000000000000000000000000000000                                                                                                                                                                                                                                                          000000                                                                                                                                                                                                                                                                                                                                                              000000        
DA000000188900000763030030791320ROSA ALTAGRACIA                                   BAEZ                                                                            C03400106211              19530829001FS000000000000000000000000000000                                                  C 10                                                                                                                                                  12          SAN ANTON                                         000034N00000000000000000000000000000000000000000000000000                                                                                                                                                           00000000000000000000000000000000000000000                                                                                                                                                                                                                                                          000000                                                                                                                                                                                                                                                                                                                                                              000000        
DA000000215700000873170041629468DOMINGO ANTONIO                                   BAEZ                                                                            C04600093381              19510221001MS000000000000000000000000000000                                                  N                                                                                                                                                     12          EL ANICETAL                                       000046N00000000000000000000000000000000000000000000000000                                                                                                                                                           00000000000000000000000000000000000000000                                                                                                                                                                                                                                                          000000                                                                                                                                                                                                                                                                                                                                                              000000        
DA000001404200000371120048877397RAMON                                             ALCANTARA                                                                       C07300013815              19370517001MS000000000000000000000000000000                                                  FELIX PERALTA                                                                                                                                         21          LA GALLERA                                        000073N00000000000000000000000000000000000000000000000000                                                                                                                                                           00000000000000000000000000000000000000000                                                                                                                                                                                                                                                          000000                                                                                                                                                                                                                                                                                                                                                              000000        
DA000000686400000788580053534825MILEDIS                                           DIPRE                                                                           C10400127246              19500104001FS000000000000000000000000000000                                                  PRINCIPAL                                                                                                                                             2           CAMBITA PUEBLECITO                                000104N00000000000000000000000000000000000000000000000000                                                                                                                                                           00000000000000000000000000000000000000000                                                                                                                                                                                                                                                          000000                                                                                                                                                                                                                                                                                                                                                              000000        
DA000002028500001225640000518041CARMEN CESILIA                                    TORRES                                                                          C00108485640              19530422001FS000000000000000000000000000000                                                  3.ESQ                                                                                                                                                 50          HAINA MOSA                                        000223N00000000000000000000000000000000000000000000000000                                                                                                                                                           00000000000000000000000000000000000000000                                                                                                                                                                                                                                                          000000                                                                                                                                                                                                                                                                                                                                                              000000        
DA000002323700000988490000162415RAMONA DEL CARMEN                                 GOMEZ                                                                           C00102491065              19410608001FS000000000000000000000000000000                                                  DR TEJADA FLORENTINO                                                                                                                                  8           VILLA CONSUELO                                    000001N00000000000000000000000000000000000000000000000000                                                                                                                                                           00000000000000000000000000000000000000000                                                                                                                                                                                                                                                          000000                                                                                                                                                                                                                                                                                                                                                              000000        
DA000001523500001022870021669125ANA VERTILIA                                      MORA                                                                            C01000344646              19130905001FS000000000000000000000000000000                                                  BALBINO SANTANA                                                                                                                                       1           AZUA                                              000010N00000000000000000000000000000000000000000000000000                                                                                                                                                           00000000000000000000000000000000000000000                                                                                                                                                                                                                                                          000000                                                                                                                                                                                                                                                                                                                                                              000000        
DA000002917200001012760010135243MARIA DE JESUS                                    PEREZ                                                                           C00109337360              19440302001FS000000000000000000000000000000                                                  7                                                                                                                                                     34          24 DE ABRIL                                       000001N00000000000000000000000000000000000000000000000000                                                                                                                                                           00000000000000000000000000000000000000000                                                                                                                                                                                                                                                          000000                                                                                                                                                                                                                                                                                                                                                              000000        
DA000000229700000385320052791863RAMON FELICIANO                                   MIRABAL                                                                         C09400009552              19410609001MS000000000000000000000000000000                                                  VILLA GONZALEZ                                                                                                                                        29          VILLA GONZALEZ                                    000031N00000000000000000000000000000000000000000000000000                                                                                                                                                           00000000000000000000000000000000000000000                                                                                                                                                                                                                                                          000000                                                                                                                                                                                                                                                                                                                                                              000000        
DA000002428300000992390008741816MARINO ANTONIO                                    GRULLON                                                                         C00103514915              19460727001MS000000000000000000000000000000                                                  RESP MANZ NAZARET                                                                                                                                     26A         LOS GUANDULES                                     000001N00000000000000000000000000000000000000000000000000                                                                                                                                                           00000000000000000000000000000000000000000                                                                                                                                                                                                                                                          000000                                                                                                                                                                                                                                                                                                                                                              000000        
DA000002878400001014310001694477GILDA MILESIA                                     RUIZ                                                                            C00110993128              19420628001FS000000000000000000000000000000                                                  DR TEJADA FLORENTINO                                                                                                                                  8           LA FE                                             000001N00000000000000000000000000000000000000000000000000                                                                                                                                                           00000000000000000000000000000000000000000                                                                                                                                                                                                                                                          000000                                                                                                                                                                                                                                                                                                                                                              000000        
DA000002862600001229830016512564HECTOR DARIO                                      FREITES                                                                         C00111306734              19410909001MS000000000000000000000000000000                                                  ABIGAILCOISCO                                                                                                                                         10          LA CASTELLANA                                     000001N00000000000000000000000000000000000000000000000000                                                                                                                                                           00000000000000000000000000000000000000000                                                                                                                                                                                                                                                          000000                                                                                                                                                                                                                                                                                                                                                              000000        
DA000000344400000293100036962623ROBERTO                                           GARCIA                                                                          C03101547911              19490217001MS000000000000000000000000000000                                                  PEATON 2                                                                                                                                              12          HATO DEL YAQUE                                    000172N00000000000000000000000000000000000000000000000000                                                                                                                                                           00000000000000000000000000000000000000000                                                                                                                                                                                                                                                          000000                                                                                                                                                                                                                                                                                                                                                              000000        
DA000000041200000165580017295967TEODORA                                           DE LA CRUZ                                                                      C00108773185              19430420001FS000000000000000000000000000000                                                  PROGRESO                                                                                                                                              13          PANTOJA                                           000228N00000000000000000000000000000000000000000000000000                                                                                                                                                           00000000000000000000000000000000000000000                                                                                                                                                                                                                                                          000000                                                                                                                                                                                                                                                                                                                                                              000000        
DA000002013100000821760013214073AGUSTIN                                           LARA                                                                            C00107556920              19440413001MS000000000000000000000000000000                                                  14                                                                                                                                                    100         LA CALETA                                         000226N00000000000000000000000000000000000000000000000000                                                                                                                                                           00000000000000000000000000000000000000000                                                                                                                                                                                                                                                          000000                                                                                                                                                                                                                                                                                                                                                              000000        
DA000001942800000120330010525311LESBIA SAGRARIO                                   FRIAS                                                                           C00105520639              19530411001FS000000000000000000000000000000                                                  MANZ. L                                                                                                                                               EDIF. L2, APLOS MAMEYES                                       000223N00000000000000000000000000000000000000000000000000                                                                                                                                                           00000000000000000000000000000000000000000                                                                                                                                                                                                                                                          000000                                                                                                                                                                                                                                                                                                                                                              000000        
DA000001601700000129420001402942VICTORIA ERCILIA                                  WALLACE                                                                         C00106228570              19391029001FS000000000000000000000000000000                                                  CALLE SANCHEZ                                                                                                                                         N           VILLA MELLA                                       000225N00000000000000000000000000000000000000000000000000                                                                                                                                                           00000000000000000000000000000000000000000                                                                                                                                                                                                                                                          000000                                                                                                                                                                                                                                                                                                                                                              000000        
DA000000546100000261140029546945MANUEL                                            HOGDE                                                                           C02300576564              19480927001MS000000000000000000000000000000                                                  VICENTE ODEÑE                                                                                                                                         358         INGENIO SANTA FE                                  000023N00000000000000000000000000000000000000000000000000                                                                                                                                                           00000000000000000000000000000000000000000                                                                                                                                                                                                                                                          000000                                                                                                                                                                                                                                                                                                                                                              000000        
DA000001249200000341740045650774MARIA ANA ANTONIA V                               FRIAS                                                                           C05400129788              19270709001FC000000000000000000000000000000                                                  ANGEL MORALES                                                                                                                                         2           CENTRO DE LA CIUDAD                               000054N00000000000000000000000000000000000000000000000000                                                                                                                                                           00000000000000000000000000000000000000000                                                                                                                                                                                                                                                          000000                                                                                                                                                                                                                                                                                                                                                              000000        
DA000000317600000865900037331355RAFAEL EMILIO                                     MIRANDA                                                                         C03100591761              19391027001MC000000000000000000000000000000                                                  6                                                                                                                                                     93          EL ENSUEÑO                                        000031N00000000000000000000000000000000000000000000000000                                                                                                                                                           00000000000000000000000000000000000000000                                                                                                                                                                                                                                                          000000                                                                                                                                                                                                                                                                                                                                                              000000        
DA000003088500000294030030108294ALTAGRACIA                                        GERMOSEN DE VASQUEZ                                                             C03101717266              19240225001FC000000000000000000000000000000                                                  C DE LOS                                                                                                                                              N           PUÑAL ADENTRO                                     000031N00000000000000000000000000000000000000000000000000                                                                                                                                                           00000000000000000000000000000000000000000                                                                                                                                                                                                                                                          000000                                                                                                                                                                                                                                                                                                                                                              000000        
DA000000435400001043230031370112EMELINDO                                          MERCADO                                                                         C03700506599              19361022001MC000000000000000000000000000000                                                  CALLE 11                                                                                                                                              N           SABANA GRANDE DE BATEY 1                          000172N00000000000000000000000000000000000000000000000000                                                                                                                                                           00000000000000000000000000000000000000000                                                                                                                                                                                                                                                          000000                                                                                                                                                                                                                                                                                                                                                              000000        
DA000000197800000763190031291348DILIA PILAR                                       GUZMAN                                                                          C03400162461              19470318001FS000000000000000000000000000000                                                  SABITA RODRIGUEZ                                                                                                                                      88          N                                                 000034N00000000000000000000000000000000000000000000000000                                                                                                                                                           00000000000000000000000000000000000000000                                                                                                                                                                                                                                                          000000                                                                                                                                                                                                                                                                                                                                                              000000        
DA000000279000000758680030536755FRANCISCO SANTIAGO                                AYBAR                                                                           C03100867385              19380528001MS000000000000000000000000000000                                                  10                                                                                                                                                    5           BELLA VISTA                                       000031N00000000000000000000000000000000000000000000000000                                                                                                                                                           00000000000000000000000000000000000000000                                                                                                                                                                                                                                                          000000                                                                                                                                                                                                                                                                                                                                                              000000        
DA000001823500001070000001341281LORENZA                                           ECHAVARRIA                                                                      C00104977426              19340903001FS000000000000000000000000000000                                                  N                                                                                                                                                     43          N                                                 000223N00000000000000000000000000000000000000000000000000                                                                                                                                                           00000000000000000000000000000000000000000                                                                                                                                                                                                                                                          000000                                                                                                                                                                                                                                                                                                                                                              000000        
DA000001712600000160700009562986CARMEN LUISA                                      GARCES                                                                          C00108389990              19601210001FS000000000000000000000000000000                                                  TRINITARIA                                                                                                                                            63          HERRERA                                           000224N00000000000000000000000000000000000000000000000000                                                                                                                                                           00000000000000000000000000000000000000000                                                                                                                                                                                                                                                          000000                                                                                                                                                                                                                                                                                                                                                              000000        
DA000001405800000370650049285288FRANCISCO MARIA                                   BATISTA                                                                         C07300000408              19270419001MS000000000000000000000000000000                                                  N                                                                                                                                                     30          N                                                 000001N00000000000000000000000000000000000000000000000000                                                                                                                                                           00000000000000000000000000000000000000000                                                                                                                                                                                                                                                          000000                                                                                                                                                                                                                                                                                                                                                              000000        
DA000001122900001226700038618447ANA                                               CEPEDA                                                                          C04700173463              19380807001FS000000000000000000000000000000                                                  CARLOS MARIA SANCHEZ 50                                                                                                                               50          VILLA ROSA                                        000047N00000000000000000000000000000000000000000000000000                                                                                                                                                           00000000000000000000000000000000000000000                                                                                                                                                                                                                                                          000000                                                                                                                                                                                                                                                                                                                                                              000000        
DA000001102300000320440039857767GISELA ALTAGRACIA                                 GARCIA                                                                          C04700002241              19370920001FC000000000000000000000000000000                                                  3                                                                                                                                                     10          ALTOS DE HATICO                                   000047N00000000000000000000000000000000000000000000000000                                                                                                                                                           00000000000000000000000000000000000000000                                                                                                                                                                                                                                                          000000                                                                                                                                                                                                                                                                                                                                                              000000        
DA000001066500000640640039168465CANDIDO ANTONIO                                   BONIFACIO                                                                       C05000000744              19510920001MS000000000000000000000000000000                                                  P DULIO JIMENEZ 115                                                                                                                                   115         JARABACOA                                         000050N00000000000000000000000000000000000000000000000000                                                                                                                                                           00000000000000000000000000000000000000000                                                                                                                                                                                                                                                          000000                                                                                                                                                                                                                                                                                                                                                              000000        
DA000001112200001074290041073908ELSA BRIGIDA JOSEFINA                             CHESTARO                                                                        C04700229059              19481008001FC000000000000000000000000000000                                                  GARCIA GODOY 52*                                                                                                                                      52          LA VEGA                                           000047N00000000000000000000000000000000000000000000000000                                                                                                                                                           00000000000000000000000000000000000000000                                                                                                                                                                                                                                                          000000                                                                                                                                                                                                                                                                                                                                                              000000        
DA000001130900000768940039874443LEONCIO                                           ROSARIO                                                                         C04700748959              19370317001MS000000000000000000000000000000                                                  LAS CAUYA CAMINO DE LOS ROSALES FRENTE AL SUPER                                                                                                       40          LA VEGA                                           000047N00000000000000000000000000000000000000000000000000                                                                                                                                                           00000000000000000000000000000000000000000                                                                                                                                                                                                                                                          000000                                                                                                                                                                                                                                                                                                                                                              000000        
DA000000486800000333840039989101GENARO MARCIAL                                    PEREZ                                                                           C04900059215              19420312001MC000000000000000000000000000000                                                  CALLE 11                                                                                                                                              206         LA ESPERANZA                                      000049N00000000000000000000000000000000000000000000000000                                                                                                                                                           00000000000000000000000000000000000000000                                                                                                                                                                                                                                                          000000                                                                                                                                                                                                                                                                                                                                                              000000        
DA000000479300000333420038145866OCTAVIO                                           JOSE                                                                            C04900038425              19590102001MS000000000000000000000000000000                                                  PALO HINCADO 4                                                                                                                                        4           PUEBLO NUEVO                                      000049N00000000000000000000000000000000000000000000000000                                                                                                                                                           00000000000000000000000000000000000000000                                                                                                                                                                                                                                                          000000                                                                                                                                                                                                                                                                                                                                                              000000        
DA000000478500000333340040595270ANA DOLORES                                       ACOSTA                                                                          C04900030125              19320525001FS000000000000000000000000000000                                                  HOSTO                                                                                                                                                 81          PUEBLO NUEBO                                      000049N00000000000000000000000000000000000000000000000000                                                                                                                                                           00000000000000000000000000000000000000000                                                                                                                                                                                                                                                          000000                                                                                                                                                                                                                                                                                                                                                              000000        
DA000002242100001225510006501468RAMON                                             ESPINOSA                                                                        C00101996551              19371007001MC000000000000000000000000000000                                                  JUAN TOMAS MEJIA 2                                                                                                                                    2           ARROYO HONDO                                      000001N00000000000000000000000000000000000000000000000000                                                                                                                                                           00000000000000000000000000000000000000000                                                                                                                                                                                                                                                          000000                                                                                                                                                                                                                                                                                                                                                              000000        
DA000002775700000004910003441984THELMA GREGORIA                                   ALVAREZ                                                                         C00100086941              19400223001FS000000000000000000000000000000                                                  JUNIOR SCOUT                                                                                                                                          3           ENS, NACO                                         000001N00000000000000000000000000000000000000000000000000                                                                                                                                                           00000000000000000000000000000000000000000                                                                                                                                                                                                                                                          000000                                                                                                                                                                                                                                                                                                                                                              000000        
DA000001871500000104670014106007ROSA                                              FELIX                                                                           C00104657127              19340830001FC000000000000000000000000000000                                                  2DA,CAR' MELLA                                                                                                                                        19          URB, NARCISA                                      000001N00000000000000000000000000000000000000000000000000                                                                                                                                                           00000000000000000000000000000000000000000                                                                                                                                                                                                                                                          000000                                                                                                                                                                                                                                                                                                                                                              000000        
DA000002337100001074760011502354BELKIS CANDELARIA                                 GONZALEZ                                                                        C00102630167              19590208001FS000000000000000000000000000000                                                  LOMA REDONDA, MAZ,B                                                                                                                                   11          LOS RIOS                                          000001N00000000000000000000000000000000000000000000000000                                                                                                                                                           00000000000000000000000000000000000000000                                                                                                                                                                                                                                                          000000                                                                                                                                                                                                                                                                                                                                                              000000        
DA000003054800000790470003432448RAISA MERCEDES                                    SANTINI                                                                         C00100008127              19550415001FS000000000000000000000000000000                                                  AV, PRIVADA                                                                                                                                           10          PRIVADA II                                        000001N00000000000000000000000000000000000000000000000000                                                                                                                                                           00000000000000000000000000000000000000000                                                                                                                                                                                                                                                          000000                                                                                                                                                                                                                                                                                                                                                              000000        
DA000001157900000266640027122355CESAREO                                           RIJO                                                                            C02600204867              19270604001MC000000000000000000000000000000                                                  LOS MULTIS                                                                                                                                            0           LA ROMANA                                         000026N00000000000000000000000000000000000000000000000000                                                                                                                                                           00000000000000000000000000000000000000000                                                                                                                                                                                                                                                          000000                                                                                                                                                                                                                                                                                                                                                              000000        
DA000001152000000266060026484561MERCEDES                                          AVILA                                                                           C02600007203              19340905001FS000000000000000000000000000000                                                  LOS MULTIS 2                                                                                                                                          2           LA ROMANA                                         000026N00000000000000000000000000000000000000000000000000                                                                                                                                                           00000000000000000000000000000000000000000                                                                                                                                                                                                                                                          000000                                                                                                                                                                                                                                                                                                                                                              000000        
DA000001158300000266700026827050ADA AMINTA                                        MENDEZ                                                                          C02600220350              19381211001FC000000000000000000000000000000                                                  MULTI FAMILIARES                                                                                                                                      0           LAROMANA                                          000026N00000000000000000000000000000000000000000000000000                                                                                                                                                           00000000000000000000000000000000000000000                                                                                                                                                                                                                                                          000000                                                                                                                                                                                                                                                                                                                                                              000000        
DA000000571400000254440029594582SENONA                                            GONZALEZ                                                                        C02300197551              19500405001FC000000000000000000000000000000                                                  RAMON MEJIA 21                                                                                                                                        21          BUENOS AIRES                                      000023N00000000000000000000000000000000000000000000000000                                                                                                                                                           00000000000000000000000000000000000000000                                                                                                                                                                                                                                                          000000                                                                                                                                                                                                                                                                                                                                                              000000        
