EPN52
DA000003326000000243880023115968CARLOS MANUEL                                     RUIZ                                                                            C01800154393              19540909001MS000000000000000000000000000000                                                  SAN JUAN BOSCO                                                                                                                                        20          PUNTA PULMA                                       000018N00000000000000000000000000000000000000000000000000                                                                                                                                                           00000000000000000000000000000000000000000                                                                                                                                                                                                                                                          000000                                                                                                                                                                                                                                                                                                                                                              000000        
DA000000635700000740320023588567LEONIDAS                                          DURAN                                                                           C01200424818              19350228001MS000000000000000000000000000000                                                  NA                                                                                                                                                    NA          NA                                                000012N00000000000000000000000000000000000000000000000000                                                                                                                                                           00000000000000000000000000000000000000000                                                                                                                                                                                                                                                          000000                                                                                                                                                                                                                                                                                                                                                              000000        
DA000000027500000158870003936498BOLIVAR                                           SUSANA                                                                          C00108221888              19301205001MS000000000000000000000000000000                                                  PEATON 2                                                                                                                                              04          LOS ALCARRIZO                                     000001N00000000000000000000000000000000000000000000000000                                                                                                                                                           00000000000000000000000000000000000000000                                                                                                                                                                                                                                                          000000                                                                                                                                                                                                                                                                                                                                                              000000        
DA000003473000000093140003414872GLADYS MARIA                                      JIMENEZ                                                                         C00103818639              19390914001FS000000000000000000000000000000                                                  4TA                                                                                                                                                   09          ENS. LUPERON                                      000001N00000000000000000000000000000000000000000000000000                                                                                                                                                           00000000000000000000000000000000000000000                                                                                                                                                                                                                                                          000000                                                                                                                                                                                                                                                                                                                                                              000000        
DA000001947700000709780011653762VICENTE EUCLIDES                                  MEJIA                                                                           C00105326854              19470128001MC000000000000000000000000000000                                                  CALLE 12                                                                                                                                              13          ZONA URBANA VILLA FARO                            000223N00000000000000000000000000000000000000000000000000                                                                                                                                                           00000000000000000000000000000000000000000                                                                                                                                                                                                                                                          000000                                                                                                                                                                                                                                                                                                                                                              000000        
DA000000956900000218540021038778LUIS ALBERTO                                      SOTO                                                                            C00300264678              19510414001MS000000000000000000000000000000                                                  N                                                                                                                                                     130         N                                                 000001N00000000000000000000000000000000000000000000000000                                                                                                                                                           00000000000000000000000000000000000000000                                                                                                                                                                                                                                                          000000                                                                                                                                                                                                                                                                                                                                                              000000        
DA000002885200000556830021299452MIGUEL                                            RODRIGUEZ                                                                       C00200073039              19610828001MS000000000000000000000000000000                                                  N                                                                                                                                                     153         N                                                 000001N00000000000000000000000000000000000000000000000000                                                                                                                                                           00000000000000000000000000000000000000000                                                                                                                                                                                                                                                          000000                                                                                                                                                                                                                                                                                                                                                              000000        
DA000001893400000525220001520512ENRIQUE                                           RODRIGUEZ                                                                       C00105802797              19501012001MS000000000000000000000000000000                                                  N                                                                                                                                                     342         N                                                 000001N00000000000000000000000000000000000000000000000000                                                                                                                                                           00000000000000000000000000000000000000000                                                                                                                                                                                                                                                          000000                                                                                                                                                                                                                                                                                                                                                              000000        
DA000002356100000079360008129356SALVADOR                                          PEREZ                                                                           C00102846078              19510206001MS000000000000000000000000000000                                                  IVERO AMERICA                                                                                                                                         N           MIRADOR DEL ESTE                                  000001N00000000000000000000000000000000000000000000000000                                                                                                                                                           00000000000000000000000000000000000000000                                                                                                                                                                                                                                                          000000                                                                                                                                                                                                                                                                                                                                                              000000        
DA000000299000000279340036130050QUISQUEYA CONSUELO                                GUILLEN                                                                         C03100316359              19340203001FC000000000000000000000000000000                                                  AGUSTIN ACEVEDO                                                                                                                                       12          JARDINES METROPOLITANO                            000001N00000000000000000000000000000000000000000000000000                                                                                                                                                           00000000000000000000000000000000000000000                                                                                                                                                                                                                                                          000000                                                                                                                                                                                                                                                                                                                                                              000000        
DA000002610200000039030000092712WILLIAM                                           DIHMES                                                                          C00101122224              19271128001MC000000000000000000000000000000                                                  N                                                                                                                                                     NN                                                            000001N00000000000000000000000000000000000000000000000000                                                                                                                                                           00000000000000000000000000000000000000000                                                                                                                                                                                                                                                          000000                                                                                                                                                                                                                                                                                                                                                              000000        
DA000000485800000639830039701705FERMIN                                            FIGUEROA                                                                        C04900062672              19510708001MC000000000000000000000000000000                                                  PROYECTO                                                                                                                                              2           LOS COCOS                                         000049N00000000000000000000000000000000000000000000000000                                                                                                                                                           00000000000000000000000000000000000000000                                                                                                                                                                                                                                                          000000                                                                                                                                                                                                                                                                                                                                                              000000        
DA000003284400000457370027763198RAMON ENRIQUES                                    PEREZ                                                                           C02600204289              19530626001MS000000000000000000000000000000                                                  HECTOR REGIL                                                                                                                                          112         LA AVIACION                                       000026N00000000000000000000000000000000000000000000000000                                                                                                                                                           00000000000000000000000000000000000000000                                                                                                                                                                                                                                                          000000                                                                                                                                                                                                                                                                                                                                                              000000        
DA000001713600000152370001492325MARIA DOLORES                                     GRULLON                                                                         C00107749145              19250213001FS000000000000000000000000000000                                                  HONOR                                                                                                                                                 11          PANTOJA                                           000224N00000000000000000000000000000000000000000000000000                                                                                                                                                           00000000000000000000000000000000000000000                                                                                                                                                                                                                                                          000000                                                                                                                                                                                                                                                                                                                                                              000000        
DA000002864000000178690016701018LUIS MANUEL                                       GRULLON                                                                         C00111357786              19500202001MS000000000000000000000000000000                                                  1RA                                                                                                                                                   148         LOS PERALEJOS                                     000001N00000000000000000000000000000000000000000000000000                                                                                                                                                           00000000000000000000000000000000000000000                                                                                                                                                                                                                                                          000000                                                                                                                                                                                                                                                                                                                                                              000000        
DA000003008500000152410006823995LIDIA ANTONIA                                     REYES                                                                           C00107751620              19500214001FS000000000000000000000000000000                                                  PRIMERA 148                                                                                                                                           148         LOS PARALEJOS                                     000001N00000000000000000000000000000000000000000000000000                                                                                                                                                           00000000000000000000000000000000000000000                                                                                                                                                                                                                                                          000000                                                                                                                                                                                                                                                                                                                                                              000000        
DA000001726300000143000017244843SUNILDA                                           MATEO                                                                           C00107164410              19420105001FS000000000000000000000000000000                                                  MANZANA 3                                                                                                                                             N           HERRERA                                           000224N00000000000000000000000000000000000000000000000000                                                                                                                                                           00000000000000000000000000000000000000000                                                                                                                                                                                                                                                          000000                                                                                                                                                                                                                                                                                                                                                              000000        
DA000001692000000185070012208182ANA SILVIA                                        PEREZ                                                                           C00114301005              19450403001FS000000000000000000000000000000                                                  PEREZ 12                                                                                                                                              12          MANOGUAYABO                                       000224N00000000000000000000000000000000000000000000000000                                                                                                                                                           00000000000000000000000000000000000000000                                                                                                                                                                                                                                                          000000                                                                                                                                                                                                                                                                                                                                                              000000        
DA000001395900000872900038889425ANA VICTORIA                                      SANTANA                                                                         C04400088169              19370425001FS000000000000000000000000000000                                                  MAZ 38                                                                                                                                                15          LAS CAOBAS                                        000224N00000000000000000000000000000000000000000000000000                                                                                                                                                           00000000000000000000000000000000000000000                                                                                                                                                                                                                                                          000000                                                                                                                                                                                                                                                                                                                                                              000000        
DA000002101500000728310006434670FRANCISCO ANTONIO DEL ROSARIO                     TEJADA                                                                          C00111951794              19421004001MS000000000000000000000000000000                                                  4TA                                                                                                                                                   7           VILLA FARO                                        000223N00000000000000000000000000000000000000000000000000                                                                                                                                                           00000000000000000000000000000000000000000                                                                                                                                                                                                                                                          000000                                                                                                                                                                                                                                                                                                                                                              000000        
DA000001555300000058810003503708MILEDYS MERCEDES                                  PEA                                                                             C00101702983              19520219001FC000000000000000000000000000000                                                  ADONIS                                                                                                                                                N           ENS BELLA VISTA                                   000001N00000000000000000000000000000000000000000000000000                                                                                                                                                           00000000000000000000000000000000000000000                                                                                                                                                                                                                                                          000000                                                                                                                                                                                                                                                                                                                                                              000000        
DA000002709900000018590003223692SOBEIDA EMILIA                                    PEREZ                                                                           C00100493659              19421004001FS000000000000000000000000000000                                                  JOSEFA BREA                                                                                                                                           N           VILLA FRANCISCA                                   000001N00000000000000000000000000000000000000000000000000                                                                                                                                                           00000000000000000000000000000000000000000                                                                                                                                                                                                                                                          000000                                                                                                                                                                                                                                                                                                                                                              000000        
DA000002025900000161870006188655CANELA                                            CARRASCO                                                                        C00108470972              19280110001FS000000000000000000000000000000                                                  12                                                                                                                                                    N           HAINAMOSA                                         000223N00000000000000000000000000000000000000000000000000                                                                                                                                                           00000000000000000000000000000000000000000                                                                                                                                                                                                                                                          000000                                                                                                                                                                                                                                                                                                                                                              000000        
DA000001807300000115480016347640FIOR D RAMONA                                     ROJAS                                                                           C00105258347              19550731001FC000000000000000000000000000000                                                  CCURAZAO                                                                                                                                              34          STO DGO ESTE                                      000223N00000000000000000000000000000000000000000000000000                                                                                                                                                           00000000000000000000000000000000000000000                                                                                                                                                                                                                                                          000000                                                                                                                                                                                                                                                                                                                                                              000000        
DA000002008100000142950017244727BALBINA                                           FRANCO                                                                          C00107163123              19400331001FS000000000000000000000000000000                                                  MANZ.C                                                                                                                                                19A         LAS CACITAS                                       000223N00000000000000000000000000000000000000000000000000                                                                                                                                                           00000000000000000000000000000000000000000                                                                                                                                                                                                                                                          000000                                                                                                                                                                                                                                                                                                                                                              000000        
DA000001908700000121940004904395PURA MILEDYS                                      GUZMAN                                                                          C00105618789              19421208001FS000000000000000000000000000000                                                  OLEGARIO VARGAS                                                                                                                                       18          LOS MOLINOS                                       000223N00000000000000000000000000000000000000000000000000                                                                                                                                                           00000000000000000000000000000000000000000                                                                                                                                                                                                                                                          000000                                                                                                                                                                                                                                                                                                                                                              000000        
DA000002398500000089610016022222LEONARDA ANTONIA                                  SANDOVAL                                                                        C00103605531              19521216001FS000000000000000000000000000000                                                  PELONA                                                                                                                                                14          ALTOS DE CANCINO                                  000223N00000000000000000000000000000000000000000000000000                                                                                                                                                           00000000000000000000000000000000000000000                                                                                                                                                                                                                                                          000000                                                                                                                                                                                                                                                                                                                                                              000000        
DA000002121300000182130014420432ELSA MARIA                                        CASTILLO                                                                        C00113080980              19491120001FS000000000000000000000000000000                                                  9                                                                                                                                                     13          VILLA CARMEN                                      000223N00000000000000000000000000000000000000000000000000                                                                                                                                                           00000000000000000000000000000000000000000                                                                                                                                                                                                                                                          000000                                                                                                                                                                                                                                                                                                                                                              000000        
DA000002046100000157050001529377MARIA LUISA                                       FELIZ                                                                           C00108055310              19651231001FC000000000000000000000000000000                                                  CARR DE MANDINGA                                                                                                                                      134         MENDOZA                                           000223N00000000000000000000000000000000000000000000000000                                                                                                                                                           00000000000000000000000000000000000000000                                                                                                                                                                                                                                                          000000                                                                                                                                                                                                                                                                                                                                                              000000        
DA000002455600000700890017132051ELDA MATILDE                                      GARDEN                                                                          C00103806402              19480412001FS000000000000000000000000000000                                                  ROSA DUARTE                                                                                                                                           16          INVIVIENDA                                        000223N00000000000000000000000000000000000000000000000000                                                                                                                                                           00000000000000000000000000000000000000000                                                                                                                                                                                                                                                          000000                                                                                                                                                                                                                                                                                                                                                              000000        
DA000002168200001200840011936193NICACIO                                           PEA                                                                             C00103536496              19431214001MS000000000000000000000000000000                                                  E ESQ. E                                                                                                                                              6           LOS 3 BRAZOS                                      000223N00000000000000000000000000000000000000000000000000                                                                                                                                                           00000000000000000000000000000000000000000                                                                                                                                                                                                                                                          000000                                                                                                                                                                                                                                                                                                                                                              000000        
DA000001879800000105940016066348MARIA ELENA                                       PEGUERO                                                                         C00104715339              19530529001FS000000000000000000000000000000                                                  GABRIELA A. MORILLO                                                                                                                                   2           LOS MINA                                          000223N00000000000000000000000000000000000000000000000000                                                                                                                                                           00000000000000000000000000000000000000000                                                                                                                                                                                                                                                          000000                                                                                                                                                                                                                                                                                                                                                              000000        
DA000002172500000700330002519530JOSE NICOLAS                                      CHEVALIER                                                                       C00103720645              19470319001MS000000000000000000000000000000                                                  CHARLES DE GAULLE                                                                                                                                     N           URB JUAN PABLO DUARTE                             000223N00000000000000000000000000000000000000000000000000                                                                                                                                                           00000000000000000000000000000000000000000                                                                                                                                                                                                                                                          000000                                                                                                                                                                                                                                                                                                                                                              000000        
DA000002180000000695530017126728ISIDRO                                            DIAZ                                                                            C00102980786              19380510001MC000000000000000000000000000000                                                  CMONICA                                                                                                                                               18          LOS FRAILES I                                     000223N00000000000000000000000000000000000000000000000000                                                                                                                                                           00000000000000000000000000000000000000000                                                                                                                                                                                                                                                          000000                                                                                                                                                                                                                                                                                                                                                              000000        
DA000001563500000719420015191821FABRICIANA                                        HILARIO                                                                         C00107406464              19460115001FS000000000000000000000000000000                                                  SAN MIGUEL                                                                                                                                            26          LA CALETA                                         000226N00000000000000000000000000000000000000000000000000                                                                                                                                                           00000000000000000000000000000000000000000                                                                                                                                                                                                                                                          000000                                                                                                                                                                                                                                                                                                                                                              000000        
DA000002053700000429850011193750JUAN RAMON                                        DE LOS SANTOS                                                                   C00109143040              19260205001MC000000000000000000000000000000                                                  OTOQO                                                                                                                                                 11          VILLA FARO                                        000223N00000000000000000000000000000000000000000000000000                                                                                                                                                           00000000000000000000000000000000000000000                                                                                                                                                                                                                                                          000000                                                                                                                                                                                                                                                                                                                                                              000000        
DA000001851500000107520009862956JUANA FRANCISCA                                   FIGUEROA                                                                        C00104807706              19311128001FS000000000000000000000000000000                                                  CROSA DUARTE                                                                                                                                          160         LOS MINA CENTRO MATERNO                           000223N00000000000000000000000000000000000000000000000000                                                                                                                                                           00000000000000000000000000000000000000000                                                                                                                                                                                                                                                          000000                                                                                                                                                                                                                                                                                                                                                              000000        
DA000001868500000104150001301243ANA                                               DE LA CRUZ                                                                      C00104642467              19391118001FS000000000000000000000000000000                                                  MANZANA M                                                                                                                                             N           LAS ENFONMAVA                                     000223N00000000000000000000000000000000000000000000000000                                                                                                                                                           00000000000000000000000000000000000000000                                                                                                                                                                                                                                                          000000                                                                                                                                                                                                                                                                                                                                                              000000        
DA000002169600000087450016007938JUAN FRANCISCO                                    ALMONTE                                                                         C00103425682              19290110001MC000000000000000000000000000000                                                  ARCA DE NOE                                                                                                                                           33          INVIMOSA                                          000223N00000000000000000000000000000000000000000000000000                                                                                                                                                           00000000000000000000000000000000000000000                                                                                                                                                                                                                                                          000000                                                                                                                                                                                                                                                                                                                                                              000000        
DA000001843300001233830006666000OLGA CELESTE                                      ARIAS                                                                           C00104874367              19310905001FC000000000000000000000000000000                                                  VIOLETA                                                                                                                                               2           URB MARIA TRINIDAD SANCHEZ                        000223N00000000000000000000000000000000000000000000000000                                                                                                                                                           00000000000000000000000000000000000000000                                                                                                                                                                                                                                                          000000                                                                                                                                                                                                                                                                                                                                                              000000        
DA000001995600000130600006745654FELICIA                                           ACEVEDO                                                                         C00106285901              19590120001FS000000000000000000000000000000                                                  SABANETA                                                                                                                                              8           SAN LUIS                                          000223N00000000000000000000000000000000000000000000000000                                                                                                                                                           00000000000000000000000000000000000000000                                                                                                                                                                                                                                                          000000                                                                                                                                                                                                                                                                                                                                                              000000        
DA000002029700001009570002599931MILAGROS                                          SOLIS                                                                           C00108212143              19660825001FS000000000000000000000000000000                                                  D                                                                                                                                                     6           SOLNACIENDE                                       000223N00000000000000000000000000000000000000000000000000                                                                                                                                                           00000000000000000000000000000000000000000                                                                                                                                                                                                                                                          000000                                                                                                                                                                                                                                                                                                                                                              000000        
DA000002815400000485470016968580LUIS RODOLFO                                      BERGES                                                                          C00100374503              19430311001MC000000000000000000000000000000                                                  Z                                                                                                                                                     19          URB MI HOGAR                                      000223N00000000000000000000000000000000000000000000000000                                                                                                                                                           00000000000000000000000000000000000000000                                                                                                                                                                                                                                                          000000                                                                                                                                                                                                                                                                                                                                                              000000        
DA000001901400001000710011703258ALEJANDRINA                                       ANGULO                                                                          C00105726665              19370209001FS000000000000000000000000000000                                                  8 MANZANA U                                                                                                                                           19          ALMIRANTE                                         000223N00000000000000000000000000000000000000000000000000                                                                                                                                                           00000000000000000000000000000000000000000                                                                                                                                                                                                                                                          000000                                                                                                                                                                                                                                                                                                                                                              000000        
DA000002808400000014100010689842CRISTINA                                          GUANTE                                                                          C00100267426              19451215001FS000000000000000000000000000000                                                  MAZ E195                                                                                                                                              N           CANCINO                                           000223N00000000000000000000000000000000000000000000000000                                                                                                                                                           00000000000000000000000000000000000000000                                                                                                                                                                                                                                                          000000                                                                                                                                                                                                                                                                                                                                                              000000        
DA000002152900000102540005567941ANA MATILDE                                       FERNANDEZ                                                                       C00104548102              19440216001FC000000000000000000000000000000                                                  MAXIMO ARES GARCIA                                                                                                                                    17          ALMA ROSA I                                       000223N00000000000000000000000000000000000000000000000000                                                                                                                                                           00000000000000000000000000000000000000000                                                                                                                                                                                                                                                          000000                                                                                                                                                                                                                                                                                                                                                              000000        
DA000002204700000055430006452012CELIO ONDINO                                      SALAZAR                                                                         C00101585404              19431115001MS000000000000000000000000000000                                                  2DA1                                                                                                                                                  64          RALMA                                             000223N00000000000000000000000000000000000000000000000000                                                                                                                                                           00000000000000000000000000000000000000000                                                                                                                                                                                                                                                          000000                                                                                                                                                                                                                                                                                                                                                              000000        
DA000002946500000726460006263036RAMONA MARIBEL                                    ROSARIO                                                                         C00109858258              19690916001FS000000000000000000000000000000                                                  FERNANDEZ                                                                                                                                             94          RAMON MATIAS MELLA                                000223N00000000000000000000000000000000000000000000000000                                                                                                                                                           00000000000000000000000000000000000000000                                                                                                                                                                                                                                                          000000                                                                                                                                                                                                                                                                                                                                                              000000        
DA000002037800000544580014361446MARIA ALTAGRACIA                                  CASADO                                                                          C00108307240              19460110001FS000000000000000000000000000000                                                  FAUSTO S RODRIIGUEZ                                                                                                                                   26          LOOS FRAILES 2DDO                                 000223N00000000000000000000000000000000000000000000000000                                                                                                                                                           00000000000000000000000000000000000000000                                                                                                                                                                                                                                                          000000                                                                                                                                                                                                                                                                                                                                                              000000        
DA000000841800000359950047225900ROSA ALMIRA                                       ACOSTA                                                                          C06500000127              19420706001FC000000000000000000000000000000                                                  JUAN GOICO ALIX                                                                                                                                       32          ENS OZAMA                                         000223N00000000000000000000000000000000000000000000000000                                                                                                                                                           00000000000000000000000000000000000000000                                                                                                                                                                                                                                                          000000                                                                                                                                                                                                                                                                                                                                                              000000        
DA000002045000000823050003920092RAFAEL ANTONIO                                    SANCHEZ                                                                         C00108074568              19320927001MS000000000000000000000000000000                                                  MANZ 7                                                                                                                                                N           LOS FRAILES I                                     000223N00000000000000000000000000000000000000000000000000                                                                                                                                                           00000000000000000000000000000000000000000                                                                                                                                                                                                                                                          000000                                                                                                                                                                                                                                                                                                                                                              000000        
DA000000605500000384250051885177DOMINGA                                           BAUTISTA                                                                        C09300270882              19360820001FS000000000000000000000000000000                                                  14 DE JUNIO                                                                                                                                           09          SANJUAN DE LA MAGUANA                             000012N00000000000000000000000000000000000000000000000000                                                                                                                                                           00000000000000000000000000000000000000000                                                                                                                                                                                                                                                          000000                                                                                                                                                                                                                                                                                                                                                              000000        
DA000001545400000834780020409674JUAN RAMON                                        MEDRANO                                                                         C01000105112              19430531001MS000000000000000000000000000000                                                  MANUEL MORA                                                                                                                                           86          COLONIA ESPAOLA                                  000010N00000000000000000000000000000000000000000000000000                                                                                                                                                           00000000000000000000000000000000000000000                                                                                                                                                                                                                                                          000000                                                                                                                                                                                                                                                                                                                                                              000000        
DA000000622300000230520023170942JUAN ESTEBAN                                      ROSADO                                                                          C01200035895              19220624001MC000000000000000000000000000000                                                  JUAN PABLO                                                                                                                                            40          N                                                 000012N00000000000000000000000000000000000000000000000000                                                                                                                                                           00000000000000000000000000000000000000000                                                                                                                                                                                                                                                          000000                                                                                                                                                                                                                                                                                                                                                              000000        
DA000002763700000010220000005162CANDIDA ROSA                                      CARO                                                                            C00100150663              19290904001FS000000000000000000000000000000                                                  RESTAURACION                                                                                                                                          265         D.N                                               000001N00000000000000000000000000000000000000000000000000                                                                                                                                                           00000000000000000000000000000000000000000                                                                                                                                                                                                                                                          000000                                                                                                                                                                                                                                                                                                                                                              000000        
DA000002616800000042820005748928LUIS ARCENO                                       GONZALEZ                                                                        C00101212272              19470222001MC000000000000000000000000000000                                                  MANZ 4737                                                                                                                                             6           INVIVIENDA                                        000223N00000000000000000000000000000000000000000000000000                                                                                                                                                           00000000000000000000000000000000000000000                                                                                                                                                                                                                                                          000000                                                                                                                                                                                                                                                                                                                                                              000000        
DA000001486700000431320014237064RAFAEL VITELVO                                    LOPEZ                                                                           C00110205499              19400808001MS000000000000000000000000000000                                                  BARTOLOME OLEGARIO PEREZ                                                                                                                              44          URB ATALA                                         000001N00000000000000000000000000000000000000000000000000                                                                                                                                                           00000000000000000000000000000000000000000                                                                                                                                                                                                                                                          000000                                                                                                                                                                                                                                                                                                                                                              000000        
DA000001975400000817050016192816BONIFACIO                                         DE LA CRUZ                                                                      C00106424377              19320817001MS000000000000000000000000000000                                                  JUAN PABLO DUARTE                                                                                                                                     28          UREA                                             000223N00000000000000000000000000000000000000000000000000                                                                                                                                                           00000000000000000000000000000000000000000                                                                                                                                                                                                                                                          000000                                                                                                                                                                                                                                                                                                                                                              000000        
DA000002851200000184980016875547LUIS MANUEL                                       TERRERO                                                                         C00114256167              19340109001MC000000000000000000000000000000                                                  LOS EMBURGOS                                                                                                                                          7           JARDINES DEL NORTE                                000001N00000000000000000000000000000000000000000000000000                                                                                                                                                           00000000000000000000000000000000000000000                                                                                                                                                                                                                                                          000000                                                                                                                                                                                                                                                                                                                                                              000000        
DA000002311100000072670002451936INMACULADA CONCEPCION                             GUERRERO                                                                        C00102411873              19450107001FS000000000000000000000000000000                                                  SANCHEZ VALVERDE 3                                                                                                                                    3           LA UREA                                          000223N00000000000000000000000000000000000000000000000000                                                                                                                                                           00000000000000000000000000000000000000000                                                                                                                                                                                                                                                          000000                                                                                                                                                                                                                                                                                                                                                              000000        
DA000002356700000079340012666778ALEJO                                             ESPINO                                                                          C00102843216              19220303001MS000000000000000000000000000000                                                  SUMMES WELLES 91                                                                                                                                      91          VILLA SUSANA                                      000001N00000000000000000000000000000000000000000000000000                                                                                                                                                           00000000000000000000000000000000000000000                                                                                                                                                                                                                                                          000000                                                                                                                                                                                                                                                                                                                                                              000000        
DA000002352000000079070010372897ROSA JULIA                                        DEL ROSARIO                                                                     C00102817509              19420218001FC000000000000000000000000000000                                                  ALONZO DE ESPINOZA 83                                                                                                                                 83          D.N                                               000001N00000000000000000000000000000000000000000000000000                                                                                                                                                           00000000000000000000000000000000000000000                                                                                                                                                                                                                                                          000000                                                                                                                                                                                                                                                                                                                                                              000000        
DA000002169500000805480001244192JUAN CELINO                                       DEL                                                                             C00103421798              19490623001MS000000000000000000000000000000                                                  GUARIONEX                                                                                                                                             N           STO DGO ESTE                                      000223N00000000000000000000000000000000000000000000000000                                                                                                                                                           00000000000000000000000000000000000000000                                                                                                                                                                                                                                                          000000                                                                                                                                                                                                                                                                                                                                                              000000        
DA000002811900000013830010689341RAMON ANTONIO                                     SANABIA                                                                         C00100258698              19490903001MS000000000000000000000000000000                                                  CARACA 138                                                                                                                                            138         ZONA COLONIAL                                     000001N00000000000000000000000000000000000000000000000000                                                                                                                                                           00000000000000000000000000000000000000000                                                                                                                                                                                                                                                          000000                                                                                                                                                                                                                                                                                                                                                              000000        
DA000000836100000361010047749593SAMUEL                                            JOHNSON                                                                         C06500060386              19220630001MC000000000000000000000000000000                                                  VILLA CLARA                                                                                                                                           15          SANTA BARBARA DE SAMANA                           000065N00000000000000000000000000000000000000000000000000                                                                                                                                                           00000000000000000000000000000000000000000                                                                                                                                                                                                                                                          000000                                                                                                                                                                                                                                                                                                                                                              000000        
DA000003005600000152510004691263MARTINA FIDELIA                                   DE LOS SANTOS                                                                   C00107761876              19541111001FC000000000000000000000000000000                                                  MANZANA 92                                                                                                                                            2           PEDRO BRANS                                       000228N00000000000000000000000000000000000000000000000000                                                                                                                                                           00000000000000000000000000000000000000000                                                                                                                                                                                                                                                          000000                                                                                                                                                                                                                                                                                                                                                              000000        
DA000000973900000087330010871152MARIA CONSUELO                                    DEL                                                                             C00103416129              19420209001FS000000000000000000000000000000                                                  N                                                                                                                                                     N           D.N.                                              000001N00000000000000000000000000000000000000000000000000                                                                                                                                                           00000000000000000000000000000000000000000                                                                                                                                                                                                                                                          000000                                                                                                                                                                                                                                                                                                                                                              000000        
DA000003019100000718130004999240ROSALINA MERCEDES                                 RODRIGUEZ                                                                       C00107142093              19471123001FS000000000000000000000000000000                                                  N                                                                                                                                                     N           D.N                                               000001N00000000000000000000000000000000000000000000000000                                                                                                                                                           00000000000000000000000000000000000000000                                                                                                                                                                                                                                                          000000                                                                                                                                                                                                                                                                                                                                                              000000        
DA000003077200000222250019027163RAMONA ALTAGRACIA                                 GUERRERO                                                                        C00800002701              19460712001FC000000000000000000000000000000                                                  PALACIO DE LOS DEPORTE                                                                                                                                45          D.N.                                              000001N00000000000000000000000000000000000000000000000000                                                                                                                                                           00000000000000000000000000000000000000000                                                                                                                                                                                                                                                          000000                                                                                                                                                                                                                                                                                                                                                              000000        
S000071
