EPN52
DA000414524100000000000043376956LUISA AMERICA                                     JOSE                                                                            C05800051442              19570401036FS000000000000000000000000000000                                                  CALLEJON PRINCIPAL                                                                                                                                    1530        EL HIGUERO                                        000001N00000000000000000000000000000000000000000000000000                                                                                                                                                           00000000000000000000000000000000000000000                                                                                                                                                                                                                                                          000000                                                                                                                                                                                                                                                                                                                                                              000000        
DA000013256700000000000000000000ANA VIRGINIA                                      GALLARDO                                                                        C00100644186              19690215036FS000000000000000000000000000000                                                  CESAR NICOLAS PENSON                                                                                                                                  60          INDEPENDENCIA ( CIUDAD NUEVA Y GAZCUE )           000001N00000000000000000000000000000000000000000000000000                                                                                                                                                           00000000000000000000000000000000000000000                                                                                                                                                                                                                                                          000000                                                                                                                                                                                                                                                                                                                                                              000000        
DA000003843800001246860000000000REINA                                             GONZALEZ                                                                        C04400061851              19371008036FS000000000000000000000000000000                                                  MARTIN JUFFEMAN                                                                                                                                       5           COLONIA LA FE (BARRIO LA ESPERANZA)               000044N00000000000000000000000000000000000000000000000000                                                                                                                                                           00000000000000000000000000000000000000000                                                                                                                                                                                                                                                          000000                                                                                                                                                                                                                                                                                                                                                              000000        
DA000000065600000235650023773216HOMERO HORACIO                                    SUBERO                                                                          C01300039151              19221008036MS000000000000000000000000000000                                                  SN                                                                                                                                                    25          CENTRO DEL PUEBLO                                 000013N00000000000000000000000000000000000000000000000000                                                                                                                                                           00000000000000000000000000000000000000000                                                                                                                                                                                                                                                          000000                                                                                                                                                                                                                                                                                                                                                              000000        
DA000037387500000235650003469231FRANCISCO AUGUSTO                                 DURAN                                                                           C00100626308              19590909036MC000000000000000000000000000000                                                  C RETAURACION                                                                                                                                         145         ZONA URBANA HERRERA                               000224N00000000000000000000000000000000000000000000000000                                                                                                                                                           00000000000000000000000000000000000000000                                                                                                                                                                                                                                                          000000                                                                                                                                                                                                                                                                                                                                                              000000        
DA000002249800001229080015922721ANA MARIA                                         HERNANDEZ                                                                       C00101980654              19500928036FS000000000000000000000000000000                                                  LA MARINA                                                                                                                                             74          LA CIENAGA                                        000001N00000000000000000000000000000000000000000000000000                                                                                                                                                           00000000000000000000000000000000000000000                                                                                                                                                                                                                                                          000000                                                                                                                                                                                                                                                                                                                                                              000000        
DA000000005200000098180005938166RAMON ANTONIO                                     ALFONSECA                                                                       C00104130356              19301224036MS000000000000000000000000000000                                                  12                                                                                                                                                    17          CENTRO DE LA CIUDAD                               000001N00000000000000000000000000000000000000000000000000                                                                                                                                                           00000000000000000000000000000000000000000                                                                                                                                                                                                                                                          000000                                                                                                                                                                                                                                                                                                                                                              000000        
DA000000709800000384870051961013JOSE DOLORES                                      PEGUERO                                                                         C09300382703              19380408036MC000000000000000000000000000000                                                  JOSE GABRIEL GARCIA                                                                                                                                   16          CENTRO DE LA CIUDAD                               000001N00000000000000000000000000000000000000000000000000                                                                                                                                                           00000000000000000000000000000000000000000                                                                                                                                                                                                                                                          000000                                                                                                                                                                                                                                                                                                                                                              000000        
DA000002175800000083850009763844APOLINAR                                          DE LA CRUZ                                                                      C00103227781              19410815036MC000000000000000000000000000000                                                  MANZANA 3951A                                                                                                                                         5           SAVICA DE MENDOZA                                 000001N00000000000000000000000000000000000000000000000000                                                                                                                                                           00000000000000000000000000000000000000000                                                                                                                                                                                                                                                          000000                                                                                                                                                                                                                                                                                                                                                              000000        
DA000001804500000114880012790462MARIANELA                                         PELAEZ                                                                          C00105232151              19380903036FS000000000000000000000000000000                                                  C                                                                                                                                                     128         Ozama (Ens. Ozama Ens. Alma Rosa)                 000001N00000000000000000000000000000000000000000000000000                                                                                                                                                           00000000000000000000000000000000000000000                                                                                                                                                                                                                                                          000000                                                                                                                                                                                                                                                                                                                                                              000000        
DA000002209300000056140015876914BIENVENIDO                                        MICHEL                                                                          C00101606929              19200520036MC000000000000000000000000000000                                                  ENRIQUILLO                                                                                                                                            25A         ENRIQUILLO                                        000001N00000000000000000000000000000000000000000000000000                                                                                                                                                           00000000000000000000000000000000000000000                                                                                                                                                                                                                                                          000000                                                                                                                                                                                                                                                                                                                                                              000000        
DA000002025700001064450005067037ANGELA                                            VARGAS                                                                          C00108469735              19321115036FS000000000000000000000000000000                                                  C MIGUEL DIAZ                                                                                                                                         3           EL TAMARINDO                                      000001N00000000000000000000000000000000000000000000000000                                                                                                                                                           00000000000000000000000000000000000000000                                                                                                                                                                                                                                                          000000                                                                                                                                                                                                                                                                                                                                                              000000        
DA000002254800000063920011831786JUAN ANTONIO                                      HERNANDEZ                                                                       C00101935195              19260516036MC000000000000000000000000000000                                                  C                                                                                                                                                     78          LA FE                                             000001N00000000000000000000000000000000000000000000000000                                                                                                                                                           00000000000000000000000000000000000000000                                                                                                                                                                                                                                                          000000                                                                                                                                                                                                                                                                                                                                                              000000        
DA000001663900000085660004425116JULIO ARMANDO                                     DIAZ                                                                            C00103324695              19270107036MS000000000000000000000000000000                                                  C                                                                                                                                                     12          SABANA PERDIDA                                    000001N00000000000000000000000000000000000000000000000000                                                                                                                                                           00000000000000000000000000000000000000000                                                                                                                                                                                                                                                          000000                                                                                                                                                                                                                                                                                                                                                              000000        
DA000001740700000141110009496485JOSE ANTONIO                                      ANDERSON                                                                        C00107057259              19400827036MC000000000000000000000000000000                                                  12                                                                                                                                                    19          KILOMETRO 12 CARRETERA SANCHEZ                    000001N00000000000000000000000000000000000000000000000000                                                                                                                                                           00000000000000000000000000000000000000000                                                                                                                                                                                                                                                          000000                                                                                                                                                                                                                                                                                                                                                              000000        
DA000002054400000169360007985081RAMIRO                                            GARDEN                                                                          C00109118679              19430518036MS000000000000000000000000000000                                                  OCTAVIO MEJIA RICART                                                                                                                                  200         ALMA ROSA 1RA                                     000001N00000000000000000000000000000000000000000000000000                                                                                                                                                           00000000000000000000000000000000000000000                                                                                                                                                                                                                                                          000000                                                                                                                                                                                                                                                                                                                                                              000000        
DA000001961300000116830015278756MANUEL ANTONIO                                    MARTE                                                                           C00105307581              19340325036MC000000000000000000000000000000                                                  C                                                                                                                                                     02          SAVICA DE MENDOZA                                 000001N00000000000000000000000000000000000000000000000000                                                                                                                                                           00000000000000000000000000000000000000000                                                                                                                                                                                                                                                          000000                                                                                                                                                                                                                                                                                                                                                              000000        
DA000000140100000141980016911488EMILIO                                            SANTANA                                                                         C00107113607              19300506036MS000000000000000000000000000000                                                  CARR. VIEJA                                                                                                                                           35          SONADOR                                           000001N00000000000000000000000000000000000000000000000000                                                                                                                                                           00000000000000000000000000000000000000000                                                                                                                                                                                                                                                          000000                                                                                                                                                                                                                                                                                                                                                              000000        
DA000000933100000309150031893717RAMON                                             DIAZ                                                                            C03700239035              19270403036MS000000000000000000000000000000                                                  SANCHEZ                                                                                                                                               28          CENTRO DE LA CIUDAD                               000001N00000000000000000000000000000000000000000000000000                                                                                                                                                           00000000000000000000000000000000000000000                                                                                                                                                                                                                                                          000000                                                                                                                                                                                                                                                                                                                                                              000000        
DA000002514400000047580010297642FRANCISCO AUGUSTO                                 BELTRE                                                                          C00101378412              19451004036MC000000000000000000000000000000                                                  C                                                                                                                                                                 HONDURAS DEL OESTE                                000001N00000000000000000000000000000000000000000000000000                                                                                                                                                           00000000000000000000000000000000000000000                                                                                                                                                                                                                                                          000000                                                                                                                                                                                                                                                                                                                                                              000000        
DA000001792500000112740002401710ELOY MARIA                                        BAEZ                                                                            C00105148639              19440327036MS000000000000000000000000000000                                                  C                                                                                                                                                                 RAMON MATIAS MELLA ( SAN LORENZO DE LOS MINAS )   000001N00000000000000000000000000000000000000000000000000                                                                                                                                                           00000000000000000000000000000000000000000                                                                                                                                                                                                                                                          000000                                                                                                                                                                                                                                                                                                                                                              000000        
DA000002359300000508730015968801JUAN                                              JIMENEZ                                                                         C00103104600              19370915036MC000000000000000000000000000000                                                  SAN JUAN DE LA MAGUANA                                                                                                                                11          JUAN PABLO DUARTE                                 000001N00000000000000000000000000000000000000000000000000                                                                                                                                                           00000000000000000000000000000000000000000                                                                                                                                                                                                                                                          000000                                                                                                                                                                                                                                                                                                                                                              000000        
DA000001864500000103180010917587LUIS AUGUSTO                                      MEJIA                                                                           C00104585922              19400402036MC000000000000000000000000000000                                                  C CENTRAL                                                                                                                                             64          LOS MINA NUEVO                                    000001N00000000000000000000000000000000000000000000000000                                                                                                                                                           00000000000000000000000000000000000000000                                                                                                                                                                                                                                                          000000                                                                                                                                                                                                                                                                                                                                                              000000        
DA000000224800000462140033331574OSVALDO NICANOR                                   SAINT                                                                           C03100297310              19410310036MC000000000000000000000000000000                                                  SAN IGNACIO                                                                                                                                           27          CENTRO DE LA CIUDAD                               000001N00000000000000000000000000000000000000000000000000                                                                                                                                                           00000000000000000000000000000000000000000                                                                                                                                                                                                                                                          000000                                                                                                                                                                                                                                                                                                                                                              000000        
DA000000391700000287250030557628NOEL ARISTIDES                                    GOMEZ                                                                           C03101029555              19251006036MS000000000000000000000000000000                                                  RESTAURACION                                                                                                                                          13          LOS PEPINES                                       000001N00000000000000000000000000000000000000000000000000                                                                                                                                                           00000000000000000000000000000000000000000                                                                                                                                                                                                                                                          000000                                                                                                                                                                                                                                                                                                                                                              000000        
DA000000698000000383560051940743CESAR SALVADOR                                    VALDEZ                                                                          C09300226132              19410208036MS000000000000000000000000000000                                                  C                                                                                                                                                     72          VILLA PENCA                                       000001N00000000000000000000000000000000000000000000000000                                                                                                                                                           00000000000000000000000000000000000000000                                                                                                                                                                                                                                                          000000                                                                                                                                                                                                                                                                                                                                                              000000        
DA000002536500000686700017060292ROSA                                              MONTERO                                                                         C00101294064              19511121036FS000000000000000000000000000000                                                  C                                                                                                                                                     7           SAN GABRIEL                                       000001N00000000000000000000000000000000000000000000000000                                                                                                                                                           00000000000000000000000000000000000000000                                                                                                                                                                                                                                                          000000                                                                                                                                                                                                                                                                                                                                                              000000        
DA000002293700000068780011862838TEODORO                                           REYNOSO                                                                         C00102194602              19430428036MS000000000000000000000000000000                                                  RAFAEL J. CASTILLO                                                                                                                                    150         LAS FLORES ( ENS. LA FE CRISTO REY Y ARROYO HONDO 000001N00000000000000000000000000000000000000000000000000                                                                                                                                                           00000000000000000000000000000000000000000                                                                                                                                                                                                                                                          000000                                                                                                                                                                                                                                                                                                                                                              000000        
DA000001045500000367920048787870RAMON                                             REYNOSO                                                                         C07100032700              19330902036MS000000000000000000000000000000                                                  RENE MARTE                                                                                                                                            50          CENTRO DE LA CIUDAD                               000001N00000000000000000000000000000000000000000000000000                                                                                                                                                           00000000000000000000000000000000000000000                                                                                                                                                                                                                                                          000000                                                                                                                                                                                                                                                                                                                                                              000000        
DA000000655000000365230047839278JOSE                                              LOPEZ                                                                           C06800059229              19350920036MS000000000000000000000000000000                                                  C                                                                                                                                                     18          NANDITA (DUARTE)                                  000001N00000000000000000000000000000000000000000000000000                                                                                                                                                           00000000000000000000000000000000000000000                                                                                                                                                                                                                                                          000000                                                                                                                                                                                                                                                                                                                                                              000000        
DA000002768300000010180006795887JULIAN                                            RAMIREZ                                                                         C00100148956              19380119036MC000000000000000000000000000000                                                  MEXICO                                                                                                                                                N           SAN CARLO                                         000001N00000000000000000000000000000000000000000000000000                                                                                                                                                           00000000000000000000000000000000000000000                                                                                                                                                                                                                                                          000000                                                                                                                                                                                                                                                                                                                                                              000000        
DA000002518500000047700005769845JOSE ALBERTO                                      DE JEAN                                                                         C00101381432              19300501036MS000000000000000000000000000000                                                  CENTRAL                                                                                                                                               02          LA MARGARITA                                      000001N00000000000000000000000000000000000000000000000000                                                                                                                                                           00000000000000000000000000000000000000000                                                                                                                                                                                                                                                          000000                                                                                                                                                                                                                                                                                                                                                              000000        
DA000000914500000308090031876844RAFAEL                                            SANTANA                                                                         C03700134822              19350830036MC000000000000000000000000000000                                                  C                                                                                                                                                     19          INVI                                              000001N00000000000000000000000000000000000000000000000000                                                                                                                                                           00000000000000000000000000000000000000000                                                                                                                                                                                                                                                          000000                                                                                                                                                                                                                                                                                                                                                              000000        
DA000001897800000123470015325797MATILDE                                           MEJIA                                                                           C00105705859              19400715036FC000000000000000000000000000000                                                  CALLE 8 ENS. LAS AMERICAS                                                                                                                             N           ALMA ROSA                                         000001N00000000000000000000000000000000000000000000000000                                                                                                                                                           00000000000000000000000000000000000000000                                                                                                                                                                                                                                                          000000                                                                                                                                                                                                                                                                                                                                                              000000        
DA000002620300000041540011404416GLORIA MARIA                                      TAVERAS                                                                         C00101168417              19321120036FS000000000000000000000000000000                                                  AV.RESP.DE ECUADOR                                                                                                                                    N           HONDURAS                                          000001N00000000000000000000000000000000000000000000000000                                                                                                                                                           00000000000000000000000000000000000000000                                                                                                                                                                                                                                                          000000                                                                                                                                                                                                                                                                                                                                                              000000        
DA000001633300000168620001743544ELISEO                                            HERNANDEZ                                                                       C00109030874              19421130036MS000000000000000000000000000000                                                  HERMANAS MIRABAL                                                                                                                                      16          LOS CERROS DE SABANA PERDIDA                      000001N00000000000000000000000000000000000000000000000000                                                                                                                                                           00000000000000000000000000000000000000000                                                                                                                                                                                                                                                          000000                                                                                                                                                                                                                                                                                                                                                              000000        
DA000002965100000169880013320684MARIO                                             VERAS                                                                           C00109176834              19420829036MS000000000000000000000000000000                                                  AV. JARDINES DE VERSALLES                                                                                                                             N           JARDINES DE GALA                                  000001N00000000000000000000000000000000000000000000000000                                                                                                                                                           00000000000000000000000000000000000000000                                                                                                                                                                                                                                                          000000                                                                                                                                                                                                                                                                                                                                                              000000        
DA000002178700000085960010861618YSRAEL                                            CASTILLO                                                                        C00103336202              19350411036MC000000000000000000000000000000                                                  ACAPULCO                                                                                                                                              N           KATANGA                                           000001N00000000000000000000000000000000000000000000000000                                                                                                                                                           00000000000000000000000000000000000000000                                                                                                                                                                                                                                                          000000                                                                                                                                                                                                                                                                                                                                                              000000        
DA000001359000000351320043308191FRANCISCO                                         OLIVO                                                                           C05600262389              19421014036MC000000000000000000000000000000                                                  N                                                                                                                                                     N           LOS RIELES                                        000001N00000000000000000000000000000000000000000000000000                                                                                                                                                           00000000000000000000000000000000000000000                                                                                                                                                                                                                                                          000000                                                                                                                                                                                                                                                                                                                                                              000000        
DA000002952700000165910007355904MIGUEL ANDRES                                     MUSTAFA                                                                         C00108801853              19370123036MC000000000000000000000000000000                                                  CARLOS HERNANDEZ                                                                                                                                      11          SAN GERONIMO ( ENS. QUISQUEYA LOS PRADOS Y ENS.   000001N00000000000000000000000000000000000000000000000000                                                                                                                                                           00000000000000000000000000000000000000000                                                                                                                                                                                                                                                          000000                                                                                                                                                                                                                                                                                                                                                              000000        
DA000000663700000211070021340301MARTIN                                            MARTINEZ                                                                        C00200415958              19411111036MS000000000000000000000000000000                                                  CARRETERA SANCHEZ KM 23                                                                                                                               170         NIGUA                                             000001N00000000000000000000000000000000000000000000000000                                                                                                                                                           00000000000000000000000000000000000000000                                                                                                                                                                                                                                                          000000                                                                                                                                                                                                                                                                                                                                                              000000        
DA000002003800001007430017258277PAULINA                                           CALCADO                                                                         C00107387318              19230125036FC000000000000000000000000000000                                                  MANZANA A                                                                                                                                             N           LOS TRINITARIOS                                   000001N00000000000000000000000000000000000000000000000000                                                                                                                                                           00000000000000000000000000000000000000000                                                                                                                                                                                                                                                          000000                                                                                                                                                                                                                                                                                                                                                              000000        
DA000001703900000541670014315002DAVID                                             CORREA                                                                          C00107834657              19421203036MS000000000000000000000000000000                                                  C                                                                                                                                                     10A         ENRIQUILLO                                        000001N00000000000000000000000000000000000000000000000000                                                                                                                                                           00000000000000000000000000000000000000000                                                                                                                                                                                                                                                          000000                                                                                                                                                                                                                                                                                                                                                              000000        
DA000001015900001068180050977104EPIFANIA DE LOS                                   SANTOS                                                                          C08100009680              19490105036FS000000000000000000000000000000                                                  27 DE FEBRERO                                                                                                                                         6           CENTRO DE LA CIUDAD                               000001N00000000000000000000000000000000000000000000000000                                                                                                                                                           00000000000000000000000000000000000000000                                                                                                                                                                                                                                                          000000                                                                                                                                                                                                                                                                                                                                                              000000        
DA000001947000001229660015024104GERTRUDIS                                         DE LEON                                                                         C00105319164              19481117036FC000000000000000000000000000000                                                  TIERRA                                                                                                                                                24          LOS TRES OJOS                                     000001N00000000000000000000000000000000000000000000000000                                                                                                                                                           00000000000000000000000000000000000000000                                                                                                                                                                                                                                                          000000                                                                                                                                                                                                                                                                                                                                                              000000        
DA000047485000001229660000000000PERFECTA                                          ALMENGOT                                                                        C03102372848              19610715036FC000000000000000000000000000000                                                  N                                                                                                                                                     N           LOS REYES                                         000001N00000000000000000000000000000000000000000000000000                                                                                                                                                           00000000000000000000000000000000000000000                                                                                                                                                                                                                                                          000000                                                                                                                                                                                                                                                                                                                                                              000000        
DA000041869700001229660051071994JULIANA                                           MORENO                                                                          C09000072539              19330211036FS000000000000000000000000000000                                                  NA                                                                                                                                                    20          CENTRO DE LA CIUDAD                               000001N00000000000000000000000000000000000000000000000000                                                                                                                                                           00000000000000000000000000000000000000000                                                                                                                                                                                                                                                          000000                                                                                                                                                                                                                                                                                                                                                              000000        
DA000003527300000058510012868478VIRGILIO ANTONIO                                  FELIZ                                                                           C00101692218              19291114036MC000000000000000000000000000000                                                  27 DE FEBRERO                                                                                                                                         337         EVARISTO MORALES                                  000001N00000000000000000000000000000000000000000000000000                                                                                                                                                           00000000000000000000000000000000000000000                                                                                                                                                                                                                                                          000000                                                                                                                                                                                                                                                                                                                                                              000000        
DA000001865600000103370009838125CESAR AUGUSTO                                     ROMERO                                                                          C00104596937              19310822036MC000000000000000000000000000000                                                  DR.ALEJANDRO LLENAS 82                                                                                                                                82          LOS NIMAS                                         000223N00000000000000000000000000000000000000000000000000                                                                                                                                                           00000000000000000000000000000000000000000                                                                                                                                                                                                                                                          000000                                                                                                                                                                                                                                                                                                                                                              000000        
DA000003728200001244290000000000ZENAIDA                                           CONTRERAS                                                                       C00101772010              19411112036FS000000000000000000000000000000                                                  DR. DEFILLO 224                                                                                                                                       224         LOS PRADOS                                        000001N00000000000000000000000000000000000000000000000000                                                                                                                                                           00000000000000000000000000000000000000000                                                                                                                                                                                                                                                          000000                                                                                                                                                                                                                                                                                                                                                              000000        
DA000003703900000519220013071748JORGE ANTONIO                                     MOTA                                                                            C00104870993              19551022036MC000000000000000000000000000000                                                  PICO DUARTE                                                                                                                                           12          ARROYO HONDO III                                  000001N00000000000000000000000000000000000000000000000000                                                                                                                                                           00000000000000000000000000000000000000000                                                                                                                                                                                                                                                          000000                                                                                                                                                                                                                                                                                                                                                              000000        
DA000002671500000031660005714978YSIDRO                                            VALERA                                                                          C00100933886              19270515036MS000000000000000000000000000000                                                  JUAN ALEJANDRO IBARRA                                                                                                                                 46          ENSANCHE KENEDY                                   000001N00000000000000000000000000000000000000000000000000                                                                                                                                                           00000000000000000000000000000000000000000                                                                                                                                                                                                                                                          000000                                                                                                                                                                                                                                                                                                                                                              000000        
DA000002827900000017310006423948AGUSTIN                                           PUELLO                                                                          C00100425941              19380925036MS000000000000000000000000000000                                                  CARACAAS                                                                                                                                              42          VILLA FRANCISCA                                   000001N00000000000000000000000000000000000000000000000000                                                                                                                                                           00000000000000000000000000000000000000000                                                                                                                                                                                                                                                          000000                                                                                                                                                                                                                                                                                                                                                              000000        
DA000001690900000181540016780354GUILLERMO                                         ROSARIO                                                                         C00112767074              19550712036MS000000000000000000000000000000                                                  CENTRAL                                                                                                                                               40          PANTOJAS                                          000224N00000000000000000000000000000000000000000000000000                                                                                                                                                           00000000000000000000000000000000000000000                                                                                                                                                                                                                                                          000000                                                                                                                                                                                                                                                                                                                                                              000000        
DA000001946200000117130015279364MARIA JOSEFINA                                    BAEZ                                                                            C00105318273              19380722036FC000000000000000000000000000000                                                  J                                                                                                                                                     21          RALMA DE MENDOZA                                  000223N00000000000000000000000000000000000000000000000000                                                                                                                                                           00000000000000000000000000000000000000000                                                                                                                                                                                                                                                          000000                                                                                                                                                                                                                                                                                                                                                              000000        
DA000002614300000042180013687783MATILDE ALTAGRACIA                                HERNANDEZ                                                                       C00101190429              19370314036FC000000000000000000000000000000                                                  AV. SARASOTA                                                                                                                                          SN          SN                                                000001N00000000000000000000000000000000000000000000000000                                                                                                                                                           00000000000000000000000000000000000000000                                                                                                                                                                                                                                                          000000                                                                                                                                                                                                                                                                                                                                                              000000        
DA000003780500001277500000000000ELUPINA                                           ABREU                                                                           C00108053109              19530904036FC000000000000000000000000000000                                                  7                                                                                                                                                     51          VILLA FARO                                        000223N00000000000000000000000000000000000000000000000000                                                                                                                                                           00000000000000000000000000000000000000000                                                                                                                                                                                                                                                          000000                                                                                                                                                                                                                                                                                                                                                              000000        
DA000002316500000073360006950890JUANITA LIDIA                                     GUERRERO                                                                        C00102449089              19290507036FS000000000000000000000000000000                                                  LUIS DEL CASTILLO                                                                                                                                     4           VILLA CONSUELO                                    000001N00000000000000000000000000000000000000000000000000                                                                                                                                                           00000000000000000000000000000000000000000                                                                                                                                                                                                                                                          000000                                                                                                                                                                                                                                                                                                                                                              000000        
DA000003556600000401840000122523PORFIRIO ANTONIO                                  ARIAS                                                                           C00101368926              19611017036MS000000000000000000000000000000                                                  CENTRAL                                                                                                                                               61 ALTOS    INVI                                              000001N00000000000000000000000000000000000000000000000000                                                                                                                                                           00000000000000000000000000000000000000000                                                                                                                                                                                                                                                          000000                                                                                                                                                                                                                                                                                                                                                              000000        
DA000001373200000350570046310587MARIA NATIVIDAD                                   GARCIA                                                                          C05600200637              19250520036FC000000000000000000000000000000                                                  DUVERGE                                                                                                                                               64          EL CAPACITO                                       000056N00000000000000000000000000000000000000000000000000                                                                                                                                                           00000000000000000000000000000000000000000                                                                                                                                                                                                                                                          000000                                                                                                                                                                                                                                                                                                                                                              000000        
DA000001345200000353620043618435MARIA                                             HERNANDEZ                                                                       C05600742844              19540205036FC000000000000000000000000000000                                                  2                                                                                                                                                     SN          LOS RIELES                                        000056N00000000000000000000000000000000000000000000000000                                                                                                                                                           00000000000000000000000000000000000000000                                                                                                                                                                                                                                                          000000                                                                                                                                                                                                                                                                                                                                                              000000        
DA000003888200001246690000000000MATILDE ALT                                       DARGAM                                                                          C00100677434              19471008036FS000000000000000000000000000000                                                  JUAN ISIDRO JIMENEZ 10                                                                                                                                10          GAZCUE                                            000001N00000000000000000000000000000000000000000000000000                                                                                                                                                           00000000000000000000000000000000000000000                                                                                                                                                                                                                                                          000000                                                                                                                                                                                                                                                                                                                                                              000000        
DA000003033000000145580014073938ANA MINELLY                                       DE LA CRUZ                                                                      C00107300824              19471110036FS000000000000000000000000000000                                                  OSA MENOR                                                                                                                                             21          CONTELACION                                       000001N00000000000000000000000000000000000000000000000000                                                                                                                                                           00000000000000000000000000000000000000000                                                                                                                                                                                                                                                          000000                                                                                                                                                                                                                                                                                                                                                              000000        
DA000002670400000031620014777447MERCEDES LIDIA                                    ORTIZ                                                                           C00100931880              19370919036FC000000000000000000000000000000                                                  AV. SAN MARTIN                                                                                                                                        280         ENS. KENNEDY                                      000001N00000000000000000000000000000000000000000000000000                                                                                                                                                           00000000000000000000000000000000000000000                                                                                                                                                                                                                                                          000000                                                                                                                                                                                                                                                                                                                                                              000000        
DA000003303500000264590029620006ALBERTO ANTONIO                                   PAULINO                                                                         C02500002742              19430917036MC000000000000000000000000000000                                                  LAS CARRERAS ESQ, LIBERTAD                                                                                                                            02          SAN JOSE                                          000028N00000000000000000000000000000000000000000000000000                                                                                                                                                           00000000000000000000000000000000000000000                                                                                                                                                                                                                                                          000000                                                                                                                                                                                                                                                                                                                                                              000000        
DA000002475400000099320015236660MARIA DEL CARMEN                                  RODRIGUEZ                                                                       C00104223532              19420619036FS000000000000000000000000000000                                                  18                                                                                                                                                    11          LA ESPERANZA                                      000223N00000000000000000000000000000000000000000000000000                                                                                                                                                           00000000000000000000000000000000000000000                                                                                                                                                                                                                                                          000000                                                                                                                                                                                                                                                                                                                                                              000000        
DA000002537200000796350013700457DORIS TERESA                                      SUAZO                                                                           C00101304087              19551002036FS000000000000000000000000000000                                                  C ESQ, D                                                                                                                                              101         JULIETA MORALES                                   000001N00000000000000000000000000000000000000000000000000                                                                                                                                                           00000000000000000000000000000000000000000                                                                                                                                                                                                                                                          000000                                                                                                                                                                                                                                                                                                                                                              000000        
DA000003838700001244750000000000MONICA ANTONIA                                    PEREZ                                                                           C03102446295              19500504036FC000000000000000000000000000000                                                  9                                                                                                                                                     2A          LAS CHARCAS                                       000031N00000000000000000000000000000000000000000000000000                                                                                                                                                           00000000000000000000000000000000000000000                                                                                                                                                                                                                                                          000000                                                                                                                                                                                                                                                                                                                                                              000000        
DA000000314700000865730036930775FRANCISCO FERNANDO                                FORTUNA                                                                         C03100531593              19500622036MS000000000000000000000000000000                                                  RESTAURACION                                                                                                                                          97          SN                                                000031N00000000000000000000000000000000000000000000000000                                                                                                                                                           00000000000000000000000000000000000000000                                                                                                                                                                                                                                                          000000                                                                                                                                                                                                                                                                                                                                                              000000        
DA000000924900000309570036493933ESTEBAN                                           GARCIA                                                                          C03700267077              19320401036MS000000000000000000000000000000                                                  2                                                                                                                                                     4           LOS MAESTROS                                      000037N00000000000000000000000000000000000000000000000000                                                                                                                                                           00000000000000000000000000000000000000000                                                                                                                                                                                                                                                          000000                                                                                                                                                                                                                                                                                                                                                              000000        
DA000000411600000291940031919980PRAXEDES FRANCISCO                                LUCIANO                                                                         C03101415077              19630521036MC000000000000000000000000000000                                                  AUT. DUARTE                                                                                                                                           4           SN                                                000031N00000000000000000000000000000000000000000000000000                                                                                                                                                           00000000000000000000000000000000000000000                                                                                                                                                                                                                                                          000000                                                                                                                                                                                                                                                                                                                                                              000000        
DA000000606300000232680024791817MERCEDES ALTAGRACIA                               SANCHEZ                                                                         C01200123279              19640525036FC000000000000000000000000000000                                                  CIRCUNVALACION ESTE                                                                                                                                   SN          SN                                                000012N00000000000000000000000000000000000000000000000000                                                                                                                                                           00000000000000000000000000000000000000000                                                                                                                                                                                                                                                          000000                                                                                                                                                                                                                                                                                                                                                              000000        
DA000000592800000229080022385037ANA LUISA                                         MONTERO                                                                         C01100047669              19310621036FC000000000000000000000000000000                                                  27 DE FEBRERO                                                                                                                                         SN          SN                                                000011N00000000000000000000000000000000000000000000000000                                                                                                                                                           00000000000000000000000000000000000000000                                                                                                                                                                                                                                                          000000                                                                                                                                                                                                                                                                                                                                                              000000        
