EPN52
DA000000318300000282580034896127ALBERTO                                           ULLOA                                                                           C03100603210              19430805001MS000000000000000000000000000000                                                  AUT TAMBORIL                                                                                                                                          411         SAN LORENZO                                       000001N00000000000000000000000000000000000000000000000000                                                                                                                                                           00000000000000000000000000000000000000000                                                                                                                                                                                                                                                          000000                                                                                                                                                                                                                                                                                                                                                              000000        
DA000001743200001005930012900498DIGNORA                                           CUEVAS                                                                          C00106874142              19531129001FS000000000000000000000000000000                                                  RAMON SANTANA                                                                                                                                         26          BUENOS AIRE DE HARRERA                            000224N00000000000000000000000000000000000000000000000000                                                                                                                                                           00000000000000000000000000000000000000000                                                                                                                                                                                                                                                          000000                                                                                                                                                                                                                                                                                                                                                              000000        
DA000003333600000739040020687300RAFAEL                                            PINEDA                                                                          C01000409837              19340110001MS000000000000000000000000000000                                                  BRISAS DEL MAR                                                                                                                                        16          PROYECTO 4                                        000010N00000000000000000000000000000000000000000000000000                                                                                                                                                           00000000000000000000000000000000000000000                                                                                                                                                                                                                                                          000000                                                                                                                                                                                                                                                                                                                                                              000000        
DA000003700700000717120002694057RAMIRO                                            MARTE                                                                           C00106785728              19560425001MS000000000000000000000000000000                                                  KM7 CARSANCHEZ                                                                                                                                        S N         SAN JOSE                                          000001N00000000000000000000000000000000000000000000000000                                                                                                                                                           00000000000000000000000000000000000000000                                                                                                                                                                                                                                                          000000                                                                                                                                                                                                                                                                                                                                                              000000        
DA000002117700000729250004238203NEREYDA                                           VICIOSO                                                                         C00113599617              19460116001FS000000000000000000000000000000                                                  AVE SAN CRISTOBAL ESQ TIRADENTES                                                                                                                      S N         LA FE                                             000001N00000000000000000000000000000000000000000000000000                                                                                                                                                           00000000000000000000000000000000000000000                                                                                                                                                                                                                                                          000000                                                                                                                                                                                                                                                                                                                                                              000000        
DA000002036000000160950009564010TERESA DE JESUS                                   VILLALONA                                                                       C00108406232              19271015001FS000000000000000000000000000000                                                  10                                                                                                                                                                ESTE                                              000223N00000000000000000000000000000000000000000000000000                                                                                                                                                           00000000000000000000000000000000000000000                                                                                                                                                                                                                                                          000000                                                                                                                                                                                                                                                                                                                                                              000000        
DA000003209700000476610050909710JULIO ERNESTO                                     BAEZ                                                                            C08200006123              19551128001MS000000000000000000000000000000                                                  PALENQUE                                                                                                                                              01          N                                                 000083N00000000000000000000000000000000000000000000000000                                                                                                                                                           00000000000000000000000000000000000000000                                                                                                                                                                                                                                                          000000                                                                                                                                                                                                                                                                                                                                                              000000        
DA000002775100000482640000009380URSULA                                            DURAN                                                                           C00100084466              19420412001FS000000000000000000000000000000                                                  8                                                                                                                                                     2B          FARO A COLÓN                                      000223N00000000000000000000000000000000000000000000000000                                                                                                                                                           00000000000000000000000000000000000000000                                                                                                                                                                                                                                                          000000                                                                                                                                                                                                                                                                                                                                                              000000        
DA000001522800000235710022430062LUIS ARCEDO                                       MELO                                                                            C01300047030              19471127001MS000000000000000000000000000000                                                  MANUEL MORA                                                                                                                                           38          MEJORAMIENTO SOCIAL                               000001N00000000000000000000000000000000000000000000000000                                                                                                                                                           00000000000000000000000000000000000000000                                                                                                                                                                                                                                                          000000                                                                                                                                                                                                                                                                                                                                                              000000        
DA000001983900000132250003804195LUIS IGNACIO                                      CORTORREAL                                                                      C00106344526              19590101001MS000000000000000000000000000000                                                  N                                                                                                                                                     02          N                                                 000001N00000000000000000000000000000000000000000000000000                                                                                                                                                           00000000000000000000000000000000000000000                                                                                                                                                                                                                                                          000000                                                                                                                                                                                                                                                                                                                                                              000000        
DA000002710100000018630010707685RAMONDARIO                                        CARRASCOCUEVA                                                                   C00100496660              19480413001MS000000000000000000000000000000                                                  N                                                                                                                                                     5           N                                                 000001N00000000000000000000000000000000000000000000000000                                                                                                                                                           00000000000000000000000000000000000000000                                                                                                                                                                                                                                                          000000                                                                                                                                                                                                                                                                                                                                                              000000        
DA000001544500000738360019073705PEDRO AUGUSTO                                     PEREZ                                                                           C01000101046              19440627001MS000000000000000000000000000000                                                  N                                                                                                                                                     130         N                                                 000001N00000000000000000000000000000000000000000000000000                                                                                                                                                           00000000000000000000000000000000000000000                                                                                                                                                                                                                                                          000000                                                                                                                                                                                                                                                                                                                                                              000000        
DA000001842200000108550002365532BIENVENIDO DE JESUS                               SANTOS                                                                          C00104865035              19471130001MC000000000000000000000000000000                                                  ORTIZ ALVARES                                                                                                                                         83          LOS MINAS                                         000001N00000000000000000000000000000000000000000000000000                                                                                                                                                           00000000000000000000000000000000000000000                                                                                                                                                                                                                                                          000000                                                                                                                                                                                                                                                                                                                                                              000000        
DA000001703500000153630016270102ISIDRO                                            ORTEGA                                                                          C00107829798              19340509001MS000000000000000000000000000000                                                  LIBERTAD                                                                                                                                              6           N                                                 000001N00000000000000000000000000000000000000000000000000                                                                                                                                                           00000000000000000000000000000000000000000                                                                                                                                                                                                                                                          000000                                                                                                                                                                                                                                                                                                                                                              000000        
DA000002121700000017670005363997ALEJANDRO                                         DIAZ                                                                            C00100450667              19521024001MS000000000000000000000000000000                                                  N                                                                                                                                                     25          N                                                 000001N00000000000000000000000000000000000000000000000000                                                                                                                                                           00000000000000000000000000000000000000000                                                                                                                                                                                                                                                          000000                                                                                                                                                                                                                                                                                                                                                              000000        
DA000001834300000520730004552558ALEJO                                             LORENZO                                                                         C00105113203              19430815001MC000000000000000000000000000000                                                  N                                                                                                                                                     62          N                                                 000001N00000000000000000000000000000000000000000000000000                                                                                                                                                           00000000000000000000000000000000000000000                                                                                                                                                                                                                                                          000000                                                                                                                                                                                                                                                                                                                                                              000000        
DA000002037100000160260017269790ROQUE ODALIS                                      ALMONTE                                                                         C00108341488              19570920001MS000000000000000000000000000000                                                  MAZ 23                                                                                                                                                5           N                                                 000001N00000000000000000000000000000000000000000000000000                                                                                                                                                           00000000000000000000000000000000000000000                                                                                                                                                                                                                                                          000000                                                                                                                                                                                                                                                                                                                                                              000000        
DA000000547100000261290029549497YLUMINADA                                         SANTANA                                                                         C02300595697              19591129001FS000000000000000000000000000000                                                  LUIS FELIPE DE ALZA                                                                                                                                   7           BUENOS AIRES DE HERRERA                           000001N00000000000000000000000000000000000000000000000000                                                                                                                                                           00000000000000000000000000000000000000000                                                                                                                                                                                                                                                          000000                                                                                                                                                                                                                                                                                                                                                              000000        
DA000001539100000225090021144921LUZ CONSUELO                                      ORTIZ                                                                           C01000065894              19370628001FC000000000000000000000000000000                                                  AV SERGIO VILCHEZ                                                                                                                                     80          N                                                 000001N00000000000000000000000000000000000000000000000000                                                                                                                                                           00000000000000000000000000000000000000000                                                                                                                                                                                                                                                          000000                                                                                                                                                                                                                                                                                                                                                              000000        
DA000002373600000508400011872154RAFAEL BIENVENIDO                                 LORA                                                                            C00103014304              19550112001MS000000000000000000000000000000                                                  J                                                                                                                                                     2           VILLA CARMEN                                      000001N00000000000000000000000000000000000000000000000000                                                                                                                                                           00000000000000000000000000000000000000000                                                                                                                                                                                                                                                          000000                                                                                                                                                                                                                                                                                                                                                              000000        
DA000001542300000226280019887041LUISA RAFAELA                                     CAMINERO                                                                        C01000141745              19501023001FS000000000000000000000000000000                                                  FCO SOQE                                                                                                                                              21          MEJORAMIENTO SOCIAL                               000001N00000000000000000000000000000000000000000000000000                                                                                                                                                           00000000000000000000000000000000000000000                                                                                                                                                                                                                                                          000000                                                                                                                                                                                                                                                                                                                                                              000000        
DA000001887000000124320012860527MARGARITA                                         MEDINA                                                                          C00105761522              19401225001FC000000000000000000000000000000                                                  TERCERA                                                                                                                                               21          LOS MAMEYES                                       000001N00000000000000000000000000000000000000000000000000                                                                                                                                                           00000000000000000000000000000000000000000                                                                                                                                                                                                                                                          000000                                                                                                                                                                                                                                                                                                                                                              000000        
DA000001188100000155740016288248LEONIDAS SUCRE                                    PEREZ                                                                           C00107981094              19490505001MC000000000000000000000000000000                                                  N                                                                                                                                                     19          N                                                 000001N00000000000000000000000000000000000000000000000000                                                                                                                                                           00000000000000000000000000000000000000000                                                                                                                                                                                                                                                          000000                                                                                                                                                                                                                                                                                                                                                              000000        
DA000003530100000057630000061597FABIO ANTONIO TOMAS                               ALMONTE                                                                         C00101660124              19540924001MC000000000000000000000000000000                                                  ARISTEDES GARCIA MELLA                                                                                                                                23          MIRADOR SUR                                       000001N00000000000000000000000000000000000000000000000000                                                                                                                                                           00000000000000000000000000000000000000000                                                                                                                                                                                                                                                          000000                                                                                                                                                                                                                                                                                                                                                              000000        
DA000002401800000511970006607738HIPOLITO                                          DURAN                                                                           C00103643896              19571019001MS000000000000000000000000000000                                                  N                                                                                                                                                     21          N                                                 000001N00000000000000000000000000000000000000000000000000                                                                                                                                                           00000000000000000000000000000000000000000                                                                                                                                                                                                                                                          000000                                                                                                                                                                                                                                                                                                                                                              000000        
DA000001966600000521760004861948HECTOR B BIENVENIDO                               RODRIGUEZ                                                                       C00105279657              19530820001MS000000000000000000000000000000                                                  N                                                                                                                                                     N           N                                                 000001N00000000000000000000000000000000000000000000000000                                                                                                                                                           00000000000000000000000000000000000000000                                                                                                                                                                                                                                                          000000                                                                                                                                                                                                                                                                                                                                                              000000        
DA000001922800000118690015031517ANGELA MIGUELINA                                  MORETA                                                                          C00105394571              19391205001FC000000000000000000000000000000                                                  MAZ 3949                                                                                                                                              36          LA ESPERANZA                                      000001N00000000000000000000000000000000000000000000000000                                                                                                                                                           00000000000000000000000000000000000000000                                                                                                                                                                                                                                                          000000                                                                                                                                                                                                                                                                                                                                                              000000        
DA000002179600000510020011908387ALCIDES                                           LIBERATO                                                                        C00103304507              19460417001MC000000000000000000000000000000                                                  CURAZAO                                                                                                                                               51                                                            000001N00000000000000000000000000000000000000000000000000                                                                                                                                                           00000000000000000000000000000000000000000                                                                                                                                                                                                                                                          000000                                                                                                                                                                                                                                                                                                                                                              000000        
DA000002472200000093600015189985JOSEFINA ALTAGRACIA                               MARTINEZ                                                                        C00103843033              19290512001FC000000000000000000000000000000                                                  N                                                                                                                                                     36          N                                                 000001N00000000000000000000000000000000000000000000000000                                                                                                                                                           00000000000000000000000000000000000000000                                                                                                                                                                                                                                                          000000                                                                                                                                                                                                                                                                                                                                                              000000        
DA000001151500000380600052508982BELKYS JACQUELINE                                 SOTO                                                                            C09300078483              19580929001FC000000000000000000000000000000                                                  N                                                                                                                                                     06          N                                                 000001N00000000000000000000000000000000000000000000000000                                                                                                                                                           00000000000000000000000000000000000000000                                                                                                                                                                                                                                                          000000                                                                                                                                                                                                                                                                                                                                                              000000        
DA000001998500000145930015182672JUANA                                             AYBAR                                                                           C00107331944              19490818001FC000000000000000000000000000000                                                  N                                                                                                                                                     24          N                                                 000001N00000000000000000000000000000000000000000000000000                                                                                                                                                           00000000000000000000000000000000000000000                                                                                                                                                                                                                                                          000000                                                                                                                                                                                                                                                                                                                                                              000000        
DA000000471500000640320037879722VICTOR MANUEL                                     CASTILLO                                                                        C04900351638              19510816001MS000000000000000000000000000000                                                  16 DE AGOSTO                                                                                                                                          04          N                                                 000001N00000000000000000000000000000000000000000000000000                                                                                                                                                           00000000000000000000000000000000000000000                                                                                                                                                                                                                                                          000000                                                                                                                                                                                                                                                                                                                                                              000000        
DA000001941600000523590003516796RAMON DUARTE                                      BALLE                                                                           C00105539191              19480126001MC000000000000000000000000000000                                                  2DA                                                                                                                                                   54          LOS MAMEYES                                       000001N00000000000000000000000000000000000000000000000000                                                                                                                                                           00000000000000000000000000000000000000000                                                                                                                                                                                                                                                          000000                                                                                                                                                                                                                                                                                                                                                              000000        
DA000002607500000491510013677841MARCOS VINICIO                                    FELIZ                                                                           C00101102002              19570128001MS000000000000000000000000000000                                                  N                                                                                                                                                     N           N                                                 000001N00000000000000000000000000000000000000000000000000                                                                                                                                                           00000000000000000000000000000000000000000                                                                                                                                                                                                                                                          000000                                                                                                                                                                                                                                                                                                                                                              000000        
DA000002224800000059580002180350ARMANDO                                           RIVAS                                                                           C00101737633              19421206001MC000000000000000000000000000000                                                  LADERA                                                                                                                                                7           ARROYO HONDO                                      000001N00000000000000000000000000000000000000000000000000                                                                                                                                                           00000000000000000000000000000000000000000                                                                                                                                                                                                                                                          000000                                                                                                                                                                                                                                                                                                                                                              000000        
DA000002911900000555910009532438CARMELA                                           VALDEZ                                                                          C00117032540              19540424001FS000000000000000000000000000000                                                  CARLOS ARIAS                                                                                                                                          92          ALPES                                             000001N00000000000000000000000000000000000000000000000000                                                                                                                                                           00000000000000000000000000000000000000000                                                                                                                                                                                                                                                          000000                                                                                                                                                                                                                                                                                                                                                              000000        
DA000002769600000011070005656795MARINO SALVADOR                                   MIESES                                                                          C00100169440              19251015001MC000000000000000000000000000000                                                  16 AGOSTO 21                                                                                                                                          21          NA                                                000001N00000000000000000000000000000000000000000000000000                                                                                                                                                           00000000000000000000000000000000000000000                                                                                                                                                                                                                                                          000000                                                                                                                                                                                                                                                                                                                                                              000000        
DA000002863500000178930015645710MERCEDES ALTAGRACIA                               HERMON                                                                          C00111450730              19291027001FS000000000000000000000000000000                                                  ESMERALDA 10                                                                                                                                          10          NA                                                000001N00000000000000000000000000000000000000000000000000                                                                                                                                                           00000000000000000000000000000000000000000                                                                                                                                                                                                                                                          000000                                                                                                                                                                                                                                                                                                                                                              000000        
DA000001667300000505910011507825HENRY ENMANUEL                                    ROSARIO                                                                         C00102668142              19590701001MS000000000000000000000000000000                                                  PROGRESO, HORNILLO 16                                                                                                                                 16          HORNILLO                                          000225N00000000000000000000000000000000000000000000000000                                                                                                                                                           00000000000000000000000000000000000000000                                                                                                                                                                                                                                                          000000                                                                                                                                                                                                                                                                                                                                                              000000        
DA000001937300000121410017194282EVANGELISTA                                       VICENTE                                                                         C00105588586              19510213001FS000000000000000000000000000000                                                  1RA                                                                                                                                                   24          LA PAZ                                            000223N00000000000000000000000000000000000000000000000000                                                                                                                                                           00000000000000000000000000000000000000000                                                                                                                                                                                                                                                          000000                                                                                                                                                                                                                                                                                                                                                              000000        
DA000002341300000077380004733035CARLOS                                            RAMIREZ                                                                         C00102708005              19490420001MS000000000000000000000000000000                                                  MINERVA MIRABAL                                                                                                                                       12          VILLA MELLA                                       000001N00000000000000000000000000000000000000000000000000                                                                                                                                                           00000000000000000000000000000000000000000                                                                                                                                                                                                                                                          000000                                                                                                                                                                                                                                                                                                                                                              000000        
DA000003438400000160920006180154AMELIS                                            ROSARIO                                                                         C00108405010              19491129001MS000000000000000000000000000000                                                  MANZ. 4706                                                                                                                                            N           INVIVIENDA                                        000223N00000000000000000000000000000000000000000000000000                                                                                                                                                           00000000000000000000000000000000000000000                                                                                                                                                                                                                                                          000000                                                                                                                                                                                                                                                                                                                                                              000000        
DA000002615600000042350000101708CECILIA ESTELA                                    VENTURA                                                                         C00101195915              19231122001FC000000000000000000000000000000                                                  BIENVENIDO GAUTIEL                                                                                                                                    19          ARROYO HONDO                                      000001N00000000000000000000000000000000000000000000000000                                                                                                                                                           00000000000000000000000000000000000000000                                                                                                                                                                                                                                                          000000                                                                                                                                                                                                                                                                                                                                                              000000        
DA000001030400000881280049161141ARCADIO                                           GAMA                                                                            C07100087647              19430208001MS000000000000000000000000000000                                                  JOSE SANCHEZ RAMIREZ                                                                                                                                  187         N                                                 000071N00000000000000000000000000000000000000000000000000                                                                                                                                                           00000000000000000000000000000000000000000                                                                                                                                                                                                                                                          000000                                                                                                                                                                                                                                                                                                                                                              000000        
DA000001030200000780100049016102RAMONA                                            BRITO                                                                           C07100086821              19470130001FS000000000000000000000000000000                                                  PROGRESO 178                                                                                                                                          178         N                                                 000071N00000000000000000000000000000000000000000000000000                                                                                                                                                           00000000000000000000000000000000000000000                                                                                                                                                                                                                                                          000000                                                                                                                                                                                                                                                                                                                                                              000000        
DA000000620100000229930024147505PONCIANO                                          ALCANTARA                                                                       C01200003869              19350826001MS000000000000000000000000000000                                                  30 DE MAYO 22                                                                                                                                         22          N                                                 000012N00000000000000000000000000000000000000000000000000                                                                                                                                                           00000000000000000000000000000000000000000                                                                                                                                                                                                                                                          000000                                                                                                                                                                                                                                                                                                                                                              000000        
DA000000629000000234510022236747NILDA MERIS                                       MERCEDES                                                                        C01200517066              19420213001FC000000000000000000000000000000                                                  SANTOME 71                                                                                                                                            71          N                                                 000012N00000000000000000000000000000000000000000000000000                                                                                                                                                           00000000000000000000000000000000000000000                                                                                                                                                                                                                                                          000000                                                                                                                                                                                                                                                                                                                                                              000000        
DA000003337300000225130021144974SALVADOR SAN MARTIN                               SANCHEZ                                                                         C01000067122              19440803001MS000000000000000000000000000000                                                  PERCEVERANCIA 25                                                                                                                                      25          LAS COLINAS                                       000010N00000000000000000000000000000000000000000000000000                                                                                                                                                           00000000000000000000000000000000000000000                                                                                                                                                                                                                                                          000000                                                                                                                                                                                                                                                                                                                                                              000000        
DA000001531500000226920021157942GLENDA MARGARITA                                  MARTINEZ                                                                        C01000175529              19420209001FS000000000000000000000000000000                                                  SANCHEZ 87                                                                                                                                            87          PAGORITO                                          000010N00000000000000000000000000000000000000000000000000                                                                                                                                                           00000000000000000000000000000000000000000                                                                                                                                                                                                                                                          000000                                                                                                                                                                                                                                                                                                                                                              000000        
DA000003282000000267510027809353MATILDE                                           HERNANDEZ                                                                       C02600522912              19570314001FS000000000000000000000000000000                                                  CARLOSTEO CRUZ 26                                                                                                                                     26          LOS MULOS                                         000026N00000000000000000000000000000000000000000000000000                                                                                                                                                           00000000000000000000000000000000000000000                                                                                                                                                                                                                                                          000000                                                                                                                                                                                                                                                                                                                                                              000000        
DA000003303700000264540026944928DOMINGA AURORA                                    GONZALEZ                                                                        C02500001512              19320126001FS000000000000000000000000000000                                                  GRAL. CABRAL 7                                                                                                                                        7           EL RINCON                                         000025N00000000000000000000000000000000000000000000000000                                                                                                                                                           00000000000000000000000000000000000000000                                                                                                                                                                                                                                                          000000                                                                                                                                                                                                                                                                                                                                                              000000        
DA000001289400000264890026358142REGINA                                            PELEGRIN                                                                        C02500016056              19380127001FS000000000000000000000000000000                                                  DUVERGE 15                                                                                                                                            15          LOS HIJISTOS                                      000025N00000000000000000000000000000000000000000000000000                                                                                                                                                           00000000000000000000000000000000000000000                                                                                                                                                                                                                                                          000000                                                                                                                                                                                                                                                                                                                                                              000000        
DA000000558500000261930026632654JORGE                                             DE FRIAS                                                                        C02300722028              19480210001MC000000000000000000000000000000                                                  MANUEL A RICHIEZ 18                                                                                                                                   18          VILLA PROVIDENCIA                                 000023N00000000000000000000000000000000000000000000000000                                                                                                                                                           00000000000000000000000000000000000000000                                                                                                                                                                                                                                                          000000                                                                                                                                                                                                                                                                                                                                                              000000        
DA000000086900000269270029789198DOLORES                                           RIJO                                                                            C02700085521              19531207001FS000000000000000000000000000000                                                  QUIRILIO VILORIO                                                                                                                                      69          PUNTA GARZA                                       000027N00000000000000000000000000000000000000000000000000                                                                                                                                                           00000000000000000000000000000000000000000                                                                                                                                                                                                                                                          000000                                                                                                                                                                                                                                                                                                                                                              000000        
DA000003285900000787860053321192JOSE ARISMENDI                                    PUENTE                                                                          C10300002705              19550226001MS000000000000000000000000000000                                                  1ER 03                                                                                                                                                03          N                                                 000026N00000000000000000000000000000000000000000000000000                                                                                                                                                           00000000000000000000000000000000000000000                                                                                                                                                                                                                                                          000000                                                                                                                                                                                                                                                                                                                                                              000000        
DA000003284400000457370027763198RAMON ENRIQUES                                    PEREZ                                                                           C02600204289              19530626001MS000000000000000000000000000000                                                  HECTOR REGIL                                                                                                                                          112         LA AVIACION                                       000026N00000000000000000000000000000000000000000000000000                                                                                                                                                           00000000000000000000000000000000000000000                                                                                                                                                                                                                                                          000000                                                                                                                                                                                                                                                                                                                                                              000000        
DA000000574800000254800028388736ISMAEL EMILIO                                     ANGLADA                                                                         C02300216567              19390710001MC000000000000000000000000000000                                                  CARMEN NATALIA                                                                                                                                        3           CENTRO                                            000023N00000000000000000000000000000000000000000000000000                                                                                                                                                           00000000000000000000000000000000000000000                                                                                                                                                                                                                                                          000000                                                                                                                                                                                                                                                                                                                                                              000000        
DA000000359200000297670034030191MARIA ANGELICA                                    PERALTA                                                                         C03102442393              19321228001FC000000000000000000000000000000                                                  1RA                                                                                                                                                   13          ENS RAMON                                         000031N00000000000000000000000000000000000000000000000000                                                                                                                                                           00000000000000000000000000000000000000000                                                                                                                                                                                                                                                          000000                                                                                                                                                                                                                                                                                                                                                              000000        
DA000000227800000786900051804660LEONARDO ANTONIO                                  CASTILLO                                                                        C09400115680              19621210001MS000000000000000000000000000000                                                  INGENIO ABAJO 98                                                                                                                                      98          INGENIO ABAJO                                     000094N00000000000000000000000000000000000000000000000000                                                                                                                                                           00000000000000000000000000000000000000000                                                                                                                                                                                                                                                          000000                                                                                                                                                                                                                                                                                                                                                              000000        
DA000000406500000289460032516302ROMELIA MERCEDES                                  SANTOS                                                                          C03101138448              19391003001FC000000000000000000000000000000                                                  PRINCIPAL 35                                                                                                                                          35          PEKIN                                             000031N00000000000000000000000000000000000000000000000000                                                                                                                                                           00000000000000000000000000000000000000000                                                                                                                                                                                                                                                          000000                                                                                                                                                                                                                                                                                                                                                              000000        
DA000000266000000283590035882936RAMON EMILIO                                      ACOSTA                                                                          C03100719271              19311101001MC000000000000000000000000000000                                                  MIRADOR DEL YAQUE                                                                                                                                     N           N                                                 000031N00000000000000000000000000000000000000000000000000                                                                                                                                                           00000000000000000000000000000000000000000                                                                                                                                                                                                                                                          000000                                                                                                                                                                                                                                                                                                                                                              000000        
DA000000352700000295910035458916JOSE MIGUEL                                       BETANCES                                                                        C03102080599              19531031001MS000000000000000000000000000000                                                  13                                                                                                                                                    29          GURABO                                            000031N00000000000000000000000000000000000000000000000000                                                                                                                                                           00000000000000000000000000000000000000000                                                                                                                                                                                                                                                          000000                                                                                                                                                                                                                                                                                                                                                              000000        
DA000002940400000172950010179142FE MARIA                                          DELGADO                                                                         C00109745638              19390103001FC000000000000000000000000000000                                                  RESPALDO 29                                                                                                                                           16          KENNEDY                                           000001N00000000000000000000000000000000000000000000000000                                                                                                                                                           00000000000000000000000000000000000000000                                                                                                                                                                                                                                                          000000                                                                                                                                                                                                                                                                                                                                                              000000        
DA000002211800000056370012858972OLGA ARGENTINA                                    GARCIA                                                                          C00101618221              19351115001FC000000000000000000000000000000                                                  MAZANA 14                                                                                                                                             13          N                                                 000001N00000000000000000000000000000000000000000000000000                                                                                                                                                           00000000000000000000000000000000000000000                                                                                                                                                                                                                                                          000000                                                                                                                                                                                                                                                                                                                                                              000000        
DA000001632600000153570005781261PAULA DE JESUS                                    GARCIA                                                                          C00107818486              19390517001FC000000000000000000000000000000                                                  PROGRESO 35                                                                                                                                           35          LOS GUARICANOS                                    000001N00000000000000000000000000000000000000000000000000                                                                                                                                                           00000000000000000000000000000000000000000                                                                                                                                                                                                                                                          000000                                                                                                                                                                                                                                                                                                                                                              000000        
DA000003210300000660760050876365LUIS MANUEL                                       VIZCAINO                                                                        C08200123969              19490826001MS000000000000000000000000000000                                                  MAZ VII                                                                                                                                               N           SANTA CRUZ YAGUATE                                000082N00000000000000000000000000000000000000000000000000                                                                                                                                                           00000000000000000000000000000000000000000                                                                                                                                                                                                                                                          000000                                                                                                                                                                                                                                                                                                                                                              000000        
DA000003213200000669710052355657ENRIQUE RADAMES                                   GUILLEN                                                                         C09300204915              19500311001MC000000000000000000000000000000                                                  JAUN ANTONIO                                                                                                                                          7           BAJO DE HAINA                                     000093N00000000000000000000000000000000000000000000000000                                                                                                                                                           00000000000000000000000000000000000000000                                                                                                                                                                                                                                                          000000                                                                                                                                                                                                                                                                                                                                                              000000        
DA000003339700000111590008836997FACUNDO                                           TELLERIA                                                                        C00105045652              19501127001MS000000000000000000000000000000                                                  18                                                                                                                                                    36          VILLA MELLA                                       000225N00000000000000000000000000000000000000000000000000                                                                                                                                                           00000000000000000000000000000000000000000                                                                                                                                                                                                                                                          000000                                                                                                                                                                                                                                                                                                                                                              000000        
DA000003514000000077640003381312JOSE RAFAEL                                       OVALLE                                                                          C00102722584              19510903001MS000000000000000000000000000000                                                  DURAN                                                                                                                                                 N           N                                                 000001N00000000000000000000000000000000000000000000000000                                                                                                                                                           00000000000000000000000000000000000000000                                                                                                                                                                                                                                                          000000                                                                                                                                                                                                                                                                                                                                                              000000        
DA000002035500000722750015464115GERMANIA DEL CARMEN                               RIVERA                                                                          C00108404575              19481011001FS000000000000000000000000000000                                                  PELONA                                                                                                                                                8           CANCINO                                           000223N00000000000000000000000000000000000000000000000000                                                                                                                                                           00000000000000000000000000000000000000000                                                                                                                                                                                                                                                          000000                                                                                                                                                                                                                                                                                                                                                              000000        
DA000000054500000126400010997378MARIO                                             AMADOR                                                                          C00105988851              19190410001MC000000000000000000000000000000                                                  SAN ANTONIO                                                                                                                                           9           N                                                 000227N00000000000000000000000000000000000000000000000000                                                                                                                                                           00000000000000000000000000000000000000000                                                                                                                                                                                                                                                          000000                                                                                                                                                                                                                                                                                                                                                              000000        
DA000001827500000810470016094388EUFEMIA MERCEDES                                  GARCIA                                                                          C00104941984              19330903001FS000000000000000000000000000000                                                  FRAY BARTOLOME                                                                                                                                        26          KATANGA                                           000223N00000000000000000000000000000000000000000000000000                                                                                                                                                           00000000000000000000000000000000000000000                                                                                                                                                                                                                                                          000000                                                                                                                                                                                                                                                                                                                                                              000000        
DA000002037900000159870011827060ANTONIA                                           CORCINO                                                                         C00108307570              19400812001FS000000000000000000000000000000                                                  MANZANA M2                                                                                                                                            07          LOS FRAILES                                       000223N00000000000000000000000000000000000000000000000000                                                                                                                                                           00000000000000000000000000000000000000000                                                                                                                                                                                                                                                          000000                                                                                                                                                                                                                                                                                                                                                              000000        
