EPN52
DA000001468200000742870022134206BELGICA                                           FERRERAS                                                                        C01800147702              19411111001FS000000000000000000000000000000                                                  CALLE PROYECTO                                                                                                                                        18          CAMBOYA                                           000018N00000000000000000000000000000000000000000000000000                                                                                                                                                           00000000000000000000000000000000000000000                                                                                                                                                                                                                                                          000000                                                                                                                                                                                                                                                                                                                                                              000000        
DA000001455700001208370024903343LIDIA                                             ALCANTARA                                                                       C01800260984              19491120001FS000000000000000000000000000000                                                  BARRIO NUEVO                                                                                                                                          21          EL CACHON                                         000001N00000000000000000000000000000000000000000000000000                                                                                                                                                           00000000000000000000000000000000000000000                                                                                                                                                                                                                                                          000000                                                                                                                                                                                                                                                                                                                                                              000000        
DA000001365800000774540043875306ISIDRO                                            VENTURA                                                                         C05600151178              19370111001MS000000000000000000000000000000                                                  1RA                                                                                                                                                   16          SAN VICENTE                                       000056N00000000000000000000000000000000000000000000000000                                                                                                                                                           00000000000000000000000000000000000000000                                                                                                                                                                                                                                                          000000                                                                                                                                                                                                                                                                                                                                                              000000        
DA000003407800000999220010516076DIONICIO ESPERANZA                                CABRERA                                                                         C00105444616              19411208001MS000000000000000000000000000000                                                  PRIMERA                                                                                                                                               81          VILLA DUARTE                                      000001N00000000000000000000000000000000000000000000000000                                                                                                                                                           00000000000000000000000000000000000000000                                                                                                                                                                                                                                                          000000                                                                                                                                                                                                                                                                                                                                                              000000        
DA000002482300001063590012768380JOSE EULOGIO                                      FERREIRA                                                                        C00104304308              19340311001MS000000000000000000000000000000                                                  SAN JOSE                                                                                                                                              4           EL PROGRESO                                       000225N00000000000000000000000000000000000000000000000000                                                                                                                                                           00000000000000000000000000000000000000000                                                                                                                                                                                                                                                          000000                                                                                                                                                                                                                                                                                                                                                              000000        
DA000002080400001058300006906782VIRGILIO                                          AQUINO                                                                          C00109204099              19560104001MS000000000000000000000000000000                                                  NA                                                                                                                                                    NA          NA                                                000001N00000000000000000000000000000000000000000000000000                                                                                                                                                           00000000000000000000000000000000000000000                                                                                                                                                                                                                                                          000000                                                                                                                                                                                                                                                                                                                                                              000000        
DA000003565300000052270007534826ISABEL RUTH                                       SANTANA                                                                         C00101494755              19310331001FS000000000000000000000000000000                                                  CARMEN MENDOZA DE CORNIR                                                                                                                              65          REC¨,IRENE. D.N                                   000001N00000000000000000000000000000000000000000000000000                                                                                                                                                           00000000000000000000000000000000000000000                                                                                                                                                                                                                                                          000000                                                                                                                                                                                                                                                                                                                                                              000000        
DA000003525700000983960000064841GRISELDA IRENE DE LA ALTAG                        MONTES DE OCA                                                                   C00101687796              19420125001FS000000000000000000000000000000                                                  N                                                                                                                                                     N           N                                                 000001N00000000000000000000000000000000000000000000000000                                                                                                                                                           00000000000000000000000000000000000000000                                                                                                                                                                                                                                                          000000                                                                                                                                                                                                                                                                                                                                                              000000        
DA000001897300001000630009418212MIGUEL ANDRES                                     PICHARDO                                                                        C00105713002              19300919001MS000000000000000000000000000000                                                  DR TEJADA FLORENTINO                                                                                                                                  8           VILLA CONSUELO                                    000001N00000000000000000000000000000000000000000000000000                                                                                                                                                           00000000000000000000000000000000000000000                                                                                                                                                                                                                                                          000000                                                                                                                                                                                                                                                                                                                                                              000000        
DA000002312300000988150009204393RAMON ANTONIO                                     GRULLON                                                                         C00102434776              19640918001MS000000000000000000000000000000                                                  DR TEJADA FLORENTINO                                                                                                                                  8           VILLA CONSUELO                                    000001N00000000000000000000000000000000000000000000000000                                                                                                                                                           00000000000000000000000000000000000000000                                                                                                                                                                                                                                                          000000                                                                                                                                                                                                                                                                                                                                                              000000        
DA000002921900000170000005845602JULIANA                                           GONZALEZ                                                                        C00109195420              19500207001FS000000000000000000000000000000                                                  YOLANDA GUZMAN                                                                                                                                        182         MEJORAMIENTO SOCIAL                               000001N00000000000000000000000000000000000000000000000000                                                                                                                                                           00000000000000000000000000000000000000000                                                                                                                                                                                                                                                          000000                                                                                                                                                                                                                                                                                                                                                              000000        
DA000001761900000717030003571981ALEJANDRINA                                       GARCIA                                                                          C00106751183              19370315001FS000000000000000000000000000000                                                  C                                                                                                                                                     15          CIUDAD AGRIARIA                                   000224N00000000000000000000000000000000000000000000000000                                                                                                                                                           00000000000000000000000000000000000000000                                                                                                                                                                                                                                                          000000                                                                                                                                                                                                                                                                                                                                                              000000        
DA000003373000000719620010667978MANUEL ANTONIO                                    CUEVAS                                                                          C00107455123              19540312001MS000000000000000000000000000000                                                  MANZANA 13, LAS CAOBAS                                                                                                                                N           N                                                 000224N00000000000000000000000000000000000000000000000000                                                                                                                                                           00000000000000000000000000000000000000000                                                                                                                                                                                                                                                          000000                                                                                                                                                                                                                                                                                                                                                              000000        
DA000002080000001200850011204855ANA LUISA                                         MENDEZ                                                                          C00109220269              19350226001FS000000000000000000000000000000                                                  ROSAS ROJAS                                                                                                                                           34          EL ROSAL                                          000223N00000000000000000000000000000000000000000000000000                                                                                                                                                           00000000000000000000000000000000000000000                                                                                                                                                                                                                                                          000000                                                                                                                                                                                                                                                                                                                                                              000000        
DA000003361900000499730011822313LEOPOLDO                                          JAVIER                                                                          C00101858173              19590902001MS000000000000000000000000000000                                                  PRESIDENTE HIPOLITO IRIGOYEN                                                                                                                          03          ZONA UNIVERSITARIA                                000001N00000000000000000000000000000000000000000000000000                                                                                                                                                           00000000000000000000000000000000000000000                                                                                                                                                                                                                                                          000000                                                                                                                                                                                                                                                                                                                                                              000000        
DA000002038200000159900000498425MARGARITA MARIA                                   PERALTA                                                                         C00108311192              19390815001FS000000000000000000000000000000                                                  PRIVADA                                                                                                                                               10          LOS FRAILES                                       000223N00000000000000000000000000000000000000000000000000                                                                                                                                                           00000000000000000000000000000000000000000                                                                                                                                                                                                                                                          000000                                                                                                                                                                                                                                                                                                                                                              000000        
DA000002649200000036660004618871RAMONA ANGELITA                                   DEL ROSARIO                                                                     C00101066769              19571115001FS000000000000000000000000000000                                                  2DA                                                                                                                                                   11          SABICA                                            000223N00000000000000000000000000000000000000000000000000                                                                                                                                                           00000000000000000000000000000000000000000                                                                                                                                                                                                                                                          000000                                                                                                                                                                                                                                                                                                                                                              000000        
DA000001279400000456250029577250MARIA ALTAGRACIA                                  MOLINA                                                                          C02500393562              19321128001FS000000000000000000000000000000                                                  LEONCIO RUIZ                                                                                                                                          2           SOL Y MAR                                         000001N00000000000000000000000000000000000000000000000000                                                                                                                                                           00000000000000000000000000000000000000000                                                                                                                                                                                                                                                          000000                                                                                                                                                                                                                                                                                                                                                              000000        
DA000002786900000481940016036605GISELA ANTONIA                                    CERON                                                                           C00100024413              19530320001FC000000000000000000000000000000                                                  N                                                                                                                                                     N           N                                                 000001N00000000000000000000000000000000000000000000000000                                                                                                                                                           00000000000000000000000000000000000000000                                                                                                                                                                                                                                                          000000                                                                                                                                                                                                                                                                                                                                                              000000        
DA000001999200000538110015183266BETHANIA ALTAGRACIA                               MEREJO                                                                          C00107341588              19630223001FS000000000000000000000000000000                                                  PRINCIPE NEGRO                                                                                                                                        2           EL ROSAL                                          000001N00000000000000000000000000000000000000000000000000                                                                                                                                                           00000000000000000000000000000000000000000                                                                                                                                                                                                                                                          000000                                                                                                                                                                                                                                                                                                                                                              000000        
DA000002105900000552760015640763OLIVO DIOMEDES                                    BIDO                                                                            C00111418166              19370815001MS000000000000000000000000000000                                                  N                                                                                                                                                     34          N                                                 000001N00000000000000000000000000000000000000000000000000                                                                                                                                                           00000000000000000000000000000000000000000                                                                                                                                                                                                                                                          000000                                                                                                                                                                                                                                                                                                                                                              000000        
DA000003034600000537540001603714ALBERTO DE JESUS                                  ALVAREZ                                                                         C00107277204              19510523001MS000000000000000000000000000000                                                  N                                                                                                                                                     N           N                                                 000001N00000000000000000000000000000000000000000000000000                                                                                                                                                           00000000000000000000000000000000000000000                                                                                                                                                                                                                                                          000000                                                                                                                                                                                                                                                                                                                                                              000000        
DA000000696000000669820051778255JESUS                                             RODRIGUEZ                                                                       C09300208064              19450501001MS000000000000000000000000000000                                                  N                                                                                                                                                     4           N                                                 000001N00000000000000000000000000000000000000000000000000                                                                                                                                                           00000000000000000000000000000000000000000                                                                                                                                                                                                                                                          000000                                                                                                                                                                                                                                                                                                                                                              000000        
DA000001348700000354020045089005LUIS ANTONIO                                      TOBAL                                                                           C05600795917              19480412001MC000000000000000000000000000000                                                  PRINCIPAL                                                                                                                                             40          SAN JOSE                                          000001N00000000000000000000000000000000000000000000000000                                                                                                                                                           00000000000000000000000000000000000000000                                                                                                                                                                                                                                                          000000                                                                                                                                                                                                                                                                                                                                                              000000        
DA000002008500000538550017258887AGUSTIN ANTONIO                                   VARGAS                                                                          C00107395782              19550508001MC000000000000000000000000000000                                                  MAZ C                                                                                                                                                 N           CANCINO 2DO                                       000001N00000000000000000000000000000000000000000000000000                                                                                                                                                           00000000000000000000000000000000000000000                                                                                                                                                                                                                                                          000000                                                                                                                                                                                                                                                                                                                                                              000000        
DA000002387200000510260014035598ARMANDO                                           RODRIGUEZ                                                                       C00103328423              19541118001MS000000000000000000000000000000                                                  PROYECTO                                                                                                                                              4           MEJORAMIENTO SOCIAL                               000001N00000000000000000000000000000000000000000000000000                                                                                                                                                           00000000000000000000000000000000000000000                                                                                                                                                                                                                                                          000000                                                                                                                                                                                                                                                                                                                                                              000000        
DA000001579200000255770025393992RAFAEL                                            REYES                                                                           C02300281827              19490916001MC000000000000000000000000000000                                                  PROYECTO                                                                                                                                              43          EL VALIENTE                                       000001N00000000000000000000000000000000000000000000000000                                                                                                                                                           00000000000000000000000000000000000000000                                                                                                                                                                                                                                                          000000                                                                                                                                                                                                                                                                                                                                                              000000        
DA000002442300000513880014958188ALFONSO                                           CORPORAN                                                                        C00103940029              19490126001MS000000000000000000000000000000                                                  N                                                                                                                                                     101         N                                                 000001N00000000000000000000000000000000000000000000000000                                                                                                                                                           00000000000000000000000000000000000000000                                                                                                                                                                                                                                                          000000                                                                                                                                                                                                                                                                                                                                                              000000        
DA000002172600000512540016252987GERTRUDIS ALTAGRACIA                              HERNANDEZ                                                                       C00103717369              19580926001FS000000000000000000000000000000                                                  13                                                                                                                                                    2           LA ESPERANZA                                      000001N00000000000000000000000000000000000000000000000000                                                                                                                                                           00000000000000000000000000000000000000000                                                                                                                                                                                                                                                          000000                                                                                                                                                                                                                                                                                                                                                              000000        
DA000000824400000361500047516948PEDRO                                             JONES                                                                           C06600002676              19460704001MC000000000000000000000000000000                                                  DUARTE 38                                                                                                                                             38          N                                                 000066N00000000000000000000000000000000000000000000000000                                                                                                                                                           00000000000000000000000000000000000000000                                                                                                                                                                                                                                                          000000                                                                                                                                                                                                                                                                                                                                                              000000        
DA000000821600000362550047670382MAXIMO MANUEL ANTONIO                             TEJEDA                                                                          C06600044405              19591205001MS000000000000000000000000000000                                                  27 DE FEBRERO 19                                                                                                                                      19          EL HOYO                                           000066N00000000000000000000000000000000000000000000000000                                                                                                                                                           00000000000000000000000000000000000000000                                                                                                                                                                                                                                                          000000                                                                                                                                                                                                                                                                                                                                                              000000        
DA000000819600000362890047160733MIROPE                                            ADAMES                                                                          C06600109372              19290703001MC000000000000000000000000000000                                                  N                                                                                                                                                     N           N                                                 000066N00000000000000000000000000000000000000000000000000                                                                                                                                                           00000000000000000000000000000000000000000                                                                                                                                                                                                                                                          000000                                                                                                                                                                                                                                                                                                                                                              000000        
DA000001350400000879280046469550LUIS                                              MEREGILDO                                                                       C05600489727              19651011001MS000000000000000000000000000000                                                  LA BOMBA DE CENOVI                                                                                                                                    75          N                                                 000205N00000000000000000000000000000000000000000000000000                                                                                                                                                           00000000000000000000000000000000000000000                                                                                                                                                                                                                                                          000000                                                                                                                                                                                                                                                                                                                                                              000000        
DA000001356000000351420042678367FRANCISCO ANTONIO                                 HERNANDEZ                                                                       C05600265663              19330410001MS000000000000000000000000000000                                                  C 27 DE FEBRERO 98                                                                                                                                    98          N                                                 000056N00000000000000000000000000000000000000000000000000                                                                                                                                                           00000000000000000000000000000000000000000                                                                                                                                                                                                                                                          000000                                                                                                                                                                                                                                                                                                                                                              000000        
DA000002348200000078610012660702OSVALDO RAFAEL                                    QUINTANA                                                                        C00102792405              19521009001MS000000000000000000000000000000                                                  SAN PABLO                                                                                                                                             37          TROPICAL                                          000001N00000000000000000000000000000000000000000000000000                                                                                                                                                           00000000000000000000000000000000000000000                                                                                                                                                                                                                                                          000000                                                                                                                                                                                                                                                                                                                                                              000000        
DA000003214500000381580052512690HECTOR                                            SORIANO                                                                         C09300139285              19460201001MC000000000000000000000000000000                                                  N                                                                                                                                                     12          HAINA                                             000093N00000000000000000000000000000000000000000000000000                                                                                                                                                           00000000000000000000000000000000000000000                                                                                                                                                                                                                                                          000000                                                                                                                                                                                                                                                                                                                                                              000000        
DA000001707200000154160008975918MARTIN                                            MONEGRO                                                                         C00107866022              19550724001MS000000000000000000000000000000                                                  ALVAREZ GUZMAN                                                                                                                                        16          HERRERA                                           000224N00000000000000000000000000000000000000000000000000                                                                                                                                                           00000000000000000000000000000000000000000                                                                                                                                                                                                                                                          000000                                                                                                                                                                                                                                                                                                                                                              000000        
DA000003568900000049690003316403RAFAEL                                            GARCIA                                                                          C00101444685              19470517001MS000000000000000000000000000000                                                  9                                                                                                                                                     3           HONDURA                                           000001N00000000000000000000000000000000000000000000000000                                                                                                                                                           00000000000000000000000000000000000000000                                                                                                                                                                                                                                                          000000                                                                                                                                                                                                                                                                                                                                                              000000        
DA000003238000000345470042670815ELVIRA CELESTE                                    REYES                                                                           C05500003727              19360508001FC000000000000000000000000000000                                                  BUBY DOHSE 27                                                                                                                                         27          NA                                                000055N00000000000000000000000000000000000000000000000000                                                                                                                                                           00000000000000000000000000000000000000000                                                                                                                                                                                                                                                          000000                                                                                                                                                                                                                                                                                                                                                              000000        
DA000000818900000362800048602162TEOFILO                                           HIDALGO                                                                         C06600099367              19280214001MC000000000000000000000000000000                                                  NA                                                                                                                                                    NA          NA                                                000066N00000000000000000000000000000000000000000000000000                                                                                                                                                           00000000000000000000000000000000000000000                                                                                                                                                                                                                                                          000000                                                                                                                                                                                                                                                                                                                                                              000000        
DA000000055200000119840010520116CONSTANCIA                                        DE LOS SANTOS                                                                   C00105485312              19480405001FC000000000000000000000000000000                                                  PUERTO RICO 13                                                                                                                                        13          GUERRA                                            000227N00000000000000000000000000000000000000000000000000                                                                                                                                                           00000000000000000000000000000000000000000                                                                                                                                                                                                                                                          000000                                                                                                                                                                                                                                                                                                                                                              000000        
DA000003054300000000980004532998SONIA ALTAGRACIA ISABEL                           FRIAS                                                                           C00100015858              19340720001FS000000000000000000000000000000                                                  ESPAILLAT 171                                                                                                                                         171         D.N                                               000001N00000000000000000000000000000000000000000000000000                                                                                                                                                           00000000000000000000000000000000000000000                                                                                                                                                                                                                                                          000000                                                                                                                                                                                                                                                                                                                                                              000000        
DA000002208800000497720012856058MAXIMO                                            ACEVEDO                                                                         C00101596088              19251128001MC000000000000000000000000000000                                                  20                                                                                                                                                    65          RESP ROSA HERRERA                                 000224N00000000000000000000000000000000000000000000000000                                                                                                                                                           00000000000000000000000000000000000000000                                                                                                                                                                                                                                                          000000                                                                                                                                                                                                                                                                                                                                                              000000        
DA000003519700000076800002490202MARIA ORIALI                                      PAULINO                                                                         C00102669868              19351020001FS000000000000000000000000000000                                                  TUNTI CACERES                                                                                                                                         N           N                                                 000001N00000000000000000000000000000000000000000000000000                                                                                                                                                           00000000000000000000000000000000000000000                                                                                                                                                                                                                                                          000000                                                                                                                                                                                                                                                                                                                                                              000000        
DA000000581700000445180025692296FEDERICO                                          FELIX                                                                           C02300127509              19200718001MC000000000000000000000000000000                                                  IMBERT                                                                                                                                                54          VILLA VELSQUEZ                                    000023N00000000000000000000000000000000000000000000000000                                                                                                                                                           00000000000000000000000000000000000000000                                                                                                                                                                                                                                                          000000                                                                                                                                                                                                                                                                                                                                                              000000        
DA000000000100000004240007912534FELIX ANTONIO                                     RAMIREZ                                                                         C00100071653              19500726001MS000000000000000000000000000000                                                  MANZ. R 10                                                                                                                                            10          PANTOJA                                           000001N00000000000000000000000000000000000000000000000000                                                                                                                                                           00000000000000000000000000000000000000000                                                                                                                                                                                                                                                          000000                                                                                                                                                                                                                                                                                                                                                              000000        
DA000002035700000161160015466412VICTOR MANUEL                                     PANIAGUA                                                                        C00108418823              19600508001MS000000000000000000000000000000                                                  FRANK RAMON PEÑA                                                                                                                                      99          RES ANTONIO                                       000223N00000000000000000000000000000000000000000000000000                                                                                                                                                           00000000000000000000000000000000000000000                                                                                                                                                                                                                                                          000000                                                                                                                                                                                                                                                                                                                                                              000000        
DA000003291400000547440011885894MIGUEL ANDRES                                     MUSTAFA                                                                         C00108801879              19641130001MS000000000000000000000000000000                                                  MIGUEL DUVERGE                                                                                                                                        7           SAN GREGORIO                                      000020N00000000000000000000000000000000000000000000000000                                                                                                                                                           00000000000000000000000000000000000000000                                                                                                                                                                                                                                                          000000                                                                                                                                                                                                                                                                                                                                                              000000        
DA000000740500000215660020249866JUAN                                              SORIANO                                                                         C00201168770              19570708001MS000000000000000000000000000000                                                  PRINCIPAL 31                                                                                                                                          31          LOS MAMEYES                                       000002N00000000000000000000000000000000000000000000000000                                                                                                                                                           00000000000000000000000000000000000000000                                                                                                                                                                                                                                                          000000                                                                                                                                                                                                                                                                                                                                                              000000        
DA000000041300000165600009606366IGNACIO                                           RIVAS                                                                           C00108778408              19620730001MS000000000000000000000000000000                                                  AV ISABELA                                                                                                                                            35          PROL PANTOJA                                      000228N00000000000000000000000000000000000000000000000000                                                                                                                                                           00000000000000000000000000000000000000000                                                                                                                                                                                                                                                          000000                                                                                                                                                                                                                                                                                                                                                              000000        
DA000001482900001023630024079911ZENON ENRIQUE                                     BATISTA                                                                         C01800054114              19410903001MS000000000000000000000000000000                                                  KUIS E DE MONTE                                                                                                                                       30          CENTRO CUIDAD                                     000018N00000000000000000000000000000000000000000000000000                                                                                                                                                           00000000000000000000000000000000000000000                                                                                                                                                                                                                                                          000000                                                                                                                                                                                                                                                                                                                                                              000000        
DA000003053300000417280014168716EDITH GERTRUDIS                                   DIAZ                                                                            C00105173561              19440308001FS000000000000000000000000000000                                                  F                                                                                                                                                     11          LA AGUSTINA                                       000001N00000000000000000000000000000000000000000000000000                                                                                                                                                           00000000000000000000000000000000000000000                                                                                                                                                                                                                                                          000000                                                                                                                                                                                                                                                                                                                                                              000000        
DA000002480300000099770001423483REYNA                                             MARTINEZ                                                                        C00104279294              19360306001FS000000000000000000000000000000                                                  JERUSALEN                                                                                                                                             2           SIMON BOLIVAR                                     000001N00000000000000000000000000000000000000000000000000                                                                                                                                                           00000000000000000000000000000000000000000                                                                                                                                                                                                                                                          000000                                                                                                                                                                                                                                                                                                                                                              000000        
DA000002376400000508180003569953FELIX                                             BRAZOBAN                                                                        C00102979945              19301212001MS000000000000000000000000000000                                                  MANZ 62                                                                                                                                               10          VILLA MELLA                                       000225N00000000000000000000000000000000000000000000000000                                                                                                                                                           00000000000000000000000000000000000000000                                                                                                                                                                                                                                                          000000                                                                                                                                                                                                                                                                                                                                                              000000        
DA000002992600001228300001547742FREDDY HUMBERTO DE LA                             ROSA                                                                            C00108202128              19580810001MS000000000000000000000000000000                                                  ABREU 12                                                                                                                                              12          SAN CARLOS                                        000001N00000000000000000000000000000000000000000000000000                                                                                                                                                           00000000000000000000000000000000000000000                                                                                                                                                                                                                                                          000000                                                                                                                                                                                                                                                                                                                                                              000000        
DA000003665900000165690010740257ISMAEL ANTONIO                                    JIMENES                                                                         C00108791351              19530617001MS000000000000000000000000000000                                                  10 RESP. MERCURIO                                                                                                                                     N           LAS PRADERAS                                      000001N00000000000000000000000000000000000000000000000000                                                                                                                                                           00000000000000000000000000000000000000000                                                                                                                                                                                                                                                          000000                                                                                                                                                                                                                                                                                                                                                              000000        
DA000001746400000139050010589433ELPIDIA                                           GARCIA                                                                          C00106823388              19440320001FS000000000000000000000000000000                                                  2DO ESQU.SAN JUAN 2                                                                                                                                   2           DUARTE                                            000224N00000000000000000000000000000000000000000000000000                                                                                                                                                           00000000000000000000000000000000000000000                                                                                                                                                                                                                                                          000000                                                                                                                                                                                                                                                                                                                                                              000000        
DA000002966800000720890004700556CAYETANO                                          ROSARIO                                                                         C00107840787              19380806001MS000000000000000000000000000000                                                  1ERA 40PA                                                                                                                                             40PA        VILLA MARIA                                       000001N00000000000000000000000000000000000000000000000000                                                                                                                                                           00000000000000000000000000000000000000000                                                                                                                                                                                                                                                          000000                                                                                                                                                                                                                                                                                                                                                              000000        
DA000001725800000142940007237965VICENTA                                           ALCALA                                                                          C00107161044              19481219001FS000000000000000000000000000000                                                  MANZANA 8                                                                                                                                             N           LAS CAOBAS                                        000224N00000000000000000000000000000000000000000000000000                                                                                                                                                           00000000000000000000000000000000000000000                                                                                                                                                                                                                                                          000000                                                                                                                                                                                                                                                                                                                                                              000000        
DA000001652900000979740014746414ALEJANDRINA                                       RODRIGUEZ                                                                       C00100577139              19440227001FS000000000000000000000000000000                                                  18 LOTES Y SERVICIOS 327                                                                                                                              327         LOTE Y SERVICIO                                   000225N00000000000000000000000000000000000000000000000000                                                                                                                                                           00000000000000000000000000000000000000000                                                                                                                                                                                                                                                          000000                                                                                                                                                                                                                                                                                                                                                              000000        
DA000001713200000158880002600994OFELIA ALTAGRACIA                                 SOTO                                                                            C00108231044              19271212001FS000000000000000000000000000000                                                  MANZ 6                                                                                                                                                N           LAS CAOBAS                                        000224N00000000000000000000000000000000000000000000000000                                                                                                                                                           00000000000000000000000000000000000000000                                                                                                                                                                                                                                                          000000                                                                                                                                                                                                                                                                                                                                                              000000        
DA000002238600000690050015924322RAFAEL AUGUSTO                                    PUELLO                                                                          C00102007051              19240214001MC000000000000000000000000000000                                                  3                                                                                                                                                     10          VILLA MARINA                                      000001N00000000000000000000000000000000000000000000000000                                                                                                                                                           00000000000000000000000000000000000000000                                                                                                                                                                                                                                                          000000                                                                                                                                                                                                                                                                                                                                                              000000        
DA000001742400000139470011743642HECTOR ADOLFO                                     LARA                                                                            C00106867286              19320320001MS000000000000000000000000000000                                                  LA CUBA                                                                                                                                               56          BUENOS AIRES DE HERRERA                           000224N00000000000000000000000000000000000000000000000000                                                                                                                                                           00000000000000000000000000000000000000000                                                                                                                                                                                                                                                          000000                                                                                                                                                                                                                                                                                                                                                              000000        
DA000002487100000098730000268158MERCEDES                                          MEDINA                                                                          C00104171418              19200309001FS000000000000000000000000000000                                                  ISABEL AGUIAR                                                                                                                                         92          ALTOS DE HERRERAS                                 000224N00000000000000000000000000000000000000000000000000                                                                                                                                                           00000000000000000000000000000000000000000                                                                                                                                                                                                                                                          000000                                                                                                                                                                                                                                                                                                                                                              000000        
DA000000774900000210570018442944ERNESTO                                           ASENCIO                                                                         C00200361418              19360227001MS000000000000000000000000000000                                                  SECCION HATILLA                                                                                                                                       31          SAN MIGUEL                                        000002N00000000000000000000000000000000000000000000000000                                                                                                                                                           00000000000000000000000000000000000000000                                                                                                                                                                                                                                                          000000                                                                                                                                                                                                                                                                                                                                                              000000        
DA000003507800001201680013754572CESAR AUGUSTO                                     ESCOTTO                                                                         C00102467859              19380131001MC000000000000000000000000000000                                                  AV. SAN MARTIN 72                                                                                                                                     72          STO DGO ESTE                                      000001N00000000000000000000000000000000000000000000000000                                                                                                                                                           00000000000000000000000000000000000000000                                                                                                                                                                                                                                                          000000                                                                                                                                                                                                                                                                                                                                                              000000        
DA000000912100000307840032201116TEODORO                                           FRIAS                                                                           C03700084944              19301109001MC000000000000000000000000000000                                                  3 3                                                                                                                                                   3           NA                                                000037N00000000000000000000000000000000000000000000000000                                                                                                                                                           00000000000000000000000000000000000000000                                                                                                                                                                                                                                                          000000                                                                                                                                                                                                                                                                                                                                                              000000        
DA000001674100000404670001145465FRANCISCO FERNANDO                                MENDOZA                                                                         C00101794378              19380129001MS000000000000000000000000000000                                                  24 DE ABRIL 6                                                                                                                                         6           NA                                                000224N00000000000000000000000000000000000000000000000000                                                                                                                                                           00000000000000000000000000000000000000000                                                                                                                                                                                                                                                          000000                                                                                                                                                                                                                                                                                                                                                              000000        
DA000003653600000006410010683292MARISELA JOSEFA ANT                               RODRIGUEZ                                                                       C00100118793              19500826001FC000000000000000000000000000000                                                  PASEO DEL PARQUE                                                                                                                                      NA          NA                                                000001N00000000000000000000000000000000000000000000000000                                                                                                                                                           00000000000000000000000000000000000000000                                                                                                                                                                                                                                                          000000                                                                                                                                                                                                                                                                                                                                                              000000        
DA000003018000000142460009506043CANDIDA MERCEDES                                  GRULLON                                                                         C00107138695              19480606001FS000000000000000000000000000000                                                  RESP. LAS COLINAS 38                                                                                                                                  38          NA                                                000001N00000000000000000000000000000000000000000000000000                                                                                                                                                           00000000000000000000000000000000000000000                                                                                                                                                                                                                                                          000000                                                                                                                                                                                                                                                                                                                                                              000000        
DA000003435100000165150013024944SANTIAGO                                          CASTILLO                                                                        C00108730714              19350524001MS000000000000000000000000000000                                                  MANZ.4721                                                                                                                                             NA          NA                                                000223N00000000000000000000000000000000000000000000000000                                                                                                                                                           00000000000000000000000000000000000000000                                                                                                                                                                                                                                                          000000                                                                                                                                                                                                                                                                                                                                                              000000        
DA000001923600000118790011662848ANTONIO                                           VASQUEZ                                                                         C00105401210              19290822001MC000000000000000000000000000000                                                  ROSARIO 1                                                                                                                                             1           NA                                                000223N00000000000000000000000000000000000000000000000000                                                                                                                                                           00000000000000000000000000000000000000000                                                                                                                                                                                                                                                          000000                                                                                                                                                                                                                                                                                                                                                              000000        
DA000000712000000381390051592906MANUEL EZEQUIEL                                   FERNANDEZ                                                                       C09300129138              19311215001MC000000000000000000000000000000                                                  PEDRO LUNA 15                                                                                                                                         15          NA                                                000093N00000000000000000000000000000000000000000000000000                                                                                                                                                           00000000000000000000000000000000000000000                                                                                                                                                                                                                                                          000000                                                                                                                                                                                                                                                                                                                                                              000000        
