EPN52
DA000003112300000220820021713324CAROLINA                                          HERNANDEZ                                                                       C00500009170              19410314036FS000000000000000000000000000000                                                  JUAN PABLO DUARTE                                                                                                                                     04          CENTRO DEL PUEBLO , YAMASA                        000005N00000000000000000000000000000000000000000000000000                                                                                                                                                           00000000000000000000000000000000000000000                                                                                                                                                                                                                                                          000000                                                                                                                                                                                                                                                                                                                                                              000000        
DA000003502000000067170001169556MANUEL RAMON                                      TAVERAS                                                                         C00102069309              19270418036MS000000000000000000000000000000                                                  RESP.43                                                                                                                                               16          CRISTO REY                                        000001N00000000000000000000000000000000000000000000000000                                                                                                                                                           00000000000000000000000000000000000000000                                                                                                                                                                                                                                                          000000                                                                                                                                                                                                                                                                                                                                                              000000        
DA000002351500001201730014914853ILONA JOSELYNES                                   PAULINO                                                                         C00102833860              19490822036FS000000000000000000000000000000                                                  AV.REPUBLICA DE COLOMBIA                                                                                                                              N           LOS JARDINES DEL NORTE                            000001N00000000000000000000000000000000000000000000000000                                                                                                                                                           00000000000000000000000000000000000000000                                                                                                                                                                                                                                                          000000                                                                                                                                                                                                                                                                                                                                                              000000        
DA000003841900001245080000000000OTILIO                                            TEJADA                                                                          C03700541323              19531027036MS000000000000000000000000000000                                                  LAS FLORES                                                                                                                                            3           CENTRO DE LA CIUDAD                               000037N00000000000000000000000000000000000000000000000000                                                                                                                                                           00000000000000000000000000000000000000000                                                                                                                                                                                                                                                          000000                                                                                                                                                                                                                                                                                                                                                              000000        
DA000000995900001044080037958295JUAN ANTONIO                                      DURAN                                                                           C04500110624              19410919036MS000000000000000000000000000000                                                  MAO GUAYUBIN                                                                                                                                          32          PILOTO                                            000045N00000000000000000000000000000000000000000000000000                                                                                                                                                           00000000000000000000000000000000000000000                                                                                                                                                                                                                                                          000000                                                                                                                                                                                                                                                                                                                                                              000000        
DA000000261800001068430051702696VENECIA                                           VALERIO                                                                         C09600059449              19501103036FS000000000000000000000000000000                                                  MIGUEL MERCADO                                                                                                                                        12          JALISCO                                           000096N00000000000000000000000000000000000000000000000000                                                                                                                                                           00000000000000000000000000000000000000000                                                                                                                                                                                                                                                          000000                                                                                                                                                                                                                                                                                                                                                              000000        
DA000003210700000390070053581105MANUEL                                            LOPEZ                                                                           C10400136023              19460822036MS000000000000000000000000000000                                                  EL PAPAYO                                                                                                                                             2           EL PAPAYO                                         000002N00000000000000000000000000000000000000000000000000                                                                                                                                                           00000000000000000000000000000000000000000                                                                                                                                                                                                                                                          000000                                                                                                                                                                                                                                                                                                                                                              000000        
DA000003590400000037220007989631MARCELINA MERCEDES                                MARTINEZ                                                                        C00101080281              19560430036FC000000000000000000000000000000                                                  C1RA                                                                                                                                                  54          MATA HAMBRE                                       000001N00000000000000000000000000000000000000000000000000                                                                                                                                                           00000000000000000000000000000000000000000                                                                                                                                                                                                                                                          000000                                                                                                                                                                                                                                                                                                                                                              000000        
DA000001931500000711450007133925JOSE                                              CORCINO                                                                         C00105552343              19281028036MS000000000000000000000000000000                                                  ROSARIO 2                                                                                                                                             2           VILLA DUARTE                                      000223N00000000000000000000000000000000000000000000000000                                                                                                                                                           00000000000000000000000000000000000000000                                                                                                                                                                                                                                                          000000                                                                                                                                                                                                                                                                                                                                                              000000        
DA000002535300000045260002412434FRANKLIN                                          VELOZ                                                                           C00101288405              19391126036MC000000000000000000000000000000                                                  TAVERA                                                                                                                                                10          JARDINES DEL SUR                                  000001N00000000000000000000000000000000000000000000000000                                                                                                                                                           00000000000000000000000000000000000000000                                                                                                                                                                                                                                                          000000                                                                                                                                                                                                                                                                                                                                                              000000        
DA000003580300000030470009106040LUIS ANTONIO                                      FRIAS                                                                           C00100881275              19350720036MC000000000000000000000000000000                                                  WENCESLAO ALVAREZ 113                                                                                                                                 113         UNIVERSITARIO                                     000001N00000000000000000000000000000000000000000000000000                                                                                                                                                           00000000000000000000000000000000000000000                                                                                                                                                                                                                                                          000000                                                                                                                                                                                                                                                                                                                                                              000000        
DA000000221500000767810041621271MENCIA DE JESUS                                   CHAVEZ                                                                          C04600034435              19510410036FC000000000000000000000000000000                                                  PETRONILA GAU                                                                                                                                         20          SABANETA                                          000046N00000000000000000000000000000000000000000000000000                                                                                                                                                           00000000000000000000000000000000000000000                                                                                                                                                                                                                                                          000000                                                                                                                                                                                                                                                                                                                                                              000000        
DA000003683800000431920013464823ANA VICTORIA                                      DE LA CRUZ                                                                      C00111115986              19310714036FS000000000000000000000000000000                                                  INTERIOR 33 9                                                                                                                                         9           CRISTO REY                                        000001N00000000000000000000000000000000000000000000000000                                                                                                                                                           00000000000000000000000000000000000000000                                                                                                                                                                                                                                                          000000                                                                                                                                                                                                                                                                                                                                                              000000        
DA000003645300000003000009046984DOMINGO RUBEN                                     DE JESUS                                                                        C00100048875              19330602036MC000000000000000000000000000000                                                  AV, BOLIBAL, PLAZA CORNELIA                                                                                                                           7           GAZQUE                                            000001N00000000000000000000000000000000000000000000000000                                                                                                                                                           00000000000000000000000000000000000000000                                                                                                                                                                                                                                                          000000                                                                                                                                                                                                                                                                                                                                                              000000        
DA000003642300000015530005666443LORENZA                                           FIGUEROA                                                                        C00100340124              19370905036FS000000000000000000000000000000                                                  INTERIOR D 15                                                                                                                                         15          EVARISTO MORALES                                  000001N00000000000000000000000000000000000000000000000000                                                                                                                                                           00000000000000000000000000000000000000000                                                                                                                                                                                                                                                          000000                                                                                                                                                                                                                                                                                                                                                              000000        
DA000003527200000058550008623128DULCE BEATRIZ                                     MENDOZA                                                                         C00101693935              19310118036FC000000000000000000000000000000                                                  RAFAEL BONELLY 24                                                                                                                                     24          HEVARICTO MORALEZ                                 000001N00000000000000000000000000000000000000000000000000                                                                                                                                                           00000000000000000000000000000000000000000                                                                                                                                                                                                                                                          000000                                                                                                                                                                                                                                                                                                                                                              000000        
DA000003498000000081580011872358MARIA                                             CABRERA                                                                         C00103017281              19420701036FS000000000000000000000000000000                                                  RESP 21 235                                                                                                                                           235         VILLA AGRICOLA                                    000001N00000000000000000000000000000000000000000000000000                                                                                                                                                           00000000000000000000000000000000000000000                                                                                                                                                                                                                                                          000000                                                                                                                                                                                                                                                                                                                                                              000000        
DA000003153200000279450032838924RAMON DARIO                                       VASQUEZ                                                                         C03100319353              19411212036MS000000000000000000000000000000                                                  C MANUEL DEJESUS                                                                                                                                      2           LAS MARIPOSA                                      000001N00000000000000000000000000000000000000000000000000                                                                                                                                                           00000000000000000000000000000000000000000                                                                                                                                                                                                                                                          000000                                                                                                                                                                                                                                                                                                                                                              000000        
DA000003471400000237530024836498MARTHA                                            ACOSTA                                                                          C01600008369              19420622036FC000000000000000000000000000000                                                  AMANZANA01                                                                                                                                            0           RECJOSE CONTRERA                                  000001N00000000000000000000000000000000000000000000000000                                                                                                                                                           00000000000000000000000000000000000000000                                                                                                                                                                                                                                                          000000                                                                                                                                                                                                                                                                                                                                                              000000        
DA000003320900000316710040109810MARIA YNES                                        CEPEDA                                                                          C04400026797              19560910036FC000000000000000000000000000000                                                  ENTRADA DE LOS ARROYOS 38                                                                                                                             48          EL ASILO                                          000044N00000000000000000000000000000000000000000000000000                                                                                                                                                           00000000000000000000000000000000000000000                                                                                                                                                                                                                                                          000000                                                                                                                                                                                                                                                                                                                                                              000000        
DA000003641800000015730014731381LUZ VIRGINIA                                      MEDRANO                                                                         C00100353580              19471218036FS000000000000000000000000000000                                                  CW MANZ 1                                                                                                                                             202         DISTRITO NACIONAL                                 000001N00000000000000000000000000000000000000000000000000                                                                                                                                                           00000000000000000000000000000000000000000                                                                                                                                                                                                                                                          000000                                                                                                                                                                                                                                                                                                                                                              000000        
DA000003470900000232790024164591LUZ MARIA                                         MONTES DE OCA                                                                   C01200126504              19310709036FS000000000000000000000000000000                                                  HERMANOS DELIGNE                                                                                                                                      C2          DISTRITO NACIONAL                                 000001N00000000000000000000000000000000000000000000000000                                                                                                                                                           00000000000000000000000000000000000000000                                                                                                                                                                                                                                                          000000                                                                                                                                                                                                                                                                                                                                                              000000        
DA000003584800000981640015035584SANTIAGO RAFAEL                                   BERRIDO                                                                         C00100982214              19390127036MC000000000000000000000000000000                                                  MUSTAFA KEMAL ATATUK 10                                                                                                                               10          LA ARBOLEDA                                       000001N00000000000000000000000000000000000000000000000000                                                                                                                                                           00000000000000000000000000000000000000000                                                                                                                                                                                                                                                          000000                                                                                                                                                                                                                                                                                                                                                              000000        
DA000003549400000049430005776117LEDA MERCEDES ISOLINA                             CONCEPCION                                                                      C00101436582              19421008036FC000000000000000000000000000000                                                  MUSTAFA KEMAL ATATUK 10                                                                                                                               10          NACO                                              000001N00000000000000000000000000000000000000000000000000                                                                                                                                                           00000000000000000000000000000000000000000                                                                                                                                                                                                                                                          000000                                                                                                                                                                                                                                                                                                                                                              000000        
DA000003501500000067630003551586FACUNDO                                           ALMONTE                                                                         C00102102613              19390131036MC000000000000000000000000000000                                                  RAMON CACERES                                                                                                                                         48          CRESTO REY                                        000001N00000000000000000000000000000000000000000000000000                                                                                                                                                           00000000000000000000000000000000000000000                                                                                                                                                                                                                                                          000000                                                                                                                                                                                                                                                                                                                                                              000000        
DA000003612900000026180008595753ONESIMA                                           PERALTA                                                                         C00100735018              19160418036FC000000000000000000000000000000                                                  BENIGNO DEL CASTILLO 10                                                                                                                               10          SAN CARLOS                                        000001N00000000000000000000000000000000000000000000000000                                                                                                                                                           00000000000000000000000000000000000000000                                                                                                                                                                                                                                                          000000                                                                                                                                                                                                                                                                                                                                                              000000        
DA000003429000000183060002020366MIGUELINA AURORA                                  LUNA                                                                            C00113421374              19391017036FC000000000000000000000000000000                                                  C0 , ESQ. 1RA                                                                                                                                         25A         BRISA 6TA                                         000223N00000000000000000000000000000000000000000000000000                                                                                                                                                           00000000000000000000000000000000000000000                                                                                                                                                                                                                                                          000000                                                                                                                                                                                                                                                                                                                                                              000000        
DA000003575300000054520002158488GILDA MARIA                                       HIDALGO                                                                         C00101554277              19360222036FC000000000000000000000000000000                                                  FRANCISCO PRAT,RAMIREZ                                                                                                                                819         CIUDAD DE LOS MILLONES (SAVICA)                   000001N00000000000000000000000000000000000000000000000000                                                                                                                                                           00000000000000000000000000000000000000000                                                                                                                                                                                                                                                          000000                                                                                                                                                                                                                                                                                                                                                              000000        
DA000003485600000994650002589933MARTINA                                           HERRERA                                                                         C00104283551              19440211036FS000000000000000000000000000000                                                  CLOS OLIVO, LA GRUA.                                                                                                                                  23          KM 13 DE LAS AMERICAS                             000223N00000000000000000000000000000000000000000000000000                                                                                                                                                           00000000000000000000000000000000000000000                                                                                                                                                                                                                                                          000000                                                                                                                                                                                                                                                                                                                                                              000000        
DA000003545900000689530000096445YSIDORO ANTONIO                                   HERNANDEZ                                                                       C00101903284              19450503036MS000000000000000000000000000000                                                  LOPEZ DE VEGA 111                                                                                                                                     111         LA FE                                             000001N00000000000000000000000000000000000000000000000000                                                                                                                                                           00000000000000000000000000000000000000000                                                                                                                                                                                                                                                          000000                                                                                                                                                                                                                                                                                                                                                              000000        
DA000003570400000050820006923147ZOILA CELESTE                                     ESTRELLA                                                                        C00101474518              19391012036FC000000000000000000000000000000                                                  ANA TERESA PARADAS 10                                                                                                                                 10          DISTRITO NACIONAL                                 000001N00000000000000000000000000000000000000000000000000                                                                                                                                                           00000000000000000000000000000000000000000                                                                                                                                                                                                                                                          000000                                                                                                                                                                                                                                                                                                                                                              000000        
DA000003531300000057000001126532ANA GERTRUDYS                                     DORREJO                                                                         C00101640183              19340317036FC000000000000000000000000000000                                                  PEDRO HENRRIQUE UREÑA                                                                                                                                 139         LAS ESPERRILLAS                                   000001N00000000000000000000000000000000000000000000000000                                                                                                                                                           00000000000000000000000000000000000000000                                                                                                                                                                                                                                                          000000                                                                                                                                                                                                                                                                                                                                                              000000        
DA000003645500000002870001125054ANGEL ASTENIO                                     POL                                                                             C00100046986              19410520036MC000000000000000000000000000000                                                  PINA 101                                                                                                                                              101         CIUDAD INTRAMUROS                                 000001N00000000000000000000000000000000000000000000000000                                                                                                                                                           00000000000000000000000000000000000000000                                                                                                                                                                                                                                                          000000                                                                                                                                                                                                                                                                                                                                                              000000        
DA000003223700000209250018098214MERCEDES                                          GOMEZ                                                                           C00200214203              19300505036FC000000000000000000000000000000                                                  PADRE AYALA 167                                                                                                                                       167         CENTRO DE LA CIUDAD                               000002N00000000000000000000000000000000000000000000000000                                                                                                                                                           00000000000000000000000000000000000000000                                                                                                                                                                                                                                                          000000                                                                                                                                                                                                                                                                                                                                                              000000        
DA000002488500000098640007056911JULIA                                             ALVAREZ                                                                         C00104165097              19480619036FS000000000000000000000000000000                                                  RESP 37                                                                                                                                               25          24 DE ABRIL                                       000001N00000000000000000000000000000000000000000000000000                                                                                                                                                           00000000000000000000000000000000000000000                                                                                                                                                                                                                                                          000000                                                                                                                                                                                                                                                                                                                                                              000000        
DA000003702500000111230003726580ALBA LUZ                                          MORROBEL                                                                        C00105015671              19430410036FS000000000000000000000000000000                                                  PRIMERA                                                                                                                                               13          AUT. 30 DE MAYO                                   000001N00000000000000000000000000000000000000000000000000                                                                                                                                                           00000000000000000000000000000000000000000                                                                                                                                                                                                                                                          000000                                                                                                                                                                                                                                                                                                                                                              000000        
DA000002662600000981530003260211LUCIA                                             BRUGAL                                                                          C00100966829              19180102036FC000000000000000000000000000000                                                  PRESIDENTE GONZALEZ 18                                                                                                                                18          NACO                                              000001N00000000000000000000000000000000000000000000000000                                                                                                                                                           00000000000000000000000000000000000000000                                                                                                                                                                                                                                                          000000                                                                                                                                                                                                                                                                                                                                                              000000        
DA000001816500000110300006676327ANACLETO                                          RODRIGUEZ                                                                       C00104967369              19330713036MS000000000000000000000000000000                                                  PABLO NERUDA                                                                                                                                          N           PUERTO RICO                                       000001N00000000000000000000000000000000000000000000000000                                                                                                                                                           00000000000000000000000000000000000000000                                                                                                                                                                                                                                                          000000                                                                                                                                                                                                                                                                                                                                                              000000        
DA000003453200000083130008705634JESUS                                             CRUZ                                                                            C00103178992              19450805036MC000000000000000000000000000000                                                  MANZANA 3949                                                                                                                                          33          SAVICA DE MENDOZA                                 000223N00000000000000000000000000000000000000000000000000                                                                                                                                                           00000000000000000000000000000000000000000                                                                                                                                                                                                                                                          000000                                                                                                                                                                                                                                                                                                                                                              000000        
DA000001760900000138370003574357FREDESVINDA                                       TERRERO                                                                         C00106766496              19481203036FC000000000000000000000000000000                                                  C                                                                                                                                                     12          MANOGUAYABO                                       000001N00000000000000000000000000000000000000000000000000                                                                                                                                                           00000000000000000000000000000000000000000                                                                                                                                                                                                                                                          000000                                                                                                                                                                                                                                                                                                                                                              000000        
DA000002336300000076120017105410DOMINGO ANTONIO                                   DIPLAN                                                                          C00102620796              19440703036MS000000000000000000000000000000                                                  MAXIMO GRULLON                                                                                                                                        39A         VILLA CONSUELO                                    000001N00000000000000000000000000000000000000000000000000                                                                                                                                                           00000000000000000000000000000000000000000                                                                                                                                                                                                                                                          000000                                                                                                                                                                                                                                                                                                                                                              000000        
DA000001741800001207690012924035MARIA DOLORES                                     VALERA                                                                          C00107065781              19351020036FS000000000000000000000000000000                                                  LUIS ROJAS                                                                                                                                            22          KM 12 CARRETERA SANCHEZ                           000001N00000000000000000000000000000000000000000000000000                                                                                                                                                           00000000000000000000000000000000000000000                                                                                                                                                                                                                                                          000000                                                                                                                                                                                                                                                                                                                                                              000000        
DA000003225400000210660021336080SANTA ANACLETA                                    MATOS                                                                           C00200370047              19540715036FS000000000000000000000000000000                                                  PRIVADA                                                                                                                                               52          MADRE VIEJA                                       000002N00000000000000000000000000000000000000000000000000                                                                                                                                                           00000000000000000000000000000000000000000                                                                                                                                                                                                                                                          000000                                                                                                                                                                                                                                                                                                                                                              000000        
DA000003303700000264540026944928DOMINGA                                           GONZALEZ                                                                        C02500001512              19290127036FS000000000000000000000000000000                                                  GRAL. CABRAL 7                                                                                                                                        7           EL RINCON                                         000025N00000000000000000000000000000000000000000000000000                                                                                                                                                           00000000000000000000000000000000000000000                                                                                                                                                                                                                                                          000000                                                                                                                                                                                                                                                                                                                                                              000000        
DA000003223800000209200020233374MARIA ANA                                         CARO                                                                            C00200212009              19600530036FS000000000000000000000000000000                                                  HERCULES                                                                                                                                              1           MADRE VIEJA NORTE                                 000002N00000000000000000000000000000000000000000000000000                                                                                                                                                           00000000000000000000000000000000000000000                                                                                                                                                                                                                                                          000000                                                                                                                                                                                                                                                                                                                                                              000000        
DA000000198600000869800033214480LEONCIO ANTONIO                                   RODRIGUEZ                                                                       C03400171900              19280912036MS000000000000000000000000000000                                                  SN                                                                                                                                                    17          SIBILIA                                           000001N00000000000000000000000000000000000000000000000000                                                                                                                                                           00000000000000000000000000000000000000000                                                                                                                                                                                                                                                          000000                                                                                                                                                                                                                                                                                                                                                              000000        
DA000000789300000436900019956166ANTONIO                                           GUERRERO                                                                        C00200147676              19440510036MC000000000000000000000000000000                                                  MAXIMO GOMEZ                                                                                                                                          48          PUEBLO NUEVO                                      000002N00000000000000000000000000000000000000000000000000                                                                                                                                                           00000000000000000000000000000000000000000                                                                                                                                                                                                                                                          000000                                                                                                                                                                                                                                                                                                                                                              000000        
DA000003232300000214030017892786JORGE EDUARDO                                     CAREY                                                                           C00200769834              19410214036MC000000000000000000000000000000                                                  RESP. FLORENCIO ARAUJO 17A                                                                                                                            17A         LAVA PIES                                         000002N00000000000000000000000000000000000000000000000000                                                                                                                                                           00000000000000000000000000000000000000000                                                                                                                                                                                                                                                          000000                                                                                                                                                                                                                                                                                                                                                              000000        
DA000003232700000443400023902341VIRGILIO                                          CORPORAN                                                                        C02000000261              19530204036MS000000000000000000000000000000                                                  DOMINGO VALERA                                                                                                                                        19          27 DE FEBRERO                                     000002N00000000000000000000000000000000000000000000000000                                                                                                                                                           00000000000000000000000000000000000000000                                                                                                                                                                                                                                                          000000                                                                                                                                                                                                                                                                                                                                                              000000        
DA000000935900000783050050445925EMILIO                                            COCA                                                                            C08400053156              19440404036MS000000000000000000000000000000                                                  CARRETERA SANCHEZ                                                                                                                                     391         SANTA ANA                                         000003N00000000000000000000000000000000000000000000000000                                                                                                                                                           00000000000000000000000000000000000000000                                                                                                                                                                                                                                                          000000                                                                                                                                                                                                                                                                                                                                                              000000        
DA000000333400000278330035654778ROMILIO DE JESUS                                  JIMENEZ                                                                         C03100228141              19511219036MC000000000000000000000000000000                                                  5, VILLA MAGISTERIAL                                                                                                                                  0           SANTIAGO                                          000031N00000000000000000000000000000000000000000000000000                                                                                                                                                           00000000000000000000000000000000000000000                                                                                                                                                                                                                                                          000000                                                                                                                                                                                                                                                                                                                                                              000000        
DA000001237100000878700044716266GREGORIO                                          ALMONTE                                                                         C05400705629              19230513036MS000000000000000000000000000000                                                  AGUACATE ARRIBA                                                                                                                                       36          LAS LAGUNAS                                       000054N00000000000000000000000000000000000000000000000000                                                                                                                                                           00000000000000000000000000000000000000000                                                                                                                                                                                                                                                          000000                                                                                                                                                                                                                                                                                                                                                              000000        
DA000001267900000342520043791985RAMON SEVERINO                                    ESCOBOZA                                                                        C05400245428              19390108036MS000000000000000000000000000000                                                  SAN VICTOR ABAJO                                                                                                                                      63          MOCA                                              000054N00000000000000000000000000000000000000000000000000                                                                                                                                                           00000000000000000000000000000000000000000                                                                                                                                                                                                                                                          000000                                                                                                                                                                                                                                                                                                                                                              000000        
DA000003087800000867860037161556JOSE RAFAEL                                       ALMONTE                                                                         C03101799348              19280821036MC000000000000000000000000000000                                                  LOA CIRUELOS                                                                                                                                          0           CARRETERA DE BAITOA                               000031N00000000000000000000000000000000000000000000000000                                                                                                                                                           00000000000000000000000000000000000000000                                                                                                                                                                                                                                                          000000                                                                                                                                                                                                                                                                                                                                                              000000        
DA000002699200000020680002336116AMAURY ALTAGRACIA                                 FRIAS                                                                           C00100579846              19480528036FC000000000000000000000000000000                                                  HERMANANO DELIN E                                                                                                                                     160         DN                                                000001N00000000000000000000000000000000000000000000000000                                                                                                                                                           00000000000000000000000000000000000000000                                                                                                                                                                                                                                                          000000                                                                                                                                                                                                                                                                                                                                                              000000        
DA000001613700000821080011802927MELIDO GABRIEL                                    JAVIER                                                                          C00107369662              19440405036MC000000000000000000000000000000                                                  PASEO                                                                                                                                                 2B          SABANA PERDIDA                                    000225N00000000000000000000000000000000000000000000000000                                                                                                                                                           00000000000000000000000000000000000000000                                                                                                                                                                                                                                                          000000                                                                                                                                                                                                                                                                                                                                                              000000        
DA000003873400001246700000000000AUGUSTO                                           CORDONES                                                                        C08500041788              19510115036MC000000000000000000000000000000                                                  AUGUSTO TAVAREZ                                                                                                                                       2           LA MALENA                                         000028N00000000000000000000000000000000000000000000000000                                                                                                                                                           00000000000000000000000000000000000000000                                                                                                                                                                                                                                                          000000                                                                                                                                                                                                                                                                                                                                                              000000        
DA000002761400000005410008566657ALTAGRACIA                                        TORRES                                                                          C00100098714              19440121036FS000000000000000000000000000000                                                  RETAURACION                                                                                                                                           04          DN                                                000001N00000000000000000000000000000000000000000000000000                                                                                                                                                           00000000000000000000000000000000000000000                                                                                                                                                                                                                                                          000000                                                                                                                                                                                                                                                                                                                                                              000000        
DA000002692200000022450006829302MIRIAM DE LOS                                     SANTOS                                                                          C00100622919              19560203036FS000000000000000000000000000000                                                  SANTIAGO                                                                                                                                              302         DN                                                000001N00000000000000000000000000000000000000000000000000                                                                                                                                                           00000000000000000000000000000000000000000                                                                                                                                                                                                                                                          000000                                                                                                                                                                                                                                                                                                                                                              000000        
DA000002702200000020090005681884CELESTE ALTAGRACIA                                SAVIDON                                                                         C00100567023              19420217036FS000000000000000000000000000000                                                  PADRE BILLINI                                                                                                                                         606         DN                                                000001N00000000000000000000000000000000000000000000000000                                                                                                                                                           00000000000000000000000000000000000000000                                                                                                                                                                                                                                                          000000                                                                                                                                                                                                                                                                                                                                                              000000        
DA000003079300000250120024539663JOSE                                              MEDINA                                                                          C02000076394              19350722036MS000000000000000000000000000000                                                  SANTA RITA                                                                                                                                            40          DN                                                000001N00000000000000000000000000000000000000000000000000                                                                                                                                                           00000000000000000000000000000000000000000                                                                                                                                                                                                                                                          000000                                                                                                                                                                                                                                                                                                                                                              000000        
DA000001481400000241030023488346MEREGILDO                                         MARTINEZ                                                                        C01800051649              19290413036MC000000000000000000000000000000                                                  AV. LUPERON                                                                                                                                           03          30 DE MAYO                                        000018N00000000000000000000000000000000000000000000000000                                                                                                                                                           00000000000000000000000000000000000000000                                                                                                                                                                                                                                                          000000                                                                                                                                                                                                                                                                                                                                                              000000        
DA000003868000001268710000000000ANDRES                                            DE LEON                                                                         C06800102300              19331110036MS000000000000000000000000000000                                                  SAGRARIO DIAZ                                                                                                                                         35          LAS 80 CASITAS                                    000082N00000000000000000000000000000000000000000000000000                                                                                                                                                           00000000000000000000000000000000000000000                                                                                                                                                                                                                                                          000000                                                                                                                                                                                                                                                                                                                                                              000000        
DA000002950100001073760015275130LUIS ALBERTO                                      ESPINOSA                                                                        C00108862509              19410904036MS000000000000000000000000000000                                                  SAN JUAN BAUTISTA DE LA SALLE                                                                                                                         12          RESPASO MIRADOR                                   000001N00000000000000000000000000000000000000000000000000                                                                                                                                                           00000000000000000000000000000000000000000                                                                                                                                                                                                                                                          000000                                                                                                                                                                                                                                                                                                                                                              000000        
DA000001259100000344040044169321MARIA ELENA                                       GOMEZ                                                                           C05400562798              19440324036FS000000000000000000000000000000                                                  LA ISLETA                                                                                                                                             SN          CACIQUE SOLEDAD                                   000001N00000000000000000000000000000000000000000000000000                                                                                                                                                           00000000000000000000000000000000000000000                                                                                                                                                                                                                                                          000000                                                                                                                                                                                                                                                                                                                                                              000000        
DA000003102000000120450009389078RAFAEL                                            THEN                                                                            C00105533384              19361024036MS000000000000000000000000000000                                                  1RA                                                                                                                                                   30          PANTOJA                                           000001N00000000000000000000000000000000000000000000000000                                                                                                                                                           00000000000000000000000000000000000000000                                                                                                                                                                                                                                                          000000                                                                                                                                                                                                                                                                                                                                                              000000        
DA000001843700000108700009872170NORMA LOURDES                                     THEN                                                                            C00104879291              19371105036FS000000000000000000000000000000                                                  SN                                                                                                                                                    33A         LOS TRES BRAZOS JARDINES DEL OZAMA                000223N00000000000000000000000000000000000000000000000000                                                                                                                                                           00000000000000000000000000000000000000000                                                                                                                                                                                                                                                          000000                                                                                                                                                                                                                                                                                                                                                              000000        
DA000002495500000098320010449336CARMEN                                            GARCIA                                                                          C00104140546              19520418036FS000000000000000000000000000000                                                  C 6                                                                                                                                                   1           24 DE ABRIL                                       000001N00000000000000000000000000000000000000000000000000                                                                                                                                                           00000000000000000000000000000000000000000                                                                                                                                                                                                                                                          000000                                                                                                                                                                                                                                                                                                                                                              000000        
DA000003844400001276120000000000JOSE DEL CARMEN                                   TORRES                                                                          C04600009965              19490716036MS000000000000000000000000000000                                                  RESTAURACON                                                                                                                                           105         CENTRO DE LA CIUDAD                               000034N00000000000000000000000000000000000000000000000000                                                                                                                                                           00000000000000000000000000000000000000000                                                                                                                                                                                                                                                          000000                                                                                                                                                                                                                                                                                                                                                              000000        
DA000003666000000166110017298420LIDIA MARIA                                       MINYETY                                                                         C00108809898              19401202036FS000000000000000000000000000000                                                  ROSALIA VIDAL                                                                                                                                         40          SAN GERONIMO                                      000001N00000000000000000000000000000000000000000000000000                                                                                                                                                           00000000000000000000000000000000000000000                                                                                                                                                                                                                                                          000000                                                                                                                                                                                                                                                                                                                                                              000000        
DA000003123300000762680030779644SAYDA MERCEDES                                    RAMOS                                                                           C03400008441              19561119036FS000000000000000000000000000000                                                  DOLORES VDA. BOGAERT                                                                                                                                  4           BATEY BOGAERT                                     000001N00000000000000000000000000000000000000000000000000                                                                                                                                                           00000000000000000000000000000000000000000                                                                                                                                                                                                                                                          000000                                                                                                                                                                                                                                                                                                                                                              000000        
DA000002774300001207090002290205RAFAEL ANTONIO                                    ESCOTO                                                                          C00100079342              19410305036MC000000000000000000000000000000                                                  AV. 3RA.                                                                                                                                              59          CIUDAD INTRAMUROS                                 000001N00000000000000000000000000000000000000000000000000                                                                                                                                                           00000000000000000000000000000000000000000                                                                                                                                                                                                                                                          000000                                                                                                                                                                                                                                                                                                                                                              000000        
DA000001872800000104840008787775SULI                                              RODRIGUEZ                                                                       C00104663018              19270605036MS000000000000000000000000000000                                                  17 i                                                                                                                                                  29          LOS MINA SUR                                      000223N00000000000000000000000000000000000000000000000000                                                                                                                                                           00000000000000000000000000000000000000000                                                                                                                                                                                                                                                          000000                                                                                                                                                                                                                                                                                                                                                              000000        
