EPN52
DA000003889000001246530000000000MANUEL RAMON                                      ROSARIO                                                                         C00100688365              19570909036MS000000000000000000000000000000                                                  ROSA DUARTE                                                                                                                                           36          INDEPENDENCIA ( CIUDAD NUEVA Y GAZCUE )           000001N00000000000000000000000000000000000000000000000000                                                                                                                                                           00000000000000000000000000000000000000000                                                                                                                                                                                                                                                          000000                                                                                                                                                                                                                                                                                                                                                              000000        
DA000003746400001235770000000000MIGUEL ANTONIO                                    SOTO                                                                            C00103821179              19390811036MS000000000000000000000000000000                                                  CALLE 1RA, MANZ. M                                                                                                                                    26M         SAN FELIPE                                        000001N00000000000000000000000000000000000000000000000000                                                                                                                                                           00000000000000000000000000000000000000000                                                                                                                                                                                                                                                          000000                                                                                                                                                                                                                                                                                                                                                              000000        
DA000003164400000292010030516430ANA FRANCISCA                                     GOMEZ                                                                           C03101420242              19431110036FS000000000000000000000000000000                                                  AV FRANCO BIDO                                                                                                                                        104         NIBAJE                                            000031N00000000000000000000000000000000000000000000000000                                                                                                                                                           00000000000000000000000000000000000000000                                                                                                                                                                                                                                                          000000                                                                                                                                                                                                                                                                                                                                                              000000        
DA000003723300001239410000000000RAFAEL BOLIVAR                                    MESA                                                                            C00101452845              19350312036MS000000000000000000000000000000                                                  T ESQ, E                                                                                                                                              12          JOSE CONTRERAS                                    000001N00000000000000000000000000000000000000000000000000                                                                                                                                                           00000000000000000000000000000000000000000                                                                                                                                                                                                                                                          000000                                                                                                                                                                                                                                                                                                                                                              000000        
DA000003792800001238940000000000DIOSMINO                                          PEREZ                                                                           C00109826198              19390210036MS000000000000000000000000000000                                                  PROL. AMIAMA GOMEZ                                                                                                                                    81          VILLA JUANA                                       000001N00000000000000000000000000000000000000000000000000                                                                                                                                                           00000000000000000000000000000000000000000                                                                                                                                                                                                                                                          000000                                                                                                                                                                                                                                                                                                                                                              000000        
DA000003775500000147980000000000PEDRO ANDINO                                      NUÑEZ                                                                           C00107432577              19380404036MS000000000000000000000000000000                                                  LA PENITA                                                                                                                                             38          LA PE?ITA                                         000073N00000000000000000000000000000000000000000000000000                                                                                                                                                           00000000000000000000000000000000000000000                                                                                                                                                                                                                                                          000000                                                                                                                                                                                                                                                                                                                                                              000000        
DA000003534900000056680012861214MANUEL AQUILES                                    OGANDO                                                                          C00101628469              19260927036MC000000000000000000000000000000                                                  CFRANCISCO PRAT .RAMIREZ                                                                                                                              653         ENS. QUISQUEYA                                    000001N00000000000000000000000000000000000000000000000000                                                                                                                                                           00000000000000000000000000000000000000000                                                                                                                                                                                                                                                          000000                                                                                                                                                                                                                                                                                                                                                              000000        
DA000001203200000248800024114641ELADIO                                            VOLQUEZ                                                                         C02000015111              19380313036MS000000000000000000000000000000                                                  ANDRES PEREZ                                                                                                                                          06          SAN JOSE                                          000001N00000000000000000000000000000000000000000000000000                                                                                                                                                           00000000000000000000000000000000000000000                                                                                                                                                                                                                                                          000000                                                                                                                                                                                                                                                                                                                                                              000000        
DA000003342500001002620016372745LIDIA MARIA                                       DE LOS SANTOS                                                                   C00106246432              19470928036FC000000000000000000000000000000                                                  PRIMERA LOS COQUITOS                                                                                                                                  20          BUENA VISTA 1RA                                   000225N00000000000000000000000000000000000000000000000000                                                                                                                                                           00000000000000000000000000000000000000000                                                                                                                                                                                                                                                          000000                                                                                                                                                                                                                                                                                                                                                              000000        
DA000003142600001039960036360537GLADYS MINERVA ALTAGRACIA                         VILLAMAN                                                                        C03100672157              19490712036FS000000000000000000000000000000                                                  19 DE MARZO                                                                                                                                           85          BARACOHA                                          000031N00000000000000000000000000000000000000000000000000                                                                                                                                                           00000000000000000000000000000000000000000                                                                                                                                                                                                                                                          000000                                                                                                                                                                                                                                                                                                                                                              000000        
DA000003628100000020930010207721MARIANO JOSE                                      LEBRON                                                                          C00100585249              19220803036MC000000000000000000000000000000                                                  ESTRELLETA                                                                                                                                            261         CIUDAD NUEVA                                      000001N00000000000000000000000000000000000000000000000000                                                                                                                                                           00000000000000000000000000000000000000000                                                                                                                                                                                                                                                          000000                                                                                                                                                                                                                                                                                                                                                              000000        
DA000000531600000747540025711511DIOGENES FRANCISCO                                VALDEZ                                                                          C02300317134              19380524036MC000000000000000000000000000000                                                  CASTILO                                                                                                                                               19          RESTAURACION                                      000001N00000000000000000000000000000000000000000000000000                                                                                                                                                           00000000000000000000000000000000000000000                                                                                                                                                                                                                                                          000000                                                                                                                                                                                                                                                                                                                                                              000000        
DA000003493000000085890009776624JOSE RAMON                                        PIMENTEL                                                                        C00103334041              19550201036MS000000000000000000000000000000                                                  2DA                                                                                                                                                   16          PRL 27 DE FEBRERO                                 000001N00000000000000000000000000000000000000000000000000                                                                                                                                                           00000000000000000000000000000000000000000                                                                                                                                                                                                                                                          000000                                                                                                                                                                                                                                                                                                                                                              000000        
DA000001672400000061270015903811EDELMIRO                                          OGANDO                                                                          C00101815926              19340808036MC000000000000000000000000000000                                                  C SAN JUAN DE LA CRUZ                                                                                                                                 9           GUARICANO                                         000001N00000000000000000000000000000000000000000000000000                                                                                                                                                           00000000000000000000000000000000000000000                                                                                                                                                                                                                                                          000000                                                                                                                                                                                                                                                                                                                                                              000000        
DA000001831300000111170016103273RAMON                                             SANCHEZ                                                                         C00105012173              19410724036MC000000000000000000000000000000                                                  FAUSTO MACEO                                                                                                                                          25          KATANGA                                           000001N00000000000000000000000000000000000000000000000000                                                                                                                                                           00000000000000000000000000000000000000000                                                                                                                                                                                                                                                          000000                                                                                                                                                                                                                                                                                                                                                              000000        
DA000002208200000055760009669356NAPOLEON                                          CABRAL                                                                          C00101596856              19241028036MC000000000000000000000000000000                                                  MARIO GARCIA ALVARADO                                                                                                                                 7           ENS. QUISQUEYA                                    000001N00000000000000000000000000000000000000000000000000                                                                                                                                                           00000000000000000000000000000000000000000                                                                                                                                                                                                                                                          000000                                                                                                                                                                                                                                                                                                                                                              000000        
DA000002839900000180960012412351JUAN FRANCISCO                                    DE JESUS                                                                        C00112288543              19250304036MC000000000000000000000000000000                                                  AV. LOPE DE VEGA                                                                                                                                      184         LA FE                                             000001N00000000000000000000000000000000000000000000000000                                                                                                                                                           00000000000000000000000000000000000000000                                                                                                                                                                                                                                                          000000                                                                                                                                                                                                                                                                                                                                                              000000        
DA000001732700000537770008396598CATALINA                                          TEJADA                                                                          C00107297970              19670728036FS000000000000000000000000000000                                                  N                                                                                                                                                     N           N                                                 000001N00000000000000000000000000000000000000000000000000                                                                                                                                                           00000000000000000000000000000000000000000                                                                                                                                                                                                                                                          000000                                                                                                                                                                                                                                                                                                                                                              000000        
DA000001633800000168120006250625RAMON                                             GUERRERO                                                                        C00108991068              19460713036MS000000000000000000000000000000                                                  MANOLO TAVAREZ JUSTO                                                                                                                                  7           SABANA PERDIDA                                    000001N00000000000000000000000000000000000000000000000000                                                                                                                                                           00000000000000000000000000000000000000000                                                                                                                                                                                                                                                          000000                                                                                                                                                                                                                                                                                                                                                              000000        
DA000002350000000078880005864957MANUEL EMILIO                                     LEDESMA                                                                         C00102805595              19330411036MS000000000000000000000000000000                                                  BARTOLOME COLON                                                                                                                                       76          VILLA JUANA                                       000001N00000000000000000000000000000000000000000000000000                                                                                                                                                           00000000000000000000000000000000000000000                                                                                                                                                                                                                                                          000000                                                                                                                                                                                                                                                                                                                                                              000000        
DA000003784500001241600000000000MARITZA MIGDALIA                                  DE LOS SANTOS                                                                   C00108623901              19560201036FC000000000000000000000000000000                                                  1RA                                                                                                                                                   11          LOS GIRASOLES I                                   000001N00000000000000000000000000000000000000000000000000                                                                                                                                                           00000000000000000000000000000000000000000                                                                                                                                                                                                                                                          000000                                                                                                                                                                                                                                                                                                                                                              000000        
DA000002078600000550330013373458HECTOR                                            GARCIA                                                                          C00109615781              19500816036MS000000000000000000000000000000                                                  3RA.                                                                                                                                                  71          VILLA DUARTE                                      000001N00000000000000000000000000000000000000000000000000                                                                                                                                                           00000000000000000000000000000000000000000                                                                                                                                                                                                                                                          000000                                                                                                                                                                                                                                                                                                                                                              000000        
DA000001563600000143260012936933LUIS MARIA                                        MARTINEZ                                                                        C00107172041              19370814036MS000000000000000000000000000000                                                  12                                                                                                                                                    4           CAMPO LINDO II, LA CALETA                         000001N00000000000000000000000000000000000000000000000000                                                                                                                                                           00000000000000000000000000000000000000000                                                                                                                                                                                                                                                          000000                                                                                                                                                                                                                                                                                                                                                              000000        
DA000002673800000032190014780380EDMUNDY                                           CAMILO                                                                          C00100953256              19370709036MC000000000000000000000000000000                                                  RESIDENCIAL DON TEOFILO II                                                                                                                            5A          URB. REAL                                         000001N00000000000000000000000000000000000000000000000000                                                                                                                                                           00000000000000000000000000000000000000000                                                                                                                                                                                                                                                          000000                                                                                                                                                                                                                                                                                                                                                              000000        
DA000003725600001240340000000000ENA ZORAIDA ESPERANZA                             BATISTA                                                                         C00101551364              19380130036FS000000000000000000000000000000                                                  K 3                                                                                                                                                   3           MANGANAGUA                                        000001N00000000000000000000000000000000000000000000000000                                                                                                                                                           00000000000000000000000000000000000000000                                                                                                                                                                                                                                                          000000                                                                                                                                                                                                                                                                                                                                                              000000        
DA000003130700000288210032509842FRANCISCO ANTONIO                                 HERNANDEZ                                                                       C03101081598              19480117036MS000000000000000000000000000000                                                  ENTRADA LA DELGADA 04                                                                                                                                 04          EL CERRO                                          000094N00000000000000000000000000000000000000000000000000                                                                                                                                                           00000000000000000000000000000000000000000                                                                                                                                                                                                                                                          000000                                                                                                                                                                                                                                                                                                                                                              000000        
DA000001669100000503430001275281PABLO                                             RAMIREZ                                                                         C00102298361              19521221036MS000000000000000000000000000000                                                  MANZANA G                                                                                                                                             48          SABANA PERDIDA                                    000225N00000000000000000000000000000000000000000000000000                                                                                                                                                           00000000000000000000000000000000000000000                                                                                                                                                                                                                                                          000000                                                                                                                                                                                                                                                                                                                                                              000000        
DA000003204700000739960022797015ALEJANDRO                                         GARCIA                                                                          C01200125480              19360424036MS000000000000000000000000000000                                                  AV. MONS.THOMAS F. REALLY                                                                                                                             00          LOS APARTAMENTOS                                  000012N00000000000000000000000000000000000000000000000000                                                                                                                                                           00000000000000000000000000000000000000000                                                                                                                                                                                                                                                          000000                                                                                                                                                                                                                                                                                                                                                              000000        
DA000001734100000534300015386820RITA EMILIA                                       ROMERO                                                                          C00106975758              19430111036FS000000000000000000000000000000                                                  CENTRAL                                                                                                                                               45          EL ABANICO                                        000224N00000000000000000000000000000000000000000000000000                                                                                                                                                           00000000000000000000000000000000000000000                                                                                                                                                                                                                                                          000000                                                                                                                                                                                                                                                                                                                                                              000000        
DA000003100300001225580010688097ANTONIO ROBINSON                                  FERNANDEZ                                                                       C00108366832              19430101036MC000000000000000000000000000000                                                  M9 27                                                                                                                                                 27          LOS ALCARRIZOS                                    000229N00000000000000000000000000000000000000000000000000                                                                                                                                                           00000000000000000000000000000000000000000                                                                                                                                                                                                                                                          000000                                                                                                                                                                                                                                                                                                                                                              000000        
DA000001718400000148950014096723JUAN                                              POLANCO                                                                         C00107499956              19450505036MS000000000000000000000000000000                                                  PROYECTO                                                                                                                                              78          LOS ALCARRIZOS                                    000224N00000000000000000000000000000000000000000000000000                                                                                                                                                           00000000000000000000000000000000000000000                                                                                                                                                                                                                                                          000000                                                                                                                                                                                                                                                                                                                                                              000000        
DA000000034000000169730003957724BERIDIANA                                         SANCHEZ                                                                         C00109152876              19500212036FS000000000000000000000000000000                                                  PROYECTO                                                                                                                                              20          LANDIA                                            000229N00000000000000000000000000000000000000000000000000                                                                                                                                                           00000000000000000000000000000000000000000                                                                                                                                                                                                                                                          000000                                                                                                                                                                                                                                                                                                                                                              000000        
DA000002366900000080410014926023AUDOSIO                                           REYES                                                                           C00102922341              19390415036MS000000000000000000000000000000                                                  PRIMERA                                                                                                                                               84          MIRADOR SUR                                       000001N00000000000000000000000000000000000000000000000000                                                                                                                                                           00000000000000000000000000000000000000000                                                                                                                                                                                                                                                          000000                                                                                                                                                                                                                                                                                                                                                              000000        
DA000000808600000204680020212174CARMEN ONILDA                                     AMANCIO                                                                         C00200040350              19581216036FS000000000000000000000000000000                                                  CORPORAN                                                                                                                                              4           SN                                                000002N00000000000000000000000000000000000000000000000000                                                                                                                                                           00000000000000000000000000000000000000000                                                                                                                                                                                                                                                          000000                                                                                                                                                                                                                                                                                                                                                              000000        
DA000000765300000209140018097993SONIA ALTAGRACIA                                  SUAZO                                                                           C00200210227              19420121036FC000000000000000000000000000000                                                  GENERAL LEGER                                                                                                                                         65          SN                                                000002N00000000000000000000000000000000000000000000000000                                                                                                                                                           00000000000000000000000000000000000000000                                                                                                                                                                                                                                                          000000                                                                                                                                                                                                                                                                                                                                                              000000        
DA000000971700000219550021675835MAURA MANUELA                                     ARIAS                                                                           C00300726536              19300213036FS000000000000000000000000000000                                                  CARRTERA SANCHEZ, KM. 2 12                                                                                                                            69          ESCONDIDO                                         000003N00000000000000000000000000000000000000000000000000                                                                                                                                                           00000000000000000000000000000000000000000                                                                                                                                                                                                                                                          000000                                                                                                                                                                                                                                                                                                                                                              000000        
DA000000284500000866480033423322ALEJANDRO                                         FRANCISCO                                                                       C03100958853              19390228036MS000000000000000000000000000000                                                  MARIA T. SANCHEZ                                                                                                                                      106         SN                                                000031N00000000000000000000000000000000000000000000000000                                                                                                                                                           00000000000000000000000000000000000000000                                                                                                                                                                                                                                                          000000                                                                                                                                                                                                                                                                                                                                                              000000        
DA000003066200000474020048253028OSVALDO ANTONIO                                   PADILLA                                                                         C06800030329              19400304036MC000000000000000000000000000000                                                  PROL. FANTINO FALCON                                                                                                                                  SN          SN                                                000001N00000000000000000000000000000000000000000000000000                                                                                                                                                           00000000000000000000000000000000000000000                                                                                                                                                                                                                                                          000000                                                                                                                                                                                                                                                                                                                                                              000000        
DA000003496100000084420003606811JOSE ALTAGRACIA                                   MATEO                                                                           C00103272357              19300309036MC000000000000000000000000000000                                                  AV. DE LOS MARTIRES                                                                                                                                   172         LAS FLORES ( ENS. LA FE CRISTO REY Y ARROYO HONDO 000001N00000000000000000000000000000000000000000000000000                                                                                                                                                           00000000000000000000000000000000000000000                                                                                                                                                                                                                                                          000000                                                                                                                                                                                                                                                                                                                                                              000000        
DA000001817000000110720001342360FRANCISCO ANTONIO                                 DE LA CRUZ                                                                      C00104994538              19231010036MC000000000000000000000000000000                                                  FRAY BARTOLOME DE LAS CASAS                                                                                                                           136         LOS MINA                                          000223N00000000000000000000000000000000000000000000000000                                                                                                                                                           00000000000000000000000000000000000000000                                                                                                                                                                                                                                                          000000                                                                                                                                                                                                                                                                                                                                                              000000        
DA000003843300001264990000000000ABELARDO                                          OGANDO                                                                          C04300007848              19390619036MC000000000000000000000000000000                                                  SOFIA MONTAÑO                                                                                                                                         9           VILLA AURA                                        000224N00000000000000000000000000000000000000000000000000                                                                                                                                                           00000000000000000000000000000000000000000                                                                                                                                                                                                                                                          000000                                                                                                                                                                                                                                                                                                                                                              000000        
DA000002617700000042510014810975MARIA DEL CARMEN                                  PEREZ                                                                           C00101200863              19230102036FS000000000000000000000000000000                                                  AV. INDEPENDENCIA                                                                                                                                     SN          HONDURAS                                          000001N00000000000000000000000000000000000000000000000000                                                                                                                                                           00000000000000000000000000000000000000000                                                                                                                                                                                                                                                          000000                                                                                                                                                                                                                                                                                                                                                              000000        
DA000003138100000278780036892841JOSE ARISMENDY                                    HERNANDEZ                                                                       C03100266711              19391108036MS000000000000000000000000000000                                                  23                                                                                                                                                    4           SN                                                000031N00000000000000000000000000000000000000000000000000                                                                                                                                                           00000000000000000000000000000000000000000                                                                                                                                                                                                                                                          000000                                                                                                                                                                                                                                                                                                                                                              000000        
DA000002554000000053900004297290PABLO                                             REYES                                                                           C00101527356              19330729036MS000000000000000000000000000000                                                  CARMEN MENDOZA DE CORNIEL                                                                                                                             18          MIRADOR NORTE                                     000001N00000000000000000000000000000000000000000000000000                                                                                                                                                           00000000000000000000000000000000000000000                                                                                                                                                                                                                                                          000000                                                                                                                                                                                                                                                                                                                                                              000000        
DA000000667700000733210018338284MANUEL ANTONIO                                    PEGUERO                                                                         C00200603827              19300803036MS000000000000000000000000000000                                                  PRINCIPAL                                                                                                                                             803         SN                                                000002N00000000000000000000000000000000000000000000000000                                                                                                                                                           00000000000000000000000000000000000000000                                                                                                                                                                                                                                                          000000                                                                                                                                                                                                                                                                                                                                                              000000        
DA000002325000000074000015119100ISABEL                                            ALMONTE                                                                         C00102480555              19460806036FC000000000000000000000000000000                                                  MANUEL UBALDO GOMEZ                                                                                                                                   37          SN                                                000001N00000000000000000000000000000000000000000000000000                                                                                                                                                           00000000000000000000000000000000000000000                                                                                                                                                                                                                                                          000000                                                                                                                                                                                                                                                                                                                                                              000000        
DA000003677600000555010014701248MANUEL ELIGIO                                     PEREZ                                                                           C00114218696              19521205036MC000000000000000000000000000000                                                  MANZ. I                                                                                                                                               21          LUCERNA                                           000223N00000000000000000000000000000000000000000000000000                                                                                                                                                           00000000000000000000000000000000000000000                                                                                                                                                                                                                                                          000000                                                                                                                                                                                                                                                                                                                                                              000000        
DA000003412800000122750012850803HILARIO ANTONIO                                   ACOSTA                                                                          C00105676068              19390114036MS000000000000000000000000000000                                                  F 8 8                                                                                                                                                 8           N                                                 000223N00000000000000000000000000000000000000000000000000                                                                                                                                                           00000000000000000000000000000000000000000                                                                                                                                                                                                                                                          000000                                                                                                                                                                                                                                                                                                                                                              000000        
DA000003251000000561250019208111DIGNA ADALELLI                                    BAUTISTA                                                                        C00300013364              19740520036FS000000000000000000000000000000                                                  PROL. MAXIMO GOMEZ                                                                                                                                    101         RIVIERA DEL SUR                                   000003N00000000000000000000000000000000000000000000000000                                                                                                                                                           00000000000000000000000000000000000000000                                                                                                                                                                                                                                                          000000                                                                                                                                                                                                                                                                                                                                                              000000        
DA000001901500000814330000364495BIENVENIDO                                        DE JESUS                                                                        C00105727333              19470308036MS000000000000000000000000000000                                                  PRIMERA                                                                                                                                               96A         VILLA DUARTE                                      000223N00000000000000000000000000000000000000000000000000                                                                                                                                                           00000000000000000000000000000000000000000                                                                                                                                                                                                                                                          000000                                                                                                                                                                                                                                                                                                                                                              000000        
DA000002351400000079200000195418ELBA JUSTINA                                      MATIAS                                                                          C00102833449              19360610036FS000000000000000000000000000000                                                  ALEXANDER FLEMING                                                                                                                                     32          ENS. LA FE                                        000001N00000000000000000000000000000000000000000000000000                                                                                                                                                           00000000000000000000000000000000000000000                                                                                                                                                                                                                                                          000000                                                                                                                                                                                                                                                                                                                                                              000000        
DA000002181500000082680003591926JOSE RAMON                                        LOPEZ                                                                           C00103155354              19370808036MS000000000000000000000000000000                                                  SAN PABLO KM 13 12                                                                                                                                    40          LAS AMERICAS                                      000223N00000000000000000000000000000000000000000000000000                                                                                                                                                           00000000000000000000000000000000000000000                                                                                                                                                                                                                                                          000000                                                                                                                                                                                                                                                                                                                                                              000000        
DA000003747000001274040000000000MANOLO                                            CAYETANO                                                                        C00103856514              19450311036MS000000000000000000000000000000                                                  6 NORTE                                                                                                                                               10          ENS. LUPERON                                      000001N00000000000000000000000000000000000000000000000000                                                                                                                                                           00000000000000000000000000000000000000000                                                                                                                                                                                                                                                          000000                                                                                                                                                                                                                                                                                                                                                              000000        
DA000000452400000064050005307518MARTHA NIEVES                                     GRULLON                                                                         C00101940682              19290805036FC000000000000000000000000000000                                                  8                                                                                                                                                     9F          RETIRO PRIMERO                                    000031N00000000000000000000000000000000000000000000000000                                                                                                                                                           00000000000000000000000000000000000000000                                                                                                                                                                                                                                                          000000                                                                                                                                                                                                                                                                                                                                                              000000        
DA000003717800001269690000000000ZOILA AGAPITA                                     BISONO                                                                          C00101106631              19560921036FS000000000000000000000000000000                                                  JOSE CONTRERAS                                                                                                                                        191A        ENSANCHE LA PAZ                                   000001N00000000000000000000000000000000000000000000000000                                                                                                                                                           00000000000000000000000000000000000000000                                                                                                                                                                                                                                                          000000                                                                                                                                                                                                                                                                                                                                                              000000        
DA000003889200000734870000000000RADHAMES                                          CASTILLO                                                                        C00300203494              19451211036MS000000000000000000000000000000                                                  12                                                                                                                                                    58          HAINAMOSA                                         000223N00000000000000000000000000000000000000000000000000                                                                                                                                                           00000000000000000000000000000000000000000                                                                                                                                                                                                                                                          000000                                                                                                                                                                                                                                                                                                                                                              000000        
DA000002769300000680230016955703DIGNA MARIA DE JESUS                              MARTINEZ                                                                        C00100157866              19561121036FC000000000000000000000000000000                                                  VICENTE CELESTINO DUARTE                                                                                                                              103         ATARAZANA                                         000001N00000000000000000000000000000000000000000000000000                                                                                                                                                           00000000000000000000000000000000000000000                                                                                                                                                                                                                                                          000000                                                                                                                                                                                                                                                                                                                                                              000000        
DA000000737000000212910021031920RAFAEL                                            VENTURA                                                                         C00200640829              19261026036MC000000000000000000000000000000                                                  1RA                                                                                                                                                   33          VILLA FEDERICO                                    000002N00000000000000000000000000000000000000000000000000                                                                                                                                                           00000000000000000000000000000000000000000                                                                                                                                                                                                                                                          000000                                                                                                                                                                                                                                                                                                                                                              000000        
DA000000782500000206690020462265HECTOR GUARIONEX                                  MARTINEZ                                                                        C00200119139              19290412036MS000000000000000000000000000000                                                  GENERAL LEGER                                                                                                                                         15          SN                                                000002N00000000000000000000000000000000000000000000000000                                                                                                                                                           00000000000000000000000000000000000000000                                                                                                                                                                                                                                                          000000                                                                                                                                                                                                                                                                                                                                                              000000        
DA000002973800000541360001497870CARMEN ELISA                                      CRUZ                                                                            C00107791105              19510527036FS000000000000000000000000000000                                                  9                                                                                                                                                     307         MIRADOR NORTE                                     000001N00000000000000000000000000000000000000000000000000                                                                                                                                                           00000000000000000000000000000000000000000                                                                                                                                                                                                                                                          000000                                                                                                                                                                                                                                                                                                                                                              000000        
DA000002467200000094690000234633AYDA CELESTE                                      CUEVAS                                                                          C00103901153              19461215036FS000000000000000000000000000000                                                  ELIAS PIÑA                                                                                                                                            137         ENS. ESPAILLAT                                    000001N00000000000000000000000000000000000000000000000000                                                                                                                                                           00000000000000000000000000000000000000000                                                                                                                                                                                                                                                          000000                                                                                                                                                                                                                                                                                                                                                              000000        
DA000003729600001247400000000000ANGELA                                            HENRIQUEZ                                                                       C00101875292              19470302036FC000000000000000000000000000000                                                  1RA                                                                                                                                                   21          LA FE                                             000001N00000000000000000000000000000000000000000000000000                                                                                                                                                           00000000000000000000000000000000000000000                                                                                                                                                                                                                                                          000000                                                                                                                                                                                                                                                                                                                                                              000000        
DA000003807500001274250000000000ALFONSO                                           BELLO                                                                           C00200769537              19440126036MS000000000000000000000000000000                                                  14                                                                                                                                                    43          PUEBLO NUEVO                                      000002N00000000000000000000000000000000000000000000000000                                                                                                                                                           00000000000000000000000000000000000000000                                                                                                                                                                                                                                                          000000                                                                                                                                                                                                                                                                                                                                                              000000        
DA000003732700001255550000000000MARCELINA JULIA                                   TEJADA                                                                          C00102188547              19480601036FS000000000000000000000000000000                                                  CALLE 1RA                                                                                                                                             54          CRISTO REY                                        000001N00000000000000000000000000000000000000000000000000                                                                                                                                                           00000000000000000000000000000000000000000                                                                                                                                                                                                                                                          000000                                                                                                                                                                                                                                                                                                                                                              000000        
DA000001831000001207100009889813HEROINA                                           PAREDES                                                                         C00105026579              19461214036FS000000000000000000000000000000                                                  PEATON 5                                                                                                                                              0           LOTERIA SAVICA                                    000001N00000000000000000000000000000000000000000000000000                                                                                                                                                           00000000000000000000000000000000000000000                                                                                                                                                                                                                                                          000000                                                                                                                                                                                                                                                                                                                                                              000000        
DA000001724900000718210001589228MANUELA                                           FELIZ                                                                           C00107154643              19520414036FS000000000000000000000000000000                                                  MANZANA 17                                                                                                                                            7B          LAS CAOBAS                                        000001N00000000000000000000000000000000000000000000000000                                                                                                                                                           00000000000000000000000000000000000000000                                                                                                                                                                                                                                                          000000                                                                                                                                                                                                                                                                                                                                                              000000        
DA000000633700000569110024793402IRMA MARIA                                        DE                                                                              C01200477881              19380119036FS000000000000000000000000000000                                                  MARIANO RODRIGUEZ OBJIO                                                                                                                               58A         24 DE ABRIL                                       000001N00000000000000000000000000000000000000000000000000                                                                                                                                                           00000000000000000000000000000000000000000                                                                                                                                                                                                                                                          000000                                                                                                                                                                                                                                                                                                                                                              000000        
DA000000244300001066910032652415DARIO ANTONIO                                     RODRIGUEZ                                                                       C03600098580              19480828036MS000000000000000000000000000000                                                  PRESIDENTE GONZALEZ ESQ. TIRADENTES                                                                                                                   10          NACO                                              000001N00000000000000000000000000000000000000000000000000                                                                                                                                                           00000000000000000000000000000000000000000                                                                                                                                                                                                                                                          000000                                                                                                                                                                                                                                                                                                                                                              000000        
DA000001259100000344040044169321MARIA ELENA                                       GOMEZ                                                                           C05400562798              19440324036FS000000000000000000000000000000                                                  LA ISLETA                                                                                                                                             SN          CACIQUE SOLEDAD                                   000001N00000000000000000000000000000000000000000000000000                                                                                                                                                           00000000000000000000000000000000000000000                                                                                                                                                                                                                                                          000000                                                                                                                                                                                                                                                                                                                                                              000000        
DA000002456200000700920005892248ANGELA ANTONIA                                    GARCIA                                                                          C00103810719              19560617036FS000000000000000000000000000000                                                  EMMA BALAGUER                                                                                                                                         67          LA ZURZA                                          000001N00000000000000000000000000000000000000000000000000                                                                                                                                                           00000000000000000000000000000000000000000                                                                                                                                                                                                                                                          000000                                                                                                                                                                                                                                                                                                                                                              000000        
DA000003084400000293670030540783ARIDIA MARIA                                      GUZMAN                                                                          C03101629750              19420520036FC000000000000000000000000000000                                                  COLORADO                                                                                                                                              SN          COLORADO                                          000095N00000000000000000000000000000000000000000000000000                                                                                                                                                           00000000000000000000000000000000000000000                                                                                                                                                                                                                                                          000000                                                                                                                                                                                                                                                                                                                                                              000000        
DA000003881600001273210000000000ANGEL BIENVENIDO                                  DE OLEO                                                                         C00100133388              19480422036MC000000000000000000000000000000                                                  SIERRA DE BAHORUCO                                                                                                                                    25          COLINAS DEL SEMINARIO                             000001N00000000000000000000000000000000000000000000000000                                                                                                                                                           00000000000000000000000000000000000000000                                                                                                                                                                                                                                                          000000                                                                                                                                                                                                                                                                                                                                                              000000        
DA000003209400000559440018652477JOSEFA MIGUELINA                                  ABREU                                                                           C00200539757              19470407036FS000000000000000000000000000000                                                  DUARTE                                                                                                                                                47B         SABANA GRANDE PALENQUE                            000001N00000000000000000000000000000000000000000000000000                                                                                                                                                           00000000000000000000000000000000000000000                                                                                                                                                                                                                                                          000000                                                                                                                                                                                                                                                                                                                                                              000000        
