EPN52
DA000000588400000739270023928636NICOLAS                                           DE LOS SANTOS                                                                   C01100005592              19350212036MS000000000000000000000000000000                                                  COLON                                                                                                                                                 20          PUEBLO NUEVO                                      000011N00000000000000000000000000000000000000000000000000                                                                                                                                                           00000000000000000000000000000000000000000                                                                                                                                                                                                                                                          000000                                                                                                                                                                                                                                                                                                                                                              000000        
DA000003758900001247360000000000RAMONA RAFAELA                                    LLUBERES                                                                        C00105289375              19311024036FS000000000000000000000000000000                                                  RESIDENCIAL ISLAS DEL EDEN                                                                                                                            88          BRISAS DE EL EDEN                                 000223N00000000000000000000000000000000000000000000000000                                                                                                                                                           00000000000000000000000000000000000000000                                                                                                                                                                                                                                                          000000                                                                                                                                                                                                                                                                                                                                                              000000        
DA000003742500001277410000000000AURORA                                            RUIZ                                                                            C00103306627              19590305036FS000000000000000000000000000000                                                  MANOLO TAVAREZ JUSTO                                                                                                                                  12          EL ALMIRANTE                                      000001N00000000000000000000000000000000000000000000000000                                                                                                                                                           00000000000000000000000000000000000000000                                                                                                                                                                                                                                                          000000                                                                                                                                                                                                                                                                                                                                                              000000        
DA000003757100001235720000000000CARMEN AFRICA                                     LOPEZ                                                                           C00105204309              19500426036FS000000000000000000000000000000                                                  OCTAVIO MEJIA RICARD                                                                                                                                  31          LOS MINAS                                         000001N00000000000000000000000000000000000000000000000000                                                                                                                                                           00000000000000000000000000000000000000000                                                                                                                                                                                                                                                          000000                                                                                                                                                                                                                                                                                                                                                              000000        
DA000003760400001276670000000000LUZ DEL CARMEN                                    ESPINAL                                                                         C00105458400              19581023036FS000000000000000000000000000000                                                  PRESIDENTE VASQUE                                                                                                                                     188         ALMA ROSA I                                       000001N00000000000000000000000000000000000000000000000000                                                                                                                                                           00000000000000000000000000000000000000000                                                                                                                                                                                                                                                          000000                                                                                                                                                                                                                                                                                                                                                              000000        
DA000003819600001236000000000000MANUEL TEREZA                                     SEGURA                                                                          C01700035056              19411015036MS000000000000000000000000000000                                                  DR. JOAQUIN BALAGUER                                                                                                                                  00          LOS APARTAMENTOS                                  000017N00000000000000000000000000000000000000000000000000                                                                                                                                                           00000000000000000000000000000000000000000                                                                                                                                                                                                                                                          000000                                                                                                                                                                                                                                                                                                                                                              000000        
DA000000286700001040130035387960FELIPE DE JESUS                                   VALERIO                                                                         C03100791999              19490205036MS000000000000000000000000000000                                                  N                                                                                                                                                                                                                   000031N00000000000000000000000000000000000000000000000000                                                                                                                                                           00000000000000000000000000000000000000000                                                                                                                                                                                                                                                          000000                                                                                                                                                                                                                                                                                                                                                              000000        
DA000003730100001240720000000000LUCIA OSIRIS                                      SORIANO                                                                         C00101931921              19520910036FS000000000000000000000000000000                                                  ROSA ROJA                                                                                                                                             2           LAS FLORES                                        000001N00000000000000000000000000000000000000000000000000                                                                                                                                                           00000000000000000000000000000000000000000                                                                                                                                                                                                                                                          000000                                                                                                                                                                                                                                                                                                                                                              000000        
DA000003743600001240030000000000RAMON EUGENIO                                     SANTANA                                                                         C00103511846              19440604036MS000000000000000000000000000000                                                  GUAROCUYA                                                                                                                                             16          LA PIÑA                                           000001N00000000000000000000000000000000000000000000000000                                                                                                                                                           00000000000000000000000000000000000000000                                                                                                                                                                                                                                                          000000                                                                                                                                                                                                                                                                                                                                                              000000        
DA000003760500001238050000000000LUIS AMABLE                                       SAMBOY                                                                          C00105482624              19460110036MS000000000000000000000000000000                                                  LAS FLORES                                                                                                                                            36          EL ROSAL                                          000001N00000000000000000000000000000000000000000000000000                                                                                                                                                           00000000000000000000000000000000000000000                                                                                                                                                                                                                                                          000000                                                                                                                                                                                                                                                                                                                                                              000000        
DA000003768900001238760000000000PEDRO MANUEL                                      VENTURA                                                                         C00106851330              19580128036MS000000000000000000000000000000                                                  20                                                                                                                                                    53          DUARTE                                            000001N00000000000000000000000000000000000000000000000000                                                                                                                                                           00000000000000000000000000000000000000000                                                                                                                                                                                                                                                          000000                                                                                                                                                                                                                                                                                                                                                              000000        
DA000003770000001238240000000000ANDREA                                            SUARDY                                                                          C00107022154              19471129036FS000000000000000000000000000000                                                  2DA                                                                                                                                                   68          EL ABANICO DE HERERA                              000001N00000000000000000000000000000000000000000000000000                                                                                                                                                           00000000000000000000000000000000000000000                                                                                                                                                                                                                                                          000000                                                                                                                                                                                                                                                                                                                                                              000000        
DA000003786300001239570000000000GERNICA LUZCAYA                                   DIAZ                                                                            C00108789728              19431016036FS000000000000000000000000000000                                                  N                                                                                                                                                                                                                   000001N00000000000000000000000000000000000000000000000000                                                                                                                                                           00000000000000000000000000000000000000000                                                                                                                                                                                                                                                          000000                                                                                                                                                                                                                                                                                                                                                              000000        
DA000003832300001238980000000000CLARA FRANCISCA                                   BALBUENA                                                                        C03100251242              19621005036FS000000000000000000000000000000                                                  3                                                                                                                                                     22          MIRA MAR                                          000031N00000000000000000000000000000000000000000000000000                                                                                                                                                           00000000000000000000000000000000000000000                                                                                                                                                                                                                                                          000000                                                                                                                                                                                                                                                                                                                                                              000000        
DA000003488400001229960010864560YVONNE MERCEDES                                   VARONA                                                                          C00103360673              19541026036FS000000000000000000000000000000                                                  AV. EL FARO                                                                                                                                           00          LOS TRES OJOS                                     000001N00000000000000000000000000000000000000000000000000                                                                                                                                                           00000000000000000000000000000000000000000                                                                                                                                                                                                                                                          000000                                                                                                                                                                                                                                                                                                                                                              000000        
DA000001271400001046570046282034EDUARDO ANTONIO                                   BARET                                                                           C05400339437              19470920036MS000000000000000000000000000000                                                  SN                                                                                                                                                    SN          BOCA FERREA                                       000054N00000000000000000000000000000000000000000000000000                                                                                                                                                           00000000000000000000000000000000000000000                                                                                                                                                                                                                                                          000000                                                                                                                                                                                                                                                                                                                                                              000000        
DA000003815200001276250000000000FELICITA                                          BUGUE                                                                           C01200093548              19440430036FS000000000000000000000000000000                                                  19 DE ABRIL                                                                                                                                           22          MANOGUAYABO                                       000223N00000000000000000000000000000000000000000000000000                                                                                                                                                           00000000000000000000000000000000000000000                                                                                                                                                                                                                                                          000000                                                                                                                                                                                                                                                                                                                                                              000000        
DA000003302800000265090026677908CARLOS ALFONSO                                    DELGADO                                                                         C02500032541              19540309036MC000000000000000000000000000000                                                  EL SOCO                                                                                                                                               10          EL RETIRO                                         000025N00000000000000000000000000000000000000000000000000                                                                                                                                                           00000000000000000000000000000000000000000                                                                                                                                                                                                                                                          000000                                                                                                                                                                                                                                                                                                                                                              000000        
DA000000072200000363430047175065HILDA CELESTE                                     REYES                                                                           C06700021923              19450306036FC000000000000000000000000000000                                                  NA                                                                                                                                                    25          NA                                                000001N00000000000000000000000000000000000000000000000000                                                                                                                                                           00000000000000000000000000000000000000000                                                                                                                                                                                                                                                          000000                                                                                                                                                                                                                                                                                                                                                              000000        
DA000003534300000055970002164565ALTAGRACIA MERCEDES                               TURBIDES                                                                        C00101602613              19340121036FC000000000000000000000000000000                                                  PRESA RIO BAO 53                                                                                                                                      53          NA                                                000001N00000000000000000000000000000000000000000000000000                                                                                                                                                           00000000000000000000000000000000000000000                                                                                                                                                                                                                                                          000000                                                                                                                                                                                                                                                                                                                                                              000000        
DA000002474200000513260005896684HECTOR BIENVENIDO                                 CASANOVA                                                                        C00103856456              19430512036MC000000000000000000000000000000                                                  N                                                                                                                                                     8           N                                                 000001N00000000000000000000000000000000000000000000000000                                                                                                                                                           00000000000000000000000000000000000000000                                                                                                                                                                                                                                                          000000                                                                                                                                                                                                                                                                                                                                                              000000        
DA000003739100001247780000000000DONINA                                            PERALTA DE PEGUERO                                                              C00102948551              19600411036FC000000000000000000000000000000                                                  N                                                                                                                                                     N           N                                                 000001N00000000000000000000000000000000000000000000000000                                                                                                                                                           00000000000000000000000000000000000000000                                                                                                                                                                                                                                                          000000                                                                                                                                                                                                                                                                                                                                                              000000        
DA000002053400000154060007927228VALERIANA                                         THOMAS                                                                          C00107862450              19350716036FS000000000000000000000000000000                                                  1ERA                                                                                                                                                  21          ANGOSTURA                                         000001N00000000000000000000000000000000000000000000000000                                                                                                                                                           00000000000000000000000000000000000000000                                                                                                                                                                                                                                                          000000                                                                                                                                                                                                                                                                                                                                                              000000        
DA000002853000000185380011082498ROSA                                              GARCIA                                                                          C00114502834              19691012036FS000000000000000000000000000000                                                  47, CALLEJON 0 459                                                                                                                                    459         N                                                 000001N00000000000000000000000000000000000000000000000000                                                                                                                                                           00000000000000000000000000000000000000000                                                                                                                                                                                                                                                          000000                                                                                                                                                                                                                                                                                                                                                              000000        
DA000003196100000739500022400008JUAN EUDIS                                        ENCARNACION                                                                     C01100217478              19650604036MS000000000000000000000000000000                                                  2DA ESQUINA 7MA                                                                                                                                       1           DON CESAR A CANO                                  000011N00000000000000000000000000000000000000000000000000                                                                                                                                                           00000000000000000000000000000000000000000                                                                                                                                                                                                                                                          000000                                                                                                                                                                                                                                                                                                                                                              000000        
DA000003815100001254320000000000LEONEL AMILKAR                                    FERNANDEZ                                                                       C01200076782              19640903036MS000000000000000000000000000000                                                  AV. CIRCUNVALACION NORTE                                                                                                                              00          SAN JUAN BAUTISTA                                 000012N00000000000000000000000000000000000000000000000000                                                                                                                                                           00000000000000000000000000000000000000000                                                                                                                                                                                                                                                          000000                                                                                                                                                                                                                                                                                                                                                              000000        
DA000000614000000231550023367403EFRAIN                                            ARNAUD                                                                          C01200074621              19160625036MC000000000000000000000000000000                                                  COLON                                                                                                                                                 27          CENTRO DE LA CIUDAD                               000012N00000000000000000000000000000000000000000000000000                                                                                                                                                           00000000000000000000000000000000000000000                                                                                                                                                                                                                                                          000000                                                                                                                                                                                                                                                                                                                                                              000000        
DA000003836700001267680000000000MARIA MAGDALENA                                   VASQUEZ                                                                         C03101432171              19550923036FS000000000000000000000000000000                                                  LA VEREDA                                                                                                                                             73          LAS FLORES                                        000031N00000000000000000000000000000000000000000000000000                                                                                                                                                           00000000000000000000000000000000000000000                                                                                                                                                                                                                                                          000000                                                                                                                                                                                                                                                                                                                                                              000000        
DA000001240000001072280045990418RAMON                                             PANIAGUA                                                                        C05400664453              19410313036MS000000000000000000000000000000                                                  IMBERT                                                                                                                                                34          PUEBLO ABAJO                                      000054N00000000000000000000000000000000000000000000000000                                                                                                                                                           00000000000000000000000000000000000000000                                                                                                                                                                                                                                                          000000                                                                                                                                                                                                                                                                                                                                                              000000        
DA000003543800000065120010784562MARIA ALTAGRACIA                                  ALCANTARA                                                                       C00101985612              19430120036FC000000000000000000000000000000                                                  LOS NARCIZOS 24                                                                                                                                       24          NA                                                000001N00000000000000000000000000000000000000000000000000                                                                                                                                                           00000000000000000000000000000000000000000                                                                                                                                                                                                                                                          000000                                                                                                                                                                                                                                                                                                                                                              000000        
DA000003755000001256890000000000GRACIELO CIPRIAN                                  HIDALGO                                                                         C00104972328              19360916036MS000000000000000000000000000000                                                  3RA.                                                                                                                                                  100         VILLA CARMEN                                      000223N00000000000000000000000000000000000000000000000000                                                                                                                                                           00000000000000000000000000000000000000000                                                                                                                                                                                                                                                          000000                                                                                                                                                                                                                                                                                                                                                              000000        
DA000002085000000434710011206760JOSE ARISMENDI                                    NUEZ                                                                            C00116322454              19510905036MS000000000000000000000000000000                                                  MANZ. J                                                                                                                                               5           EL BRISAL                                         000223N00000000000000000000000000000000000000000000000000                                                                                                                                                           00000000000000000000000000000000000000000                                                                                                                                                                                                                                                          000000                                                                                                                                                                                                                                                                                                                                                              000000        
DA000002006400000146410015432376GEORGINA MARGARITA                                CHAPMAN                                                                         C00107347239              19461212036FS000000000000000000000000000000                                                  MANZ C                                                                                                                                                13          ALMA ROSA                                         000223N00000000000000000000000000000000000000000000000000                                                                                                                                                           00000000000000000000000000000000000000000                                                                                                                                                                                                                                                          000000                                                                                                                                                                                                                                                                                                                                                              000000        
DA000001305300000237810024455062TOMAS ENRIQUE                                     MONTERO                                                                         C01600014920              19290410036MC000000000000000000000000000000                                                  5TA                                                                                                                                                   02          LOS ROSALOS II                                    000223N00000000000000000000000000000000000000000000000000                                                                                                                                                           00000000000000000000000000000000000000000                                                                                                                                                                                                                                                          000000                                                                                                                                                                                                                                                                                                                                                              000000        
DA000001792100000678960055644468JULIO CESAR                                       SANCHEZ                                                                         C22300129842              19370516036MS000000000000000000000000000000                                                  FARALLON                                                                                                                                              12          ENS. LAS AMERICAS                                 000223N00000000000000000000000000000000000000000000000000                                                                                                                                                           00000000000000000000000000000000000000000                                                                                                                                                                                                                                                          000000                                                                                                                                                                                                                                                                                                                                                              000000        
DA000002120600000182330010998724RAFAEL                                            MIESES                                                                          C00113157010              19261101036MC000000000000000000000000000000                                                  CANDIDA VDA. PAVON 9                                                                                                                                  9           ALMA ROSA II                                      000223N00000000000000000000000000000000000000000000000000                                                                                                                                                           00000000000000000000000000000000000000000                                                                                                                                                                                                                                                          000000                                                                                                                                                                                                                                                                                                                                                              000000        
DA000002022500000425670002521168LEOPOLDINA                                        VALERA                                                                          C00107574592              19541130036FS000000000000000000000000000000                                                  6A                                                                                                                                                    87          ALMA ROSA                                         000223N00000000000000000000000000000000000000000000000000                                                                                                                                                           00000000000000000000000000000000000000000                                                                                                                                                                                                                                                          000000                                                                                                                                                                                                                                                                                                                                                              000000        
DA000002038100000159890015454203JULIO                                             MARTINEZ                                                                        C00108310061              19281028036MS000000000000000000000000000000                                                  SAN JUAN BOSCO                                                                                                                                        7           LOS FRAILES                                       000223N00000000000000000000000000000000000000000000000000                                                                                                                                                           00000000000000000000000000000000000000000                                                                                                                                                                                                                                                          000000                                                                                                                                                                                                                                                                                                                                                              000000        
DA000001569100000818580000417047ROSALIA                                           ARIAS                                                                           C00106671175              19220914036FS000000000000000000000000000000                                                  RESP. DUARTE                                                                                                                                          14          ANDRES BOCA CHICA                                 000226N00000000000000000000000000000000000000000000000000                                                                                                                                                           00000000000000000000000000000000000000000                                                                                                                                                                                                                                                          000000                                                                                                                                                                                                                                                                                                                                                              000000        
DA000002106100000178880005244711ANGELA                                            REYES DE CUEVAS                                                                 C00111431268              19561003036FC000000000000000000000000000000                                                  G                                                                                                                                                     8           DOÑA IDALIA, CANCINO VIEJO                        000223N00000000000000000000000000000000000000000000000000                                                                                                                                                           00000000000000000000000000000000000000000                                                                                                                                                                                                                                                          000000                                                                                                                                                                                                                                                                                                                                                              000000        
DA000001559600000186170013427077MARIA ADELAIDA                                    ACOSTA                                                                          C00115030363              19390520036FS000000000000000000000000000000                                                  SAN RAMON                                                                                                                                             19          BOCA CHICA                                        000226N00000000000000000000000000000000000000000000000000                                                                                                                                                           00000000000000000000000000000000000000000                                                                                                                                                                                                                                                          000000                                                                                                                                                                                                                                                                                                                                                              000000        
DA000001949800000709930004870712CLARA DILIA                                       POLANCO                                                                         C00105343081              19491123036FC000000000000000000000000000000                                                  VALVACOA                                                                                                                                              H9          CANCINO 1ERO                                      000223N00000000000000000000000000000000000000000000000000                                                                                                                                                           00000000000000000000000000000000000000000                                                                                                                                                                                                                                                          000000                                                                                                                                                                                                                                                                                                                                                              000000        
DA000003546100000062900008647836MANUEL ANTONIO                                    CORNELIO                                                                        C00101901858              19380520036MC000000000000000000000000000000                                                  LAS ORTENCIAS                                                                                                                                         4           LOS MINAS                                         000223N00000000000000000000000000000000000000000000000000                                                                                                                                                           00000000000000000000000000000000000000000                                                                                                                                                                                                                                                          000000                                                                                                                                                                                                                                                                                                                                                              000000        
DA000002044900000157240016497853MANUEL                                            REYNOSO                                                                         C00108073727              19580301036MS000000000000000000000000000000                                                  TEO CRUZ                                                                                                                                              28          LAS AMERICAS                                      000223N00000000000000000000000000000000000000000000000000                                                                                                                                                           00000000000000000000000000000000000000000                                                                                                                                                                                                                                                          000000                                                                                                                                                                                                                                                                                                                                                              000000        
DA000001555700000079250015160495LIDIA MARIA                                       VASQUEZ                                                                         C00102834785              19621120036FS000000000000000000000000000000                                                  TAMARA                                                                                                                                                26          ANDRES BOCA CHICA                                 000226N00000000000000000000000000000000000000000000000000                                                                                                                                                           00000000000000000000000000000000000000000                                                                                                                                                                                                                                                          000000                                                                                                                                                                                                                                                                                                                                                              000000        
DA000001952700000118100013926420CONSUELO                                          BATISTA                                                                         C00105358733              19230514036FS000000000000000000000000000000                                                  CARRETERA DE MENDOZA 116                                                                                                                              116         ALMA ROSA I                                       000223N00000000000000000000000000000000000000000000000000                                                                                                                                                           00000000000000000000000000000000000000000                                                                                                                                                                                                                                                          000000                                                                                                                                                                                                                                                                                                                                                              000000        
DA000002151200000103130001293147VICTOR                                            BENITEZ                                                                         C00104583257              19350824036MC000000000000000000000000000000                                                  C F                                                                                                                                                   3           LOS MINAS                                         000223N00000000000000000000000000000000000000000000000000                                                                                                                                                           00000000000000000000000000000000000000000                                                                                                                                                                                                                                                          000000                                                                                                                                                                                                                                                                                                                                                              000000        
DA000000114100000220490018261574DIMAS                                             BERROA                                                                          C00400125969              19360518036MS000000000000000000000000000000                                                  MIGUEL VALLE                                                                                                                                          71          EL ALMIRANTE                                      000223N00000000000000000000000000000000000000000000000000                                                                                                                                                           00000000000000000000000000000000000000000                                                                                                                                                                                                                                                          000000                                                                                                                                                                                                                                                                                                                                                              000000        
DA000001910900000121500007139688DIONICIO                                          REYES                                                                           C00105595383              19351028036MS000000000000000000000000000000                                                  1ERA                                                                                                                                                  05          MANDINGA                                          000223N00000000000000000000000000000000000000000000000000                                                                                                                                                           00000000000000000000000000000000000000000                                                                                                                                                                                                                                                          000000                                                                                                                                                                                                                                                                                                                                                              000000        
DA000001643500000176630000652497VICTORINO                                         HERNANDEZ                                                                       C00110374733              19400615036MS000000000000000000000000000000                                                  CARRETERA DUARTE VIEJA                                                                                                                                150         LA VENTA                                          000224N00000000000000000000000000000000000000000000000000                                                                                                                                                           00000000000000000000000000000000000000000                                                                                                                                                                                                                                                          000000                                                                                                                                                                                                                                                                                                                                                              000000        
DA000002193100000062220000093162JOSEFA                                            FEBRIER                                                                         C00101874949              19280319036FS000000000000000000000000000000                                                  MANZ O                                                                                                                                                2B          SABANA PERDIDA                                    000224N00000000000000000000000000000000000000000000000000                                                                                                                                                           00000000000000000000000000000000000000000                                                                                                                                                                                                                                                          000000                                                                                                                                                                                                                                                                                                                                                              000000        
DA000003723700001272540000000000CRISTIANA YGNACIA                                 CASIMIRO                                                                        C00101457950              19490716036FS000000000000000000000000000000                                                  MADRE CARMEN GONZALEZ                                                                                                                                 201A        LAS PRADERAS                                      000224N00000000000000000000000000000000000000000000000000                                                                                                                                                           00000000000000000000000000000000000000000                                                                                                                                                                                                                                                          000000                                                                                                                                                                                                                                                                                                                                                              000000        
DA000003772700001237710000000000ARGENTINA ALTAGRACIA                              POLANCO                                                                         C00107261042              19551203036FS000000000000000000000000000000                                                  CORDOVA                                                                                                                                               36          BUENOS AIRES DE HERRERA                           000224N00000000000000000000000000000000000000000000000000                                                                                                                                                           00000000000000000000000000000000000000000                                                                                                                                                                                                                                                          000000                                                                                                                                                                                                                                                                                                                                                              000000        
DA000003104500000229510021992418JULIA                                             DE LOS SANTOS                                                                   C01100204096              19380131036FS000000000000000000000000000000                                                  7                                                                                                                                                     15          LOS ALCARRIZOS                                    000224N00000000000000000000000000000000000000000000000000                                                                                                                                                           00000000000000000000000000000000000000000                                                                                                                                                                                                                                                          000000                                                                                                                                                                                                                                                                                                                                                              000000        
DA000002716800000488430008592493ELVIRA                                            DIAZ                                                                            C00100704931              19401216036FS000000000000000000000000000000                                                  CAONABO 45                                                                                                                                            45          N                                                 000001N00000000000000000000000000000000000000000000000000                                                                                                                                                           00000000000000000000000000000000000000000                                                                                                                                                                                                                                                          000000                                                                                                                                                                                                                                                                                                                                                              000000        
DA000002340600000077680011514296MODESTA ARGENTINA A DE J                          OVALLES                                                                         C00102727583              19460615036FS000000000000000000000000000000                                                  MOCA 100                                                                                                                                              100         NA                                                000001N00000000000000000000000000000000000000000000000000                                                                                                                                                           00000000000000000000000000000000000000000                                                                                                                                                                                                                                                          000000                                                                                                                                                                                                                                                                                                                                                              000000        
DA000003527300000058510012868478VIRGILIO ANTONIO                                  FELIZ                                                                           C00101692218              19291114036MC000000000000000000000000000000                                                  27 DE FEBRERO                                                                                                                                         337         EVARISTO MORALES                                  000001N00000000000000000000000000000000000000000000000000                                                                                                                                                           00000000000000000000000000000000000000000                                                                                                                                                                                                                                                          000000                                                                                                                                                                                                                                                                                                                                                              000000        
DA000002273600000063330007586927NEREIDA ANTONIA                                   MARINA                                                                          C00101917201              19160613036FS000000000000000000000000000000                                                  14                                                                                                                                                    14          LA FE                                             000001N00000000000000000000000000000000000000000000000000                                                                                                                                                           00000000000000000000000000000000000000000                                                                                                                                                                                                                                                          000000                                                                                                                                                                                                                                                                                                                                                              000000        
DA000001682700000982660009160547PERFECTA                                          VENTURA                                                                         C00101304517              19430410036FS000000000000000000000000000000                                                  9                                                                                                                                                     5           HERRERA                                           000224N00000000000000000000000000000000000000000000000000                                                                                                                                                           00000000000000000000000000000000000000000                                                                                                                                                                                                                                                          000000                                                                                                                                                                                                                                                                                                                                                              000000        
DA000003677200000175900001787255TOMAS ANTONIO                                     REYES                                                                           C00110151321              19500727036MC000000000000000000000000000000                                                  BOLIVAR                                                                                                                                               163         LA ESPERILLA                                      000001N00000000000000000000000000000000000000000000000000                                                                                                                                                           00000000000000000000000000000000000000000                                                                                                                                                                                                                                                          000000                                                                                                                                                                                                                                                                                                                                                              000000        
DA000000127500000222230021104291JUANA                                             FABIAN                                                                          C00800002172              19440207036FS000000000000000000000000000000                                                  MERIÑO                                                                                                                                                2           EL INVI                                           000008N00000000000000000000000000000000000000000000000000                                                                                                                                                           00000000000000000000000000000000000000000                                                                                                                                                                                                                                                          000000                                                                                                                                                                                                                                                                                                                                                              000000        
DA000003805800001242580000000000RAFAEL EVANGELISTA                                ASTACIO                                                                         C00200219939              19361024036MS000000000000000000000000000000                                                  HACIENDA FUNDACION                                                                                                                                    NA          NA                                                000002N00000000000000000000000000000000000000000000000000                                                                                                                                                           00000000000000000000000000000000000000000                                                                                                                                                                                                                                                          000000                                                                                                                                                                                                                                                                                                                                                              000000        
DA000002259100000064520000102775CRUZ EMILIA                                       PICHARDO                                                                        C00101958437              19181125036FS000000000000000000000000000000                                                  EUCLIDES MORILLO 74B                                                                                                                                  74B         NA                                                000001N00000000000000000000000000000000000000000000000000                                                                                                                                                           00000000000000000000000000000000000000000                                                                                                                                                                                                                                                          000000                                                                                                                                                                                                                                                                                                                                                              000000        
DA000003879500001259000000000000JUAN FRANCISCO                                    NUEZ                                                                            C00100012384              19450428036MS000000000000000000000000000000                                                  JOSE G. GARCIA 12                                                                                                                                     12          N                                                 000001N00000000000000000000000000000000000000000000000000                                                                                                                                                           00000000000000000000000000000000000000000                                                                                                                                                                                                                                                          000000                                                                                                                                                                                                                                                                                                                                                              000000        
DA000003837600001269550000000000CARLIXTA                                          PANIAGUA                                                                        C03101985590              19471014036FC000000000000000000000000000000                                                  57                                                                                                                                                    11          EL EMBRUJE                                        000031N00000000000000000000000000000000000000000000000000                                                                                                                                                           00000000000000000000000000000000000000000                                                                                                                                                                                                                                                          000000                                                                                                                                                                                                                                                                                                                                                              000000        
DA000003793400001245790000000000VIRGINIA                                          ENCARNACION                                                                     C00110055472              19560402036FS000000000000000000000000000000                                                  5TA                                                                                                                                                   31          CANCINO ADENTRO                                   000225N00000000000000000000000000000000000000000000000000                                                                                                                                                           00000000000000000000000000000000000000000                                                                                                                                                                                                                                                          000000                                                                                                                                                                                                                                                                                                                                                              000000        
DA000003729600001247400000000000ANGELA                                            HENRIQUEZ                                                                       C00101875292              19470302036FC000000000000000000000000000000                                                  1RA                                                                                                                                                   21          LA FE                                             000001N00000000000000000000000000000000000000000000000000                                                                                                                                                           00000000000000000000000000000000000000000                                                                                                                                                                                                                                                          000000                                                                                                                                                                                                                                                                                                                                                              000000        
DA000000052300000486370006424540ANTONIO                                           CLETO                                                                           C00100485911              19610808036MS000000000000000000000000000000                                                  15                                                                                                                                                    58          LOS ALCARRIZOS                                    000001N00000000000000000000000000000000000000000000000000                                                                                                                                                           00000000000000000000000000000000000000000                                                                                                                                                                                                                                                          000000                                                                                                                                                                                                                                                                                                                                                              000000        
DA000003816700001269650000000000TITO                                              RAMIREZ                                                                         C01200272746              19550323036MS000000000000000000000000000000                                                  ANACAONA                                                                                                                                                          CRISTO REY [MANOGUAYABO]                          000012N00000000000000000000000000000000000000000000000000                                                                                                                                                           00000000000000000000000000000000000000000                                                                                                                                                                                                                                                          000000                                                                                                                                                                                                                                                                                                                                                              000000        
DA000003814600001269660000000000MIRIAM MILAGROS                                   MONTERO                                                                         C01200039335              19581004036FS000000000000000000000000000000                                                  JERCERA                                                                                                                                               6           ANTONIO RONZINO                                   000012N00000000000000000000000000000000000000000000000000                                                                                                                                                           00000000000000000000000000000000000000000                                                                                                                                                                                                                                                          000000                                                                                                                                                                                                                                                                                                                                                              000000        
DA000003875100001277550000000000VICTORIA                                          ASENCIO                                                                         C09300151546              19360223036FS000000000000000000000000000000                                                  N                                                                                                                                                                                                                   000093N00000000000000000000000000000000000000000000000000                                                                                                                                                           00000000000000000000000000000000000000000                                                                                                                                                                                                                                                          000000                                                                                                                                                                                                                                                                                                                                                              000000        
DA000003752200001276230000000000DIOGENES                                          ABREU                                                                           C00104682992              19410102036MS000000000000000000000000000000                                                  FCO DOMINGUEZ                                                                                                                                         08          VILLA ESFUERZO                                    000001N00000000000000000000000000000000000000000000000000                                                                                                                                                           00000000000000000000000000000000000000000                                                                                                                                                                                                                                                          000000                                                                                                                                                                                                                                                                                                                                                              000000        
DA000003812500001274470000000000CARMEN JOSEFINA                                   ABREU                                                                           C01000438992              19570124036FS000000000000000000000000000000                                                  LAS CARRERAS MANZANA 38                                                                                                                               2           BARRIO NUEVO                                      000010N00000000000000000000000000000000000000000000000000                                                                                                                                                           00000000000000000000000000000000000000000                                                                                                                                                                                                                                                          000000                                                                                                                                                                                                                                                                                                                                                              000000        
