EPN52
DA000003886500001235830000000000MAURO FELISMON                                    MARTINEZ                                                                        C00100590678              19371123036MS000000000000000000000000000000                                                  CAYETANO GERMOSEN                                                                                                                                     0           EL TUNEL                                          000001N00000000000000000000000000000000000000000000000000                                                                                                                                                           00000000000000000000000000000000000000000                                                                                                                                                                                                                                                          000000                                                                                                                                                                                                                                                                                                                                                              000000        
DA000003732800001259010000000000LOURDES CANDIDA                                   BREMER                                                                          C00102202207              19510210036FS000000000000000000000000000000                                                  N                                                                                                                                                                                                                   000001N00000000000000000000000000000000000000000000000000                                                                                                                                                           00000000000000000000000000000000000000000                                                                                                                                                                                                                                                          000000                                                                                                                                                                                                                                                                                                                                                              000000        
DA000003749300001235680000000000ANGELA DEL ROSARIO                                TAVERAS                                                                         C00104169230              19451007036FS000000000000000000000000000000                                                  DOLLY                                                                                                                                                 3           12 DE LA SANCHEZ                                  000001N00000000000000000000000000000000000000000000000000                                                                                                                                                           00000000000000000000000000000000000000000                                                                                                                                                                                                                                                          000000                                                                                                                                                                                                                                                                                                                                                              000000        
DA000003485200000516190008221204RADHAMES                                          MATA                                                                            C00104342001              19550815036MS000000000000000000000000000000                                                  4                                                                                                                                                     66          CAPOTILLO                                         000001N00000000000000000000000000000000000000000000000000                                                                                                                                                           00000000000000000000000000000000000000000                                                                                                                                                                                                                                                          000000                                                                                                                                                                                                                                                                                                                                                              000000        
DA000003777200001246540000000000BELGICA                                           PEREZ                                                                           C00107685240              19510729036FS000000000000000000000000000000                                                  11                                                                                                                                                    9           DN                                                000001N00000000000000000000000000000000000000000000000000                                                                                                                                                           00000000000000000000000000000000000000000                                                                                                                                                                                                                                                          000000                                                                                                                                                                                                                                                                                                                                                              000000        
DA000003779400001266220000000000FANJUL ABEL                                       PEREZ                                                                           C00107861007              19521120036MS000000000000000000000000000000                                                  N                                                                                                                                                                                                                   000001N00000000000000000000000000000000000000000000000000                                                                                                                                                           00000000000000000000000000000000000000000                                                                                                                                                                                                                                                          000000                                                                                                                                                                                                                                                                                                                                                              000000        
DA000003881500001239090000000000WILLIAM NELSON                                    SMITH                                                                           C00100107838              19450713036MS000000000000000000000000000000                                                  N                                                                                                                                                                                                                   000001N00000000000000000000000000000000000000000000000000                                                                                                                                                           00000000000000000000000000000000000000000                                                                                                                                                                                                                                                          000000                                                                                                                                                                                                                                                                                                                                                              000000        
DA000003713100001238500000000000MARIA                                             ROSARIO                                                                         C00100784461              19540119036FS000000000000000000000000000000                                                  N                                                                                                                                                                                                                   000001N00000000000000000000000000000000000000000000000000                                                                                                                                                           00000000000000000000000000000000000000000                                                                                                                                                                                                                                                          000000                                                                                                                                                                                                                                                                                                                                                              000000        
DA000003722100001237470000000000CARLOS MARIA                                      PAULINO                                                                         C00101391670              19200410036MS000000000000000000000000000000                                                  ENRRIQUILLO                                                                                                                                           72          LOS CACICASGOS                                    000001N00000000000000000000000000000000000000000000000000                                                                                                                                                           00000000000000000000000000000000000000000                                                                                                                                                                                                                                                          000000                                                                                                                                                                                                                                                                                                                                                              000000        
DA000003745000001237510000000000ALEJANDRO                                         MARTINEZ                                                                        C00103645461              19390227036MS000000000000000000000000000000                                                  LOS MILAGROS                                                                                                                                          2           LA UREÑA                                          000001N00000000000000000000000000000000000000000000000000                                                                                                                                                           00000000000000000000000000000000000000000                                                                                                                                                                                                                                                          000000                                                                                                                                                                                                                                                                                                                                                              000000        
DA000003863100001240390000000000JOSE ANDRES                                       UREÑA                                                                           C05600178494              19341009036MS000000000000000000000000000000                                                  N                                                                                                                                                                                                                   000056N00000000000000000000000000000000000000000000000000                                                                                                                                                           00000000000000000000000000000000000000000                                                                                                                                                                                                                                                          000000                                                                                                                                                                                                                                                                                                                                                              000000        
DA000003755300001245850000000000JUAN DE REGLA                                     DIAZ                                                                            C00105001549              19330827036MS000000000000000000000000000000                                                  N                                                                                                                                                                                                                   000001N00000000000000000000000000000000000000000000000000                                                                                                                                                           00000000000000000000000000000000000000000                                                                                                                                                                                                                                                          000000                                                                                                                                                                                                                                                                                                                                                              000000        
DA000003100200000823390016315966RAFAEL                                            CABRERA                                                                         C00108214172              19480102036MS000000000000000000000000000000                                                  DUARTE ESQ 14                                                                                                                                                     LOS ALCARIZOS                                     000001N00000000000000000000000000000000000000000000000000                                                                                                                                                           00000000000000000000000000000000000000000                                                                                                                                                                                                                                                          000000                                                                                                                                                                                                                                                                                                                                                              000000        
DA000003185000000260870028721327JUSTO BOLIVAR                                     PEA                                                                             C02300540313              19540728036MS000000000000000000000000000000                                                  ROMANA GONZALEZ 135                                                                                                                                   135         SAN PEDRO DE MACORIS                              000023N00000000000000000000000000000000000000000000000000                                                                                                                                                           00000000000000000000000000000000000000000                                                                                                                                                                                                                                                          000000                                                                                                                                                                                                                                                                                                                                                              000000        
DA000002489300000099000008203034ROSA ELENA                                        RODRIGUEZ                                                                       C00104194592              19470818036FS000000000000000000000000000000                                                  LIBERTADOR                                                                                                                                            10          HERRERA                                           000224N00000000000000000000000000000000000000000000000000                                                                                                                                                           00000000000000000000000000000000000000000                                                                                                                                                                                                                                                          000000                                                                                                                                                                                                                                                                                                                                                              000000        
DA000000473500000334610041532071ZACARIAS                                          CABRERA                                                                         C04900340789              19430722036MS000000000000000000000000000000                                                  1RA                                                                                                                                                   10                                                            000056N00000000000000000000000000000000000000000000000000                                                                                                                                                           00000000000000000000000000000000000000000                                                                                                                                                                                                                                                          000000                                                                                                                                                                                                                                                                                                                                                              000000        
DA000002605600000038560009135834ENEMENCIO                                         GARCIA                                                                          C00101108264              19540908036MC000000000000000000000000000000                                                  N                                                                                                                                                     N           N                                                 000001N00000000000000000000000000000000000000000000000000                                                                                                                                                           00000000000000000000000000000000000000000                                                                                                                                                                                                                                                          000000                                                                                                                                                                                                                                                                                                                                                              000000        
DA000002907700000187060004173623MARIA PETRONILA                                   HERNANDEZ                                                                       C00116414400              19261201036FS000000000000000000000000000000                                                  DIAGONAL 3ERA                                                                                                                                         17          LOS FRAILES 2DO                                   000001N00000000000000000000000000000000000000000000000000                                                                                                                                                           00000000000000000000000000000000000000000                                                                                                                                                                                                                                                          000000                                                                                                                                                                                                                                                                                                                                                              000000        
DA000000577300000581180028066427MIGUEL ANGEL                                      MELENDEZ                                                                        C02300071566              19501130036MC000000000000000000000000000000                                                  2DA                                                                                                                                                   12          ALTOS DE SAN PEDRO                                000001N00000000000000000000000000000000000000000000000000                                                                                                                                                           00000000000000000000000000000000000000000                                                                                                                                                                                                                                                          000000                                                                                                                                                                                                                                                                                                                                                              000000        
DA000002471500000094050007024657ALTAGRACIA MARINA                                 REYES                                                                           C00103869442              19400121036FS000000000000000000000000000000                                                  LUIS F TOMEN                                                                                                                                          451         EL MILLON                                         000001N00000000000000000000000000000000000000000000000000                                                                                                                                                           00000000000000000000000000000000000000000                                                                                                                                                                                                                                                          000000                                                                                                                                                                                                                                                                                                                                                              000000        
DA000002130600000483960001137312TAMARA MARIA                                      CUEVAS                                                                          C00100194836              19570726036FS000000000000000000000000000000                                                  MEXICO                                                                                                                                                50          SAN CARLOS                                        000001N00000000000000000000000000000000000000000000000000                                                                                                                                                           00000000000000000000000000000000000000000                                                                                                                                                                                                                                                          000000                                                                                                                                                                                                                                                                                                                                                              000000        
DA000001320600001047990046726994CARLOS MARIA                                      CASTILLO                                                                        C05700017030              19470814036MS000000000000000000000000000000                                                  27 DE FEBRERO                                                                                                                                         35          CASTILLO                                          000001N00000000000000000000000000000000000000000000000000                                                                                                                                                           00000000000000000000000000000000000000000                                                                                                                                                                                                                                                          000000                                                                                                                                                                                                                                                                                                                                                              000000        
DA000001164000000016800010642412ELSA ALTAGRACIA                                   HENRIQUEZ                                                                       C00100395847              19520528036FS000000000000000000000000000000                                                  N                                                                                                                                                     7           N                                                 000001N00000000000000000000000000000000000000000000000000                                                                                                                                                           00000000000000000000000000000000000000000                                                                                                                                                                                                                                                          000000                                                                                                                                                                                                                                                                                                                                                              000000        
DA000003230800001020710021025711JOSE ALTAGRACIA                                   FIGUEREO                                                                        C00200589455              19390508036MS000000000000000000000000000000                                                  CARRETERA 6 DE NOVIEMBRE                                                                                                                              5N          MADRE VIEJA NORTE                                 000002N00000000000000000000000000000000000000000000000000                                                                                                                                                           00000000000000000000000000000000000000000                                                                                                                                                                                                                                                          000000                                                                                                                                                                                                                                                                                                                                                              000000        
DA000002105800000178850005244421FRANCISCA DEYANIRA                                DE LA ROSA                                                                      C00111426417              19460218036FS000000000000000000000000000000                                                  MANZANA 4720                                                                                                                                          8           INVIVIENDA                                        000223N00000000000000000000000000000000000000000000000000                                                                                                                                                           00000000000000000000000000000000000000000                                                                                                                                                                                                                                                          000000                                                                                                                                                                                                                                                                                                                                                              000000        
DA000002481400001061430011619596RAMONA                                            SANCHEZ                                                                         C00104290887              19350310036FS000000000000000000000000000000                                                  DON Q. DE LA MANCHA 12                                                                                                                                12          SIMON BOLIVAR                                     000223N00000000000000000000000000000000000000000000000000                                                                                                                                                           00000000000000000000000000000000000000000                                                                                                                                                                                                                                                          000000                                                                                                                                                                                                                                                                                                                                                              000000        
DA000003763600001268840000000000ALEJANDRO                                         REYES                                                                           C00105802532              19461013036MS000000000000000000000000000000                                                  EPLINIO DIAZ                                                                                                                                          124         DN                                                000223N00000000000000000000000000000000000000000000000000                                                                                                                                                           00000000000000000000000000000000000000000                                                                                                                                                                                                                                                          000000                                                                                                                                                                                                                                                                                                                                                              000000        
DA000003803300001249670000000000JUAN ANGEL                                        PEA                                                                             C00116970302              19350227036MS000000000000000000000000000000                                                  EL VALLE                                                                                                                                              5           BELLO CAMPO                                       000223N00000000000000000000000000000000000000000000000000                                                                                                                                                           00000000000000000000000000000000000000000                                                                                                                                                                                                                                                          000000                                                                                                                                                                                                                                                                                                                                                              000000        
DA000003338300000749770029254013ANA LUISA                                         SIERRA                                                                          C02400063745              19320824036FC000000000000000000000000000000                                                  28 DE OCTUBRE                                                                                                                                         12          ANDRES, BOCA CHICA                                000226N00000000000000000000000000000000000000000000000000                                                                                                                                                           00000000000000000000000000000000000000000                                                                                                                                                                                                                                                          000000                                                                                                                                                                                                                                                                                                                                                              000000        
DA000003737400001271620000000000CESAR LEONARDO                                    VASQUEZ                                                                         C00102759503              19450214036MC000000000000000000000000000000                                                  RAMON FIDEL YANEL                                                                                                                                     32          MIRADOR NORTE                                     000001N00000000000000000000000000000000000000000000000000                                                                                                                                                           00000000000000000000000000000000000000000                                                                                                                                                                                                                                                          000000                                                                                                                                                                                                                                                                                                                                                              000000        
DA000003696800000152560005775286LUZ MARIA                                         KALAF                                                                           C00107766701              19281012036FC000000000000000000000000000000                                                  ROBERTO PASTORIZA 658                                                                                                                                 658         DN                                                000001N00000000000000000000000000000000000000000000000000                                                                                                                                                           00000000000000000000000000000000000000000                                                                                                                                                                                                                                                          000000                                                                                                                                                                                                                                                                                                                                                              000000        
DA000000111000001051310050855903TEREZA                                            FABIAN                                                                          C09000083130              19421017036FC000000000000000000000000000000                                                  EUGANIO M. DE HOSTOS 22                                                                                                                               22          SAN ISIDRO DE BONAO                               000001N00000000000000000000000000000000000000000000000000                                                                                                                                                           00000000000000000000000000000000000000000                                                                                                                                                                                                                                                          000000                                                                                                                                                                                                                                                                                                                                                              000000        
DA000002841400001064850006025177JOHN                                              FIGUEROA                                                                        C00112256664              19510525036MC000000000000000000000000000000                                                  GASPAR POLANCO                                                                                                                                        37          BELLA VISTA                                       000001N00000000000000000000000000000000000000000000000000                                                                                                                                                           00000000000000000000000000000000000000000                                                                                                                                                                                                                                                          000000                                                                                                                                                                                                                                                                                                                                                              000000        
DA000003764900001276940000000000LUIS FRANCISCO                                    PEREZ                                                                           C00106177637              19620530036MS000000000000000000000000000000                                                  28                                                                                                                                                    68          VILLA MELLA                                       000001N00000000000000000000000000000000000000000000000000                                                                                                                                                           00000000000000000000000000000000000000000                                                                                                                                                                                                                                                          000000                                                                                                                                                                                                                                                                                                                                                              000000        
DA000002316600000073400012619160MARTHA                                            MARTINEZ                                                                        C00102449741              19370818036FS000000000000000000000000000000                                                  ANDRES J.AYBAR                                                                                                                                        37          PIANTINI                                          000001N00000000000000000000000000000000000000000000000000                                                                                                                                                           00000000000000000000000000000000000000000                                                                                                                                                                                                                                                          000000                                                                                                                                                                                                                                                                                                                                                              000000        
DA000003514200000694070017111345ANGEL CRISTOBAL                                   ADAMES                                                                          C00102724390              19340726036MC000000000000000000000000000000                                                  VIENTO DEL OESTE 15                                                                                                                                   15          NA                                                000001N00000000000000000000000000000000000000000000000000                                                                                                                                                           00000000000000000000000000000000000000000                                                                                                                                                                                                                                                          000000                                                                                                                                                                                                                                                                                                                                                              000000        
DA000002563800000983380008605202GERONIMO ENRIQUE                                  UBRI                                                                            C00101542983              19411010036MS000000000000000000000000000000                                                  CAYETANO RODRIGUEZ                                                                                                                                    151         GASCUE                                            000001N00000000000000000000000000000000000000000000000000                                                                                                                                                           00000000000000000000000000000000000000000                                                                                                                                                                                                                                                          000000                                                                                                                                                                                                                                                                                                                                                              000000        
DA000003598700000982350011407838MARGARITA                                         SUERO                                                                           C00101202273              19590305036FS000000000000000000000000000000                                                  ESTHER ROSARIO                                                                                                                                        40          JOSE CONTRERAS                                    000001N00000000000000000000000000000000000000000000000000                                                                                                                                                           00000000000000000000000000000000000000000                                                                                                                                                                                                                                                          000000                                                                                                                                                                                                                                                                                                                                                              000000        
DA000003595900000400650014808235FELIBERTA                                         PINALES                                                                         C00101179810              19510822036FS000000000000000000000000000000                                                  PENETRACION CARRE.SANCHEZ 1                                                                                                                           35          CARRETERA SANCHEZ                                 000001N00000000000000000000000000000000000000000000000000                                                                                                                                                           00000000000000000000000000000000000000000                                                                                                                                                                                                                                                          000000                                                                                                                                                                                                                                                                                                                                                              000000        
DA000003587700000032680002372662JOSEFA MERCEDES                                   PIMENTEL                                                                        C00100972090              19261209036FS000000000000000000000000000000                                                  CESAR NICOLAS PENSON                                                                                                                                  135         LA ESPERILLA                                      000001N00000000000000000000000000000000000000000000000000                                                                                                                                                           00000000000000000000000000000000000000000                                                                                                                                                                                                                                                          000000                                                                                                                                                                                                                                                                                                                                                              000000        
DA000002569100000054960005391502LEIDA ANTONIA                                     MARTINEZ                                                                        C00101572998              19400612036FS000000000000000000000000000000                                                  HERMANA ROQUE MARTINEZ                                                                                                                                118         EL MILLON                                         000001N00000000000000000000000000000000000000000000000000                                                                                                                                                           00000000000000000000000000000000000000000                                                                                                                                                                                                                                                          000000                                                                                                                                                                                                                                                                                                                                                              000000        
DA000001021600000357820046436707LUZ MARIA                                         ALMONTE                                                                         C06000008596              19330917036FC000000000000000000000000000000                                                  LORENZO ALVAREZ 33                                                                                                                                    33          NA                                                000060N00000000000000000000000000000000000000000000000000                                                                                                                                                           00000000000000000000000000000000000000000                                                                                                                                                                                                                                                          000000                                                                                                                                                                                                                                                                                                                                                              000000        
DA000003864600001272580000000000RAMON ANTONIO                                     JIMENEZ                                                                         C05600546476              19530605036MC000000000000000000000000000000                                                  CUARTEL 113                                                                                                                                           113         NA                                                000143N00000000000000000000000000000000000000000000000000                                                                                                                                                           00000000000000000000000000000000000000000                                                                                                                                                                                                                                                          000000                                                                                                                                                                                                                                                                                                                                                              000000        
DA000002375500000081020009731217DULCE ESPERANZA                                   DIAZ                                                                            C00102975257              19400207036FS000000000000000000000000000000                                                  32A                                                                                                                                                   64 A        VILLAS AGRICOLAS                                  000001N00000000000000000000000000000000000000000000000000                                                                                                                                                           00000000000000000000000000000000000000000                                                                                                                                                                                                                                                          000000                                                                                                                                                                                                                                                                                                                                                              000000        
DA000003718100001252150000000000CRISTINA MARIA                                    BELLO                                                                           C00101121424              19361215036FC000000000000000000000000000000                                                  JOSE RODRIGUEZ ESPAILLAT                                                                                                                              8           EL PORTAL DE ATALA                                000001N00000000000000000000000000000000000000000000000000                                                                                                                                                           00000000000000000000000000000000000000000                                                                                                                                                                                                                                                          000000                                                                                                                                                                                                                                                                                                                                                              000000        
DA000003819400001273680000000000ANA VIRGINIA                                      VALLEJO                                                                         C01600093122              19510205036FS000000000000000000000000000000                                                  CARRETERA SANCHEZ, KM 10                                                                                                                              0           LOS MANGOS                                        000016N00000000000000000000000000000000000000000000000000                                                                                                                                                           00000000000000000000000000000000000000000                                                                                                                                                                                                                                                          000000                                                                                                                                                                                                                                                                                                                                                              000000        
DA000003770400001276150000000000HILARIO                                           ESPINAL                                                                         C00107059107              19591023036MS000000000000000000000000000000                                                  DOLLY                                                                                                                                                 3           12 DE LA SANCHEZ                                  000224N00000000000000000000000000000000000000000000000000                                                                                                                                                           00000000000000000000000000000000000000000                                                                                                                                                                                                                                                          000000                                                                                                                                                                                                                                                                                                                                                              000000        
DA000002740500000029080015014565BALDEMIRA                                         REYES                                                                           C00100840446              19250725036FC000000000000000000000000000000                                                  ELVIRA DE MENDOZA                                                                                                                                     257         ZONA UNIVERSITARIA                                000001N00000000000000000000000000000000000000000000000000                                                                                                                                                           00000000000000000000000000000000000000000                                                                                                                                                                                                                                                          000000                                                                                                                                                                                                                                                                                                                                                              000000        
DA000000102000000439720021355593ENEMENCIO                                         DE LOS SANTOS                                                                   C00500192919              19150201036MS000000000000000000000000000000                                                  NA                                                                                                                                                    NA          NA                                                000005N00000000000000000000000000000000000000000000000000                                                                                                                                                           00000000000000000000000000000000000000000                                                                                                                                                                                                                                                          000000                                                                                                                                                                                                                                                                                                                                                              000000        
DA000002656100000399650009121233MERCEDES MARIA MAGALY                             PEA                                                                             C00101002368              19410428036FC000000000000000000000000000000                                                  AGUSTIN LARA 7                                                                                                                                        7           NA                                                000001N00000000000000000000000000000000000000000000000000                                                                                                                                                           00000000000000000000000000000000000000000                                                                                                                                                                                                                                                          000000                                                                                                                                                                                                                                                                                                                                                              000000        
DA000003005100000720470000447934LOURDES DOLORES                                   SANTANA                                                                         C00107686644              19360310036FC000000000000000000000000000000                                                  SAN JUAN BTA. DE LA SALLE 124                                                                                                                         124         NA                                                000001N00000000000000000000000000000000000000000000000000                                                                                                                                                           00000000000000000000000000000000000000000                                                                                                                                                                                                                                                          000000                                                                                                                                                                                                                                                                                                                                                              000000        
DA000003870700001244790000000000RAMONA GERMANIA                                   NUEZ                                                                            C07300007510              19291011036FS000000000000000000000000000000                                                  DUARTE 127                                                                                                                                            127         NA                                                000223N00000000000000000000000000000000000000000000000000                                                                                                                                                           00000000000000000000000000000000000000000                                                                                                                                                                                                                                                          000000                                                                                                                                                                                                                                                                                                                                                              000000        
DA000001869100000104260000260448LUISA ARGENTINA                                   MEJIA                                                                           C00104645320              19480515036FS000000000000000000000000000000                                                  MANUEL HERRERO                                                                                                                                        01 ALTOS    SAN GRERORIO DE YAGUATE                           000082N00000000000000000000000000000000000000000000000000                                                                                                                                                           00000000000000000000000000000000000000000                                                                                                                                                                                                                                                          000000                                                                                                                                                                                                                                                                                                                                                              000000        
DA000003778500001251290000000000MIGUEL ANTONIO                                    MATOS                                                                           C00107758484              19370506036MS000000000000000000000000000000                                                  AV. 27 DE FEBRERO                                                                                                                                     563         DN                                                000001N00000000000000000000000000000000000000000000000000                                                                                                                                                           00000000000000000000000000000000000000000                                                                                                                                                                                                                                                          000000                                                                                                                                                                                                                                                                                                                                                              000000        
DA000000084400000268220028271264PAULA MERCEDES                                    SANCHEZ                                                                         C02700024769              19490629036FC000000000000000000000000000000                                                  PALO HINCADO                                                                                                                                          73          VILLA CORTO                                       000027N00000000000000000000000000000000000000000000000000                                                                                                                                                           00000000000000000000000000000000000000000                                                                                                                                                                                                                                                          000000                                                                                                                                                                                                                                                                                                                                                              000000        
DA000002761200000005460007492952MIGUEL ANTONIO                                    CASTILLO                                                                        C00100099472              19270105036MC000000000000000000000000000000                                                  CHOSTOS                                                                                                                                               413         SAN ANTON, ZONA COLONIAL                          000001N00000000000000000000000000000000000000000000000000                                                                                                                                                           00000000000000000000000000000000000000000                                                                                                                                                                                                                                                          000000                                                                                                                                                                                                                                                                                                                                                              000000        
DA000002381600000084870015990507LEOPOLDINA                                        CABRERA                                                                         C00103291803              19440414036FS000000000000000000000000000000                                                  RESPALDO 7                                                                                                                                            75          LA CIENEGA                                        000001N00000000000000000000000000000000000000000000000000                                                                                                                                                           00000000000000000000000000000000000000000                                                                                                                                                                                                                                                          000000                                                                                                                                                                                                                                                                                                                                                              000000        
DA000002412900000090660016248841RAFAEL R DEL CORAZON DE JS                        CEDEO                                                                           C00103677845              19520429036MS000000000000000000000000000000                                                  OVIEDO                                                                                                                                                195         DN                                                000001N00000000000000000000000000000000000000000000000000                                                                                                                                                           00000000000000000000000000000000000000000                                                                                                                                                                                                                                                          000000                                                                                                                                                                                                                                                                                                                                                              000000        
DA000002757400000009460007494467MIGUEL ANGEL                                      MESA                                                                            C00100122381              19400219036MS000000000000000000000000000000                                                  20                                                                                                                                                    17          EL VALIENTE                                       000223N00000000000000000000000000000000000000000000000000                                                                                                                                                           00000000000000000000000000000000000000000                                                                                                                                                                                                                                                          000000                                                                                                                                                                                                                                                                                                                                                              000000        
DA000000429200000289740030570944LUZ MERCEDES                                      SANCHEZ                                                                         C03101150567              19330318036FC000000000000000000000000000000                                                  6                                                                                                                                                     2           CENTRO DE LA CIUDAD                               000031N00000000000000000000000000000000000000000000000000                                                                                                                                                           00000000000000000000000000000000000000000                                                                                                                                                                                                                                                          000000                                                                                                                                                                                                                                                                                                                                                              000000        
DA000000331300000278060034240165CESAREO                                           CARELA                                                                          C03100195233              19290808036MS000000000000000000000000000000                                                  6                                                                                                                                                     74          CENTRO DE LA CIUDAD                               000031N00000000000000000000000000000000000000000000000000                                                                                                                                                           00000000000000000000000000000000000000000                                                                                                                                                                                                                                                          000000                                                                                                                                                                                                                                                                                                                                                              000000        
DA000000843400000337500046719690RAMON                                             CASTILLO                                                                        C05100000586              19260830036MC000000000000000000000000000000                                                  SANCHEZ                                                                                                                                               12          NA                                                000051N00000000000000000000000000000000000000000000000000                                                                                                                                                           00000000000000000000000000000000000000000                                                                                                                                                                                                                                                          000000                                                                                                                                                                                                                                                                                                                                                              000000        
DA000000379600000296300031093982WILSON                                            JIMINIAN                                                                        C03102171984              19700625036MC000000000000000000000000000000                                                  PADRE QUEZADA                                                                                                                                         49A         CENTRO DE LA CIUDAD                               000031N00000000000000000000000000000000000000000000000000                                                                                                                                                           00000000000000000000000000000000000000000                                                                                                                                                                                                                                                          000000                                                                                                                                                                                                                                                                                                                                                              000000        
DA000003832600001258990000000000ZOBEIDA DEL PILAR                                 OGANDO                                                                          C03100309255              19651028036FS000000000000000000000000000000                                                  8                                                                                                                                                     27          CERRO HERMOSO                                     000031N00000000000000000000000000000000000000000000000000                                                                                                                                                           00000000000000000000000000000000000000000                                                                                                                                                                                                                                                          000000                                                                                                                                                                                                                                                                                                                                                              000000        
DA000000182500000150180009589896CESAR OCTAVIO                                     SALAZAR                                                                         C00107593618              19410827036MC000000000000000000000000000000                                                  MANUEL DIEZ                                                                                                                                           07          PUEBLO NUEVO                                      000034N00000000000000000000000000000000000000000000000000                                                                                                                                                           00000000000000000000000000000000000000000                                                                                                                                                                                                                                                          000000                                                                                                                                                                                                                                                                                                                                                              000000        
DA000000227600000386220051638817ANTONIO DE JESUS                                  VERAS                                                                           C09400138666              19501231036MC000000000000000000000000000000                                                  SIMEON GUZMAN                                                                                                                                         01          VILLA GONZALEZ                                    000094N00000000000000000000000000000000000000000000000000                                                                                                                                                           00000000000000000000000000000000000000000                                                                                                                                                                                                                                                          000000                                                                                                                                                                                                                                                                                                                                                              000000        
DA000003131600000385670052790543PEDRO RAFAEL                                      GUZMAN                                                                          C09400032224              19570213036MS000000000000000000000000000000                                                  GUADALUPE GARCIA                                                                                                                                      69          VILLA GONZALEZ                                    000094N00000000000000000000000000000000000000000000000000                                                                                                                                                           00000000000000000000000000000000000000000                                                                                                                                                                                                                                                          000000                                                                                                                                                                                                                                                                                                                                                              000000        
DA000000929000000308620030829982HILDA MERCEDES                                    PERALTA                                                                         C03700197241              19391102036FS000000000000000000000000000000                                                  DR. ZAFRA                                                                                                                                             2           CENTRO DE LA CIUDAD                               000037N00000000000000000000000000000000000000000000000000                                                                                                                                                           00000000000000000000000000000000000000000                                                                                                                                                                                                                                                          000000                                                                                                                                                                                                                                                                                                                                                              000000        
DA000000438600000620310037020763CESAR AUGUSTO                                     ARIAS                                                                           C03102965880              19530422036MS000000000000000000000000000000                                                  AV. YAPORT DUMIT                                                                                                                                      182         EL ROSAL                                          000031N00000000000000000000000000000000000000000000000000                                                                                                                                                           00000000000000000000000000000000000000000                                                                                                                                                                                                                                                          000000                                                                                                                                                                                                                                                                                                                                                              000000        
DA000000407200000613180030056107CARMEN YOLANDA                                    DOMINGUEZ                                                                       C03101140972              19560816036FS000000000000000000000000000000                                                  YAPOT DUMIT                                                                                                                                           4           LAS FLORES                                        000031N00000000000000000000000000000000000000000000000000                                                                                                                                                           00000000000000000000000000000000000000000                                                                                                                                                                                                                                                          000000                                                                                                                                                                                                                                                                                                                                                              000000        
DA000003838000001244630000000000IDALIA MERCEDES                                   GUTIERREZ                                                                       C03102128919              19410805036FC000000000000000000000000000000                                                  AV. ESTRELLA SADHALA 59                                                                                                                               61          LA GALLERA                                        000031N00000000000000000000000000000000000000000000000000                                                                                                                                                           00000000000000000000000000000000000000000                                                                                                                                                                                                                                                          000000                                                                                                                                                                                                                                                                                                                                                              000000        
DA000003694100000540650010027882FULVIA DOLORES                                    SANCHEZ                                                                         C00107686560              19601219036FS000000000000000000000000000000                                                  LEONCIO RAMOS 42                                                                                                                                      42          NA                                                000001N00000000000000000000000000000000000000000000000000                                                                                                                                                           00000000000000000000000000000000000000000                                                                                                                                                                                                                                                          000000                                                                                                                                                                                                                                                                                                                                                              000000        
DA000002930600000174370003758771MARIA DOLORES                                     FELIZ                                                                           C00109899005              19260217036FS000000000000000000000000000000                                                  1RA 6                                                                                                                                                 6           NA                                                000001N00000000000000000000000000000000000000000000000000                                                                                                                                                           00000000000000000000000000000000000000000                                                                                                                                                                                                                                                          000000                                                                                                                                                                                                                                                                                                                                                              000000        
