EPN52
DA000000769000000558290017604720RAFAEL                                            REYES                                                                           C00200262947              19221024036MS000000000000000000000000000000                                                  LIBERTAD                                                                                                                                              41          PROLONGACION J. PEINADO                           000002N00000000000000000000000000000000000000000000000000                                                                                                                                                           00000000000000000000000000000000000000000                                                                                                                                                                                                                                                          000000                                                                                                                                                                                                                                                                                                                                                              000000        
DA000003210700000390070053581105MANUEL                                            LOPEZ                                                                           C10400136023              19460822036MS000000000000000000000000000000                                                  EL PAPAYO                                                                                                                                             2           EL PAPAYO                                         000002N00000000000000000000000000000000000000000000000000                                                                                                                                                           00000000000000000000000000000000000000000                                                                                                                                                                                                                                                          000000                                                                                                                                                                                                                                                                                                                                                              000000        
DA000000147500000770110038150567HERMINIO DE JESUS                                 ROSARIO                                                                         C04800385678              19450518036MS000000000000000000000000000000                                                  N                                                                                                                                                     183         N                                                 000002N00000000000000000000000000000000000000000000000000                                                                                                                                                           00000000000000000000000000000000000000000                                                                                                                                                                                                                                                          000000                                                                                                                                                                                                                                                                                                                                                              000000        
DA000002061200000167230015525530ALTAGRACIA EDUVIGES                               COTES                                                                           C00108923814              19341117036FS000000000000000000000000000000                                                  PRESIDENTE VASQUEZ                                                                                                                                    83          ENS. OZAMA                                        000001N00000000000000000000000000000000000000000000000000                                                                                                                                                           00000000000000000000000000000000000000000                                                                                                                                                                                                                                                          000000                                                                                                                                                                                                                                                                                                                                                              000000        
DA000002154200000102670014091832PEDRO MIGUEL                                      DE LA ROSA                                                                      C00104555347              19330912036MC000000000000000000000000000000                                                  5A                                                                                                                                                    11          LOS MINA                                          000001N00000000000000000000000000000000000000000000000000                                                                                                                                                           00000000000000000000000000000000000000000                                                                                                                                                                                                                                                          000000                                                                                                                                                                                                                                                                                                                                                              000000        
DA000002977000000155540011137027ZOILA PURA INOCENCIA                              LUNA                                                                            C00107961443              19420715036FC000000000000000000000000000000                                                  N                                                                                                                                                     44          N                                                 000001N00000000000000000000000000000000000000000000000000                                                                                                                                                           00000000000000000000000000000000000000000                                                                                                                                                                                                                                                          000000                                                                                                                                                                                                                                                                                                                                                              000000        
DA000002021500000150630016449330FRANCISCO                                         FRIAS                                                                           C00107626061              19340225036MS000000000000000000000000000000                                                  MANZ 4305                                                                                                                                             24          URB. CAROLINA                                     000001N00000000000000000000000000000000000000000000000000                                                                                                                                                           00000000000000000000000000000000000000000                                                                                                                                                                                                                                                          000000                                                                                                                                                                                                                                                                                                                                                              000000        
DA000002234700000059870011808041GUILLERMO ANTONIO                                 MEDINA                                                                          C00101750107              19440815036MC000000000000000000000000000000                                                  CUL DE SAC 8                                                                                                                                          17          LOS PRADOS                                        000001N00000000000000000000000000000000000000000000000000                                                                                                                                                           00000000000000000000000000000000000000000                                                                                                                                                                                                                                                          000000                                                                                                                                                                                                                                                                                                                                                              000000        
DA000000802700000203670019673306MARIANO                                           VALLEJO                                                                         C00200010619              19400213036MC000000000000000000000000000000                                                  RESTAURACION                                                                                                                                          78          LOS PINOS                                         000001N00000000000000000000000000000000000000000000000000                                                                                                                                                           00000000000000000000000000000000000000000                                                                                                                                                                                                                                                          000000                                                                                                                                                                                                                                                                                                                                                              000000        
DA000003081200000449480025135806ANGEL                                             ACEVEDO                                                                         C02300551526              19420602036MS000000000000000000000000000000                                                  N                                                                                                                                                     166         N                                                 000001N00000000000000000000000000000000000000000000000000                                                                                                                                                           00000000000000000000000000000000000000000                                                                                                                                                                                                                                                          000000                                                                                                                                                                                                                                                                                                                                                              000000        
DA000002321500000505020003356072EDELMIRA                                          BAUTISTA                                                                        C00102524162              19320814036FS000000000000000000000000000000                                                  N                                                                                                                                                     171         N                                                 000001N00000000000000000000000000000000000000000000000000                                                                                                                                                           00000000000000000000000000000000000000000                                                                                                                                                                                                                                                          000000                                                                                                                                                                                                                                                                                                                                                              000000        
DA000000736100000212810018144285HECTOR DAMIAN                                     SANTANA                                                                         C00200629475              19440115036MC000000000000000000000000000000                                                  DOMINGO VALERA                                                                                                                                        22          LA 50                                             000001N00000000000000000000000000000000000000000000000000                                                                                                                                                           00000000000000000000000000000000000000000                                                                                                                                                                                                                                                          000000                                                                                                                                                                                                                                                                                                                                                              000000        
DA000002176100000084020009764705MANUEL ANIBAL                                     HERRERA                                                                         C00103239828              19500110036MC000000000000000000000000000000                                                  4TA                                                                                                                                                   14          LA ESPERANZA                                      000001N00000000000000000000000000000000000000000000000000                                                                                                                                                           00000000000000000000000000000000000000000                                                                                                                                                                                                                                                          000000                                                                                                                                                                                                                                                                                                                                                              000000        
DA000000725700000213650020746385RAFAEL                                            LORENZO                                                                         C00200713238              19501207036MS000000000000000000000000000000                                                  Y                                                                                                                                                     4           MADRE VIEJA                                       000001N00000000000000000000000000000000000000000000000000                                                                                                                                                           00000000000000000000000000000000000000000                                                                                                                                                                                                                                                          000000                                                                                                                                                                                                                                                                                                                                                              000000        
DA000000759600000210860017855841JUAN MARIA                                        PEREZ                                                                           C00200391696              19330216036MS000000000000000000000000000000                                                  C                                                                                                                                                     24                                                            000001N00000000000000000000000000000000000000000000000000                                                                                                                                                           00000000000000000000000000000000000000000                                                                                                                                                                                                                                                          000000                                                                                                                                                                                                                                                                                                                                                              000000        
DA000002496500000098280017152462ABRAHAN ANTONIO                                   RODRIGUEZ                                                                       C00104138250              19480520036MS000000000000000000000000000000                                                  RESP. 8                                                                                                                                               48          DN                                                000001N00000000000000000000000000000000000000000000000000                                                                                                                                                           00000000000000000000000000000000000000000                                                                                                                                                                                                                                                          000000                                                                                                                                                                                                                                                                                                                                                              000000        
DA000000783700000206850021469010FELIPE                                            MEDRANO                                                                         C00200125524              19340807036MC000000000000000000000000000000                                                  SANCHEZ                                                                                                                                               6           EL PUEBLO                                         000001N00000000000000000000000000000000000000000000000000                                                                                                                                                           00000000000000000000000000000000000000000                                                                                                                                                                                                                                                          000000                                                                                                                                                                                                                                                                                                                                                              000000        
DA000000770900000210170020997258TEODORO                                           CORPORAN                                                                        C00200312254              19300317036MC000000000000000000000000000000                                                  PRINCIPAL                                                                                                                                             17          EL PUEBLO                                         000001N00000000000000000000000000000000000000000000000000                                                                                                                                                           00000000000000000000000000000000000000000                                                                                                                                                                                                                                                          000000                                                                                                                                                                                                                                                                                                                                                              000000        
DA000000667300000438600017898937ALFREDO                                           YSAC                                                                            C00200819662              19401117036MS000000000000000000000000000000                                                  CARRETERA SANCHEZ                                                                                                                                     26          SNA CRISTOBAL                                     000001N00000000000000000000000000000000000000000000000000                                                                                                                                                           00000000000000000000000000000000000000000                                                                                                                                                                                                                                                          000000                                                                                                                                                                                                                                                                                                                                                              000000        
DA000000816900000112550012033207JUAN FRANCISCO                                    RAMIREZ                                                                         C00105138978              19300115036MS000000000000000000000000000000                                                  MADRE VIEJA SUR                                                                                                                                       32          VILLA OLGA                                        000001N00000000000000000000000000000000000000000000000000                                                                                                                                                           00000000000000000000000000000000000000000                                                                                                                                                                                                                                                          000000                                                                                                                                                                                                                                                                                                                                                              000000        
DA000002931900000174490007398385ANA LUISA                                         FAJARDO                                                                         C00109911982              19270322036FC000000000000000000000000000000                                                  MANZ K                                                                                                                                                02          URB. SALÑOME UREÑA                                000001N00000000000000000000000000000000000000000000000000                                                                                                                                                           00000000000000000000000000000000000000000                                                                                                                                                                                                                                                          000000                                                                                                                                                                                                                                                                                                                                                              000000        
DA000002409800000090980016250196FELICITA                                          MIESES                                                                          C00103700019              19421210036FS000000000000000000000000000000                                                  CAMINO CHIQUITO                                                                                                                                       127         ARROYOO HONDO                                     000001N00000000000000000000000000000000000000000000000000                                                                                                                                                           00000000000000000000000000000000000000000                                                                                                                                                                                                                                                          000000                                                                                                                                                                                                                                                                                                                                                              000000        
DA000001932900000121040006020741GANIMEDES                                         PEREZ                                                                           C00105560098              19451126036MC000000000000000000000000000000                                                  CERVANTES                                                                                                                                             025         LOS MINAS                                         000001N00000000000000000000000000000000000000000000000000                                                                                                                                                           00000000000000000000000000000000000000000                                                                                                                                                                                                                                                          000000                                                                                                                                                                                                                                                                                                                                                              000000        
DA000002160400000099720004831342PEDRO                                             GOMEZ                                                                           C00104273016              19280414036MC000000000000000000000000000000                                                  CRISANTENO                                                                                                                                            4           LOS MINAS                                         000001N00000000000000000000000000000000000000000000000000                                                                                                                                                           00000000000000000000000000000000000000000                                                                                                                                                                                                                                                          000000                                                                                                                                                                                                                                                                                                                                                              000000        
DA000000671900000376870050539153SALVADOR                                          RUIZ                                                                            C08200126475              19421009036MS000000000000000000000000000000                                                  PRINCIPAL                                                                                                                                             023         EL MAIZAL                                         000001N00000000000000000000000000000000000000000000000000                                                                                                                                                           00000000000000000000000000000000000000000                                                                                                                                                                                                                                                          000000                                                                                                                                                                                                                                                                                                                                                              000000        
DA000000004300000080860011865931APOLINAR                                          BAUTISTA                                                                        C00102958709              19310623036MS000000000000000000000000000000                                                  STO RGUEZ                                                                                                                                             17          BAJO DE HAINA                                     000001N00000000000000000000000000000000000000000000000000                                                                                                                                                           00000000000000000000000000000000000000000                                                                                                                                                                                                                                                          000000                                                                                                                                                                                                                                                                                                                                                              000000        
DA000000716100000380970051359880RAMON DE                                          JESUS                                                                           C09300111904              19450122036MS000000000000000000000000000000                                                  C                                                                                                                                                     17                                                            000001N00000000000000000000000000000000000000000000000000                                                                                                                                                           00000000000000000000000000000000000000000                                                                                                                                                                                                                                                          000000                                                                                                                                                                                                                                                                                                                                                              000000        
DA000002553900000053870003484134BARTOLOME YAQUE                                   PUJALS                                                                          C00101527026              19421102036MS000000000000000000000000000000                                                  N                                                                                                                                                     385A        N                                                 000001N00000000000000000000000000000000000000000000000000                                                                                                                                                           00000000000000000000000000000000000000000                                                                                                                                                                                                                                                          000000                                                                                                                                                                                                                                                                                                                                                              000000        
DA000002279500000062660003527117BENITO RAMON                                      CABRAL                                                                          C00101893881              19410521036MC000000000000000000000000000000                                                  49                                                                                                                                                    39          LA FE                                             000001N00000000000000000000000000000000000000000000000000                                                                                                                                                           00000000000000000000000000000000000000000                                                                                                                                                                                                                                                          000000                                                                                                                                                                                                                                                                                                                                                              000000        
DA000000815900000436420019147118CESAR                                             DIAZ                                                                            C00200079044              19410803036MC000000000000000000000000000000                                                  C                                                                                                                                                     35                                                            000001N00000000000000000000000000000000000000000000000000                                                                                                                                                           00000000000000000000000000000000000000000                                                                                                                                                                                                                                                          000000                                                                                                                                                                                                                                                                                                                                                              000000        
DA000003210600000677420053233354FELIX                                             FIGUEREO                                                                        C10400135199              19600318036MC000000000000000000000000000000                                                  PRINCIPAL                                                                                                                                             22          CQAMBITA                                          000104N00000000000000000000000000000000000000000000000000                                                                                                                                                           00000000000000000000000000000000000000000                                                                                                                                                                                                                                                          000000                                                                                                                                                                                                                                                                                                                                                              000000        
DA000003225400000210660021336080SANTA ANACLETA                                    MATOS                                                                           C00200370047              19540715036FS000000000000000000000000000000                                                  PRIVADA                                                                                                                                               52          MADRE VIEJA                                       000002N00000000000000000000000000000000000000000000000000                                                                                                                                                           00000000000000000000000000000000000000000                                                                                                                                                                                                                                                          000000                                                                                                                                                                                                                                                                                                                                                              000000        
DA000000463500001060780050700954MIGUEL CASIMIRO                                   FRANCO                                                                          C08700039558              19441018036MS000000000000000000000000000000                                                  HERMANOS SALDAQA 11                                                                                                                                   11          FANTINO                                           000087N00000000000000000000000000000000000000000000000000                                                                                                                                                           00000000000000000000000000000000000000000                                                                                                                                                                                                                                                          000000                                                                                                                                                                                                                                                                                                                                                              000000        
DA000003223800000209200020233374MARIA ANA                                         CARO                                                                            C00200212009              19600530036FS000000000000000000000000000000                                                  HERCULES                                                                                                                                              1           MADRE VIEJA NORTE                                 000002N00000000000000000000000000000000000000000000000000                                                                                                                                                           00000000000000000000000000000000000000000                                                                                                                                                                                                                                                          000000                                                                                                                                                                                                                                                                                                                                                              000000        
DA000000777400000205740019680522FLORENTINA                                        JIMENEZ                                                                         C00200080778              19550429036FC000000000000000000000000000000                                                  FEDERICO READ 11                                                                                                                                      11          LAVA PIE                                          000002N00000000000000000000000000000000000000000000000000                                                                                                                                                           00000000000000000000000000000000000000000                                                                                                                                                                                                                                                          000000                                                                                                                                                                                                                                                                                                                                                              000000        
DA000001612700000129160005676608CECILIO                                           REYES                                                                           C00106206154              19380503036MC000000000000000000000000000000                                                  JOSE CONTRERAS                                                                                                                                        20          SABANA PERDIDA                                    000225N00000000000000000000000000000000000000000000000000                                                                                                                                                           00000000000000000000000000000000000000000                                                                                                                                                                                                                                                          000000                                                                                                                                                                                                                                                                                                                                                              000000        
DA000001695700000177200009128794ROSARIO                                           SOTO                                                                            C00110734324              19430220036FS000000000000000000000000000000                                                  BONANZA                                                                                                                                               7           RES. MARIBEL                                      000224N00000000000000000000000000000000000000000000000000                                                                                                                                                           00000000000000000000000000000000000000000                                                                                                                                                                                                                                                          000000                                                                                                                                                                                                                                                                                                                                                              000000        
DA000001297000000228250024545176DULCE MARIA                                       CARVAJAL                                                                        C01100000635              19371203036FS000000000000000000000000000000                                                  SATURNO                                                                                                                                               33          LA GALAXIA HERRERA                                000224N00000000000000000000000000000000000000000000000000                                                                                                                                                           00000000000000000000000000000000000000000                                                                                                                                                                                                                                                          000000                                                                                                                                                                                                                                                                                                                                                              000000        
DA000003776200001271610000000000RAFAEL RAMON                                      SANTIAGO                                                                        C00107472045              19430223036MS000000000000000000000000000000                                                  LIBERTADOR                                                                                                                                            15          PANTOJA                                           000224N00000000000000000000000000000000000000000000000000                                                                                                                                                           00000000000000000000000000000000000000000                                                                                                                                                                                                                                                          000000                                                                                                                                                                                                                                                                                                                                                              000000        
DA000003768800001268560000000000MARCELINA                                         ORTEGA                                                                          C00106848245              19280621036FS000000000000000000000000000000                                                  C. LAS CARRERAS                                                                                                                                       53          BUENOS AIRES DE HERRERA                           000224N00000000000000000000000000000000000000000000000000                                                                                                                                                           00000000000000000000000000000000000000000                                                                                                                                                                                                                                                          000000                                                                                                                                                                                                                                                                                                                                                              000000        
DA000001051700000336180040963240ALTAGRACIA                                        CESAR                                                                           C05000056142              19300608036FC000000000000000000000000000000                                                  LA CONFLUENCIA                                                                                                                                        11          EL PUEBLO                                         000050N00000000000000000000000000000000000000000000000000                                                                                                                                                           00000000000000000000000000000000000000000                                                                                                                                                                                                                                                          000000                                                                                                                                                                                                                                                                                                                                                              000000        
DA000000144200000331370039024714MANUEL DE JESUS                                   GARCIA                                                                          C04800328272              19450305036MC000000000000000000000000000000                                                  DUARTE                                                                                                                                                63          JUMA                                              000048N00000000000000000000000000000000000000000000000000                                                                                                                                                           00000000000000000000000000000000000000000                                                                                                                                                                                                                                                          000000                                                                                                                                                                                                                                                                                                                                                              000000        
DA000002025000000161730001665147ESMERALDA ELIGIA                                  FELIZ                                                                           C00108465147              19250615036FS000000000000000000000000000000                                                  ALONZO PEREZ                                                                                                                                          35          EL ALMIRANTE                                      000223N00000000000000000000000000000000000000000000000000                                                                                                                                                           00000000000000000000000000000000000000000                                                                                                                                                                                                                                                          000000                                                                                                                                                                                                                                                                                                                                                              000000        
DA000000577100000254630026889594JUAN                                              CANCELIS                                                                        C02300211360              19430627036MC000000000000000000000000000000                                                  CARLOS ORDO#EZ                                                                                                                                        25          EL PUEBLO                                         000023N00000000000000000000000000000000000000000000000000                                                                                                                                                           00000000000000000000000000000000000000000                                                                                                                                                                                                                                                          000000                                                                                                                                                                                                                                                                                                                                                              000000        
DA000002405500000091330010391747RAMIRO                                            CARABALLO                                                                       C00103725057              19551207036MS000000000000000000000000000000                                                  2 SUR 3                                                                                                                                               25A         ENS. LUPERON                                      000001N00000000000000000000000000000000000000000000000000                                                                                                                                                           00000000000000000000000000000000000000000                                                                                                                                                                                                                                                          000000                                                                                                                                                                                                                                                                                                                                                              000000        
DA000001727200000143170014056432MELANEO                                           BRITO                                                                           C00107168486              19431022036MS000000000000000000000000000000                                                  MANZANA 43                                                                                                                                            6A          LAS CAOBAS                                        000224N00000000000000000000000000000000000000000000000000                                                                                                                                                           00000000000000000000000000000000000000000                                                                                                                                                                                                                                                          000000                                                                                                                                                                                                                                                                                                                                                              000000        
DA000000536700000255380025703362EDUARDO                                           REYES                                                                           C02300255920              19421210036MC000000000000000000000000000000                                                  ROLANDO MARTINES                                                                                                                                      19          VILLA PROVIDENCIA                                 000023N00000000000000000000000000000000000000000000000000                                                                                                                                                           00000000000000000000000000000000000000000                                                                                                                                                                                                                                                          000000                                                                                                                                                                                                                                                                                                                                                              000000        
DA000003379800000107650001320733PEDRO MARIA                                       GENAO                                                                           C00104814165              19351201036MC000000000000000000000000000000                                                  4TA                                                                                                                                                   57          VILLA FARO                                        000223N00000000000000000000000000000000000000000000000000                                                                                                                                                           00000000000000000000000000000000000000000                                                                                                                                                                                                                                                          000000                                                                                                                                                                                                                                                                                                                                                              000000        
DA000002031500000159500005827323ANTONIO                                           POTTER                                                                          C00108276866              19420825036MC000000000000000000000000000000                                                  A                                                                                                                                                     5           VILLA FARO                                        000223N00000000000000000000000000000000000000000000000000                                                                                                                                                           00000000000000000000000000000000000000000                                                                                                                                                                                                                                                          000000                                                                                                                                                                                                                                                                                                                                                              000000        
DA000000743900000215190019421802AMABLE                                            MATOS                                                                           C00200913036              19310903036MS000000000000000000000000000000                                                  PROYECTO 15                                                                                                                                           16          LA ALTAGRACIA                                     000002N00000000000000000000000000000000000000000000000000                                                                                                                                                           00000000000000000000000000000000000000000                                                                                                                                                                                                                                                          000000                                                                                                                                                                                                                                                                                                                                                              000000        
DA000001740400000424020004987875OVIDIA                                            RAMIREZ                                                                         C00107055063              19190217036FS000000000000000000000000000000                                                  DOLLY                                                                                                                                                 5           URB MAXIMO GOMEZ                                  000224N00000000000000000000000000000000000000000000000000                                                                                                                                                           00000000000000000000000000000000000000000                                                                                                                                                                                                                                                          000000                                                                                                                                                                                                                                                                                                                                                              000000        
DA000000789300000436900019956166ANTONIO                                           GUERRERO                                                                        C00200147676              19440510036MC000000000000000000000000000000                                                  MAXIMO GOMEZ                                                                                                                                          48          PUEBLO NUEVO                                      000002N00000000000000000000000000000000000000000000000000                                                                                                                                                           00000000000000000000000000000000000000000                                                                                                                                                                                                                                                          000000                                                                                                                                                                                                                                                                                                                                                              000000        
DA000003232300000214030017892786JORGE EDUARDO                                     CAREY                                                                           C00200769834              19410214036MC000000000000000000000000000000                                                  RESP. FLORENCIO ARAUJO 17A                                                                                                                            17A         LAVA PIES                                         000002N00000000000000000000000000000000000000000000000000                                                                                                                                                           00000000000000000000000000000000000000000                                                                                                                                                                                                                                                          000000                                                                                                                                                                                                                                                                                                                                                              000000        
DA000003232700000443400023902341VIRGILIO                                          CORPORAN                                                                        C02000000261              19530204036MS000000000000000000000000000000                                                  DOMINGO VALERA                                                                                                                                        19          27 DE FEBRERO                                     000002N00000000000000000000000000000000000000000000000000                                                                                                                                                           00000000000000000000000000000000000000000                                                                                                                                                                                                                                                          000000                                                                                                                                                                                                                                                                                                                                                              000000        
DA000000805800000204270021456580CLAUDIO                                           ARCINIEGA                                                                       C00200024008              19240824036MC000000000000000000000000000000                                                  BERNARDO CHEVALIER 8                                                                                                                                  8           PUEBLO NUEVO                                      000002N00000000000000000000000000000000000000000000000000                                                                                                                                                           00000000000000000000000000000000000000000                                                                                                                                                                                                                                                          000000                                                                                                                                                                                                                                                                                                                                                              000000        
DA000000712800000381740052307846ANGEL MIGUEL                                      RIVERA                                                                          C09300149706              19490301036MS000000000000000000000000000000                                                  DUARTE                                                                                                                                                1           CENTRO DE LA CIUDAD                               000093N00000000000000000000000000000000000000000000000000                                                                                                                                                           00000000000000000000000000000000000000000                                                                                                                                                                                                                                                          000000                                                                                                                                                                                                                                                                                                                                                              000000        
DA000000785300000731720017833295PEDRO ANTONIO                                     GARCIA                                                                          C00200142396              19610629036MS000000000000000000000000000000                                                  JUAN TOMAS DIAZ                                                                                                                                       39          MADRE VIEJA SUR                                   000002N00000000000000000000000000000000000000000000000000                                                                                                                                                           00000000000000000000000000000000000000000                                                                                                                                                                                                                                                          000000                                                                                                                                                                                                                                                                                                                                                              000000        
DA000000801800000209060019162283JOSE ALTAGRACIA                                   PEREYRA                                                                         C00200208684              19190121036MS000000000000000000000000000000                                                  RESP. LUPERON                                                                                                                                         8           EL CERRO                                          000002N00000000000000000000000000000000000000000000000000                                                                                                                                                           00000000000000000000000000000000000000000                                                                                                                                                                                                                                                          000000                                                                                                                                                                                                                                                                                                                                                              000000        
DA000000757000000558950018119426JUAN ESTEBAN                                      DIAZ                                                                            C00200433597              19441109036MS000000000000000000000000000000                                                  6 DE NOVIEMBRE                                                                                                                                        13          LAVA PIES                                         000002N00000000000000000000000000000000000000000000000000                                                                                                                                                           00000000000000000000000000000000000000000                                                                                                                                                                                                                                                          000000                                                                                                                                                                                                                                                                                                                                                              000000        
DA000001742300001226960011741932ELUPINA                                           DE LA CRUZ                                                                      C00106864804              19460520036FS000000000000000000000000000000                                                  ESTRELLA                                                                                                                                              31          BUENOS AIRES DE HERRERA                           000001N00000000000000000000000000000000000000000000000000                                                                                                                                                           00000000000000000000000000000000000000000                                                                                                                                                                                                                                                          000000                                                                                                                                                                                                                                                                                                                                                              000000        
DA000003877000001268440000000000FRANCIA                                           PEÑALO                                                                          C10400019328              19651230036FS000000000000000000000000000000                                                  SIMON BOLIVAR                                                                                                                                         57          LAS CASITAS                                       000104N00000000000000000000000000000000000000000000000000                                                                                                                                                           00000000000000000000000000000000000000000                                                                                                                                                                                                                                                          000000                                                                                                                                                                                                                                                                                                                                                              000000        
DA000003222700000206700019953041LUIS EMILIO                                       JIMENEZ                                                                         C00200119329              19430113036MS000000000000000000000000000000                                                  AVE CONSTITUCION ESQ PADRE BORBON                                                                                                                     43          CENTRO DE LA CIUDAD                               000002N00000000000000000000000000000000000000000000000000                                                                                                                                                           00000000000000000000000000000000000000000                                                                                                                                                                                                                                                          000000                                                                                                                                                                                                                                                                                                                                                              000000        
DA000001573000000135740004641561FRANCISCO                                         MARTES                                                                          C00106600521              19421029036MS000000000000000000000000000000                                                  CALLE PORVENIR                                                                                                                                        27A         ANDRES                                            000001N00000000000000000000000000000000000000000000000000                                                                                                                                                           00000000000000000000000000000000000000000                                                                                                                                                                                                                                                          000000                                                                                                                                                                                                                                                                                                                                                              000000        
DA000003785300001269850000000000PEDRO ARMANDO                                     SANCHEZ                                                                         C00108693458              19470801036MS000000000000000000000000000000                                                  URB. LOS AMERICANOS                                                                                                                                   481         LOS ALCARRIZOS                                    000224N00000000000000000000000000000000000000000000000000                                                                                                                                                           00000000000000000000000000000000000000000                                                                                                                                                                                                                                                          000000                                                                                                                                                                                                                                                                                                                                                              000000        
DA000001299600000835610024265831CARMEN                                            DE LOS SANTOS                                                                   C01500021058              19551117036FC000000000000000000000000000000                                                  FEDERICO ALMANDO AYBAR ESQ 1 PAT                                                                                                                      41          EL HOSPITAL                                       000011N00000000000000000000000000000000000000000000000000                                                                                                                                                           00000000000000000000000000000000000000000                                                                                                                                                                                                                                                          000000                                                                                                                                                                                                                                                                                                                                                              000000        
S000067
