EPN52
DA000000916700001042480034570804ADRIA JOSEFA                                      RODRIGUEZ                                                                       C03700021458              19301202001FC000000000000000000000000000000                                                  AVENIDA MALECON                                                                                                                                       13          SABANA GRANDE ABAJO                               000037N00000000000000000000000000000000000000000000000000                                                                                                                                                           00000000000000000000000000000000000000000                                                                                                                                                                                                                                                          000000                                                                                                                                                                                                                                                                                                                                                              000000        
DA000001354200001227630046078837PEDRO ANTONIO                                     PAULA                                                                           C05600611478              19460510001MS000000000000000000000000000000                                                  C VIAJAO CAMINO AL MEDIO                                                                                                                              29          SAN FRANCISCO DE MACORIS                          000056N00000000000000000000000000000000000000000000000000                                                                                                                                                           00000000000000000000000000000000000000000                                                                                                                                                                                                                                                          000000                                                                                                                                                                                                                                                                                                                                                              000000        
DA000001028800000780140049961787PABLO                                             CASTRO                                                                          C07100180319              19350626001MS000000000000000000000000000000                                                  LA CAPITALITA                                                                                                                                         83          MACEDONIA                                         000071N00000000000000000000000000000000000000000000000000                                                                                                                                                           00000000000000000000000000000000000000000                                                                                                                                                                                                                                                          000000                                                                                                                                                                                                                                                                                                                                                              000000        
DA000001586900000809900016295035BONELLY                                           LANGUASCO                                                                       C00104814884              19330813001MS000000000000000000000000000000                                                  FCO DEL ROSARIO SANCHEZNo. 5                                                                                                                          0           SABANA PERDIDA                                    000001N00000000000000000000000000000000000000000000000000                                                                                                                                                           00000000000000000000000000000000000000000                                                                                                                                                                                                                                                          000000                                                                                                                                                                                                                                                                                                                                                              000000        
DA000002501500000705040011638272ANA                                               VICENTE                                                                         C00104444757              19461201001FS000000000000000000000000000000                                                  OSBALDO BASIL                                                                                                                                         194         VILLA CONSUELO                                    000001N00000000000000000000000000000000000000000000000000                                                                                                                                                           00000000000000000000000000000000000000000                                                                                                                                                                                                                                                          000000                                                                                                                                                                                                                                                                                                                                                              000000        
DA000000869200000346530045035115JULIAN                                            ORTEGA                                                                          C05500040562              19260120001MS000000000000000000000000000000                                                  BUENAVENTURA ALMANZAR                                                                                                                                 28          SAN ANTONIO                                       000055N00000000000000000000000000000000000000000000000000                                                                                                                                                           00000000000000000000000000000000000000000                                                                                                                                                                                                                                                          000000                                                                                                                                                                                                                                                                                                                                                              000000        
DA000000306300001039720029972810RUPERTO                                           RUCK                                                                            C03100448525              19400208001MS000000000000000000000000000000                                                  RAFAEL REYNOSO                                                                                                                                        12          URB SAN LORENZO                                   000031N00000000000000000000000000000000000000000000000000                                                                                                                                                           00000000000000000000000000000000000000000                                                                                                                                                                                                                                                          000000                                                                                                                                                                                                                                                                                                                                                              000000        
DA000001126600001067160042323187JOSE DE LOS SANTOS                                ALBERTO                                                                         C04700638945              19500117001MS000000000000000000000000000000                                                  CARRET. LA PRESA                                                                                                                                      86          LA PRESA                                          000047N00000000000000000000000000000000000000000000000000                                                                                                                                                           00000000000000000000000000000000000000000                                                                                                                                                                                                                                                          000000                                                                                                                                                                                                                                                                                                                                                              000000        
DA000003062300001046040038557060EUFEMIO                                           PEREZ                                                                           C05000043710              19570903001MS000000000000000000000000000000                                                  2DA                                                                                                                                                   09          MANGA NAGUA                                       000050N00000000000000000000000000000000000000000000000000                                                                                                                                                           00000000000000000000000000000000000000000                                                                                                                                                                                                                                                          000000                                                                                                                                                                                                                                                                                                                                                              000000        
DA000001234000000339910044366153ANA RAMONA                                        MARTE                                                                           C05400022884              19440430001FS000000000000000000000000000000                                                  SABANA LARGA                                                                                                                                          24          CENTRO DE LA CIUDADA                              000054N00000000000000000000000000000000000000000000000000                                                                                                                                                           00000000000000000000000000000000000000000                                                                                                                                                                                                                                                          000000                                                                                                                                                                                                                                                                                                                                                              000000        
DA000001239300000344610043917277AURELIA RAMONA                                    CAPELLAN                                                                        C05400652698              19481102001FS000000000000000000000000000000                                                  30 DE MAYO                                                                                                                                            00          MOCA                                              000054N00000000000000000000000000000000000000000000000000                                                                                                                                                           00000000000000000000000000000000000000000                                                                                                                                                                                                                                                          000000                                                                                                                                                                                                                                                                                                                                                              000000        
DA000000828500001048420048210818VICENTE                                           AMPARO                                                                          C06600029471              19390416001MS000000000000000000000000000000                                                  16 DE AGOSTO                                                                                                                                          4           SANCHEZ                                           000066N00000000000000000000000000000000000000000000000000                                                                                                                                                           00000000000000000000000000000000000000000                                                                                                                                                                                                                                                          000000                                                                                                                                                                                                                                                                                                                                                              000000        
DA000002964800000429890011196773ELADIA                                            MEDINA                                                                          C00109166124              19490218001FS000000000000000000000000000000                                                  RAFAEL AUGUSTO SANCHEZ                                                                                                                                90          D.N                                               000001N00000000000000000000000000000000000000000000000000                                                                                                                                                           00000000000000000000000000000000000000000                                                                                                                                                                                                                                                          000000                                                                                                                                                                                                                                                                                                                                                              000000        
DA000002153400000808850005568071ELIZABEHT DEL ROSARIO                             MIRANDA                                                                         C00104550058              19560902001FS000000000000000000000000000000                                                  3D                                                                                                                                                    1           LOS MINAS                                         000001N00000000000000000000000000000000000000000000000000                                                                                                                                                           00000000000000000000000000000000000000000                                                                                                                                                                                                                                                          000000                                                                                                                                                                                                                                                                                                                                                              000000        
DA000000057400001071390027253846ANTONIO                                           ROJAS                                                                           C02600109785              19500519001MS000000000000000000000000000000                                                  CLA RESBALOZA                                                                                                                                         22          MATA DE PALMA, GUERRA                             000026N00000000000000000000000000000000000000000000000000                                                                                                                                                           00000000000000000000000000000000000000000                                                                                                                                                                                                                                                          000000                                                                                                                                                                                                                                                                                                                                                              000000        
DA000000881200000788970054104468SILVERIO                                          GOMEZ                                                                           C12100001366              19420620001MS000000000000000000000000000000                                                  PADRE BOIL                                                                                                                                            50          VILLA ISABELA                                     000121N00000000000000000000000000000000000000000000000000                                                                                                                                                           00000000000000000000000000000000000000000                                                                                                                                                                                                                                                          000000                                                                                                                                                                                                                                                                                                                                                              000000        
DA000000922400000309350036020573KENIA                                             QUINTANA                                                                        C03700251881              19490327001FS000000000000000000000000000000                                                  JUAN RAFI                                                                                                                                             20          MIRAMAR                                           000037N00000000000000000000000000000000000000000000000000                                                                                                                                                           00000000000000000000000000000000000000000                                                                                                                                                                                                                                                          000000                                                                                                                                                                                                                                                                                                                                                              000000        
DA000001229500001072170046202978LIDIA MERCEDES                                    PEREZ                                                                           C05400066741              19350315001FS000000000000000000000000000000                                                  NUEVO PUERTO RICO                                                                                                                                     06          NUEVO PUERTO RICO                                 000054N00000000000000000000000000000000000000000000000000                                                                                                                                                           00000000000000000000000000000000000000000                                                                                                                                                                                                                                                          000000                                                                                                                                                                                                                                                                                                                                                              000000        
DA000003132700000385850052404536ADRIANO                                           TORIBIO                                                                         C09400068053              19510120001MS000000000000000000000000000000                                                  PRIMERA                                                                                                                                               154         PALMAR ABAJO                                      000094N00000000000000000000000000000000000000000000000000                                                                                                                                                           00000000000000000000000000000000000000000                                                                                                                                                                                                                                                          000000                                                                                                                                                                                                                                                                                                                                                              000000        
DA000001259400000344050043113765JOSE ANTONIO                                      LOPEZ                                                                           C05400563705              19370215001MS000000000000000000000000000000                                                  PRICIPAL                                                                                                                                              15          ZONA UNIVERSITARIA                                000054N00000000000000000000000000000000000000000000000000                                                                                                                                                           00000000000000000000000000000000000000000                                                                                                                                                                                                                                                          000000                                                                                                                                                                                                                                                                                                                                                              000000        
DA000000401500001040480032513114ANA MERCEDES                                      LIRIANO                                                                         C03101110157              19341224001FS000000000000000000000000000000                                                  1                                                                                                                                                     57          LOS QUEMADOS                                      000031N00000000000000000000000000000000000000000000000000                                                                                                                                                           00000000000000000000000000000000000000000                                                                                                                                                                                                                                                          000000                                                                                                                                                                                                                                                                                                                                                              000000        
DA000002481300000994670012765874MIGUELA ANTONIA                                   RODRIGUEZ                                                                       C00104290572              19460311001FS000000000000000000000000000000                                                  EDUARDO BRITO                                                                                                                                         2           SIMON BOLIVAR                                     000001N00000000000000000000000000000000000000000000000000                                                                                                                                                           00000000000000000000000000000000000000000                                                                                                                                                                                                                                                          000000                                                                                                                                                                                                                                                                                                                                                              000000        
DA000001038500000369610049536127EMENEGILDO                                        JIMENEZ                                                                         C07100268361              19310302001MC000000000000000000000000000000                                                  GASTON DELIGNE                                                                                                                                        64          ZONA URBANA                                       000071N00000000000000000000000000000000000000000000000000                                                                                                                                                           00000000000000000000000000000000000000000                                                                                                                                                                                                                                                          000000                                                                                                                                                                                                                                                                                                                                                              000000        
DA000001967800000134940011064275DOROTEA                                           SALAS                                                                           C00106533375              19460206001FS000000000000000000000000000000                                                  RESPHOSTA DIAZ                                                                                                                                        21          CASINO ADENTRO                                    000223N00000000000000000000000000000000000000000000000000                                                                                                                                                           00000000000000000000000000000000000000000                                                                                                                                                                                                                                                          000000                                                                                                                                                                                                                                                                                                                                                              000000        
DA000001866500000103460002334631MIGUEL ANGEL                                      JOVINE                                                                          C00104604376              19240921001MC000000000000000000000000000000                                                  MARIA TRINIDAD SANCHEZ 23                                                                                                                             23          INVI DE LOS MINA                                  000223N00000000000000000000000000000000000000000000000000                                                                                                                                                           00000000000000000000000000000000000000000                                                                                                                                                                                                                                                          000000                                                                                                                                                                                                                                                                                                                                                              000000        
DA000002068800000165000010732025DULCE MARIA                                       PERALTA                                                                         C00108725953              19430329001FS000000000000000000000000000000                                                  C 1RA                                                                                                                                                 11          INVIMOSA                                          000223N00000000000000000000000000000000000000000000000000                                                                                                                                                           00000000000000000000000000000000000000000                                                                                                                                                                                                                                                          000000                                                                                                                                                                                                                                                                                                                                                              000000        
DA000002161900000092150010395701REYNA ALTAGRACIA                                  GONZALEZ                                                                        C00103765715              19330707001FC000000000000000000000000000000                                                  C SANTA BARBARA 22                                                                                                                                    22          LOS MINA                                          000223N00000000000000000000000000000000000000000000000000                                                                                                                                                           00000000000000000000000000000000000000000                                                                                                                                                                                                                                                          000000                                                                                                                                                                                                                                                                                                                                                              000000        
DA000001871400000706270011975322ROSA CATALINA                                     ALIX                                                                            C00104656079              19331226001FS000000000000000000000000000000                                                  MANZ. N                                                                                                                                               0           LAS ENFERMERAS                                    000223N00000000000000000000000000000000000000000000000000                                                                                                                                                           00000000000000000000000000000000000000000                                                                                                                                                                                                                                                          000000                                                                                                                                                                                                                                                                                                                                                              000000        
DA000001843600000810200006666241SEGUNDINA                                         TELLERIA                                                                        C00104879267              19510130001FS000000000000000000000000000000                                                  ALEJANDRO GERARDINO 64                                                                                                                                56          LOS MINA                                          000223N00000000000000000000000000000000000000000000000000                                                                                                                                                           00000000000000000000000000000000000000000                                                                                                                                                                                                                                                          000000                                                                                                                                                                                                                                                                                                                                                              000000        
DA000001848300000108920012002408NELFA DEL ROSARIO                                 BURGOS                                                                          C00104895503              19391001001FS000000000000000000000000000000                                                  GRAVIEL DEL ORBE 11                                                                                                                                   11          CATANGA LOS MINA                                  000223N00000000000000000000000000000000000000000000000000                                                                                                                                                           00000000000000000000000000000000000000000                                                                                                                                                                                                                                                          000000                                                                                                                                                                                                                                                                                                                                                              000000        
DA000002723200000794520015858345ROSA                                              ROSARIO                                                                         C00100695592              19460512001FS000000000000000000000000000000                                                  C PENETRACION,URB.LOS VECINO                                                                                                                          202         LOS VECINOS VILLA FARO                            000223N00000000000000000000000000000000000000000000000000                                                                                                                                                           00000000000000000000000000000000000000000                                                                                                                                                                                                                                                          000000                                                                                                                                                                                                                                                                                                                                                              000000        
DA000002714900001208160003459407RICARDO                                           PEGUERO                                                                         C00100543479              19280828001MS000000000000000000000000000000                                                  JUAN EVANGELISTA JIMENEZ 27                                                                                                                           27          D.N                                               000001N00000000000000000000000000000000000000000000000000                                                                                                                                                           00000000000000000000000000000000000000000                                                                                                                                                                                                                                                          000000                                                                                                                                                                                                                                                                                                                                                              000000        
DA000002217200000984000012870307LINA MERCEDES                                     ARZENO                                                                          C00101697316              19440313001FC000000000000000000000000000000                                                  FILOMENA GOMEZ DE COVA 56                                                                                                                             56          D.N SERRALLES                                     000001N00000000000000000000000000000000000000000000000000                                                                                                                                                           00000000000000000000000000000000000000000                                                                                                                                                                                                                                                          000000                                                                                                                                                                                                                                                                                                                                                              000000        
DA000002850900000555040016698764OLIMPIA ANA BELLA                                 LEDESMA                                                                         C00114240732              19280129001FS000000000000000000000000000000                                                  CAPUCHINO                                                                                                                                             25          CAFE DE HERRERA                                   000224N00000000000000000000000000000000000000000000000000                                                                                                                                                           00000000000000000000000000000000000000000                                                                                                                                                                                                                                                          000000                                                                                                                                                                                                                                                                                                                                                              000000        
DA000002622100000041990012560715MANUEL                                            JAVIER                                                                          C00101183606              19360102001MC000000000000000000000000000000                                                  JUAN PABLO DUARTE 34A                                                                                                                                 34A         ISABELITA                                         000001N00000000000000000000000000000000000000000000000000                                                                                                                                                           00000000000000000000000000000000000000000                                                                                                                                                                                                                                                          000000                                                                                                                                                                                                                                                                                                                                                              000000        
DA000002322300000074610013758892ELSA ALTAGRACIA                                   PEREZ                                                                           C00102511383              19420124001FS000000000000000000000000000000                                                  MARIA DE TOLEDO 70A                                                                                                                                   70A         VILLA CONSUELO                                    000001N00000000000000000000000000000000000000000000000000                                                                                                                                                           00000000000000000000000000000000000000000                                                                                                                                                                                                                                                          000000                                                                                                                                                                                                                                                                                                                                                              000000        
DA000002855700000183650004243581ROSENDO                                           TAVAREZ                                                                         C00113665236              19470808001MC000000000000000000000000000000                                                  FCO. HENRIQUEZ Y CARVAJAL 135                                                                                                                         135         SAN CARLOS                                        000001N00000000000000000000000000000000000000000000000000                                                                                                                                                           00000000000000000000000000000000000000000                                                                                                                                                                                                                                                          000000                                                                                                                                                                                                                                                                                                                                                              000000        
DA000002408300000412680014935116MARIA MERCEDES                                    ESPINAL                                                                         C00103745063              19390316001FC000000000000000000000000000000                                                  25 OESTE 15                                                                                                                                           15          LUPERON                                           000001N00000000000000000000000000000000000000000000000000                                                                                                                                                           00000000000000000000000000000000000000000                                                                                                                                                                                                                                                          000000                                                                                                                                                                                                                                                                                                                                                              000000        
DA000002480400000994630015243180LUIS                                              ORTEGA                                                                          C00104279807              19490131001MS000000000000000000000000000000                                                  GUAROCUYA 86                                                                                                                                          86          SIMON BOLIBAR                                     000001N00000000000000000000000000000000000000000000000000                                                                                                                                                           00000000000000000000000000000000000000000                                                                                                                                                                                                                                                          000000                                                                                                                                                                                                                                                                                                                                                              000000        
DA000000010300000423120009997640GREGORIO                                          CASTILLO                                                                        C00106695190              19240924001MS000000000000000000000000000000                                                  LA CIENAGA 4                                                                                                                                          4           VILLA VERDE                                       000001N00000000000000000000000000000000000000000000000000                                                                                                                                                           00000000000000000000000000000000000000000                                                                                                                                                                                                                                                          000000                                                                                                                                                                                                                                                                                                                                                              000000        
DA000001627600000161230014117893JOSE MERCEDES                                     VALENZUELA                                                                      C00108421215              19290808001MS000000000000000000000000000000                                                  C5                                                                                                                                                    10          DN                                                000001N00000000000000000000000000000000000000000000000000                                                                                                                                                           00000000000000000000000000000000000000000                                                                                                                                                                                                                                                          000000                                                                                                                                                                                                                                                                                                                                                              000000        
DA000002715800000025440002143451ANTONIA                                           SOSA                                                                            C00100710284              19400322001FS000000000000000000000000000000                                                  PEDRO LIVIO CEDANO 164                                                                                                                                164         D.N                                               000001N00000000000000000000000000000000000000000000000000                                                                                                                                                           00000000000000000000000000000000000000000                                                                                                                                                                                                                                                          000000                                                                                                                                                                                                                                                                                                                                                              000000        
DA000002647400000685780000088461GERMAN                                            PEREZ                                                                           C00101074979              19520512001MS000000000000000000000000000000                                                  JOSE FRANCISCO PEA GOMEZ                                                                                                                             6           VILLA CARMEN                                      000001N00000000000000000000000000000000000000000000000000                                                                                                                                                           00000000000000000000000000000000000000000                                                                                                                                                                                                                                                          000000                                                                                                                                                                                                                                                                                                                                                              000000        
DA000002619700000041590009142878JUANA RAMONA                                      CASTELLANOS                                                                     C00101169787              19301125001FS000000000000000000000000000000                                                  AV. ITALIA 3                                                                                                                                          3           HONDURAS                                          000001N00000000000000000000000000000000000000000000000000                                                                                                                                                           00000000000000000000000000000000000000000                                                                                                                                                                                                                                                          000000                                                                                                                                                                                                                                                                                                                                                              000000        
DA000000008200000530400009972818FRANCIA                                           LINARES                                                                         C00106488158              19470506001FS000000000000000000000000000000                                                  PADRE BETANCURT 40                                                                                                                                    40          LOS ALCARRIZOS                                    000229N00000000000000000000000000000000000000000000000000                                                                                                                                                           00000000000000000000000000000000000000000                                                                                                                                                                                                                                                          000000                                                                                                                                                                                                                                                                                                                                                              000000        
DA000002235400000060070001141762MILAGROS AMADA                                    SUAZO                                                                           C00101760676              19431125001FC000000000000000000000000000000                                                  CARLOS HERNANDEZ 68                                                                                                                                   68          SAN GERONIMO                                      000001N00000000000000000000000000000000000000000000000000                                                                                                                                                           00000000000000000000000000000000000000000                                                                                                                                                                                                                                                          000000                                                                                                                                                                                                                                                                                                                                                              000000        
DA000002562100000497360015870740ERNESTO                                           MARCELO                                                                         C00101554939              19440122001MS000000000000000000000000000000                                                  AV. V CENTENARIO                                                                                                                                      0           VILLA C D.N                                       000001N00000000000000000000000000000000000000000000000000                                                                                                                                                           00000000000000000000000000000000000000000                                                                                                                                                                                                                                                          000000                                                                                                                                                                                                                                                                                                                                                              000000        
DA000000827700001048410048442700JAVIER                                            DE                                                                              C06600020967              19421010001MS000000000000000000000000000000                                                  HERNDEZ 8                                                                                                                                             8           SANCHEZ                                           000066N00000000000000000000000000000000000000000000000000                                                                                                                                                           00000000000000000000000000000000000000000                                                                                                                                                                                                                                                          000000                                                                                                                                                                                                                                                                                                                                                              000000        
DA000000872600000345400045037020JUANA ANTONIA                                     HERNANDEZ                                                                       C05500002174              19270812001FS000000000000000000000000000000                                                  MELLA                                                                                                                                                 77          MELLA                                             000055N00000000000000000000000000000000000000000000000000                                                                                                                                                           00000000000000000000000000000000000000000                                                                                                                                                                                                                                                          000000                                                                                                                                                                                                                                                                                                                                                              000000        
DA000001024400001072400043814086MARINO                                            ACOSTA                                                                          C06000106523              19360108001MS000000000000000000000000000000                                                  INDEPENDENCIA 19                                                                                                                                      19          CABRERA                                           000060N00000000000000000000000000000000000000000000000000                                                                                                                                                           00000000000000000000000000000000000000000                                                                                                                                                                                                                                                          000000                                                                                                                                                                                                                                                                                                                                                              000000        
DA000000865700000346060044256748ANA MARIA DE LA NIEVE                             ROJAS                                                                           C05500020309              19380805001FS000000000000000000000000000000                                                  DUARTE                                                                                                                                                82          N                                                 000055N00000000000000000000000000000000000000000000000000                                                                                                                                                           00000000000000000000000000000000000000000                                                                                                                                                                                                                                                          000000                                                                                                                                                                                                                                                                                                                                                              000000        
DA000001019200000041550003164646ANDRES                                            TAVERA                                                                          C00101168466              19310521001MC000000000000000000000000000000                                                  AV RESP, DE ECUADOR                                                                                                                                   0           CABRERRA                                          000060N00000000000000000000000000000000000000000000000000                                                                                                                                                           00000000000000000000000000000000000000000                                                                                                                                                                                                                                                          000000                                                                                                                                                                                                                                                                                                                                                              000000        
DA000001019000000068430005307845LUIS                                              CALDERON                                                                        C00102152816              19431122001MS000000000000000000000000000000                                                  C 1RA. 28                                                                                                                                             28          LOS NARANJITOS                                    000060N00000000000000000000000000000000000000000000000000                                                                                                                                                           00000000000000000000000000000000000000000                                                                                                                                                                                                                                                          000000                                                                                                                                                                                                                                                                                                                                                              000000        
DA000001382400000348640045379981RAMONA                                            PAULINO                                                                         C05600041353              19460520001FS000000000000000000000000000000                                                  CRISTINO SENO                                                                                                                                         31          N                                                 000056N00000000000000000000000000000000000000000000000000                                                                                                                                                           00000000000000000000000000000000000000000                                                                                                                                                                                                                                                          000000                                                                                                                                                                                                                                                                                                                                                              000000        
DA000001369100000350320045397768RAMON                                             VENTURA                                                                         C05600182017              19331103001MC000000000000000000000000000000                                                  AV. LOS MARTIREZ C7 02                                                                                                                                02          URB.LOS MAETROS                                   000056N00000000000000000000000000000000000000000000000000                                                                                                                                                           00000000000000000000000000000000000000000                                                                                                                                                                                                                                                          000000                                                                                                                                                                                                                                                                                                                                                              000000        
DA000001354300000352540046597890JESUS                                             CEDEO                                                                           C05600619695              19411002001MS000000000000000000000000000000                                                  1                                                                                                                                                     35          ENS ABREU                                         000056N00000000000000000000000000000000000000000000000000                                                                                                                                                           00000000000000000000000000000000000000000                                                                                                                                                                                                                                                          000000                                                                                                                                                                                                                                                                                                                                                              000000        
DA000001024700000357970046148693CARMEN                                            PEREIRA                                                                         C06000012481              19500609001FS000000000000000000000000000000                                                  LORENZO ALVAREZ                                                                                                                                       26          EL JAMO                                           000060N00000000000000000000000000000000000000000000000000                                                                                                                                                           00000000000000000000000000000000000000000                                                                                                                                                                                                                                                          000000                                                                                                                                                                                                                                                                                                                                                              000000        
DA000000833800000360760047745774BETHANIA                                          FONTANA                                                                         C06500017428              19420320001FC000000000000000000000000000000                                                  AVE. FCO. DEL R. SANCHEZ 24                                                                                                                           24          N                                                 000065N00000000000000000000000000000000000000000000000000                                                                                                                                                           00000000000000000000000000000000000000000                                                                                                                                                                                                                                                          000000                                                                                                                                                                                                                                                                                                                                                              000000        
DA000000824600000361540047664848EUGENIO                                           LANTIGUA                                                                        C06600002791              19410414001MC000000000000000000000000000000                                                  INDEPENDECIA                                                                                                                                          00          EL PLEY                                           000066N00000000000000000000000000000000000000000000000000                                                                                                                                                           00000000000000000000000000000000000000000                                                                                                                                                                                                                                                          000000                                                                                                                                                                                                                                                                                                                                                              000000        
DA000000829300000361750047918028ANA LUISA                                         ESTEVEZ                                                                         C06600012311              19491122001FS000000000000000000000000000000                                                  PROL. DUARTE 6                                                                                                                                        6           N                                                 000066N00000000000000000000000000000000000000000000000000                                                                                                                                                           00000000000000000000000000000000000000000                                                                                                                                                                                                                                                          000000                                                                                                                                                                                                                                                                                                                                                              000000        
DA000000817700000362700047305153ANA TERESA                                        PICHARDO                                                                        C06600088360              19471104001FS000000000000000000000000000000                                                  LOS CACAO LAS TERRENAS 50                                                                                                                             50          N                                                 000134N00000000000000000000000000000000000000000000000000                                                                                                                                                           00000000000000000000000000000000000000000                                                                                                                                                                                                                                                          000000                                                                                                                                                                                                                                                                                                                                                              000000        
DA000000817800000362710048222322OCTAVIO                                           TORRES                                                                          C06600089020              19291212001MC000000000000000000000000000000                                                  LOS CACAO LAS TERRENAS 50                                                                                                                             50          N                                                 000134N00000000000000000000000000000000000000000000000000                                                                                                                                                           00000000000000000000000000000000000000000                                                                                                                                                                                                                                                          000000                                                                                                                                                                                                                                                                                                                                                              000000        
DA000001045700000367780049157934MARTHA                                            CURIEL                                                                          C07100030654              19320314001FS000000000000000000000000000000                                                  ENRIQUILLO                                                                                                                                            20          N                                                 000071N00000000000000000000000000000000000000000000000000                                                                                                                                                           00000000000000000000000000000000000000000                                                                                                                                                                                                                                                          000000                                                                                                                                                                                                                                                                                                                                                              000000        
DA000001046100000367960049508365LUCILA                                            ALMONTE                                                                         C07100033831              19340128001FC000000000000000000000000000000                                                  COLON                                                                                                                                                 59          N                                                 000071N00000000000000000000000000000000000000000000000000                                                                                                                                                           00000000000000000000000000000000000000000                                                                                                                                                                                                                                                          000000                                                                                                                                                                                                                                                                                                                                                              000000        
DA000001033700000368450049576738MODESTA EMPERATRIZ                                MARMOLEJOS                                                                      C07100052708              19270901001FC000000000000000000000000000000                                                  INDEPENDENCIA                                                                                                                                         39          N                                                 000071N00000000000000000000000000000000000000000000000000                                                                                                                                                           00000000000000000000000000000000000000000                                                                                                                                                                                                                                                          000000                                                                                                                                                                                                                                                                                                                                                              000000        
DA000001029400000369040049515152VICTOR MANUEL                                     GONZALEZ                                                                        C07100098438              19340924001MC000000000000000000000000000000                                                  SALOME UREQA                                                                                                                                          9           N                                                 000071N00000000000000000000000000000000000000000000000000                                                                                                                                                           00000000000000000000000000000000000000000                                                                                                                                                                                                                                                          000000                                                                                                                                                                                                                                                                                                                                                              000000        
DA000001037400000369440049798464VIRGINIA ELENA                                    MARMOLEJOS                                                                      C07100250641              19290220001FC000000000000000000000000000000                                                  COLON                                                                                                                                                 24          N                                                 000071N00000000000000000000000000000000000000000000000000                                                                                                                                                           00000000000000000000000000000000000000000                                                                                                                                                                                                                                                          000000                                                                                                                                                                                                                                                                                                                                                              000000        
DA000000825400000473490048212892ELPIDIO                                           PAREDES                                                                         C06600009242              19271220001MS000000000000000000000000000000                                                  INDEPENDENCIA                                                                                                                                         75          N                                                 000066N00000000000000000000000000000000000000000000000000                                                                                                                                                           00000000000000000000000000000000000000000                                                                                                                                                                                                                                                          000000                                                                                                                                                                                                                                                                                                                                                              000000        
DA000000829100000652200048211087AGUEDA                                            SEVERINO                                                                        C06600033655              19310718001FS000000000000000000000000000000                                                  LUPERON                                                                                                                                               6           N                                                 000066N00000000000000000000000000000000000000000000000000                                                                                                                                                           00000000000000000000000000000000000000000                                                                                                                                                                                                                                                          000000                                                                                                                                                                                                                                                                                                                                                              000000        
DA000000820600000776480048224635BALBINA                                           DE LA CRUZ                                                                      C06600162967              19460407001FC000000000000000000000000000000                                                  CARRETERA SANCHEZSAMANA 47                                                                                                                            47          N                                                 000066N00000000000000000000000000000000000000000000000000                                                                                                                                                           00000000000000000000000000000000000000000                                                                                                                                                                                                                                                          000000                                                                                                                                                                                                                                                                                                                                                              000000        
DA000001041700000780070049382753ANDRES                                            VARGAS                                                                          C07100050496              19310204001MC000000000000000000000000000000                                                  FRANCISCO YAPOR                                                                                                                                       1           N                                                 000071N00000000000000000000000000000000000000000000000000                                                                                                                                                           00000000000000000000000000000000000000000                                                                                                                                                                                                                                                          000000                                                                                                                                                                                                                                                                                                                                                              000000        
DA000001037000000780190049265385OCTAVIO                                           FERMIN                                                                          C07100244040              19320310001MC000000000000000000000000000000                                                  KM. 1 AUT. NAGUA CARERA 42                                                                                                                            42          N                                                 000071N00000000000000000000000000000000000000000000000000                                                                                                                                                           00000000000000000000000000000000000000000                                                                                                                                                                                                                                                          000000                                                                                                                                                                                                                                                                                                                                                              000000        
DA000000844700000337710042808745ANA ALTAGRACIA                                    JORGE                                                                           C05100011989              19380403001FC000000000000000000000000000000                                                  DUARTE 43                                                                                                                                             43          VILLA TAPIA                                       000051N00000000000000000000000000000000000000000000000000                                                                                                                                                           00000000000000000000000000000000000000000                                                                                                                                                                                                                                                          000000                                                                                                                                                                                                                                                                                                                                                              000000        
S000075
