EPN52
DA000003718200001235790000000000AMANDA                                            DE LOS SANTOS                                                                   C00101122091              19441226036FS000000000000000000000000000000                                                  BENIGNO DEL CASTILLO                                                                                                                                  7           SAN CARLOS                                        000001N00000000000000000000000000000000000000000000000000                                                                                                                                                           00000000000000000000000000000000000000000                                                                                                                                                                                                                                                          000000                                                                                                                                                                                                                                                                                                                                                              000000        
DA000003720300001255350000000000PEDRO                                             CASTILLO                                                                        C00101230019              19380220036MS000000000000000000000000000000                                                  SAN JUAN BAUTISTA                                                                                                                                     113         ENS. ATALA                                        000001N00000000000000000000000000000000000000000000000000                                                                                                                                                           00000000000000000000000000000000000000000                                                                                                                                                                                                                                                          000000                                                                                                                                                                                                                                                                                                                                                              000000        
DA000002054800001064620005844741JOSE ALTAGRACIA                                   MOTA                                                                            C00109181545              19450316036MS000000000000000000000000000000                                                  MERCEDES                                                                                                                                              110         INVI                                              000001N00000000000000000000000000000000000000000000000000                                                                                                                                                           00000000000000000000000000000000000000000                                                                                                                                                                                                                                                          000000                                                                                                                                                                                                                                                                                                                                                              000000        
DA000003331900000746020025710511RADAMES                                           MENDEZ                                                                          C02200019400              19421208036MS000000000000000000000000000000                                                  CAMBRONAL                                                                                                                                             9           CENTRO DE LA CIUDAD                               000022N00000000000000000000000000000000000000000000000000                                                                                                                                                           00000000000000000000000000000000000000000                                                                                                                                                                                                                                                          000000                                                                                                                                                                                                                                                                                                                                                              000000        
DA000001684400000038840002390971DALILA                                            MORALES                                                                         C00101117828              19301030036FS000000000000000000000000000000                                                  BARACOLIS                                                                                                                                             23          HERRERA                                           000001N00000000000000000000000000000000000000000000000000                                                                                                                                                           00000000000000000000000000000000000000000                                                                                                                                                                                                                                                          000000                                                                                                                                                                                                                                                                                                                                                              000000        
DA000003721700001238880000000000OCTAVIO RAFAEL                                    NUÑEZ                                                                           C00101374270              19371220036MS000000000000000000000000000000                                                  PEATON 6                                                                                                                                              26          ONDURAS DEL ESTE                                  000001N00000000000000000000000000000000000000000000000000                                                                                                                                                           00000000000000000000000000000000000000000                                                                                                                                                                                                                                                          000000                                                                                                                                                                                                                                                                                                                                                              000000        
DA000003740600001240470000000000JUAN LEANDRO                                      TOOD                                                                            C00103182531              19440612036MS000000000000000000000000000000                                                  JOSE MARTI                                                                                                                                            254A        VILLA MARIA                                       000001N00000000000000000000000000000000000000000000000000                                                                                                                                                           00000000000000000000000000000000000000000                                                                                                                                                                                                                                                          000000                                                                                                                                                                                                                                                                                                                                                              000000        
DA000003754700001237460000000000ALBERTO                                           SANTANA                                                                         C00104921143              19440407036MS000000000000000000000000000000                                                  MELLA                                                                                                                                                 758         LOS HEROES                                        000001N00000000000000000000000000000000000000000000000000                                                                                                                                                           00000000000000000000000000000000000000000                                                                                                                                                                                                                                                          000000                                                                                                                                                                                                                                                                                                                                                              000000        
DA000000138400000481520054216288RAMON                                             BLANCO                                                                          C12300026940              19310407036MS000000000000000000000000000000                                                  1 DE MAYO                                                                                                                                             8           PIEDRA BLANCA                                     000123N00000000000000000000000000000000000000000000000000                                                                                                                                                           00000000000000000000000000000000000000000                                                                                                                                                                                                                                                          000000                                                                                                                                                                                                                                                                                                                                                              000000        
DA000001025400000357910045632428PAULINA                                           PAREDES                                                                         C06000011186              19320722036FC000000000000000000000000000000                                                  16 DE AGOS                                                                                                                                            SN          BARRIO DOÑA LUISA                                 000060N00000000000000000000000000000000000000000000000000                                                                                                                                                           00000000000000000000000000000000000000000                                                                                                                                                                                                                                                          000000                                                                                                                                                                                                                                                                                                                                                              000000        
DA000001611800000714540006734192ALTAGRACIA                                        BAEZ                                                                            C00106200959              19540512036FS000000000000000000000000000000                                                  39                                                                                                                                                    148         ZONA URBANA                                       000225N00000000000000000000000000000000000000000000000000                                                                                                                                                           00000000000000000000000000000000000000000                                                                                                                                                                                                                                                          000000                                                                                                                                                                                                                                                                                                                                                              000000        
DA000000067100000236240024010654RAFAEL EMILIO                                     DIAZ                                                                            C01300256334              19441101036MS000000000000000000000000000000                                                  TRINITARIA                                                                                                                                            6           BELLA VISTA                                       000001N00000000000000000000000000000000000000000000000000                                                                                                                                                           00000000000000000000000000000000000000000                                                                                                                                                                                                                                                          000000                                                                                                                                                                                                                                                                                                                                                              000000        
DA000003111400000600070027075186JULIO ANDRES                                      HENRIQUEZ                                                                       C02700027614              19531110036MS000000000000000000000000000000                                                  SAN ANTONIO                                                                                                                                           49          HATO MAYOR DEL REY                                000027N00000000000000000000000000000000000000000000000000                                                                                                                                                           00000000000000000000000000000000000000000                                                                                                                                                                                                                                                          000000                                                                                                                                                                                                                                                                                                                                                              000000        
DA000000718100000666780052731497ANGELA CRISTELA                                   NINA                                                                            C09300049799              19590226036FC000000000000000000000000000000                                                  RESP ACTIVO 2030                                                                                                                                      43          BAJO DE HAINA                                     000001N00000000000000000000000000000000000000000000000000                                                                                                                                                           00000000000000000000000000000000000000000                                                                                                                                                                                                                                                          000000                                                                                                                                                                                                                                                                                                                                                              000000        
DA000003046600000117320004867767MARIA DE LA CRUZ                                  PIÑA                                                                            C00105322010              19490503036FS000000000000000000000000000000                                                  PUNTA ARENA                                                                                                                                           5           KM 15 AUT DUARTE                                  000001N00000000000000000000000000000000000000000000000000                                                                                                                                                           00000000000000000000000000000000000000000                                                                                                                                                                                                                                                          000000                                                                                                                                                                                                                                                                                                                                                              000000        
DA000000812700000205280019146287PEDRO REGALADO                                    GARCIA                                                                          C00200063824              19610125036MS000000000000000000000000000000                                                  N                                                                                                                                                     38                                                            000001N00000000000000000000000000000000000000000000000000                                                                                                                                                           00000000000000000000000000000000000000000                                                                                                                                                                                                                                                          000000                                                                                                                                                                                                                                                                                                                                                              000000        
DA000000723300000380430052544380LUIS                                              MARTE                                                                           C09300066124              19500905036MS000000000000000000000000000000                                                  C                                                                                                                                                     43                                                            000001N00000000000000000000000000000000000000000000000000                                                                                                                                                           00000000000000000000000000000000000000000                                                                                                                                                                                                                                                          000000                                                                                                                                                                                                                                                                                                                                                              000000        
DA000003446900000031170017011022VICTOR                                            POLANCO                                                                         C00100909621              19430121036MC000000000000000000000000000000                                                  12 OCTUBRE                                                                                                                                            30          INVIVIENDA                                        000223N00000000000000000000000000000000000000000000000000                                                                                                                                                           00000000000000000000000000000000000000000                                                                                                                                                                                                                                                          000000                                                                                                                                                                                                                                                                                                                                                              000000        
DA000003130700000288210032509842FRANCISCO ANTONIO                                 HERNANDEZ                                                                       C03101081598              19480117036MS000000000000000000000000000000                                                  ENTRADA LA DELGADA 04                                                                                                                                 04          EL CERRO                                          000094N00000000000000000000000000000000000000000000000000                                                                                                                                                           00000000000000000000000000000000000000000                                                                                                                                                                                                                                                          000000                                                                                                                                                                                                                                                                                                                                                              000000        
DA000001669100000503430001275281PABLO                                             RAMIREZ                                                                         C00102298361              19521221036MS000000000000000000000000000000                                                  MANZANA G                                                                                                                                             48          SABANA PERDIDA                                    000225N00000000000000000000000000000000000000000000000000                                                                                                                                                           00000000000000000000000000000000000000000                                                                                                                                                                                                                                                          000000                                                                                                                                                                                                                                                                                                                                                              000000        
DA000001867200000104010008784738PATRIA                                            ALMONTE                                                                         C00104635271              19620317036FS000000000000000000000000000000                                                  MANZ 4707                                                                                                                                             47          INVIVIENDA                                        000223N00000000000000000000000000000000000000000000000000                                                                                                                                                           00000000000000000000000000000000000000000                                                                                                                                                                                                                                                          000000                                                                                                                                                                                                                                                                                                                                                              000000        
DA000000762900000209610017844975LUIS                                              LORENZO                                                                         C00200235935              19270322036MS000000000000000000000000000000                                                  JESUS DE GALINDEZ 14                                                                                                                                  14          EL PUEBLO                                         000002N00000000000000000000000000000000000000000000000000                                                                                                                                                           00000000000000000000000000000000000000000                                                                                                                                                                                                                                                          000000                                                                                                                                                                                                                                                                                                                                                              000000        
DA000003156100000616420036978064NELSON RAFAEL                                     CIRIACO                                                                         C03101678955              19590609036MS000000000000000000000000000000                                                  BARRANCA,LAS CHARCAS 01                                                                                                                               01          RES. MOLINA                                       000031N00000000000000000000000000000000000000000000000000                                                                                                                                                           00000000000000000000000000000000000000000                                                                                                                                                                                                                                                          000000                                                                                                                                                                                                                                                                                                                                                              000000        
DA000000337200000278810036892871JOSE ALFREDO                                      LOPEZ                                                                           C03100267149              19550905036MC000000000000000000000000000000                                                  7                                                                                                                                                     5           BARRIO DUARTE                                     000031N00000000000000000000000000000000000000000000000000                                                                                                                                                           00000000000000000000000000000000000000000                                                                                                                                                                                                                                                          000000                                                                                                                                                                                                                                                                                                                                                              000000        
DA000000195700000305130034699167MARIA ESPERANZA                                   RUFINO                                                                          C03400242248              19641125036FS000000000000000000000000000000                                                  LAGUNTA MAO                                                                                                                                           5           LA GUNETA                                         000034N00000000000000000000000000000000000000000000000000                                                                                                                                                           00000000000000000000000000000000000000000                                                                                                                                                                                                                                                          000000                                                                                                                                                                                                                                                                                                                                                              000000        
DA000003204700000739960022797015ALEJANDRO                                         GARCIA                                                                          C01200125480              19360424036MS000000000000000000000000000000                                                  AV. MONS.THOMAS F. REALLY                                                                                                                             00          LOS APARTAMENTOS                                  000012N00000000000000000000000000000000000000000000000000                                                                                                                                                           00000000000000000000000000000000000000000                                                                                                                                                                                                                                                          000000                                                                                                                                                                                                                                                                                                                                                              000000        
DA000002555700000052680000042808AGUSTINA                                          ROSARIO                                                                         C00101501237              19320625036FC000000000000000000000000000000                                                  SAN JUAN BAUTISTA S. 14                                                                                                                               14          DN                                                000001N00000000000000000000000000000000000000000000000000                                                                                                                                                           00000000000000000000000000000000000000000                                                                                                                                                                                                                                                          000000                                                                                                                                                                                                                                                                                                                                                              000000        
DA000002576700000496790004294065ANTOLINA                                          ONEILL                                                                          C00101499846              19421102036FC000000000000000000000000000000                                                  PLAZA INDEPENDENCIA                                                                                                                                   00          DN                                                000001N00000000000000000000000000000000000000000000000000                                                                                                                                                           00000000000000000000000000000000000000000                                                                                                                                                                                                                                                          000000                                                                                                                                                                                                                                                                                                                                                              000000        
DA000001645800000178560016694896DULCE MARIA                                       GONZALEZ                                                                        C00111310686              19450912036FS000000000000000000000000000000                                                  3ERA                                                                                                                                                  6           MADRE VIEJA                                       000002N00000000000000000000000000000000000000000000000000                                                                                                                                                           00000000000000000000000000000000000000000                                                                                                                                                                                                                                                          000000                                                                                                                                                                                                                                                                                                                                                              000000        
DA000000106800000220800019291767EVA DIONISIA                                      DE LA ROSA                                                                      C00500007745              19460322036FS000000000000000000000000000000                                                  MARIA MATILDE ESTEVEZ                                                                                                                                 5           YAMASA                                            000005N00000000000000000000000000000000000000000000000000                                                                                                                                                           00000000000000000000000000000000000000000                                                                                                                                                                                                                                                          000000                                                                                                                                                                                                                                                                                                                                                              000000        
DA000000891400001062310034358957FELIX MANACES                                     TORIBIO                                                                         C03800104295              19370328036MC000000000000000000000000000000                                                  PPRESIDENTE HEURAU                                                                                                                                    48          PUERTO PLATA                                      000038N00000000000000000000000000000000000000000000000000                                                                                                                                                           00000000000000000000000000000000000000000                                                                                                                                                                                                                                                          000000                                                                                                                                                                                                                                                                                                                                                              000000        
DA000001687200000684190013900721FERNANDO                                          NOVA                                                                            C00100700590              19520424036MS000000000000000000000000000000                                                  CENTRAL                                                                                                                                               32          EL CAFE DE HERRERA                                000224N00000000000000000000000000000000000000000000000000                                                                                                                                                           00000000000000000000000000000000000000000                                                                                                                                                                                                                                                          000000                                                                                                                                                                                                                                                                                                                                                              000000        
DA000000098600000991610001225637FIDEL ALFREDO                                     ROSARIO                                                                         C00103269148              19590105036MS000000000000000000000000000000                                                  10                                                                                                                                                    244         24 DE ABRIL                                       000001N00000000000000000000000000000000000000000000000000                                                                                                                                                           00000000000000000000000000000000000000000                                                                                                                                                                                                                                                          000000                                                                                                                                                                                                                                                                                                                                                              000000        
DA000002510300000047020003306894JOSE ALBERTO                                      DOMINGUEZ                                                                       C00101361087              19360412036MC000000000000000000000000000000                                                  2DA (LA ATLANTIDA)                                                                                                                                    14          CARRETERA SANCHEZ KM 10 12                        000001N00000000000000000000000000000000000000000000000000                                                                                                                                                           00000000000000000000000000000000000000000                                                                                                                                                                                                                                                          000000                                                                                                                                                                                                                                                                                                                                                              000000        
DA000002578500000052490015864693JOSE ANTONIO                                      GUZMAN                                                                          C00101498574              19280425036MC000000000000000000000000000000                                                  SAN JUAN BAUTISTA                                                                                                                                     14          MIRADOR NORTE                                     000001N00000000000000000000000000000000000000000000000000                                                                                                                                                           00000000000000000000000000000000000000000                                                                                                                                                                                                                                                          000000                                                                                                                                                                                                                                                                                                                                                              000000        
DA000002513700000047500008031228MARIA RAMONA                                      VICIOSO                                                                         C00101377513              19340402036FC000000000000000000000000000000                                                  CALLE 2DA.                                                                                                                                            14          CARRETERA SANCHEZ                                 000001N00000000000000000000000000000000000000000000000000                                                                                                                                                           00000000000000000000000000000000000000000                                                                                                                                                                                                                                                          000000                                                                                                                                                                                                                                                                                                                                                              000000        
DA000000100700001022180054925628MERCEDES                                          NIVAR                                                                           C00500426820              19380924036FS000000000000000000000000000000                                                  MARIA MATILDE ESTEVEZ 46                                                                                                                              73          YAMASA                                            000005N00000000000000000000000000000000000000000000000000                                                                                                                                                           00000000000000000000000000000000000000000                                                                                                                                                                                                                                                          000000                                                                                                                                                                                                                                                                                                                                                              000000        
DA000002477800000099500005953155MERCEDES MARIA                                    RODRIGUEZ                                                                       C00104245394              19451022036FS000000000000000000000000000000                                                  BENUS                                                                                                                                                 24          URB. SOL DE LOZ, VILLA MELLA                      000225N00000000000000000000000000000000000000000000000000                                                                                                                                                           00000000000000000000000000000000000000000                                                                                                                                                                                                                                                          000000                                                                                                                                                                                                                                                                                                                                                              000000        
DA000001758900000531580016425450MIRELLA ALTAGRACIA                                GIL                                                                             C00106704638              19440207036FC000000000000000000000000000000                                                  PROYECTO                                                                                                                                              133         MANOGUAYABO                                       000224N00000000000000000000000000000000000000000000000000                                                                                                                                                           00000000000000000000000000000000000000000                                                                                                                                                                                                                                                          000000                                                                                                                                                                                                                                                                                                                                                              000000        
DA000002914000000730520015925141NIOVE DEL ROSARIO                                 VARGAS                                                                          C00116066325              19520609036FS000000000000000000000000000000                                                  42                                                                                                                                                    28          EL CALICHE                                        000001N00000000000000000000000000000000000000000000000000                                                                                                                                                           00000000000000000000000000000000000000000                                                                                                                                                                                                                                                          000000                                                                                                                                                                                                                                                                                                                                                              000000        
DA000000435100000312650033347681OLIVIO TOMAS                                      BRITO                                                                           C03800100483              19351120036MC000000000000000000000000000000                                                  FRANCIA                                                                                                                                               42A         EL PUEBLO                                         000031N00000000000000000000000000000000000000000000000000                                                                                                                                                           00000000000000000000000000000000000000000                                                                                                                                                                                                                                                          000000                                                                                                                                                                                                                                                                                                                                                              000000        
DA000003131300000386080051945061ORLANDO                                           ACEVEDO                                                                         C09400114774              19570203036MC000000000000000000000000000000                                                  PRINCIPAL                                                                                                                                             51          INGENIO VIEJO                                     000031N00000000000000000000000000000000000000000000000000                                                                                                                                                           00000000000000000000000000000000000000000                                                                                                                                                                                                                                                          000000                                                                                                                                                                                                                                                                                                                                                              000000        
DA000003780100001257340000000000TULIO JOSE                                        PINA                                                                            C00107962847              19380224036MS000000000000000000000000000000                                                  JIMENEZ MOYA                                                                                                                                          24          LA JULIA                                          000001N00000000000000000000000000000000000000000000000000                                                                                                                                                           00000000000000000000000000000000000000000                                                                                                                                                                                                                                                          000000                                                                                                                                                                                                                                                                                                                                                              000000        
DA000003548500000048960005773500YUDERKA YOCASTA                                   ORTIZ                                                                           C00101419315              19530416036FS000000000000000000000000000000                                                  21 ESTE                                                                                                                                               07          DN                                                000001N00000000000000000000000000000000000000000000000000                                                                                                                                                           00000000000000000000000000000000000000000                                                                                                                                                                                                                                                          000000                                                                                                                                                                                                                                                                                                                                                              000000        
DA000002189800001057480015105118JUAN FRANCISCO                                    CARELA                                                                          C00102378015              19500524036MS000000000000000000000000000000                                                  C4                                                                                                                                                    4           LOS MAMEYES                                       000223N00000000000000000000000000000000000000000000000000                                                                                                                                                           00000000000000000000000000000000000000000                                                                                                                                                                                                                                                          000000                                                                                                                                                                                                                                                                                                                                                              000000        
DA000002926700001064680004010284ANGEL                                             ARIAS                                                                           C00109504274              19380716036MS000000000000000000000000000000                                                  AVE. LOS ROMEROS                                                                                                                                      02          JARDINES DEL NORTE                                000001N00000000000000000000000000000000000000000000000000                                                                                                                                                           00000000000000000000000000000000000000000                                                                                                                                                                                                                                                          000000                                                                                                                                                                                                                                                                                                                                                              000000        
DA000002596400001225290002395166JULIO                                             CESPEDES                                                                        C00101158194              19510611036MS000000000000000000000000000000                                                  JUAN PABLO DUARTE                                                                                                                                     87          ENS. FELICIDAD, LOS MINA                          000223N00000000000000000000000000000000000000000000000000                                                                                                                                                           00000000000000000000000000000000000000000                                                                                                                                                                                                                                                          000000                                                                                                                                                                                                                                                                                                                                                              000000        
DA000003008800000541070003881246GILBERTO DE                                       CASTRO                                                                          C00107754723              19470721036MS000000000000000000000000000000                                                  CALLE PRIMERA                                                                                                                                         9           LOS RESTAURADORES                                 000001N00000000000000000000000000000000000000000000000000                                                                                                                                                           00000000000000000000000000000000000000000                                                                                                                                                                                                                                                          000000                                                                                                                                                                                                                                                                                                                                                              000000        
DA000001311100000352220044275338GERMANIA DEL CARMEN                               ROBLES                                                                          C05600552136              19500716036FS000000000000000000000000000000                                                  CALLEJON LOS ROBLES                                                                                                                                   151         SAN JUAN                                          000143N00000000000000000000000000000000000000000000000000                                                                                                                                                           00000000000000000000000000000000000000000                                                                                                                                                                                                                                                          000000                                                                                                                                                                                                                                                                                                                                                              000000        
DA000000024700000156920005800684AMANCIO                                           RINCON                                                                          C00108044918              19291214036MC000000000000000000000000000000                                                  SAMUEL SOSA                                                                                                                                           07          VILLA SAN FELIPE                                  000229N00000000000000000000000000000000000000000000000000                                                                                                                                                           00000000000000000000000000000000000000000                                                                                                                                                                                                                                                          000000                                                                                                                                                                                                                                                                                                                                                              000000        
DA000000850400000359860048171496CONSUELO                                          GUZMAN                                                                          C06400144470              19230408036FS000000000000000000000000000000                                                  JULIA CHABEBE                                                                                                                                         14          SN                                                000064N00000000000000000000000000000000000000000000000000                                                                                                                                                           00000000000000000000000000000000000000000                                                                                                                                                                                                                                                          000000                                                                                                                                                                                                                                                                                                                                                              000000        
DA000000867300000346130043176277FRANCISCA ANTONIA                                 MARTE                                                                           C05500024004              19340405036FS000000000000000000000000000000                                                  MARIA JOSEFA G.                                                                                                                                       90          CLAVEJO                                           000055N00000000000000000000000000000000000000000000000000                                                                                                                                                           00000000000000000000000000000000000000000                                                                                                                                                                                                                                                          000000                                                                                                                                                                                                                                                                                                                                                              000000        
DA000003238300000345370043173291GLADIS YNMACULADA ALTAGRACIA                      CANAAN                                                                          C05500000822              19421117036FC000000000000000000000000000000                                                  DUARTE                                                                                                                                                59          SN                                                000055N00000000000000000000000000000000000000000000000000                                                                                                                                                           00000000000000000000000000000000000000000                                                                                                                                                                                                                                                          000000                                                                                                                                                                                                                                                                                                                                                              000000        
DA000001028900000369190050064572GREGORIO DE JESUS                                 PICHARDO                                                                        C07100181689              19320424036MS000000000000000000000000000000                                                  PRINCIPAL                                                                                                                                             123         LA MINA                                           000071N00000000000000000000000000000000000000000000000000                                                                                                                                                           00000000000000000000000000000000000000000                                                                                                                                                                                                                                                          000000                                                                                                                                                                                                                                                                                                                                                              000000        
DA000001016900000361660048441746INOCENCIA                                         GARCIA                                                                          C06600007295              19321228036FS000000000000000000000000000000                                                  CRISTOBAL COLON                                                                                                                                       18          PUEBLO NUEVO                                      000136N00000000000000000000000000000000000000000000000000                                                                                                                                                           00000000000000000000000000000000000000000                                                                                                                                                                                                                                                          000000                                                                                                                                                                                                                                                                                                                                                              000000        
DA000001294400000372250049671122MATILDE                                           ENCARNACION                                                                     C07500030460              19270525036FS000000000000000000000000000000                                                  SANCHEZ                                                                                                                                               10          HONDO VALLE                                       000075N00000000000000000000000000000000000000000000000000                                                                                                                                                           00000000000000000000000000000000000000000                                                                                                                                                                                                                                                          000000                                                                                                                                                                                                                                                                                                                                                              000000        
DA000003716800001247590000000000RAMON FELIPE                                      MATIAS                                                                          C00101056372              19330809036MS000000000000000000000000000000                                                  PROYECTO # 17 CARRETERA SANCHEZ, EDIF. 24 APTO. 1B                                                                                                    02          POZO PRIETO                                       000001N00000000000000000000000000000000000000000000000000                                                                                                                                                           00000000000000000000000000000000000000000                                                                                                                                                                                                                                                          000000                                                                                                                                                                                                                                                                                                                                                              000000        
DA000000051900000072540017092525BLAS                                              CLETO                                                                           C00102410495              19370718036MC000000000000000000000000000000                                                  3ERA                                                                                                                                                  30          LOS COCOS                                         000001N00000000000000000000000000000000000000000000000000                                                                                                                                                           00000000000000000000000000000000000000000                                                                                                                                                                                                                                                          000000                                                                                                                                                                                                                                                                                                                                                              000000        
DA000000280600000285280034436918ANA MERCEDES                                      ROSARIO                                                                         C03100837529              19400617036FS000000000000000000000000000000                                                  8                                                                                                                                                     8           LA YAGUITA DE PASTOR                              000031N00000000000000000000000000000000000000000000000000                                                                                                                                                           00000000000000000000000000000000000000000                                                                                                                                                                                                                                                          000000                                                                                                                                                                                                                                                                                                                                                              000000        
DA000001072600001067400038508657JOSE DOLORES                                      RAMOS                                                                           C05000038306              19320112036MS000000000000000000000000000000                                                  8                                                                                                                                                     22          DON BOSCO                                         000050N00000000000000000000000000000000000000000000000000                                                                                                                                                           00000000000000000000000000000000000000000                                                                                                                                                                                                                                                          000000                                                                                                                                                                                                                                                                                                                                                              000000        
DA000000997700001053030053115506GERARDO                                           ACOSTA                                                                          C10100036671              19481219036MS000000000000000000000000000000                                                  N                                                                                                                                                                                                                   000101N00000000000000000000000000000000000000000000000000                                                                                                                                                           00000000000000000000000000000000000000000                                                                                                                                                                                                                                                          000000                                                                                                                                                                                                                                                                                                                                                              000000        
DA000000141800001072690053969242YSABEL                                            REYES                                                                           C11800037621              19290304036FS000000000000000000000000000000                                                  SANCHEZ                                                                                                                                               80          MAIMON                                            000001N00000000000000000000000000000000000000000000000000                                                                                                                                                           00000000000000000000000000000000000000000                                                                                                                                                                                                                                                          000000                                                                                                                                                                                                                                                                                                                                                              000000        
DA000000276000001039950032465532ANA FRANCISCA                                     ROSA                                                                            C03100671407              19270121036FS000000000000000000000000000000                                                  AVE SAN CRISTOBAL ESQ TIRADENTES                                                                                                                      S N         LA FE                                             000001N00000000000000000000000000000000000000000000000000                                                                                                                                                           00000000000000000000000000000000000000000                                                                                                                                                                                                                                                          000000                                                                                                                                                                                                                                                                                                                                                              000000        
DA000000981800000370030049370834MARIA                                             GONZALEZ                                                                        C07200010697              19340718036FS000000000000000000000000000000                                                  DUARTE                                                                                                                                                118         LOS CAMBRONES                                     000001N00000000000000000000000000000000000000000000000000                                                                                                                                                           00000000000000000000000000000000000000000                                                                                                                                                                                                                                                          000000                                                                                                                                                                                                                                                                                                                                                              000000        
DA000000709100000384460051901603CATALINA                                          MARTINEZ                                                                        C09300292977              19340501036FS000000000000000000000000000000                                                  14 DE JUNIO                                                                                                                                           12          BACERQUILLO                                       000001N00000000000000000000000000000000000000000000000000                                                                                                                                                           00000000000000000000000000000000000000000                                                                                                                                                                                                                                                          000000                                                                                                                                                                                                                                                                                                                                                              000000        
DA000003798300000180720000000000MARICELA ANTONIA                                  VARGAS                                                                          C00112222047              19350213036FS000000000000000000000000000000                                                  PEDRO A. BOBEA ESQ. ANACAONA                                                                                                                          13          BELLA VISTA                                       000001N00000000000000000000000000000000000000000000000000                                                                                                                                                           00000000000000000000000000000000000000000                                                                                                                                                                                                                                                          000000                                                                                                                                                                                                                                                                                                                                                              000000        
DA000000054200000126360001542241ERNESTO                                           RINCON                                                                          C00105984330              19340508036MS000000000000000000000000000000                                                  MELLA EL TORO ATRAS                                                                                                                                   10          EL TORO                                           000001N00000000000000000000000000000000000000000000000000                                                                                                                                                           00000000000000000000000000000000000000000                                                                                                                                                                                                                                                          000000                                                                                                                                                                                                                                                                                                                                                              000000        
DA000002226400000499260007572108RUFINA DEL CARMEN                                 OVALLE                                                                          C00101804516              19550516036FC000000000000000000000000000000                                                  FRANCISCO                                                                                                                                             221 PA      LA FÉ                                             000001N00000000000000000000000000000000000000000000000000                                                                                                                                                           00000000000000000000000000000000000000000                                                                                                                                                                                                                                                          000000                                                                                                                                                                                                                                                                                                                                                              000000        
DA000002313200000073080001293407JOSE ALBERTO                                      SALOMON                                                                         C00102437605              19581219036MS000000000000000000000000000000                                                  JOSE FCO PEÑA GOMEZ                                                                                                                                   00          INVIVIENDA                                        000001N00000000000000000000000000000000000000000000000000                                                                                                                                                           00000000000000000000000000000000000000000                                                                                                                                                                                                                                                          000000                                                                                                                                                                                                                                                                                                                                                              000000        
DA000003209400000559440018652477JOSEFA MIGUELINA                                  ABREU                                                                           C00200539757              19470407036FS000000000000000000000000000000                                                  DUARTE                                                                                                                                                47B         SABANA GRANDE PALENQUE                            000001N00000000000000000000000000000000000000000000000000                                                                                                                                                           00000000000000000000000000000000000000000                                                                                                                                                                                                                                                          000000                                                                                                                                                                                                                                                                                                                                                              000000        
DA000003783700001269970000000000LEONIDAS MARIA                                    RODRIGUEZ                                                                       C00108475369              19470624036FS000000000000000000000000000000                                                  ROSA BLANCA                                                                                                                                           2           LAS FLORES                                        000001N00000000000000000000000000000000000000000000000000                                                                                                                                                           00000000000000000000000000000000000000000                                                                                                                                                                                                                                                          000000                                                                                                                                                                                                                                                                                                                                                              000000        
DA000003567000000050140015083407LUIS ENRIQUILLO                                   POUERIET                                                                        C00101454338              19230824036MC000000000000000000000000000000                                                  ROMULO BETANCOURT                                                                                                                                     532         LA ROSA                                           000001N00000000000000000000000000000000000000000000000000                                                                                                                                                           00000000000000000000000000000000000000000                                                                                                                                                                                                                                                          000000                                                                                                                                                                                                                                                                                                                                                              000000        
DA000000793200000207920019440976DAYSI ESTELA                                      LACHAPELLE                                                                      C00200161941              19430822036FC000000000000000000000000000000                                                  PEDRO RENVILLE                                                                                                                                        98          VILLA VALDEZ                                      000002N00000000000000000000000000000000000000000000000000                                                                                                                                                           00000000000000000000000000000000000000000                                                                                                                                                                                                                                                          000000                                                                                                                                                                                                                                                                                                                                                              000000        
S000075
