EPN52
DA000003874100001273090000000000GEORGINA                                          DECENA                                                                          C09000040122              19691105036FS000000000000000000000000000000                                                  1RA PROYECTO 26 DE ENERO                                                                                                                              305         LOS GUARICANOS                                    000001N00000000000000000000000000000000000000000000000000                                                                                                                                                           00000000000000000000000000000000000000000                                                                                                                                                                                                                                                          000000                                                                                                                                                                                                                                                                                                                                                              000000        
DA000003817900001269380000000000RAFAEL ROQUE                                      MATEO                                                                           C01200589594              19500816036MS000000000000000000000000000000                                                  ENS. ANACAONA                                                                                                                                         15          LAS ENFERMERAS                                    000012N00000000000000000000000000000000000000000000000000                                                                                                                                                           00000000000000000000000000000000000000000                                                                                                                                                                                                                                                          000000                                                                                                                                                                                                                                                                                                                                                              000000        
DA000003743200001269340000000000SILVIA MARIA ALT                                  VARGAS                                                                          C00103431664              19621103036FS000000000000000000000000000000                                                  MANUELA DIEZ                                                                                                                                          25          VILLA FRANCISCA                                   000001N00000000000000000000000000000000000000000000000000                                                                                                                                                           00000000000000000000000000000000000000000                                                                                                                                                                                                                                                          000000                                                                                                                                                                                                                                                                                                                                                              000000        
DA000001742900000139510007203767MARTINA ANTONIA                                   ALVAREZ                                                                         C00106872914              19400706036FS000000000000000000000000000000                                                  CALLE N 12(BUENOS AIRES)                                                                                                                              50          HERRERA                                           000224N00000000000000000000000000000000000000000000000000                                                                                                                                                           00000000000000000000000000000000000000000                                                                                                                                                                                                                                                          000000                                                                                                                                                                                                                                                                                                                                                              000000        
DA000003816700001269650000000000TITO                                              RAMIREZ                                                                         C01200272746              19550323036MS000000000000000000000000000000                                                  ANACAONA                                                                                                                                                          CRISTO REY [MANOGUAYABO]                          000012N00000000000000000000000000000000000000000000000000                                                                                                                                                           00000000000000000000000000000000000000000                                                                                                                                                                                                                                                          000000                                                                                                                                                                                                                                                                                                                                                              000000        
DA000001003000001227680041920554RAFAEL ANTONIO JESUS                              TATIS                                                                           C04100013723              19430429036MS000000000000000000000000000000                                                  N                                                                                                                                                                                                                   000041N00000000000000000000000000000000000000000000000000                                                                                                                                                           00000000000000000000000000000000000000000                                                                                                                                                                                                                                                          000000                                                                                                                                                                                                                                                                                                                                                              000000        
DA000003809400001269530000000000MARIA ALTAGRACIA                                  BELIZ                                                                           C00300340114              19481211036FS000000000000000000000000000000                                                  N                                                                                                                                                                                                                   000003N00000000000000000000000000000000000000000000000000                                                                                                                                                           00000000000000000000000000000000000000000                                                                                                                                                                                                                                                          000000                                                                                                                                                                                                                                                                                                                                                              000000        
DA000003844600001274290000000000CARLOS MARIA                                      CABRERA                                                                         C04600213773              19500710036MS000000000000000000000000000000                                                  PRIMERA                                                                                                                                                           SAVICA                                            000046N00000000000000000000000000000000000000000000000000                                                                                                                                                           00000000000000000000000000000000000000000                                                                                                                                                                                                                                                          000000                                                                                                                                                                                                                                                                                                                                                              000000        
DA000003887100001244990000000000FRANCISCO AUGUSTO                                 JIMENEZ                                                                         C00100614379              19381007036MS000000000000000000000000000000                                                  INTERIOR 2                                                                                                                                            1B          EL MILLON                                         000001N00000000000000000000000000000000000000000000000000                                                                                                                                                           00000000000000000000000000000000000000000                                                                                                                                                                                                                                                          000000                                                                                                                                                                                                                                                                                                                                                              000000        
DA000003722200001272110000000000AMANDA                                            CASTILLO                                                                        C00101395465              19440116036FS000000000000000000000000000000                                                  N                                                                                                                                                                                                                   000001N00000000000000000000000000000000000000000000000000                                                                                                                                                           00000000000000000000000000000000000000000                                                                                                                                                                                                                                                          000000                                                                                                                                                                                                                                                                                                                                                              000000        
DA000003758300001257300000000000MARTIN                                            CASTILLO                                                                        C00105267744              19321111036MS000000000000000000000000000000                                                  N                                                                                                                                                     N           DISTRITO NACIONAL                                 000001N00000000000000000000000000000000000000000000000000                                                                                                                                                           00000000000000000000000000000000000000000                                                                                                                                                                                                                                                          000000                                                                                                                                                                                                                                                                                                                                                              000000        
DA000001635800001011710014176266MANOLO                                            JANES                                                                           C00108905571              19431215036MS000000000000000000000000000000                                                  N                                                                                                                                                                                                                   000001N00000000000000000000000000000000000000000000000000                                                                                                                                                           00000000000000000000000000000000000000000                                                                                                                                                                                                                                                          000000                                                                                                                                                                                                                                                                                                                                                              000000        
DA000003867200001255220000000000JULIAN MIGUEL                                     PENZO                                                                           C06600032970              19460809036MS000000000000000000000000000000                                                  N                                                                                                                                                                                                                   000066N00000000000000000000000000000000000000000000000000                                                                                                                                                           00000000000000000000000000000000000000000                                                                                                                                                                                                                                                          000000                                                                                                                                                                                                                                                                                                                                                              000000        
DA000003784400001244870000000000MARIA ALTAGRACIA                                  GONZALEZ                                                                        C00108607151              19420928036FS000000000000000000000000000000                                                  N                                                                                                                                                                                                                   000001N00000000000000000000000000000000000000000000000000                                                                                                                                                           00000000000000000000000000000000000000000                                                                                                                                                                                                                                                          000000                                                                                                                                                                                                                                                                                                                                                              000000        
DA000003723100001239870000000000VICTOR FRANCISCO                                  RODRIGUEZ                                                                       C00101433639              19440309036MS000000000000000000000000000000                                                  N                                                                                                                                                                                                                   000001N00000000000000000000000000000000000000000000000000                                                                                                                                                           00000000000000000000000000000000000000000                                                                                                                                                                                                                                                          000000                                                                                                                                                                                                                                                                                                                                                              000000        
DA000003772500001237890000000000FERMIN                                            GUZMAN                                                                          C00107250441              19420705036MS000000000000000000000000000000                                                  N                                                                                                                                                                                                                   000001N00000000000000000000000000000000000000000000000000                                                                                                                                                           00000000000000000000000000000000000000000                                                                                                                                                                                                                                                          000000                                                                                                                                                                                                                                                                                                                                                              000000        
DA000003780300001240450000000000JUAN MANUEL                                       CARVAJAL                                                                        C00107986804              19531206036MS000000000000000000000000000000                                                  N                                                                                                                                                                                                                   000001N00000000000000000000000000000000000000000000000000                                                                                                                                                           00000000000000000000000000000000000000000                                                                                                                                                                                                                                                          000000                                                                                                                                                                                                                                                                                                                                                              000000        
DA000003831600001238000000000000LUZ ESTELA                                        MONTES DE OCA                                                                   C03100081490              19420802036FS000000000000000000000000000000                                                  N                                                                                                                                                                                                                   000031N00000000000000000000000000000000000000000000000000                                                                                                                                                           00000000000000000000000000000000000000000                                                                                                                                                                                                                                                          000000                                                                                                                                                                                                                                                                                                                                                              000000        
DA000003766300001246130000000000MICLEIHIR ARACELIS                                DE LOS SANTOS                                                                   C00106357478              19600425036FS000000000000000000000000000000                                                  MANZ4713                                                                                                                                              02          INVIVIENDA                                        000001N00000000000000000000000000000000000000000000000000                                                                                                                                                           00000000000000000000000000000000000000000                                                                                                                                                                                                                                                          000000                                                                                                                                                                                                                                                                                                                                                              000000        
DA000003806800001245830000000000SIMON SANTOS                                      CEPEDA                                                                          C00200606044              19460424036MS000000000000000000000000000000                                                  BRITO                                                                                                                                                 9           PUEBLO NUEVO                                      000002N00000000000000000000000000000000000000000000000000                                                                                                                                                           00000000000000000000000000000000000000000                                                                                                                                                                                                                                                          000000                                                                                                                                                                                                                                                                                                                                                              000000        
DA000003869800001273160000000000FEDERICO ANTONIO                                  ULERIO                                                                          C07100121693              19551012036MS000000000000000000000000000000                                                  N                                                                                                                                                                                                                   000071N00000000000000000000000000000000000000000000000000                                                                                                                                                           00000000000000000000000000000000000000000                                                                                                                                                                                                                                                          000000                                                                                                                                                                                                                                                                                                                                                              000000        
DA000001007900000314990039767950CARMEN ALTAGRACIA                                 ABREU                                                                           C04100040130              19281206036FS000000000000000000000000000000                                                  PEDRO PABLO FERNADEZ                                                                                                                                  37          SAN PEDRO                                         000041N00000000000000000000000000000000000000000000000000                                                                                                                                                           00000000000000000000000000000000000000000                                                                                                                                                                                                                                                          000000                                                                                                                                                                                                                                                                                                                                                              000000        
DA000003795800001247500000000000JUAN FRANCISCO                                    THOMAS                                                                          C00110911260              19290918036MS000000000000000000000000000000                                                  PUNTA TORRECILLA                                                                                                                                      1           LOS MAMEYES                                       000223N00000000000000000000000000000000000000000000000000                                                                                                                                                           00000000000000000000000000000000000000000                                                                                                                                                                                                                                                          000000                                                                                                                                                                                                                                                                                                                                                              000000        
DA000003874700001276740000000000YOLANDA                                           PEREZ                                                                           C09300024768              19520522036FS000000000000000000000000000000                                                  PRESIDENTE ESTRELLA UREÑA ESQ SAN VICENTE DE PAUL                                                                                                                 LOS MINA                                          000223N00000000000000000000000000000000000000000000000000                                                                                                                                                           00000000000000000000000000000000000000000                                                                                                                                                                                                                                                          000000                                                                                                                                                                                                                                                                                                                                                              000000        
DA000002958200000168100000578808JACOBA                                            LUCAS                                                                           C00108985490              19561128036FS000000000000000000000000000000                                                  39                                                                                                                                                    32          CRISTO REY                                        000001N00000000000000000000000000000000000000000000000000                                                                                                                                                           00000000000000000000000000000000000000000                                                                                                                                                                                                                                                          000000                                                                                                                                                                                                                                                                                                                                                              000000        
DA000001609900000128710016162008YOLANDA                                           CHAVEZ                                                                          C00106173594              19310712036FS000000000000000000000000000000                                                  MARCIAL TRINIDAD SANCHEZ                                                                                                                              48          VILLA MELLA                                       000225N00000000000000000000000000000000000000000000000000                                                                                                                                                           00000000000000000000000000000000000000000                                                                                                                                                                                                                                                          000000                                                                                                                                                                                                                                                                                                                                                              000000        
DA000002357000000507330013798302RAMON ANTONIO                                     ALMARANTE                                                                       C00102841392              19460127036MS000000000000000000000000000000                                                  N                                                                                                                                                     117                                                           000001N00000000000000000000000000000000000000000000000000                                                                                                                                                           00000000000000000000000000000000000000000                                                                                                                                                                                                                                                          000000                                                                                                                                                                                                                                                                                                                                                              000000        
DA000001611800000714540006734192ALTAGRACIA                                        BAEZ                                                                            C00106200959              19540512036FS000000000000000000000000000000                                                  N                                                                                                                                                     9           ZONA URBANA                                       000225N00000000000000000000000000000000000000000000000000                                                                                                                                                           00000000000000000000000000000000000000000                                                                                                                                                                                                                                                          000000                                                                                                                                                                                                                                                                                                                                                              000000        
DA000003884400001268600000000000FELIX ALFREDO                                     PIA                                                                             C00100438613              19421217036MC000000000000000000000000000000                                                  NA                                                                                                                                                    47          NA                                                000001N00000000000000000000000000000000000000000000000000                                                                                                                                                           00000000000000000000000000000000000000000                                                                                                                                                                                                                                                          000000                                                                                                                                                                                                                                                                                                                                                              000000        
DA000003737200001268570000000000MAURICIA                                          ANTIGUA                                                                         C00102715208              19490922036FS000000000000000000000000000000                                                  NA                                                                                                                                                    29          NA                                                000001N00000000000000000000000000000000000000000000000000                                                                                                                                                           00000000000000000000000000000000000000000                                                                                                                                                                                                                                                          000000                                                                                                                                                                                                                                                                                                                                                              000000        
DA000003790500001254590000000000MILAGROS                                          DE SALAS                                                                        C00109230011              19630812036FS000000000000000000000000000000                                                  SANTA CRUZ                                                                                                                                                        NA                                                000001N00000000000000000000000000000000000000000000000000                                                                                                                                                           00000000000000000000000000000000000000000                                                                                                                                                                                                                                                          000000                                                                                                                                                                                                                                                                                                                                                              000000        
DA000003813700001273770000000000TOMAS IGNACIO                                     ROA                                                                             C01100117413              19530904036MS000000000000000000000000000000                                                  EN                                                                                                                                                    N           EL PAJONAL                                        000011N00000000000000000000000000000000000000000000000000                                                                                                                                                           00000000000000000000000000000000000000000                                                                                                                                                                                                                                                          000000                                                                                                                                                                                                                                                                                                                                                              000000        
DA000002395100000084150014024234CARLOS ALFREDO                                    STUBBS                                                                          C00103247540              19370610036MS000000000000000000000000000000                                                  EMMA BALAGUER                                                                                                                                         35          VILLA TROPICALIA                                  000223N00000000000000000000000000000000000000000000000000                                                                                                                                                           00000000000000000000000000000000000000000                                                                                                                                                                                                                                                          000000                                                                                                                                                                                                                                                                                                                                                              000000        
DA000001538000000738140017787472GASPAR ENRIQUE                                    VILCHEZ                                                                         C01000062271              19340107036MS000000000000000000000000000000                                                  LUPERON 70                                                                                                                                            70          AZUA DE CONPOTESTELA                              000010N00000000000000000000000000000000000000000000000000                                                                                                                                                           00000000000000000000000000000000000000000                                                                                                                                                                                                                                                          000000                                                                                                                                                                                                                                                                                                                                                              000000        
DA000003815500001274630000000000HIRMA ELIZABERTH                                  ALCANTARA                                                                       C01200118642              19600225036FS000000000000000000000000000000                                                  N                                                                                                                                                     72          N                                                 000012N00000000000000000000000000000000000000000000000000                                                                                                                                                           00000000000000000000000000000000000000000                                                                                                                                                                                                                                                          000000                                                                                                                                                                                                                                                                                                                                                              000000        
DA000003724500001265330000000000GRACIELA INES                                     PLAZA                                                                           C00101477354              19410102036FS000000000000000000000000000000                                                  N                                                                                                                                                     27          N                                                 000001N00000000000000000000000000000000000000000000000000                                                                                                                                                           00000000000000000000000000000000000000000                                                                                                                                                                                                                                                          000000                                                                                                                                                                                                                                                                                                                                                              000000        
DA000003109700000776520048239294MANUEL ARISMENDI                                  DE LA CRUZ                                                                      C06700023291              19420628036MC000000000000000000000000000000                                                  SANCHEZ                                                                                                                                               5           EL PUEBLO                                         000067N00000000000000000000000000000000000000000000000000                                                                                                                                                           00000000000000000000000000000000000000000                                                                                                                                                                                                                                                          000000                                                                                                                                                                                                                                                                                                                                                              000000        
DA000000840500000360180048380672FEDERICO AUGUSTO                                  NEUMAN                                                                          C06500003113              19310505036MC000000000000000000000000000000                                                  NA                                                                                                                                                    120         NA                                                000065N00000000000000000000000000000000000000000000000000                                                                                                                                                           00000000000000000000000000000000000000000                                                                                                                                                                                                                                                          000000                                                                                                                                                                                                                                                                                                                                                              000000        
DA000000339000000616870030558883LUIS ALFREDO                                      ACOSTA                                                                          C03101777542              19640311036MS000000000000000000000000000000                                                  N                                                                                                                                                                                                                   000001N00000000000000000000000000000000000000000000000000                                                                                                                                                           00000000000000000000000000000000000000000                                                                                                                                                                                                                                                          000000                                                                                                                                                                                                                                                                                                                                                              000000        
DA000002865200000553000014323366SANTOS RAMON ANTONIO                              DE LA CRUZ                                                                      C00111655247              19520411036MS000000000000000000000000000000                                                  N                                                                                                                                                                 N                                                 000001N00000000000000000000000000000000000000000000000000                                                                                                                                                           00000000000000000000000000000000000000000                                                                                                                                                                                                                                                          000000                                                                                                                                                                                                                                                                                                                                                              000000        
DA000000720300000478670051580210PELADIO                                           BURGOS                                                                          C09300071553              19460626036MS000000000000000000000000000000                                                  27 DE FEBRERO                                                                                                                                         3           PIEDRA BLANCA, HAINA                              000001N00000000000000000000000000000000000000000000000000                                                                                                                                                           00000000000000000000000000000000000000000                                                                                                                                                                                                                                                          000000                                                                                                                                                                                                                                                                                                                                                              000000        
DA000003700000000527990016171356ANGELITO ANTONIO                                  HERNANDEZ                                                                       C00106248081              19560402036MS000000000000000000000000000000                                                  2DA                                                                                                                                                   4           TRUABA                                            000001N00000000000000000000000000000000000000000000000000                                                                                                                                                           00000000000000000000000000000000000000000                                                                                                                                                                                                                                                          000000                                                                                                                                                                                                                                                                                                                                                              000000        
DA000002095900000177940004893893JUANA                                             MATOS                                                                           C00111002119              19370710036FS000000000000000000000000000000                                                  MANZANA N                                                                                                                                             0           N                                                 000223N00000000000000000000000000000000000000000000000000                                                                                                                                                           00000000000000000000000000000000000000000                                                                                                                                                                                                                                                          000000                                                                                                                                                                                                                                                                                                                                                              000000        
DA000001701200000166370007358674NELLY CECILIA                                     CABRAL                                                                          C00108822339              19291122036FS000000000000000000000000000000                                                  SAN MIGUEL                                                                                                                                            2           LAS PALMAS DE HERRERA                             000224N00000000000000000000000000000000000000000000000000                                                                                                                                                           00000000000000000000000000000000000000000                                                                                                                                                                                                                                                          000000                                                                                                                                                                                                                                                                                                                                                              000000        
DA000000216800000319080041618477GRACIELA CELESTINA                                PICHARDO                                                                        C04600013082              19310604036FC000000000000000000000000000000                                                  SANCHEZ                                                                                                                                               203         PUEBLO VIEJO                                      000046N00000000000000000000000000000000000000000000000000                                                                                                                                                           00000000000000000000000000000000000000000                                                                                                                                                                                                                                                          000000                                                                                                                                                                                                                                                                                                                                                              000000        
DA000003844300001264620000000000HILDA SATURNINA                                   PAULINO                                                                         C04600008041              19320528036FC000000000000000000000000000000                                                  SAN IGNACIO                                                                                                                                           31          PUEBLO NUEVO                                      000046N00000000000000000000000000000000000000000000000000                                                                                                                                                           00000000000000000000000000000000000000000                                                                                                                                                                                                                                                          000000                                                                                                                                                                                                                                                                                                                                                              000000        
DA000002524600000049010002428297DELFIA LERIDA DE LA                               ROSA                                                                            C00101420552              19221031036FC000000000000000000000000000000                                                  ROSA BLANCA                                                                                                                                           88          EL ROSAL                                          000001N00000000000000000000000000000000000000000000000000                                                                                                                                                           00000000000000000000000000000000000000000                                                                                                                                                                                                                                                          000000                                                                                                                                                                                                                                                                                                                                                              000000        
DA000002956200000167370003740852MILEDY                                            MEDINA                                                                          C00108930736              19600110036FS000000000000000000000000000000                                                  MAKI PILY                                                                                                                                             10          BUENA VISTA                                       000224N00000000000000000000000000000000000000000000000000                                                                                                                                                           00000000000000000000000000000000000000000                                                                                                                                                                                                                                                          000000                                                                                                                                                                                                                                                                                                                                                              000000        
DA000002234500000984170005410477MIGUEL                                            CAMARENA                                                                        C00101753895              19321103036MC000000000000000000000000000000                                                  PATIN MACEO                                                                                                                                           19          MIRA MAR                                          000001N00000000000000000000000000000000000000000000000000                                                                                                                                                           00000000000000000000000000000000000000000                                                                                                                                                                                                                                                          000000                                                                                                                                                                                                                                                                                                                                                              000000        
DA000003027300000145730006140190JUAN DE DIOS                                      CRISOSTOMO                                                                      C00107308454              19330308036MC000000000000000000000000000000                                                  AV. NICOLAS DE OVANDO                                                                                                                                 2           DN                                                000001N00000000000000000000000000000000000000000000000000                                                                                                                                                           00000000000000000000000000000000000000000                                                                                                                                                                                                                                                          000000                                                                                                                                                                                                                                                                                                                                                              000000        
DA000002269800000061160011816032CARLOS MANUEL                                     GRANO                                                                           C00101807923              19380502036MS000000000000000000000000000000                                                  AV. TIRADENTE                                                                                                                                         148         HONORIO                                           000001N00000000000000000000000000000000000000000000000000                                                                                                                                                           00000000000000000000000000000000000000000                                                                                                                                                                                                                                                          000000                                                                                                                                                                                                                                                                                                                                                              000000        
DA000002644900000035180006871094JUANA                                             BENZANT                                                                         C00101045771              19300408036FC000000000000000000000000000000                                                  LUIS DE SANGRE,.                                                                                                                                      02          EVARISTO MORALES                                  000001N00000000000000000000000000000000000000000000000000                                                                                                                                                           00000000000000000000000000000000000000000                                                                                                                                                                                                                                                          000000                                                                                                                                                                                                                                                                                                                                                              000000        
DA000003804500001251330000000000AGUEDA                                            CUELLO                                                                          C00200022010              19460602036FC000000000000000000000000000000                                                  OSVALDO BAZIL                                                                                                                                         27          PUEBLO NUEVO                                      000002N00000000000000000000000000000000000000000000000000                                                                                                                                                           00000000000000000000000000000000000000000                                                                                                                                                                                                                                                          000000                                                                                                                                                                                                                                                                                                                                                              000000        
DA000003721900001251250000000000RAFAEL MODESTO                                    FERMIN                                                                          C00101388593              19410627036MS000000000000000000000000000000                                                  RESP. 17                                                                                                                                              19          LOS ALCARRIZOS                                    000229N00000000000000000000000000000000000000000000000000                                                                                                                                                           00000000000000000000000000000000000000000                                                                                                                                                                                                                                                          000000                                                                                                                                                                                                                                                                                                                                                              000000        
DA000003735800001269860000000000NILDA CRISTINA                                    CASTRO                                                                          C00102557261              19670923036FS000000000000000000000000000000                                                  V CENTERARIO                                                                                                                                          01          VILLA CONSUELO                                    000001N00000000000000000000000000000000000000000000000000                                                                                                                                                           00000000000000000000000000000000000000000                                                                                                                                                                                                                                                          000000                                                                                                                                                                                                                                                                                                                                                              000000        
DA000001449700001071000024676268LUZ DEL CARMEN                                    BELTRE                                                                          C01800511501              19241026036FC000000000000000000000000000000                                                  ROTONDA DEL CILENCIO                                                                                                                                  8           MIRADOR NORTE                                     000001N00000000000000000000000000000000000000000000000000                                                                                                                                                           00000000000000000000000000000000000000000                                                                                                                                                                                                                                                          000000                                                                                                                                                                                                                                                                                                                                                              000000        
DA000003798800000553960000000000ANA MERCEDES                                      SANCHEZ                                                                         C00112513957              19570530036FS000000000000000000000000000000                                                  JESUS MAESTRO                                                                                                                                         02          BELLA VISTA                                       000001N00000000000000000000000000000000000000000000000000                                                                                                                                                           00000000000000000000000000000000000000000                                                                                                                                                                                                                                                          000000                                                                                                                                                                                                                                                                                                                                                              000000        
DA000001686300000397450016986822SENCION                                           HERNANDEZ                                                                       C00100620053              19490503036MS000000000000000000000000000000                                                  ISABEL AGUIAR                                                                                                                                         02          HERRERA                                           000224N00000000000000000000000000000000000000000000000000                                                                                                                                                           00000000000000000000000000000000000000000                                                                                                                                                                                                                                                          000000                                                                                                                                                                                                                                                                                                                                                              000000        
DA000001504600000251330027738033LIDIA                                             CUEVAS                                                                          C02200013965              19331116036FS000000000000000000000000000000                                                  ENRIQUILLO 36                                                                                                                                         36          CANCINO I                                         000223N00000000000000000000000000000000000000000000000000                                                                                                                                                           00000000000000000000000000000000000000000                                                                                                                                                                                                                                                          000000                                                                                                                                                                                                                                                                                                                                                              000000        
DA000001610400000421070013139938BIENVENIDA BACILISA                               PERALTA                                                                         C00106191737              19470322036FC000000000000000000000000000000                                                  TERCERA                                                                                                                                               12          VILLA MELLA                                       000225N00000000000000000000000000000000000000000000000000                                                                                                                                                           00000000000000000000000000000000000000000                                                                                                                                                                                                                                                          000000                                                                                                                                                                                                                                                                                                                                                              000000        
DA000003692700000144710011790954ALSINGER                                          PEREZ                                                                           C00107274565              19351211036MC000000000000000000000000000000                                                  QUITA ESPUELA                                                                                                                                         28G         COLINAS DEL SEMINARIO III                         000001N00000000000000000000000000000000000000000000000000                                                                                                                                                           00000000000000000000000000000000000000000                                                                                                                                                                                                                                                          000000                                                                                                                                                                                                                                                                                                                                                              000000        
DA000003403000000418530010504062ESCOLASTICA                                       NOLASCO                                                                         C00105349138              19420614036FS000000000000000000000000000000                                                  8A 47                                                                                                                                                 47          ALMA ROSA                                         000001N00000000000000000000000000000000000000000000000000                                                                                                                                                           00000000000000000000000000000000000000000                                                                                                                                                                                                                                                          000000                                                                                                                                                                                                                                                                                                                                                              000000        
DA000003764300001269510000000000FRANCISCO ANTONIO                                 BRITO                                                                           C00106066442              19400824036MS000000000000000000000000000000                                                  LIBERTAD                                                                                                                                              124         VILLA MELLA                                       000225N00000000000000000000000000000000000000000000000000                                                                                                                                                           00000000000000000000000000000000000000000                                                                                                                                                                                                                                                          000000                                                                                                                                                                                                                                                                                                                                                              000000        
DA000003873300001258430000000000JESUS                                             DEL ROSARIO                                                                     C08500024818              19401225036MC000000000000000000000000000000                                                  CARLOS OZUNAS                                                                                                                                         59          INESPRE                                           000085N00000000000000000000000000000000000000000000000000                                                                                                                                                           00000000000000000000000000000000000000000                                                                                                                                                                                                                                                          000000                                                                                                                                                                                                                                                                                                                                                              000000        
DA000003770800001272550000000000SANTOS                                            BRITO                                                                           C00107098642              19440408036MS000000000000000000000000000000                                                  BLOQUE 2                                                                                                                                              06          OBRAS PUBLICAS                                    000229N00000000000000000000000000000000000000000000000000                                                                                                                                                           00000000000000000000000000000000000000000                                                                                                                                                                                                                                                          000000                                                                                                                                                                                                                                                                                                                                                              000000        
DA000002503500000101450017171880LUIS RAMON                                        HERNANDEZ                                                                       C00104452842              19391013036MS000000000000000000000000000000                                                  RESP JOSE MARTE ATRAS 168                                                                                                                             168         CAPOTILLO                                         000001N00000000000000000000000000000000000000000000000000                                                                                                                                                           00000000000000000000000000000000000000000                                                                                                                                                                                                                                                          000000                                                                                                                                                                                                                                                                                                                                                              000000        
DA000002944700000826640009107026ADELA MARIA                                       BONIFACIO                                                                       C00109781328              19561127036FS000000000000000000000000000000                                                  PRIMERA                                                                                                                                               37          SABANA PERDIDA                                    000225N00000000000000000000000000000000000000000000000000                                                                                                                                                           00000000000000000000000000000000000000000                                                                                                                                                                                                                                                          000000                                                                                                                                                                                                                                                                                                                                                              000000        
DA000003765200001246060000000000JUAN                                              BERROA                                                                          C00106201155              19500505036MS000000000000000000000000000000                                                  EL CACHON                                                                                                                                             334         EL CACHON                                         000225N00000000000000000000000000000000000000000000000000                                                                                                                                                           00000000000000000000000000000000000000000                                                                                                                                                                                                                                                          000000                                                                                                                                                                                                                                                                                                                                                              000000        
DA000003728100001270100000000000ENRIQUE FEDERICO                                  PEREZ                                                                           C00101758662              19211225036MC000000000000000000000000000000                                                  4                                                                                                                                                     23          COLONIA DE LOS DOCTORES                           000225N00000000000000000000000000000000000000000000000000                                                                                                                                                           00000000000000000000000000000000000000000                                                                                                                                                                                                                                                          000000                                                                                                                                                                                                                                                                                                                                                              000000        
DA000003693300000144520012948687MAGALIS                                           MONTAS                                                                          C00107266967              19490610036FC000000000000000000000000000000                                                  3ERA                                                                                                                                                  9           JARDINES DEL SUR                                  000001N00000000000000000000000000000000000000000000000000                                                                                                                                                           00000000000000000000000000000000000000000                                                                                                                                                                                                                                                          000000                                                                                                                                                                                                                                                                                                                                                              000000        
DA000003766900001258390000000000NELIS MARIA                                       CUEVAS                                                                          C00106431414              19451222036FC000000000000000000000000000000                                                  7MA                                                                                                                                                   13          LOS MOLINOS                                       000223N00000000000000000000000000000000000000000000000000                                                                                                                                                           00000000000000000000000000000000000000000                                                                                                                                                                                                                                                          000000                                                                                                                                                                                                                                                                                                                                                              000000        
DA000002292300000069030015085727FELIPE                                            DE LEON                                                                         C00102213394              19330414036MS000000000000000000000000000000                                                  NICOLAS DE OVANDO                                                                                                                                     504         CRISTO REY                                        000001N00000000000000000000000000000000000000000000000000                                                                                                                                                           00000000000000000000000000000000000000000                                                                                                                                                                                                                                                          000000                                                                                                                                                                                                                                                                                                                                                              000000        
DA000003779000001273340000000000RAFAEL BIENVENIDO                                 KHOURY                                                                          C00107804395              19341207036MC000000000000000000000000000000                                                  OSVALDO BAZIL                                                                                                                                         12          LOS PRADOS                                        000001N00000000000000000000000000000000000000000000000000                                                                                                                                                           00000000000000000000000000000000000000000                                                                                                                                                                                                                                                          000000                                                                                                                                                                                                                                                                                                                                                              000000        
