EPN52

DA000000910100000870210032199818EVARISTO                                          MERCEDES                                                                        C03700062239              19311201001MC000000000000000000000000000000                                                  CALLE 7 #40, EDIF. 100 APTO. 4B                                                                                                                                   QUEBRADA HONDA                                    000037N00000000000000000000000000000000000000000000000000                                                                                                                                                           00000000000000000000000000000000000000000                                                                                                                                                                                                                                                          000000                                                                                                                                                                                                                                                                                                                                                              000000        

DA000003443600000013100012815651MERCEDES LIDIA                                    DIAZ                                                                            C00100231596              19470924001FS000000000000000000000000000000                                                  1ERA                                                                                                                                                  24          LA ESPERANZA                                      000223N00000000000000000000000000000000000000000000000000                                                                                                                                                           00000000000000000000000000000000000000000                                                                                                                                                                                                                                                          000000                                                                                                                                                                                                                                                                                                                                                              000000        

DA000000945300001021670019753921LUZ MERCEDES DE LA CRUZ                           BAEZ                                                                            C00300108289              19450515001FS000000000000000000000000000000                                                  PROL CAMELA MOTA                                                                                                                                      92          CAÑAFITO                                          000003N00000000000000000000000000000000000000000000000000                                                                                                                                                           00000000000000000000000000000000000000000                                                                                                                                                                                                                                                          000000                                                                                                                                                                                                                                                                                                                                                              000000        

DA000003211800000384830051786615EDUARDO GUILLERMO                                 GARCIA                                                                          C09300362382              19620725001MS000000000000000000000000000000                                                  EL VIRA DE MENDOZA                                                                                                                                    3           BAJO DE HAINA                                     000093N00000000000000000000000000000000000000000000000000                                                                                                                                                           00000000000000000000000000000000000000000                                                                                                                                                                                                                                                          000000                                                                                                                                                                                                                                                                                                                                                              000000        

DA000002336200000076310017106087APOLINAR ANTONIO                                  VARGAS                                                                          C00102635398              19481005001MS000000000000000000000000000000                                                  MAZ B                                                                                                                                                 N           CANSINO 2DO                                       000001N00000000000000000000000000000000000000000000000000                                                                                                                                                           00000000000000000000000000000000000000000                                                                                                                                                                                                                                                          000000                                                                                                                                                                                                                                                                                                                                                              000000        

DA000003210700000390070053581105MANUEL                                            LOPEZ                                                                           C10400136023              19460822001MS000000000000000000000000000000                                                  EL PAPAYO                                                                                                                                             2           EL PAPAYO                                         000002N00000000000000000000000000000000000000000000000000                                                                                                                                                           00000000000000000000000000000000000000000                                                                                                                                                                                                                                                          000000                                                                                                                                                                                                                                                                                                                                                              000000        

DA000001384500001231740045382863APOLINAR                                          DE JESUS                                                                        C05600064462              19480106001MS000000000000000000000000000000                                                  CASTILLO                                                                                                                                              4           N                                                 000056N00000000000000000000000000000000000000000000000000                                                                                                                                                           00000000000000000000000000000000000000000                                                                                                                                                                                                                                                          000000                                                                                                                                                                                                                                                                                                                                                              000000        

DA000003216300000380460051579931RAMON AMADO                                       ROMAN                                                                           C09300069110              19580510001MS000000000000000000000000000000                                                  JUAN ISIDRO PEREZ                                                                                                                                     31          BAJO DE HAINA                                     000093N00000000000000000000000000000000000000000000000000                                                                                                                                                           00000000000000000000000000000000000000000                                                                                                                                                                                                                                                          000000                                                                                                                                                                                                                                                                                                                                                              000000        

DA000000680900000676860053770593ANSMAR KELLY                                      GONZALES                                                                        C10400001466              19640130001MS000000000000000000000000000000                                                  OSVALDO BAZIL                                                                                                                                         43          N                                                 000104N00000000000000000000000000000000000000000000000000                                                                                                                                                           00000000000000000000000000000000000000000                                                                                                                                                                                                                                                          000000                                                                                                                                                                                                                                                                                                                                                              000000        

DA000002384200000085650001233526ANA MARIA                                         CASTILLO                                                                        C00103324059              19520525001FS000000000000000000000000000000                                                  FLORES                                                                                                                                                25          SAN LUIS                                          000223N00000000000000000000000000000000000000000000000000                                                                                                                                                           00000000000000000000000000000000000000000                                                                                                                                                                                                                                                          000000                                                                                                                                                                                                                                                                                                                                                              000000        

DA000002398100000089550013019468MARGARITA                                         FELIX                                                                           C00103602421              19390524001FS000000000000000000000000000000                                                  PROFESOR FELIZ MORENO                                                                                                                                 2A          SANTA CRUZ                                        000225N00000000000000000000000000000000000000000000000000                                                                                                                                                           00000000000000000000000000000000000000000                                                                                                                                                                                                                                                          000000                                                                                                                                                                                                                                                                                                                                                              000000        

DA000003656800000162150010703131JOSE MANUEL                                       AMADOR                                                                          C00108486481              19460613001MS000000000000000000000000000000                                                  C MARIA MONTEZ 260                                                                                                                                    260         D.N                                               000001N00000000000000000000000000000000000000000000000000                                                                                                                                                           00000000000000000000000000000000000000000                                                                                                                                                                                                                                                          000000                                                                                                                                                                                                                                                                                                                                                              000000        

DA000003459600000094800010413393MARINA ALTAGRACIA                                 ABREU                                                                           C00103908448              19610302001FS000000000000000000000000000000                                                  7                                                                                                                                                     5           ALMAROSA 1RA                                      000223N00000000000000000000000000000000000000000000000000                                                                                                                                                           00000000000000000000000000000000000000000                                                                                                                                                                                                                                                          000000                                                                                                                                                                                                                                                                                                                                                              000000        

DA000001780000000237370023639954AGUSTIN                                           MERAN                                                                           C01600002701              19340228001MC000000000000000000000000000000                                                  RODRIGRO PEREZ                                                                                                                                        N           EL ALMIRANTE                                      000223N00000000000000000000000000000000000000000000000000                                                                                                                                                           00000000000000000000000000000000000000000                                                                                                                                                                                                                                                          000000                                                                                                                                                                                                                                                                                                                                                              000000        

DA000000957700000734940018501990ARCADIO EMILIO                                    LARA                                                                            C00300256237              19480417001MS000000000000000000000000000000                                                  2                                                                                                                                                     182         FUNDACION DE PERALIA                              000003N00000000000000000000000000000000000000000000000000                                                                                                                                                           00000000000000000000000000000000000000000                                                                                                                                                                                                                                                          000000                                                                                                                                                                                                                                                                                                                                                              000000        

DA000002651000000037390017032238FECELICA ARGENTINA                                VALDEZ                                                                          C00101083525              19271112001FS000000000000000000000000000000                                                  CANTONIO MACEO 161                                                                                                                                    161         URB MAXIMO GOMEZ                                  000225N00000000000000000000000000000000000000000000000000                                                                                                                                                           00000000000000000000000000000000000000000                                                                                                                                                                                                                                                          000000                                                                                                                                                                                                                                                                                                                                                              000000        

DA000000776900000206150021465606ANDREA MARIA                                      PEA                                                                             C00200095214              19331130001FC000000000000000000000000000000                                                  16 DE AGOSTO 57                                                                                                                                       57          CENTRO CIUDAD                                     000002N00000000000000000000000000000000000000000000000000                                                                                                                                                           00000000000000000000000000000000000000000                                                                                                                                                                                                                                                          000000                                                                                                                                                                                                                                                                                                                                                              000000        

DA000000739200000215540017928096FRANCISCO RAFAEL                                  PERALTA                                                                         C00201091840              19510917001MC000000000000000000000000000000                                                  PRINCIPAL                                                                                                                                             47          N                                                 000002N00000000000000000000000000000000000000000000000000                                                                                                                                                           00000000000000000000000000000000000000000                                                                                                                                                                                                                                                          000000                                                                                                                                                                                                                                                                                                                                                              000000        

DA000000720700000380530052508523ROMEO JOSE                                        CORNIELLE                                                                       C09300072387              19620606001MS000000000000000000000000000000                                                  RESPARDO ANACAONA 35                                                                                                                                  35          PIEDRA BLANCA                                     000093N00000000000000000000000000000000000000000000000000                                                                                                                                                           00000000000000000000000000000000000000000                                                                                                                                                                                                                                                          000000                                                                                                                                                                                                                                                                                                                                                              000000        

DA000003209800000376470050911995SANTA ELENA                                       GONZALEZ                                                                        C08200022450              19580917001FS000000000000000000000000000000                                                  URB 6 DE NOVIEMBRE                                                                                                                                    10          N                                                 000002N00000000000000000000000000000000000000000000000000                                                                                                                                                           00000000000000000000000000000000000000000                                                                                                                                                                                                                                                          000000                                                                                                                                                                                                                                                                                                                                                              000000        

DA000000677100000376810050606740EMILIO ANTONIO                                    MUOZ                                                                            C08200121757              19561107001MS000000000000000000000000000000                                                  CSANCHEZ                                                                                                                                              12          PABLO INCADO                                      000082N00000000000000000000000000000000000000000000000000                                                                                                                                                           00000000000000000000000000000000000000000                                                                                                                                                                                                                                                          000000                                                                                                                                                                                                                                                                                                                                                              000000        

DA000003221500000207500018415486LUIS ELADIO                                       MONTAS                                                                          C00200148799              19450817001MC000000000000000000000000000000                                                  JESUS DE GALINDEZ 49                                                                                                                                  49          SAN CRISTOBAL                                     000002N00000000000000000000000000000000000000000000000000                                                                                                                                                           00000000000000000000000000000000000000000                                                                                                                                                                                                                                                          000000                                                                                                                                                                                                                                                                                                                                                              000000        

DA000003222200000206930020464657MAXIMINO                                          HEREDIA                                                                         C00200131068              19570629001MS000000000000000000000000000000                                                  P. SANCHEZZONA VERDE 2                                                                                                                                2           AV LIBERTAD                                       000002N00000000000000000000000000000000000000000000000000                                                                                                                                                           00000000000000000000000000000000000000000                                                                                                                                                                                                                                                          000000                                                                                                                                                                                                                                                                                                                                                              000000        

DA000000779400000205930018876621EDIS EDUARDO                                      PEA                                                                             C00200088425              19530215001MS000000000000000000000000000000                                                  DR. BAEZ 44                                                                                                                                           44          N                                                 000002N00000000000000000000000000000000000000000000000000                                                                                                                                                           00000000000000000000000000000000000000000                                                                                                                                                                                                                                                          000000                                                                                                                                                                                                                                                                                                                                                              000000        

DA000003210600000677420053233354FELIX                                             FIGUEREO                                                                        C10400135199              19600318001MC000000000000000000000000000000                                                  PRINCIPAL 22                                                                                                                                          22          N                                                 000104N00000000000000000000000000000000000000000000000000                                                                                                                                                           00000000000000000000000000000000000000000                                                                                                                                                                                                                                                          000000                                                                                                                                                                                                                                                                                                                                                              000000        

DA000000785900000557450020981056AGUSTIN                                           MEDRANO                                                                         C00200143436              19470928001MS000000000000000000000000000000                                                  LOS MAESTROSLOS NOVA 37                                                                                                                               37          LOS MAETROS                                       000002N00000000000000000000000000000000000000000000000000                                                                                                                                                           00000000000000000000000000000000000000000                                                                                                                                                                                                                                                          000000                                                                                                                                                                                                                                                                                                                                                              000000        

DA000003225400000210660021336080SANTA ANACLETA                                    MATOS                                                                           C00200370047              19540715001FS000000000000000000000000000000                                                  PRIVADA 52                                                                                                                                            52          N                                                 000002N00000000000000000000000000000000000000000000000000                                                                                                                                                           00000000000000000000000000000000000000000                                                                                                                                                                                                                                                          000000                                                                                                                                                                                                                                                                                                                                                              000000        

DA000000815700000436400017826316MARIA CRISTINA                                    SIERRA                                                                          C00200078228              19350727001FS000000000000000000000000000000                                                  CAPOTILLO 34                                                                                                                                          34          CAPOTILLO                                         000002N00000000000000000000000000000000000000000000000000                                                                                                                                                           00000000000000000000000000000000000000000                                                                                                                                                                                                                                                          000000                                                                                                                                                                                                                                                                                                                                                              000000        

DA000000688600000140750005315896FRANCISCO                                         SIERRA                                                                          C00107032567              19390121001MS000000000000000000000000000000                                                  C 1ERAPARTE ATRAS 10                                                                                                                                  10          N                                                 000093N00000000000000000000000000000000000000000000000000                                                                                                                                                           00000000000000000000000000000000000000000                                                                                                                                                                                                                                                          000000                                                                                                                                                                                                                                                                                                                                                              000000        

DA000000721300000380590051580648DINORAH                                           SORIANO                                                                         C09300078319              19550406001FS000000000000000000000000000000                                                  MIRAMAR 79                                                                                                                                            79          PIEDRA BLANCA                                     000093N00000000000000000000000000000000000000000000000000                                                                                                                                                           00000000000000000000000000000000000000000                                                                                                                                                                                                                                                          000000                                                                                                                                                                                                                                                                                                                                                              000000        

DA000000704600000670730052162171FRANCISCO ANTONIO                                 RINCON                                                                          C09300275709              19521130001MS000000000000000000000000000000                                                  MAXIMO GOMEZ 26                                                                                                                                       26          HAINA                                             000093N00000000000000000000000000000000000000000000000000                                                                                                                                                           00000000000000000000000000000000000000000                                                                                                                                                                                                                                                          000000                                                                                                                                                                                                                                                                                                                                                              000000        

DA000000693900000479560052931223NESTOR JULIO                                      ARIAS                                                                           C09300216596              19530228001MS000000000000000000000000000000                                                  PASEO DE LOS INGENIEROS 08                                                                                                                            08          SAN JOSE                                          000093N00000000000000000000000000000000000000000000000000                                                                                                                                                           00000000000000000000000000000000000000000                                                                                                                                                                                                                                                          000000                                                                                                                                                                                                                                                                                                                                                              000000        

DA000000695900000383280052096800ELVA LUZ                                          PEA                                                                             C09300207132              19440227001FS000000000000000000000000000000                                                  TRONCOSO DE LA CONCHA 14                                                                                                                              14          TRONCOSO DE LA CONCHA                             000093N00000000000000000000000000000000000000000000000000                                                                                                                                                           00000000000000000000000000000000000000000                                                                                                                                                                                                                                                          000000                                                                                                                                                                                                                                                                                                                                                              000000        

DA000003217200000381490051593254FIDELINA                                          AQUINO                                                                          C09300133684              19361023001FC000000000000000000000000000000                                                  BREA PEQA 4                                                                                                                                           4           BAJO DE HAINA                                     000093N00000000000000000000000000000000000000000000000000                                                                                                                                                           00000000000000000000000000000000000000000                                                                                                                                                                                                                                                          000000                                                                                                                                                                                                                                                                                                                                                              000000        

DA000003215400000379690051874518BIENVENIDO                                        HERNANDEZ                                                                       C09300009447              19510322001MS000000000000000000000000000000                                                  CALLEJON LA GUINEA 96                                                                                                                                 96          BAJO DE HAINA                                     000093N00000000000000000000000000000000000000000000000000                                                                                                                                                           00000000000000000000000000000000000000000                                                                                                                                                                                                                                                          000000                                                                                                                                                                                                                                                                                                                                                              000000        

DA000003215800000380120052085681FELIRIO                                           SEVERINO                                                                        C09300045136              19590406001MS000000000000000000000000000000                                                  ESTRELLA UREDA 8                                                                                                                                      8           PIEDRA BLANCA                                     000093N00000000000000000000000000000000000000000000000000                                                                                                                                                           00000000000000000000000000000000000000000                                                                                                                                                                                                                                                          000000                                                                                                                                                                                                                                                                                                                                                              000000        

DA000003213100000383330051602102ELEUTERIO DE LA                                   CRUZ                                                                            C09300210748              19621002001MS000000000000000000000000000000                                                  RESP JUAN SANCHEZ RAMIREZ 7                                                                                                                           7           PIEDRA BLANCA                                     000093N00000000000000000000000000000000000000000000000000                                                                                                                                                           00000000000000000000000000000000000000000                                                                                                                                                                                                                                                          000000                                                                                                                                                                                                                                                                                                                                                              000000        

DA000000722900000380400051877664JOSE                                              DE LEON                                                                         C09300063949              19420706001MS000000000000000000000000000000                                                  SANCHEZ 28                                                                                                                                            28          PIEDRA BLANCA                                     000093N00000000000000000000000000000000000000000000000000                                                                                                                                                           00000000000000000000000000000000000000000                                                                                                                                                                                                                                                          000000                                                                                                                                                                                                                                                                                                                                                              000000        

DA000002320000000075040002474823RHINA JULIA                                       CABRERA                                                                         C00102539640              19521023001FC000000000000000000000000000000                                                  FCO. HENRIQUEZ Y CALVAJAL 281                                                                                                                         281         VILLA CONSUELO                                    000001N00000000000000000000000000000000000000000000000000                                                                                                                                                           00000000000000000000000000000000000000000                                                                                                                                                                                                                                                          000000                                                                                                                                                                                                                                                                                                                                                              000000        

DA000000031200000824390007339922TERESITA DE JESUS                                 MICHEL                                                                          C00108665431              19421003001FC000000000000000000000000000000                                                  CCENTRAL 43                                                                                                                                           43          LOS ALCARRIZO 2DO                                 000229N00000000000000000000000000000000000000000000000000                                                                                                                                                           00000000000000000000000000000000000000000                                                                                                                                                                                                                                                          000000                                                                                                                                                                                                                                                                                                                                                              000000        

DA000002734400000026600011347655MARIA CRISTINA                                    GIL                                                                             C00100746189              19480227001FC000000000000000000000000000000                                                  C1RA 14                                                                                                                                               14          ATALAS                                            000001N00000000000000000000000000000000000000000000000000                                                                                                                                                           00000000000000000000000000000000000000000                                                                                                                                                                                                                                                          000000                                                                                                                                                                                                                                                                                                                                                              000000        

DA000003415500000524510015075657ESTEBAN                                           VALDIVIA                                                                        C00105687255              19580515001MS000000000000000000000000000000                                                  AV. EUGENIO RIVERA 5                                                                                                                                  5           LA ESPERANZA                                      000223N00000000000000000000000000000000000000000000000000                                                                                                                                                           00000000000000000000000000000000000000000                                                                                                                                                                                                                                                          000000                                                                                                                                                                                                                                                                                                                                                              000000        

DA000002070900000726390013396978MAXIMO RAFAEL                                     TAMARES                                                                         C00109805036              19460516001MS000000000000000000000000000000                                                  EUGENIO RIVERA 18                                                                                                                                     18          LA ESPERANZA                                      000223N00000000000000000000000000000000000000000000000000                                                                                                                                                           00000000000000000000000000000000000000000                                                                                                                                                                                                                                                          000000                                                                                                                                                                                                                                                                                                                                                              000000        

DA000003444700000019440010202157PEDRO LEOBALDO                                    JOSEPH                                                                          C00100546712              19510118001MS000000000000000000000000000000                                                  13 ( MANZ 3947A) 20                                                                                                                                   20          LA ESPERANZA                                      000223N00000000000000000000000000000000000000000000000000                                                                                                                                                           00000000000000000000000000000000000000000                                                                                                                                                                                                                                                          000000                                                                                                                                                                                                                                                                                                                                                              000000        

DA000001953700000418590005998430ANA MERCEDES                                      ENSENAT                                                                         C00105367742              19340408001FC000000000000000000000000000000                                                  MERCEDES MOSCOS 40                                                                                                                                    40          VILLA FARO                                        000223N00000000000000000000000000000000000000000000000000                                                                                                                                                           00000000000000000000000000000000000000000                                                                                                                                                                                                                                                          000000                                                                                                                                                                                                                                                                                                                                                              000000        

DA000001590400000126210015108821CELESTE                                           FELIZ                                                                           C00105946412              19430215001FS000000000000000000000000000000                                                  7                                                                                                                                                     11          LA VICTORIA                                       000225N00000000000000000000000000000000000000000000000000                                                                                                                                                           00000000000000000000000000000000000000000                                                                                                                                                                                                                                                          000000                                                                                                                                                                                                                                                                                                                                                              000000        

DA000002944900000550840002881745FRANCISCO ALCIDES                                 GONZALEZ                                                                        C00109818179              19540207001MS000000000000000000000000000000                                                  LIC.ARTURO LOGORQO 38                                                                                                                                 38          VILLA JUANA                                       000001N00000000000000000000000000000000000000000000000000                                                                                                                                                           00000000000000000000000000000000000000000                                                                                                                                                                                                                                                          000000                                                                                                                                                                                                                                                                                                                                                              000000        

DA000002444000000097060008184534AQUILES                                           BELTRE                                                                          C00104044698              19460423001MS000000000000000000000000000000                                                  1RA                                                                                                                                                   8B          VILLA LIBERACION                                  000001N00000000000000000000000000000000000000000000000000                                                                                                                                                           00000000000000000000000000000000000000000                                                                                                                                                                                                                                                          000000                                                                                                                                                                                                                                                                                                                                                              000000        

DA000002919600000170980009048490LUIS HERASMO                                      FERRERAS                                                                        C00109314765              19350602001MC000000000000000000000000000000                                                  CALLE LUPERON 54                                                                                                                                      54          HONDURAS                                          000001N00000000000000000000000000000000000000000000000000                                                                                                                                                           00000000000000000000000000000000000000000                                                                                                                                                                                                                                                          000000                                                                                                                                                                                                                                                                                                                                                              000000        

DA000003343600000128730016162210MERCEDES                                          LAUREANO                                                                        C00106175821              19530924001MS000000000000000000000000000000                                                  3RA                                                                                                                                                   5           VILLA MELLA                                       000225N00000000000000000000000000000000000000000000000000                                                                                                                                                           00000000000000000000000000000000000000000                                                                                                                                                                                                                                                          000000                                                                                                                                                                                                                                                                                                                                                              000000        

DA000002261600000062400001153730JUAN                                              VILORIO                                                                         C00101882363              19320126001MS000000000000000000000000000000                                                  LOS RIOS, GUALLUBIN 9                                                                                                                                 9           LOS RIOS                                          000001N00000000000000000000000000000000000000000000000000                                                                                                                                                           00000000000000000000000000000000000000000                                                                                                                                                                                                                                                          000000                                                                                                                                                                                                                                                                                                                                                              000000        

DA000001362600000349480043872287ANA JULIA                                         CRUZ                                                                            C05600124035              19341207001FC000000000000000000000000000000                                                  CALLEJON CASTILO 173                                                                                                                                  173         N                                                 000056N00000000000000000000000000000000000000000000000000                                                                                                                                                           00000000000000000000000000000000000000000                                                                                                                                                                                                                                                          000000                                                                                                                                                                                                                                                                                                                                                              000000        

DA000001363900000646370046028875BALME LIVIO                                       MEJIA                                                                           C05600110497              19491002001MS000000000000000000000000000000                                                  ING. GUZMAN ABREU 17                                                                                                                                  17          N                                                 000056N00000000000000000000000000000000000000000000000000                                                                                                                                                           00000000000000000000000000000000000000000                                                                                                                                                                                                                                                          000000                                                                                                                                                                                                                                                                                                                                                              000000        

DA000001598700000117080017177982FERMIN RAFAEL                                     RODRIGUEZ                                                                       C00105316186              19590707001MC000000000000000000000000000000                                                  MANOLO TAVARES JUSTO 05                                                                                                                               05          SABANA PERDIDA                                    000225N00000000000000000000000000000000000000000000000000                                                                                                                                                           00000000000000000000000000000000000000000                                                                                                                                                                                                                                                          000000                                                                                                                                                                                                                                                                                                                                                              000000        

DA000002954400000547480015268517MANUEL RAMON                                      ARIAS                                                                           C00108805870              19491023001MS000000000000000000000000000000                                                  A                                                                                                                                                     4           LA PRADERA                                        000001N00000000000000000000000000000000000000000000000000                                                                                                                                                           00000000000000000000000000000000000000000                                                                                                                                                                                                                                                          000000                                                                                                                                                                                                                                                                                                                                                              000000        

DA000001879100000517970016061318JULIO                                             CASTRO                                                                          C00104683826              19410122001MS000000000000000000000000000000                                                  AMIN ABEL                                                                                                                                             17          BRISAS DE LOS MARES                               000223N00000000000000000000000000000000000000000000000000                                                                                                                                                           00000000000000000000000000000000000000000                                                                                                                                                                                                                                                          000000                                                                                                                                                                                                                                                                                                                                                              000000        

DA000003510800000078510003388082DOMINGO ISRAEL                                    FERNANDEZ                                                                       C00102782703              19570318001MC000000000000000000000000000000                                                  CESAR AUGUSTO                                                                                                                                         9           ELCLARET                                          000001N00000000000000000000000000000000000000000000000000                                                                                                                                                           00000000000000000000000000000000000000000                                                                                                                                                                                                                                                          000000                                                                                                                                                                                                                                                                                                                                                              000000        

DA000003329600000658510049816683ANGEL BARTOLO                                     MATOS                                                                           C07800089497              19630824001MC000000000000000000000000000000                                                  7                                                                                                                                                     54          JUAN PABLO DUARTE                                 000078N00000000000000000000000000000000000000000000000000                                                                                                                                                           00000000000000000000000000000000000000000                                                                                                                                                                                                                                                          000000                                                                                                                                                                                                                                                                                                                                                              000000        

DA000003467100000481880006786358OFELIA DEL CARMEN                                 FULGENCIO                                                                       C00100015890              19550705001FS000000000000000000000000000000                                                  JOSE GABRIEL                                                                                                                                          189         ZONA COLONIAL                                     000001N00000000000000000000000000000000000000000000000000                                                                                                                                                           00000000000000000000000000000000000000000                                                                                                                                                                                                                                                          000000                                                                                                                                                                                                                                                                                                                                                              000000        

DA000003228800000556390017817965FRANCISCO DE LA CRUZ                              CARO                                                                            C00200018042              19570703001MS000000000000000000000000000000                                                  PADRE BILLINI                                                                                                                                         702         CIUDAD NUEVA                                      000002N00000000000000000000000000000000000000000000000000                                                                                                                                                           00000000000000000000000000000000000000000                                                                                                                                                                                                                                                          000000                                                                                                                                                                                                                                                                                                                                                              000000        

DA000003454700000512680010394362VICTOR AMAURY                                     PERALTA                                                                         C00103742391              19450503001MS000000000000000000000000000000                                                  LA PELONA                                                                                                                                             513         CANCINO 1RO                                       000223N00000000000000000000000000000000000000000000000000                                                                                                                                                           00000000000000000000000000000000000000000                                                                                                                                                                                                                                                          000000                                                                                                                                                                                                                                                                                                                                                              000000        

DA000001280900000265130028201833ALEJANDRINA                                       LEONARDO                                                                        C02500033085              19280227001FC000000000000000000000000000000                                                  PALO HINCADO 50                                                                                                                                       50          EL RETIN                                          000025N00000000000000000000000000000000000000000000000000                                                                                                                                                           00000000000000000000000000000000000000000                                                                                                                                                                                                                                                          000000                                                                                                                                                                                                                                                                                                                                                              000000        

DA000001177200000270950027839050JACOBA                                            DE LOS SANTOS                                                                   C02800021012              19420825001FS000000000000000000000000000000                                                  HERMANO TREJO                                                                                                                                         25          SAN MARTIN                                        000028N00000000000000000000000000000000000000000000000000                                                                                                                                                           00000000000000000000000000000000000000000                                                                                                                                                                                                                                                          000000                                                                                                                                                                                                                                                                                                                                                              000000        

DA000000094300000270270028430385AMADO                                             REYES                                                                           C02700208271              19230913001MS000000000000000000000000000000                                                  COLON                                                                                                                                                 14          LA JAVILLA                                        000027N00000000000000000000000000000000000000000000000000                                                                                                                                                           00000000000000000000000000000000000000000                                                                                                                                                                                                                                                          000000                                                                                                                                                                                                                                                                                                                                                              000000        

DA000003015800000538830012967291SONIA CLAUDINA                                    ZORRILLA                                                                        C00107428237              19360527001FC000000000000000000000000000000                                                  Z                                                                                                                                                     N           ENS INVI JOSE CONTRERA                            000001N00000000000000000000000000000000000000000000000000                                                                                                                                                           00000000000000000000000000000000000000000                                                                                                                                                                                                                                                          000000                                                                                                                                                                                                                                                                                                                                                              000000        

DA000001759000000716850004654255ANGEL                                             HENRIQUEZ                                                                       C00106704802              19390317001MS000000000000000000000000000000                                                  SAN MIGUEL,MANOGUAYABO 45                                                                                                                             45          MANOGUAYABO                                       000001N00000000000000000000000000000000000000000000000000                                                                                                                                                           00000000000000000000000000000000000000000                                                                                                                                                                                                                                                          000000                                                                                                                                                                                                                                                                                                                                                              000000        

DA000002993300000158970002603113HECTOR                                            SANTOS                                                                          C00108239930              19430110001MS000000000000000000000000000000                                                  GUAYACANE                                                                                                                                             N           CRISTO REY                                        000001N00000000000000000000000000000000000000000000000000                                                                                                                                                           00000000000000000000000000000000000000000                                                                                                                                                                                                                                                          000000                                                                                                                                                                                                                                                                                                                                                              000000        

DA000001801800001232600013108404SERAPIA                                           RAMIREZ                                                                         C00105175988              19410914001FS000000000000000000000000000000                                                  1RA                                                                                                                                                   437         VILLA DUARTE                                      000223N00000000000000000000000000000000000000000000000000                                                                                                                                                           00000000000000000000000000000000000000000                                                                                                                                                                                                                                                          000000                                                                                                                                                                                                                                                                                                                                                              000000        

DA000003028300000145290017252630ROSARIO F DE JESUS                                ZORRILLA                                                                        C00107287682              19381024001FS000000000000000000000000000000                                                  Z, MANAZANA                                                                                                                                           N           COMPLEJO                                          000001N00000000000000000000000000000000000000000000000000                                                                                                                                                           00000000000000000000000000000000000000000                                                                                                                                                                                                                                                          000000                                                                                                                                                                                                                                                                                                                                                              000000        

DA000001924600000418730015291086BENANCIO                                          PEREZ                                                                           C00105406680              19541113001MC000000000000000000000000000000                                                  MANZ,4689                                                                                                                                             N           INVIVIENDA                                        000223N00000000000000000000000000000000000000000000000000                                                                                                                                                           00000000000000000000000000000000000000000                                                                                                                                                                                                                                                          000000                                                                                                                                                                                                                                                                                                                                                              000000        

DA000001886200000525920011723043SOFIA                                             SANCHEZ                                                                         C00105930200              19590525001FS000000000000000000000000000000                                                  MANZ 3939 17                                                                                                                                          17          LA ESPERANZA                                      000223N00000000000000000000000000000000000000000000000000                                                                                                                                                           00000000000000000000000000000000000000000                                                                                                                                                                                                                                                          000000                                                                                                                                                                                                                                                                                                                                                              000000        

DA000003555300000046980001248498FRANCISCO                                         BERROA                                                                          C00101359636              19540202001MC000000000000000000000000000000                                                  SANCHEZ                                                                                                                                               3           INVI                                              000001N00000000000000000000000000000000000000000000000000                                                                                                                                                           00000000000000000000000000000000000000000                                                                                                                                                                                                                                                          000000                                                                                                                                                                                                                                                                                                                                                              000000        

DA000000720900000380550051581711RAMON TEODORO                                     JIMENEZ                                                                         C09300074367              19580802001MS000000000000000000000000000000                                                  ANACAONA                                                                                                                                              122         PIEDRA BLANCA                                     000093N00000000000000000000000000000000000000000000000000                                                                                                                                                           00000000000000000000000000000000000000000                                                                                                                                                                                                                                                          000000                                                                                                                                                                                                                                                                                                                                                              000000        

