EPN52
DA000000105000001207980020344085GAVINO                                            DE LOS SANTOS                                                                   C00500171715              19430519036MS000000000000000000000000000000                                                  RESOLI                                                                                                                                                810         RESOLI                                            000179N00000000000000000000000000000000000000000000000000                                                                                                                                                           00000000000000000000000000000000000000000                                                                                                                                                                                                                                                          000000                                                                                                                                                                                                                                                                                                                                                              000000        
DA000003879400001235450000000000FRANCISCA DINORAH                                 MORENO                                                                          C00100012210              19470407036FS000000000000000000000000000000                                                  MANZ. E                                                                                                                                               02          CANCINO II                                        000001N00000000000000000000000000000000000000000000000000                                                                                                                                                           00000000000000000000000000000000000000000                                                                                                                                                                                                                                                          000000                                                                                                                                                                                                                                                                                                                                                              000000        
DA000003720300001255350000000000PEDRO                                             CASTILLO                                                                        C00101230019              19380220036MS000000000000000000000000000000                                                  SAN JUAN BAUTISTA                                                                                                                                     113         ENS. ATALA                                        000001N00000000000000000000000000000000000000000000000000                                                                                                                                                           00000000000000000000000000000000000000000                                                                                                                                                                                                                                                          000000                                                                                                                                                                                                                                                                                                                                                              000000        
DA000003748700001258450000000000JUANA                                             CADENA                                                                          C00104125455              19440131036FS000000000000000000000000000000                                                  ROSA BLANCA                                                                                                                                           52          LAS FLORES                                        000001N00000000000000000000000000000000000000000000000000                                                                                                                                                           00000000000000000000000000000000000000000                                                                                                                                                                                                                                                          000000                                                                                                                                                                                                                                                                                                                                                              000000        
DA000003778300001272130000000000ADELA                                             GERMAN                                                                          C00107748964              19590510036FS000000000000000000000000000000                                                  N                                                                                                                                                                                                                   000001N00000000000000000000000000000000000000000000000000                                                                                                                                                           00000000000000000000000000000000000000000                                                                                                                                                                                                                                                          000000                                                                                                                                                                                                                                                                                                                                                              000000        
DA000003712900001238660000000000NORMA ALTAGRACIA                                  ARIAS                                                                           C00100780071              19590814036FS000000000000000000000000000000                                                  CLAVEL                                                                                                                                                60          LA SFLORES                                        000001N00000000000000000000000000000000000000000000000000                                                                                                                                                           00000000000000000000000000000000000000000                                                                                                                                                                                                                                                          000000                                                                                                                                                                                                                                                                                                                                                              000000        
DA000003754200001237780000000000FELIX ANTONIO                                     PEÑA                                                                            C00104877774              19591203036MS000000000000000000000000000000                                                  PUERTO RICO                                                                                                                                           12          OZAMA                                             000001N00000000000000000000000000000000000000000000000000                                                                                                                                                           00000000000000000000000000000000000000000                                                                                                                                                                                                                                                          000000                                                                                                                                                                                                                                                                                                                                                              000000        
DA000003754700001237460000000000ALBERTO                                           SANTANA                                                                         C00104921143              19440407036MS000000000000000000000000000000                                                  MELLA                                                                                                                                                 758         LOS HEROES                                        000001N00000000000000000000000000000000000000000000000000                                                                                                                                                           00000000000000000000000000000000000000000                                                                                                                                                                                                                                                          000000                                                                                                                                                                                                                                                                                                                                                              000000        
DA000003815600001237900000000000FEDERICO ANTONIO                                  SUAZO                                                                           C01200139002              19500123036MS000000000000000000000000000000                                                  CAYETANO GERMOSEN                                                                                                                                     6           DN                                                000012N00000000000000000000000000000000000000000000000000                                                                                                                                                           00000000000000000000000000000000000000000                                                                                                                                                                                                                                                          000000                                                                                                                                                                                                                                                                                                                                                              000000        
DA000001014000000781810050397601HIPOLITO CASIANO                                  CERDA                                                                           C08100043002              19180518036MS000000000000000000000000000000                                                  PRINCIPAL                                                                                                                                             10          COPEYITO                                          000081N00000000000000000000000000000000000000000000000000                                                                                                                                                           00000000000000000000000000000000000000000                                                                                                                                                                                                                                                          000000                                                                                                                                                                                                                                                                                                                                                              000000        
DA000000150600001045570039963680ROBERTO                                           RODRIGUEZ                                                                       C04800520027              19270904036MS000000000000000000000000000000                                                  DR TEJADA FLORENTINO                                                                                                                                  8           VILLA CONSUELO                                    000001N00000000000000000000000000000000000000000000000000                                                                                                                                                           00000000000000000000000000000000000000000                                                                                                                                                                                                                                                          000000                                                                                                                                                                                                                                                                                                                                                              000000        
DA000002006700001007350011800027JULIAN BIENVENIDO                                 DIAZ                                                                            C00107348211              19240324036MS000000000000000000000000000000                                                  DR TEJADA FLORENTINO                                                                                                                                  8           VILLA CONSUELO                                    000001N00000000000000000000000000000000000000000000000000                                                                                                                                                           00000000000000000000000000000000000000000                                                                                                                                                                                                                                                          000000                                                                                                                                                                                                                                                                                                                                                              000000        
DA000000061600000235800022257780KENIA MARIBEL                                     HERNANDEZ                                                                       C01300051347              19500324036FS000000000000000000000000000000                                                  FRANCIOSCO                                                                                                                                            69          LA COLINA                                         000013N00000000000000000000000000000000000000000000000000                                                                                                                                                           00000000000000000000000000000000000000000                                                                                                                                                                                                                                                          000000                                                                                                                                                                                                                                                                                                                                                              000000        
DA000002430800000088210014057188JUAN                                              VALERA                                                                          C00103506788              19480802036MS000000000000000000000000000000                                                  SANTA RITA                                                                                                                                            17          LOS GUANDULES                                     000001N00000000000000000000000000000000000000000000000000                                                                                                                                                           00000000000000000000000000000000000000000                                                                                                                                                                                                                                                          000000                                                                                                                                                                                                                                                                                                                                                              000000        
DA000001028600000369170049958110AMANTINA                                          GUZMAN                                                                          C07100142624              19570226036FC000000000000000000000000000000                                                  CARRETERA                                                                                                                                                         MATA BONITA                                       000071N00000000000000000000000000000000000000000000000000                                                                                                                                                           00000000000000000000000000000000000000000                                                                                                                                                                                                                                                          000000                                                                                                                                                                                                                                                                                                                                                              000000        
DA000003812200001269250000000000CARMEN LUISA                                      RAMIREZ                                                                         C01000298511              19450923036FS000000000000000000000000000000                                                  CRISRTO SALVADOR                                                                                                                                      69          LOS MAMEYES                                       000001N00000000000000000000000000000000000000000000000000                                                                                                                                                           00000000000000000000000000000000000000000                                                                                                                                                                                                                                                          000000                                                                                                                                                                                                                                                                                                                                                              000000        
DA000000026600000158780007969721CARLOS JOSE RAMON                                 ALMANZAR                                                                        C00108213414              19291104036MS000000000000000000000000000000                                                  N                                                                                                                                                     34          N                                                 000001N00000000000000000000000000000000000000000000000000                                                                                                                                                           00000000000000000000000000000000000000000                                                                                                                                                                                                                                                          000000                                                                                                                                                                                                                                                                                                                                                              000000        
DA000001989300000133180012087533JOSE ADAN DE LA                                   ROSA                                                                            C00106374390              19421002036MC000000000000000000000000000000                                                  8                                                                                                                                                     162         MIRADOR NORTE                                     000225N00000000000000000000000000000000000000000000000000                                                                                                                                                           00000000000000000000000000000000000000000                                                                                                                                                                                                                                                          000000                                                                                                                                                                                                                                                                                                                                                              000000        
DA000003807400001257220000000000FEDERICO                                          RODRIGUEZ                                                                       C00200767960              19480321036MC000000000000000000000000000000                                                  ORQUIDEA                                                                                                                                              52          MADRE VIEJA DEL SUR                               000002N00000000000000000000000000000000000000000000000000                                                                                                                                                           00000000000000000000000000000000000000000                                                                                                                                                                                                                                                          000000                                                                                                                                                                                                                                                                                                                                                              000000        
DA000002076500000175080003771644ANDELSON ANTONIO                                  VERAS                                                                           C00110006897              19601026036MS000000000000000000000000000000                                                  N                                                                                                                                                     72                                                            000001N00000000000000000000000000000000000000000000000000                                                                                                                                                           00000000000000000000000000000000000000000                                                                                                                                                                                                                                                          000000                                                                                                                                                                                                                                                                                                                                                              000000        
DA000003744800001240840000000000JULIANA                                           SANTOS                                                                          C00103635983              19400718036FS000000000000000000000000000000                                                  29                                                                                                                                                    14          ENS. LUPERON                                      000001N00000000000000000000000000000000000000000000000000                                                                                                                                                           00000000000000000000000000000000000000000                                                                                                                                                                                                                                                          000000                                                                                                                                                                                                                                                                                                                                                              000000        
DA000002058600000548450015534303DIONISIO                                          CALDERON                                                                        C00108990961              19510509036MS000000000000000000000000000000                                                  N                                                                                                                                                     3                                                             000001N00000000000000000000000000000000000000000000000000                                                                                                                                                           00000000000000000000000000000000000000000                                                                                                                                                                                                                                                          000000                                                                                                                                                                                                                                                                                                                                                              000000        
DA000003101800000521460016344380FELICIANO                                         OGANDO                                                                          C00105231807              19590910036MC000000000000000000000000000000                                                  9 PEATON 5                                                                                                                                            534         LOS ALCARRIZOS AMERICANOS                         000229N00000000000000000000000000000000000000000000000000                                                                                                                                                           00000000000000000000000000000000000000000                                                                                                                                                                                                                                                          000000                                                                                                                                                                                                                                                                                                                                                              000000        
DA000002875900000551530001789575ARCENIO DE JESUS                                  ALMONTE                                                                         C00110165636              19561212036MS000000000000000000000000000000                                                  NA                                                                                                                                                    19PA        NA                                                000001N00000000000000000000000000000000000000000000000000                                                                                                                                                           00000000000000000000000000000000000000000                                                                                                                                                                                                                                                          000000                                                                                                                                                                                                                                                                                                                                                              000000        
DA000003073900000440450022782103DOMINGO                                           PEÑA                                                                            C01200059804              19560804036MS000000000000000000000000000000                                                  N                                                                                                                                                     15          N                                                 000001N00000000000000000000000000000000000000000000000000                                                                                                                                                           00000000000000000000000000000000000000000                                                                                                                                                                                                                                                          000000                                                                                                                                                                                                                                                                                                                                                              000000        
DA000003446900000031170017011022VICTOR                                            POLANCO                                                                         C00100909621              19430121036MC000000000000000000000000000000                                                  12 OCTUBRE                                                                                                                                            30          INVIVIENDA                                        000223N00000000000000000000000000000000000000000000000000                                                                                                                                                           00000000000000000000000000000000000000000                                                                                                                                                                                                                                                          000000                                                                                                                                                                                                                                                                                                                                                              000000        
DA000003559200000494690013705988EDWIN EDMUNDO                                     MONTAS                                                                          C00101343143              19580403036MC000000000000000000000000000000                                                  CENTRAL                                                                                                                                               0           HONDURAS DEL NORTE                                000001N00000000000000000000000000000000000000000000000000                                                                                                                                                           00000000000000000000000000000000000000000                                                                                                                                                                                                                                                          000000                                                                                                                                                                                                                                                                                                                                                              000000        
DA000001887800000124230002668186PETRONILA                                         TORRES                                                                          C00105757272              19340512036FS000000000000000000000000000000                                                  FCO SEGURAY SANDOVAL                                                                                                                                  02          LOS MINA                                          000001N00000000000000000000000000000000000000000000000000                                                                                                                                                           00000000000000000000000000000000000000000                                                                                                                                                                                                                                                          000000                                                                                                                                                                                                                                                                                                                                                              000000        
DA000001975700000817060016391618LEOPOLDO                                          DURAN                                                                           C00106424930              19460813036MS000000000000000000000000000000                                                  AUTO. LAS AMERICAS                                                                                                                                    19          LA UREÑA                                          000223N00000000000000000000000000000000000000000000000000                                                                                                                                                           00000000000000000000000000000000000000000                                                                                                                                                                                                                                                          000000                                                                                                                                                                                                                                                                                                                                                              000000        
DA000003497100000080120007005995ALBERTO                                           CUEVAS                                                                          C00102903929              19480105036MC000000000000000000000000000000                                                  MAURICIO BAEZ                                                                                                                                         40          VILLA JUANA                                       000001N00000000000000000000000000000000000000000000000000                                                                                                                                                           00000000000000000000000000000000000000000                                                                                                                                                                                                                                                          000000                                                                                                                                                                                                                                                                                                                                                              000000        
DA000002095000000177790009159236CARMEN MIREYA DE LOS ANGELES                      MOJICA                                                                          C00110970399              19370802036FS000000000000000000000000000000                                                  ACTIVO 2030                                                                                                                                           6           ALMA ROSA                                         000001N00000000000000000000000000000000000000000000000000                                                                                                                                                           00000000000000000000000000000000000000000                                                                                                                                                                                                                                                          000000                                                                                                                                                                                                                                                                                                                                                              000000        
DA000002189500000800320009203217MARIO ANIBAL                                      BELTRE                                                                          C00102416393              19450725036MC000000000000000000000000000000                                                  MANUELA DIEZ 03                                                                                                                                       03          N                                                 000223N00000000000000000000000000000000000000000000000000                                                                                                                                                           00000000000000000000000000000000000000000                                                                                                                                                                                                                                                          000000                                                                                                                                                                                                                                                                                                                                                              000000        
DA000000958800000218680020805575MANUEL DE REGLA                                   CARVAJAL                                                                        C00300290996              19301121036MC000000000000000000000000000000                                                  PRINCIPAL                                                                                                                                             08          EL PUEBLO                                         000003N00000000000000000000000000000000000000000000000000                                                                                                                                                           00000000000000000000000000000000000000000                                                                                                                                                                                                                                                          000000                                                                                                                                                                                                                                                                                                                                                              000000        
DA000002061800000547220007352252RAFAELA                                           RODRIGUEZ                                                                       C00108761834              19320903036FS000000000000000000000000000000                                                  C 2DA.                                                                                                                                                950         VILLA CARMEN                                      000223N00000000000000000000000000000000000000000000000000                                                                                                                                                           00000000000000000000000000000000000000000                                                                                                                                                                                                                                                          000000                                                                                                                                                                                                                                                                                                                                                              000000        
DA000000601500000236440024450401ANIBAL                                            GONZALEZ                                                                        C01400001408              19280428036MS000000000000000000000000000000                                                  DUARTE                                                                                                                                                54          EL PUEBLO                                         000014N00000000000000000000000000000000000000000000000000                                                                                                                                                           00000000000000000000000000000000000000000                                                                                                                                                                                                                                                          000000                                                                                                                                                                                                                                                                                                                                                              000000        
DA000003146000000285060032484247RAFAEL AUGUSTO                                    SANCHEZ                                                                         C03100828536              19291208036MC000000000000000000000000000000                                                  1ERA                                                                                                                                                  207         EL INVI                                           000031N00000000000000000000000000000000000000000000000000                                                                                                                                                           00000000000000000000000000000000000000000                                                                                                                                                                                                                                                          000000                                                                                                                                                                                                                                                                                                                                                              000000        
DA000000430700000289960035432324NEREIDA DEL CARMEN                                MARTINEZ                                                                        C03101162836              19340517036FC000000000000000000000000000000                                                  5                                                                                                                                                     76          EL ENSUEÑO                                        000031N00000000000000000000000000000000000000000000000000                                                                                                                                                           00000000000000000000000000000000000000000                                                                                                                                                                                                                                                          000000                                                                                                                                                                                                                                                                                                                                                              000000        
DA000001228000000340300046863395MARIA ESMERALDA                                   JAQUEZ                                                                          C05400042296              19340612036FC000000000000000000000000000000                                                  1ERA                                                                                                                                                  28          EL PUEBLO                                         000054N00000000000000000000000000000000000000000000000000                                                                                                                                                           00000000000000000000000000000000000000000                                                                                                                                                                                                                                                          000000                                                                                                                                                                                                                                                                                                                                                              000000        
DA000003133400000885370052603127ARACELYS MERCEDES                                 GORIS                                                                           C09400004546              19620908036FC000000000000000000000000000000                                                  MANUEL BOLTEL                                                                                                                                         30          URB. PEÑA                                         000094N00000000000000000000000000000000000000000000000000                                                                                                                                                           00000000000000000000000000000000000000000                                                                                                                                                                                                                                                          000000                                                                                                                                                                                                                                                                                                                                                              000000        
DA000003068400000326080039743706LUISA OFELIA                                      FLORENZAN                                                                       C04700609532              19300621036FS000000000000000000000000000000                                                  OVIEDO                                                                                                                                                83          DN                                                000001N00000000000000000000000000000000000000000000000000                                                                                                                                                           00000000000000000000000000000000000000000                                                                                                                                                                                                                                                          000000                                                                                                                                                                                                                                                                                                                                                              000000        
DA000000249800000386350052814254YOLANDA M YNMACULADA                              MARTINEZ                                                                        C09500002267              19541208036FS000000000000000000000000000000                                                  LUPERON                                                                                                                                               02          LICEY AL MEDIO                                    000095N00000000000000000000000000000000000000000000000000                                                                                                                                                           00000000000000000000000000000000000000000                                                                                                                                                                                                                                                          000000                                                                                                                                                                                                                                                                                                                                                              000000        
DA000000291400000280170030036445ANA CELESTE                                       LOPEZ                                                                           C03100352339              19260813036FS000000000000000000000000000000                                                  MANUEL RODRIGUEZ OBJIO                                                                                                                                115         PUEBLO NUEVO                                      000031N00000000000000000000000000000000000000000000000000                                                                                                                                                           00000000000000000000000000000000000000000                                                                                                                                                                                                                                                          000000                                                                                                                                                                                                                                                                                                                                                              000000        
DA000001916800000122430001502421SANTA HILARIA                                     SANCHEZ                                                                         C00105655849              19340812036FS000000000000000000000000000000                                                  AMACA                                                                                                                                                 43          LA CALETA                                         000226N00000000000000000000000000000000000000000000000000                                                                                                                                                           00000000000000000000000000000000000000000                                                                                                                                                                                                                                                          000000                                                                                                                                                                                                                                                                                                                                                              000000        
DA000001949100000418470015282246ANA FARAILDA                                      ESTRELLA                                                                        C00105339998              19360708036FS000000000000000000000000000000                                                  2DA                                                                                                                                                   02          SAN ISIDRO                                        000223N00000000000000000000000000000000000000000000000000                                                                                                                                                           00000000000000000000000000000000000000000                                                                                                                                                                                                                                                          000000                                                                                                                                                                                                                                                                                                                                                              000000        
DA000002109800000183640000796854ALTAGRACIA                                        YNFANTE                                                                         C00113664007              19370101036FC000000000000000000000000000000                                                  CURAZAO                                                                                                                                               34          ENS. OZAMA                                        000223N00000000000000000000000000000000000000000000000000                                                                                                                                                           00000000000000000000000000000000000000000                                                                                                                                                                                                                                                          000000                                                                                                                                                                                                                                                                                                                                                              000000        
DA000001939100000120030015051385TOMASINA                                          TAVERAS                                                                         C00105494876              19501227036FS000000000000000000000000000000                                                  ROSCOSO                                                                                                                                               09          LOS MINA                                          000223N00000000000000000000000000000000000000000000000000                                                                                                                                                           00000000000000000000000000000000000000000                                                                                                                                                                                                                                                          000000                                                                                                                                                                                                                                                                                                                                                              000000        
DA000002491500000097730007049943EDUARDO                                           CRISOSTOMO                                                                      C00104100904              19200201036MS000000000000000000000000000000                                                  RESPALDO 10                                                                                                                                           20          LA CARITA                                         000001N00000000000000000000000000000000000000000000000000                                                                                                                                                           00000000000000000000000000000000000000000                                                                                                                                                                                                                                                          000000                                                                                                                                                                                                                                                                                                                                                              000000        
DA000002107500000184480010429848BEATRIZ DEL CARMEN                                ORTIZ                                                                           C00113975437              19491229036FC000000000000000000000000000000                                                  PASO PEATON 3                                                                                                                                         12          INVI DE LOS MINA                                  000223N00000000000000000000000000000000000000000000000000                                                                                                                                                           00000000000000000000000000000000000000000                                                                                                                                                                                                                                                          000000                                                                                                                                                                                                                                                                                                                                                              000000        
DA000002035800000545110009564963FRANCISCO DEL ROSARIO                             SANCHEZ                                                                         C00108420514              19500323036MC000000000000000000000000000000                                                  7                                                                                                                                                     02          HAINAMOSA                                         000223N00000000000000000000000000000000000000000000000000                                                                                                                                                           00000000000000000000000000000000000000000                                                                                                                                                                                                                                                          000000                                                                                                                                                                                                                                                                                                                                                              000000        
DA000002380500000084740008716618DALIDA                                            CERDA                                                                           C00103287595              19520526036FS000000000000000000000000000000                                                  MANZ. 4687                                                                                                                                            002         INVIVIENDA                                        000223N00000000000000000000000000000000000000000000000000                                                                                                                                                           00000000000000000000000000000000000000000                                                                                                                                                                                                                                                          000000                                                                                                                                                                                                                                                                                                                                                              000000        
DA000001927800000119640002634123ANA TERESA                                        UREA                                                                            C00105469407              19341124036FC000000000000000000000000000000                                                  PEATON 21                                                                                                                                             200         ALMIRANTE ADENTRO                                 000223N00000000000000000000000000000000000000000000000000                                                                                                                                                           00000000000000000000000000000000000000000                                                                                                                                                                                                                                                          000000                                                                                                                                                                                                                                                                                                                                                              000000        
DA000003486300000088550007695181ABELARDO                                          DIAZ                                                                            C00103533469              19390306036MS000000000000000000000000000000                                                  FLOR DE TRINIDAD                                                                                                                                      02          MIL FLORES                                        000223N00000000000000000000000000000000000000000000000000                                                                                                                                                           00000000000000000000000000000000000000000                                                                                                                                                                                                                                                          000000                                                                                                                                                                                                                                                                                                                                                              000000        
DA000001977100000816980001424954FABIO                                             MADRIGAL                                                                        C00106412810              19330202036MS000000000000000000000000000000                                                  CARRETERA DE MENDOZA                                                                                                                                  191         VILLA FARO                                        000223N00000000000000000000000000000000000000000000000000                                                                                                                                                           00000000000000000000000000000000000000000                                                                                                                                                                                                                                                          000000                                                                                                                                                                                                                                                                                                                                                              000000        
DA000003747300001246390000000000BERKYS DEL CARMEN                                 GOMEZ                                                                           C00103910394              19590510036FS000000000000000000000000000000                                                  DUARTE                                                                                                                                                15          SABANA PERDIDA                                    000225N00000000000000000000000000000000000000000000000000                                                                                                                                                           00000000000000000000000000000000000000000                                                                                                                                                                                                                                                          000000                                                                                                                                                                                                                                                                                                                                                              000000        
DA000002920200001012580003970193DOMINGO ARISTIDES                                 VASQUEZ                                                                         C00109251975              19260514036MS000000000000000000000000000000                                                  3ERA                                                                                                                                                  07          VILLA OLIMPOCA                                    000223N00000000000000000000000000000000000000000000000000                                                                                                                                                           00000000000000000000000000000000000000000                                                                                                                                                                                                                                                          000000                                                                                                                                                                                                                                                                                                                                                              000000        
DA000002557600000053350006442812ANDRES OSCAR                                      BARCARCEL                                                                       C00101512853              19271130036MC000000000000000000000000000000                                                  CARMEN MENDOZA DE CORNIEL                                                                                                                             34          ENS. QUISQUEYA                                    000001N00000000000000000000000000000000000000000000000000                                                                                                                                                           00000000000000000000000000000000000000000                                                                                                                                                                                                                                                          000000                                                                                                                                                                                                                                                                                                                                                              000000        
DA000003726100001274590000000000JOSE MELCHOR                                      HERRERA                                                                         C00101598829              19190319036MC000000000000000000000000000000                                                  PEDRO ENRIQUE URE¥A 139                                                                                                                               139         DN                                                000001N00000000000000000000000000000000000000000000000000                                                                                                                                                           00000000000000000000000000000000000000000                                                                                                                                                                                                                                                          000000                                                                                                                                                                                                                                                                                                                                                              000000        
DA000002210400000403490003493693MIGUEL ANGEL                                      ALCANTARA                                                                       C00101609824              19400712036MC000000000000000000000000000000                                                  EL ALTO                                                                                                                                               10          COLINAS DE LOS RIOS                               000001N00000000000000000000000000000000000000000000000000                                                                                                                                                           00000000000000000000000000000000000000000                                                                                                                                                                                                                                                          000000                                                                                                                                                                                                                                                                                                                                                              000000        
DA000002992300000159220014356722MARINA ALTAGRACIA                                 FLORENTINO                                                                      C00108257528              19400421036FC000000000000000000000000000000                                                  B M6                                                                                                                                                  02          JOSE CONTRERAS                                    000001N00000000000000000000000000000000000000000000000000                                                                                                                                                           00000000000000000000000000000000000000000                                                                                                                                                                                                                                                          000000                                                                                                                                                                                                                                                                                                                                                              000000        
DA000002206800000983640009669718ROSA MERCEDES                                     TAVAREZ                                                                         C00101602431              19390427036FS000000000000000000000000000000                                                  DR. MARIO GARCIA ALVARADO                                                                                                                             71          DN                                                000001N00000000000000000000000000000000000000000000000000                                                                                                                                                           00000000000000000000000000000000000000000                                                                                                                                                                                                                                                          000000                                                                                                                                                                                                                                                                                                                                                              000000        
DA000000430900000613340035932242SANTIAGO RAFAEL                                   GUILLEN                                                                         C03101157851              19470504036MC000000000000000000000000000000                                                  43                                                                                                                                                    02          EL PUEBLO                                         000031N00000000000000000000000000000000000000000000000000                                                                                                                                                           00000000000000000000000000000000000000000                                                                                                                                                                                                                                                          000000                                                                                                                                                                                                                                                                                                                                                              000000        
DA000000283900000285980030548528CONSUELO DE JESUS                                 REYNOSO                                                                         C03100953268              19370816036FS000000000000000000000000000000                                                  AV. 27 DE FEBRERO (ATRAS) 19                                                                                                                          19          MIRA MAR                                          000031N00000000000000000000000000000000000000000000000000                                                                                                                                                           00000000000000000000000000000000000000000                                                                                                                                                                                                                                                          000000                                                                                                                                                                                                                                                                                                                                                              000000        
DA000000436700000623090030288675YONY DE JESUS                                     DE                                                                              C03400229948              19651126036MS000000000000000000000000000000                                                  PRIMERA                                                                                                                                               20          CAMPAMENTO CDEE                                   000031N00000000000000000000000000000000000000000000000000                                                                                                                                                           00000000000000000000000000000000000000000                                                                                                                                                                                                                                                          000000                                                                                                                                                                                                                                                                                                                                                              000000        
DA000001249500000341790044093446OLIVA DOLORES                                     LANTIGUA                                                                        C05400130737              19430703036FC000000000000000000000000000000                                                  VILLA CAROLINA                                                                                                                                        8           EL PUEBLO                                         000054N00000000000000000000000000000000000000000000000000                                                                                                                                                           00000000000000000000000000000000000000000                                                                                                                                                                                                                                                          000000                                                                                                                                                                                                                                                                                                                                                              000000        
DA000003084300000293660037139850FRANCISCO NICASIO ANT                             GUZMAN                                                                          C03101629487              19380401036MC000000000000000000000000000000                                                  PRINCIPAL                                                                                                                                             05          EL PUEBLO                                         000001N00000000000000000000000000000000000000000000000000                                                                                                                                                           00000000000000000000000000000000000000000                                                                                                                                                                                                                                                          000000                                                                                                                                                                                                                                                                                                                                                              000000        
DA000001806300000115510010492497FELIX ENRIQUE                                     TORRES                                                                          C00105259295              19220525036MC000000000000000000000000000000                                                  CAONABO                                                                                                                                               06          ALMIRANTE                                         000223N00000000000000000000000000000000000000000000000000                                                                                                                                                           00000000000000000000000000000000000000000                                                                                                                                                                                                                                                          000000                                                                                                                                                                                                                                                                                                                                                              000000        
DA000003659500000159180006884593ELSA MARIA                                        ALVAREZ                                                                         C00108255183              19390324036FS000000000000000000000000000000                                                  A                                                                                                                                                     002         INVI DE LA SANCHEZ                                000001N00000000000000000000000000000000000000000000000000                                                                                                                                                           00000000000000000000000000000000000000000                                                                                                                                                                                                                                                          000000                                                                                                                                                                                                                                                                                                                                                              000000        
DA000002625800000686430009149426ENRIQUE                                           JOSE                                                                            C00101225605              19471217036MS000000000000000000000000000000                                                  15                                                                                                                                                    10B         JUAN PABLO DUARTE                                 000223N00000000000000000000000000000000000000000000000000                                                                                                                                                           00000000000000000000000000000000000000000                                                                                                                                                                                                                                                          000000                                                                                                                                                                                                                                                                                                                                                              000000        
DA000003858000001244770000000000JUAN PABLO                                        CABRERA                                                                         C05000317379              19550415036MS000000000000000000000000000000                                                  EL CARMEN                                                                                                                                             33          EL CARMEN                                         000050N00000000000000000000000000000000000000000000000000                                                                                                                                                           00000000000000000000000000000000000000000                                                                                                                                                                                                                                                          000000                                                                                                                                                                                                                                                                                                                                                              000000        
DA000003797900001256050000000000JAVIER MARTIN                                     LOPEZ                                                                           C00112016357              19301023036MC000000000000000000000000000000                                                  PRINCIPAL                                                                                                                                             20          VILLAS DEL CAFE                                   000224N00000000000000000000000000000000000000000000000000                                                                                                                                                           00000000000000000000000000000000000000000                                                                                                                                                                                                                                                          000000                                                                                                                                                                                                                                                                                                                                                              000000        
DA000001481800000241180024885177DORO BUENAVENTURA                                 VASQUEZ                                                                         C01800056903              19090714036MS000000000000000000000000000000                                                  N                                                                                                                                                                                                                   000018N00000000000000000000000000000000000000000000000000                                                                                                                                                           00000000000000000000000000000000000000000                                                                                                                                                                                                                                                          000000                                                                                                                                                                                                                                                                                                                                                              000000        
DA000001185400000367340047881537MIREYA                                            FERRERAS                                                                        C07000029442              19381001036FS000000000000000000000000000000                                                  LAS FLORES                                                                                                                                            15          CENTRO                                            000070N00000000000000000000000000000000000000000000000000                                                                                                                                                           00000000000000000000000000000000000000000                                                                                                                                                                                                                                                          000000                                                                                                                                                                                                                                                                                                                                                              000000        
DA000001031700000368700049255631RAFAEL                                            GERMOSEN                                                                        C07100077671              19380507036MS000000000000000000000000000000                                                  PROLONGACION MELLA                                                                                                                                    00          ROBERTO FERMIN                                    000071N00000000000000000000000000000000000000000000000000                                                                                                                                                           00000000000000000000000000000000000000000                                                                                                                                                                                                                                                          000000                                                                                                                                                                                                                                                                                                                                                              000000        
