EPN52
DA000001668200000074930013761533MARIO                                             AYBAR                                                                           C00102530276              19460823001MS000000000000000000000000000000                                                  PROGRESO                                                                                                                                              15          ZONA NORTE                                        000225N00000000000000000000000000000000000000000000000000                                                                                                                                                           00000000000000000000000000000000000000000                                                                                                                                                                                                                                                          000000                                                                                                                                                                                                                                                                                                                                                              000000        
DA000001595300000127240013124694NILA                                              MARTINEZ                                                                        C00106071095              19150925001FS000000000000000000000000000000                                                  2DA                                                                                                                                                   41          GUARICANO                                         000225N00000000000000000000000000000000000000000000000000                                                                                                                                                           00000000000000000000000000000000000000000                                                                                                                                                                                                                                                          000000                                                                                                                                                                                                                                                                                                                                                              000000        
DA000001611000000714530003785707JOSE MANUEL                                       LOPEZ                                                                           C00106196843              19400204001MS000000000000000000000000000000                                                  RAMON MELLA                                                                                                                                           78          SANTO DOM NORTE                                   000225N00000000000000000000000000000000000000000000000000                                                                                                                                                           00000000000000000000000000000000000000000                                                                                                                                                                                                                                                          000000                                                                                                                                                                                                                                                                                                                                                              000000        
DA000001607500000128510016159381RAFAEL                                            GONZALEZ                                                                        C00106152937              19431024001MS000000000000000000000000000000                                                  27                                                                                                                                                    26          CARLOS ALBARES                                    000225N00000000000000000000000000000000000000000000000000                                                                                                                                                           00000000000000000000000000000000000000000                                                                                                                                                                                                                                                          000000                                                                                                                                                                                                                                                                                                                                                              000000        
DA000001667800000076060002484118FREMIO ARTURO                                     JIMENEZ                                                                         C00102614633              19460109001MS000000000000000000000000000000                                                  BARON DE GALILEO 10                                                                                                                                   10          ZONA NORTE                                        000225N00000000000000000000000000000000000000000000000000                                                                                                                                                           00000000000000000000000000000000000000000                                                                                                                                                                                                                                                          000000                                                                                                                                                                                                                                                                                                                                                              000000        
DA000001669900000069220008684663ONEYDA MERCEDES                                   GRULLON                                                                         C00102227097              19460413001FS000000000000000000000000000000                                                  MAMATINGO 47                                                                                                                                          47          GUARICANO                                         000225N00000000000000000000000000000000000000000000000000                                                                                                                                                           00000000000000000000000000000000000000000                                                                                                                                                                                                                                                          000000                                                                                                                                                                                                                                                                                                                                                              000000        
DA000001781800000315200040676458DIGNA PELAGIA                                     MARTINEZ                                                                        C04100057142              19620425001FS000000000000000000000000000000                                                  22                                                                                                                                                    62          ALMAROSA 2                                        000223N00000000000000000000000000000000000000000000000000                                                                                                                                                           00000000000000000000000000000000000000000                                                                                                                                                                                                                                                          000000                                                                                                                                                                                                                                                                                                                                                              000000        
DA000001608100000128580004587081VENERO                                            FIGUEROA                                                                        C00106159635              19480604001MS000000000000000000000000000000                                                  PROGRESO                                                                                                                                              91          ZONA NORTE                                        000225N00000000000000000000000000000000000000000000000000                                                                                                                                                           00000000000000000000000000000000000000000                                                                                                                                                                                                                                                          000000                                                                                                                                                                                                                                                                                                                                                              000000        
DA000002884500000727770004887907MARGARITA MARIA                                   MEDINA                                                                          C00110949724              19550212001FS000000000000000000000000000000                                                  JOSE MARTI (PARTE ATRAS) 301                                                                                                                          301         D.N                                               000001N00000000000000000000000000000000000000000000000000                                                                                                                                                           00000000000000000000000000000000000000000                                                                                                                                                                                                                                                          000000                                                                                                                                                                                                                                                                                                                                                              000000        
DA000001601400000129490008886762BRUNO EMILIO                                      DOMINGUEZ                                                                       C00106230691              19360116001MS000000000000000000000000000000                                                  15                                                                                                                                                    015         VILLA MELLA                                       000225N00000000000000000000000000000000000000000000000000                                                                                                                                                           00000000000000000000000000000000000000000                                                                                                                                                                                                                                                          000000                                                                                                                                                                                                                                                                                                                                                              000000        
DA000001612200000129180005676668CARMEN AGUSTINA                                   SIERRA                                                                          C00106206964              19530716001FS000000000000000000000000000000                                                  10                                                                                                                                                    13          ZONA, NORTE                                       000225N00000000000000000000000000000000000000000000000000                                                                                                                                                           00000000000000000000000000000000000000000                                                                                                                                                                                                                                                          000000                                                                                                                                                                                                                                                                                                                                                              000000        
DA000002371200000080460008138783FLORENLINA                                        REYES                                                                           C00102926300              19511209001FS000000000000000000000000000000                                                  ERNESTO GOMEZ 46                                                                                                                                      46          D.N                                               000001N00000000000000000000000000000000000000000000000000                                                                                                                                                           00000000000000000000000000000000000000000                                                                                                                                                                                                                                                          000000                                                                                                                                                                                                                                                                                                                                                              000000        
DA000003656800000162150010703131JOSE MANUEL                                       AMADOR                                                                          C00108486481              19460613001MS000000000000000000000000000000                                                  C MARIA MONTEZ 260                                                                                                                                    260         D.N                                               000001N00000000000000000000000000000000000000000000000000                                                                                                                                                           00000000000000000000000000000000000000000                                                                                                                                                                                                                                                          000000                                                                                                                                                                                                                                                                                                                                                              000000        
DA000002445100000702500009296013REYES                                             MARTINEZ                                                                        C00104036298              19621223001FS000000000000000000000000000000                                                  INTERIOR F 70                                                                                                                                         70          D.N                                               000001N00000000000000000000000000000000000000000000000000                                                                                                                                                           00000000000000000000000000000000000000000                                                                                                                                                                                                                                                          000000                                                                                                                                                                                                                                                                                                                                                              000000        
DA000002998300000723400000526078JULIA                                             SALA                                                                            C00108546037              19420405001FS000000000000000000000000000000                                                  ASTRAL                                                                                                                                                2           D.N                                               000001N00000000000000000000000000000000000000000000000000                                                                                                                                                           00000000000000000000000000000000000000000                                                                                                                                                                                                                                                          000000                                                                                                                                                                                                                                                                                                                                                              000000        
DA000001645300000827760003872812JUAN FRANCISCO                                    GIRON                                                                           C00111586558              19571021001MS000000000000000000000000000000                                                  PRINCIPAL                                                                                                                                             145         SIERA I                                           000225N00000000000000000000000000000000000000000000000000                                                                                                                                                           00000000000000000000000000000000000000000                                                                                                                                                                                                                                                          000000                                                                                                                                                                                                                                                                                                                                                              000000        
DA000001595700000125480001524746FLORENTINA                                        BELEN                                                                           C00105850895              19250116001FS000000000000000000000000000000                                                  PRINCIPAL 105                                                                                                                                         105         GUANUMA                                           000225N00000000000000000000000000000000000000000000000000                                                                                                                                                           00000000000000000000000000000000000000000                                                                                                                                                                                                                                                          000000                                                                                                                                                                                                                                                                                                                                                              000000        
DA000000954600001073960021557648ADRIANO                                           BAEZ                                                                            C00300339819              19500808001MS000000000000000000000000000000                                                  GREGORIO LUPERON 7                                                                                                                                    7           PAYA                                              000185N00000000000000000000000000000000000000000000000000                                                                                                                                                           00000000000000000000000000000000000000000                                                                                                                                                                                                                                                          000000                                                                                                                                                                                                                                                                                                                                                              000000        
DA000000146400000331570041808272MARIA ALTAGRACIA                                  CAMARENA                                                                        C04800347306              19441103001FC000000000000000000000000000000                                                  19                                                                                                                                                    19          EL VERDE                                          000048N00000000000000000000000000000000000000000000000000                                                                                                                                                           00000000000000000000000000000000000000000                                                                                                                                                                                                                                                          000000                                                                                                                                                                                                                                                                                                                                                              000000        
DA000000140600000391530054011651JULIO JUSTO                                       GARCIA                                                                          C11800001759              19250725001MC000000000000000000000000000000                                                  PRIMERA 4                                                                                                                                             2           PUERTO RICO                                       000118N00000000000000000000000000000000000000000000000000                                                                                                                                                           00000000000000000000000000000000000000000                                                                                                                                                                                                                                                          000000                                                                                                                                                                                                                                                                                                                                                              000000        
DA000000145200000331470038146481RAFAEL                                            HERRERA                                                                         C04800343685              19450914001MC000000000000000000000000000000                                                  PRESIDENTE VASQUEZ 209                                                                                                                                209         SAN ISIDRO DE JUMA                                000048N00000000000000000000000000000000000000000000000000                                                                                                                                                           00000000000000000000000000000000000000000                                                                                                                                                                                                                                                          000000                                                                                                                                                                                                                                                                                                                                                              000000        
DA000000481900000639390037840336JUAN VIRGILIO                                     SALCEDO                                                                         C04900017387              19591221001MS000000000000000000000000000000                                                  JUAN SANCHEZ RAMIREZ 45                                                                                                                               45          HOSTO                                             000049N00000000000000000000000000000000000000000000000000                                                                                                                                                           00000000000000000000000000000000000000000                                                                                                                                                                                                                                                          000000                                                                                                                                                                                                                                                                                                                                                              000000        
DA000000149600000470470039358276JOSE DOLORES                                      MENA                                                                            C04800461578              19370810001MC000000000000000000000000000000                                                  ALTAGRACIA 100                                                                                                                                        100         CENTRO DEL PUEBLO                                 000048N00000000000000000000000000000000000000000000000000                                                                                                                                                           00000000000000000000000000000000000000000                                                                                                                                                                                                                                                          000000                                                                                                                                                                                                                                                                                                                                                              000000        
DA000000484100000334360040011264CELESTE                                           MARTE                                                                           C04900249733              19420521001FC000000000000000000000000000000                                                  PRINCIPAL 1601                                                                                                                                        1601        COTUI                                             000049N00000000000000000000000000000000000000000000000000                                                                                                                                                           00000000000000000000000000000000000000000                                                                                                                                                                                                                                                          000000                                                                                                                                                                                                                                                                                                                                                              000000        
DA000001097300000768070042301551FELIX ANTONIO                                     BALCACER                                                                        C04700045729              19630723001MS000000000000000000000000000000                                                  CALLE 3 13                                                                                                                                            13          VILLA PRIMAVERA 2DA                               000047N00000000000000000000000000000000000000000000000000                                                                                                                                                           00000000000000000000000000000000000000000                                                                                                                                                                                                                                                          000000                                                                                                                                                                                                                                                                                                                                                              000000        
DA000001531600000226930017800997MARIO EMILIO                                      MATOS                                                                           C01000175727              19380603001MS000000000000000000000000000000                                                  CLUB DE LEONES 51                                                                                                                                     51          LOS PAJARITOS                                     000010N00000000000000000000000000000000000000000000000000                                                                                                                                                           00000000000000000000000000000000000000000                                                                                                                                                                                                                                                          000000                                                                                                                                                                                                                                                                                                                                                              000000        
DA000001554700000157640014347506RAFAEL ONERIS                                     RUIZ                                                                            C00108125303              19290429001MS000000000000000000000000000000                                                  JUAN PABLO DUARTE                                                                                                                                     005         AZUA DE COMPOSTELA                                000010N00000000000000000000000000000000000000000000000000                                                                                                                                                           00000000000000000000000000000000000000000                                                                                                                                                                                                                                                          000000                                                                                                                                                                                                                                                                                                                                                              000000        
DA000001545000001226460019883087RAFAEL AMAURYS                                    ESTEPAN                                                                         C01000104107              19450910001MS000000000000000000000000000000                                                  BSIMON STRIDDELLS 304                                                                                                                                 304         AZUA DE COMPOSTELA                                000010N00000000000000000000000000000000000000000000000000                                                                                                                                                           00000000000000000000000000000000000000000                                                                                                                                                                                                                                                          000000                                                                                                                                                                                                                                                                                                                                                              000000        
DA000000485100000334460041849774MARIA ALTAGRACIA                                  MORALES                                                                         C04900302698              19531128001FS000000000000000000000000000000                                                  7 SN                                                                                                                                                  SN          DORADO                                            000049N00000000000000000000000000000000000000000000000000                                                                                                                                                           00000000000000000000000000000000000000000                                                                                                                                                                                                                                                          000000                                                                                                                                                                                                                                                                                                                                                              000000        
DA000001543800000226430020161265CELESTINO                                         BELTRE                                                                          C01000154722              19311016001MC000000000000000000000000000000                                                  LUPERON 11                                                                                                                                            11          LA COLONIA                                        000010N00000000000000000000000000000000000000000000000000                                                                                                                                                           00000000000000000000000000000000000000000                                                                                                                                                                                                                                                          000000                                                                                                                                                                                                                                                                                                                                                              000000        
DA000001537000000225230018272041ALTAGRACIA MILAGROS                               CABRAL                                                                          C01000073443              19450917001FS000000000000000000000000000000                                                  TORTUGUERO 40                                                                                                                                         40          AZUA DE COMPOSTELA                                000010N00000000000000000000000000000000000000000000000000                                                                                                                                                           00000000000000000000000000000000000000000                                                                                                                                                                                                                                                          000000                                                                                                                                                                                                                                                                                                                                                              000000        
DA000000480000000332740040295328ESCOLASTICA                                       GUZMAN                                                                          C04900006067              19370120001FC000000000000000000000000000000                                                  4 1                                                                                                                                                   1           PUEBLO NUEVO                                      000049N00000000000000000000000000000000000000000000000000                                                                                                                                                           00000000000000000000000000000000000000000                                                                                                                                                                                                                                                          000000                                                                                                                                                                                                                                                                                                                                                              000000        
DA000000149500000638920041530298RAFAEL                                            MORONTA                                                                         C04800458707              19481024001MS000000000000000000000000000000                                                  PRIMERA                                                                                                                                               15          LOS PLATANITOS                                    000048N00000000000000000000000000000000000000000000000000                                                                                                                                                           00000000000000000000000000000000000000000                                                                                                                                                                                                                                                          000000                                                                                                                                                                                                                                                                                                                                                              000000        
DA000000593600000229170022852430DAMARIS                                           BERIGUETE                                                                       C01100050820              19590510001FS000000000000000000000000000000                                                  CDE FEBRERO                                                                                                                                           201         LOS MULTI                                         000011N00000000000000000000000000000000000000000000000000                                                                                                                                                           00000000000000000000000000000000000000000                                                                                                                                                                                                                                                          000000                                                                                                                                                                                                                                                                                                                                                              000000        
DA000001332200000354360045861600ANA MARIA                                         SANTANA                                                                         C05600904394              19490315001FS000000000000000000000000000000                                                  AV. LIBERTAD 84A                                                                                                                                      84A         SAN FRANCISCO DE MACORIS                          000056N00000000000000000000000000000000000000000000000000                                                                                                                                                           00000000000000000000000000000000000000000                                                                                                                                                                                                                                                          000000                                                                                                                                                                                                                                                                                                                                                              000000        
DA000000598900000233680024967792OCTAVIO                                           AQUINO                                                                          C01200257440              19421120001MS000000000000000000000000000000                                                  SN                                                                                                                                                    282         LOS MONTENES                                      000129N00000000000000000000000000000000000000000000000000                                                                                                                                                           00000000000000000000000000000000000000000                                                                                                                                                                                                                                                          000000                                                                                                                                                                                                                                                                                                                                                              000000        
DA000001361300000472600042692405LUIS FRANCISCO                                    REYNOSO                                                                         C05600418114              19431126001MS000000000000000000000000000000                                                  41                                                                                                                                                    41          SAN FRANCISCO DE MACORIS                          000056N00000000000000000000000000000000000000000000000000                                                                                                                                                           00000000000000000000000000000000000000000                                                                                                                                                                                                                                                          000000                                                                                                                                                                                                                                                                                                                                                              000000        
DA000000150800000331920040590497LUZ MERCEDES                                      ROSARIO                                                                         C04800487961              19461214001FC000000000000000000000000000000                                                  CMEJORAMIENTO SOCIAL                                                                                                                                  37          CENTRO DEL PUEBLO                                 000048N00000000000000000000000000000000000000000000000000                                                                                                                                                           00000000000000000000000000000000000000000                                                                                                                                                                                                                                                          000000                                                                                                                                                                                                                                                                                                                                                              000000        
DA000002381200000084800000179786MILADY ALBERTINA                                  ORTEGA                                                                          C00103289773              19320423001FS000000000000000000000000000000                                                  FELIPE VICINI PERDMO 125                                                                                                                              125         VILLA CONSUELO                                    000001N00000000000000000000000000000000000000000000000000                                                                                                                                                           00000000000000000000000000000000000000000                                                                                                                                                                                                                                                          000000                                                                                                                                                                                                                                                                                                                                                              000000        
DA000000163100001229640042375845MELIDA                                            RODRIGUEZ                                                                       C04800101935              19490310001FS000000000000000000000000000000                                                  PADRE VILLINI 384                                                                                                                                     384         PROSPERIDAD                                       000048N00000000000000000000000000000000000000000000000000                                                                                                                                                           00000000000000000000000000000000000000000                                                                                                                                                                                                                                                          000000                                                                                                                                                                                                                                                                                                                                                              000000        
DA000001385300000348950043457845ANA DOLORES                                       ALVARADO                                                                        C05600082191              19290727001FS000000000000000000000000000000                                                  LA CRUZ 56                                                                                                                                            56          SAN FRANCISCO DE MACORIS                          000056N00000000000000000000000000000000000000000000000000                                                                                                                                                           00000000000000000000000000000000000000000                                                                                                                                                                                                                                                          000000                                                                                                                                                                                                                                                                                                                                                              000000        
DA000000171400000875490039938633CAMILA DE LOS SANTOS                              MOREL                                                                           C04800309249              19580802001FS000000000000000000000000000000                                                  EL 8 CARACOL                                                                                                                                          8           EL 8 SIMON BOLIVAR                                000048N00000000000000000000000000000000000000000000000000                                                                                                                                                           00000000000000000000000000000000000000000                                                                                                                                                                                                                                                          000000                                                                                                                                                                                                                                                                                                                                                              000000        
DA000002293400000691000004379432CEFERINO                                          HERNANDEZ                                                                       C00102192002              19480405001MS000000000000000000000000000000                                                  EL RETIRO                                                                                                                                             N           LAS FLORES                                        000001N00000000000000000000000000000000000000000000000000                                                                                                                                                           00000000000000000000000000000000000000000                                                                                                                                                                                                                                                          000000                                                                                                                                                                                                                                                                                                                                                              000000        
DA000002718100000684240005378506TOMAS                                             AQUINO                                                                          C00100711522              19361107001MS000000000000000000000000000000                                                  1RA 22                                                                                                                                                22          UNV. AMANDA PRIMERO                               000001N00000000000000000000000000000000000000000000000000                                                                                                                                                           00000000000000000000000000000000000000000                                                                                                                                                                                                                                                          000000                                                                                                                                                                                                                                                                                                                                                              000000        
DA000002627200000043070015057675GREGORIO TERCERO                                  POLANCO                                                                         C00101220986              19300406001MC000000000000000000000000000000                                                  AVE. SARASOTA                                                                                                                                         4           DISTRITO NACIONAL                                 000001N00000000000000000000000000000000000000000000000000                                                                                                                                                           00000000000000000000000000000000000000000                                                                                                                                                                                                                                                          000000                                                                                                                                                                                                                                                                                                                                                              000000        
DA000002361000000082080006541001JUAN                                              MONTERO                                                                         C00103083309              19320227001MS000000000000000000000000000000                                                  VILLA MELLA                                                                                                                                           18          VILLA MELLA                                       000001N00000000000000000000000000000000000000000000000000                                                                                                                                                           00000000000000000000000000000000000000000                                                                                                                                                                                                                                                          000000                                                                                                                                                                                                                                                                                                                                                              000000        
DA000002927200000171810006939785ANTONIO                                           PEA                                                                             C00109469593              19390713001MS000000000000000000000000000000                                                  LA GUARDIA 194                                                                                                                                        194         DISTRITO NACIONAL                                 000001N00000000000000000000000000000000000000000000000000                                                                                                                                                           00000000000000000000000000000000000000000                                                                                                                                                                                                                                                          000000                                                                                                                                                                                                                                                                                                                                                              000000        
DA000002319100000075140005831954ALTAGRACIA ANGELICA                               PEA                                                                             C00102544988              19390523001FS000000000000000000000000000000                                                  REPOBLACION FORESTAL 1                                                                                                                                1           DISTRITO NACIONAL                                 000001N00000000000000000000000000000000000000000000000000                                                                                                                                                           00000000000000000000000000000000000000000                                                                                                                                                                                                                                                          000000                                                                                                                                                                                                                                                                                                                                                              000000        
DA000002399900000699580004459917MODESTO                                           CANDELARIO                                                                      C00103612719              19321130001MC000000000000000000000000000000                                                  CALLE 12 2                                                                                                                                            12          27 DE FABRERO                                     000001N00000000000000000000000000000000000000000000000000                                                                                                                                                           00000000000000000000000000000000000000000                                                                                                                                                                                                                                                          000000                                                                                                                                                                                                                                                                                                                                                              000000        
DA000000690600000684380009570337ROSENDO                                           GONZALEZ                                                                        C00100739986              19410319001MS000000000000000000000000000000                                                  C RESP. LAS PALMA 39                                                                                                                                  39          SAN CRISTOBAL                                     000093N00000000000000000000000000000000000000000000000000                                                                                                                                                           00000000000000000000000000000000000000000                                                                                                                                                                                                                                                          000000                                                                                                                                                                                                                                                                                                                                                              000000        
DA000001912600001057890011687772MILAGROS                                          BRITO                                                                           C00105602072              19450927001FS000000000000000000000000000000                                                  AVE. PARQUE DEL ESTE                                                                                                                                  102         VILLA DUARTE                                      000223N00000000000000000000000000000000000000000000000000                                                                                                                                                           00000000000000000000000000000000000000000                                                                                                                                                                                                                                                          000000                                                                                                                                                                                                                                                                                                                                                              000000        
DA000002296500000069420012600554ANA MERCEDES                                      SANTOS                                                                          C00102247772              19200609001FS000000000000000000000000000000                                                  JUANASALTITOPA 300PARTE ATRAS                                                                                                                         110         DISTRITO NACIONAL                                 000001N00000000000000000000000000000000000000000000000000                                                                                                                                                           00000000000000000000000000000000000000000                                                                                                                                                                                                                                                          000000                                                                                                                                                                                                                                                                                                                                                              000000        
DA000001847500000109150009877077DOMINGA                                           DEL                                                                             C00104909247              19380706001FS000000000000000000000000000000                                                  ANACAONA 17                                                                                                                                           17          EL ALMIRANTE                                      000223N00000000000000000000000000000000000000000000000000                                                                                                                                                           00000000000000000000000000000000000000000                                                                                                                                                                                                                                                          000000                                                                                                                                                                                                                                                                                                                                                              000000        
DA000001813300000114800005652090CARMEN                                            BAUTISTA                                                                        C00105227078              19290716001FC000000000000000000000000000000                                                  ACTIVO 2030 60                                                                                                                                        122         ALMA ROSA                                         000223N00000000000000000000000000000000000000000000000000                                                                                                                                                           00000000000000000000000000000000000000000                                                                                                                                                                                                                                                          000000                                                                                                                                                                                                                                                                                                                                                              000000        
DA000002549100000046090008019886ROSA ELVIRA                                       ROMERO                                                                          C00101320612              19351027001FC000000000000000000000000000000                                                  SIRENAS 12                                                                                                                                            12          DISTRITO NACIONAL                                 000001N00000000000000000000000000000000000000000000000000                                                                                                                                                           00000000000000000000000000000000000000000                                                                                                                                                                                                                                                          000000                                                                                                                                                                                                                                                                                                                                                              000000        
DA000001814200000114580003760310SIBILA                                            CORLETTO                                                                        C00105221832              19190923001FS000000000000000000000000000000                                                  CURAZAO 44                                                                                                                                            44          ENS.OZAMA                                         000223N00000000000000000000000000000000000000000000000000                                                                                                                                                           00000000000000000000000000000000000000000                                                                                                                                                                                                                                                          000000                                                                                                                                                                                                                                                                                                                                                              000000        
DA000000624300000230480022975468CARIDAD                                           FAMILIA                                                                         C01200033825              19250925001FS000000000000000000000000000000                                                  C17 ESQ 16                                                                                                                                            13          LA ESPERANZA                                      000223N00000000000000000000000000000000000000000000000000                                                                                                                                                           00000000000000000000000000000000000000000                                                                                                                                                                                                                                                          000000                                                                                                                                                                                                                                                                                                                                                              000000        
DA000002794600000012220005660278MARIA ESTHELA                                     CRUZ                                                                            C00100202449              19380810001FS000000000000000000000000000000                                                  C PRIMERA NO 7 RES DEL CAFE DE HERRERA                                                                                                                42          HERRERA                                           000001N00000000000000000000000000000000000000000000000000                                                                                                                                                           00000000000000000000000000000000000000000                                                                                                                                                                                                                                                          000000                                                                                                                                                                                                                                                                                                                                                              000000        
DA000002790900000790670010675125DAUNIA ALTAGRACIA                                 CRUZ                                                                            C00100033612              19390921001FS000000000000000000000000000000                                                  PADRE BILLINI 271                                                                                                                                     271         CIUDAD NUEVA                                      000001N00000000000000000000000000000000000000000000000000                                                                                                                                                           00000000000000000000000000000000000000000                                                                                                                                                                                                                                                          000000                                                                                                                                                                                                                                                                                                                                                              000000        
DA000002460900000806390005887053JOSE MARIA                                        UBRI                                                                            C00103775326              19570503001MS000000000000000000000000000000                                                  34A 26                                                                                                                                                26          VILLAS AGRICOLAS                                  000001N00000000000000000000000000000000000000000000000000                                                                                                                                                           00000000000000000000000000000000000000000                                                                                                                                                                                                                                                          000000                                                                                                                                                                                                                                                                                                                                                              000000        
DA000002184200000077900010364055YOLANDA                                           DE LOS SANTOS                                                                   C00102744760              19280609001FS000000000000000000000000000000                                                  CARRETERA MELLA KM. 9                                                                                                                                 1A          CANCINO I                                         000223N00000000000000000000000000000000000000000000000000                                                                                                                                                           00000000000000000000000000000000000000000                                                                                                                                                                                                                                                          000000                                                                                                                                                                                                                                                                                                                                                              000000        
DA000002779800000394240002287105CLARA DIVINA                                      GONZALEZ                                                                        C00100053644              19470812001FC000000000000000000000000000000                                                  ARZ. PORTES 204                                                                                                                                       204         DISTRITO NACIONAL                                 000001N00000000000000000000000000000000000000000000000000                                                                                                                                                           00000000000000000000000000000000000000000                                                                                                                                                                                                                                                          000000                                                                                                                                                                                                                                                                                                                                                              000000        
DA000002395600000084110012966201BARBARA                                           PEREZ                                                                           C00103246401              19300327001FS000000000000000000000000000000                                                  RESPALDO RAVELO VILLA FRANCISCA                                                                                                                       7           VILLA FRANCISCA                                   000001N00000000000000000000000000000000000000000000000000                                                                                                                                                           00000000000000000000000000000000000000000                                                                                                                                                                                                                                                          000000                                                                                                                                                                                                                                                                                                                                                              000000        
DA000001646700000185130002047290MANUEL EMILIO                                     RUIZ                                                                            C00114372287              19510603001MS000000000000000000000000000000                                                  RESP. 13 111                                                                                                                                          111         EL PROGRESO                                       000225N00000000000000000000000000000000000000000000000000                                                                                                                                                           00000000000000000000000000000000000000000                                                                                                                                                                                                                                                          000000                                                                                                                                                                                                                                                                                                                                                              000000        
DA000001848100000108900007769385FLERIDA MARIA                                     RUIZ                                                                            C00104894142              19270727001FS000000000000000000000000000000                                                  CH2 30                                                                                                                                                30          LOS MINA                                          000223N00000000000000000000000000000000000000000000000000                                                                                                                                                           00000000000000000000000000000000000000000                                                                                                                                                                                                                                                          000000                                                                                                                                                                                                                                                                                                                                                              000000        
DA000002348600000409620008120748CARMEN                                            CASTAO                                                                          C00102779162              19460101001FS000000000000000000000000000000                                                  EXP. 5TO CENTENARIO                                                                                                                                   21B         DISTRITO NACIONAL                                 000001N00000000000000000000000000000000000000000000000000                                                                                                                                                           00000000000000000000000000000000000000000                                                                                                                                                                                                                                                          000000                                                                                                                                                                                                                                                                                                                                                              000000        
DA000002824900000979150013609062MARIA IGNACIA                                     MEDINA                                                                          C00100466051              19570108001FC000000000000000000000000000000                                                  4 9                                                                                                                                                   9           LOS FRAILES I                                     000223N00000000000000000000000000000000000000000000000000                                                                                                                                                           00000000000000000000000000000000000000000                                                                                                                                                                                                                                                          000000                                                                                                                                                                                                                                                                                                                                                              000000        
DA000002435500000702080000243842MILADY                                            SARNELLY                                                                        C00103978631              19461109001FC000000000000000000000000000000                                                  PADRE CASTELLANO                                                                                                                                      2           SANCHEZ ESPAILLAT                                 000001N00000000000000000000000000000000000000000000000000                                                                                                                                                           00000000000000000000000000000000000000000                                                                                                                                                                                                                                                          000000                                                                                                                                                                                                                                                                                                                                                              000000        
DA000002804700000485050014969483CRISTOBAL                                         DOMINGUEZ                                                                       C00100308279              19480221001MS000000000000000000000000000000                                                  LUIS C DEL CASTILLO 34                                                                                                                                34          VILLA CONSUELO                                    000001N00000000000000000000000000000000000000000000000000                                                                                                                                                           00000000000000000000000000000000000000000                                                                                                                                                                                                                                                          000000                                                                                                                                                                                                                                                                                                                                                              000000        
DA000002128300000014810013882205LUIS ARTURO                                       DIAZ                                                                            C00100304294              19390701001MS000000000000000000000000000000                                                  MANZANA G 10                                                                                                                                          10          LOS PRADOS DEL CACHON                             000223N00000000000000000000000000000000000000000000000000                                                                                                                                                           00000000000000000000000000000000000000000                                                                                                                                                                                                                                                          000000                                                                                                                                                                                                                                                                                                                                                              000000        
DA000002150700000705640011970417HENRY ALBERTO                                     BURGOS                                                                          C00104576269              19680216001MC000000000000000000000000000000                                                  C25 ESTE , MANZ 92                                                                                                                                    5           SAN LUIS                                          000223N00000000000000000000000000000000000000000000000000                                                                                                                                                           00000000000000000000000000000000000000000                                                                                                                                                                                                                                                          000000                                                                                                                                                                                                                                                                                                                                                              000000        
DA000002021000000720210016247507QUENIDA ELVIRA                                    PERALTA                                                                         C00107628828              19450125001FS000000000000000000000000000000                                                  C 8 ESTE MANZ 49                                                                                                                                      02          SAN LUIS                                          000223N00000000000000000000000000000000000000000000000000                                                                                                                                                           00000000000000000000000000000000000000000                                                                                                                                                                                                                                                          000000                                                                                                                                                                                                                                                                                                                                                              000000        
DA000001803700000113650009908415ANA DIGNA                                         BELTRE                                                                          C00105183289              19301005001FC000000000000000000000000000000                                                  PRESIDENTE VASQUEZ 60                                                                                                                                 60          ENS.OZAMA                                         000223N00000000000000000000000000000000000000000000000000                                                                                                                                                           00000000000000000000000000000000000000000                                                                                                                                                                                                                                                          000000                                                                                                                                                                                                                                                                                                                                                              000000        
