ET4  101661429062012
DNC C00112438429              Agustin                                           Aquino                                  Montaño                                          000000000001450001082006        004082CHOFER                                                                                                                                                1212201231122012000001000001  1                                                                                                                                                      
DNC C00107522732              Alcides                                           Payano                                  Payano                                           000000000004300016011998        004082PRESIDENTE                                                                                                                                            1212201231122012000002000001  1                                                                                                                                                      
DNC C00109281428              Alcides Omar                                      Payano                                  Perez                                            000000000004250016011998        004082GERENTE GENERAL                                                                                                                                       1212201231122012000002000001  1                                                                                                                                                      
DNC C00106773633              Alexander                                         Terrero                                 Perez                                            000000000003500003042012        004082COTIZADOR                                                                                                                                             1212201231122012000002000001  1                                                                                                                                                      
DNC C00109405498              Alexandra                                         Berroa                                  Catalino                                         000000000001450006012010        004082ENCARGADA DE COMPRAS                                                                                                                                  1212201231122012000002000001  1                                                                                                                                                      
DNC C00102218054              Carlito                                           De Leon                                                                                  000000000001300016032009        004082TERMINADOR II                                                                                                                                         1212201231122012000001000001  1                                                                                                                                                      
DNC C00111057501              Charlene                                          Payano                                  Perez                                            000000000004200016011998        004082GERENTE ADMINISTRATIVA                                                                                                                                1212201231122012000002000001  1                                                                                                                                                      
DNC C00114697410              Cristian Hilario                                  Concepcion                              Batista                                          000000000000700001042011        004082CHOFER                                                                                                                                                1212201231122012000002000001  1                                                                                                                                                      
DNC C00102030020              Cynthia Mercedes                                  Payano                                  Perez                                            000000000004200016011998        004082GERENTE DE PRODUCCION                                                                                                                                 1212201231122012000002000001  1                                                                                                                                                      
DNC C22900132717              Domingo                                           Alvarado                                                                                 000000000000990511062012        004082AUXILIAR TALLER                                                                                                                                       1212201231122012000001000001  1                                                                                                                                                      
DNC C08400110204              Elvin                                             Valdez                                                                                   000000000001050010012012        004082MENSAJERO                                                                                                                                             1212201231122012000001000001  1                                                                                                                                                      
DNC C00117058164              Emmanuel                                          Paula                                   Gonzalez                                         000000000003750016042010        004082ENCARGADO CONTABILIDAD                                                                                                                                1212201231122012000002000001  1                                                                                                                                                      
DNC C00104364161              Gerardo Antonio                                   Rodriguez                               Lajara                                           000000000001400019122011        004082TERMINADIR II                                                                                                                                         1212201231122012000001000001  1                                                                                                                                                      
DNC C00113492599              Ivan                                              Turbi                                   Febles                                           000000000001550026052009        004082PRENSISTA II                                                                                                                                          1212201231122012000001000001  1                                                                                                                                                      
DNC C00118571363              Ivonne Gisell                                     Perez                                   Cuello                                           000000000001600016012009        004082ASISTENTE PRODUCCION                                                                                                                                  1212201231122012000002000001  1                                                                                                                                                      
DNS C00108978735              Joel                                              De Jesus                                Martinez                                         0000000000017000        15092012004082CORTADOR                                                                                                                                              1212201231122012000001000001  1                                                                                                                                                      
DNC C00116380692              Jonatan Eliezer                                   Tolentino                               Acosta                                           000000000002650005062006        004082PRENSISTA II                                                                                                                                          1212201231122012000001000001  1                                                                                                                                                      
DNC C22400367375              Jose Alberto                                      Alvarado                                Duarte                                           000000000001350025052009        004082PRENSISTA                                                                                                                                             1212201231122012000001000001  1                                                                                                                                                      
DNC C40221739648              Jovany                                            Capellan                                Martinez                                         000000000001100020092011        004082TERMINADOR I                                                                                                                                          1212201231122012000001000001  1                                                                                                                                                      
DNC C00111959664              Juan Felipe                                       Cherubin                                                                                 000000000001925002082010        004082PRENSISTA                                                                                                                                             1212201231122012000001000001  1                                                                                                                                                      
DNC C00300687985              Juan Francisco                                    Eucebio                                 Osuna                                            000000000001300016022012        004082PRENSISTA                                                                                                                                             1212201231122012000001000001  1                                                                                                                                                      
DNC C00108706011              Julissa Tamar                                     Javier                                  Tamayo                                           000000000002500009082010        004082ENCARGADA DE PRE PRENSA                                                                                                                               1212201231122012000001000001  1                                                                                                                                                      
DNC C00112241195              Julito                                            Soriano                                 Perez                                            000000000001250015082006        004082TERMINADOR II                                                                                                                                         1212201231122012000001000001  1                                                                                                                                                      
DNC C22900051024              Karina Patricia                                   Ureña                                   Ramirez                                          000000000001149502082010        004082REPRESENTANTE DE SERVICIO AL CLIENTE                                                                                                                  1212201231122012000002000001  1                                                                                                                                                      
DNC C00115587503              Kelvin Abad                                       Constanzo                               Rojas                                            000000000001100008082011        004082TERMINADOR                                                                                                                                            1212201231122012000001000001  1                                                                                                                                                      
DNC C00118497866              Kennia Julissa                                    Pimentel                                                                                 000000000001050007012008        004082CONSERJE                                                                                                                                              1212201231122012000002000001  1                                                                                                                                                      
DNC C00115999351              Liz Vanessa                                       Fajardo                                 Mejia                                            000000000001600012032012        004082AUXILIAR CUENTAS POR PAGAR                                                                                                                            1212201231122012000002000001  1                                                                                                                                                      
DNC C00118829936              Luis Eddy                                         Camilo                                  Abreu                                            000000000001300010112009        004082DISEÑADOR GRAFICO I                                                                                                                                   1212201231122012000001000001  1                                                                                                                                                      
DNC C00110108339              Luisa Kidy                                        Rosado                                  Hidalgo                                          000000000002175025012011        004082DISEÑADOR GRAFICO II                                                                                                                                  1212201231122012000002000001  1                                                                                                                                                      
DNC C00103191409              Manuel                                            Valenzuela                                                                               000000000004650010082011        004082ENCARGADO TALLER                                                                                                                                      1212201231122012000001000001  1                                                                                                                                                      
DNS C00113996284              Mario Jose                                        Sencion                                                                                  0000000000016000        19092012004082TROQUELADOR                                                                                                                                           1212201231122012000001000001  1                                                                                                                                                      
DNC C00102030509              Mercedes                                          Perez                                   Almonte                                          000000000003900010082011        004082VICEPRESIDENTA                                                                                                                                        1212201231122012000002000001  1                                                                                                                                                      
DNC C00101840742              Mirta Aracelis                                    Jimenez                                 Payano                                           000000000001520016011998        004082TERMINADORA III                                                                                                                                       1212201231122012000002000001  1                                                                                                                                                      
DNC C22900206073              Nelson                                            Alvarado                                Duarte                                           000000000001100011042011        004082TERMINADOR I                                                                                                                                          1212201231122012000001000001  1                                                                                                                                                      
DNC C00117953604              Nelson Andres                                     Tavarez                                 Cano                                             000000000001895007032005        004082PRENSISTA II                                                                                                                                          1212201231122012000001000001  1                                                                                                                                                      
DNC C00117776435              Oscar                                             Pichardo                                Lantigua                                         000000000001425031052005        004082AUXILIAR CORTE TERMINACION                                                                                                                            1212201231122012000001000001  1                                                                                                                                                      
DNC C00116888405              Ramfis                                            Vargas                                  Rodriguez                                        000000000001300009112007        004082TROQUELADOR                                                                                                                                           1212201231122012000001000001  1                                                                                                                                                      
DNC C00101867828              Ramon                                             Jimenez                                 Payano                                           000000000002000016071999        004082ENCARGADO DE ALMACEN DE DESPACHO                                                                                                                      1212201231122012000001000001  1                                                                                                                                                      
DNC C00108856634              Silvestre                                         Javier                                  Martinez                                         000000000002000013042012        004082TERMINADOR                                                                                                                                            1212201231122012000001000001  1                                                                                                                                                      
DNC C00102948056              Victor                                            Mena                                    Del Rosario                                      000000000001500008082011        004082TERMINADOR II                                                                                                                                         1212201231122012000001000001  1                                                                                                                                                      
DNS C00112047949              Willian                                           De Jesus                                Martinez                                         0000000000010500        13072007004082ENCARGADO DE COMPRAS Y DESPACHO                                                                                                                       1212201231122012000001000001  1                                                                                                                                                      
DNC C00113021414              Willian Rafael                                    Vazquez                                 Payano                                           000000000001825016011998        004082PRENSISTA II                                                                                                                                          1212201231122012000001000001  1                                                                                                                                                      
DNC C22400264952              Yessica Scarlet                                   Perez                                   Tamarez                                          000000000001600023032011        004082AUXILIAR CUENTAS POR COBRAR                                                                                                                           1212201231122012000002000001  1                                                                                                                                                      
DNC C01800185421              Yony Adolfo                                       Beltre                                  Feliz                                            000000000001050008082011        004082TERMINADOR II                                                                                                                                         1212201231122012000001000001  1                                                                                                                                                      
DNC C00115385759              Yudy Elvira                                       Cruz                                    Mambru                                           000000000002300009062008        004082ENCARGADA DISEÑO GRAFICO                                                                                                                              1212201231122012000002000001  1                                                                                                                                                      
DNI C00116901323              PATRICIO                                          BURGOS                                                                                   0000000016500.0017092012        004082CORTADOR                                                                                                                                              1212201231122012000001000001  1                                                                                                                                                      
DNI C00103350500              JULIO CESAR                                       DIAZ                                    COLLADO                                          0000000013000.0022082012        004082PRENSISTA AB DICK                                                                                                                                     1212201231122012000001000001  1                                                                                                                                                      
DNI C40220581728              LOREN STEFFANI                                    CONTRERAS                               MELO                                             0000000010500.0006082012        004082RECEPCIONISTA                                                                                                                                         1212201231122012000001000001  1                                                                                                                                                      
DNI C04701989545              YANET                                             PAULINO                                 COLLADO                                          0000000011000.0006082012        004082REPRESENTANTE DE SERVICIO AL CLIENTE                                                                                                                  1212201231122012000001000001  1                                                                                                                                                      
S000051
