EPN42
DA0000002950000006738100522633  YURIBEL                                           RODRIGUEZ                               LUGO                                    C09700052823              19690928001FS000000000000000000000000000000                                                  C/ 13 #12                                                                                                                                                                                                           000047N00000000000000000000000000000000000000000000000000                                                                                                                                                           00000000000000000000000000000000000000000                                                                                                                                                                                                                                                          000000                                                                                                                                                                                                                                                                                                                                                              000000S       
DA123456789100000650450047436667ANGEL                                             CEBALLOS                                AMARANTE                                C06100038535              19450301001MS000000000000000000000000000000                                                  C/ ESPIRUTU SANTO JABA ARRIBA # 21                                                                                                                                                                                  000054N00000000000000000000000000000000000000000000000000                                                                                                                                                           00000000000000000000000000000000000000000                                                                                                                                                                                                                                                          000000                                                                                                                                                                                                                                                                                                                                                              000000T       
DA000001594900000567570023940523MARIA HERMINIA                                    BELLO                                   BOYER                                   C01200024212              19520925001FC000000000000000000000000000000                                                  CESAR DALGAN # 4 EDF. ERIKA IV APTO. 105B                                                                                                                                                                           000001N00000000000000000000000000000000000000000000000000                                                                                                                                                           00000000000000000000000000000000000000000                                                                                                                                                                                                                                                          000000                                                                                                                                                                                                                                                                                                                                                              000000T       
DA000001394600000340250042851243PAULA ANTONIA                                     GOMEZ                                   DE VIDAL                                C05400041801              19290126001FC000000000000000000000000000000                                                  C/ JOSE CONTRERAS #18                                                                                                                                                                                               000054N00000000000000000000000000000000000000000000000000                                                                                                                                                           00000000000000000000000000000000000000000                                                                                                                                                                                                                                                          000000                                                                                                                                                                                                                                                                                                                                                              000000T       
DA000000892400000600020026454521ANDRES                                            REYES                                   PIMENTEL                                C02700019108              19441130001MC000000000000000000000000000000                                                  C/ PROYECTO GENAO # 13                                                                                                                                                                                              000027N00000000000000000000000000000000000000000000000000                                                                                                                                                           00000000000000000000000000000000000000000                                                                                                                                                                                                                                                          000000                                                                                                                                                                                                                                                                                                                                                              000000S       
DA000001663500000510410001236540FIDELINA                                          LETA                                    CRISOSTOMO                              C00103347142              19460616001FS000000000000000000000000000000                                                  C/ J  #20                                                                                                                                                                                                           000001N00000000000000000000000000000000000000000000000000                                                                                                                                                           00000000000000000000000000000000000000000                                                                                                                                                                                                                                                          000000                                                                                                                                                                                                                                                                                                                                                              000000        
DA000000583400000342060044995228BRUNILDA MERCEDES                                 LORA                                    GUZMAN DE PICHA                         C05400140397              19470410001FS000000000000000000000000000000                                                  C/CLUB ROTARIO #25                                                                                                                                                                                                  000054N00000000000000000000000000000000000000000000000000                                                                                                                                                           00000000000000000000000000000000000000000                                                                                                                                                                                                                                                          000000                                                                                                                                                                                                                                                                                                                                                              000000        
DA000001617200000236780024038086ALEJO                                             BERIGUETE                               BERIGUEITE                              C01400033294              19340718001MC000000000000000000000000000000                                                  LA GUAMA                                                                                                                                                                                                            000014N00000000000000000000000000000000000000000000000000                                                                                                                                                           00000000000000000000000000000000000000000                                                                                                                                                                                                                                                          000000                                                                                                                                                                                                                                                                                                                                                              000000        
DA000000572300000545030002800954ANA MIRIAM                                        VALDEZ                                  MIRANDA                                 C00108405960              19510428001FC000000000000000000000000000000                                                  C/EDIF.22 APT.12 URB. EUGENIO 1RA                                                                                                                                                                                   000001N00000000000000000000000000000000000000000000000000                                                                                                                                                           00000000000000000000000000000000000000000                                                                                                                                                                                                                                                          000000                                                                                                                                                                                                                                                                                                                                                              000000        
DA000001663100000655740049699781RAMON                                             ABREU                                   ALMONTE                                 C07100137442              19460915001MS000000000000000000000000000000                                                  PRICIPAL LOS GENGIBRES#98                                                                                                                                                                                           000071N00000000000000000000000000000000000000000000000000                                                                                                                                                           00000000000000000000000000000000000000000                                                                                                                                                                                                                                                          000000                                                                                                                                                                                                                                                                                                                                                              000000        
DA000001359100000650650047179197NEREIDA                                           JOLIN                                   LANTIGUA                                C06100122859              19540726001FC000000000000000000000000000000                                                  C/ MANOLO TAVAREZ JUSTO                                                                                                                                                                                             000061N00000000000000000000000000000000000000000000000000                                                                                                                                                           00000000000000000000000000000000000000000                                                                                                                                                                                                                                                          000000                                                                                                                                                                                                                                                                                                                                                              000000        
DA000000563800000629350034613033NATIVIDAD                                         CRUZ                                    PARRA                                   C03900046586              19411225001FC000000000000000000000000000000                                                  C/ PALMAR GRANDE # 80                                                                                                                                                                                               000039N00000000000000000000000000000000000000000000000000                                                                                                                                                           00000000000000000000000000000000000000000                                                                                                                                                                                                                                                          000000                                                                                                                                                                                                                                                                                                                                                              000000        
DA000000147000000614320030069986ANA MERCEDES                                      ALMONTE                                 MINAYA                                  C03101390361              19450906001FS000000000000000000000000000000                                                  PRINCIPAL # S/N                                                                                                                                                                                                     000031N00000000000000000000000000000000000000000000000000                                                                                                                                                           00000000000000000000000000000000000000000                                                                                                                                                                                                                                                          000000                                                                                                                                                                                                                                                                                                                                                              000000        
DA000001308400000145660010657064LUCILA                                            PE헤                                    LOPEZ                                   C00107304727              19420628001FC000000000000000000000000000000                                                  C/ EZEQUIEL GALLARDO #26                                                                                                                                                                                            000038N00000000000000000000000000000000000000000000000000                                                                                                                                                           00000000000000000000000000000000000000000                                                                                                                                                                                                                                                          000000                                                                                                                                                                                                                                                                                                                                                              000000        
DA000000373800000238770021893686MELIDA                                            MENDEZ                                  RAMIREZ                                 C01700011784              19391014001FS000000000000000000000000000000                                                  CLUB CAMINO AL PORVENIR                                                                                                                                                                                             000010N00000000000000000000000000000000000000000000000000                                                                                                                                                           00000000000000000000000000000000000000000                                                                                                                                                                                                                                                          000000                                                                                                                                                                                                                                                                                                                                                              000000        
DA000001470100000090940008141570ANTONIA MILEDYS                                   CABRERA                                 REYNOSO                                 C00103697769              19521119001FC000000000000000000000000000000                                                  C/MANZ.12 #14                                                                                                                                                                                                       000223N00000000000000000000000000000000000000000000000000                                                                                                                                                           00000000000000000000000000000000000000000                                                                                                                                                                                                                                                          000000                                                                                                                                                                                                                                                                                                                                                              000000        
DA000000744600000515880001426140CELESTE                                           BORGES                                  PEREZ                                   C00104297130              19471218001FS000000000000000000000000000000                                                  C/ RESP. 38 #78 ALTO                                                                                                                                                                                                000001N00000000000000000000000000000000000000000000000000                                                                                                                                                           00000000000000000000000000000000000000000                                                                                                                                                                                                                                                          000000                                                                                                                                                                                                                                                                                                                                                              000000        
DA000000109400000629840032756237AMADO                                             VILLAMAN                                ALMONTE                                 C04000004673              19570627001MC000000000000000000000000000000                                                  C/ DUARTE # 63                                                                                                                                                                                                      000040N00000000000000000000000000000000000000000000000000                                                                                                                                                           00000000000000000000000000000000000000000                                                                                                                                                                                                                                                          000000                                                                                                                                                                                                                                                                                                                                                              000000        
DA000000566700000615540037131045CARMEN RAMONA                                     SIRI                                    RAMOS                                   C03101561862              19410511001FS000000000000000000000000000000                                                  CALLEJON DE LOS RAMOS #321                                                                                                                                                                                          000031N00000000000000000000000000000000000000000000000000                                                                                                                                                           00000000000000000000000000000000000000000                                                                                                                                                                                                                                                          000000                                                                                                                                                                                                                                                                                                                                                              000000        
DA000000561200000556860020217513ALTAGRACIA LEDYS                                  PUELLO                                  NINA                                    C00200077493              19340721001FU000000000000000000000000000000                                                  SAN CRISTOBAL                                                                                                                                                                                                       000002N00000000000000000000000000000000000000000000000000                                                                                                                                                           00000000000000000000000000000000000000000                                                                                                                                                                                                                                                          000000                                                                                                                                                                                                                                                                                                                                                              000000        
DA000001650400000518790005600947ANA BIENVENIDA                                    MATOS                                   DE TORRES                               C00104815519              19591215001FC000000000000000000000000000000                                                  C/PEDRO HENRIQUEZ URE헤 #9                                                                                                                                                                                          000225N00000000000000000000000000000000000000000000000000                                                                                                                                                           00000000000000000000000000000000000000000                                                                                                                                                                                                                                                          000000                                                                                                                                                                                                                                                                                                                                                              000000        
DA000000252800000353770043206928ALBA ROSA                                         URE헤                                   REYES                                   C05600747777              19400927001FS000000000000000000000000000000                                                  C/ 4, EDIF. 61, APTO. 302                                                                                                                                                                                           000056N00000000000000000000000000000000000000000000000000                                                                                                                                                           00000000000000000000000000000000000000000                                                                                                                                                                                                                                                          000000                                                                                                                                                                                                                                                                                                                                                              000000        
DA000001589100000132960006755580ALICIA ALTAGRACIA                                 GONZALEZ                                                                        C00106369630              19490214001FC000000000000000000000000000000                                                  PROL FELIPE ALFAU NO. 9                                                                                                                                                                                             000001N00000000000000000000000000000000000000000000000000                                                                                                                                                           00000000000000000000000000000000000000000                                                                                                                                                                                                                                                          000000                                                                                                                                                                                                                                                                                                                                                              000000        
DA000000783700000498340008619893LIDIA                                             PE헤                                    DE LUNA                                 C00101664704              19380310001FC000000000000000000000000000000                                                  BIBLIOTECA NACIONAL #101                                                                                                                                                                                            000001N00000000000000000000000000000000000000000000000000                                                                                                                                                           00000000000000000000000000000000000000000                                                                                                                                                                                                                                                          000000                                                                                                                                                                                                                                                                                                                                                              000000        
DA000000589400000226670019081967PEDRO                                             CONCEPCION                                                                      C01000163103              19380513001MS000000000000000000000000000000                                                  C/NICOLAS CICONE #7                                                                                                                                                                                                 000010N00000000000000000000000000000000000000000000000000                                                                                                                                                           00000000000000000000000000000000000000000                                                                                                                                                                                                                                                          000000                                                                                                                                                                                                                                                                                                                                                              000000        
DA000001567300000344110042852774LIDIA DE JESUS                                    MOLINA                                  JOAQUIN DE HDEZ                         C05400567078              19431126001FC000000000000000000000000000000                                                  C/PEDRO A. REYES #5                                                                                                                                                                                                 000054N00000000000000000000000000000000000000000000000000                                                                                                                                                           00000000000000000000000000000000000000000                                                                                                                                                                                                                                                          000000                                                                                                                                                                                                                                                                                                                                                              000000        
DA000001589500000343740043104860JUAN BOLIVAR DE JESUS                             GRULLON                                 GRULLON                                 C05400496609              19241023001MC000000000000000000000000000000                                                  C/ORTEGA MOCA                                                                                                                                                                                                       000054N00000000000000000000000000000000000000000000000000                                                                                                                                                           00000000000000000000000000000000000000000                                                                                                                                                                                                                                                          000000                                                                                                                                                                                                                                                                                                                                                              000000        
DA000001654300000204130020454346SECUNDINO                                         MERAN                                   DE LOS SANTOS                           C00200020733              19370302001MC000000000000000000000000000000                                                  C/FCO. PRADEL #03                                                                                                                                                                                                   000002N00000000000000000000000000000000000000000000000000                                                                                                                                                           00000000000000000000000000000000000000000                                                                                                                                                                                                                                                          000000                                                                                                                                                                                                                                                                                                                                                              000000        
DA000000207200000302790035641045LUCRECIA ALTAGRACIA                               GONZALEZ                                ESPINAL                                 C03400006643              19410529001FS000000000000000000000000000000                                                  C/ ESTANISLAO REYES #60                                                                                                                                                                                             000034N00000000000000000000000000000000000000000000000000                                                                                                                                                           00000000000000000000000000000000000000000                                                                                                                                                                                                                                                          000000                                                                                                                                                                                                                                                                                                                                                              000000        
DA000000578300000262210026996957ANDRES                                            GONZALEZ                                RAMOS                                   C02300783525              19501110001MC000000000000000000000000000000                                                  JOSE MARTI #25                                                                                                                                                                                                      000096N00000000000000000000000000000000000000000000000000                                                                                                                                                           00000000000000000000000000000000000000000                                                                                                                                                                                                                                                          000000                                                                                                                                                                                                                                                                                                                                                              000000        
DA000001601500000321630041667314RAMONA                                            ANGELES                                                                         C04700065040              19380826001FS000000000000000000000000000000                                                  4 #3                                                                                                                                                                                                                000047N00000000000000000000000000000000000000000000000000                                                                                                                                                           00000000000000000000000000000000000000000                                                                                                                                                                                                                                                          000000                                                                                                                                                                                                                                                                                                                                                              000000        
DA000001632700000570710023826053CONCEPCION                                        ROMERO                                  ROMERO                                  C01400020820              19361208001FS000000000000000000000000000000                                                  C/ OSCAR EMILIO D OLEO #12                                                                                                                                                                                          000014N00000000000000000000000000000000000000000000000000                                                                                                                                                           00000000000000000000000000000000000000000                                                                                                                                                                                                                                                          000000                                                                                                                                                                                                                                                                                                                                                              000000        
DA000001311200000323120037727337ESTENIA GUILLERMINA                               RAMIREZ                                 NAVARRO                                 C04700155338              19480606001FC000000000000000000000000000000                                                  C/LAS ROSAS #11                                                                                                                                                                                                     000047N00000000000000000000000000000000000000000000000000                                                                                                                                                           00000000000000000000000000000000000000000                                                                                                                                                                                                                                                          000000                                                                                                                                                                                                                                                                                                                                                              000000        
DA000001206000000358930047463805DIANA MERCEDES                                    CRISTOPHE                               SOSA                                    C06100081980              19460224001FU000000000000000000000000000000                                                  LAS CANAS #387                                                                                                                                                                                                      000061N00000000000000000000000000000000000000000000000000                                                                                                                                                           00000000000000000000000000000000000000000                                                                                                                                                                                                                                                          000000                                                                                                                                                                                                                                                                                                                                                              000000        
DA000001628300000635040038325837GLORIA CESARINA AUGUSTA ALT.                      SANCHEZ                                 ABREU DE JIMENEZ                        C04700234968              19390205001FC000000000000000000000000000000                                                  APTO. 117, VILLA FRESA ,  III, #13                                                                                                                                                                                  000047N00000000000000000000000000000000000000000000000000                                                                                                                                                           00000000000000000000000000000000000000000                                                                                                                                                                                                                                                          000000                                                                                                                                                                                                                                                                                                                                                              000000        
DA000000712100000645420043260846FRANCISCO ANTONIO                                 BEATO                                   GARCIA                                  C05500161087              19511220001MC000000000000000000000000000000                                                  C/ PADRE BILLINI #18                                                                                                                                                                                                000055N00000000000000000000000000000000000000000000000000                                                                                                                                                           00000000000000000000000000000000000000000                                                                                                                                                                                                                                                          000000                                                                                                                                                                                                                                                                                                                                                              000000        
DA000001326800000621080031102510YOLANDA MERCEDES                                  TORRES                                  DE RODRIGUEZ                            C03102240003              19480912001FS000000000000000000000000000000                                                  AV. YAPOURT DUMIT EDF. 100-#102                                                                                                                                                                                     000031N00000000000000000000000000000000000000000000000000                                                                                                                                                           00000000000000000000000000000000000000000                                                                                                                                                                                                                                                          000000                                                                                                                                                                                                                                                                                                                                                              000000        
DA000001242300000677320053336160RAMONA DEL CARMEN                                 CHALAS                                  DIAZ DE PE헤                            C10400105549              19580831001FC000000000000000000000000000000                                                  C/ PRINCIPAL #12                                                                                                                                                                                                    000104N00000000000000000000000000000000000000000000000000                                                                                                                                                           00000000000000000000000000000000000000000                                                                                                                                                                                                                                                          000000                                                                                                                                                                                                                                                                                                                                                              000000        
DA000000551700000220750018012875ELADIO                                            BRITO                                   REYES                                   C00500006846              19470218001MC000000000000000000000000000000                                                  C/ MARIA MATIDE ESTEVEZ #1 17                                                                                                                                                                                       000005N00000000000000000000000000000000000000000000000000                                                                                                                                                           00000000000000000000000000000000000000000                                                                                                                                                                                                                                                          000000                                                                                                                                                                                                                                                                                                                                                              000000        
DA000000753300000592010029877477YNES                                              SALAZAR                                 ORTEGA                                  C02500270273              19520420001FS000000000000000000000000000000                                                  MANOLO TAVAREZ JUSTO # 97                                                                                                                                                                                           000061N00000000000000000000000000000000000000000000000000                                                                                                                                                           00000000000000000000000000000000000000000                                                                                                                                                                                                                                                          000000                                                                                                                                                                                                                                                                                                                                                              000000        
DA000001524000000651110047491555MARIA TERESA                                      MARTINEZ                                DE TEJADA                               C06400116197              19450529001FS000000000000000000000000000000                                                  ANIBAL GARCIA #69                                                                                                                                                                                                   000064N00000000000000000000000000000000000000000000000000                                                                                                                                                           00000000000000000000000000000000000000000                                                                                                                                                                                                                                                          000000                                                                                                                                                                                                                                                                                                                                                              000000        
DA000001541400000623920036886263ROSA LIGIA                                        RODRIGUEZ                               RIVERA                                  C03600024958              19520324001FU000000000000000000000000000000                                                  EL HOYITO                                                                                                                                                                                                           000036N00000000000000000000000000000000000000000000000000                                                                                                                                                           00000000000000000000000000000000000000000                                                                                                                                                                                                                                                          000000                                                                                                                                                                                                                                                                                                                                                              000000        
DA000000447900000564480019309144LEILA                                             ROJAS                                   SOSA                                    C00800036774              19421014001FS000000000000000000000000000000                                                  C/ LUIS ARTURO ROJAS #31                                                                                                                                                                                            000008N00000000000000000000000000000000000000000000000000                                                                                                                                                           00000000000000000000000000000000000000000                                                                                                                                                                                                                                                          000000                                                                                                                                                                                                                                                                                                                                                              000000        
DA000000017300000579970025710346CARMEN MARGARITA                                  SANTANA                                                                         C02200016398              19380207001FU000000000000000000000000000000                                                  CAMBRONAL#28                                                                                                                                                                                                        000022N00000000000000000000000000000000000000000000000000                                                                                                                                                           00000000000000000000000000000000000000000                                                                                                                                                                                                                                                          000000                                                                                                                                                                                                                                                                                                                                                              000000        
S000046