EPN 2
DA000003224700000589050028144274CARMITO                                           ROMERO                                  DE LA CRUZ                              C000000000000000000000000019120606001MS809798657300000000000000000000                                                  LA LUISA                                                                                                                                              16          GAUTIER                                           000278N00000000000000000000000000000000000000000000000000                                                                                                                                  C00000000000000000000000000000000000000000000000000000000000000000                                                                                                                                                                                                                                                          000000                                                                                                                                                                                                                                                                                                                                                              000000  002   
DA000003336200000135990008926940GEORGE BOLIVAR                                    MARCHANT                                BAKER                                   C000000000000000000000000019340911001MS809529681900000000000000000000                                                  3RA                                                                                                                                                   04                                                            000019N00000000000000000000000000000000000000000000000000                                                                                                                                  C00000000000000000000000000000000000000000000000000000000000000000                                                                                                                                                                                                                                                          000000                                                                                                                                                                                                                                                                                                                                                              000000  002   
DA000003337400000851020026768848JUAN                                              CASTRO                                                                          C000000000000000000000000019420404001MS000000000000000000000000000000                                                  PRINCIPAL #31                                                                                                                                                                                                       000278N00000000000000000000000000000000000000000000000000                                                                                                                                  C00000000000000000000000000000000000000000000000000000000000000000                                                                                                                                                                                                                                                          000000                                                                                                                                                                                                                                                                                                                                                              000000  002   
DA000003336500000804270008687373ODULIO                                            BATISTA                                 ACEVEDO                                 C000000000000000000000000019350605001MS809488996500000000000000000000                                                  EL SEGURO #18 piso 00                                                                                                                                                                                               000278N00000000000000000000000000000000000000000000000000                                                                                                                                  C00000000000000000000000000000000000000000000000000000000000000000                                                                                                                                                                                                                                                          000000                                                                                                                                                                                                                                                                                                                                                              000000  002   
DA000002859400000818460006784500JOSE ALTAGRACIA                                   DE LA CRUZ                              DEL ROSARIO                             C000000000000000000000000019450423001MS809264533400000000000000000000                                                  G #12                                                                                                                                                                                                               000278N00000000000000000000000000000000000000000000000000                                                                                                                                  C00000000000000000000000000000000000000000000000000000000000000000                                                                                                                                                                                                                                                          000000                                                                                                                                                                                                                                                                                                                                                              000000  002   
DA000003224900000453350025791942MARIANO                                           DANIEL                                                                          C000000000000000000000000019400918001MS829418352400000000000000000000                                                  PRINCIPAL #86                                                                                                                                                                                                       000278N00000000000000000000000000000000000000000000000000                                                                                                                                  C00000000000000000000000000000000000000000000000000000000000000000                                                                                                                                                                                                                                                          000000                                                                                                                                                                                                                                                                                                                                                              000000  002   
DA000003336100000812830009374470MANUEL                                            ENCARNACION                                                                     C000000000000000000000000019420919001MC809956421700000000000000000000                                                  MANZ. F edif. 4 apto. 2-A                                                                                                                                                                                           000278N00000000000000000000000000000000000000000000000000SONIA                                             REYES                                   GOMERA                                  C00000000000000230011642900000000001000000000000000000000000000000                                                                                                                                                                                                                                                          000278                                                                                                                                                                                                                                                                                                                                                              000000  002   
DA000002044700000848270029643055LUIS FERMIN                                       CASTILLO                                                                        C000000000000000000000000019421118001MC829982370400000000000000000000                                                  CALLE/  J #L                                                                                                                                                                                                        000278N00000000000000000000000000000000000000000000000000NANCIA                                            QUEZADA                                 DE JESUS                                C00000000000000010661036300000000001000000000000000000000000000000                                                                                                                                                                                                                                                          000278                                                                                                                                                                                                                                                                                                                                                              000000  002   
DA000002044800001029460025791972NICOLAS                                           OZUNA                                                                           C000000000000000000000000019290127001MS829802537200000000000000000000                                                  PRINCIPAL #15                                                                                                                                                                                                       000089N00000000000000000000000000000000000000000000000000                                                                                                                                  C00000000000000000000000000000000000000000000000000000000000000000                                                                                                                                                                                                                                                          000000                                                                                                                                                                                                                                                                                                                                                              000000  002   
DA000002044600001030430026770447LORENA                                            MENA                                    CONCEPCION                              C000000000000000000000000019251203001FS809429532500000000000000000000                                                  PRINCIPAL #3546                                                                                                                                                                                                     000263N00000000000000000000000000000000000000000000000000                                                                                                                                  C00000000000000000000000000000000000000000000000000000000000000000                                                                                                                                                                                                                                                          000000                                                                                                                                                                                                                                                                                                                                                              000000  002   
DA000002044900000136330001452410EUGENIO                                           CALZADO                                                                         C000000000000000000000000019271115001MC809523503300000000000000000000                                                  R #6                                                                                                                                                                                                                000278N00000000000000000000000000000000000000000000000000ANTONIA                                           CASTRO                                  DE CALSADO                              C00000000000000010666316400000000001000000000000000000000000000000                                                                                                                                                                                                                                                          000278                                                                                                                                                                                                                                                                                                                                                              000000  002   
DA000003226400000997790010979102FEDERICO ANTONIO                                  RODRIGUEZ                                                                       C000000000000000000000000019340518001MS809388499000000000000000000000                                                  26 DE FEBRERO #31 piso 00                                                                                                                                                                                           000278N00000000000000000000000000000000000000000000000000                                                                                                                                  C00000000000000000000000000000000000000000000000000000000000000000                                                                                                                                                                                                                                                          000000                                                                                                                                                                                                                                                                                                                                                              000000  002   
DA000002858500000792920009633801HECTOR LUIS                                       RODRIGUEZ                               Y MIESES                                C000000000000000000000000019270110001MS809435023400000000000000000000                                                  ALTAGRACIA/ FAUSTO CRUZ #07 piso 00                                                                                                                                                                                 000278N00000000000000000000000000000000000000000000000000                                                                                                                                  C00000000000000000000000000000000000000000000000000000000000000000                                                                                                                                                                                                                                                          000000                                                                                                                                                                                                                                                                                                                                                              000000  002   
DA000003228800001030420026118863AMANCIO                                           GARCIA                                  CELEDONIO                               C000000000000000000000000019340823001MS000000000000000000000000000000                                                  ERNITA EL BLANCO #226                                                                                                                                                                                               000263N00000000000000000000000000000000000000000000000000                                                                                                                                  C00000000000000000000000000000000000000000000000000000000000000000                                                                                                                                                                                                                                                          000000                                                                                                                                                                                                                                                                                                                                                              000000  002   
DA000003230000001029320028031860LORENZO                                           SANTANA                                 ZAPATA                                  C000000000000000000000000019120805001MS000000000000000000000000000000                                                  PRINCIPAL #10                                                                                                                                                                                                       000089N00000000000000000000000000000000000000000000000000                                                                                                                                  C00000000000000000000000000000000000000000000000000000000000000000                                                                                                                                                                                                                                                          000000                                                                                                                                                                                                                                                                                                                                                              000000  002   
DA000003336300001004860007880542NELSON                                            ALFONSECA                               NABO                                    C000000000000000000000000019430128001MS809523679900000000000000000000                                                  B #6                                                                                                                                                                                                                000278N00000000000000000000000000000000000000000000000000                                                                                                                                  C00000000000000000000000000000000000000000000000000000000000000000                                                                                                                                                                                                                                                          000000                                                                                                                                                                                                                                                                                                                                                              000000  002   
DA000003336400000136310016416663AMADO FELIPE                                      PEREZ                                   CASTRO                                  C000000000000000000000000019360306001MS000000000000000000000000000000                                                  F #112                                                                                                                                                                                                              000278N00000000000000000000000000000000000000000000000000                                                                                                                                  C00000000000000000000000000000000000000000000000000000000000000000                                                                                                                                                                                                                                                          000000                                                                                                                                                                                                                                                                                                                                                              000000  002   
DA000003336600000422530012112578VICENTE                                           VENTURA                                 SEVERINO                                C000000000000000000000000019310304001MC809523953000000000000000000000                                                  D #11                                                                                                                                                                                                               000278N00000000000000000000000000000000000000000000000000FELICIA                                           JULIAN                                  DE VENTURA                              C00000000000000010660021600000000001000000000000000000000000000000                                                                                                                                                                                                                                                          000278                                                                                                                                                                                                                                                                                                                                                              000000  002   
DA000003232700000818080008930228JUAN                                              SORIANO                                 SABINO                                  C000000000000000000000000019331123001MC809774184000000000000000000000                                                  PORVENIR #15                                                                                                                                                                                                        000278N00000000000000000000000000000000000000000000000000GLADYS                                            CONTRERAS                                                                       C00000000000000000000000000000000001000000000000000000000000000000                                                                                                                                                                                                                                                          000278                                                                                                                                                                                                                                                                                                                                                              000000  002   
DA000003336700000818660012121437GUILLERMO                                         OZUNA                                                                           C000000000000000000000000019390625001MS000000000000000000000000000000                                                  K #8                                                                                                                                                                                                                000278N00000000000000000000000000000000000000000000000000                                                                                                                                  C00000000000000000000000000000000000000000000000000000000000000000                                                                                                                                                                                                                                                          000000                                                                                                                                                                                                                                                                                                                                                              000000  002   
DA000003336800000589060025487248CELIO                                             SANCHEZ                                 VASQUEZ                                 C000000000000000000000000019381215001MS000000000000000000000000000000                                                  CALLE 2DA                                                                                                                                             76                                                            000278N00000000000000000000000000000000000000000000000000                                                                                                                                  C00000000000000000000000000000000000000000000000000000000000000000                                                                                                                                                                                                                                                          000000                                                                                                                                                                                                                                                                                                                                                              000000  002   
DA000003336900000587290027705241TOMAS                                             CASTRO                                  SANTANA                                 C000000000000000000000000019330206001MS000000000000000000000000000000                                                  F #13 #49                                                                                                                                                                                                           000089N00000000000000000000000000000000000000000000000000                                                                                                                                  C00000000000000000000000000000000000000000000000000000000000000000                                                                                                                                                                                                                                                          000000                                                                                                                                                                                                                                                                                                                                                              000000  002   
DA000003895600000788550053280346EMETERIA                                          MARTINEZ                                EMETERIO                                C000000000000000000000000019610416001FU809798644100000000000000000000                                                  SABANA DE LOS D.                                                                                                                                                                                                    000002N00000000000000000000000000000000000000000000000000ANDRES                                            ALCANTARA                               DE LA ROSA                              C00000000000001040007310119600204001000000000000000000000000000000                                                                                                                                                                                                                                                          000000                                                                                                                                                                                                                                                                                                                                                              000000  002   
DA000003895200000516340013898836DOMINGO                                           PASCUAL                                                                         C000000000000000000000000019300704001MS809593253500000000000000000000                                                  EUGENIO M. HOSTOS                                                                                                                                     18          LOS MINA                                          000001N00000000000000000000000000000000000000000000000000HIPOLITA                                          CASTAÑO                                 MALA                                    C00000000000000011359665419491105001000000000000000000000000000000                                                                                                                                                                                                                                                          000000                                                                                                                                                                                                                                                                                                                                                              000000  002   
DA000003337200000169050004754868ANGEL DARIO                                       ROSARIO                                 NOVA                                    C000000000000000000000000019460315001MC809523413800000000000000000000                                                  R #21                                                                                                                                                                                                               000278N00000000000000000000000000000000000000000000000000CLAUDIA                                           GUZMAN                                  ROSARIO                                 C00000000000000000000000000000000001000000000000000000000000000000                                                                                                                                                                                                                                                          000278                                                                                                                                                                                                                                                                                                                                                              000000  002   
DA000003895700000415880011980192MANUEL                                            GERMAN                                                                          C000000000000000000000000019340101001MC809590376000000000000000000000                                                  AV. LOS RESTAURADORES                                                                                                                                 55          SABANA PERDIDA                                    000202N00000000000000000000000000000000000000000000000000BEATRIZ                                           VALDEMORA                               PORTALATIN                              C00000000000000010468267019380118001000000000000000000000000000000                                                                                                                                                                                                                                                          000000                                                                                                                                                                                                                                                                                                                                                              000000  002   
DA000003337500000135710000407775RODOLFO                                           HERRERA                                                                         C000000000000000000000000019400501001MC829866187000000000000000000000                                                  SALOME UREQA #53                                                                                                                                                                                                    000278N00000000000000000000000000000000000000000000000000PILAR                                             PAREDEZ                                 OZUNA                                   C00000000000000000000000000000000001000000000000000000000000000000                                                                                                                                                                                                                                                          000278                                                                                                                                                                                                                                                                                                                                                              000000  002   
DA000003337600000135750005725946DOMINGO                                           MATEO                                                                           C000000000000000000000000019291024001MS000000000000000000000000000000                                                  P #21                                                                                                                                                                                                               000278N00000000000000000000000000000000000000000000000000                                                                                                                                  C00000000000000000000000000000000000000000000000000000000000000000                                                                                                                                                                                                                                                          000000                                                                                                                                                                                                                                                                                                                                                              000000  002   
DA000003337700000829050002066288MANUEL                                            CASIMIR                                                                         C000000000000000000000000019340112001MS809842121400000000000000000000                                                  SAN MIGUEL #46                                                                                                                                                                                                      000278N00000000000000000000000000000000000000000000000000                                                                                                                                  C00000000000000000000000000000000000000000000000000000000000000000                                                                                                                                                                                                                                                          000000                                                                                                                                                                                                                                                                                                                                                              000000  002   
DA000003894900000791790007916455RAFAEL DE LOS REYES                               NAVARRO                                 VALDEZ                                  C000000000000000000000000019350106001MS829879017500000000000000000000                                                  JOSE GABRIEL G.                                                                                                                                       132                                                           000001N00000000000000000000000000000000000000000000000000                                                                                                                                  C00000000000000000000000000000000000000000000000000000000000000000                                                                                                                                                                                                                                                          000000                                                                                                                                                                                                                                                                                                                                                              000000  002   
DA000003337800001003140007851001BENITO                                            MARTE                                   GARCIA                                  C000000000000000000000000019360803001MS000000000000000000000000000000                                                  1RA. VILLA DUARTE #78                                                                                                                                                                                               000278N00000000000000000000000000000000000000000000000000                                                                                                                                  C00000000000000000000000000000000000000000000000000000000000000000                                                                                                                                                                                                                                                          000000                                                                                                                                                                                                                                                                                                                                                              000000  002   
DA000003259100000700570010394870ROBERTO ARTURO                                    ROSARIO                                 REYNOSO                                 C000000000000000000000000019390627001MS809538614200000000000000000000                                                  YOLANDA  GUZMAN                                                                                                                                       195         VILLA MARIA                                       000001N00000000000000000000000000000000000000000000000000                                                                                                                                  C00000000000000000000000000000000000000000000000000000000000000000                                                                                                                                                                                                                                                          000000                                                                                                                                                                                                                                                                                                                                                              000000  002   
DA000003337900000588800027716740ANTONIO                                           VENTURA                                                                         C000000000000000000000000019360227001MS000000000000000000000000000000                                                  GAUTIER                                                                                                                                                                                                             000278N00000000000000000000000000000000000000000000000000                                                                                                                                  C00000000000000000000000000000000000000000000000000000000000000000                                                                                                                                                                                                                                                          000000                                                                                                                                                                                                                                                                                                                                                              000000  002   
DA000003259200000418620004874396JULIO CESAR                                       MERCEDES                                MOTA                                    C000000000000000000000000019580926001MU809592374400000000000000000000                                                  CARRET, DE MANDINGA                                                                                                                                   279         VILLA FARO                                        000001N00000000000000000000000000000000000000000000000000ONILFA                                            SILBESTRE                               BREA                                    C00000000000000010536473100000000000000000000000000000000000000000                                                                                                                                                                                                                                                          000000                                                                                                                                                                                                                                                                                                                                                              000000  002   
DA000003338000000716490016214300GUILLERMO                                         ARIAS                                   TEJEDA                                  C000000000000000000000000019420607001MS829260757500000000000000000000                                                  C/ DUARTE #76                                                                                                                                                                                                       000278N00000000000000000000000000000000000000000000000000                                                                                                                                  C00000000000000000000000000000000000000000000000000000000000000000                                                                                                                                                                                                                                                          000000                                                                                                                                                                                                                                                                                                                                                              000000  002   
DA000003338100001219970025484130SIMEON                                            LAUCEL                                                                          C000000000000000000000000019530324001MS809760926800000000000000000000                                                  DUARTE #2161, GAUTIER                                                                                                                                                                                               000278N00000000000000000000000000000000000000000000000000                                                                                                                                  C00000000000000000000000000000000000000000000000000000000000000000                                                                                                                                                                                                                                                          000000                                                                                                                                                                                                                                                                                                                                                              000000  002   
DA000003338200000422920007881542DOMINGO                                           REYES                                   CONSORO                                 C000000000000000000000000019461225001MS809549819100000000000000000000                                                  BRISAS CAUSEDO #3                                                                                                                                                                                                   000278N00000000000000000000000000000000000000000000000000                                                                                                                                  C00000000000000000000000000000000000000000000000000000000000000000                                                                                                                                                                                                                                                          000000                                                                                                                                                                                                                                                                                                                                                              000000  002   
DA000003895800000797240001123713RAFAEL                                            MARTINEZ                                DURAN                                   C000000000000000000000000019360617001MU809363150380936316720000000000                                                  RAFAEL AUGUSTO SANCHEZ                                                                                                                                08          QUISQUELLA                                        000001N00000000000000000000000000000000000000000000000000ANA ROMONA                                        PASCASIO                                                                        C00000000000000010165685819390501001000000000000000000000000000000                                                                                                                                                                                                                                                          000000                                                                                                                                                                                                                                                                                                                                                              000000  002   
DA000003259400000169250013311960ARCADIO                                           DIAZ                                    SEGURA                                  C000000000000000000000000019400105001MU809684339000000000000000000000                                                  31-A #28                                                                                                                                              28                                                            000001N00000000000000000000000000000000000000000000000000ROSA RAMONA                                       SANTANA RODRIGUEZ                       DE DIAZ                                 C00000000000000010366750119420830001000000000000000000000000000000                                                                                                                                                                                                                                                          000000                                                                                                                                                                                                                                                                                                                                                              000000  002   
DA000003338300001220650013192042MANUEL ORLANDO                                    ORLANDO                                 JIMENEZ                                 C000000000000000000000000019430408001MS809523489100000000000000000000                                                  C/LAS AMERICAS # 28 - A, ANDRES BOCA CHICA REP.DOM.                                                                                                                                                                 000278N00000000000000000000000000000000000000000000000000                                                                                                                                  C00000000000000000000000000000000000000000000000000000000000000000                                                                                                                                                                                                                                                          000000                                                                                                                                                                                                                                                                                                                                                              000000  002   
DA000003338400000851040027716146SALOMON                                           MOJICA                                  DE JESUS                                C000000000000000000000000019430330001MS809469425000000000000000000000                                                  35 #53                                                                                                                                                                                                              000278N00000000000000000000000000000000000000000000000000                                                                                                                                  C00000000000000000000000000000000000000000000000000000000000000000                                                                                                                                                                                                                                                          000000                                                                                                                                                                                                                                                                                                                                                              000000  002   
DA000003894600000998760009367551ARCADIO                                           HENRIQUEZ                               MAMBRU                                  C000000000000000000000000019400420001MC809598300300000000000000000000                                                  JULIO CESAR LINVAL(ATRAS)                                                                                                                             38          ALMA ROSA                                         000001N00000000000000000000000000000000000000000000000000ANGELA MARIA                                      AQUINO MOYA                             DE HENRIQUEZ                            C00000000000000010534534219430330001000000000000000000000000000000                                                                                                                                                                                                                                                          000000                                                                                                                                                                                                                                                                                                                                                              000000  002   
DA000003338500000422780009991501ELIGIO                                            BARREIRO                                                                        C000000000000000000000000019371205001MS809523497000000000000000000000                                                  27 DE FEBRERO #64                                                                                                                                                                                                   000278N00000000000000000000000000000000000000000000000000                                                                                                                                  C00000000000000000000000000000000000000000000000000000000000000000                                                                                                                                                                                                                                                          000000                                                                                                                                                                                                                                                                                                                                                              000000  002   
DA000003338600000135600006777242JUAN                                              CASTRO                                                                          C000000000000000000000000019220330001MS000000000000000000000000000000                                                  DUARTE #101                                                                                                                                                                                                         000278N00000000000000000000000000000000000000000000000000                                                                                                                                  C00000000000000000000000000000000000000000000000000000000000000000                                                                                                                                                                                                                                                          000000                                                                                                                                                                                                                                                                                                                                                              000000  002   
DA000003896000000799750009188216BUENO ELISEO                                      NUÑEZ                                   VENTURA                                 C000000000000000000000000019280614001MS809685389700000000000000000000                                                  MAXIMO GOMEZ                                                                                                                                          258         CRISTO REY                                        000001N00000000000000000000000000000000000000000000000000                                                                                                                                  C00000000000000000000000000000000000000000000000000000000000000000                                                                                                                                                                                                                                                          000000                                                                                                                                                                                                                                                                                                                                                              000000  002   
DA000001327000001001970011716908ENRIQUEZ                                          ROJAS                                   EUSEBIO                                 C000000000000000000000000019500715001MU809871951600000000000000000000                                                  C/ PRINCIPAL                                                                                                                                          39                                                            000203N00000000000000000000000000000000000000000000000000MARY LUZ                                          MATEO                                   SANCHEZ                                 C00000000000000900017646219770619001000000000000000000000000000000                                                                                                                                                                                                                                                          000000                                                                                                                                                                                                                                                                                                                                                              000000  002   
DA000001326800001010390008438064LUIS EMILIO                                       ANDUJAR                                 UPIA                                    C000000000000000000000000019450103001MS000000000000000000000000000000                                                  MANZANA 26                                                                                                                                            11          EL EDEN                                           000203N00000000000000000000000000000000000000000000000000                                                                                                                                  C00000000000000000000000000000000000000000000000000000000000000000                                                                                                                                                                                                                                                          000000                                                                                                                                                                                                                                                                                                                                                              000000  002   
DA000002347700000089700006602571LUIS                                              MORALES                                 DE LA CRUZ                              C000000000000000000000000020290510001MU809569874400000000000000000000                                                  PADRE CASTELLANOS                                                                                                                                     35          VILLA MELLA                                       000203N00000000000000000000000000000000000000000000000000CLEOTILDES                                        BRITO                                                                           C00000000000000010361962319381110001000000000000000000000000000000                                                                                                                                                                                                                                                          000000                                                                                                                                                                                                                                                                                                                                                              000000  002   
DA000002236400000977910006800946JOSE ENRIQUE                                      BAEZ                                    PIMENTEL                                C000000000000000000000000019270330001MS809656903500000000000000000000                                                  SANTOME                                                                                                                                               404         SAN CARLOS                                        000001N00000000000000000000000000000000000000000000000000                                                                                                                                  C00000000000000000000000000000000000000000000000000000000000000000                                                                                                                                                                                                                                                          000000                                                                                                                                                                                                                                                                                                                                                              000000  002   
DA000003907300000534770011760130JULIA                                             MENDEZ                                                                          C000000000000000000000000019380705001MS000000000000000000000000000000                                                  ENGOMEZ                                                                                                                                               28          HERRERA                                           000001N00000000000000000000000000000000000000000000000000                                                                                                                                  C00000000000000000000000000000000000000000000000000000000000000000                                                                                                                                                                                                                                                          000000                                                                                                                                                                                                                                                                                                                                                              000000  002   
DA000000665500000469130041677022LUCIA                                             AMARANTE                                CONTRERAS                               C000000000000000000000000019370705001FS809579839000000000000000000000                                                  GASTON FERNANDEZ DELIGNE                                                                                                                              28          CENTRO DE LA CIUDAD                               000037N00000000000000000000000000000000000000000000000000                                                                                                                                  C00000000000000000000000000000000000000000000000000000000000000000                                                                                                                                                                                                                                                          000000                                                                                                                                                                                                                                                                                                                                                              000000  002   
DA000000665200000872860038596416ANDRES                                            FORTUNA                                 JIMENEZ                                 C000000000000000000000000019420617001MC809753781700000000000000000000                                                  K #2 piso 01                                                                                                                                          02          PARTE SUR                                         000037N00000000000000000000000000000000000000000000000000MARIA                                             PIMENTEL                                ASTACUE                                 C00000000000000440000816719470904001000000000000000000000000000000                                                                                                                                                                                                                                                          000000                                                                                                                                                                                                                                                                                                                                                              000000  002   
DA000000665300000535340001579383ELIGIO                                            MARTINEZ                                                                        C000000000000000000000000019311201001MC809666125400000000000000000000                                                  PATIO LOS ROJAS                                                                                                                                       29          CENTRO DE LA CIUDAD                               000265N00000000000000000000000000000000000000000000000000FRANCISCA                                         RODRIGUEZ                               DE MARTINEZ                             C00000000000086000324213719331025001000000000000000000000000000000                                                                                                                                                                                                                                                          000000                                                                                                                                                                                                                                                                                                                                                              000000  002   
DA000000664700001068250050770065CANDIDA NATALIA                                   SANTANA                                 DE SANTOS                               C000000000000000000000000019321201001FS809833994400000000000000000000                                                  PRIMERA                                                                                                                                               4231        PEPILLO SALCEDO                                   000265N00000000000000000000000000000000000000000000000000                                                                                                                                  C00000000000000000000000000000000000000000000000000000000000000000                                                                                                                                                                                                                                                          000000                                                                                                                                                                                                                                                                                                                                                              000000  002   
DA000001522200000837960021944776EFIGENIO                                          FELIZ                                   BAEZ                                    C000000000000000000000000019400510001MS000000000000000000000000000000                                                  PRIMERA EL BRISAL #SN                                                                                                                                 03          CABRAL                                            000014N00000000000000000000000000000000000000000000000000                                                                                                                                  C00000000000000000000000000000000000000000000000000000000000000000                                                                                                                                                                                                                                                          000000                                                                                                                                                                                                                                                                                                                                                              000000  002   
DA000003415700000242590024307211ABIGAIL                                           MEDRANO                                                                         C000000000000000000000000020220817001MS000000000000000000000000000000                                                  PADRE BILLINI                                                                                                                                         44          PADRE BILLINI                                     000014N00000000000000000000000000000000000000000000000000                                                                                                                                  C00000000000000000000000000000000000000000000000000000000000000000                                                                                                                                                                                                                                                          000000                                                                                                                                                                                                                                                                                                                                                              000000  002   
DA000003414600000243040023696044JOSE ALBERTO                                      ABREU                                   RODRIGUEZ                               C000000000000000000000000020290503001MS000000000000000000000000000000                                                  DUARTE                                                                                                                                                53          VILLA ESTELA                                      000014N00000000000000000000000000000000000000000000000000                                                                                                                                  C00000000000000000000000000000000000000000000000000000000000000000                                                                                                                                                                                                                                                          000000                                                                                                                                                                                                                                                                                                                                                              000000  002   
DA000003414700000743700023501558ELIZARDO                                          GARO                                                                            C000000000000000000000000019200803001MS000000000000000000000000000000                                                  SALOME UREQA                                                                                                                                          68          EL CACHON                                         000014N00000000000000000000000000000000000000000000000000                                                                                                                                  C00000000000000000000000000000000000000000000000000000000000000000                                                                                                                                                                                                                                                          000000                                                                                                                                                                                                                                                                                                                                                              000000  002   
DA000003415900000574790024094422CRISTOBAL                                         PINEDA                                                                          C000000000000000000000000019250412001MS000000000000000000000000000000                                                  AV,  EN PROYECTO                                                                                                                                      09          CAMBOYA                                           000014N00000000000000000000000000000000000000000000000000                                                                                                                                  C00000000000000000000000000000000000000000000000000000000000000000                                                                                                                                                                                                                                                          000000                                                                                                                                                                                                                                                                                                                                                              000000  002   
DA000001522600000242000022576653LUCIA NEYDA                                       DE LA CRUZ                              MATOS                                   C000000000000000000000000020301220001FS018000865900000000000000000000                                                  9 RINCON #SN                                                                                                                                          01          JUAN PABLO DUARTE                                 000014N00000000000000000000000000000000000000000000000000                                                                                                                                  C00000000000000000000000000000000000000000000000000000000000000000                                                                                                                                                                                                                                                          000000                                                                                                                                                                                                                                                                                                                                                              000000  002   
DA000001526800000240120024076848GERMAN                                            PEÑA                                    ACOSTA                                  C000000000000000000000000019410622001MU000000000000000000000000000000                                                  PEATON 10                                                                                                                                             14          VILLA CENTRAL                                     000014N00000000000000000000000000000000000000000000000000ALTAGRACIA MILEDYS                                FELIZ                                                                           C00000000000000180031439319470806001000000000000000000000000000000                                                                                                                                                                                                                                                          000000                                                                                                                                                                                                                                                                                                                                                              000000  002   
DA000003416000001023820024505660CARMEN DILIA                                      ACOSTA                                  DE DAMIRON                              C000000000000000000000000020441211001FS000000000000000000000000000000                                                  ARZ. NOUEL                                                                                                                                            20          LA PLAYA                                          000014N00000000000000000000000000000000000000000000000000                                                                                                                                  C00000000000000000000000000000000000000000000000000000000000000000                                                                                                                                                                                                                                                          000000                                                                                                                                                                                                                                                                                                                                                              000000  002   
DA000003416100001023800024888771AMANTINA                                          PEREZ                                   RAMIREZ                                 C000000000000000000000000020451211001FS000000000000000000000000000000                                                  ARZ. NOEL                                                                                                                                             37          LA PLAYA                                          000014N00000000000000000000000000000000000000000000000000                                                                                                                                  C00000000000000000000000000000000000000000000000000000000000000000                                                                                                                                                                                                                                                          000000                                                                                                                                                                                                                                                                                                                                                              000000  002   
DA000001148200000868820036248937ANA TERESA                                        CALVO                                   MERCEDES                                C000000000000000000000000019490719001FC809724427200000000000000000000                                                  AV. 27 DE FEBRERO                                                                                                                                     160         EL DORADO                                         000026N00000000000000000000000000000000000000000000000000ELIDIO                                            RIVAS                                   RODRIGUEZ                               C00000000000000000000000000000000001000000000000000000000000000000                                                                                                                                                                                                                                                          000000                                                                                                                                                                                                                                                                                                                                                              000000  002   
DA000001148000000610710037364560MARIA PETRONILA                                   ROSARIO                                                                         C000000000000000000000000019370801001FS809247061000000000000000000000                                                  NUGENIO PERDOMO                                                                                                                                       52          BELLA VISTA                                       000026N00000000000000000000000000000000000000000000000000                                                                                                                                  C00000000000000000000000000000000000000000000000000000000000000000                                                                                                                                                                                                                                                          000000                                                                                                                                                                                                                                                                                                                                                              000000  002   
DA000001147900000283800036575367ANTONIO MARIA                                     BETANCES                                LORA                                    C000000000000000000000000019200228001MS000000000000000000000000000000                                                  ELADIO VICTORIA                                                                                                                                       128                                                           000026N00000000000000000000000000000000000000000000000000                                                                                                                                  C00000000000000000000000000000000000000000000000000000000000000000                                                                                                                                                                                                                                                          000000                                                                                                                                                                                                                                                                                                                                                              000000  002   
DA000002126500000834410017754448JACINTO TIODO                                     ACEVEDO                                 ROSA                                    C000000000000000000000000019280809001MS000000000000000000000000000000                                                  BATEY LA LUISA BLANCA                                                                                                                                 84          LA LUISA                                          000006N00000000000000000000000000000000000000000000000000                                                                                                                                  C00000000000000000000000000000000000000000000000000000000000000000                                                                                                                                                                                                                                                          000000                                                                                                                                                                                                                                                                                                                                                              000000  002   
DA000002129700000834580017976283JUAN EVANGELISTA                                  CHALA                                                                           C000000000000000000000000019561227001MS000000000000000000000000000000                                                  PARAJE CASUECA                                                                                                                                        01          CASUECA                                           000006N00000000000000000000000000000000000000000000000000                                                                                                                                  C00000000000000000000000000000000000000000000000000000000000000000                                                                                                                                                                                                                                                          000000                                                                                                                                                                                                                                                                                                                                                              000000  002   
DA000002126400000737430018228675EDUARDO                                           GUZMAN                                                                          C000000000000000000000000019411013001MS809802944300000000000000000000                                                  - #2-109                                                                                                                                              MONTE PLATA DON JUAN                                          000006N00000000000000000000000000000000000000000000000000                                                                                                                                  C00000000000000000000000000000000000000000000000000000000000000000                                                                                                                                                                                                                                                          000000                                                                                                                                                                                                                                                                                                                                                              000000  002   
DA000001279100001221200041964518ELIGIO                                            DIAZ                                    TORRES                                  C000000000000000000000000019420521001MS809580277900000000000000000000                                                  C/2DA  BO. MIRADOR SUR, SANTIAGO. REP.DOM.                                                                                                            39          MIRADOR SUR                                       000417N00000000000000000000000000000000000000000000000000                                                                                                                                  C00000000000000000000000000000000000000000000000000000000000000000                                                                                                                                                                                                                                                          000000                                                                                                                                                                                                                                                                                                                                                              000000  002   
DA000001275500000618600030610651JOSE DE JESUS                                     ROSARIO                                 CRUZ                                    C000000000000000000000000019340202001MS809581704600000000000000000000                                                  1RA. #140                                                                                                                                             140         HOYO DEL CAIMITO                                  000026N00000000000000000000000000000000000000000000000000                                                                                                                                  C00000000000000000000000000000000000000000000000000000000000000000                                                                                                                                                                                                                                                          000000                                                                                                                                                                                                                                                                                                                                                              000000  002   
DA000001277500000463440030539115JOSE TEODERO                                      SURIEL                                  GARCIA                                  C000000000000000000000000019310428001MS809785003200000000000000000000                                                  CALLEJON DE LOS SURIELES #96                                                                                                                          59          BELLA VISTA                                       000026N00000000000000000000000000000000000000000000000000                                                                                                                                  C00000000000000000000000000000000000000000000000000000000000000000                                                                                                                                                                                                                                                          000000                                                                                                                                                                                                                                                                                                                                                              000000  002   
DA000001278300000311970032404825VALENTIN                                          LIRIANO                                                                         C000000000000000000000000019431116001MS809581206100000000000000000000                                                  PEPILLO MOLINA                                                                                                                                        64          IMBERT                                            000031N00000000000000000000000000000000000000000000000000                                                                                                                                  C00000000000000000000000000000000000000000000000000000000000000000                                                                                                                                                                                                                                                          000000                                                                                                                                                                                                                                                                                                                                                              000000  002   
