EPN52
DA000002685100001208450016989024CARMEN CRISTIANA                                  HERRERA                                                                         C00100671726              19490331001FC000000000000000000000000000000                                                  RAMON SANTANA #4, EDIF. 1B                                                                                                                            NA          MARMOLEJOS                                        000001N00000000000000000000000000000000000000000000000000                                                                                                                                                           00000000000000000000000000000000000000000                                                                                                                                                                                                                                                          000000                                                                                                                                                                                                                                                                                                                                                              000000        
DA000002654500000981950011395515ANTONIO                                           SORIANO                                                                         C00101094092              19360613001MS000000000000000000000000000000                                                  NA                                                                                                                                                    NA          NA                                                000001N00000000000000000000000000000000000000000000000000                                                                                                                                                           00000000000000000000000000000000000000000                                                                                                                                                                                                                                                          000000                                                                                                                                                                                                                                                                                                                                                              000000        
DA000003695600001008410003880513YANET                                             BONILLA                                                                         C00107741332              19660920001FS000000000000000000000000000000                                                  FERNANDEZ NAVARRETE                                                                                                                                   117         LOS MINAS                                         000223N00000000000000000000000000000000000000000000000000                                                                                                                                                           00000000000000000000000000000000000000000                                                                                                                                                                                                                                                          000000                                                                                                                                                                                                                                                                                                                                                              000000        
DA000003366700000166490005113134ROMAN                                             INOA                                                                            C00108842402              19540228001MS000000000000000000000000000000                                                  12                                                                                                                                                    79          BUENOS AIRES                                      000001N00000000000000000000000000000000000000000000000000                                                                                                                                                           00000000000000000000000000000000000000000                                                                                                                                                                                                                                                          000000                                                                                                                                                                                                                                                                                                                                                              000000        
DA000003379500001058000004657967LUCILO                                            POLANCO                                                                         C00106740640              19351213001MS000000000000000000000000000000                                                  CENTRAL                                                                                                                                               37          ENS ALTAGRACIA                                    000001N00000000000000000000000000000000000000000000000000                                                                                                                                                           00000000000000000000000000000000000000000                                                                                                                                                                                                                                                          000000                                                                                                                                                                                                                                                                                                                                                              000000        
DA000003657300000162670011852135ESCOLASTICA                                       FABIAN                                                                          C00108528118              19471114001FC000000000000000000000000000000                                                  NA                                                                                                                                                    19          NA                                                000001N00000000000000000000000000000000000000000000000000                                                                                                                                                           00000000000000000000000000000000000000000                                                                                                                                                                                                                                                          000000                                                                                                                                                                                                                                                                                                                                                              000000        
DA000003460800000243790023115704GERALDO ESTEBAN                                   URBAEZ                                                                          C01800150714              19601003001MS000000000000000000000000000000                                                  PROLONGACION 27                                                                                                                                       27          LOS MINA                                          000223N00000000000000000000000000000000000000000000000000                                                                                                                                                           00000000000000000000000000000000000000000                                                                                                                                                                                                                                                          000000                                                                                                                                                                                                                                                                                                                                                              000000        
DA000003210400000661240051070087FREDY CECILIO                                     VASQUEZ                                                                         C08200154220              19540101001MS000000000000000000000000000000                                                  N                                                                                                                                                     8           N                                                 000082N00000000000000000000000000000000000000000000000000                                                                                                                                                           00000000000000000000000000000000000000000                                                                                                                                                                                                                                                          000000                                                                                                                                                                                                                                                                                                                                                              000000        
DA000002222000000059260009678410JUANA ALTAGRACIA                                  MIRANDA                                                                         C00101721884              19331214001FS000000000000000000000000000000                                                  N                                                                                                                                                     5           N                                                 000001N00000000000000000000000000000000000000000000000000                                                                                                                                                           00000000000000000000000000000000000000000                                                                                                                                                                                                                                                          000000                                                                                                                                                                                                                                                                                                                                                              000000        
DA000001949600000117790012800303MILDRED DEL C DE JESUS                            MONCLUS                                                                         C00105342018              19511204001FC000000000000000000000000000000                                                  N                                                                                                                                                     7A          N                                                 000001N00000000000000000000000000000000000000000000000000                                                                                                                                                           00000000000000000000000000000000000000000                                                                                                                                                                                                                                                          000000                                                                                                                                                                                                                                                                                                                                                              000000        
DA000000673600000781870050311167RODOLFO TEMISTOGLES                               CEBALLOS                                                                        C08200006602              19500416001MS000000000000000000000000000000                                                  N                                                                                                                                                     13          N                                                 000001N00000000000000000000000000000000000000000000000000                                                                                                                                                           00000000000000000000000000000000000000000                                                                                                                                                                                                                                                          000000                                                                                                                                                                                                                                                                                                                                                              000000        
DA000001849600000519400012002517ANTONIO DE JESUS                                  LIRANZO                                                                         C00104897244              19481015001MS000000000000000000000000000000                                                  N                                                                                                                                                     83          N                                                 000001N00000000000000000000000000000000000000000000000000                                                                                                                                                           00000000000000000000000000000000000000000                                                                                                                                                                                                                                                          000000                                                                                                                                                                                                                                                                                                                                                              000000        
DA000001732100000536590008381287HIGINIO                                           GALVEZ                                                                          C00107180499              19490611001MS000000000000000000000000000000                                                  N                                                                                                                                                     19          N                                                 000001N00000000000000000000000000000000000000000000000000                                                                                                                                                           00000000000000000000000000000000000000000                                                                                                                                                                                                                                                          000000                                                                                                                                                                                                                                                                                                                                                              000000        
DA000002090400000434040007268843JOSE MANUEL                                       VALDEZ                                                                          C00115154965              19590426001MS000000000000000000000000000000                                                  N                                                                                                                                                     143         N                                                 000001N00000000000000000000000000000000000000000000000000                                                                                                                                                           00000000000000000000000000000000000000000                                                                                                                                                                                                                                                          000000                                                                                                                                                                                                                                                                                                                                                              000000        
DA000000668000000438770018715644EUGENIO                                           ROMAN                                                                           C00201056215              19550501001MS000000000000000000000000000000                                                  N                                                                                                                                                     154         N                                                 000001N00000000000000000000000000000000000000000000000000                                                                                                                                                           00000000000000000000000000000000000000000                                                                                                                                                                                                                                                          000000                                                                                                                                                                                                                                                                                                                                                              000000        
DA000002354700000079740011532677GENARO ANTONIO                                    REINOSO                                                                         C00102873015              19510802001MS000000000000000000000000000000                                                  SAN AMRTIN DE PORRES                                                                                                                                  1           LA VENTA                                          000001N00000000000000000000000000000000000000000000000000                                                                                                                                                           00000000000000000000000000000000000000000                                                                                                                                                                                                                                                          000000                                                                                                                                                                                                                                                                                                                                                              000000        
DA000002511700000047150002421708MARIA DEL CARMEN                                  MARTE                                                                           C00101363612              19430415001FC000000000000000000000000000000                                                  N                                                                                                                                                     N           N                                                 000001N00000000000000000000000000000000000000000000000000                                                                                                                                                           00000000000000000000000000000000000000000                                                                                                                                                                                                                                                          000000                                                                                                                                                                                                                                                                                                                                                              000000        
DA000002194600000057970001129815LILIAN JOSEFINA                                   DOMINGUEZ                                                                       C00101669117              19450302001FS000000000000000000000000000000                                                  N                                                                                                                                                     N           N                                                 000001N00000000000000000000000000000000000000000000000000                                                                                                                                                           00000000000000000000000000000000000000000                                                                                                                                                                                                                                                          000000                                                                                                                                                                                                                                                                                                                                                              000000        
DA000000967900000562590020582670RAFAEL ANIBAL                                     MARTINEZ                                                                        C00300564739              19470325001MS000000000000000000000000000000                                                  N                                                                                                                                                     N           N                                                 000001N00000000000000000000000000000000000000000000000000                                                                                                                                                           00000000000000000000000000000000000000000                                                                                                                                                                                                                                                          000000                                                                                                                                                                                                                                                                                                                                                              000000        
DA000002523000000495900009173387LUIS                                              ROBLES                                                                          C00101412443              19560126001MC000000000000000000000000000000                                                  N                                                                                                                                                     78          N                                                 000001N00000000000000000000000000000000000000000000000000                                                                                                                                                           00000000000000000000000000000000000000000                                                                                                                                                                                                                                                          000000                                                                                                                                                                                                                                                                                                                                                              000000        
DA000001543300000566030018621263FILIBERTO                                         SEGURA                                                                          C01000151082              19390120001MS000000000000000000000000000000                                                  N                                                                                                                                                     136         N                                                 000001N00000000000000000000000000000000000000000000000000                                                                                                                                                           00000000000000000000000000000000000000000                                                                                                                                                                                                                                                          000000                                                                                                                                                                                                                                                                                                                                                              000000        
DA000003007000000541190004693678RAFAEL ANTONIO                                    NUEZ                                                                            C00107776106              19450409001MS000000000000000000000000000000                                                  N                                                                                                                                                     N           N                                                 000001N00000000000000000000000000000000000000000000000000                                                                                                                                                           00000000000000000000000000000000000000000                                                                                                                                                                                                                                                          000000                                                                                                                                                                                                                                                                                                                                                              000000        
DA000001799700000113850010993200CARLIXTA                                          SILVERIO                                                                        C00105192561              19400902001FC000000000000000000000000000000                                                  N                                                                                                                                                     80          N                                                 000001N00000000000000000000000000000000000000000000000000                                                                                                                                                           00000000000000000000000000000000000000000                                                                                                                                                                                                                                                          000000                                                                                                                                                                                                                                                                                                                                                              000000        
DA000001545200000225760018275377RAFAEL                                            HERRA                                                                           C01000104495              19441024001MS000000000000000000000000000000                                                  N                                                                                                                                                     20          N                                                 000001N00000000000000000000000000000000000000000000000000                                                                                                                                                           00000000000000000000000000000000000000000                                                                                                                                                                                                                                                          000000                                                                                                                                                                                                                                                                                                                                                              000000        
DA000001515700000566560021735577ESTENIO BENSAN                                    MENDEZ                                                                          C01000443745              19460215001MS000000000000000000000000000000                                                  N                                                                                                                                                     45          N                                                 000001N00000000000000000000000000000000000000000000000000                                                                                                                                                           00000000000000000000000000000000000000000                                                                                                                                                                                                                                                          000000                                                                                                                                                                                                                                                                                                                                                              000000        
DA000003590700000037980007990378RAFAEL ENRIQUE                                    SANTANA                                                                         C00101093870              19480826001MC000000000000000000000000000000                                                  C LA SIRENA                                                                                                                                           4 ALTO      URB. MIRAMAR                                      000001N00000000000000000000000000000000000000000000000000                                                                                                                                                           00000000000000000000000000000000000000000                                                                                                                                                                                                                                                          000000                                                                                                                                                                                                                                                                                                                                                              000000        
DA000002154000000415340011969275GERARDO                                           CABRERA                                                                         C00104554423              19541003001MC000000000000000000000000000000                                                  N                                                                                                                                                     338A        N                                                 000001N00000000000000000000000000000000000000000000000000                                                                                                                                                           00000000000000000000000000000000000000000                                                                                                                                                                                                                                                          000000                                                                                                                                                                                                                                                                                                                                                              000000        
DA000001637500000175230013095127PEDRO                                             RINCON                                                                          C00110024056              19651219001MS000000000000000000000000000000                                                  N                                                                                                                                                     5           N                                                 000001N00000000000000000000000000000000000000000000000000                                                                                                                                                           00000000000000000000000000000000000000000                                                                                                                                                                                                                                                          000000                                                                                                                                                                                                                                                                                                                                                              000000        
DA000002166300001227760009289147CARMEN JULIA                                      PEREZ                                                                           C00103972550              19520815001FS000000000000000000000000000000                                                  N                                                                                                                                                     17          N                                                 000001N00000000000000000000000000000000000000000000000000                                                                                                                                                           00000000000000000000000000000000000000000                                                                                                                                                                                                                                                          000000                                                                                                                                                                                                                                                                                                                                                              000000        
DA000000209600000017420003451068LAZARO OSVALDO                                    PRENZ                                                                           C00100434885              19460428001MS000000000000000000000000000000                                                  N                                                                                                                                                     N           N                                                 000001N00000000000000000000000000000000000000000000000000                                                                                                                                                           00000000000000000000000000000000000000000                                                                                                                                                                                                                                                          000000                                                                                                                                                                                                                                                                                                                                                              000000        
DA000000713300000381860052927538ANTERA                                            MARTINEZ                                                                        C09300153864              19430103001FS000000000000000000000000000000                                                  MONTE TEJADA                                                                                                                                          48          HAINA                                             000093N00000000000000000000000000000000000000000000000000                                                                                                                                                           00000000000000000000000000000000000000000                                                                                                                                                                                                                                                          000000                                                                                                                                                                                                                                                                                                                                                              000000        
DA000002069900000546970000545202SANTA ANTIA                                       GONZALEZ                                                                        C00108714445              19620418001FS000000000000000000000000000000                                                  4685                                                                                                                                                  N           INVIVIENDA                                        000223N00000000000000000000000000000000000000000000000000                                                                                                                                                           00000000000000000000000000000000000000000                                                                                                                                                                                                                                                          000000                                                                                                                                                                                                                                                                                                                                                              000000        
DA000001537600001022650021142914JOSE MARIA                                        DSOTO                                                                           C01000058543              19360623001MC000000000000000000000000000000                                                  EMILIO PRUDÔHOMME 34                                                                                                                                  34          PUEBLO ABAJO                                      000010N00000000000000000000000000000000000000000000000000                                                                                                                                                           00000000000000000000000000000000000000000                                                                                                                                                                                                                                                          000000                                                                                                                                                                                                                                                                                                                                                              000000        
DA000003334700001058960018278512SILVIO MARINO                                     PEREZ                                                                           C01000133080              19390512001MC000000000000000000000000000000                                                  FATIMA 31                                                                                                                                             31          ACAPULCO                                          000010N00000000000000000000000000000000000000000000000000                                                                                                                                                           00000000000000000000000000000000000000000                                                                                                                                                                                                                                                          000000                                                                                                                                                                                                                                                                                                                                                              000000        
DA000000623200001023000022429994ANGEL GUSTAVO                                     GERALDO                                                                         C01200042842              19551230001MS000000000000000000000000000000                                                  PROYECTO 10                                                                                                                                           23          VILLA FLORES                                      000012N00000000000000000000000000000000000000000000000000                                                                                                                                                           00000000000000000000000000000000000000000                                                                                                                                                                                                                                                          000000                                                                                                                                                                                                                                                                                                                                                              000000        
DA000002891000000435250012723866SUNILDA                                           BELIARD                                                                         C00117087486              19360925001FS000000000000000000000000000000                                                  PALACIO ESCOLARES 7                                                                                                                                   7           EL MILLON                                         000001N00000000000000000000000000000000000000000000000000                                                                                                                                                           00000000000000000000000000000000000000000                                                                                                                                                                                                                                                          000000                                                                                                                                                                                                                                                                                                                                                              000000        
DA000000250200000386490052963451MAYRA ALTAGRACIA                                  UREA                                                                            C09500028056              19630918001FC000000000000000000000000000000                                                  LAS DAMAS 2 STGO. 10                                                                                                                                  8           LA SUMAS                                          000031N00000000000000000000000000000000000000000000000000                                                                                                                                                           00000000000000000000000000000000000000000                                                                                                                                                                                                                                                          000000                                                                                                                                                                                                                                                                                                                                                              000000        
DA000000344500000293110036962653ANA ELVIRA DEL CARMEN                             GUTIERREZ                                                                       C03101548182              19360125001FS000000000000000000000000000000                                                  AV, ANTONIO GUZMAN 186                                                                                                                                186         LA HERRADURA                                      000031N00000000000000000000000000000000000000000000000000                                                                                                                                                           00000000000000000000000000000000000000000                                                                                                                                                                                                                                                          000000                                                                                                                                                                                                                                                                                                                                                              000000        
DA000000359400000297690030632498OCTAVIA ANTONIA                                   DE LEON                                                                         C03102445099              19361120001FC000000000000000000000000000000                                                  CARRT. LICEY KM. 4 12 15                                                                                                                              15          CARMELITA                                         000031N00000000000000000000000000000000000000000000000000                                                                                                                                                           00000000000000000000000000000000000000000                                                                                                                                                                                                                                                          000000                                                                                                                                                                                                                                                                                                                                                              000000        
DA000001250000000877460045650890DANILO                                            PICHARDO                                                                        C05400132006              19321022001MC000000000000000000000000000000                                                  ROSARIO 113                                                                                                                                           113         SALADO                                            000054N00000000000000000000000000000000000000000000000000                                                                                                                                                           00000000000000000000000000000000000000000                                                                                                                                                                                                                                                          000000                                                                                                                                                                                                                                                                                                                                                              000000        
DA000000384500001040300037384057MARIA GREGORIA                                    LOINAZ                                                                          C03100982804              19451025001FS000000000000000000000000000000                                                  LOLO PICHARDO 7                                                                                                                                       7           JARABACOA                                         000031N00000000000000000000000000000000000000000000000000                                                                                                                                                           00000000000000000000000000000000000000000                                                                                                                                                                                                                                                          000000                                                                                                                                                                                                                                                                                                                                                              000000        
DA000000363200000298020033065640JOSE MARIA                                        MENDEZ                                                                          C03102522905              19630501001MC000000000000000000000000000000                                                  10                                                                                                                                                    N           N                                                 000031N00000000000000000000000000000000000000000000000000                                                                                                                                                           00000000000000000000000000000000000000000                                                                                                                                                                                                                                                          000000                                                                                                                                                                                                                                                                                                                                                              000000        
DA000002045500000157190012189573DOMINICANA                                        DURAN                                                                           C00108069147              19400407001FS000000000000000000000000000000                                                  PUERTO RICO 7                                                                                                                                         7           N                                                 000223N00000000000000000000000000000000000000000000000000                                                                                                                                                           00000000000000000000000000000000000000000                                                                                                                                                                                                                                                          000000                                                                                                                                                                                                                                                                                                                                                              000000        
DA000001244800000345270043709774TOMASINA RAMONA                                   TAVERAS                                                                         C05401052856              19480425001FS000000000000000000000000000000                                                  LEON DE JESUS CASTA#O 40                                                                                                                              40          PUERTO RICO                                       000054N00000000000000000000000000000000000000000000000000                                                                                                                                                           00000000000000000000000000000000000000000                                                                                                                                                                                                                                                          000000                                                                                                                                                                                                                                                                                                                                                              000000        
DA000002718000000025510008592818LOURDES MERCEDES                                  ACOSTA                                                                          C00100711084              19310403001FS000000000000000000000000000000                                                  CESAR NICOLA PENSON 38                                                                                                                                38          ENS GAZCUE                                        000001N00000000000000000000000000000000000000000000000000                                                                                                                                                           00000000000000000000000000000000000000000                                                                                                                                                                                                                                                          000000                                                                                                                                                                                                                                                                                                                                                              000000        
DA000002066200000164300010730642JACINTA CONFESORA                                 DOMINGUEZ                                                                       C00108704537              19550313001FS000000000000000000000000000000                                                  SIMON OROZC                                                                                                                                           N           INVIVIENDA                                        000001N00000000000000000000000000000000000000000000000000                                                                                                                                                           00000000000000000000000000000000000000000                                                                                                                                                                                                                                                          000000                                                                                                                                                                                                                                                                                                                                                              000000        
DA000002301200000071230015101148MANUEL DE JESUS                                   ACOSTA                                                                          C00102334646              19231202001MC000000000000000000000000000000                                                  RESP. 8 20                                                                                                                                            20          ENS ESPAILLAT                                     000001N00000000000000000000000000000000000000000000000000                                                                                                                                                           00000000000000000000000000000000000000000                                                                                                                                                                                                                                                          000000                                                                                                                                                                                                                                                                                                                                                              000000        
DA000002314000000988380008076797ORLANDO RAFAEL                                    PEREZ                                                                           C00102474434              19500302001MS000000000000000000000000000000                                                  PEATON6 24                                                                                                                                            24          NA                                                000001N00000000000000000000000000000000000000000000000000                                                                                                                                                           00000000000000000000000000000000000000000                                                                                                                                                                                                                                                          000000                                                                                                                                                                                                                                                                                                                                                              000000        
DA000001597500000124700013979231DOMINGO ANTONIO                                   SILVERIO                                                                        C00105780829              19511020001MS000000000000000000000000000000                                                  C GREGORIO LUPERON 13                                                                                                                                 13          NA                                                000225N00000000000000000000000000000000000000000000000000                                                                                                                                                           00000000000000000000000000000000000000000                                                                                                                                                                                                                                                          000000                                                                                                                                                                                                                                                                                                                                                              000000        
DA000002067900000164390009597544ELETICIA                                          OGANDO                                                                          C00108707696              19000414001FS000000000000000000000000000000                                                  MANZ. 4731 3                                                                                                                                          3           NA                                                000223N00000000000000000000000000000000000000000000000000                                                                                                                                                           00000000000000000000000000000000000000000                                                                                                                                                                                                                                                          000000                                                                                                                                                                                                                                                                                                                                                              000000        
DA000001292100001074480049664052CELESTE AURORA                                    OVIEDO                                                                          C07400001744              19510118001FC000000000000000000000000000000                                                  MELLA 13                                                                                                                                              13          NA                                                000074N00000000000000000000000000000000000000000000000000                                                                                                                                                           00000000000000000000000000000000000000000                                                                                                                                                                                                                                                          000000                                                                                                                                                                                                                                                                                                                                                              000000        
DA000001897400000123680013970405ZAIDA MARIA                                       READ                                                                            C00105713226              19500426001FS000000000000000000000000000000                                                  MANZANA A 4                                                                                                                                           NA          NA                                                000223N00000000000000000000000000000000000000000000000000                                                                                                                                                           00000000000000000000000000000000000000000                                                                                                                                                                                                                                                          000000                                                                                                                                                                                                                                                                                                                                                              000000        
DA000002881700000178310007064797ISMENIA                                           ROJAS                                                                           C00111193520              19420810001FS000000000000000000000000000000                                                  REV. VICENTE BELTRAN                                                                                                                                  NA          NA                                                000001N00000000000000000000000000000000000000000000000000                                                                                                                                                           00000000000000000000000000000000000000000                                                                                                                                                                                                                                                          000000                                                                                                                                                                                                                                                                                                                                                              000000        
DA000002581500000052350012843466RAYMUNDO NICOLAS                                  AMARO                                                                           C00101496107              19340107001MS000000000000000000000000000000                                                  ARISTIDES G. MELLA 21                                                                                                                                 21          NA                                                000001N00000000000000000000000000000000000000000000000000                                                                                                                                                           00000000000000000000000000000000000000000                                                                                                                                                                                                                                                          000000                                                                                                                                                                                                                                                                                                                                                              000000        
DA000002218600000058590002176213DULCE MARIA MERCEDES                              PAULINO                                                                         C00101694636              19290908001FC000000000000000000000000000000                                                  27 FEBRERO 315                                                                                                                                        315         NA                                                000001N00000000000000000000000000000000000000000000000000                                                                                                                                                           00000000000000000000000000000000000000000                                                                                                                                                                                                                                                          000000                                                                                                                                                                                                                                                                                                                                                              000000        
DA000001793100000112680008849253ANDREA                                            OGANDO                                                                          C00105145171              19300223001FC000000000000000000000000000000                                                  PRESIDENTE VASQUEZ 16                                                                                                                                 16          NA                                                000225N00000000000000000000000000000000000000000000000000                                                                                                                                                           00000000000000000000000000000000000000000                                                                                                                                                                                                                                                          000000                                                                                                                                                                                                                                                                                                                                                              000000        
DA000002097800000176680006340150NATIVIDAD ALTAGRACIA                              LOPEZ                                                                           C00110418639              19420802001FS000000000000000000000000000000                                                  PALERMON 10                                                                                                                                           10          NA                                                000223N00000000000000000000000000000000000000000000000000                                                                                                                                                           00000000000000000000000000000000000000000                                                                                                                                                                                                                                                          000000                                                                                                                                                                                                                                                                                                                                                              000000        
DA000002782000001069270009611522DAISY MARGARITA                                   CROISIER                                                                        C00100052836              19460625001FS000000000000000000000000000000                                                  CAONABO 62                                                                                                                                            62          NA                                                000001N00000000000000000000000000000000000000000000000000                                                                                                                                                           00000000000000000000000000000000000000000                                                                                                                                                                                                                                                          000000                                                                                                                                                                                                                                                                                                                                                              000000        
DA000002359500000081920005479203YSABEL                                            RAFAEL                                                                          C00103057469              19480318001FS000000000000000000000000000000                                                  AV. DE LOS MARTIRES 284                                                                                                                               284         NA                                                000225N00000000000000000000000000000000000000000000000000                                                                                                                                                           00000000000000000000000000000000000000000                                                                                                                                                                                                                                                          000000                                                                                                                                                                                                                                                                                                                                                              000000        
DA000002520300000048370013712330VENTURA                                           CASTILLO                                                                        C00101402014              19380124001MC000000000000000000000000000000                                                  ANA JOSEFA PUELLO                                                                                                                                     N           NA                                                000001N00000000000000000000000000000000000000000000000000                                                                                                                                                           00000000000000000000000000000000000000000                                                                                                                                                                                                                                                          000000                                                                                                                                                                                                                                                                                                                                                              000000        
DA000002330800000075650006965946CARMEN YOLANDA                                    CUEVAS                                                                          C00102576204              19440716001FC000000000000000000000000000000                                                  ANA VARDEDE 5A                                                                                                                                        5A          NA                                                000001N00000000000000000000000000000000000000000000000000                                                                                                                                                           00000000000000000000000000000000000000000                                                                                                                                                                                                                                                          000000                                                                                                                                                                                                                                                                                                                                                              000000        
DA000002784700000001560010174346YNOSENCIA                                         MONTERO                                                                         C00100026871              19450122001FS000000000000000000000000000000                                                  RESP. CENTRAL 7                                                                                                                                       7           NA                                                000223N00000000000000000000000000000000000000000000000000                                                                                                                                                           00000000000000000000000000000000000000000                                                                                                                                                                                                                                                          000000                                                                                                                                                                                                                                                                                                                                                              000000        
DA000002501100000516750015263640MARTINA                                           GIL                                                                             C00104440326              19500129001FS000000000000000000000000000000                                                  RESP 8 21                                                                                                                                             21          CAPOTILLO                                         000001N00000000000000000000000000000000000000000000000000                                                                                                                                                           00000000000000000000000000000000000000000                                                                                                                                                                                                                                                          000000                                                                                                                                                                                                                                                                                                                                                              000000        
DA000001645400000553100010918986ESTEBAN REY HUNGRIA                               MARIEZ                                                                          C00111754784              19530422001MC000000000000000000000000000000                                                  K 44                                                                                                                                                  84          N                                                 000225N00000000000000000000000000000000000000000000000000                                                                                                                                                           00000000000000000000000000000000000000000                                                                                                                                                                                                                                                          000000                                                                                                                                                                                                                                                                                                                                                              000000        
DA000001293000000372100050121428AURELIO                                           GUZMAN                                                                          C07400003856              19290303001MC000000000000000000000000000000                                                  MARIA LEMUA                                                                                                                                           14          LOMA DE CABRERA                                   000073N00000000000000000000000000000000000000000000000000                                                                                                                                                           00000000000000000000000000000000000000000                                                                                                                                                                                                                                                          000000                                                                                                                                                                                                                                                                                                                                                              000000        
S000067
