EPN52
DA000001426700000882000048937221ATILA                                             MARTE                                                                           C07900042396              19331005001MS000000000000000000000000000000                                                  244 DE MAYO                                                                                                                                           12          24 DE MAYO                                        000164N00000000000000000000000000000000000000000000000000                                                                                                                                                           00000000000000000000000000000000000000000                                                                                                                                                                                                                                                          000000                                                                                                                                                                                                                                                                                                                                                              000000        
DA000001182400001071050024717047RUBEN DARIO                                       SANTANA                                                                         C02000048286              19481210001MS000000000000000000000000000000                                                  PRINCIPAL                                                                                                                                             21          N                                                 000020N00000000000000000000000000000000000000000000000000                                                                                                                                                           00000000000000000000000000000000000000000                                                                                                                                                                                                                                                          000000                                                                                                                                                                                                                                                                                                                                                              000000        
DA000000068200001052980051853833JULIO                                             CARABALLO                                                                       C10000002070              19420720001MS000000000000000000000000000000                                                  PORVENIR                                                                                                                                              86          BELLA VISTA                                       000100N00000000000000000000000000000000000000000000000000                                                                                                                                                           00000000000000000000000000000000000000000                                                                                                                                                                                                                                                          000000                                                                                                                                                                                                                                                                                                                                                              000000        
DA000000074800000363500047540675HIPOLITO                                          MALDONADO                                                                       C06700028266              19410822001MS000000000000000000000000000000                                                  DIEGO DE LIRA                                                                                                                                         55          SABANA DE LA MAR                                  000067N00000000000000000000000000000000000000000000000000                                                                                                                                                           00000000000000000000000000000000000000000                                                                                                                                                                                                                                                          000000                                                                                                                                                                                                                                                                                                                                                              000000        
DA000000074000000363650048618756LUIS ELPIDIO                                      MAURICIO                                                                        C06700036731              19290113001MS000000000000000000000000000000                                                  SAMANA                                                                                                                                                19          SABANA DE LA MAR                                  000067N00000000000000000000000000000000000000000000000000                                                                                                                                                           00000000000000000000000000000000000000000                                                                                                                                                                                                                                                          000000                                                                                                                                                                                                                                                                                                                                                              000000        
DA000000509600000257830028481885NELSON EDUARDO                                    REYES                                                                           C02300416746              19450302001MS000000000000000000000000000000                                                  H                                                                                                                                                     13          CONSUELO                                          000138N00000000000000000000000000000000000000000000000000                                                                                                                                                           00000000000000000000000000000000000000000                                                                                                                                                                                                                                                          000000                                                                                                                                                                                                                                                                                                                                                              000000        
DA000000571000000252720027457203ISABEL MARIA                                      GUERRERO                                                                        C02300003007              19251225001FS000000000000000000000000000000                                                  J                                                                                                                                                     18          RESTAURACION                                      000023N00000000000000000000000000000000000000000000000000                                                                                                                                                           00000000000000000000000000000000000000000                                                                                                                                                                                                                                                          000000                                                                                                                                                                                                                                                                                                                                                              000000        
DA000000498700000263990029355211MARIA ALTAGRACIA                                  EUSEBIO                                                                         C02400103152              19500221001FS000000000000000000000000000000                                                  2                                                                                                                                                     14          INGENIO QUISQUEYA                                 000146N00000000000000000000000000000000000000000000000000                                                                                                                                                           00000000000000000000000000000000000000000                                                                                                                                                                                                                                                          000000                                                                                                                                                                                                                                                                                                                                                              000000        
DA000000493100000263610028633593OLIVA                                             GUZMAN                                                                          C02400079535              19480703001FS000000000000000000000000000000                                                  15                                                                                                                                                    41          INGENIO QUISQUEYA                                 000146N00000000000000000000000000000000000000000000000000                                                                                                                                                           00000000000000000000000000000000000000000                                                                                                                                                                                                                                                          000000                                                                                                                                                                                                                                                                                                                                                              000000        
DA000001386100000348870046952528FREDESVINDA                                       FIGUEROA                                                                        C05600078728              19211019001FS000000000000000000000000000000                                                  HOSTOS                                                                                                                                                71          PUEBLO NUEVO                                      000056N00000000000000000000000000000000000000000000000000                                                                                                                                                           00000000000000000000000000000000000000000                                                                                                                                                                                                                                                          000000                                                                                                                                                                                                                                                                                                                                                              000000        
DA000000849600000359650047887950PEDRO                                             HIDALGO                                                                         C06400073687              19380106001MS000000000000000000000000000000                                                  LA JAQUITA                                                                                                                                            941         LA JAGUITA                                        000064N00000000000000000000000000000000000000000000000000                                                                                                                                                           00000000000000000000000000000000000000000                                                                                                                                                                                                                                                          000000                                                                                                                                                                                                                                                                                                                                                              000000        
DA000001321900000775900045878535NUBLA ZULEMA                                      MARTE                                                                           C05900118711              19321101001FS000000000000000000000000000000                                                  OLEGARIO TENARES                                                                                                                                      55          CASTILLO                                          000059N00000000000000000000000000000000000000000000000000                                                                                                                                                           00000000000000000000000000000000000000000                                                                                                                                                                                                                                                          000000                                                                                                                                                                                                                                                                                                                                                              000000        
DA000001028700000881300048800465FLORENTINO                                        HINOJOSA                                                                        C07100167639              19291014001MS000000000000000000000000000000                                                  PROLONGACION                                                                                                                                          7           SANTISIMA TRINIDAD                                000071N00000000000000000000000000000000000000000000000000                                                                                                                                                           00000000000000000000000000000000000000000                                                                                                                                                                                                                                                          000000                                                                                                                                                                                                                                                                                                                                                              000000        
DA000000527100000264020028136392EULALIA                                           SANTANA                                                                         C02400106544              19350210001FS000000000000000000000000000000                                                  SN                                                                                                                                                    13          LA PALMA                                          000024N00000000000000000000000000000000000000000000000000                                                                                                                                                           00000000000000000000000000000000000000000                                                                                                                                                                                                                                                          000000                                                                                                                                                                                                                                                                                                                                                              000000        
DA000001178800000271230029078392DULCE MARIA                                       CASTILLO                                                                        C02800055192              19280412001FS000000000000000000000000000000                                                  DUVERGE                                                                                                                                               176         SAN JOSE                                          000028N00000000000000000000000000000000000000000000000000                                                                                                                                                           00000000000000000000000000000000000000000                                                                                                                                                                                                                                                          000000                                                                                                                                                                                                                                                                                                                                                              000000        
DA000000620300000229960022426136ESTERVINO                                         GARCIA                                                                          C01200005393              19320803001MS000000000000000000000000000000                                                  PROYECTO 6                                                                                                                                            42          MIRAFLORES                                        000012N00000000000000000000000000000000000000000000000000                                                                                                                                                           00000000000000000000000000000000000000000                                                                                                                                                                                                                                                          000000                                                                                                                                                                                                                                                                                                                                                              000000        
DA000000603600000738890019409131ALDON                                             RODRIGUEZ                                                                       C01000252765              19450813001MS000000000000000000000000000000                                                  LOMA DE YAGUATE                                                                                                                                       07          BOHECHIO                                          000109N00000000000000000000000000000000000000000000000000                                                                                                                                                           00000000000000000000000000000000000000000                                                                                                                                                                                                                                                          000000                                                                                                                                                                                                                                                                                                                                                              000000        
DA000000855600000645320046617673RAMON ANTONIO                                     MARTE                                                                           C05500138804              19481220001MS000000000000000000000000000000                                                  N                                                                                                                                                     N           N                                                 000055N00000000000000000000000000000000000000000000000000                                                                                                                                                           00000000000000000000000000000000000000000                                                                                                                                                                                                                                                          000000                                                                                                                                                                                                                                                                                                                                                              000000        
DA000001366200000349760042665353ANTONIO EDITO                                     LAJARA                                                                          C05600154453              19350613001MS000000000000000000000000000000                                                  ALCADIO TAVERAS                                                                                                                                       8           N                                                 000056N00000000000000000000000000000000000000000000000000                                                                                                                                                           00000000000000000000000000000000000000000                                                                                                                                                                                                                                                          000000                                                                                                                                                                                                                                                                                                                                                              000000        
DA000000824200000361460047915717ANDRES                                            FRIAS                                                                           C06600001793              19421130001MS000000000000000000000000000000                                                  SANCHE SAMANA                                                                                                                                         8           SANCHEZ                                           000001N00000000000000000000000000000000000000000000000000                                                                                                                                                           00000000000000000000000000000000000000000                                                                                                                                                                                                                                                          000000                                                                                                                                                                                                                                                                                                                                                              000000        
DA000000500300000455710028144613OLGA MARIA                                        DE LA CRUZ                                                                      C02400163172              19400118001FS000000000000000000000000000000                                                  10                                                                                                                                                    11          GUACHUPITA                                        000146N00000000000000000000000000000000000000000000000000                                                                                                                                                           00000000000000000000000000000000000000000                                                                                                                                                                                                                                                          000000                                                                                                                                                                                                                                                                                                                                                              000000        
DA000000127900000223040021604455ANA                                               CONTRERAS                                                                       C00800039091              19380725001FS000000000000000000000000000000                                                  RESTAURACION                                                                                                                                          4           CENTRO DEL PUEBLO O Bo. A                         000008N00000000000000000000000000000000000000000000000000                                                                                                                                                           00000000000000000000000000000000000000000                                                                                                                                                                                                                                                          000000                                                                                                                                                                                                                                                                                                                                                              000000        
DA000001387300001047180046296134DELFIN                                            PAULINO                                                                         C05600090814              19321205001MS000000000000000000000000000000                                                  EMILIANO TEJADA                                                                                                                                       29          N                                                 000056N00000000000000000000000000000000000000000000000000                                                                                                                                                           00000000000000000000000000000000000000000                                                                                                                                                                                                                                                          000000                                                                                                                                                                                                                                                                                                                                                              000000        
DA000003115300000223750018244288VICTORIANO                                        GUZMAN                                                                          C00800131401              19220115001MS000000000000000000000000000000                                                  LA JAGUA                                                                                                                                              922         LA LUISA                                          000008N00000000000000000000000000000000000000000000000000                                                                                                                                                           00000000000000000000000000000000000000000                                                                                                                                                                                                                                                          000000                                                                                                                                                                                                                                                                                                                                                              000000        
DA000001360600001067750046062484ALBERTO                                           DE JESUS                                                                        C05600386899              19380422001MS000000000000000000000000000000                                                  PRINCIPAL                                                                                                                                             10          LA BAJADA                                         000056N00000000000000000000000000000000000000000000000000                                                                                                                                                           00000000000000000000000000000000000000000                                                                                                                                                                                                                                                          000000                                                                                                                                                                                                                                                                                                                                                              000000        
DA000001078400001067600043644102ANICETO DE JESUS                                  CRUZ                                                                            C05300001426              19311231001MS000000000000000000000000000000                                                  MANUEL MEJIA LA VEGA                                                                                                                                  N           CONZTANZA                                         000053N00000000000000000000000000000000000000000000000000                                                                                                                                                           00000000000000000000000000000000000000000                                                                                                                                                                                                                                                          000000                                                                                                                                                                                                                                                                                                                                                              000000        
DA000000769200001065110017606924RAFAEL                                            CORPORAN                                                                        C00200273373              19470520001MS000000000000000000000000000000                                                  PRINCIPAL                                                                                                                                             21          JAMEY                                             000002N00000000000000000000000000000000000000000000000000                                                                                                                                                           00000000000000000000000000000000000000000                                                                                                                                                                                                                                                          000000                                                                                                                                                                                                                                                                                                                                                              000000        
DA000001224500001060800051314545LUIS AQUILES                                      MOLINA                                                                          C08800032073              19461222001MS000000000000000000000000000000                                                  PEATON F LENNE                                                                                                                                        41          CE                                                000088N00000000000000000000000000000000000000000000000000                                                                                                                                                           00000000000000000000000000000000000000000                                                                                                                                                                                                                                                          000000                                                                                                                                                                                                                                                                                                                                                              000000        
DA000002732900000980590014997180LEONICIO                                          RODRIGUEZ                                                                       C00100754985              19551009001MS000000000000000000000000000000                                                  C                                                                                                                                                     N           LOS FARALLONES                                    000223N00000000000000000000000000000000000000000000000000                                                                                                                                                           00000000000000000000000000000000000000000                                                                                                                                                                                                                                                          000000                                                                                                                                                                                                                                                                                                                                                              000000        
DA000001912800000999910002649543FAUTINO ALTAGRACIA                                CALDERON                                                                        C00105602189              19341221001MS000000000000000000000000000000                                                  N                                                                                                                                                     N           N                                                 000001N00000000000000000000000000000000000000000000000000                                                                                                                                                           00000000000000000000000000000000000000000                                                                                                                                                                                                                                                          000000                                                                                                                                                                                                                                                                                                                                                              000000        
DA000001324500000775790046415261FLORENTINO                                        BAUTISTA                                                                        C05900005108              19470223001MS000000000000000000000000000000                                                  C2                                                                                                                                                    N           NUEVO CASTILLO                                    000059N00000000000000000000000000000000000000000000000000                                                                                                                                                           00000000000000000000000000000000000000000                                                                                                                                                                                                                                                          000000                                                                                                                                                                                                                                                                                                                                                              000000        
DA000001026200000775980043810346MEREGILDA                                         ARACENA                                                                         C06000068954              19530313001FS000000000000000000000000000000                                                  BAOA DE PIÑA                                                                                                                                          28          NAGUA                                             000060N00000000000000000000000000000000000000000000000000                                                                                                                                                           00000000000000000000000000000000000000000                                                                                                                                                                                                                                                          000000                                                                                                                                                                                                                                                                                                                                                              000000        
DA000000058300000069510002086217MARIA RAFAELA                                     MORDAN                                                                          C00102256575              19311008001FS000000000000000000000000000000                                                  39                                                                                                                                                    66          CRISTO REY                                        000152N00000000000000000000000000000000000000000000000000                                                                                                                                                           00000000000000000000000000000000000000000                                                                                                                                                                                                                                                          000000                                                                                                                                                                                                                                                                                                                                                              000000        
DA000000930700000308740034592816MERCEDES                                          CASTILLO                                                                        C03700208022              19330924001FS000000000000000000000000000000                                                  1RA                                                                                                                                                   57          CAMBELEN                                          000037N00000000000000000000000000000000000000000000000000                                                                                                                                                           00000000000000000000000000000000000000000                                                                                                                                                                                                                                                          000000                                                                                                                                                                                                                                                                                                                                                              000000        
DA000000214000000632910038601862LUISA GILDALINA                                   TAVAREZ                                                                         C04600038667              19451213001FS000000000000000000000000000000                                                  MERCEDES                                                                                                                                              7           BARRIO CENTRO                                     000046N00000000000000000000000000000000000000000000000000                                                                                                                                                           00000000000000000000000000000000000000000                                                                                                                                                                                                                                                          000000                                                                                                                                                                                                                                                                                                                                                              000000        
DA000001951100000117870017179546JOSE MANUEL                                       GRULLON                                                                         C00105347405              19410116001MS000000000000000000000000000000                                                  MANZ 4701                                                                                                                                             1D          CANCINO I                                         000223N00000000000000000000000000000000000000000000000000                                                                                                                                                           00000000000000000000000000000000000000000                                                                                                                                                                                                                                                          000000                                                                                                                                                                                                                                                                                                                                                              000000        
DA000002379600000991650005506466MAXIMO                                            GOMEZ                                                                           C00103284469              19390725001MS000000000000000000000000000000                                                  C PEDRO A LLUBERES ESQ RODRIGUEZ OBJIO                                                                                                                S N         GAZCUE                                            000001N00000000000000000000000000000000000000000000000000                                                                                                                                                           00000000000000000000000000000000000000000                                                                                                                                                                                                                                                          000000                                                                                                                                                                                                                                                                                                                                                              000000        
DA000000397200001040470032058320RAMONA ABAD                                       RODRIGUEZ                                                                       C03101102105              19360229001FS000000000000000000000000000000                                                  EL ENSUEÑO 4C                                                                                                                                         8A          EL ENSUEÑO                                        000031N00000000000000000000000000000000000000000000000000                                                                                                                                                           00000000000000000000000000000000000000000                                                                                                                                                                                                                                                          000000                                                                                                                                                                                                                                                                                                                                                              000000        
DA000000059800000235930022259796MILCIADES BOLIVAR                                 PIMENTEL                                                                        C01300058995              19310407001MS000000000000000000000000000000                                                  MANUEL H CABRAL                                                                                                                                       22          PUEBLO NUVO                                       000013N00000000000000000000000000000000000000000000000000                                                                                                                                                           00000000000000000000000000000000000000000                                                                                                                                                                                                                                                          000000                                                                                                                                                                                                                                                                                                                                                              000000        
DA000001413800000316590041375560NICOLAS                                           COLON                                                                           C04400017515              19270916001MS000000000000000000000000000000                                                  SENFLEUR                                                                                                                                              777         SUR                                               000044N00000000000000000000000000000000000000000000000000                                                                                                                                                           00000000000000000000000000000000000000000                                                                                                                                                                                                                                                          000000                                                                                                                                                                                                                                                                                                                                                              000000        
DA000001082800000339360043340287REYNALDO                                          SANCHEZ                                                                         C05300138160              19480724001MS000000000000000000000000000000                                                  AROLLO ARRIBA                                                                                                                                         56          ARROYO ARRIBA                                     000053N00000000000000000000000000000000000000000000000000                                                                                                                                                           00000000000000000000000000000000000000000                                                                                                                                                                                                                                                          000000                                                                                                                                                                                                                                                                                                                                                              000000        
DA000001079000000339010042521655JUANITA                                           CAPELLAN                                                                        C05300036463              19470323001FS000000000000000000000000000000                                                  27 DE FEBRERO                                                                                                                                         11          LOS LAURELES                                      000053N00000000000000000000000000000000000000000000000000                                                                                                                                                           00000000000000000000000000000000000000000                                                                                                                                                                                                                                                          000000                                                                                                                                                                                                                                                                                                                                                              000000        
DA000000477100000333700041815365RAFAEL                                            VILORIA                                                                         C04900047301              19311025001MS000000000000000000000000000000                                                  9                                                                                                                                                     11          LOS CAJUILES                                      000049N00000000000000000000000000000000000000000000000000                                                                                                                                                           00000000000000000000000000000000000000000                                                                                                                                                                                                                                                          000000                                                                                                                                                                                                                                                                                                                                                              000000        
DA000000478200000333310040298191OCTAVIO                                           ROMERO                                                                          C04900029028              19260413001MS000000000000000000000000000000                                                  C 4                                                                                                                                                   13          PUEBLO NUEVO                                      000049N00000000000000000000000000000000000000000000000000                                                                                                                                                           00000000000000000000000000000000000000000                                                                                                                                                                                                                                                          000000                                                                                                                                                                                                                                                                                                                                                              000000        
DA000001150200000527040016353967FABIA ANTONIA                                     FAJARDO                                                                         C00106068372              19600528001FS000000000000000000000000000000                                                  PIE DEL SANTO CERRO                                                                                                                                   13          SAN FRANCISCO                                     000047N00000000000000000000000000000000000000000000000000                                                                                                                                                           00000000000000000000000000000000000000000                                                                                                                                                                                                                                                          000000                                                                                                                                                                                                                                                                                                                                                              000000        
DA000000227000000885470052615923MARIA JACQUELIN                                   HERNANDEZ                                                                       C09400116811              19610305001FS000000000000000000000000000000                                                  CRUCE DE QUINAGUA                                                                                                                                     3           VILLA GONZALEZ                                    000094N00000000000000000000000000000000000000000000000000                                                                                                                                                           00000000000000000000000000000000000000000                                                                                                                                                                                                                                                          000000                                                                                                                                                                                                                                                                                                                                                              000000        
DA000001275900000272670027409821CRESENCIA                                         MEJIA                                                                           C02900016003              19410415001FS000000000000000000000000000000                                                  MELLA                                                                                                                                                 48          BARRIO A                                          000029N00000000000000000000000000000000000000000000000000                                                                                                                                                           00000000000000000000000000000000000000000                                                                                                                                                                                                                                                          000000                                                                                                                                                                                                                                                                                                                                                              000000        
DA000000515400000259370028484651MARIA DE LOURDES                                  MAZARA                                                                          C02300442874              19340221001FS000000000000000000000000000000                                                  G                                                                                                                                                     37          INGENIO CONSUELO                                  000138N00000000000000000000000000000000000000000000000000                                                                                                                                                           00000000000000000000000000000000000000000                                                                                                                                                                                                                                                          000000                                                                                                                                                                                                                                                                                                                                                              000000        
DA000002030600001009540004737513ABRAHAM                                           UCETA                                                                           C00108193020              19320316001MS000000000000000000000000000000                                                  COLON                                                                                                                                                 22          LOS TRES BRAZOS JARDINES DEL OZAMA                000223N00000000000000000000000000000000000000000000000000                                                                                                                                                           00000000000000000000000000000000000000000                                                                                                                                                                                                                                                          000000                                                                                                                                                                                                                                                                                                                                                              000000        
DA000000041700000154530002560888VIDAL                                             CALDERON                                                                        C00107904369              19350702001MS000000000000000000000000000000                                                  MARIA TRINIDAD SANCHEZ                                                                                                                                24          PEDRO BRAND                                       000227N00000000000000000000000000000000000000000000000000                                                                                                                                                           00000000000000000000000000000000000000000                                                                                                                                                                                                                                                          000000                                                                                                                                                                                                                                                                                                                                                              000000        
DA000002977600000155130016284598TOMASINA                                          AGRAMONTE                                                                       C00107944100              19291221001FS000000000000000000000000000000                                                  C ELILA MENA                                                                                                                                          301         EL MANGUITO                                       000001N00000000000000000000000000000000000000000000000000                                                                                                                                                           00000000000000000000000000000000000000000                                                                                                                                                                                                                                                          000000                                                                                                                                                                                                                                                                                                                                                              000000        
DA000003040800000134580002473737ALTAGRACIA                                        YULI                                                                            C00106508112              19250920001FS000000000000000000000000000000                                                  17                                                                                                                                                    1           LOS PERALEJOS                                     000001N00000000000000000000000000000000000000000000000000                                                                                                                                                           00000000000000000000000000000000000000000                                                                                                                                                                                                                                                          000000                                                                                                                                                                                                                                                                                                                                                              000000        
DA000001833700000997870003736715ADA MILKA ONDINA                                  OGANDO                                                                          C00105108856              19450208001FS000000000000000000000000000000                                                  LAS MERCEDES                                                                                                                                          59          LOS MINA NORTE                                    000223N00000000000000000000000000000000000000000000000000                                                                                                                                                           00000000000000000000000000000000000000000                                                                                                                                                                                                                                                          000000                                                                                                                                                                                                                                                                                                                                                              000000        
DA000002490400000098860010454756MANERTO                                           FARIAS                                                                          C00104179395              19410505001MS000000000000000000000000000000                                                  CENTRAL                                                                                                                                               185 P.A     ENS ESPAILLAT                                     000001N00000000000000000000000000000000000000000000000000                                                                                                                                                           00000000000000000000000000000000000000000                                                                                                                                                                                                                                                          000000                                                                                                                                                                                                                                                                                                                                                              000000        
DA000002431600000087960000211971MANOLO                                            FLORENCIO                                                                       C00103477311              19400121001MS000000000000000000000000000000                                                  ENRIQUILLO ESQ 2DA                                                                                                                                    13          LA CALETA                                         000226N00000000000000000000000000000000000000000000000000                                                                                                                                                           00000000000000000000000000000000000000000                                                                                                                                                                                                                                                          000000                                                                                                                                                                                                                                                                                                                                                              000000        
DA000003511900000802880000197594CARMELO                                           HERNANDEZ                                                                       C00102843935              19370811001MS000000000000000000000000000000                                                  PARAGUAY                                                                                                                                              136         VILLA JUANA                                       000001N00000000000000000000000000000000000000000000000000                                                                                                                                                           00000000000000000000000000000000000000000                                                                                                                                                                                                                                                          000000                                                                                                                                                                                                                                                                                                                                                              000000        
DA000002186100000076050004721232MAGALY                                            HERNANDEZ                                                                       C00102614401              19570103001FS000000000000000000000000000000                                                  16 DE MAYO                                                                                                                                            73          VILLA DUARTE                                      000223N00000000000000000000000000000000000000000000000000                                                                                                                                                           00000000000000000000000000000000000000000                                                                                                                                                                                                                                                          000000                                                                                                                                                                                                                                                                                                                                                              000000        
DA000002803800000014870010695411DELIA MARIA                                       POLANCO                                                                         C00100305929              19310426001FS000000000000000000000000000000                                                  JUAN BAUTISTA VICINI                                                                                                                                  59          SAN CARLOS                                        000001N00000000000000000000000000000000000000000000000000                                                                                                                                                           00000000000000000000000000000000000000000                                                                                                                                                                                                                                                          000000                                                                                                                                                                                                                                                                                                                                                              000000        
DA000002922200000170040001578817ZOILA ROSA                                        DUARTE                                                                          C00109202374              19510804001FS000000000000000000000000000000                                                  DOLORES PROFESORA                                                                                                                                     9           2 DE ENERO                                        000225N00000000000000000000000000000000000000000000000000                                                                                                                                                           00000000000000000000000000000000000000000                                                                                                                                                                                                                                                          000000                                                                                                                                                                                                                                                                                                                                                              000000        
DA000001318500000355240045143466EULOGIA                                           DE JESUS                                                                        C05700030009              19320211001FS000000000000000000000000000000                                                  ALTAGRACIA                                                                                                                                            12          CANELO                                            000057N00000000000000000000000000000000000000000000000000                                                                                                                                                           00000000000000000000000000000000000000000                                                                                                                                                                                                                                                          000000                                                                                                                                                                                                                                                                                                                                                              000000        
DA000002163900000702550015214502NIEVES LUISA                                      RIVERA                                                                          C00104043153              19580502001FC000000000000000000000000000000                                                  LOS TRES OJOS                                                                                                                                         4           FARO A COLÓN                                      000223N00000000000000000000000000000000000000000000000000                                                                                                                                                           00000000000000000000000000000000000000000                                                                                                                                                                                                                                                          000000                                                                                                                                                                                                                                                                                                                                                              000000        
DA000001844000000707630009871490EPIFANIA                                          LOPEZ                                                                           C00104869870              19490712001FC000000000000000000000000000000                                                  OMAR TORRI                                                                                                                                            1013        LOS TRES BRAZOS                                   000223N00000000000000000000000000000000000000000000000000                                                                                                                                                           00000000000000000000000000000000000000000                                                                                                                                                                                                                                                          000000                                                                                                                                                                                                                                                                                                                                                              000000        
DA000000040500000551120003772301LEONTI                                            FELIZ                                                                           C00110017050              19350204001MC000000000000000000000000000000                                                  KM 22                                                                                                                                                 00          PEDRO BRAN                                        000228N00000000000000000000000000000000000000000000000000                                                                                                                                                           00000000000000000000000000000000000000000                                                                                                                                                                                                                                                          000000                                                                                                                                                                                                                                                                                                                                                              000000        
DA000001106700000321710039255157CARMEN ESTELA                                     SANTANA                                                                         C04700074802              19450106001FC000000000000000000000000000000                                                  BACILIO GI                                                                                                                                            38          BARRIO X                                          000047N00000000000000000000000000000000000000000000000000                                                                                                                                                           00000000000000000000000000000000000000000                                                                                                                                                                                                                                                          000000                                                                                                                                                                                                                                                                                                                                                              000000        
DA000003335900000224880018609165LUISA VITALINA VITALINA                           CHALAS                                                                          C01000053221              19410618001FS000000000000000000000000000000                                                  6                                                                                                                                                     125         ENS ISABELITA                                     000223N00000000000000000000000000000000000000000000000000                                                                                                                                                           00000000000000000000000000000000000000000                                                                                                                                                                                                                                                          000000                                                                                                                                                                                                                                                                                                                                                              000000        
DA000001617900000152160007911214INOCENCIA                                         CORTORREAL                                                                      C00107724775              19130128001FS000000000000000000000000000000                                                  BUENA VISTA 1RA                                                                                                                                       107         VILLA MELLA                                       000225N00000000000000000000000000000000000000000000000000                                                                                                                                                           00000000000000000000000000000000000000000                                                                                                                                                                                                                                                          000000                                                                                                                                                                                                                                                                                                                                                              000000        
DA000002931500000726540009650998AURELINA                                          VILLAFADA                                                                       C00109891853              19340627001FS000000000000000000000000000000                                                  LUIS REYES ACOSTA CASI ESQ. JOSE MARTI                                                                                                                367         VILLA MARIA                                       000001N00000000000000000000000000000000000000000000000000                                                                                                                                                           00000000000000000000000000000000000000000                                                                                                                                                                                                                                                          000000                                                                                                                                                                                                                                                                                                                                                              000000        
DA000002859600000184670001876485ANA RAMONA                                        LIRIANO                                                                         C00114065717              19460809001FC000000000000000000000000000000                                                  MAMAM TINGO                                                                                                                                           8           SANTO DOMINGO NORTE                               000225N00000000000000000000000000000000000000000000000000                                                                                                                                                           00000000000000000000000000000000000000000                                                                                                                                                                                                                                                          000000                                                                                                                                                                                                                                                                                                                                                              000000        
DA000002943600000173790013394737DOMINGA                                           ROQUE                                                                           C00109789263              19420928001FC000000000000000000000000000000                                                  SAN FRANCISCO                                                                                                                                         96          N                                                 000056N00000000000000000000000000000000000000000000000000                                                                                                                                                           00000000000000000000000000000000000000000                                                                                                                                                                                                                                                          000000                                                                                                                                                                                                                                                                                                                                                              000000        
DA000001095500000328010038356854ANA ANTONIA                                       JOAQUIN                                                                         C04701087290              19350903001FC000000000000000000000000000000                                                  ALFREDO PERALTA MICHEL 125                                                                                                                            16          LA PIÑA                                           000056N00000000000000000000000000000000000000000000000000                                                                                                                                                           00000000000000000000000000000000000000000                                                                                                                                                                                                                                                          000000                                                                                                                                                                                                                                                                                                                                                              000000        
DA000000490100000146800003646304SANTIAGO CONFESOR                                 CASTANO                                                                         C00107376220              19500304001MS000000000000000000000000000000                                                  30 DE MARZO                                                                                                                                           45          N                                                 000049N00000000000000000000000000000000000000000000000000                                                                                                                                                           00000000000000000000000000000000000000000                                                                                                                                                                                                                                                          000000                                                                                                                                                                                                                                                                                                                                                              000000        
DA000002552000000053610001117448ELBA DEYANIRA                                     PEREZ                                                                           C00101518256              19310921001FC000000000000000000000000000000                                                  FRANCISCO PRATT RAMIREZ                                                                                                                               659         ENS QUISQUEYA                                     000001N00000000000000000000000000000000000000000000000000                                                                                                                                                           00000000000000000000000000000000000000000                                                                                                                                                                                                                                                          000000                                                                                                                                                                                                                                                                                                                                                              000000        
DA000000733000000559670020727336ANGEL SALVADOR E DE LA                            CRUZ                                                                            C00200606218              19391116001MC000000000000000000000000000000                                                  COMBRERO                                                                                                                                              N           URB,TROPICAL                                      000001N00000000000000000000000000000000000000000000000000                                                                                                                                                           00000000000000000000000000000000000000000                                                                                                                                                                                                                                                          000000                                                                                                                                                                                                                                                                                                                                                              000000        
