EPN52
DA000001192700000248860023236334AFRODICIO                                         BELLO                                                                           C02000017943              19550202001MS000000000000000000000000000000                                                  DUARTE                                                                                                                                                25          SAN JOSE                                          000020N00000000000000000000000000000000000000000000000000                                                                                                                                                           00000000000000000000000000000000000000000                                                                                                                                                                                                                                                          000000                                                                                                                                                                                                                                                                                                                                                              000000        
DA000001382500000348650044470154TERESA DE JESUS                                   TEJADA                                                                          C05600042807              19351224001FS000000000000000000000000000000                                                  DUARTE                                                                                                                                                141         N                                                 000056N00000000000000000000000000000000000000000000000000                                                                                                                                                           00000000000000000000000000000000000000000                                                                                                                                                                                                                                                          000000                                                                                                                                                                                                                                                                                                                                                              000000        
DA000001387800001047200046296401ANA RAMONA                                        ORTEGA                                                                          C05600096340              19390901001FS000000000000000000000000000000                                                  EDITO KUNHART                                                                                                                                         8           ENS,JESEMANI                                      000056N00000000000000000000000000000000000000000000000000                                                                                                                                                           00000000000000000000000000000000000000000                                                                                                                                                                                                                                                          000000                                                                                                                                                                                                                                                                                                                                                              000000        
DA000000558400000261920028879517JOSE                                              HERNANDEZ                                                                       C02300721574              19280420001MS000000000000000000000000000000                                                  EL MOLINO                                                                                                                                             108         LINDO                                             000023N00000000000000000000000000000000000000000000000000                                                                                                                                                           00000000000000000000000000000000000000000                                                                                                                                                                                                                                                          000000                                                                                                                                                                                                                                                                                                                                                              000000        
DA000001642600000827180010856750ISABEL                                            REYES                                                                           C00110479250              19400814001FS000000000000000000000000000000                                                  PENETRACION                                                                                                                                           24          BUENA VISTA 2                                     000225N00000000000000000000000000000000000000000000000000                                                                                                                                                           00000000000000000000000000000000000000000                                                                                                                                                                                                                                                          000000                                                                                                                                                                                                                                                                                                                                                              000000        
DA000003102800000134160009970426LUIS ANTONIO                                      CUEVAS                                                                          C00106474703              19310411001MS000000000000000000000000000000                                                  17                                                                                                                                                    22          PUEBLO NUEVO                                      000229N00000000000000000000000000000000000000000000000000                                                                                                                                                           00000000000000000000000000000000000000000                                                                                                                                                                                                                                                          000000                                                                                                                                                                                                                                                                                                                                                              000000        
DA000002503200000101530003477143REGINA                                            NICOLAS                                                                         C00104461272              19300920001FS000000000000000000000000000000                                                  38                                                                                                                                                    78          BAYONA                                            000001N00000000000000000000000000000000000000000000000000                                                                                                                                                           00000000000000000000000000000000000000000                                                                                                                                                                                                                                                          000000                                                                                                                                                                                                                                                                                                                                                              000000        
DA000000131400001022370017748318JOSE GUADALUPE                                    CONTRERAS                                                                       C00800079394              19461212001MS000000000000000000000000000000                                                  FIDEL MA.ZAMBRANO                                                                                                                                     419         MONTE PLATA                                       000008N00000000000000000000000000000000000000000000000000                                                                                                                                                           00000000000000000000000000000000000000000                                                                                                                                                                                                                                                          000000                                                                                                                                                                                                                                                                                                                                                              000000        
DA000000535100000255960029523910BASILIA                                           CALDERON                                                                        C02300293103              19370808001FS000000000000000000000000000000                                                  PEDRO FABREA                                                                                                                                          16          MIRAMAR                                           000023N00000000000000000000000000000000000000000000000000                                                                                                                                                           00000000000000000000000000000000000000000                                                                                                                                                                                                                                                          000000                                                                                                                                                                                                                                                                                                                                                              000000        
DA000002615100001069090014810945JOSE VIRGILIO                                     MUÑOZ                                                                           C00101200244              19521114001MS000000000000000000000000000000                                                  8                                                                                                                                                     7           LOS FRAILES                                       000001N00000000000000000000000000000000000000000000000000                                                                                                                                                           00000000000000000000000000000000000000000                                                                                                                                                                                                                                                          000000                                                                                                                                                                                                                                                                                                                                                              000000        
DA000002682700000980150010211204VICTOR ENRIQUE                                    CASTELLANOS                                                                     C00100683713              19470510001MS000000000000000000000000000000                                                  PRINCIPAL                                                                                                                                             15          EL GALAN                                          000001N00000000000000000000000000000000000000000000000000                                                                                                                                                           00000000000000000000000000000000000000000                                                                                                                                                                                                                                                          000000                                                                                                                                                                                                                                                                                                                                                              000000        
DA000001900300000419910004917326NOELIA MARIA                                      DE LA CRUZ                                                                      C00105732374              19380525001FS000000000000000000000000000000                                                  4TA                                                                                                                                                   301         LOS MAMEYES                                       000223N00000000000000000000000000000000000000000000000000                                                                                                                                                           00000000000000000000000000000000000000000                                                                                                                                                                                                                                                          000000                                                                                                                                                                                                                                                                                                                                                              000000        
DA000003058400001076270005641484ALFREDO                                           LALANE                                                                          C00100002526              19400930001MS000000000000000000000000000000                                                  11                                                                                                                                                    11          URB.LOS PINOS                                     000225N00000000000000000000000000000000000000000000000000                                                                                                                                                           00000000000000000000000000000000000000000                                                                                                                                                                                                                                                          000000                                                                                                                                                                                                                                                                                                                                                              000000        
DA000002683700001201840010211023JUAN ANTONIO                                      RAMIREZ                                                                         C00100680875              19440420001MS000000000000000000000000000000                                                  RESP DUARTE                                                                                                                                           29          N                                                 000001N00000000000000000000000000000000000000000000000000                                                                                                                                                           00000000000000000000000000000000000000000                                                                                                                                                                                                                                                          000000                                                                                                                                                                                                                                                                                                                                                              000000        
DA000002210700000983650005397017CECILIA                                           AQUINO                                                                          C00101609980              19491122001FS000000000000000000000000000000                                                  PENETRACION                                                                                                                                           39          RES.AMAPOLA KM.11\1\2                             000224N00000000000000000000000000000000000000000000000000                                                                                                                                                           00000000000000000000000000000000000000000                                                                                                                                                                                                                                                          000000                                                                                                                                                                                                                                                                                                                                                              000000        
DA000002258400001207200012901016IRMGARD MARIA                                     DESPRADEL                                                                       C00101953610              19481127001FS000000000000000000000000000000                                                  FLERIDA NOLASCO                                                                                                                                       4           ARROYO HONDO                                      000001N00000000000000000000000000000000000000000000000000                                                                                                                                                           00000000000000000000000000000000000000000                                                                                                                                                                                                                                                          000000                                                                                                                                                                                                                                                                                                                                                              000000        
DA000002304700001063100009190993SIXTA                                             RODRIGUEZ                                                                       C00102310331              19570807001FS000000000000000000000000000000                                                  JUAN A IBARRA                                                                                                                                         6           N                                                 000001N00000000000000000000000000000000000000000000000000                                                                                                                                                           00000000000000000000000000000000000000000                                                                                                                                                                                                                                                          000000                                                                                                                                                                                                                                                                                                                                                              000000        
DA000003476300000093660009273750FELICITO                                          SEVERINO                                                                        C00103845665              19380502001MS000000000000000000000000000000                                                  35 ESTE                                                                                                                                               58          ENS LUPERON                                       000001N00000000000000000000000000000000000000000000000000                                                                                                                                                           00000000000000000000000000000000000000000                                                                                                                                                                                                                                                          000000                                                                                                                                                                                                                                                                                                                                                              000000        
DA000001660300000993820013848396VICTORIA                                          LAJARA                                                                          C00103952354              19421226001FS000000000000000000000000000000                                                  LOS GLADIOLOS                                                                                                                                         21          URB.MARIA TRINIDAD SANCHEZ                        000223N00000000000000000000000000000000000000000000000000                                                                                                                                                           00000000000000000000000000000000000000000                                                                                                                                                                                                                                                          000000                                                                                                                                                                                                                                                                                                                                                              000000        
DA000001680600000994130015218604PABLO                                             MARTINEZ                                                                        C00104083969              19430502001MS000000000000000000000000000000                                                  B                                                                                                                                                     5           N                                                 000224N00000000000000000000000000000000000000000000000000                                                                                                                                                           00000000000000000000000000000000000000000                                                                                                                                                                                                                                                          000000                                                                                                                                                                                                                                                                                                                                                              000000        
DA000001942400000999540011679085MERCEDES                                          MOJICA                                                                          C00105531552              19520924001FS000000000000000000000000000000                                                  SABANA PERDIDA                                                                                                                                        13          SABANA PERDIDA                                    000223N00000000000000000000000000000000000000000000000000                                                                                                                                                           00000000000000000000000000000000000000000                                                                                                                                                                                                                                                          000000                                                                                                                                                                                                                                                                                                                                                              000000        
DA000001910600000999880006026154ATILES                                            MALDONADO                                                                       C00105599286              19490510001MS000000000000000000000000000000                                                  MIRADOR DEL ESTE                                                                                                                                      101         PARQUE DEL ESTE                                   000223N00000000000000000000000000000000000000000000000000                                                                                                                                                           00000000000000000000000000000000000000000                                                                                                                                                                                                                                                          000000                                                                                                                                                                                                                                                                                                                                                              000000        
DA000001621400001205020002823291LUZ MARIA                                         MARTINEZ                                                                        C00108593724              19430919001FS000000000000000000000000000000                                                  22                                                                                                                                                    17          N                                                 000225N00000000000000000000000000000000000000000000000000                                                                                                                                                           00000000000000000000000000000000000000000                                                                                                                                                                                                                                                          000000                                                                                                                                                                                                                                                                                                                                                              000000        
DA000001635100001011640003734594ALTAGRACIA                                        MANZUETA                                                                        C00108881400              19470313001FS000000000000000000000000000000                                                  PRINCIPAL                                                                                                                                             7           N                                                 000225N00000000000000000000000000000000000000000000000000                                                                                                                                                           00000000000000000000000000000000000000000                                                                                                                                                                                                                                                          000000                                                                                                                                                                                                                                                                                                                                                              000000        
DA000003072700001023340023786636MIREYA                                            BATISTA                                                                         C01300154406              19420309001FS000000000000000000000000000000                                                  PEPILLO SALCEDO                                                                                                                                       23          ENS LA FE                                         000001N00000000000000000000000000000000000000000000000000                                                                                                                                                           00000000000000000000000000000000000000000                                                                                                                                                                                                                                                          000000                                                                                                                                                                                                                                                                                                                                                              000000        
DA000003229800000214680021242205JUAN ANTONIO                                      HERRERA                                                                         C00200842029              19421023001MS000000000000000000000000000000                                                  JULIO M. CESTERO                                                                                                                                      29          LA BOMBA HATILLO                                  000002N00000000000000000000000000000000000000000000000000                                                                                                                                                           00000000000000000000000000000000000000000                                                                                                                                                                                                                                                          000000                                                                                                                                                                                                                                                                                                                                                              000000        
DA000003644900001230030012807198RAFAEL AMADEO                                     FANINI                                                                          C00100053305              19371123001MS000000000000000000000000000000                                                  VENUS                                                                                                                                                 25          JOSE CONTRERA                                     000001N00000000000000000000000000000000000000000000000000                                                                                                                                                           00000000000000000000000000000000000000000                                                                                                                                                                                                                                                          000000                                                                                                                                                                                                                                                                                                                                                              000000        
DA000001841400000809980002362126ALTAGRACIA                                        CONCEPCION                                                                      C00104832001              19590115001FS000000000000000000000000000000                                                  SIMON BOLIVAR                                                                                                                                         13          EDUARDO BRITO                                     000001N00000000000000000000000000000000000000000000000000                                                                                                                                                           00000000000000000000000000000000000000000                                                                                                                                                                                                                                                          000000                                                                                                                                                                                                                                                                                                                                                              000000        
DA000003415900001207790017200190FATIMA ALTAGRACIA                                 MARIA                                                                           C00105685028              19590513001FS000000000000000000000000000000                                                  RESP.LAS AMERICAS                                                                                                                                     169         N                                                 000001N00000000000000000000000000000000000000000000000000                                                                                                                                                           00000000000000000000000000000000000000000                                                                                                                                                                                                                                                          000000                                                                                                                                                                                                                                                                                                                                                              000000        
DA000003370400001225720002742945ELENA                                             RIVAS                                                                           C00107186314              19470731001FS000000000000000000000000000000                                                  RESP COLON                                                                                                                                            5           DUARTE HERRERA                                    000224N00000000000000000000000000000000000000000000000000                                                                                                                                                           00000000000000000000000000000000000000000                                                                                                                                                                                                                                                          000000                                                                                                                                                                                                                                                                                                                                                              000000        
DA000001712700001208410007304065BARTOLOME MANUEL                                  GOMEZ                                                                           C00108390337              19451106001MS000000000000000000000000000000                                                  1RA                                                                                                                                                   03          ENRIQUILLO HERRERA                                000224N00000000000000000000000000000000000000000000000000                                                                                                                                                           00000000000000000000000000000000000000000                                                                                                                                                                                                                                                          000000                                                                                                                                                                                                                                                                                                                                                              000000        
DA000000111500001074510050684705PEDRO                                             TRINIDAD                                                                        C09000096975              19340908001MS000000000000000000000000000000                                                  JUANCITO DE LA CONCHA                                                                                                                                 6           N                                                 000090N00000000000000000000000000000000000000000000000000                                                                                                                                                           00000000000000000000000000000000000000000                                                                                                                                                                                                                                                          000000                                                                                                                                                                                                                                                                                                                                                              000000        
DA000003112800001208290050514714JUAN BAUTISTA                                     REYES                                                                           C09000115692              19460828001MS000000000000000000000000000000                                                  JUANCITO DE LA CONCHA                                                                                                                                 2           SABANA GRANDE DE BOYA                             000090N00000000000000000000000000000000000000000000000000                                                                                                                                                           00000000000000000000000000000000000000000                                                                                                                                                                                                                                                          000000                                                                                                                                                                                                                                                                                                                                                              000000        
DA000003379500001058000004657967LUCILO                                            POLANCO                                                                         C00106740640              19351213001MS000000000000000000000000000000                                                  CENTRAL                                                                                                                                               37          ENS ALTAGRACIA                                    000001N00000000000000000000000000000000000000000000000000                                                                                                                                                           00000000000000000000000000000000000000000                                                                                                                                                                                                                                                          000000                                                                                                                                                                                                                                                                                                                                                              000000        
DA000002032500000544440013304876GENEROSO                                          RODRIGUEZ                                                                       C00108284720              19480523001MS000000000000000000000000000000                                                  PEÑA GOME\ MANZ 4696                                                                                                                                  1A          INVIVIENDA                                        000223N00000000000000000000000000000000000000000000000000                                                                                                                                                           00000000000000000000000000000000000000000                                                                                                                                                                                                                                                          000000                                                                                                                                                                                                                                                                                                                                                              000000        
DA000000793400000731820020983831RAYCE JOSEFINA                                    MELO                                                                            C00200162451              19551026001FS000000000000000000000000000000                                                  CENTRO AGROPECURIO                                                                                                                                    25          VILLA LIBERACION                                  000002N00000000000000000000000000000000000000000000000000                                                                                                                                                           00000000000000000000000000000000000000000                                                                                                                                                                                                                                                          000000                                                                                                                                                                                                                                                                                                                                                              000000        
DA000001969800001003810006770796JULIO CESAR                                       ENCARNACION                                                                     C00106542764              19581022001MS000000000000000000000000000000                                                  CARRETERA MELLA                                                                                                                                       69          EL TAMARINDO                                      000223N00000000000000000000000000000000000000000000000000                                                                                                                                                           00000000000000000000000000000000000000000                                                                                                                                                                                                                                                          000000                                                                                                                                                                                                                                                                                                                                                              000000        
DA000001601500001002510006737531CRISALIDA                                         FANA                                                                            C00106230865              19570514001FS000000000000000000000000000000                                                  SANCHEZ                                                                                                                                               29          VILLA MELLA                                       000225N00000000000000000000000000000000000000000000000000                                                                                                                                                           00000000000000000000000000000000000000000                                                                                                                                                                                                                                                          000000                                                                                                                                                                                                                                                                                                                                                              000000        
DA000001654700000040510012555506JOSE ANTONIO                                      FERNANDEZ                                                                       C00101146249              19350924001MS000000000000000000000000000000                                                  JONAS                                                                                                                                                 42          CAMPECHITO                                        000225N00000000000000000000000000000000000000000000000000                                                                                                                                                           00000000000000000000000000000000000000000                                                                                                                                                                                                                                                          000000                                                                                                                                                                                                                                                                                                                                                              000000        
DA000003344400000128410005669888VICTORINO                                         DAVID                                                                           C00106145345              19451208001MS000000000000000000000000000000                                                  SAN FELIPE                                                                                                                                            14          SAN FELIPE                                        000225N00000000000000000000000000000000000000000000000000                                                                                                                                                           00000000000000000000000000000000000000000                                                                                                                                                                                                                                                          000000                                                                                                                                                                                                                                                                                                                                                              000000        
DA000003342000001002520014207796EUDYS MANUEL                                      MORETA                                                                          C00106232903              19590929001MS000000000000000000000000000000                                                  12                                                                                                                                                    40          N                                                 000225N00000000000000000000000000000000000000000000000000                                                                                                                                                           00000000000000000000000000000000000000000                                                                                                                                                                                                                                                          000000                                                                                                                                                                                                                                                                                                                                                              000000        
DA000001593900000714000001381180PAULINO                                           FLORIAN                                                                         C00106051469              19370101001MS000000000000000000000000000000                                                  ELOISA MERCEDES                                                                                                                                       21          JACAGUA VILLA MELLA                               000225N00000000000000000000000000000000000000000000000000                                                                                                                                                           00000000000000000000000000000000000000000                                                                                                                                                                                                                                                          000000                                                                                                                                                                                                                                                                                                                                                              000000        
DA000000044500000127610002423587JULIANA                                           DE LA CRUZ                                                                      C00106093792              19340109001FS000000000000000000000000000000                                                  SALOME UREÑA KM.25                                                                                                                                    5           PEDRO BRAN                                        000224N00000000000000000000000000000000000000000000000000                                                                                                                                                           00000000000000000000000000000000000000000                                                                                                                                                                                                                                                          000000                                                                                                                                                                                                                                                                                                                                                              000000        
DA000002282100000799180002240308INES                                              CORDERO                                                                         C00102159928              19540121001FC000000000000000000000000000000                                                  42                                                                                                                                                    12          CRISTO REY                                        000001N00000000000000000000000000000000000000000000000000                                                                                                                                                           00000000000000000000000000000000000000000                                                                                                                                                                                                                                                          000000                                                                                                                                                                                                                                                                                                                                                              000000        
DA000001606700000128440016159091SECUNDINO                                         OZUNA                                                                           C00106148943              19450115001MS000000000000000000000000000000                                                  PROGRESO                                                                                                                                              31          N                                                 000225N00000000000000000000000000000000000000000000000000                                                                                                                                                           00000000000000000000000000000000000000000                                                                                                                                                                                                                                                          000000                                                                                                                                                                                                                                                                                                                                                              000000        
DA000003393400000417640004564533LIDA DOLORES                                      SANTANA                                                                         C00105214340              19351211001FC000000000000000000000000000000                                                  JOSE CABRERA                                                                                                                                          22          ENS OZAMA                                         000223N00000000000000000000000000000000000000000000000000                                                                                                                                                           00000000000000000000000000000000000000000                                                                                                                                                                                                                                                          000000                                                                                                                                                                                                                                                                                                                                                              000000        
DA000002901800000555270003210671SANTIAGO DE JS                                    SANCHEZ                                                                         C00114784960              19410102001MC000000000000000000000000000000                                                  17                                                                                                                                                    1           SAN GERONIMO                                      000001N00000000000000000000000000000000000000000000000000                                                                                                                                                           00000000000000000000000000000000000000000                                                                                                                                                                                                                                                          000000                                                                                                                                                                                                                                                                                                                                                              000000        
DA000001798900000811740012039738VICTOR ANTONIO                                    MARTE                                                                           C00105190706              19300613001MS000000000000000000000000000000                                                  VILLA DUARTE                                                                                                                                          50          VILLA DUARTE                                      000001N00000000000000000000000000000000000000000000000000                                                                                                                                                           00000000000000000000000000000000000000000                                                                                                                                                                                                                                                          000000                                                                                                                                                                                                                                                                                                                                                              000000        
DA000002495900000807780010448990GLORIA MARIA                                      CRUZ                                                                            C00104135207              19430809001FS000000000000000000000000000000                                                  INTERIOR G                                                                                                                                            82          N                                                 000001N00000000000000000000000000000000000000000000000000                                                                                                                                                           00000000000000000000000000000000000000000                                                                                                                                                                                                                                                          000000                                                                                                                                                                                                                                                                                                                                                              000000        
DA000002906200001016920003040037JUAN                                              FALCON                                                                          C00115557316              19330624001MS000000000000000000000000000000                                                  CHARLES PIES                                                                                                                                          88          VILLA JUANA                                       000001N00000000000000000000000000000000000000000000000000                                                                                                                                                           00000000000000000000000000000000000000000                                                                                                                                                                                                                                                          000000                                                                                                                                                                                                                                                                                                                                                              000000        
DA000002472800000093200003415100ROSA ALTAGRACIA                                   CASTELLANOS                                                                     C00103821070              19401113001FC000000000000000000000000000000                                                  37                                                                                                                                                    41          ENS LUPERON                                       000001N00000000000000000000000000000000000000000000000000                                                                                                                                                           00000000000000000000000000000000000000000                                                                                                                                                                                                                                                          000000                                                                                                                                                                                                                                                                                                                                                              000000        
DA000003008600000152430000461415MARIA CARIDAD                                     ACOSTA                                                                          C00107753295              19391127001FC000000000000000000000000000000                                                  PADRE VICENTE YABAR 3                                                                                                                                 3           D.N                                               000001N00000000000000000000000000000000000000000000000000                                                                                                                                                           00000000000000000000000000000000000000000                                                                                                                                                                                                                                                          000000                                                                                                                                                                                                                                                                                                                                                              000000        
DA000001036700000369340049969896BASILIO LORENZO DE                                JESUS                                                                           C07100235485              19430810001MS000000000000000000000000000000                                                  PRINCIPAL                                                                                                                                             83          PARMA DE HERRERA                                  000224N00000000000000000000000000000000000000000000000000                                                                                                                                                           00000000000000000000000000000000000000000                                                                                                                                                                                                                                                          000000                                                                                                                                                                                                                                                                                                                                                              000000        
DA000001631700000153950002554788HEROINA                                           VALDEZ                                                                          C00107856049              19350320001FS000000000000000000000000000000                                                  UNIVERSO 1RA                                                                                                                                          74          LA CARRETERA MELLA                                000223N00000000000000000000000000000000000000000000000000                                                                                                                                                           00000000000000000000000000000000000000000                                                                                                                                                                                                                                                          000000                                                                                                                                                                                                                                                                                                                                                              000000        
DA000002811500000013910013876323ANGELA CASILDA DE                                 LEON                                                                            C00100260934              19470122001FS000000000000000000000000000000                                                  27                                                                                                                                                    02          ENA,ESPALLAT D.N                                  000001N00000000000000000000000000000000000000000000000000                                                                                                                                                           00000000000000000000000000000000000000000                                                                                                                                                                                                                                                          000000                                                                                                                                                                                                                                                                                                                                                              000000        
DA000002766600000009990011305624LIGIA ARGENTINA                                   CASTRO                                                                          C00100140797              19360505001FS000000000000000000000000000000                                                  PORTAL                                                                                                                                                108         ARTOS DE AV,INDEPENDENCIA                         000001N00000000000000000000000000000000000000000000000000                                                                                                                                                           00000000000000000000000000000000000000000                                                                                                                                                                                                                                                          000000                                                                                                                                                                                                                                                                                                                                                              000000        
DA000002270800000063740011831394CLAUDIO TOMAS                                     MALDONADO                                                                       C00101929784              19370712001MS000000000000000000000000000000                                                  LA JAVILLA                                                                                                                                            283         SABANA PERDIDA                                    000001N00000000000000000000000000000000000000000000000000                                                                                                                                                           00000000000000000000000000000000000000000                                                                                                                                                                                                                                                          000000                                                                                                                                                                                                                                                                                                                                                              000000        
DA000002559400000687550015866874GILBERTO                                          REYNOSO                                                                         C00101510048              19411008001MC000000000000000000000000000000                                                  BURENDE                                                                                                                                               16          LOS CACICAZGOS                                    000001N00000000000000000000000000000000000000000000000000                                                                                                                                                           00000000000000000000000000000000000000000                                                                                                                                                                                                                                                          000000                                                                                                                                                                                                                                                                                                                                                              000000        
DA000001595000000127170007818294ISIDORA                                           RODRIGUEZ                                                                       C00106063563              19440201001FS000000000000000000000000000000                                                  C_2DA ,ESQ, LAS FLORES                                                                                                                                105         LAS DIEZ TAREAS. D.N                              000225N00000000000000000000000000000000000000000000000000                                                                                                                                                           00000000000000000000000000000000000000000                                                                                                                                                                                                                                                          000000                                                                                                                                                                                                                                                                                                                                                              000000        
DA000002515000000048050012585421CRISTOBALINA                                      FELIZ                                                                           C00101388536              19430112001FS000000000000000000000000000000                                                  RESP,SAGRARIO DIAZ                                                                                                                                    51          BELLA VISTA                                       000001N00000000000000000000000000000000000000000000000000                                                                                                                                                           00000000000000000000000000000000000000000                                                                                                                                                                                                                                                          000000                                                                                                                                                                                                                                                                                                                                                              000000        
DA000002217600000058700000067006MILAGROS ALTAGRACIA                               ECHAVARRIA                                                                      C00101699361              19361203001FS000000000000000000000000000000                                                  POLIBIO DIAZ                                                                                                                                          39          D.N                                               000001N00000000000000000000000000000000000000000000000000                                                                                                                                                           00000000000000000000000000000000000000000                                                                                                                                                                                                                                                          000000                                                                                                                                                                                                                                                                                                                                                              000000        
DA000002739500000030380010233928SIBILA SOCORRO                                    SILFA                                                                           C00100878453              19190718001FS000000000000000000000000000000                                                  BOLIVAR                                                                                                                                               814         LA ESPAILLAT                                      000001N00000000000000000000000000000000000000000000000000                                                                                                                                                           00000000000000000000000000000000000000000                                                                                                                                                                                                                                                          000000                                                                                                                                                                                                                                                                                                                                                              000000        
DA000002353000000695160010380420CARMEN                                            CLASE                                                                           C00102889946              19520610001FS000000000000000000000000000000                                                  JUAN ALEJANDRO IBARRA                                                                                                                                 130         CRISTO REY                                        000001N00000000000000000000000000000000000000000000000000                                                                                                                                                           00000000000000000000000000000000000000000                                                                                                                                                                                                                                                          000000                                                                                                                                                                                                                                                                                                                                                              000000        
DA000002421400000086990012984744DOMINGO                                           VASQUEZ                                                                         C00103393302              19460921001MS000000000000000000000000000000                                                  AV. DE LOS MARTIRES 145                                                                                                                               145         ENS.LA FLORES                                     000001N00000000000000000000000000000000000000000000000000                                                                                                                                                           00000000000000000000000000000000000000000                                                                                                                                                                                                                                                          000000                                                                                                                                                                                                                                                                                                                                                              000000        
S000066
