EPN42
DA000000621900000566210021492495HIPOLITO                                          PUJOLS                                  SORIANO                                 C01000171635              19551015001MC000000000000000000000000000000                                                  C/ HECTOR J. DIAZ # 223                                                                                                                                                                                             000010N00000000000000000000000000000000000000000000000000                                                                                                                                                           00000000000000000000000000000000000000000                                                                                                                                                                                                                                                          000000                                                                                                                                                                                                                                                                                                                                                              000000        
DA000000787700000565130020146622ALTAGRACIA AURELINA                               NUÑEZ                                   DE LA CRUZ                              C01000042208              19501003001FC000000000000000000000000000000                                                  C/ 27 DE FEBRERO # 146                                                                                                                                                                                              000010N00000000000000000000000000000000000000000000000000                                                                                                                                                           00000000000000000000000000000000000000000                                                                                                                                                                                                                                                          000000                                                                                                                                                                                                                                                                                                                                                              000000        
DA000001009800000566630019338662FREDDY BENIGNO                                    PUJOLS                                  LUNA                                    C01000487080              19470325001MS000000000000000000000000000000                                                  C/ NUESTRA SRA. DE FATIMA # 10                                                                                                                                                                                      000010S00000000199210310000000000000000000000000000000000                                                                                                                                                           00000000000000000000000000000000000000000                                                                                                                                                                                                                                                          000000                                                                                                                                                                                                                                                                                                                                                              000000        
DA000000161600000657840049971458MARCIAL                                           AQUINO                                                                          C07600083179              19310614001MS000000000000000000000000000000                                                                                                                                                                                                                                                                      000076N00000000000000000000000000000000000000000000000000                                                                                                                                                           00000000000000000000000000000000000000000                                                                                                                                                                                                                                                          000000                                                                                                                                                                                                                                                                                                                                                              000000        
DA000001017200000523930011687162JUSTO EMMANUEL                                    MANCEBO                                 PEÑA                                    C00105593016              19530323001MS000000000000000000000000000000                                                  MANZ. F EDIF. 3, APTO. 1-2                                                                                                                                                                                          000223N00000000000000000000000000000000000000000000000000                                                                                                                                                           00000000000000000000000000000000000000000                                                                                                                                                                                                                                                          000000                                                                                                                                                                                                                                                                                                                                                              000000        
DA000000794200000539270006161376EULALIA ALTAGRACIA                                ESTEVEZ                                                                         C00107475535              19500222001FC000000000000000000000000000000                                                  C/ ISABEL AGUIAL # 79B ALTOS                                                                                                                                                                                        000224N00000000000000000000000000000000000000000000000000                                                                                                                                                           00000000000000000000000000000000000000000                                                                                                                                                                                                                                                          000000                                                                                                                                                                                                                                                                                                                                                              000000        
DA000000161600000657430049599806DAYSIS                                            MATOS                                   SANTANA                                 C07600017581              19491012001FC000000000000000000000000000000                                                  LIBERTAD#58                                                                                                                                                                                                         000022N00000000000000000000000000000000000000000000000000                                                                                                                                                           00000000000000000000000000000000000000000                                                                                                                                                                                                                                                          000000                                                                                                                                                                                                                                                                                                                                                              000000        
DA000001016500000488180004576000CEFERINA ALTAGRACIA                               CABRERA                                 ESTEVEZ                                 C00100663269              19400107001FS000000000000000000000000000000                                                  C/ BUY # 12 APTO. 2-B                                                                                                                                                                                               000001N00000000000000000000000000000000000000000000000000                                                                                                                                                           00000000000000000000000000000000000000000                                                                                                                                                                                                                                                          000000                                                                                                                                                                                                                                                                                                                                                              000000        
DA000001014000000500120007584347ALTAGRACIA YDELMA                                 ARIAS                                   PEÑA                                    C00101901122              19450309001FS000000000000000000000000000000                                                  C/ N # 01                                                                                                                                                                                                           000001N00000000000000000000000000000000000000000000000000                                                                                                                                                           00000000000000000000000000000000000000000                                                                                                                                                                                                                                                          000000                                                                                                                                                                                                                                                                                                                                                              000000        
DA000000915500000518000016279867JUANA ALTAGRACIA                                  FERNANDEZ                               DE MERCEDES                             C00104690458              19460621001FC000000000000000000000000000000                                                  C/GABRIEL. A. M. ESQ. VENEZUELA, EDF. 1APT. 1-1                                                                                                                                                                     000225N00000000000000000000000000000000000000000000000000                                                                                                                                                           00000000000000000000000000000000000000000                                                                                                                                                                                                                                                          000000                                                                                                                                                                                                                                                                                                                                                              000000        
DA000000288200000489450017046948OFELIA                                            VICIOSO                                 MORALES                                 C00100841105              19521105001FC000000000000000000000000000000                                                  MANZ. E, ESQ. SIMON BILIVAR # 8                                                                                                                                                                                     000049N00000000000000000000000000000000000000000000000000                                                                                                                                                           00000000000000000000000000000000000000000                                                                                                                                                                                                                                                          000000                                                                                                                                                                                                                                                                                                                                                              000000        
DA000000315900000504290012618858HILARIA PAULINA                                   MATOS                                   LOPEZ                                   C00102444882              19400114001FC000000000000000000000000000000                                                  C/ 4 EDF F6 APART 202                                                                                                                                                                                               000223N00000000000000000000000000000000000000000000000000                                                                                                                                                           00000000000000000000000000000000000000000                                                                                                                                                                                                                                                          000000                                                                                                                                                                                                                                                                                                                                                              000000        
DA000000917800000529100003800323DORIS CONCEPCION                                  RIVERA                                  CABRERA                                 C00106308927              19641207001FC000000000000000000000000000000                                                  C/ VALIENTES # 13                                                                                                                                                                                                   000001S00000000200110200000000000000000000000000000000000                                                                                                                                                           00000000000000000000000000000000000000000                                                                                                                                                                                                                                                          000000                                                                                                                                                                                                                                                                                                                                                              000000        
DA000000897600000647380046339342LUISA EMILIA                                      CONCEPCION                              C DE MAYI                               C05600453467              19400428001FC000000000000000000000000000000                                                  EL CAIMITO # 96                                                                                                                                                                                                     000056N00000000000000000000000000000000000000000000000000                                                                                                                                                           00000000000000000000000000000000000000000                                                                                                                                                                                                                                                          000000                                                                                                                                                                                                                                                                                                                                                              000000        
DA000000608900000645300043427473ZUNILDA ALTAGRACIA                                PICHARDO                                GONZALEZ                                C05500135578              19441015001FC000000000000000000000000000000                                                  C/ GASTON F. DELGNE # 8                                                                                                                                                                                             000056S19940605000000000000000000000000000000000000000000                                                                                                                                                           00000000000000000000000000000000000000000                                                                                                                                                                                                                                                          000000                                                                                                                                                                                                                                                                                                                                                              000000        
DA000001009300000603330029760532ALTAGRACIA AURORA                                 MENDIETA                                PEREZ                                   C02900007887              19480503001FC000000000000000000000000000000                                                  C/ 2DA # 19                                                                                                                                                                                                         000001N00000000000000000000000000000000000000000000000000                                                                                                                                                           00000000000000000000000000000000000000000                                                                                                                                                                                                                                                          000000                                                                                                                                                                                                                                                                                                                                                              000000        
DA000001018100000643830043061494PETRONILA PAULA                                   GOMEZ                                   BARET                                   C05400422431              19520827001FC000000000000000000000000000000                                                  C/ DOMINGO SAVIO # 67                                                                                                                                                                                               000001S19961230000000000000000000000000000000000000000000                                                                                                                                                           00000000000000000000000000000000000000000                                                                                                                                                                                                                                                          000000                                                                                                                                                                                                                                                                                                                                                              000000        
DA000000601600000879900048006795SABINA                                            MARTINEZ                                MORALES DE FLETE                        C06100155610              19521127001FC000000000000000000000000000000                                                  C/ DUARTE # 48                                                                                                                                                                                                      000061N00000000000000000000000000000000000000000000000000                                                                                                                                                           00000000000000000000000000000000000000000                                                                                                                                                                                                                                                          000000                                                                                                                                                                                                                                                                                                                                                              000000        
DA000000701600000602140025274798MERCEDES                                          MONTAS                                  GERMAN                                  C02800126779              19430623001FS000000000000000000000000000000                                                  C/ GRAL. SANTANA # 23                                                                                                                                                                                               000028N00000000000000000000000000000000000000000000000000                                                                                                                                                           00000000000000000000000000000000000000000                                                                                                                                                                                                                                                          000000                                                                                                                                                                                                                                                                                                                                                              000000        
DA000000702900000603080029423023LIVIA MARIA                                       ALMONTE                                 DE RIJO                                 C02800382208              19380123001FC000000000000000000000000000000                                                  C/ COTUBANAMA # 29                                                                                                                                                                                                  000028N00000000000000000000000000000000000000000000000000                                                                                                                                                           00000000000000000000000000000000000000000                                                                                                                                                                                                                                                          000000                                                                                                                                                                                                                                                                                                                                                              000000        
DA000000701200001038670028759423IDALIZA                                           GIL                                     DE PEÑA                                 C02800078897              19480326001FC000000000000000000000000000000                                                  C/ WILLIAM MONTILLA # 75                                                                                                                                                                                            000028N00000000000000000000000000000000000000000000000000                                                                                                                                                           00000000000000000000000000000000000000000                                                                                                                                                                                                                                                          000000                                                                                                                                                                                                                                                                                                                                                              000000        
DA000000701800000602940027550658VICTORIA                                          ENCARNACION                             LAURIANO                                C02800327435              19420306001FC000000000000000000000000000000                                                  CARR. MELLA KM. 16 # 15                                                                                                                                                                                             000028N00000000000000000000000000000000000000000000000000                                                                                                                                                           00000000000000000000000000000000000000000                                                                                                                                                                                                                                                          000000                                                                                                                                                                                                                                                                                                                                                              000000        
DA000000701700000601530027842143ELIDA                                             MARTINEZ                                DE CEBALLOS                             C02800047595              19420908001FS000000000000000000000000000000                                                  AV. SAN PEDRO # 28                                                                                                                                                                                                  000028N00000000000000000000000000000000000000000000000000                                                                                                                                                           00000000000000000000000000000000000000000                                                                                                                                                                                                                                                          000000                                                                                                                                                                                                                                                                                                                                                              000000        
DA000000696500000602610026191450GILMA                                             CASTILLO                                MARTINEZ                                C02800277283              19490826001FC000000000000000000000000000000                                                  LOS PALOS # 28                                                                                                                                                                                                      000028N00000000000000000000000000000000000000000000000000                                                                                                                                                           00000000000000000000000000000000000000000                                                                                                                                                                                                                                                          000000                                                                                                                                                                                                                                                                                                                                                              000000        
DA000000702300000602310025622582ALBIS DANILO                                      GARCIA                                  BIGAY                                   C02800147718              19390730001MC000000000000000000000000000000                                                  PROL. 10 # 2                                                                                                                                                                                                        000028N00000000000000000000000000000000000000000000000000                                                                                                                                                           00000000000000000000000000000000000000000                                                                                                                                                                                                                                                          000000                                                                                                                                                                                                                                                                                                                                                              000000        
DA000000697700000601520025266863ILEANA                                            LUGO                                    YUNES DE MARTE                          C02800047553              19360703001FC000000000000000000000000000000                                                  C/ COLON # 77                                                                                                                                                                                                       000028N00000000000000000000000000000000000000000000000000                                                                                                                                                           00000000000000000000000000000000000000000                                                                                                                                                                                                                                                          000000                                                                                                                                                                                                                                                                                                                                                              000000        
DA000000696600000602620026908730VICTORIANA                                        CEDANO                                  CRUZADO                                 C02800277721              19540616001FC000000000000000000000000000000                                                  C/ LA OTRA BANDA # 8                                                                                                                                                                                                000028N00000000000000000000000000000000000000000000000000                                                                                                                                                           00000000000000000000000000000000000000000                                                                                                                                                                                                                                                          000000                                                                                                                                                                                                                                                                                                                                                              000000        
DA000000702100000603030029420053DOMINGO                                           APONTE                                  MEJIA                                   C02800360220              19621204001MC000000000000000000000000000000                                                  C/ CAMBRONAL # 72                                                                                                                                                                                                   000028N00000000000000000000000000000000000000000000000000                                                                                                                                                           00000000000000000000000000000000000000000                                                                                                                                                                                                                                                          000000                                                                                                                                                                                                                                                                                                                                                              000000        
DA000000703000000602250029472771JUAN                                              CEDANO                                                                          C02800141331              19340810001MC000000000000000000000000000000                                                  C/ OCTAVIO GUERRERO # 17                                                                                                                                                                                            000028N00000000000000000000000000000000000000000000000000                                                                                                                                                           00000000000000000000000000000000000000000                                                                                                                                                                                                                                                          000000                                                                                                                                                                                                                                                                                                                                                              000000        
DA000000697900000601790028761372ANTONIO AQUILES                                   BELLO                                   RONDON                                  C02800085900              19440924001MC000000000000000000000000000000                                                  C/ FELIZ S. DUCOUDRAY # 12                                                                                                                                                                                          000028N00000000000000000000000000000000000000000000000000                                                                                                                                                           00000000000000000000000000000000000000000                                                                                                                                                                                                                                                          000000                                                                                                                                                                                                                                                                                                                                                              000000        
DA000000701900000601430026163588CARLOS CIRANO                                     LEGER                                   CASTILLO                                C02800041200              19530321001MC000000000000000000000000000000                                                  C/ COMANDANTE MARMOLEJOS # 12                                                                                                                                                                                       000028S19960107000000000000000000000000000000000000000000                                                                                                                                                           00000000000000000000000000000000000000000                                                                                                                                                                                                                                                          000000                                                                                                                                                                                                                                                                                                                                                              000000        
DA000000701000000602260026891592FRANCISCA                                         CEDEÑO                                  JIMENEZ DE CARPIO                       C02800141414              19591004001FC000000000000000000000000000000                                                  C/ EDUARDO MARIA GUERRERO # 28                                                                                                                                                                                      000028N00000000000000000000000000000000000000000000000000                                                                                                                                                           00000000000000000000000000000000000000000                                                                                                                                                                                                                                                          000000                                                                                                                                                                                                                                                                                                                                                              000000        
DA000000701300000603210028808107ALEJANDRINA                                       CASTILLO                                                                        C02800474153              19731228001FC000000000000000000000000000000                                                  C/ COMANDANTE # 12                                                                                                                                                                                                  000028S19930215199507230000000000000000000000000000000000                                                                                                                                                           00000000000000000000000000000000000000000                                                                                                                                                                                                                                                          000000                                                                                                                                                                                                                                                                                                                                                              000000        
DA000000030800000594260025200553PEDRO MANUEL                                      REYES                                   MORILLO                                 C02600114512              19510513001MC000000000000000000000000000000                                                  ESPAILLAT #94                                                                                                                                                                                                       000026N00000000000000000000000000000000000000000000000000                                                                                                                                                           00000000000000000000000000000000000000000                                                                                                                                                                                                                                                          000000                                                                                                                                                                                                                                                                                                                                                              000000        
DA000000028300000595450025880460MATILDE ESPERANZA                                 AARON                                   BARRY.DE DE LA ROSA                     C02600234625              19450709001FS000000000000000000000000000000                                                  MANZANA# 9                                                                                                                                                                                                          000026N00000000000000000000000000000000000000000000000000                                                                                                                                                           00000000000000000000000000000000000000000                                                                                                                                                                                                                                                          000000                                                                                                                                                                                                                                                                                                                                                              000000        
DA000000008200000538320009589467JULIANA                                           CORNIEL                                 A DE ROSARIO                            C00107367351              19460515001FS000000000000000000000000000000                                                                                                                                                                                                                                                                      000081N00000000000000000000000000000000000000000000000000                                                                                                                                                           00000000000000000000000000000000000000000                                                                                                                                                                                                                                                          000000                                                                                                                                                                                                                                                                                                                                                              000000        
DA000000009600000659020051105214MERCEDES                                          BURGOS                                  BALBUENA                                C08100036634              19470415001FC000000000000000000000000000000                                                  PRINCIPAL # S/N                                                                                                                                                                                                     000081N00000000000000000000000000000000000000000000000000                                                                                                                                                           00000000000000000000000000000000000000000                                                                                                                                                                                                                                                          000000                                                                                                                                                                                                                                                                                                                                                              000000        
DA000000676400000638640040895523EUGENIO                                           SANCHEZ                                 CRUZ                                    C04800353999              19611215001MS000000000000000000000000000000                                                  C/ JUMA ADENTRO # 7-72                                                                                                                                                                                              000048N00000000000000000000000000000000000000000000000000                                                                                                                                                           00000000000000000000000000000000000000000                                                                                                                                                                                                                                                          000000                                                                                                                                                                                                                                                                                                                                                              000000        
DA000000674500000639040042419631JUANA                                             AQUINO                                  R. DE VERAS                             C04800525828              19481129001FC000000000000000000000000000000                                                  PADRE FANTINO #156                                                                                                                                                                                                  000048N00000000000000000000000000000000000000000000000000                                                                                                                                                           00000000000000000000000000000000000000000                                                                                                                                                                                                                                                          000000                                                                                                                                                                                                                                                                                                                                                              000000        
DA000000706400000656540050199307ESPERANZA                                         BLANCO                                  DE TORIBIO                              C07200041940              19341218001FC000000000000000000000000000000                                                  EL MANANTIAL  # 31                                                                                                                                                                                                  000072N00000000000000000000000000000000000000000000000000                                                                                                                                                           00000000000000000000000000000000000000000                                                                                                                                                                                                                                                          000000                                                                                                                                                                                                                                                                                                                                                              000000        
DA000001014900000564540019033286FRANCISCA                                         PEREZ                                   ALCANTARA                               C00800053035              19571010001FS000000000000000000000000000000                                                  C/ FRIAS DON JUAN # S/N                                                                                                                                                                                             000147N00000000000000000000000000000000000000000000000000                                                                                                                                                           00000000000000000000000000000000000000000                                                                                                                                                                                                                                                          000000                                                                                                                                                                                                                                                                                                                                                              000000        
DA000001007400000561480020783755ALBA ALICIA                                       VILLALONA                               DE CUMBA                                C00300111960              19370115001FC000000000000000000000000000000                                                  LAS MERCEDES                                                                                                                                                                                                        000003N00000000000000000000000000000000000000000000000000                                                                                                                                                           00000000000000000000000000000000000000000                                                                                                                                                                                                                                                          000000                                                                                                                                                                                                                                                                                                                                                              000000        
DA000000390600000651460048700188CONFESORA                                         BAUTISTA                                DE PEREZ                                C06500012544              19440908001FC000000000000000000000000000000                                                  SAN JUAN EDIF. 2 APART.2                                                                                                                                                                                            000065N00000000000000000000000000000000000000000000000000                                                                                                                                                           00000000000000000000000000000000000000000                                                                                                                                                                                                                                                          000000                                                                                                                                                                                                                                                                                                                                                              000000        
DA000000394300000651390047832508LORENZA MINERVA                                   SEPULVEDA                               DE SANTANA                              C06500008419              19370707001FC000000000000000000000000000000                                                  C/ PRINCIPAL #S/N                                                                                                                                                                                                   000065N00000000000000000000000000000000000000000000000000                                                                                                                                                           00000000000000000000000000000000000000000                                                                                                                                                                                                                                                          000000                                                                                                                                                                                                                                                                                                                                                              000000        
DA000000378600000659280050404687ANA RITA                                          JIMENEZ                                                                         C08200008053              19470522001FC000000000000000000000000000000                                                  C/ FELIX REYES # 10                                                                                                                                                                                                 000082N00000000000000000000000000000000000000000000000000                                                                                                                                                           00000000000000000000000000000000000000000                                                                                                                                                                                                                                                          000000                                                                                                                                                                                                                                                                                                                                                              000000        
DA000001017800000560960018934894SAMUEL                                            PARRA                                   MARTINEZ                                C00200889814              19550906001MC000000000000000000000000000000                                                  CALLEJON 3 # 12                                                                                                                                                                                                     000002N00000000000000000000000000000000000000000000000000                                                                                                                                                           00000000000000000000000000000000000000000                                                                                                                                                                                                                                                          000000                                                                                                                                                                                                                                                                                                                                                              000000        
DA000000939500000556990019680763ISABEL ELINA                                      FERNANDEZ                               FELIZ                                   C00200085488              19301227001FS000000000000000000000000000000                                                  PRINCIPAL#42                                                                                                                                                                                                        000002N00000000000000000000000000000000000000000000000000                                                                                                                                                           00000000000000000000000000000000000000000                                                                                                                                                                                                                                                          000000                                                                                                                                                                                                                                                                                                                                                              000000        
DA000000871600000557130017585524MARIANA DE JESUS                                  YENS                                    SEIJAS DE URIBE                         C00200103539              19420612001FS000000000000000000000000000000                                                  PROL. PEDRO RENVILLE # 28                                                                                                                                                                                           000002N00000000000000000000000000000000000000000000000000                                                                                                                                                           00000000000000000000000000000000000000000                                                                                                                                                                                                                                                          000000                                                                                                                                                                                                                                                                                                                                                              000000        
DA000003442900000639640041182577MARGARITA                                         ROJAS                                   PAREDES                                 C04900040637              19440313001FC000000000000000000000000000000                                                  HOSTOS NO. 16                                                                                                                                                                                                       000049N00000000000000000000000000000000000000000000000000                                                                                                                                                           00000000000000000000000000000000000000000                                                                                                                                                                                                                                                          000000                                                                                                                                                                                                                                                                                                                                                              000000        
DA000000910300000642020046699615GEORGINA                                          RONDON                                  DE COMPRES                              C05200007093              19460520001FC000000000000000000000000000000                                                  MANZ. 4692,, EDFI. 8 APT. 3-C                                                                                                                                                                                       000224N00000000000000000000000000000000000000000000000000                                                                                                                                                           00000000000000000000000000000000000000000                                                                                                                                                                                                                                                          000000                                                                                                                                                                                                                                                                                                                                                              000000        
DA000001042000000568710023559854CASILDA ANTONIA                                   MATEO                                   A DE RODRIGUEZ                          C01200157053              19590218001FC000000000000000000000000000000                                                  C/ 1RA. # 24                                                                                                                                                                                                        000001N00000000000000000000000000000000000000000000000000                                                                                                                                                           00000000000000000000000000000000000000000                                                                                                                                                                                                                                                          000000                                                                                                                                                                                                                                                                                                                                                              000000        
DA000000591900000611730033427206JULIA DEL CARMEN                                  VASQUEZ                                 R DE GRULLON                            C03100995079              19410108001FC000000000000000000000000000000                                                  C/ ALEGRIA # 13                                                                                                                                                                                                     000031N00000000000000000000000000000000000000000000000000                                                                                                                                                           00000000000000000000000000000000000000000                                                                                                                                                                                                                                                          000000                                                                                                                                                                                                                                                                                                                                                              000000        
DA000000596600000617350036234320JOSEFINA ALTAGRACIA                               MARTINEZ                                DIAZ DE DIAZ                            C03101927352              19460201001FC000000000000000000000000000000                                                  AV. ESTRELLA SADHALA #201                                                                                                                                                                                           000031N00000000000000000000000000000000000000000000000000                                                                                                                                                           00000000000000000000000000000000000000000                                                                                                                                                                                                                                                          000000                                                                                                                                                                                                                                                                                                                                                              000000        
DA000000594600000620370033931310RAFAEL FRANCISCO                                  PEREZ                                   ALMONTE                                 C03103153155              19400202001MS000000000000000000000000000000                                                  AV. DUARTE NIBAJE #31                                                                                                                                                                                               000031N00000000000000000000000000000000000000000000000000                                                                                                                                                           00000000000000000000000000000000000000000                                                                                                                                                                                                                                                          000000                                                                                                                                                                                                                                                                                                                                                              000000        
DA000000145400000633420039224516ELBA GISELA ANT. DE JS.                           HIDALGO                                 TORRES DE VARGAS                        C04600163101              19490613001FC000000000000000000000000000000                                                  C/ LOS LOBOS                                                                                                                                                                                                        000046N00000000000000000000000000000000000000000000000000                                                                                                                                                           00000000000000000000000000000000000000000                                                                                                                                                                                                                                                          000000                                                                                                                                                                                                                                                                                                                                                              000000        
DA000000150900001042090033619750TEOFILO                                           VALENZUELA                              ARIAS                                   C03300165150              19580914001MC000000000000000000000000000000                                                  MARIA TRINIDAD SANCHEZ                                                                                                                                                                                              000033S00000000199712050000000000000000000000000000000000                                                                                                                                                           00000000000000000000000000000000000000000                                                                                                                                                                                                                                                          000000                                                                                                                                                                                                                                                                                                                                                              000000        
DA000000892000000600270027662666GLADYS ESMEIRA                                    WISPPI                                  SOSA                                    C02700057637              19421028001FS000000000000000000000000000000                                                  C/ PROYECTO A # 13                                                                                                                                                                                                  000027N00000000000000000000000000000000000000000000000000                                                                                                                                                           00000000000000000000000000000000000000000                                                                                                                                                                                                                                                          000000                                                                                                                                                                                                                                                                                                                                                              000000        
DA000000892200000600300028572867EDUARDO DE JESUS                                  DE LA ROSA                              RODRIGUEZ                               C02700058569              19341224001MC000000000000000000000000000000                                                  C/ QUIRILIO VILORIO # 33                                                                                                                                                                                            000027N00000000000000000000000000000000000000000000000000                                                                                                                                                           00000000000000000000000000000000000000000                                                                                                                                                                                                                                                          000000                                                                                                                                                                                                                                                                                                                                                              000000        
DA000000892400000600020026454521ANDRES                                            REYES                                   PIMENTEL                                C02700019108              19441130001MC000000000000000000000000000000                                                  C/ PROYECTO GENAO # 13                                                                                                                                                                                              000027N00000000000000000000000000000000000000000000000000                                                                                                                                                           00000000000000000000000000000000000000000                                                                                                                                                                                                                                                          000000                                                                                                                                                                                                                                                                                                                                                              000000        
DA000000894100000600860026133091CARIDAD                                           GUERRERO                                DE LA ROSA                              C02700158021              19350815001FC000000000000000000000000000000                                                  C/ LAS RINCHAS S/N                                                                                                                                                                                                  000027N00000000000000000000000000000000000000000000000000                                                                                                                                                           00000000000000000000000000000000000000000                                                                                                                                                                                                                                                          000000                                                                                                                                                                                                                                                                                                                                                              000000        
DA000000894500000600280029715078ELUPINA                                           BASTARDO                                GUERRERO                                C02700057876              19621128001FC000000000000000000000000000000                                                  C/ MIRIAM NOVA S/N                                                                                                                                                                                                  000027N00000000000000000000000000000000000000000000000000                                                                                                                                                           00000000000000000000000000000000000000000                                                                                                                                                                                                                                                          000000                                                                                                                                                                                                                                                                                                                                                              000000        
DA000000893100001038540027385711HEROTILA                                          MOTA                                    DE DIAZ                                 C02700220474              19421006001FC000000000000000000000000000000                                                  C/ MICHES # 29                                                                                                                                                                                                      000027N00000000000000000000000000000000000000000000000000                                                                                                                                                           00000000000000000000000000000000000000000                                                                                                                                                                                                                                                          000000                                                                                                                                                                                                                                                                                                                                                              000000        
DA000000893200000589810027885942LUIS JOSE                                         RAMIREZ                                 JIMENEZ                                 C02500041450              19400320001MC000000000000000000000000000000                                                  C/ MICHES # 33                                                                                                                                                                                                      000027N00000000000000000000000000000000000000000000000000                                                                                                                                                           00000000000000000000000000000000000000000                                                                                                                                                                                                                                                          000000                                                                                                                                                                                                                                                                                                                                                              000000        
DA000000893600000600550026773134FLERIDA CORNELIA                                  SOTO                                    PEÑA DE RUIZ                            C02700079599              19271227001FC000000000000000000000000000000                                                  C/ SANTANA # 5                                                                                                                                                                                                      000027N00000000000000000000000000000000000000000000000000                                                                                                                                                           00000000000000000000000000000000000000000                                                                                                                                                                                                                                                          000000                                                                                                                                                                                                                                                                                                                                                              000000        
DA000000892500001038210028272287CLARA AURORA                                      UBIERA                                  PACHECO                                 C02700043819              19490111001FS000000000000000000000000000000                                                  PROL. PROYECTO AH # 4                                                                                                                                                                                               000027N00000000000000000000000000000000000000000000000000                                                                                                                                                           00000000000000000000000000000000000000000                                                                                                                                                                                                                                                          000000                                                                                                                                                                                                                                                                                                                                                              000000        
DA000001016700000569660022427644ANA MEDINA                                        COLUMNA                                 MELO                                    C01300032552              19490419001FC000000000000000000000000000000                                                  C/ MIGUEL MASCARO # 11                                                                                                                                                                                              000013N00000000000000000000000000000000000000000000000000                                                                                                                                                           00000000000000000000000000000000000000000                                                                                                                                                                                                                                                          000000                                                                                                                                                                                                                                                                                                                                                              000000        
DA000000654400000655990048840364PEDRO                                             PEGUERO                                 CRUZ                                    C07100292072              19270118001MS000000000000000000000000000000                                                  LAS PIEZAS                                                                                                                                                                                                          000071N00000000000000000000000000000000000000000000000000                                                                                                                                                           00000000000000000000000000000000000000000                                                                                                                                                                                                                                                          000000                                                                                                                                                                                                                                                                                                                                                              000000        
DA000000002900000579420028543762JUSTINA                                           MEDINA                                  FERRERAS                                C02100001672              19440826001FS000000000000000000000000000000                                                  AV. SAN VICENTE DE PAUL, EDF. I, APT 10-B                                                                                                                                                                           000223N00000000000000000000000000000000000000000000000000                                                                                                                                                           00000000000000000000000000000000000000000                                                                                                                                                                                                                                                          000000                                                                                                                                                                                                                                                                                                                                                              000000        
DA000000820200000655670049778415FRANCISCO                                         MARTINEZ                                                                        C07100099337              19551108001MS000000000000000000000000000000                                                                                                                                                                                                                                                                      000071N00000000000000000000000000000000000000000000000000                                                                                                                                                           00000000000000000000000000000000000000000                                                                                                                                                                                                                                                          000000                                                                                                                                                                                                                                                                                                                                                              000000        
DA000000547000000577600022523568JOSEFA ALTAGRACIA                                 URBAEZ                                                                          C01900002492              19490205001FS000000000000000000000000000000                                                  DUARTE # 11                                                                                                                                                                                                         000019N00000000000000000000000000000000000000000000000000                                                                                                                                                           00000000000000000000000000000000000000000                                                                                                                                                                                                                                                          000000                                                                                                                                                                                                                                                                                                                                                              000000        
S000072                                                                                                                               
