EPN42
DA000000162000000252140025773976PAULINA                                           TAVERAS                                 ESCALANTE DE HERASME                    C02200117659              19360101001FC000000000000000000000000000000                                                  C/ CANELA # 78                                                                                                                                                                                                      000113N00000000000000000000000000000000000000000000000000                                                                                                                                                           00000000000000000000000000000000000000000                                                                                                                                                                                                                                                          000000                                                                                                                                                                                                                                                                                                                                                              000000        
DA000000662300000658480049329334EUSTAQUIA                                         TRINIDAD                                MATOS                                   C07800067253              19430328001FC000000000000000000000000000000                                                  C/ 27 DE FEBRERO # 90                                                                                                                                                                                               000078N00000000000000000000000000000000000000000000000000                                                                                                                                                           00000000000000000000000000000000000000000                                                                                                                                                                                                                                                          000000                                                                                                                                                                                                                                                                                                                                                              000000        
DA000000795100000578440024698670JUSTO GERMAN                                      TERRERO                                 RUBIO                                   C01900086107              19380508001MC000000000000000000000000000000                                                  LOS ARROYOS # 17                                                                                                                                                                                                    000019N00000000000000000000000000000000000000000000000000                                                                                                                                                           00000000000000000000000000000000000000000                                                                                                                                                                                                                                                          000000                                                                                                                                                                                                                                                                                                                                                              000000        
DA000000461600000250750026974915ABELARDO                                          SAMBOY                                  CUEVAS                                  C02100020342              19390209001MC000000000000000000000000000000                                                  C/ PEDRO MOTA GALARZA # 23                                                                                                                                                                                          000021N00000000000000000000000000000000000000000000000000                                                                                                                                                           00000000000000000000000000000000000000000                                                                                                                                                                                                                                                          000000                                                                                                                                                                                                                                                                                                                                                              000000        
DA000000458000000658690050159693SIXTO CELESTINO                                   AMADOR                                  ESPEJO                                  C07900044301              19610306001MS000000000000000000000000000000                                                  C/ LOS MELLIZOZ # 2                                                                                                                                                                                                 000079N00000000000000000000000000000000000000000000000000                                                                                                                                                           00000000000000000000000000000000000000000                                                                                                                                                                                                                                                          000000                                                                                                                                                                                                                                                                                                                                                              000000        
DA000000461300000579480025952110TEOBANDIS                                         SAMBOY                                  DELGADO                                 C02100010194              19660312001MS000000000000000000000000000000                                                  C/ EL SANCHEZ # 43                                                                                                                                                                                                  000021N00000000000000000000000000000000000000000000000000                                                                                                                                                           00000000000000000000000000000000000000000                                                                                                                                                                                                                                                          000000                                                                                                                                                                                                                                                                                                                                                              000000        
DA000000599600000657120049758106JOSE MANUEL                                       DIAZ                                    GARCIA                                  C07300112625              19511129001MC000000000000000000000000000000                                                  C/ YAPURT DUMIT # 4-B                                                                                                                                                                                               000031N00000000000000000000000000000000000000000000000000                                                                                                                                                           00000000000000000000000000000000000000000                                                                                                                                                                                                                                                          000000                                                                                                                                                                                                                                                                                                                                                              000000        
DA000000608200000646760042977061ANA MERCEDES                                      BARRERA                                 CRUZ                                    C05600203599              19450508001FC000000000000000000000000000000                                                  C/ SALCEDO # 25                                                                                                                                                                                                     000056N00000000000000000000000000000000000000000000000000                                                                                                                                                           00000000000000000000000000000000000000000                                                                                                                                                                                                                                                          000000                                                                                                                                                                                                                                                                                                                                                              000000        
DA000000275800001048130042770607JOSE RAMON                                        VELEZ                                   PEREZ                                   C05900011825              19450912001MC000000000000000000000000000000                                                  MAXIMILIANO ALMONTE #26                                                                                                                                                                                             000059N00000000000000000000000000000000000000000000000000                                                                                                                                                           00000000000000000000000000000000000000000                                                                                                                                                                                                                                                          000000                                                                                                                                                                                                                                                                                                                                                              000000        
DA000000258600000647630043741251AURORA ALTAGRACIA  ALT                            DEL ORBE                                DE HERNANDEZ                            C05600676000              19391113001FC000000000000000000000000000000                                                  C/ 27 DE FEBRERO # 98                                                                                                                                                                                               000056N00000000000000000000000000000000000000000000000000                                                                                                                                                           00000000000000000000000000000000000000000                                                                                                                                                                                                                                                          000000                                                                                                                                                                                                                                                                                                                                                              000000        
DA000000254700000645840042647496CARMEN                                            SAILLANT                                DE LORA                                 C05600008022              19400727001FC000000000000000000000000000000                                                  CRISTIANO ZENO # 79                                                                                                                                                                                                 000056N00000000000000000000000000000000000000000000000000                                                                                                                                                           00000000000000000000000000000000000000000                                                                                                                                                                                                                                                          000000                                                                                                                                                                                                                                                                                                                                                              000000        
DA000000274700000649020043056974EUDANIA                                           PAREDES                                 ALMONTE DE GUSMAN                       C05800057829              19551115001FS000000000000000000000000000000                                                  C/ PRINCIPAL# 135                                                                                                                                                                                                   000119S19921221199607290000000000000000000000000000000000                                                                                                                                                           00000000000000000000000000000000000000000                                                                                                                                                                                                                                                          000000                                                                                                                                                                                                                                                                                                                                                              000000        
DA000000268200000649110043549864ADELAIDA                                          ANTIGUA                                 Y CEPEDA DE UREÑA                       C05800140294              19491016001FS000000000000000000000000000000                                                  LOS NARANJOS # 71                                                                                                                                                                                                   000058N00000000000000000000000000000000000000000000000000                                                                                                                                                           00000000000000000000000000000000000000000                                                                                                                                                                                                                                                          000000                                                                                                                                                                                                                                                                                                                                                              000000        
DA000000275600000648920046381582SILFREDO                                          MEREGILDO                               POLANCO                                 C05800011081              19400422001MS000000000000000000000000000000                                                  PADRE BILLINI #4                                                                                                                                                                                                    000058N00000000000000000000000000000000000000000000000000                                                                                                                                                           00000000000000000000000000000000000000000                                                                                                                                                                                                                                                          000000                                                                                                                                                                                                                                                                                                                                                              000000        
DA000000274800000649050043970993JOSE ALBERTO                                      VALENTIN                                REYES                                   C05800063900              19410204001MC000000000000000000000000000000                                                  C/ LOS ESTUDIANTES # 24                                                                                                                                                                                             000119N00000000000000000000000000000000000000000000000000                                                                                                                                                           00000000000000000000000000000000000000000                                                                                                                                                                                                                                                          000000                                                                                                                                                                                                                                                                                                                                                              000000        
DA000000274100000649140047004285JESUS                                             POLANCO                                 ROJAS                                   C05800148487              19530103001MS000000000000000000000000000000                                                  C/ BOCA DE CEVICO                                                                                                                                                                                                   000056N00000000000000000000000000000000000000000000000000                                                                                                                                                           00000000000000000000000000000000000000000                                                                                                                                                                                                                                                          000000                                                                                                                                                                                                                                                                                                                                                              000000        
DA000000607000000649470046421716FRANCISCA BIBIANA  VIVIANA                        VASQUEZ                                 DE LEON DE JESUS                        C05900070268              19381217001FC000000000000000000000000000000                                                  C/ CASTILLO # 98                                                                                                                                                                                                    000059N00000000000000000000000000000000000000000000000000                                                                                                                                                           00000000000000000000000000000000000000000                                                                                                                                                                                                                                                          000000                                                                                                                                                                                                                                                                                                                                                              000000        
DA000000269400000645300043427473ZUNILDA ALTAGRACIA                                PICHARDO                                GONZALEZ                                C05500135578              19441015001FC000000000000000000000000000000                                                  C/ GASTON F. DELIGNE # 8                                                                                                                                                                                            000056S19940605000000000000000000000000000000000000000000                                                                                                                                                           00000000000000000000000000000000000000000                                                                                                                                                                                                                                                          000000                                                                                                                                                                                                                                                                                                                                                              000000        
DA000000396400000654260048646265ROQUE                                             LOPEZ                                   PERALTA                                 C06800246032              19440816001MS000000000000000000000000000000                                                  C/ 29 DE JUNIO # 63                                                                                                                                                                                                 000068N00000000000000000000000000000000000000000000000000                                                                                                                                                           00000000000000000000000000000000000000000                                                                                                                                                                                                                                                          000000                                                                                                                                                                                                                                                                                                                                                              000000        
DA000000699700001038690029471516ADRIANO                                           MOTA                                    SEVERINO                                C02800121150              19470907001MS000000000000000000000000000000                                                  C/ 27 DE FEBRERO # 36                                                                                                                                                                                               000028N00000000000000000000000000000000000000000000000000                                                                                                                                                           00000000000000000000000000000000000000000                                                                                                                                                                                                                                                          000000                                                                                                                                                                                                                                                                                                                                                              000000        
DA000000700500000602410029939410MILADYS ANTONIA                                   PARADIS                                 DE JAVIER                               C02800170298              19551109001FC000000000000000000000000000000                                                  C/ DIONICIO MEJIA # 21                                                                                                                                                                                              000028N00000000000000000000000000000000000000000000000000                                                                                                                                                           00000000000000000000000000000000000000000                                                                                                                                                                                                                                                          000000                                                                                                                                                                                                                                                                                                                                                              000000        
DA000000696700000601920028158743CARMELO                                           JIMENEZ                                 BORT                                    C02800092963              19490616001MS000000000000000000000000000000                                                  C/ CAMBRONAL # 92                                                                                                                                                                                                   000028N00000000000000000000000000000000000000000000000000                                                                                                                                                           00000000000000000000000000000000000000000                                                                                                                                                                                                                                                          000000                                                                                                                                                                                                                                                                                                                                                              000000        
DA000000700100000601570025941666ANDREA DEL CARMEN                                 RODRIGUEZ                               DE CEDE#O                               C02800053478              19511130001FC000000000000000000000000000000                                                  C/ C  # 15                                                                                                                                                                                                          000028N00000000000000000000000000000000000000000000000000                                                                                                                                                           00000000000000000000000000000000000000000                                                                                                                                                                                                                                                          000000                                                                                                                                                                                                                                                                                                                                                              000000        
DA000000698300000602030029935238DORIS                                             CEDEÑO                                  DE MONTILLA                             C02800105302              19411220001FC000000000000000000000000000000                                                  HUSCAR TEJADA # 59                                                                                                                                                                                                  000028N00000000000000000000000000000000000000000000000000                                                                                                                                                           00000000000000000000000000000000000000000                                                                                                                                                                                                                                                          000000                                                                                                                                                                                                                                                                                                                                                              000000        
DA000000700900000602330028165203JUANA                                             MELO                                    ABREU                                   C02800149136              19330624001FC000000000000000000000000000000                                                  C/ AVE. LIBERTAD # 6                                                                                                                                                                                                000028N00000000000000000000000000000000000000000000000000                                                                                                                                                           00000000000000000000000000000000000000000                                                                                                                                                                                                                                                          000000                                                                                                                                                                                                                                                                                                                                                              000000        
DA000000700200000601760027845904ELGA C                                            ALMONTE                                 PEPEN                                   C02800082121              19360203001FC000000000000000000000000000000                                                  C/ GASPAR HERNANDEZ # 09                                                                                                                                                                                            000028N00000000000000000000000000000000000000000000000000                                                                                                                                                           00000000000000000000000000000000000000000                                                                                                                                                                                                                                                          000000                                                                                                                                                                                                                                                                                                                                                              000000        
DA000000699200000602180027196960EUNICE M                                          PARADIS                                 GARCIA                                  C02800133213              19520522001FS000000000000000000000000000000                                                  C/ REMIGUIO DEL CASTILLO # 78                                                                                                                                                                                       000028N00000000000000000000000000000000000000000000000000                                                                                                                                                           00000000000000000000000000000000000000000                                                                                                                                                                                                                                                          000000                                                                                                                                                                                                                                                                                                                                                              000000        
DA000000699300000863290029933892MIRIAM RAFAELA                                    POUERIET                                PEÑA                                    C02800084697              19481210001FC000000000000000000000000000000                                                  C/ AMAPOLA # 3                                                                                                                                                                                                      000028N00000000000000000000000000000000000000000000000000                                                                                                                                                           00000000000000000000000000000000000000000                                                                                                                                                                                                                                                          000000                                                                                                                                                                                                                                                                                                                                                              000000        
DA000000697600000601580026881831MARIA MARGARITA                                   CASTILLO                                DE MONTILLA                             C02800055390              19470422001FC000000000000000000000000000000                                                  MERCEDES PILLIER # 110                                                                                                                                                                                              000028N00000000000000000000000000000000000000000000000000                                                                                                                                                           00000000000000000000000000000000000000000                                                                                                                                                                                                                                                          000000                                                                                                                                                                                                                                                                                                                                                              000000        
DA000000699600000601270025262988CARMEN MARIA                                      PEREZ                                   PEREZ                                   C02800010346              19461207001FS000000000000000000000000000000                                                  27 DE FEBRER # 41                                                                                                                                                                                                   000028N00000000000000000000000000000000000000000000000000                                                                                                                                                           00000000000000000000000000000000000000000                                                                                                                                                                                                                                                          000000                                                                                                                                                                                                                                                                                                                                                              000000        
DA000000700700000602020029084425MIGDALIA                                          CEBALLOS                                DE MARTINEZ                             C02800105104              19510410001FC000000000000000000000000000000                                                  HERMANOS TAVAREZ JUSTO # 29                                                                                                                                                                                         000028N00000000000000000000000000000000000000000000000000                                                                                                                                                           00000000000000000000000000000000000000000                                                                                                                                                                                                                                                          000000                                                                                                                                                                                                                                                                                                                                                              000000        
DA000000696800000601930029934410CONSUELO                                          JIMENEZ                                 BORT                                    C02800092971              19480422001FS000000000000000000000000000000                                                  C/ CAMBRONAL # 108                                                                                                                                                                                                  000028N00000000000000000000000000000000000000000000000000                                                                                                                                                           00000000000000000000000000000000000000000                                                                                                                                                                                                                                                          000000                                                                                                                                                                                                                                                                                                                                                              000000        
DA000000700000000601410029931113ESPERANZA                                         CASTILLO                                RODRIGUEZ                               C02800038248              19411218001FS000000000000000000000000000000                                                  REMIGIO DEL CASTILLO # 73                                                                                                                                                                                           000028N00000000000000000000000000000000000000000000000000                                                                                                                                                           00000000000000000000000000000000000000000                                                                                                                                                                                                                                                          000000                                                                                                                                                                                                                                                                                                                                                              000000        
DA000000699800000601720026570471FREDY BARON                                       MONTAS                                  YUNES                                   C02800080158              19331122001MS000000000000000000000000000000                                                  C/ 27 DE FEBRERO # 99                                                                                                                                                                                               000028N00000000000000000000000000000000000000000000000000                                                                                                                                                           00000000000000000000000000000000000000000                                                                                                                                                                                                                                                          000000                                                                                                                                                                                                                                                                                                                                                              000000        
DA000000700300000601810026885135RAFAELA ANTONIA                                   CEDANO                                  HERNANDEZ                               C02800086429              19561204001FC000000000000000000000000000000                                                  PEDRO LIVIO CEDEÑO # 7                                                                                                                                                                                              000028S00000000199306290000000000000000000000000000000000                                                                                                                                                           00000000000000000000000000000000000000000                                                                                                                                                                                                                                                          000000                                                                                                                                                                                                                                                                                                                                                              000000        
DA000000698400000602370028768655ROSA EMILIA                                       GUERRERO                                                                        C02800154136              19470520001FS000000000000000000000000000000                                                  C/ VITORIANO PEPEN # 43                                                                                                                                                                                             000028N00000000000000000000000000000000000000000000000000                                                                                                                                                           00000000000000000000000000000000000000000                                                                                                                                                                                                                                                          000000                                                                                                                                                                                                                                                                                                                                                              000000        
DA000000722000000674490053449938ANA CLISELINA                                     GARCIA                                  SANCHEZ                                 C10100041366              19261224001FS000000000000000000000000000000                                                  C/ MELLA S/N                                                                                                                                                                                                        000031N00000000000000000000000000000000000000000000000000                                                                                                                                                           00000000000000000000000000000000000000000                                                                                                                                                                                                                                                          000000                                                                                                                                                                                                                                                                                                                                                              000000        
DA000000599100000872990039188556TRINIDAD DE JESUS                                 ACEVEDO                                 DE QUIÑONEZ                             C04500063575              19490710001FC000000000000000000000000000000                                                  VILLA SINIDA # 99                                                                                                                                                                                                   000045N00000000000000000000000000000000000000000000000000                                                                                                                                                           00000000000000000000000000000000000000000                                                                                                                                                                                                                                                          000000                                                                                                                                                                                                                                                                                                                                                              000000        
DA000000593300000632270041300298MIGUEL EDUARDO                                    RIVAS                                   PEREZ                                   C04500161288              19530313001MS000000000000000000000000000000                                                  C/ JUAN GOMEZ S/N                                                                                                                                                                                                   000045N00000000000000000000000000000000000000000000000000                                                                                                                                                           00000000000000000000000000000000000000000                                                                                                                                                                                                                                                          000000                                                                                                                                                                                                                                                                                                                                                              000000        
DA000000208200000623010034694065ELSA ALTAGRACIA                                   MONCION                                 DE NU#EZ                                C03400208843              19540528001FC000000000000000000000000000000                                                  CASIANO GOMEZ # 46                                                                                                                                                                                                  000034N00000000000000000000000000000000000000000000000000                                                                                                                                                           00000000000000000000000000000000000000000                                                                                                                                                                                                                                                          000000                                                                                                                                                                                                                                                                                                                                                              000000        
DA000000599200000628760036792360CRECENCIA                                         PICHARDO                                DE VENTURA                              C03800096988              19550914001FC000000000000000000000000000000                                                  C/ INGENIO AMISTAD # 52                                                                                                                                                                                             000038N00000000000000000000000000000000000000000000000000                                                                                                                                                           00000000000000000000000000000000000000000                                                                                                                                                                                                                                                          000000                                                                                                                                                                                                                                                                                                                                                              000000        
DA000000598500000872210034343168DAISY EMILIA                                      ULLOA                                   DE VALERIO                              C03800023453              19440808001FC000000000000000000000000000000                                                  C/ PRESIDENTE HEUREAUX # 22                                                                                                                                                                                         000038N00000000000000000000000000000000000000000000000000                                                                                                                                                           00000000000000000000000000000000000000000                                                                                                                                                                                                                                                          000000                                                                                                                                                                                                                                                                                                                                                              000000        
DA000000281900000626510031305240ELSA VERENIS                                      EVE                                     VELOZ                                   C03700233822              19470509001FS000000000000000000000000000000                                                  C/ JHON F. KENNEDY # 15                                                                                                                                                                                             000037N00000000000000000000000000000000000000000000000000                                                                                                                                                           00000000000000000000000000000000000000000                                                                                                                                                                                                                                                          000000                                                                                                                                                                                                                                                                                                                                                              000000        
DA000000517700000625220034119013RAFAELA                                           THOMAS                                  VASQUEZ                                 C03700054871              19391212001FC000000000000000000000000000000                                                  LAS FLORES # 11                                                                                                                                                                                                     000037N00000000000000000000000000000000000000000000000000                                                                                                                                                           00000000000000000000000000000000000000000                                                                                                                                                                                                                                                          000000                                                                                                                                                                                                                                                                                                                                                              000000        
DA000000088200000872110031813221JOSE ANIBAL                                       MEDINA                                  VASQUEZ                                 C03800011292              19511009001MS000000000000000000000000000000                                                  C/ SABALLO ARRIBA # 21                                                                                                                                                                                              000038N00000000000000000000000000000000000000000000000000                                                                                                                                                           00000000000000000000000000000000000000000                                                                                                                                                                                                                                                          000000                                                                                                                                                                                                                                                                                                                                                              000000        
DA000000395600000653670047707156EPIFANIO                                          PIMENTEL                                CONCEPCION                              C06800094663              19350121001MC000000000000000000000000000000                                                  LOS MOGOTES # 459                                                                                                                                                                                                   000068N00000000000000000000000000000000000000000000000000                                                                                                                                                           00000000000000000000000000000000000000000                                                                                                                                                                                                                                                          000000                                                                                                                                                                                                                                                                                                                                                              000000        
DA000000378900000654220048121270JOSEFINA                                          MONTERO                                 OGANDO                                  C06800233345              19510912001FS000000000000000000000000000000                                                  C/ CORONEL CAAMAÑO # 02                                                                                                                                                                                             000068N00000000000000000000000000000000000000000000000000                                                                                                                                                           00000000000000000000000000000000000000000                                                                                                                                                                                                                                                          000000                                                                                                                                                                                                                                                                                                                                                              000000        
DA000000875000000556290019672930ENCARNACION                                       SOLANO                                  MARTINEZ                                C00200004752              19501208001FC000000000000000000000000000000                                                  C/ SANCRISTOBAL # 25                                                                                                                                                                                                000002N00000000000000000000000000000000000000000000000000                                                                                                                                                           00000000000000000000000000000000000000000                                                                                                                                                                                                                                                          000000                                                                                                                                                                                                                                                                                                                                                              000000        
DA000000826900000676870053626076ANIBAL                                            HEREDIA                                 GUERRA                                  C10400001540              19461002001MC000000000000000000000000000000                                                  C/ LOS MAESTROS # 1-A                                                                                                                                                                                               000104N00000000000000000000000000000000000000000000000000                                                                                                                                                           00000000000000000000000000000000000000000                                                                                                                                                                                                                                                          000000                                                                                                                                                                                                                                                                                                                                                              000000        
DA000000827000000557160017585640CARMEN                                            GARABITO                                DOMINGUEZ                               C00200106334              19470210001FC000000000000000000000000000000                                                  C/ 16 DE AGOSTO # 65                                                                                                                                                                                                000002N00000000000000000000000000000000000000000000000000                                                                                                                                                           00000000000000000000000000000000000000000                                                                                                                                                                                                                                                          000000                                                                                                                                                                                                                                                                                                                                                              000000        
DA000000315000000665970052727585MARGARITA                                         MORENO                                  DE SUERO                                C09300004331              19460315001FC000000000000000000000000000000                                                  AVE. FLORENCIANO DE LEON C/PRINCIPAL # 84                                                                                                                                                                           000093N00000000000000000000000000000000000000000000000000                                                                                                                                                           00000000000000000000000000000000000000000                                                                                                                                                                                                                                                          000000                                                                                                                                                                                                                                                                                                                                                              000000        
DA000000300400000670020051940235DIGNA ALTAGRACIA                                  CASILLA                                 DIAZ                                    C09300216992              19450224001FC000000000000000000000000000000                                                  C/ RESP. DR. NORMAN RUIZ# 52                                                                                                                                                                                        000093N00000000000000000000000000000000000000000000000000                                                                                                                                                           00000000000000000000000000000000000000000                                                                                                                                                                                                                                                          000000                                                                                                                                                                                                                                                                                                                                                              000000        
DA000000298700000560460018162056DEAGNE CLARIBEL                                   SAMBOY                                  SANCHEZ                                 C00200779312              19471115001FC000000000000000000000000000000                                                  AUSTOPISTA 6 DE NOVIEMBRE #10                                                                                                                                                                                       000002N00000000000000000000000000000000000000000000000000                                                                                                                                                           00000000000000000000000000000000000000000                                                                                                                                                                                                                                                          000000                                                                                                                                                                                                                                                                                                                                                              000000        
DA000000299200000670990052759730HILDA ANA                                         PEREZ                                   VOLQUEZ                                 C09300307775              19491028001FC000000000000000000000000000000                                                  C/ 1# 7B                                                                                                                                                                                                            000093N00000000000000000000000000000000000000000000000000                                                                                                                                                           00000000000000000000000000000000000000000                                                                                                                                                                                                                                                          000000                                                                                                                                                                                                                                                                                                                                                              000000        
DA000000394800000653950047710256HECTOR GUAROA                                     ALFAU                                   JEREZ                                   C06800121011              19340913001MC000000000000000000000000000000                                                  C/ SALOME UREÑA # 57                                                                                                                                                                                                000068N00000000000000000000000000000000000000000000000000                                                                                                                                                           00000000000000000000000000000000000000000                                                                                                                                                                                                                                                          000000                                                                                                                                                                                                                                                                                                                                                              000000        
DA000000395700000653920047409430CONSUELO                                          MONTESINO                               DE REYES                                C06800118645              19421115001FC000000000000000000000000000000                                                  C/ 1RO DE MAYO # 22                                                                                                                                                                                                 000068N00000000000000000000000000000000000000000000000000                                                                                                                                                           00000000000000000000000000000000000000000                                                                                                                                                                                                                                                          000000                                                                                                                                                                                                                                                                                                                                                              000000        
DA000000396500000654410048438261FRACNISCO JAVIER                                  FERNANDEZ                               TAPIA                                   C06800291079              19340402001MS000000000000000000000000000000                                                  C/ JUAN OSORIO # 19                                                                                                                                                                                                 000068N00000000000000000000000000000000000000000000000000                                                                                                                                                           00000000000000000000000000000000000000000                                                                                                                                                                                                                                                          000000                                                                                                                                                                                                                                                                                                                                                              000000        
DA000000395900000653740048580395PORFIRIO                                          ORTEGA                                  DIAZ                                    C06800108083              19340622001MC000000000000000000000000000000                                                  C/ JOSE DURAN # 45                                                                                                                                                                                                  000068N00000000000000000000000000000000000000000000000000                                                                                                                                                           00000000000000000000000000000000000000000                                                                                                                                                                                                                                                          000000                                                                                                                                                                                                                                                                                                                                                              000000        
DA000000396400000880060047096371ANTONIO FELIPE                                    ALMANZAR                                MARQUEZ                                 C06800000181              19440128001MC000000000000000000000000000000                                                  C/ HNAS. MIRABAL # 37                                                                                                                                                                                               000068N00000000000000000000000000000000000000000000000000                                                                                                                                                           00000000000000000000000000000000000000000                                                                                                                                                                                                                                                          000000                                                                                                                                                                                                                                                                                                                                                              000000        
DA000000351600000557230019952723ERNESTO                                           NINA                                    NINA                                    C00200113538              19400703001MC000000000000000000000000000000                                                  C/ LUIS ALBERTI, CALLEJON 2 # 7                                                                                                                                                                                     000002S00000000199306140000000000000000000000000000000000                                                                                                                                                           00000000000000000000000000000000000000000                                                                                                                                                                                                                                                          000000                                                                                                                                                                                                                                                                                                                                                              000000        
DA000000791700000557340017589234DULCE ROMUALDA                                    DOLORES                                 DE AMPARO                               C00200136596              19560102001FC000000000000000000000000000000                                                  C/ GREGORIO LUPERON #32 ENS. CONST # 32                                                                                                                                                                             000002N00000000000000000000000000000000000000000000000000                                                                                                                                                           00000000000000000000000000000000000000000                                                                                                                                                                                                                                                          000000                                                                                                                                                                                                                                                                                                                                                              000000        
DA000000576500000618620036456823CARMEN TRINIDAD                                   GOMEZ                                   SORIANO                                 C03102273327              19390213001FS000000000000000000000000000000                                                  C/ 1RA. EDIF. 7-A, APTO. 2-B                                                                                                                                                                                        000031N00000000000000000000000000000000000000000000000000                                                                                                                                                           00000000000000000000000000000000000000000                                                                                                                                                                                                                                                          000000                                                                                                                                                                                                                                                                                                                                                              000000        
DA000000599700000616260032421837DIANA DE JESUS                                    BUENO                                   DE JIMENEZ                              C03101634040              19420926001FC000000000000000000000000000000                                                  C/ COLORADO # 3                                                                                                                                                                                                     000031N00000000000000000000000000000000000000000000000000                                                                                                                                                           00000000000000000000000000000000000000000                                                                                                                                                                                                                                                          000000                                                                                                                                                                                                                                                                                                                                                              000000        
DA000000722200000623360033732983DIGNA MERCEDES                                    ADAMES                                  DURAN                                   C03500005818              19550922001FS000000000000000000000000000000                                                  NORDESTE DE LA CIUDAD # 11                                                                                                                                                                                          000035N00000000000000000000000000000000000000000000000000                                                                                                                                                           00000000000000000000000000000000000000000                                                                                                                                                                                                                                                          000000                                                                                                                                                                                                                                                                                                                                                              000000        
DA000000242100000611750032499862GUADALUPE ALTAGRACIA                              ESPINAL                                 E                                       C03100996812              19521212001FS000000000000000000000000000000                                                  C/ EL EMBRUJO III # 01                                                                                                                                                                                              000031N00000000000000000000000000000000000000000000000000                                                                                                                                                           00000000000000000000000000000000000000000                                                                                                                                                                                                                                                          000000                                                                                                                                                                                                                                                                                                                                                              000000        
DA000000600000000620620036325698JOSEFINA MERCEDES                                 UREÑA                                   DE ESTRELLA                             C03103519959              19531025001FC000000000000000000000000000000                                                  AUT. DUARTE KM. 9 1/2 # 69                                                                                                                                                                                          000031N00000000000000000000000000000000000000000000000000                                                                                                                                                           00000000000000000000000000000000000000000                                                                                                                                                                                                                                                          000000                                                                                                                                                                                                                                                                                                                                                              000000        
DA000000722100000671650051629942MIGUEL ANTONIO                                    VELEZ                                   SANTOS                                  C09400011855              19530930001MS000000000000000000000000000000                                                  C/ 14 EDIF. 5, APTO 2-B                                                                                                                                                                                             000031N00000000000000000000000000000000000000000000000000                                                                                                                                                           00000000000000000000000000000000000000000                                                                                                                                                                                                                                                          000000                                                                                                                                                                                                                                                                                                                                                              000000        
DA000000596700000610950036387431LUISA EMILIANA                                    MONTERO                                 CUEVAS                                  C03100899354              19430530001FC000000000000000000000000000000                                                  C/ PASTOR # 47                                                                                                                                                                                                      000031N00000000000000000000000000000000000000000000000000                                                                                                                                                           00000000000000000000000000000000000000000                                                                                                                                                                                                                                                          000000                                                                                                                                                                                                                                                                                                                                                              000000        
DA000000599800000617070036989846ELEUTERIA DE JESUS                                CABREJA                                                                         C03101850422              19470320001FC000000000000000000000000000000                                                  C/ AMERICAN PALMA # 78                                                                                                                                                                                              000031N00000000000000000000000000000000000000000000000000                                                                                                                                                           00000000000000000000000000000000000000000                                                                                                                                                                                                                                                          000000                                                                                                                                                                                                                                                                                                                                                              000000        
DA000000599300000629660036039587FRANCISCA                                         HIRALDO                                 DE HERNANDEZ                            C03900146337              19471203001FC000000000000000000000000000000                                                  C/ EL JAMO # 60                                                                                                                                                                                                     000039N00000000000000000000000000000000000000000000000000                                                                                                                                                           00000000000000000000000000000000000000000                                                                                                                                                                                                                                                          000000                                                                                                                                                                                                                                                                                                                                                              000000        
DA000000593700000619200035499743CECILIA CELESTE                                   MOLINA                                  GRULLON                                 C03102414731              19560926001FS000000000000000000000000000000                                                  MANZ. B, EDIF. 23, APTO 2-A                                                                                                                                                                                         000031N00000000000000000000000000000000000000000000000000                                                                                                                                                           00000000000000000000000000000000000000000                                                                                                                                                                                                                                                          000000                                                                                                                                                                                                                                                                                                                                                              000000        
DA000000722300000619410035040038FELIX MARIA                                       HERNANDEZ                               DOMINGUEZ                               C03102447087              19500809001MC000000000000000000000000000000                                                  C/ 2 EDIF. 9, APTO. 1-B                                                                                                                                                                                             000031N00000000000000000000000000000000000000000000000000                                                                                                                                                           00000000000000000000000000000000000000000                                                                                                                                                                                                                                                          000000                                                                                                                                                                                                                                                                                                                                                              000000        
DA000000220300000633360040439625ONELSIDO ANTONIO                                  GUZMAN                                                                          C04600143426              19520621001MC000000000000000000000000000000                                                  C/ JOSE MANUEL NUÑEZ # 05                                                                                                                                                                                           000116S20031210000000000000000000000000000000000000000000                                                                                                                                                           00000000000000000000000000000000000000000                                                                                                                                                                                                                                                          000000                                                                                                                                                                                                                                                                                                                                                              000000        
