EPN42
DA000000345900000565210021477156GONZALEZ  DE SILFA                                MATOS                                   GONZALEZ DE SILFA                       C01000048122              19440707001FC000000000000000000000000000000                                                  DR. ARMANDO AYBAR # 82                                                                                                                                                                                              000010N00000000000000000000000000000000000000000000000000                                                                                                                                                           00000000000000000000000000000000000000000                                                                                                                                                                                                                                                          000000                                                                                                                                                                                                                                                                                                                                                              000000        
DA000000776800000566580019393035FLAVIA                                            ACERO                                   MONTAÑO DE CRUZ                         C01000454437              19491222001FC000000000000000000000000000000                                                  MARIA TRINIDAD SANCHEZ # 08                                                                                                                                                                                         000107N00000000000000000000000000000000000000000000000000                                                                                                                                                           00000000000000000000000000000000000000000                                                                                                                                                                                                                                                          000000                                                                                                                                                                                                                                                                                                                                                              000000        
DA000000843500000566130020161502MIGUEL ANGEL                                      NUÑEZ                                   DIAZ                                    C01000159143              19480425001MC000000000000000000000000000000                                                  C/ GASTON F. DELIGNE # 53                                                                                                                                                                                           000010S19930401199312210000000000000000000000000000000000                                                                                                                                                           00000000000000000000000000000000000000000                                                                                                                                                                                                                                                          000000                                                                                                                                                                                                                                                                                                                                                              000000        
DA000000164100000579900026366212ANDREA EVALINA                                    FERRERAS                                                                        C02200014427              19420312001FC000000000000000000000000000000                                                  C/ DUERTE #28                                                                                                                                                                                                       000022N00000000000000000000000000000000000000000000000000                                                                                                                                                           00000000000000000000000000000000000000000                                                                                                                                                                                                                                                          000000                                                                                                                                                                                                                                                                                                                                                              000000        
DA000000161900000881500049107682ALTAGRACIA                                        MATOS                                   SEGURA                                  C07600012632              19450622001FS000000000000000000000000000000                                                  LIBERTAD# S/N , PARTE ATRAS                                                                                                                                                                                         000076N00000000000000000000000000000000000000000000000000                                                                                                                                                           00000000000000000000000000000000000000000                                                                                                                                                                                                                                                          000000                                                                                                                                                                                                                                                                                                                                                              000000        
DA000000163300000579750027622345JUANA                                             CUEVAS                                                                          C02200000665              19470308001FC000000000000000000000000000000                                                  ALBERTO PERDOMO#154                                                                                                                                                                                                 000022N00000000000000000000000000000000000000000000000000                                                                                                                                                           00000000000000000000000000000000000000000                                                                                                                                                                                                                                                          000000                                                                                                                                                                                                                                                                                                                                                              000000        
DA000000164300000580080028032707EULOGIA                                           MENDEZ                                  DE DUVAL                                C02200028682              19380423001FC000000000000000000000000000000                                                  RODI # #14                                                                                                                                                                                                          000022N00000000000000000000000000000000000000000000000000                                                                                                                                                           00000000000000000000000000000000000000000                                                                                                                                                                                                                                                          000000                                                                                                                                                                                                                                                                                                                                                              000000        
DA000000017300000579970025710346CARMEN MARGARITA                                  SANTANA                                                                         C02200016398              19380207001FS000000000000000000000000000000                                                  CAMBRONAL#28                                                                                                                                                                                                        000022N00000000000000000000000000000000000000000000000000                                                                                                                                                           00000000000000000000000000000000000000000                                                                                                                                                                                                                                                          000000                                                                                                                                                                                                                                                                                                                                                              000000        
DA000000164000000580000026676481MARIA ENCARNACION                                 CUEVAS                                  ACOSTA                                  C02200021836              19590908001FC000000000000000000000000000000                                                  C/ EL ENCANTO#3                                                                                                                                                                                                     000022N00000000000000000000000000000000000000000000000000                                                                                                                                                           00000000000000000000000000000000000000000                                                                                                                                                                                                                                                          000000                                                                                                                                                                                                                                                                                                                                                              000000        
DA000000465600000573090024082540ALCIDES DAVID                                     PEÑA                                                                            C01800070847              19440420001MC000000000000000000000000000000                                                  C/ 3RA, EDIF. 20, APTO. 301.                                                                                                                                                                                        000018N00000000000000000000000000000000000000000000000000                                                                                                                                                           00000000000000000000000000000000000000000                                                                                                                                                                                                                                                          000000                                                                                                                                                                                                                                                                                                                                                              000000        
DA000000460600000574960022137352MANUEL ANTONIO                                    PEÑA                                    SANTANA                                 C01800170704              19410614001MC000000000000000000000000000000                                                  C/ 7 # 26                                                                                                                                                                                                           000018N00000000000000000000000000000000000000000000000000                                                                                                                                                           00000000000000000000000000000000000000000                                                                                                                                                                                                                                                          000000                                                                                                                                                                                                                                                                                                                                                              000000        
DA000000355700000575680024945898ESTELA MARGARITA                                  PEÑA                                    SEGURA                                  C01800221952              19410623001FC000000000000000000000000000000                                                  DR. FERIS OLIVERO #87                                                                                                                                                                                               000130N00000000000000000000000000000000000000000000000000                                                                                                                                                           00000000000000000000000000000000000000000                                                                                                                                                                                                                                                          000000                                                                                                                                                                                                                                                                                                                                                              000000        
DA000000383000000598530026533651ALTAGRACIA MILQUELLA                              MUÑOZ                                   CABRERA                                 C02600499731              19480809001FS000000000000000000000000000000                                                  C/ J # 28                                                                                                                                                                                                           000026N00000000000000000000000000000000000000000000000000                                                                                                                                                           00000000000000000000000000000000000000000                                                                                                                                                                                                                                                          000000                                                                                                                                                                                                                                                                                                                                                              000000        
DA000000322000000519530016307481PATRIA FILIBERTA                                  PEÑA                                    CUEVAS                                  C00104919923              19550822001FC000000000000000000000000000000                                                  C/ FLOR DE LOTO # 11                                                                                                                                                                                                000001S19930506000000000000000000000000000000000000000000                                                                                                                                                           00000000000000000000000000000000000000000                                                                                                                                                                                                                                                          000000                                                                                                                                                                                                                                                                                                                                                              000000        
DA000000789400000491470010261915RAMONA ELENA                                      YAPORT                                  MUÑOZ                                   C00101100337              19540620001FS000000000000000000000000000000                                                  C/ PASEO A 5 #341                                                                                                                                                                                                   000001N00000000000000000000000000000000000000000000000000                                                                                                                                                           00000000000000000000000000000000000000000                                                                                                                                                                                                                                                          000000                                                                                                                                                                                                                                                                                                                                                              000000        
DA000000868500000486090006814538CESAREA GUILLERMINA                               MENDEZ                                  VASQUEZ                                 C00100452119              19440906001FC000000000000000000000000000000                                                  C/ DR. BETANCES, MANZ. D, ED. 4, APTO. 2-3                                                                                                                                                                          000224N00000000000000000000000000000000000000000000000000                                                                                                                                                           00000000000000000000000000000000000000000                                                                                                                                                                                                                                                          000000                                                                                                                                                                                                                                                                                                                                                              000000        
DA000000345600000513050003415021CARMEN                                            POLANCO                                 DE SANCHEZ                              C00103820338              19540130001FC000000000000000000000000000000                                                  DUARTE # 34                                                                                                                                                                                                         000001N00000000000000000000000000000000000000000000000000                                                                                                                                                           00000000000000000000000000000000000000000                                                                                                                                                                                                                                                          000000                                                                                                                                                                                                                                                                                                                                                              000000        
DA000000334400000504100017093186VALENTIN                                          MEDRANO                                 PEREZ                                   C00102419058              19501111001MS000000000000000000000000000000                                                  DUARTE # 13                                                                                                                                                                                                         000225N00000000000000000000000000000000000000000000000000                                                                                                                                                           00000000000000000000000000000000000000000                                                                                                                                                                                                                                                          000000                                                                                                                                                                                                                                                                                                                                                              000000        
DA000000860800000493490009154484NIEVES ROSANNA                                    SANTANA                                 CAMACHO                                 C00101252054              19561114001FS000000000000000000000000000000                                                  C/ ELVIRA DE MENDOZA#5, APTO. 9                                                                                                                                                                                     000001N00000000000000000000000000000000000000000000000000                                                                                                                                                           00000000000000000000000000000000000000000                                                                                                                                                                                                                                                          000000                                                                                                                                                                                                                                                                                                                                                              000000        
DA000000875800000496110000131435LUZ VENECIA                                       PEREZ                                   FRANCISCO                               C00101440824              19570604001FS000000000000000000000000000000                                                  C/ 8 # 259                                                                                                                                                                                                          000001S19960804000000000000000000000000000000000000000000                                                                                                                                                           00000000000000000000000000000000000000000                                                                                                                                                                                                                                                          000000                                                                                                                                                                                                                                                                                                                                                              000000        
DA000000793100000563730017722475MARTIN                                            GARCIA                                  SANCHEZ                                 C00500099734              19451111001MC000000000000000000000000000000                                                  C/SAN CARLOS #5                                                                                                                                                                                                     000048N00000000000000000000000000000000000000000000000000                                                                                                                                                           00000000000000000000000000000000000000000                                                                                                                                                                                                                                                          000000                                                                                                                                                                                                                                                                                                                                                              000000        
DA000000927700000648320042988467MARIA CONSTANZA                                   MOYA                                    VALERIO                                 C05600928096              19471013001FC000000000000000000000000000000                                                  EDIF.42 APTO. 203                                                                                                                                                                                                   000056N00000000000000000000000000000000000000000000000000                                                                                                                                                           00000000000000000000000000000000000000000                                                                                                                                                                                                                                                          000000                                                                                                                                                                                                                                                                                                                                                              000000        
DA000000270400000647950046611135LUZ MARIA                                         MUÑOZ                                   MELENDEZ                                C05600743362              19351008001FC000000000000000000000000000000                                                  SAN FCO #2-B                                                                                                                                                                                                        000056N00000000000000000000000000000000000000000000000000                                                                                                                                                           00000000000000000000000000000000000000000                                                                                                                                                                                                                                                          000000                                                                                                                                                                                                                                                                                                                                                              000000        
DA000000035600000571060022277748CATALINA                                          PEÑA                                    PENA                                    C01600007122              19480312001FC000000000000000000000000000000                                                  CARRET. SANCHEZ KM.1 1/2#23                                                                                                                                                                                         000016N00000000000000000000000000000000000000000000000000                                                                                                                                                           00000000000000000000000000000000000000000                                                                                                                                                                                                                                                          000000                                                                                                                                                                                                                                                                                                                                                              000000        
DA000000085700000673860052432757DIOGENES RAMON                                    PEÑA                                    RODRIGUEZ                               C09700066864              19501105001MC000000000000000000000000000000                                                  S/C                                                                                                                                                                                                                 000133S20011210000000000000000000000000000000000000000000                                                                                                                                                           00000000000000000000000000000000000000000                                                                                                                                                                                                                                                          000000                                                                                                                                                                                                                                                                                                                                                              000000        
DA000000341000000578960022172775MARIA LINDA                                       PEÑA                                    PEREZ                                   C02000027819              19550307001FS000000000000000000000000000000                                                  DALMIRO ADAMES#19                                                                                                                                                                                                   000020S19990920000000000000000000000000000000000000000000                                                                                                                                                           00000000000000000000000000000000000000000                                                                                                                                                                                                                                                          000000                                                                                                                                                                                                                                                                                                                                                              000000        
DA000000355200000578710022377561DELMA                                             MEDRANO                                 MEDRANO                                 C02000005054              19430611001FC000000000000000000000000000000                                                  C/ GRAL LUPERON # 1                                                                                                                                                                                                 000020N00000000000000000000000000000000000000000000000000                                                                                                                                                           00000000000000000000000000000000000000000                                                                                                                                                                                                                                                          000000                                                                                                                                                                                                                                                                                                                                                              000000        
DA000000345000000602150029087462CLEMENTINA                                        AVILA                                   CEBALLOS DE LEO                         C02800129179              19500122001FC000000000000000000000000000000                                                  C/ DIONISIO A. TRONCOSO # 25                                                                                                                                                                                        000028N00000000000000000000000000000000000000000000000000                                                                                                                                                           00000000000000000000000000000000000000000                                                                                                                                                                                                                                                          000000                                                                                                                                                                                                                                                                                                                                                              000000        
DA000000301500000642430046811705JUAN ANTONIO                                      ABREU                                   ABREU                                   C05300073896              19530114001MC000000000000000000000000000000                                                  TIREO CONSTANZA#S/N                                                                                                                                                                                                 000053N00000000000000000000000000000000000000000000000000                                                                                                                                                           00000000000000000000000000000000000000000                                                                                                                                                                                                                                                          000000                                                                                                                                                                                                                                                                                                                                                              000000        
DA000000065700000873860038393180BETHANIA MARGARITA                                PEÑA                                    REINOSO                                 C04700863139              19510911001FC000000000000000000000000000000                                                  PROL. GARCIA GODOY#44                                                                                                                                                                                               000047N00000000000000000000000000000000000000000000000000                                                                                                                                                           00000000000000000000000000000000000000000                                                                                                                                                                                                                                                          000000                                                                                                                                                                                                                                                                                                                                                              000000        
DA000000484900000873760040181552MARIA PETRONILA                                   FAÑA                                    BELTRE                                  C04700695572              19470629001FC000000000000000000000000000000                                                  AUT. DUARTE KM. 3 S/N                                                                                                                                                                                               000047N00000000000000000000000000000000000000000000000000                                                                                                                                                           00000000000000000000000000000000000000000                                                                                                                                                                                                                                                          000000                                                                                                                                                                                                                                                                                                                                                              000000        
DA000000485700000633850039860373MATILDE DEL CARMEN                                UREÑA                                   CONIELL                                 C04700022751              19411206001FC000000000000000000000000000000                                                  C/ 5 # 18                                                                                                                                                                                                           000047N00000000000000000000000000000000000000000000000000                                                                                                                                                           00000000000000000000000000000000000000000                                                                                                                                                                                                                                                          000000                                                                                                                                                                                                                                                                                                                                                              000000        
DA000000861500000649960043686126NIÑO                                              TEJADA                                  MARTINEZ                                C06000046612              19500310001MC000000000000000000000000000000                                                  C/ DUARTE # 57                                                                                                                                                                                                      000060N00000000000000000000000000000000000000000000000000                                                                                                                                                           00000000000000000000000000000000000000000                                                                                                                                                                                                                                                          000000                                                                                                                                                                                                                                                                                                                                                              000000        
DA000000861600000637950037817827MARGARITA                                         PEÑA                                    ROSARIO                                 C04800130413              19461007001FC000000000000000000000000000000                                                  C/ SAN PEDRO#3                                                                                                                                                                                                      000048N00000000000000000000000000000000000000000000000000                                                                                                                                                           00000000000000000000000000000000000000000                                                                                                                                                                                                                                                          000000                                                                                                                                                                                                                                                                                                                                                              000000        
DA000000861700000638760038152690JOSE ALTAGRACIA                                   NUÑEZ                                                                           C04800395594              19570102001MS000000000000000000000000000000                                                  C/ PRINCIPAL #43                                                                                                                                                                                                    000048N00000000000000000000000000000000000000000000000000                                                                                                                                                           00000000000000000000000000000000000000000                                                                                                                                                                                                                                                          000000                                                                                                                                                                                                                                                                                                                                                              000000        
DA000000613600000638220041202954REINA MARIA                                       BETANCES                                PEÑA DE GUZMAN                          C04800180277              19541119001FS000000000000000000000000000000                                                  C/ JIMENEZ MOYA#17                                                                                                                                                                                                  000048N00000000000000000000000000000000000000000000000000                                                                                                                                                           00000000000000000000000000000000000000000                                                                                                                                                                                                                                                          000000                                                                                                                                                                                                                                                                                                                                                              000000        
DA000000231100000656350049923921NUMANCIA ALTAGRACIA                               MUÑOZ                                   DE NUÑEZ                                C07200028806              19500413001FC000000000000000000000000000000                                                  C/ BELLER #09                                                                                                                                                                                                       000072N00000000000000000000000000000000000000000000000000                                                                                                                                                           00000000000000000000000000000000000000000                                                                                                                                                                                                                                                          000000                                                                                                                                                                                                                                                                                                                                                              000000        
DA000000583700000674300053118318ANGELA CRISTINA                                   MARICHAL                                GOMEZ                                   C10100008795              19550417001FS000000000000000000000000000000                                                  3RA #5                                                                                                                                                                                                              000101S20060321000000000000000000000000000000000000000000                                                                                                                                                           00000000000000000000000000000000000000000                                                                                                                                                                                                                                                          000000                                                                                                                                                                                                                                                                                                                                                              000000        
DA000000088400000665820052076145ROSA CESARINA                                     GENAO                                   DILONE                                  C09200033711              19641228001FC000000000000000000000000000000                                                  C/ PLAY SOFTBALL # 1                                                                                                                                                                                                000045S00000000199201030000000000000000000000000000000000                                                                                                                                                           00000000000000000000000000000000000000000                                                                                                                                                                                                                                                          000000                                                                                                                                                                                                                                                                                                                                                              000000        
DA000000146900000631830038900391SONIA DOLORES                                     ANDUJAR                                 DE CARRASCO                             C04500005352              19470421001FS000000000000000000000000000000                                                  LUCAS EVANGELISTA PAYA# 34                                                                                                                                                                                          000045N00000000000000000000000000000000000000000000000000                                                                                                                                                           00000000000000000000000000000000000000000                                                                                                                                                                                                                                                          000000                                                                                                                                                                                                                                                                                                                                                              000000        
DA000000344900000564430020862621LEDIS BETY                                        ROJAS                                   SOSA                                    C00800030942              19420705001FC000000000000000000000000000000                                                  C/S #68                                                                                                                                                                                                             000008N00000000000000000000000000000000000000000000000000                                                                                                                                                           00000000000000000000000000000000000000000                                                                                                                                                                                                                                                          000000                                                                                                                                                                                                                                                                                                                                                              000000        
DA000000860200000564650019581403MARINO                                            PEÑA                                                                            C00800077091              19510303001MS000000000000000000000000000000                                                  C/2DA#22                                                                                                                                                                                                            000008N00000000000000000000000000000000000000000000000000                                                                                                                                                           00000000000000000000000000000000000000000                                                                                                                                                                                                                                                          000000                                                                                                                                                                                                                                                                                                                                                              000000        
DA000000336600000563680021718238LEONCIA                                           PEREZ                                   DE ORTEGA                               C00500089453              19590912001FS000000000000000000000000000000                                                  C/ LA PLACETA DE PERALVILLO#83                                                                                                                                                                                      000153N00000000000000000000000000000000000000000000000000                                                                                                                                                           00000000000000000000000000000000000000000                                                                                                                                                                                                                                                          000000                                                                                                                                                                                                                                                                                                                                                              000000        
DA000000752500000563340018273730MATEA                                             CARMONA                                 DE CONTRERAS                            C00500006929              19490921001FS000000000000000000000000000000                                                  C /MARIA MATILDE ESTEVEZ # 100                                                                                                                                                                                      000005N00000000000000000000000000000000000000000000000000                                                                                                                                                           00000000000000000000000000000000000000000                                                                                                                                                                                                                                                          000000                                                                                                                                                                                                                                                                                                                                                              000000        
DA000000784800000563980020922254CRUCITA                                           PINEDA                                  MUÑOZ                                   C00500243845              19610503001FC000000000000000000000000000000                                                  C/ GASTON F. DELIGNE # 61                                                                                                                                                                                           000005N00000000000000000000000000000000000000000000000000                                                                                                                                                           00000000000000000000000000000000000000000                                                                                                                                                                                                                                                          000000                                                                                                                                                                                                                                                                                                                                                              000000        
DA000000358000000562880018774924MIGLADIS                                          MEJIA                                   NUÑEZ                                   C00400016382              19370827001FC000000000000000000000000000000                                                  DUARTE #39                                                                                                                                                                                                          000004N00000000000000000000000000000000000000000000000000                                                                                                                                                           00000000000000000000000000000000000000000                                                                                                                                                                                                                                                          000000                                                                                                                                                                                                                                                                                                                                                              000000        
DA000000476100000561310018477720CLARA E                                           LARA                                    ANDUJAR                                 C00300067964              19290207001FS000000000000000000000000000000                                                  SANTOME #70                                                                                                                                                                                                         000003N00000000000000000000000000000000000000000000000000                                                                                                                                                           00000000000000000000000000000000000000000                                                                                                                                                                                                                                                          000000                                                                                                                                                                                                                                                                                                                                                              000000        
DA000000471300000562050018148218MANUEL EUCLIDES                                   PEÑA                                    TEJEDA                                  C00300176179              19540503001MS000000000000000000000000000000                                                  C/ PENETRACION EDIF 11 # 201                                                                                                                                                                                        000003N00000000000000000000000000000000000000000000000000                                                                                                                                                           00000000000000000000000000000000000000000                                                                                                                                                                                                                                                          000000                                                                                                                                                                                                                                                                                                                                                              000000        
DA000000477000000561590018951556RAMONA                                            MONTAÑO                                 LINARES                                 C00300127420              19420831001FS000000000000000000000000000000                                                  C/ SAN TOME # 173A                                                                                                                                                                                                  000003N00000000000000000000000000000000000000000000000000                                                                                                                                                           00000000000000000000000000000000000000000                                                                                                                                                                                                                                                          000000                                                                                                                                                                                                                                                                                                                                                              000000        
DA000000476300000561330021017687MARIANELA                                         NUÑEZ                                   PAULINO                                 C00300078490              19430807001FC000000000000000000000000000000                                                  GASTON FERNANDO # 70                                                                                                                                                                                                000003N00000000000000000000000000000000000000000000000000                                                                                                                                                           00000000000000000000000000000000000000000                                                                                                                                                                                                                                                          000000                                                                                                                                                                                                                                                                                                                                                              000000        
DA000000471000000562030017661575ANGEL BIENVENIDO                                  MELO                                    PEÑA                                    C00300175361              19430920001MC000000000000000000000000000000                                                  C/DUARTE #57-A                                                                                                                                                                                                      000003N00000000000000000000000000000000000000000000000000                                                                                                                                                           00000000000000000000000000000000000000000                                                                                                                                                                                                                                                          000000                                                                                                                                                                                                                                                                                                                                                              000000        
DA000000096500000629550034166223TERESA DE JESUS                                   REYES                                   DE TORRES                               C03900104377              19520815001FC000000000000000000000000000000                                                  C/ ONASIS # 1                                                                                                                                                                                                       000039N00000000000000000000000000000000000000000000000000                                                                                                                                                           00000000000000000000000000000000000000000                                                                                                                                                                                                                                                          000000                                                                                                                                                                                                                                                                                                                                                              000000        
DA000000096600000628990037627684CARLOS JOSE                                       HENRIQUEZ                                                                       C03900005269              19500218001MC000000000000000000000000000000                                                  C/DUARTE # 3                                                                                                                                                                                                        000039S00000000199810140000000000000000000000000000000000                                                                                                                                                           00000000000000000000000000000000000000000                                                                                                                                                                                                                                                          000000                                                                                                                                                                                                                                                                                                                                                              000000        
DA000000090600000629480036973588TORIBIA                                           SOSA                                    TORIBIO                                 C03900067343              19490416001FS000000000000000000000000000000                                                  C/ QUEBRADA HONDA # 106                                                                                                                                                                                             000039N00000000000000000000000000000000000000000000000000                                                                                                                                                           00000000000000000000000000000000000000000                                                                                                                                                                                                                                                          000000                                                                                                                                                                                                                                                                                                                                                              000000        
DA000000165500000678300054204511SERGIA ANDREA                                     MEJIA                                   PEÑA DE MORA                            C12100006696              19481205001FC000000000000000000000000000000                                                  PADRE BOIL # 23                                                                                                                                                                                                     000121N00000000000000000000000000000000000000000000000000                                                                                                                                                           00000000000000000000000000000000000000000                                                                                                                                                                                                                                                          000000                                                                                                                                                                                                                                                                                                                                                              000000        
DA000000862100000673300052846976FRANCISCA                                         NOLASCO                                 CABRERA                                 C09600096458              19630704001FS000000000000000000000000000000                                                  C/ 2 # 4                                                                                                                                                                                                            000037N00000000000000000000000000000000000000000000000000                                                                                                                                                           00000000000000000000000000000000000000000                                                                                                                                                                                                                                                          000000                                                                                                                                                                                                                                                                                                                                                              000000        
DA000000281300000624830032194572SILVIA MERCEDES                                   NUÑEZ                                   GOMEZ                                   C03700024767              19410113001FS000000000000000000000000000000                                                  C/ MELLA#41                                                                                                                                                                                                         000037N00000000000000000000000000000000000000000000000000                                                                                                                                                           00000000000000000000000000000000000000000                                                                                                                                                                                                                                                          000000                                                                                                                                                                                                                                                                                                                                                              000000        
DA000000516400000626610036492831NERCIDA                                           BRITO                                   CASTAÑOS                                C03700248390              19530919001FC000000000000000000000000000000                                                  C/ C#2                                                                                                                                                                                                              000037N00000000000000000000000000000000000000000000000000                                                                                                                                                           00000000000000000000000000000000000000000                                                                                                                                                                                                                                                          000000                                                                                                                                                                                                                                                                                                                                                              000000        
DA000000152200000673900052052671FRANCISCA                                         GARCIA                                  SANTOS                                  C09700070635              19520509001FC000000000000000000000000000000                                                  PALO AMARILLO#26                                                                                                                                                                                                    000097N00000000000000000000000000000000000000000000000000                                                                                                                                                           00000000000000000000000000000000000000000                                                                                                                                                                                                                                                          000000                                                                                                                                                                                                                                                                                                                                                              000000        
DA000000164900000678350054161198JUAN                                              PEÑA                                    PEREZ                                   C12100016018              19800921001MC000000000000000000000000000000                                                  C/ SILRANO REYNOSO                                                                                                                                                                                                  000121N00000000000000000000000000000000000000000000000000                                                                                                                                                           00000000000000000000000000000000000000000                                                                                                                                                                                                                                                          000000                                                                                                                                                                                                                                                                                                                                                              000000        
DA000000177900000629930032758511VICTORIA                                          GONZALEZ                                DE AZA DE PERALTA                       C04000016313              19370703001FC000000000000000000000000000000                                                  EL RIO 5111                                                                                                                                                                                                         000040N00000000000000000000000000000000000000000000000000                                                                                                                                                           00000000000000000000000000000000000000000                                                                                                                                                                                                                                                          000000                                                                                                                                                                                                                                                                                                                                                              000000        
DA000000309500000674630053414065GRACIELA                                          UREÑA                                   HILARIO                                 C10200024619              19420818001FS000000000000000000000000000000                                                  C/1ERA #02                                                                                                                                                                                                          000037N00000000000000000000000000000000000000000000000000                                                                                                                                                           00000000000000000000000000000000000000000                                                                                                                                                                                                                                                          000000                                                                                                                                                                                                                                                                                                                                                              000000        
DA000006415000000629570034167137MANUEL                                            LENDOF                                  CABRERA                                 C03900118328              19450222001MC000000000000000000000000000000                                                                                                                                                                                                                                                                      000039N00000000000000000000000000000000000000000000000000                                                                                                                                                           00000000000000000000000000000000000000000                                                                                                                                                                                                                                                          000000                                                                                                                                                                                                                                                                                                                                                              000000        
DA000000232900000630020037297293LIDIO ANTONIO                                     MERCADO                                 CRUZ                                    C04000045106              19551210001MC000000000000000000000000000000                                                  EL ESTRECHO LUPERON APTO.106                                                                                                                                                                                        000040N00000000000000000000000000000000000000000000000000                                                                                                                                                           00000000000000000000000000000000000000000                                                                                                                                                                                                                                                          000000                                                                                                                                                                                                                                                                                                                                                              000000        
DA000000344500000553510007471346SOR MAURA                                         YANIZ                                   GARCIA                                  C00112098173              19270427001FS000000000000000000000000000000                                                  AV. SAN MARTI # 258                                                                                                                                                                                                 000037N00000000000000000000000000000000000000000000000000                                                                                                                                                           00000000000000000000000000000000000000000                                                                                                                                                                                                                                                          000000                                                                                                                                                                                                                                                                                                                                                              000000        
DA000000517500000628140033792115ALTAGRACIA                                        MARTINEZ                                MARTINEZ                                C03700677622              19470130001FS000000000000000000000000000000                                                  C/ 1RA # 80                                                                                                                                                                                                         000037N00000000000000000000000000000000000000000000000000                                                                                                                                                           00000000000000000000000000000000000000000                                                                                                                                                                                                                                                          000000                                                                                                                                                                                                                                                                                                                                                              000000        
DA000000573200000499820010644811CARIDAD ALTAGRACIA                                HENRIQUEZ                               DE VERAS                                C00101867612              19570213001FC000000000000000000000000000000                                                  MARIA JOSEFA GOMEZ NO. 66                                                                                                                                                                                           000055N00000000000000000000000000000000000000000000000000                                                                                                                                                           00000000000000000000000000000000000000000                                                                                                                                                                                                                                                          000000                                                                                                                                                                                                                                                                                                                                                              000000        
DA000000284800000639890039995748MARIA DEL ROSARIO                                 RONDON                                  SANTOS DE NUÑEZ                         C04900116775              19491126001FC000000000000000000000000000000                                                  CALLE # 10                                                                                                                                                                                                          000049N00000000000000000000000000000000000000000000000000                                                                                                                                                           00000000000000000000000000000000000000000                                                                                                                                                                                                                                                          000000                                                                                                                                                                                                                                                                                                                                                              000000        
DA000000286700000640600038828597TERESA DE JESUS                                   RONDON                                  PEÑA                                    C04900577224              19431112001FC000000000000000000000000000000                                                  C/DUARTE #                                                                                                                                                                                                          000049N00000000000000000000000000000000000000000000000000                                                                                                                                                           00000000000000000000000000000000000000000                                                                                                                                                                                                                                                          000000                                                                                                                                                                                                                                                                                                                                                              000000        
DA000000285900000639250039087008PEDRO                                             LANFRANCO                               OTAÑEZ                                  C04900001829              19421230001MC000000000000000000000000000000                                                  C/ LUPERON #32                                                                                                                                                                                                      000049N00000000000000000000000000000000000000000000000000                                                                                                                                                           00000000000000000000000000000000000000000                                                                                                                                                                                                                                                          000000                                                                                                                                                                                                                                                                                                                                                              000000        
DA000000284000000639320040893794VICTORIANA                                        OTAÑEZ                                  MANZUETA                                C04900007578              19390904001FS000000000000000000000000000000                                                  C/ JUAN SANCHEZ RAMIREZ # 99                                                                                                                                                                                        000049N00000000000000000000000000000000000000000000000000                                                                                                                                                           00000000000000000000000000000000000000000                                                                                                                                                                                                                                                          000000                                                                                                                                                                                                                                                                                                                                                              000000        
DA000000142300000662680050916471ELENA                                             PEÑA                                    CRUZ DE CASTILLO                        C08700033767              19460522001FC000000000000000000000000000000                                                  C/14EDF.7APTO.A2,                                                                                                                                                                                                   000031N00000000000000000000000000000000000000000000000000                                                                                                                                                           00000000000000000000000000000000000000000                                                                                                                                                                                                                                                          000000                                                                                                                                                                                                                                                                                                                                                              000000        
DA000000284100000640230040933645LUZ MARIA                                         AMARANTE                                NUÑEZ                                   C04900340409              19440525001FS000000000000000000000000000000                                                  C/ MELLA # 21                                                                                                                                                                                                       000049N00000000000000000000000000000000000000000000000000                                                                                                                                                           00000000000000000000000000000000000000000                                                                                                                                                                                                                                                          000000                                                                                                                                                                                                                                                                                                                                                              000000        
