EPN42
DA000000927900000805230008720996SANTIAGO                                          MARTINEZ                                                                        C00103337812              19391130001MC000000000000000000000000000000                                                  C/ E # 91                                                                                                                                                                                                           000001N00000000000000000000000000000000000000000000000000                                                                                                                                                           00000000000000000000000000000000000000000                                                                                                                                                                                                                                                          000000                                                                                                                                                                                                                                                                                                                                                              000000        
DA000000928500000580150029181224ERVA RUDI                                         HERASME                                                                         C02200040992              19440923001FC000000000000000000000000000000                                                  C/ UNIVERSO # 28                                                                                                                                                                                                    000001N00000000000000000000000000000000000000000000000000                                                                                                                                                           00000000000000000000000000000000000000000                                                                                                                                                                                                                                                          000000                                                                                                                                                                                                                                                                                                                                                              000000        
DA000000916000000647700046607325CLEMENCIA                                         MOYA                                    VALERIO                                 C05600698525              19510317001FC000000000000000000000000000000                                                  C/ 1RA. # 1                                                                                                                                                                                                         000056N00000000000000000000000000000000000000000000000000                                                                                                                                                           00000000000000000000000000000000000000000                                                                                                                                                                                                                                                          000000                                                                                                                                                                                                                                                                                                                                                              000000        
DA000000276900000647050044508255ELSA ESTELA                                       DE LA CRUZ                              AYALA                                   C05600260094              19431211001FC000000000000000000000000000000                                                  C/ DUVERGE # 55-ALTOS                                                                                                                                                                                               000056N00000000000000000000000000000000000000000000000000                                                                                                                                                           00000000000000000000000000000000000000000                                                                                                                                                                                                                                                          000000                                                                                                                                                                                                                                                                                                                                                              000000        
DA000000266700000646990046961830MARIA ALTAGRACIA DE LOS A                         DURAN                                                                           C05600240955              19511212001FS000000000000000000000000000000                                                  C/ CASTILLO # 23                                                                                                                                                                                                    000056N00000000000000000000000000000000000000000000000000                                                                                                                                                           00000000000000000000000000000000000000000                                                                                                                                                                                                                                                          000000                                                                                                                                                                                                                                                                                                                                                              000000        
DA000000266000000647350046973204LUIS JOSE                                         NUÑEZ                                   PANTALEON                               C05600426059              19460622001MS000000000000000000000000000000                                                  SECCION HATILLO#122-23                                                                                                                                                                                              000056N00000000000000000000000000000000000000000000000000                                                                                                                                                           00000000000000000000000000000000000000000                                                                                                                                                                                                                                                          000000                                                                                                                                                                                                                                                                                                                                                              000000        
DA000000405900000582530025109095MANUEL ENRIQUE                                    ZORRILLA                                VIDAL                                   C02300257850              19500716001MC000000000000000000000000000000                                                  C/ GALAN MARTE # 51                                                                                                                                                                                                 000023N00000000000000000000000000000000000000000000000000                                                                                                                                                           00000000000000000000000000000000000000000                                                                                                                                                                                                                                                          000000                                                                                                                                                                                                                                                                                                                                                              000000        
DA000000699000000601640029079035RAFAELA                                           CASTILLO                                REYES                                   C02800067478              19391024001FC000000000000000000000000000000                                                  C/ DUVERGE # 85                                                                                                                                                                                                     000028N00000000000000000000000000000000000000000000000000                                                                                                                                                           00000000000000000000000000000000000000000                                                                                                                                                                                                                                                          000000                                                                                                                                                                                                                                                                                                                                                              000000        
DA000000696500000602610026191450GILMA                                             CASTILLO                                MARTINEZ                                C02800277283              19490826001FC000000000000000000000000000000                                                  LOS PALOS # 28                                                                                                                                                                                                      000028N00000000000000000000000000000000000000000000000000                                                                                                                                                           00000000000000000000000000000000000000000                                                                                                                                                                                                                                                          000000                                                                                                                                                                                                                                                                                                                                                              000000        
DA000000698200000601250025939005BARBARIN                                          DEL RIO                                 PILIER                                  C02800007680              19401224001MC000000000000000000000000000000                                                  C/ JOSE A. SANTANA # 84                                                                                                                                                                                             000028N00000000000000000000000000000000000000000000000000                                                                                                                                                           00000000000000000000000000000000000000000                                                                                                                                                                                                                                                          000000                                                                                                                                                                                                                                                                                                                                                              000000        
DA000000696100000602100028464407JUANA MARIA                                       GUILAMO                                 JIMENEZ                                 C02800120145              19500819001FS000000000000000000000000000000                                                  C/ FRAY A. MONTESINOS # 7                                                                                                                                                                                           000028N00000000000000000000000000000000000000000000000000                                                                                                                                                           00000000000000000000000000000000000000000                                                                                                                                                                                                                                                          000000                                                                                                                                                                                                                                                                                                                                                              000000        
DA000000695700000602430025277587JOSE DEL CARMEN                                   GIL                                                                             C02800173102              19450226001MC000000000000000000000000000000                                                  C/ 19 S/N                                                                                                                                                                                                           000028S19941005000000000000000000000000000000000000000000                                                                                                                                                           00000000000000000000000000000000000000000                                                                                                                                                                                                                                                          000000                                                                                                                                                                                                                                                                                                                                                              000000        
DA000000697400000601350029465288JUANA                                             CASTILLO                                CEDANO DE REYES                         C02800020220              19500718001FC000000000000000000000000000000                                                  C/ VICTOR DE CASTRO # 25                                                                                                                                                                                            000028N00000000000000000000000000000000000000000000000000                                                                                                                                                           00000000000000000000000000000000000000000                                                                                                                                                                                                                                                          000000                                                                                                                                                                                                                                                                                                                                                              000000        
DA000000696400000602160028765602PELAGIA                                           CEDANO                                  CEDANO                                  C02800129955              19550711001FC000000000000000000000000000000                                                  C/ HOTEL GENESIS # 40                                                                                                                                                                                               000028N00000000000000000000000000000000000000000000000000                                                                                                                                                           00000000000000000000000000000000000000000                                                                                                                                                                                                                                                          000000                                                                                                                                                                                                                                                                                                                                                              000000        
DA000000697500000601300026879411ANGELA                                            MEJIA                                   RIJO DE CASTILLO                        C02800016293              19560531001FC000000000000000000000000000000                                                  AV. JUAN XXIII # 9                                                                                                                                                                                                  000028S20021230000000000000000000000000000000000000000000                                                                                                                                                           00000000000000000000000000000000000000000                                                                                                                                                                                                                                                          000000                                                                                                                                                                                                                                                                                                                                                              000000        
DA000000696200000601740028759578DIONISIA                                          RIJO                                    RIJO                                    C02800081214              19501009001FS000000000000000000000000000000                                                  C/ ADAMANAY # 91                                                                                                                                                                                                    000028N00000000000000000000000000000000000000000000000000                                                                                                                                                           00000000000000000000000000000000000000000                                                                                                                                                                                                                                                          000000                                                                                                                                                                                                                                                                                                                                                              000000        
DA000000698000000597810029430944TOMAS EMERITO                                     BATISTA                                 CASTRO                                  C02600406942              19610922001MS000000000000000000000000000000                                                  C/ CAYACOA # 27                                                                                                                                                                                                     000028N00000000000000000000000000000000000000000000000000                                                                                                                                                           00000000000000000000000000000000000000000                                                                                                                                                                                                                                                          000000                                                                                                                                                                                                                                                                                                                                                              000000        
DA000000696000000601290028149903BLASINA                                           DE LA ROSA                              CEDANO                                  C02800014272              19570203001FC000000000000000000000000000000                                                  C/ SAN MARTIN, PROL. LOS ROSALES # 26                                                                                                                                                                               000028N00000000000000000000000000000000000000000000000000                                                                                                                                                           00000000000000000000000000000000000000000                                                                                                                                                                                                                                                          000000                                                                                                                                                                                                                                                                                                                                                              000000        
DA000000696300000602570026589297MARIA JOSEFINA                                    AVILA                                   AVILA                                   C02800235752              19670127001FC000000000000000000000000000000                                                  CARRT. MELLA KM 8                                                                                                                                                                                                   000028S19941220199603170000000000000000000000000000000000                                                                                                                                                           00000000000000000000000000000000000000000                                                                                                                                                                                                                                                          000000                                                                                                                                                                                                                                                                                                                                                              000000        
DA000000468400000562510017929472FRANCIA                                           ROMAN                                   ARIAS                                   C00300523446              19430110001FS000000000000000000000000000000                                                  C/ PENETRACION EDIF. 14, APTO. 302                                                                                                                                                                                  000003N00000000000000000000000000000000000000000000000000                                                                                                                                                           00000000000000000000000000000000000000000                                                                                                                                                                                                                                                          000000                                                                                                                                                                                                                                                                                                                                                              000000        
DA000000408400000844610029608126ALBA AURORA                                       NOLASCO                                 SANTANA DE RAMOS                        C02300468820              19490628001FC000000000000000000000000000000                                                  C/ FRANCISCA MERCEDES # 20                                                                                                                                                                                          000023N00000000000000000000000000000000000000000000000000                                                                                                                                                           00000000000000000000000000000000000000000                                                                                                                                                                                                                                                          000000                                                                                                                                                                                                                                                                                                                                                              000000        
DA000000403100000582960026276325ALEJANDRO                                         WILLIAMG                                                                        C02300303985              19410111001MC000000000000000000000000000000                                                  C/ SAYAS BAZAN # 39                                                                                                                                                                                                 000023N00000000000000000000000000000000000000000000000000                                                                                                                                                           00000000000000000000000000000000000000000                                                                                                                                                                                                                                                          000000                                                                                                                                                                                                                                                                                                                                                              000000        
DA000000406900000603580028935605HILARIO                                           CORDONES                                                                        C03000000707              19290924001MS000000000000000000000000000000                                                  C/ JOSE EUGENIO KUNJAR # 50                                                                                                                                                                                         000023N00000000000000000000000000000000000000000000000000                                                                                                                                                           00000000000000000000000000000000000000000                                                                                                                                                                                                                                                          000000                                                                                                                                                                                                                                                                                                                                                              000000        
DA000000408200000580890028364580GILBERTO                                          SOSA                                    VARGAS                                  C02300018278              19330628001MC000000000000000000000000000000                                                  C/ SANTA FE # 34                                                                                                                                                                                                    000023N00000000000000000000000000000000000000000000000000                                                                                                                                                           00000000000000000000000000000000000000000                                                                                                                                                                                                                                                          000000                                                                                                                                                                                                                                                                                                                                                              000000        
DA000000407400000582200028093293LUIS EDUARDO                                      CEDEÑO                                  RINCON                                  C02300233919              19380503001MC000000000000000000000000000000                                                  C/ AURORA # 13                                                                                                                                                                                                      000023N00000000000000000000000000000000000000000000000000                                                                                                                                                           00000000000000000000000000000000000000000                                                                                                                                                                                                                                                          000000                                                                                                                                                                                                                                                                                                                                                              000000        
DA000000404500000583430028111765CANDIDA JULIA                                     PEÑA                                                                            C02300379597              19490420001FC000000000000000000000000000000                                                  C/ SALEME # 39                                                                                                                                                                                                      000023N00000000000000000000000000000000000000000000000000                                                                                                                                                           00000000000000000000000000000000000000000                                                                                                                                                                                                                                                          000000                                                                                                                                                                                                                                                                                                                                                              000000        
DA000000408100000582750025706095MAGALY                                            VELAZQUEZ                               FUENTES                                 C02300276728              19410425001FC000000000000000000000000000000                                                  C/ PRINCIPAL # 30                                                                                                                                                                                                   000023N00000000000000000000000000000000000000000000000000                                                                                                                                                           00000000000000000000000000000000000000000                                                                                                                                                                                                                                                          000000                                                                                                                                                                                                                                                                                                                                                              000000        
DA000000408600000583060029525267GREGORIA                                          PATRICIO                                DE RAMOS                                C02300315195              19370312001FC000000000000000000000000000000                                                  C/ FILLO A. KIDD # 13                                                                                                                                                                                               000023N00000000000000000000000000000000000000000000000000                                                                                                                                                           00000000000000000000000000000000000000000                                                                                                                                                                                                                                                          000000                                                                                                                                                                                                                                                                                                                                                              000000        
DA000000408300000581680028083186EULALIA                                           FIGUEROA                                MOTA DE MONTAS                          C02300143670              19300209001FC000000000000000000000000000000                                                  C/ ESTEBAN SUAZO EDIF. 10, APTO. 1-B                                                                                                                                                                                000023N00000000000000000000000000000000000000000000000000                                                                                                                                                           00000000000000000000000000000000000000000                                                                                                                                                                                                                                                          000000                                                                                                                                                                                                                                                                                                                                                              000000        
DA000000404400000582780029603984JULIO CESAR                                       DE LA ROSA                                                                      C02300278708              19440313001MS000000000000000000000000000000                                                  C/ 6 # 10                                                                                                                                                                                                           000023N00000000000000000000000000000000000000000000000000                                                                                                                                                           00000000000000000000000000000000000000000                                                                                                                                                                                                                                                          000000                                                                                                                                                                                                                                                                                                                                                              000000        
DA000000401200000581380027469386CARMEN NILDA                                      RAWLINS                                 CASTILLO                                C02300108905              19410716001FS000000000000000000000000000000                                                  C/ PTE. MERIÑO # 26                                                                                                                                                                                                 000023N00000000000000000000000000000000000000000000000000                                                                                                                                                           00000000000000000000000000000000000000000                                                                                                                                                                                                                                                          000000                                                                                                                                                                                                                                                                                                                                                              000000        
DA000000403600000583450027801492FRIDA                                             SOSA                                    VARGAS                                  C02300389745              19380509001FC000000000000000000000000000000                                                  C/ ZAYAS BAZAN # 22                                                                                                                                                                                                 000023N00000000000000000000000000000000000000000000000000                                                                                                                                                           00000000000000000000000000000000000000000                                                                                                                                                                                                                                                          000000                                                                                                                                                                                                                                                                                                                                                              000000        
DA000000403300000583170026595917NORA AUGUSTA                                      MENDEZ                                  PUELLO                                  C02300327398              19390816001MS000000000000000000000000000000                                                  C/ LUIS A. BERMUDES # 53                                                                                                                                                                                            000023N00000000000000000000000000000000000000000000000000                                                                                                                                                           00000000000000000000000000000000000000000                                                                                                                                                                                                                                                          000000                                                                                                                                                                                                                                                                                                                                                              000000        
DA000000365400000582290026584418ANA JOSEFA                                        READ                                    DE LEON                                 C02300242118              19480319001FC000000000000000000000000000000                                                  C/ PROVIDENCIA LUGO # 6                                                                                                                                                                                             000023N00000000000000000000000000000000000000000000000000                                                                                                                                                           00000000000000000000000000000000000000000                                                                                                                                                                                                                                                          000000                                                                                                                                                                                                                                                                                                                                                              000000        
DA000000403200000844650027277473SILVIA ELENA                                      FULGENCIO                               MANZANILLO                              C02300473853              19491101001FC000000000000000000000000000000                                                  C/ FRANCISCA MERCEDES # 29                                                                                                                                                                                          000138N00000000000000000000000000000000000000000000000000                                                                                                                                                           00000000000000000000000000000000000000000                                                                                                                                                                                                                                                          000000                                                                                                                                                                                                                                                                                                                                                              000000        
DA000000366300000585580027231920EDITA                                             GERONIMO                                RIVERA                                  C02300650146              19360916001FS000000000000000000000000000000                                                  C/ CONSUELO # 11                                                                                                                                                                                                    000023N00000000000000000000000000000000000000000000000000                                                                                                                                                           00000000000000000000000000000000000000000                                                                                                                                                                                                                                                          000000                                                                                                                                                                                                                                                                                                                                                              000000        
DA000000498800000585920029814791DARIS MARIXA                                      JIMENEZ                                 LORENZO                                 C02300721871              19550525001FS000000000000000000000000000000                                                  C/ 14 DE JUNIO # 29                                                                                                                                                                                                 000023N00000000000000000000000000000000000000000000000000                                                                                                                                                           00000000000000000000000000000000000000000                                                                                                                                                                                                                                                          000000                                                                                                                                                                                                                                                                                                                                                              000000        
DA000000401500001025890025388245EDITA MARIA                                       URIBE                                   GUERRERO DE TINEO                       C02300237183              19420915001FC000000000000000000000000000000                                                  C/ 2DA. # 9                                                                                                                                                                                                         000023N00000000000000000000000000000000000000000000000000                                                                                                                                                           00000000000000000000000000000000000000000                                                                                                                                                                                                                                                          000000                                                                                                                                                                                                                                                                                                                                                              000000        
DA000000499200000582810029605641PETRA GEORGINA                                    LENDERF                                 GATON                                   C02300280084              19360629001FC000000000000000000000000000000                                                  C/ 10 DE SEPTIEMBRE # 72                                                                                                                                                                                            000023S19930207199410200000000000000000000000000000000000                                                                                                                                                           00000000000000000000000000000000000000000                                                                                                                                                                                                                                                          000000                                                                                                                                                                                                                                                                                                                                                              000000        
DA000000402700001024970029575563ANA YOCASTA                                       ROBERTO                                 ORTIZ                                   C02300036890              19460811001FS000000000000000000000000000000                                                  C/ LIC. LAUREANO CANTO # 31                                                                                                                                                                                         000023N00000000000000000000000000000000000000000000000000                                                                                                                                                           00000000000000000000000000000000000000000                                                                                                                                                                                                                                                          000000                                                                                                                                                                                                                                                                                                                                                              000000        
DA000000406600000603630029845975DULCE MARIA REGINA                                RAMIREZ                                 DE GARCIA                               C03000002836              19501006001FS000000000000000000000000000000                                                  C/ 12 DE JULIO # 23                                                                                                                                                                                                 000023N00000000000000000000000000000000000000000000000000                                                                                                                                                           00000000000000000000000000000000000000000                                                                                                                                                                                                                                                          000000                                                                                                                                                                                                                                                                                                                                                              000000        
DA000000595800000607880036336135EULOGIO                                           SANCHEZ                                 VASQUEZ                                 C03100468655              19490718001MC000000000000000000000000000000                                                  C/ 4 # 11                                                                                                                                                                                                           000031S19960927000000000000000000000000000000000000000000                                                                                                                                                           00000000000000000000000000000000000000000                                                                                                                                                                                                                                                          000000                                                                                                                                                                                                                                                                                                                                                              000000        
DA000000596200000608470035361832FELIPE ANTONIO                                    QUEZADA                                 RODRIGUEZ                               C03100547250              19480620001MS000000000000000000000000000000                                                  AVE ANT. GUSMAN APT-AL-11                                                                                                                                                                                           000031S19960903200008180000000000000000000000000000000000                                                                                                                                                           00000000000000000000000000000000000000000                                                                                                                                                                                                                                                          000000                                                                                                                                                                                                                                                                                                                                                              000000        
DA000000598700000607490036142892OLGA ALTAGRACIA                                   PEÑA                                    VARGAS                                  C03100418353              19470317001FC000000000000000000000000000000                                                  EDIF.45 APT.202                                                                                                                                                                                                     000031N00000000000000000000000000000000000000000000000000                                                                                                                                                           00000000000000000000000000000000000000000                                                                                                                                                                                                                                                          000000                                                                                                                                                                                                                                                                                                                                                              000000        
DA000000597700000614540035248290ALIDA DE LA CRUZ                                  HILARIO                                 TINEO                                   C03101425407              19460503001FC000000000000000000000000000000                                                  C/ GURABO ALMEDIO # 198                                                                                                                                                                                             000036N00000000000000000000000000000000000000000000000000                                                                                                                                                           00000000000000000000000000000000000000000                                                                                                                                                                                                                                                          000000                                                                                                                                                                                                                                                                                                                                                              000000        
DA000000598600001039520032354125JUAN ARMANDO                                      RODRIGUEZ                               BALBUENA                                C03100269178              19441120001MC000000000000000000000000000000                                                  EL ELEGIDO # 18                                                                                                                                                                                                     000031N00000000000000000000000000000000000000000000000000                                                                                                                                                           00000000000000000000000000000000000000000                                                                                                                                                                                                                                                          000000                                                                                                                                                                                                                                                                                                                                                              000000        
DA000000597800000612990032992453MARIA LUISA                                       ABREU                                   VASQUEZ DE CERVERA                      C03101121345              19540305001FC000000000000000000000000000000                                                  MANZANA A EDIF.9  APAT. 3-B                                                                                                                                                                                         000031N00000000000000000000000000000000000000000000000000                                                                                                                                                           00000000000000000000000000000000000000000                                                                                                                                                                                                                                                          000000                                                                                                                                                                                                                                                                                                                                                              000000        
DA000000597500000615160036181893ISABEL CELESTE                                    PADILLA                                 QUIÑONES                                C03101500514              19480208001FC000000000000000000000000000000                                                  MANZ. B EDIF. # 17                                                                                                                                                                                                  000031N00000000000000000000000000000000000000000000000000                                                                                                                                                           00000000000000000000000000000000000000000                                                                                                                                                                                                                                                          000000                                                                                                                                                                                                                                                                                                                                                              000000        
DA000000597300000613970030494837MARIA ISABEL                                      BETANCES                                DE TAVAREZ                              C03101247223              19511007001FC000000000000000000000000000000                                                  C/  LOS PINOS # 236                                                                                                                                                                                                 000142N00000000000000000000000000000000000000000000000000                                                                                                                                                           00000000000000000000000000000000000000000                                                                                                                                                                                                                                                          000000                                                                                                                                                                                                                                                                                                                                                              000000        
DA000000219300000632830038601275ANDRES NICOLAS                                    ESTEVEZ                                 PEÑA                                    C04600030219              19380321001MC000000000000000000000000000000                                                  C/ LIBERTAD #15                                                                                                                                                                                                     000116N00000000000000000000000000000000000000000000000000                                                                                                                                                           00000000000000000000000000000000000000000                                                                                                                                                                                                                                                          000000                                                                                                                                                                                                                                                                                                                                                              000000        
DA000000219500000632410042255658EVANGELINA VICTORIA                               ESTEVEZ                                 RODRIGUEZ                               C04600007035              19450111001FC000000000000000000000000000000                                                  C/ JOSE CABRERA # 21                                                                                                                                                                                                000046N00000000000000000000000000000000000000000000000000                                                                                                                                                           00000000000000000000000000000000000000000                                                                                                                                                                                                                                                          000000                                                                                                                                                                                                                                                                                                                                                              000000        
DA000000586600000633430039838050JOSE CATALINO                                     JAQUEZ                                  GOMEZ                                   C04600175600              19400329001MC000000000000000000000000000000                                                  S/C # 53                                                                                                                                                                                                            000116N00000000000000000000000000000000000000000000000000                                                                                                                                                           00000000000000000000000000000000000000000                                                                                                                                                                                                                                                          000000                                                                                                                                                                                                                                                                                                                                                              000000        
DA000004197000000633340038927663MELIDO                                            GARCIA                                  GUZMAN                                  C04600143046              19480615001MC000000000000000000000000000000                                                  C/LIBERTAD #31                                                                                                                                                                                                      000116N00000000000000000000000000000000000000000000000000                                                                                                                                                           00000000000000000000000000000000000000000                                                                                                                                                                                                                                                          000000                                                                                                                                                                                                                                                                                                                                                              000000        
DA000000218100000632530038599031ZUNILDA                                           ROMAN                                   CABRERA                                 C04600013868              19420716001FC000000000000000000000000000000                                                  C/ ROSA BENITA RODRIGUEZ # 04                                                                                                                                                                                       000046N00000000000000000000000000000000000000000000000000                                                                                                                                                           00000000000000000000000000000000000000000                                                                                                                                                                                                                                                          000000                                                                                                                                                                                                                                                                                                                                                              000000        
DA000000586700000633010039819815ELENA EMPERATRIZ                                  GOMEZ                                   DURAN                                   C04600051967              19350530001FC000000000000000000000000000000                                                  C/ BABOSO # 32                                                                                                                                                                                                      000046N00000000000000000000000000000000000000000000000000                                                                                                                                                           00000000000000000000000000000000000000000                                                                                                                                                                                                                                                          000000                                                                                                                                                                                                                                                                                                                                                              000000        
DA000000587100000633020039211947MIGUEL GREGORIO DE DIOS                           LECLERC                                 LECLERC                                 C04600052387              19370813001MC000000000000000000000000000000                                                                                                                                                                                                                                                                      000046N00000000000000000000000000000000000000000000000000                                                                                                                                                           00000000000000000000000000000000000000000                                                                                                                                                                                                                                                          000000                                                                                                                                                                                                                                                                                                                                                              000000        
DA000000587700000633350038927670QUISQUEYA                                         GARCIA                                  GUZMAN DE JAQUE                         C04600143053              19560831001FC000000000000000000000000000000                                                  C/RESTAURACION FINAL PARTE ATRAS                                                                                                                                                                                    000116S20000523000000000000000000000000000000000000000000                                                                                                                                                           00000000000000000000000000000000000000000                                                                                                                                                                                                                                                          000000                                                                                                                                                                                                                                                                                                                                                              000000        
DA000000580600000632930038601971ARISMENDY                                         GOMEZ                                   RODRIGUEZ                               C04600041158              19500127001MC000000000000000000000000000000                                                  C/AMBROSIO ECHAVARRIA #82                                                                                                                                                                                           000046N00000000000000000000000000000000000000000000000000                                                                                                                                                           00000000000000000000000000000000000000000                                                                                                                                                                                                                                                          000000                                                                                                                                                                                                                                                                                                                                                              000000        
DA000004201500000873180038923306DOMINGO                                           RODRIGUEZ                               REYES                                   C04600095725              19450825001MC000000000000000000000000000000                                                  C/ARROYO BLANCO                                                                                                                                                                                                     000046N00000000000000000000000000000000000000000000000000                                                                                                                                                           00000000000000000000000000000000000000000                                                                                                                                                                                                                                                          000000                                                                                                                                                                                                                                                                                                                                                              000000        
DA000000214700000633510041643012JOSE MANUEL                                       GOMEZ                                   RODRIGUEZ                               C04600214896              19540825001MS000000000000000000000000000000                                                  C/ CATALINA DE LEON # 6                                                                                                                                                                                             000046N00000000000000000000000000000000000000000000000000                                                                                                                                                           00000000000000000000000000000000000000000                                                                                                                                                                                                                                                          000000                                                                                                                                                                                                                                                                                                                                                              000000        
DA000000580000000633130037676303ANGELA MERCEDES                                   REYES                                   DE JAQUEZ                               C04600074308              19460204001FC000000000000000000000000000000                                                  C/ BARRIGON ESTANCIA VIEJA # 23                                                                                                                                                                                     000046N00000000000000000000000000000000000000000000000000                                                                                                                                                           00000000000000000000000000000000000000000                                                                                                                                                                                                                                                          000000                                                                                                                                                                                                                                                                                                                                                              000000        
DA000000587300000632850040115251ELSA ALTAGRACIA                                   BELTRAND                                REYES                                   C04600033957              19361205001FC000000000000000000000000000000                                                  C/ RESTAURACION # 52                                                                                                                                                                                                000046N00000000000000000000000000000000000000000000000000                                                                                                                                                           00000000000000000000000000000000000000000                                                                                                                                                                                                                                                          000000                                                                                                                                                                                                                                                                                                                                                              000000        
DA000000584200000633290039829270JOSE MARIA                                        ECHAVARRIA                              ALMONTE                                 C04600131538              19390527001MC000000000000000000000000000000                                                  C/ JOSE REYES #17                                                                                                                                                                                                   000046N00000000000000000000000000000000000000000000000000                                                                                                                                                           00000000000000000000000000000000000000000                                                                                                                                                                                                                                                          000000                                                                                                                                                                                                                                                                                                                                                              000000        
DA000000220200000633330041016751BELGICA GEORGINA                                  HICIANO                                 DE DIAZ                                 C04600138632              19540720001FC000000000000000000000000000000                                                  C/ DUARTE # 71                                                                                                                                                                                                      000116N00000000000000000000000000000000000000000000000000                                                                                                                                                           00000000000000000000000000000000000000000                                                                                                                                                                                                                                                          000000                                                                                                                                                                                                                                                                                                                                                              000000        
DA000000232100000633500040448683MARIA DE LOS ANGELES                              CABRERA                                 RODRIGUEZ                               C04600213781              19510821001FC000000000000000000000000000000                                                  C/ GREGORIO LUPERON # 39                                                                                                                                                                                            000046N00000000000000000000000000000000000000000000000000                                                                                                                                                           00000000000000000000000000000000000000000                                                                                                                                                                                                                                                          000000                                                                                                                                                                                                                                                                                                                                                              000000        
DA000000231800000633190041629990ANA CASILDA                                       VALERIO                                 DE THOMAS                               C04600102190              19580409001FC000000000000000000000000000000                                                  C/ CAPOTILLO # 28                                                                                                                                                                                                   000046N00000000000000000000000000000000000000000000000000                                                                                                                                                           00000000000000000000000000000000000000000                                                                                                                                                                                                                                                          000000                                                                                                                                                                                                                                                                                                                                                              000000        
DA000000588000000633480037691797ADRIANO DEL CARMEN                                CASTILLO                                JAQUEZ                                  C04600207155              19541202001MC000000000000000000000000000000                                                  C/ IGNACIO REYES # 11                                                                                                                                                                                               000046N00000000000000000000000000000000000000000000000000                                                                                                                                                           00000000000000000000000000000000000000000                                                                                                                                                                                                                                                          000000                                                                                                                                                                                                                                                                                                                                                              000000        
DA000000587000000633110042262758CARMEN DE JESUS                                   BAEZ                                    TAVAREZ                                 C04600067104              19510417001FC000000000000000000000000000000                                                  C/ ARROYO SECO # 84                                                                                                                                                                                                 000046N00000000000000000000000000000000000000000000000000                                                                                                                                                           00000000000000000000000000000000000000000                                                                                                                                                                                                                                                          000000                                                                                                                                                                                                                                                                                                                                                              000000        
DA000000217500000632630038272995YDALINA DE JESUS  DE JESUS                        RODRIGUEZ RODRIGUEZ                     DE TEJADA                               C04600018339              19531215001FS000000000000000000000000000000                                                  C/ JOSE CABRERA # 120                                                                                                                                                                                               000046N00000000000000000000000000000000000000000000000000                                                                                                                                                           00000000000000000000000000000000000000000                                                                                                                                                                                                                                                          000000                                                                                                                                                                                                                                                                                                                                                              000000        
DA000000219700000632720041310002MILAGROS ANTONIA                                  ESTEVEZ                                 RAMOS                                   C04600025292              19411030001FC000000000000000000000000000000                                                  C/JOSE E. RODRIGUEZ NO. 2                                                                                                                                                                                           000046N00000000000000000000000000000000000000000000000000                                                                                                                                                           00000000000000000000000000000000000000000                                                                                                                                                                                                                                                          000000                                                                                                                                                                                                                                                                                                                                                              000000        
DA000000218700000632370041933598QUIRICO JUSTINO                                   ALMOTE                                  ALMONTE                                 C04600005872              19460616001MC000000000000000000000000000000                                                  PROCERES DE LA RESTAURACION NO. 92                                                                                                                                                                                  000046N00000000000000000000000000000000000000000000000000                                                                                                                                                           00000000000000000000000000000000000000000                                                                                                                                                                                                                                                          000000                                                                                                                                                                                                                                                                                                                                                              000000        
DA000000216900000632540040112527VICTOR RAFAEL                                     TEJADA                                  PERALTA                                 C04600014205              19420806001MC000000000000000000000000000000                                                  C/ JOSE CABRERA # 16                                                                                                                                                                                                000046N00000000000000000000000000000000000000000000000000                                                                                                                                                           00000000000000000000000000000000000000000                                                                                                                                                                                                                                                          000000                                                                                                                                                                                                                                                                                                                                                              000000        
DA000000217000000632840041936647MILEDYS ESPERANZA                                 RODRIGUEZ                               ESTEVEZ                                 C04600032363              19481220001FC000000000000000000000000000000                                                  C/ JOSE CABRERA # 10                                                                                                                                                                                                000046N00000000000000000000000000000000000000000000000000                                                                                                                                                           00000000000000000000000000000000000000000                                                                                                                                                                                                                                                          000000                                                                                                                                                                                                                                                                                                                                                              000000        
