EPN42
DA000000849200001022660019072211CELESTE DE JESUS                                  TRINIDAD                                                                        C01000078566              19461224001FS000000000000000000000000000000                                                  VICENTE NOBLE#82                                                                                                                                                                                                    000010N00000000000000000000000000000000000000000000000000                                                                                                                                                           00000000000000000000000000000000000000000                                                                                                                                                                                                                                                          000000                                                                                                                                                                                                                                                                                                                                                              000000        
DA000000915600000566530019391912LUIS HERNANDO                                     PEREZ                                                                           C01000437382              19450125001MS000000000000000000000000000000                                                  DUARTE #69                                                                                                                                                                                                          000010N00000000000000000000000000000000000000000000000000                                                                                                                                                           00000000000000000000000000000000000000000                                                                                                                                                                                                                                                          000000                                                                                                                                                                                                                                                                                                                                                              000000        
DA000000240600000631120041369031BRUNILDA ALTAGRACIA                               RECIO                                   GUZMAN DE UREÑA                         C04300008150              19441006001FC000000000000000000000000000000                                                  C/SOTERO BLANC#16                                                                                                                                                                                                   000043N00000000000000000000000000000000000000000000000000                                                                                                                                                           00000000000000000000000000000000000000000                                                                                                                                                                                                                                                          000000                                                                                                                                                                                                                                                                                                                                                              000000        
DA000000241100000631080040731500JOSE FRANCISCO                                    BELLIARD                                                                        C04300006329              19430401001MS000000000000000000000000000000                                                  C/ CARRT. DE NEYTA ABAJO#15                                                                                                                                                                                         000043N00000000000000000000000000000000000000000000000000                                                                                                                                                           00000000000000000000000000000000000000000                                                                                                                                                                                                                                                          000000                                                                                                                                                                                                                                                                                                                                                              000000        
DA000000240400000631070040410316SILVIA SOFIA                                      SALCEDO                                 AMARANTE DE URBAEZ                      C04300002559              19440918001FC000000000000000000000000000000                                                  C/SANCHEZ #17                                                                                                                                                                                                       000043N00000000000000000000000000000000000000000000000000                                                                                                                                                           00000000000000000000000000000000000000000                                                                                                                                                                                                                                                          000000                                                                                                                                                                                                                                                                                                                                                              000000        
DA000000240800000631040037681106AURA ESTELA                                       MEDINA                                  ACOSTA DE GARCIA                        C04300001759              19380311001FS000000000000000000000000000000                                                  C/ ANTONIO DE LA MAZA#88                                                                                                                                                                                            000043N00000000000000000000000000000000000000000000000000                                                                                                                                                           00000000000000000000000000000000000000000                                                                                                                                                                                                                                                          000000                                                                                                                                                                                                                                                                                                                                                              000000        
DA000000241000000631110041953316ELIGIO                                            MATEO                                   VALDEZ                                  C04300007681              19441201001MC000000000000000000000000000000                                                  C/ SAN JOSE#17                                                                                                                                                                                                      000043N00000000000000000000000000000000000000000000000000                                                                                                                                                           00000000000000000000000000000000000000000                                                                                                                                                                                                                                                          000000                                                                                                                                                                                                                                                                                                                                                              000000        
DA000000913400000506010001321598MARIA YNES                                        BAZIL                                   MENA                                    C00102681699              19540524001FC000000000000000000000000000000                                                  C/VENUS #10                                                                                                                                                                                                         000001N00000000000000000000000000000000000000000000000000                                                                                                                                                           00000000000000000000000000000000000000000                                                                                                                                                                                                                                                          000000                                                                                                                                                                                                                                                                                                                                                              000000        
DA000000814400000589380025222208CARMEN MILAGROS                                   RODRIGUEZ                               ZORRILLA                                C02500012204              19430626001FC000000000000000000000000000000                                                  C/ 3RA. # 41                                                                                                                                                                                                        000025N00000000000000000000000000000000000000000000000000                                                                                                                                                           00000000000000000000000000000000000000000                                                                                                                                                                                                                                                          000000                                                                                                                                                                                                                                                                                                                                                              000000        
DA000000539600000589690026360743ISABEL ALTAGRACIA                                 UBRI                                    MEJIA                                   C02500035106              19360701001FS000000000000000000000000000000                                                  C/ PALO HINCADO # 40                                                                                                                                                                                                000025N00000000000000000000000000000000000000000000000000                                                                                                                                                           00000000000000000000000000000000000000000                                                                                                                                                                                                                                                          000000                                                                                                                                                                                                                                                                                                                                                              000000        
DA000000870100000487690011767703ROSA ENERVIA                                      DIAZ                                    HERNANDEZ DE COCO                       C00100639343              19451219001FS000000000000000000000000000000                                                  RODRIGUEZ URDANETA#4, APTO. 337                                                                                                                                                                                     000001N00000000000000000000000000000000000000000000000000                                                                                                                                                           00000000000000000000000000000000000000000                                                                                                                                                                                                                                                          000000                                                                                                                                                                                                                                                                                                                                                              000000        
DA000000915500000518000016279867JUANA ALTAGRACIA                                  FERNANDEZ                               DE MERCEDES                             C00104690458              19460621001FC000000000000000000000000000000                                                  C/GABRIEL. A. M. ESQ. VENEZUELA, EDF. 1APT. 1-1                                                                                                                                                                     000225N00000000000000000000000000000000000000000000000000                                                                                                                                                           00000000000000000000000000000000000000000                                                                                                                                                                                                                                                          000000                                                                                                                                                                                                                                                                                                                                                              000000        
DA000000915400000489100005699351FORTUNA                                           PEREZ                                   DE FRIAS                                C00100800994              19491122001FC000000000000000000000000000000                                                  HERMANAS MIRABAL#18                                                                                                                                                                                                 000229N00000000000000000000000000000000000000000000000000                                                                                                                                                           00000000000000000000000000000000000000000                                                                                                                                                                                                                                                          000000                                                                                                                                                                                                                                                                                                                                                              000000        
DA000000915900000493640017057118MARIA ALTAGRACIA                                  NOLASCO                                 ROSA                                    C00101265445              19430507001FS000000000000000000000000000000                                                  CARACOLES #22                                                                                                                                                                                                       000001N00000000000000000000000000000000000000000000000000                                                                                                                                                           00000000000000000000000000000000000000000                                                                                                                                                                                                                                                          000000                                                                                                                                                                                                                                                                                                                                                              000000        
DA000000869300000525210017207661LUIS MARIA                                        REINOSO                                 TAVAREZ                                 C00105802664              19450608001MC000000000000000000000000000000                                                  C/CAMAÑO DEÑO # 19                                                                                                                                                                                                  000001N00000000000000000000000000000000000000000000000000                                                                                                                                                           00000000000000000000000000000000000000000                                                                                                                                                                                                                                                          000000                                                                                                                                                                                                                                                                                                                                                              000000        
DA000001878000000513320002537637FELICIANA DEL CARMEN                              RODRIGUEZ                               JIMENEZ                                 C00103862710              19270609001FS000000000000000000000000000000                                                  C/ YOLANDA GUZMAN#                                                                                                                                                                                                  000001N00000000000000000000000000000000000000000000000000                                                                                                                                                           00000000000000000000000000000000000000000                                                                                                                                                                                                                                                          000000                                                                                                                                                                                                                                                                                                                                                              000000        
DA000000814300000591790025525911VITALIA                                           MERCEDES                                SILVESTRE                               C02500235482              19371003001FS000000000000000000000000000000                                                  C/ 27 DE FEBRERO # 39                                                                                                                                                                                               000025N00000000000000000000000000000000000000000000000000                                                                                                                                                           00000000000000000000000000000000000000000                                                                                                                                                                                                                                                          000000                                                                                                                                                                                                                                                                                                                                                              000000        
DA000000538900000589840027886441PETRONILA                                         LAFONTAINE                              DE PADUA                                C02500048521              19410909001FC000000000000000000000000000000                                                  C/ JOSE MARIA VERAS # 36                                                                                                                                                                                            000025N00000000000000000000000000000000000000000000000000                                                                                                                                                           00000000000000000000000000000000000000000                                                                                                                                                                                                                                                          000000                                                                                                                                                                                                                                                                                                                                                              000000        
DA000000800600000589460029704027EDUVIGES                                          NUÑEZ                                   DE HERRERA                              C02500020009              19420425001FC000000000000000000000000000000                                                  C/ LAS FLORES # 2                                                                                                                                                                                                   000025N00000000000000000000000000000000000000000000000000                                                                                                                                                           00000000000000000000000000000000000000000                                                                                                                                                                                                                                                          000000                                                                                                                                                                                                                                                                                                                                                              000000        
DA000000792500000589330026134344DILZA MARIA                                       CORDERO                                 DE MORALES                              C02500009101              19520313001FC000000000000000000000000000000                                                  ARZOBISPO MORIÑO # 33                                                                                                                                                                                               000025N00000000000000000000000000000000000000000000000000                                                                                                                                                           00000000000000000000000000000000000000000                                                                                                                                                                                                                                                          000000                                                                                                                                                                                                                                                                                                                                                              000000        
DA000000813500000590030025808015AGAPITA                                           MERCEDES                                SILVESTRE                               C02500091851              19280328001FC000000000000000000000000000000                                                  C/ 5 # 25                                                                                                                                                                                                           000025N00000000000000000000000000000000000000000000000000                                                                                                                                                           00000000000000000000000000000000000000000                                                                                                                                                                                                                                                          000000                                                                                                                                                                                                                                                                                                                                                              000000        
DA000000800900000589830029707057MARIA ALTAGRACIA                                  DE LA CRUZ                                                                      C02500047622              19490218001FC000000000000000000000000000000                                                  C/ CLODOMIRO SANTIN # 30                                                                                                                                                                                            000025N00000000000000000000000000000000000000000000000000                                                                                                                                                           00000000000000000000000000000000000000000                                                                                                                                                                                                                                                          000000                                                                                                                                                                                                                                                                                                                                                              000000        
DA000000800500000589530029704361MARIA DAMASA                                      RIVERA                                  AVILA                                   C02500026303              19391211001FC000000000000000000000000000000                                                  C/ JUANA SALTITOPA # 43                                                                                                                                                                                             000025N00000000000000000000000000000000000000000000000000                                                                                                                                                           00000000000000000000000000000000000000000                                                                                                                                                                                                                                                          000000                                                                                                                                                                                                                                                                                                                                                              000000        
DA000000539700000589650026677945RAMONA                                            GUZMAN                                  MOTA DE VILLA                           C02500032822              19320130001FS000000000000000000000000000000                                                  C/ PALO HINCADO # 88                                                                                                                                                                                                000025N00000000000000000000000000000000000000000000000000                                                                                                                                                           00000000000000000000000000000000000000000                                                                                                                                                                                                                                                          000000                                                                                                                                                                                                                                                                                                                                                              000000        
DA000000399500000603490028318370GERMANIA                                          LINARES                                 TURBIDEZ                                C02900043999              19480825001FC000000000000000000000000000000                                                  SAN ANTONIO NO. 95                                                                                                                                                                                                  000029N00000000000000000000000000000000000000000000000000                                                                                                                                                           00000000000000000000000000000000000000000                                                                                                                                                                                                                                                          000000                                                                                                                                                                                                                                                                                                                                                              000000        
DA000000813800000589220025756282JUAN                                              JIMENEZ                                 MAURICIO                                C02500001793              19380624001MS000000000000000000000000000000                                                  C/ TEOFILO FERRER # 22                                                                                                                                                                                              000025N00000000000000000000000000000000000000000000000000                                                                                                                                                           00000000000000000000000000000000000000000                                                                                                                                                                                                                                                          000000                                                                                                                                                                                                                                                                                                                                                              000000        
DA000000800800000592140028059021BERNARDINA                                        DE LA CRUZ                              P. DE CONSTANZO                         C02500297813              19430919001FC000000000000000000000000000000                                                  C/ VICTOR DE CASTRO # 1                                                                                                                                                                                             000025N00000000000000000000000000000000000000000000000000                                                                                                                                                           00000000000000000000000000000000000000000                                                                                                                                                                                                                                                          000000                                                                                                                                                                                                                                                                                                                                                              000000        
DA000000539400000589850028803520ANADINA LIDIA                                     MOJICA                                  RIVERA DE JIMENEZ                       C02500049156              19310802001FC000000000000000000000000000000                                                  C/ JULIO DALMASI # 24                                                                                                                                                                                               000025N00000000000000000000000000000000000000000000000000                                                                                                                                                           00000000000000000000000000000000000000000                                                                                                                                                                                                                                                          000000                                                                                                                                                                                                                                                                                                                                                              000000        
DA000000539000000589550026358801MIRTHA CRISTINA                                   SCROGGINS                               CAMPECHANO                              C02500026741              19380313001FS000000000000000000000000000000                                                  C/ SANCHEZ # 48                                                                                                                                                                                                     000025N00000000000000000000000000000000000000000000000000                                                                                                                                                           00000000000000000000000000000000000000000                                                                                                                                                                                                                                                          000000                                                                                                                                                                                                                                                                                                                                                              000000        
DA000000539100000589490029622495MIRLA NEREYDA                                     MORALES                                 DE MOTA                                 C02500024779              19530821001FC000000000000000000000000000000                                                  C/ TOMAS OTTO # 2                                                                                                                                                                                                   000025N00000000000000000000000000000000000000000000000000                                                                                                                                                           00000000000000000000000000000000000000000                                                                                                                                                                                                                                                          000000                                                                                                                                                                                                                                                                                                                                                              000000        
DA000000538800000589390028799883BARBARA MARIA ALTAGRACIA                          ALVAREZ                                 DE SANTANA                              C02500013301              19651204001FC000000000000000000000000000000                                                  C/ OTTO DUVERGE EDIF. 17, # 102                                                                                                                                                                                     000025N00000000000000000000000000000000000000000000000000                                                                                                                                                           00000000000000000000000000000000000000000                                                                                                                                                                                                                                                          000000                                                                                                                                                                                                                                                                                                                                                              000000        
DA000000814000000590040025808052MARGARITA                                         RAMIREZ                                 CASTRO                                  C02500092263              19460610001FC000000000000000000000000000000                                                  C/ CARMELO RIVERA # 44                                                                                                                                                                                              000025N00000000000000000000000000000000000000000000000000                                                                                                                                                           00000000000000000000000000000000000000000                                                                                                                                                                                                                                                          000000                                                                                                                                                                                                                                                                                                                                                              000000        
DA000000539800000589910026189705MARTINA                                           NU#EZ                                   CARELA                                  C02500053679              19460215001FC000000000000000000000000000000                                                  C/ GRAL. A. RAMIREZ # 44                                                                                                                                                                                            000025N00000000000000000000000000000000000000000000000000                                                                                                                                                           00000000000000000000000000000000000000000                                                                                                                                                                                                                                                          000000                                                                                                                                                                                                                                                                                                                                                              000000        
DA000000814200000590100025810428SILVESTRE                                         NIEVES                                  CANDELARIO                              C02500127945              19470831001FC000000000000000000000000000000                                                  ARROYO GRANDE # 24                                                                                                                                                                                                  000025N00000000000000000000000000000000000000000000000000                                                                                                                                                           00000000000000000000000000000000000000000                                                                                                                                                                                                                                                          000000                                                                                                                                                                                                                                                                                                                                                              000000        
DA000000800300000589420026982841LUCIA                                             MARTE                                   DE POLANCO                              C02500019035              19370224001FC000000000000000000000000000000                                                  C/ VICTOR DE CASTRO # 1                                                                                                                                                                                             000025N00000000000000000000000000000000000000000000000000                                                                                                                                                           00000000000000000000000000000000000000000                                                                                                                                                                                                                                                          000000                                                                                                                                                                                                                                                                                                                                                              000000        
DA000000801600000589470026358432RAMONA                                            VILLA                                                                           C02500021288              19380728001FC000000000000000000000000000000                                                  AV. AMAZONTE # 58                                                                                                                                                                                                   000025N00000000000000000000000000000000000000000000000000                                                                                                                                                           00000000000000000000000000000000000000000                                                                                                                                                                                                                                                          000000                                                                                                                                                                                                                                                                                                                                                              000000        
DA000000813200000590000025804771DOLORES                                           PEGUERO                                                                         C02500061581              19590209001FC000000000000000000000000000000                                                  S/C # 43                                                                                                                                                                                                            000025N00000000000000000000000000000000000000000000000000                                                                                                                                                           00000000000000000000000000000000000000000                                                                                                                                                                                                                                                          000000                                                                                                                                                                                                                                                                                                                                                              000000        
DA000000539900000591840028521815KENIA HERMINIA                                    SEVERINO                                JIMENEZ                                 C02500255530              19570520001FS000000000000000000000000000000                                                  C/ CARLOS R. GOICO M. EDIF. 3, APTO. 102                                                                                                                                                                            000025N00000000000000000000000000000000000000000000000000                                                                                                                                                           00000000000000000000000000000000000000000                                                                                                                                                                                                                                                          000000                                                                                                                                                                                                                                                                                                                                                              000000        
DA000000036600000570990023340101MANUEL ELIDIO                                     CONTRERAS                               PEREZ                                   C01500023450              19630423001MS000000000000000000000000000000                                                  BARRIO NUEVO # 5                                                                                                                                                                                                    000074S00000000199307171995032600000000000000000000000000                                                                                                                                                           00000000000000000000000000000000000000000                                                                                                                                                                                                                                                          000000                                                                                                                                                                                                                                                                                                                                                              000000        
DA000000036700000570910022271224MANUEL ENRIQUE                                    ALCANTARA                                                                       C01500003130              19320227001MC000000000000000000000000000000                                                  C/ MARIA MORA # 1                                                                                                                                                                                                   000015N00000000000000000000000000000000000000000000000000                                                                                                                                                           00000000000000000000000000000000000000000                                                                                                                                                                                                                                                          000000                                                                                                                                                                                                                                                                                                                                                              000000        
DA000000451700000657240049092540FERNANDO                                          SANTOS                                  FAMILIA                                 C07400017443              19540530001MC000000000000000000000000000000                                                  C/ GASTON F. DELIGNE # 210                                                                                                                                                                                          000074S19960206000000000000000000000000000000000000000000                                                                                                                                                           00000000000000000000000000000000000000000                                                                                                                                                                                                                                                          000000                                                                                                                                                                                                                                                                                                                                                              000000        
DA000000839800000642780046867414TOMASA                                            AMEZQUITA                               DE COMPRES                              C05400081419              19391221001FS000000000000000000000000000000                                                  C/ ALTAMIRA #6                                                                                                                                                                                                      000054N00000000000000000000000000000000000000000000000000                                                                                                                                                           00000000000000000000000000000000000000000                                                                                                                                                                                                                                                          000000                                                                                                                                                                                                                                                                                                                                                              000000        
DA000000927000000633710040763658LESBIA                                            ABREU                                   DE BREA                                 C04700011028              19520609001FC000000000000000000000000000000                                                  MAXIMO GOMEZ, ESQ. 7                                                                                                                                                                                                000047N00000000000000000000000000000000000000000000000000                                                                                                                                                           00000000000000000000000000000000000000000                                                                                                                                                                                                                                                          000000                                                                                                                                                                                                                                                                                                                                                              000000        
DA000000926600000636910042331844MAYRA SOCORRO                                     DIAZ                                    GUZMAN DE ABREU                         C04701099170              19630908001FC000000000000000000000000000000                                                  ARMIDA, CALLE3#8                                                                                                                                                                                                    000047N00000000000000000000000000000000000000000000000000                                                                                                                                                           00000000000000000000000000000000000000000                                                                                                                                                                                                                                                          000000                                                                                                                                                                                                                                                                                                                                                              000000        
DA000000673200000638680039030610ARSENIO EJIDIO                                    VELASQUEZ                               SOSA                                    C04800375422              19260816001MS000000000000000000000000000000                                                  C/MELLA #47                                                                                                                                                                                                         000048N00000000000000000000000000000000000000000000000000                                                                                                                                                           00000000000000000000000000000000000000000                                                                                                                                                                                                                                                          000000                                                                                                                                                                                                                                                                                                                                                              000000        
DA000000674500000639040042419631JUANA                                             AQUINO                                  R. DE VERAS                             C04800525828              19481129001FC000000000000000000000000000000                                                  PADRE FANTINO #156                                                                                                                                                                                                  000048N00000000000000000000000000000000000000000000000000                                                                                                                                                           00000000000000000000000000000000000000000                                                                                                                                                                                                                                                          000000                                                                                                                                                                                                                                                                                                                                                              000000        
DA000000678500000638890040585446ROSA LEONELA                                      LOPEZ                                   GARCIA                                  C04800455406              19540813001FC000000000000000000000000000000                                                  C/ MANZ 3 EDF. 3 EDF. 8 APT. 102                                                                                                                                                                                    000048N00000000000000000000000000000000000000000000000000                                                                                                                                                           00000000000000000000000000000000000000000                                                                                                                                                                                                                                                          000000                                                                                                                                                                                                                                                                                                                                                              000000        
DA000000885100000665460051155164ZOILA MARGARITA                                   POLANCO                                 DIAZ                                    C09000130931              19441202001FC000000000000000000000000000000                                                  MELLA#                                                                                                                                                                                                              000090N00000000000000000000000000000000000000000000000000                                                                                                                                                           00000000000000000000000000000000000000000                                                                                                                                                                                                                                                          000000                                                                                                                                                                                                                                                                                                                                                              000000        
DA000000519600000626720036021181ALTAGRACIA DAMIANA                                GARCIA                                  SOSA DE MARTINEZ                        C03700261005              19310927001FC000000000000000000000000000000                                                  C/CARDENAL #2A                                                                                                                                                                                                      000037N00000000000000000000000000000000000000000000000000                                                                                                                                                           00000000000000000000000000000000000000000                                                                                                                                                                                                                                                          000000                                                                                                                                                                                                                                                                                                                                                              000000        
DA000000838300000652360047309232VANGELIA                                          CASTILLO                                HERNANDEZ                               C06600155060              19570104001FC000000000000000000000000000000                                                  C/ SANCHEZ#28                                                                                                                                                                                                       000066N00000000000000000000000000000000000000000000000000                                                                                                                                                           00000000000000000000000000000000000000000                                                                                                                                                                                                                                                          000000                                                                                                                                                                                                                                                                                                                                                              000000        
DA000000839700000652330048394076LILIA ONDINA                                      MATOS                                   DIEDONE                                 C06600138579              19370202001FS000000000000000000000000000000                                                  C/ 4TA EDFI. F6, PARQUE DEL ESTE                                                                                                                                                                                    000001N00000000000000000000000000000000000000000000000000                                                                                                                                                           00000000000000000000000000000000000000000                                                                                                                                                                                                                                                          000000                                                                                                                                                                                                                                                                                                                                                              000000        
DA000000872000000651700047666572ELICEO                                            BALBUENA                                DE PEÑA                                 C06500052672              19490325001MC000000000000000000000000000000                                                  SAN FELIPE VILLA MELLA #5                                                                                                                                                                                           000065N00000000000000000000000000000000000000000000000000                                                                                                                                                           00000000000000000000000000000000000000000                                                                                                                                                                                                                                                          000000                                                                                                                                                                                                                                                                                                                                                              000000        
DA000000916200000580220028876452EMILIO                                            VARGAS                                                                          C02200048540              19600322001MS000000000000000000000000000000                                                  C/ LA CANELA # 11                                                                                                                                                                                                   000022S20011224200411292008120700000000000000000000000000                                                                                                                                                           00000000000000000000000000000000000000000                                                                                                                                                                                                                                                          000000                                                                                                                                                                                                                                                                                                                                                              000000        
DA000000003700000557380017591130TERESITA                                          ANGUSTIA                                                                        C00200140804              19501003001FC000000000000000000000000000000                                                  PROY. LOS NOVAS#67                                                                                                                                                                                                  000002N00000000000000000000000000000000000000000000000000                                                                                                                                                           00000000000000000000000000000000000000000                                                                                                                                                                                                                                                          000000                                                                                                                                                                                                                                                                                                                                                              000000        
DA000000397400000653430048478981MARTIN                                            CARVAJAL                                PEREZ                                   C06800056928              19460325001MC000000000000000000000000000000                                                  GERAL. GREGORIO LUPERON #71                                                                                                                                                                                         000068N00000000000000000000000000000000000000000000000000                                                                                                                                                           00000000000000000000000000000000000000000                                                                                                                                                                                                                                                          000000                                                                                                                                                                                                                                                                                                                                                              000000        
DA000000379000000654480048651727JOSE ALBERTO                                      FRANCO                                  SANTIAGO                                C06800322007              19760824001MS000000000000000000000000000000                                                  C/ 30 DE MARZO#107,                                                                                                                                                                                                 000068S20061005000000000000000000000000000000000000000000                                                                                                                                                           00000000000000000000000000000000000000000                                                                                                                                                                                                                                                          000000                                                                                                                                                                                                                                                                                                                                                              000000        
DA000000910300000642020046699615GEORGINA                                          RONDON                                  DE COMPRES                              C05200007093              19460520001FC000000000000000000000000000000                                                  MANZ. 4692,, EDFI. 8 APT. 3-C                                                                                                                                                                                       000224N00000000000000000000000000000000000000000000000000                                                                                                                                                           00000000000000000000000000000000000000000                                                                                                                                                                                                                                                          000000                                                                                                                                                                                                                                                                                                                                                              000000        
DA000000387100000567100022634437APOLINAR                                          VALDEZ                                  DE OLEO                                 C01100050606              19400711001MC000000000000000000000000000000                                                  C/ COLON # 35                                                                                                                                                                                                       000011N00000000000000000000000000000000000000000000000000                                                                                                                                                           00000000000000000000000000000000000000000                                                                                                                                                                                                                                                          000000                                                                                                                                                                                                                                                                                                                                                              000000        
DA000000913600000567700021774423SUSANA ALTAGRACIA                                 RODRIGUEZ                               SANCHEZ                                 C01200035812              19540517001FS000000000000000000000000000000                                                  KM. 3, #19                                                                                                                                                                                                          000012N00000000000000000000000000000000000000000000000000                                                                                                                                                           00000000000000000000000000000000000000000                                                                                                                                                                                                                                                          000000                                                                                                                                                                                                                                                                                                                                                              000000        
DA000000024200000567310021992135ANGELA LUCINA                                     ORTIZ                                   ROSARIO                                 C01100198447              19421208001FS000000000000000000000000000000                                                  C/ TULIO ENRRIQUE MANCEBO # 1                                                                                                                                                                                       000011N00000000000000000000000000000000000000000000000000                                                                                                                                                           00000000000000000000000000000000000000000                                                                                                                                                                                                                                                          000000                                                                                                                                                                                                                                                                                                                                                              000000        
DA000000404300000584750025724163YOLANDA LUCRECIA                                  TOLENTINO                               C DE FERNANDEZ                          C02300534787              19470601001FC000000000000000000000000000000                                                  C/ 5 S/N                                                                                                                                                                                                            000023N00000000000000000000000000000000000000000000000000                                                                                                                                                           00000000000000000000000000000000000000000                                                                                                                                                                                                                                                          000000                                                                                                                                                                                                                                                                                                                                                              000000        
DA000000366700000585620025425381LEOCADIA                                          RAMIREZ                                 DE ESTAY                                C02300653082              19441210001FC000000000000000000000000000000                                                  C/ ANGELINA # 12                                                                                                                                                                                                    000023N00000000000000000000000000000000000000000000000000                                                                                                                                                           00000000000000000000000000000000000000000                                                                                                                                                                                                                                                          000000                                                                                                                                                                                                                                                                                                                                                              000000        
DA000000406800000603720027721200PASCUAL                                           DE LOS SANTOS                                                                   C03000008890              19460516001FC000000000000000000000000000000                                                  PASO DEL MEDIO # 46                                                                                                                                                                                                 000023N00000000000000000000000000000000000000000000000000                                                                                                                                                           00000000000000000000000000000000000000000                                                                                                                                                                                                                                                          000000                                                                                                                                                                                                                                                                                                                                                              000000        
DA000000407900000582300029005924TEODORA                                           ARAUJO                                  DE SANTANA                              C02300244015              19430413001FC000000000000000000000000000000                                                  C/ LUIS AMIAMA TIO # 10                                                                                                                                                                                             000023N00000000000000000000000000000000000000000000000000                                                                                                                                                           00000000000000000000000000000000000000000                                                                                                                                                                                                                                                          000000                                                                                                                                                                                                                                                                                                                                                              000000        
DA000000408700000582040027191053SONIA                                             MATOS                                   MALABEZ                                 C02300198682              19380407001FS000000000000000000000000000000                                                  C/ SANTA ANA # 42                                                                                                                                                                                                   000023N00000000000000000000000000000000000000000000000000                                                                                                                                                           00000000000000000000000000000000000000000                                                                                                                                                                                                                                                          000000                                                                                                                                                                                                                                                                                                                                                              000000        
DA000000406000000582760029603901ELSA ELVIRA                                       WELLS                                   ABRAHAM                                 C02300276850              19330125001FC000000000000000000000000000000                                                  C/ ESTERVINA RICHIEZ # 20                                                                                                                                                                                           000023N00000000000000000000000000000000000000000000000000                                                                                                                                                           00000000000000000000000000000000000000000                                                                                                                                                                                                                                                          000000                                                                                                                                                                                                                                                                                                                                                              000000        
DA000000403500000583400026908505PEDRO                                             ZAPATA                                  SPRINGER                                C02300374796              19390220001MC000000000000000000000000000000                                                  C/ LUIS A. BERMUDEZ # 40                                                                                                                                                                                            000023N00000000000000000000000000000000000000000000000000                                                                                                                                                           00000000000000000000000000000000000000000                                                                                                                                                                                                                                                          000000                                                                                                                                                                                                                                                                                                                                                              000000        
DA000000365700000582690026271536CRISTINA AUGUSTA                                  PERERA                                  RODRIGUEZ                               C02300272800              19440707001FC000000000000000000000000000000                                                  C/ ESTERVINA RICHIEZ # 7                                                                                                                                                                                            000023N00000000000000000000000000000000000000000000000000                                                                                                                                                           00000000000000000000000000000000000000000                                                                                                                                                                                                                                                          000000                                                                                                                                                                                                                                                                                                                                                              000000        
DA000000406100000581860029512972RAFAEL ENRIQUE                                    ROSARIO                                 OGANDO                                  C02300163066              19500227001MC000000000000000000000000000000                                                  C/ PORVENIR # 16                                                                                                                                                                                                    000023N00000000000000000000000000000000000000000000000000                                                                                                                                                           00000000000000000000000000000000000000000                                                                                                                                                                                                                                                          000000                                                                                                                                                                                                                                                                                                                                                              000000        
DA000000407800000582370025388802OSIRIS FERNANDO                                   RAVELO                                  ASTACIO                                 C02300248164              19520530001MC000000000000000000000000000000                                                  C/ PROF. MIGUEL DUVERGE # 30                                                                                                                                                                                        000023N00000000000000000000000000000000000000000000000000                                                                                                                                                           00000000000000000000000000000000000000000                                                                                                                                                                                                                                                          000000                                                                                                                                                                                                                                                                                                                                                              000000        
DA000000407100000603590025366820JUANA                                             CORNIEL                                 AVILA                                   C03000000723              19380216001FC000000000000000000000000000000                                                  C/ 12 DE JULIO # 28                                                                                                                                                                                                 000030N00000000000000000000000000000000000000000000000000                                                                                                                                                           00000000000000000000000000000000000000000                                                                                                                                                                                                                                                          000000                                                                                                                                                                                                                                                                                                                                                              000000        
DA000000407200000603650029241576ALTAGRACIA                                        CORNIELLE                               AVILA                                   C03000004626              19360215001FS000000000000000000000000000000                                                  C/ LAS MERCEDES # 52                                                                                                                                                                                                000030N00000000000000000000000000000000000000000000000000                                                                                                                                                           00000000000000000000000000000000000000000                                                                                                                                                                                                                                                          000000                                                                                                                                                                                                                                                                                                                                                              000000        
DA000000402600000582450028392583CARIDAD                                           PEREZ                                   RUIZ                                    C02300255292              19440626001FC000000000000000000000000000000                                                  C/ F # 6                                                                                                                                                                                                            000023N00000000000000000000000000000000000000000000000000                                                                                                                                                           00000000000000000000000000000000000000000                                                                                                                                                                                                                                                          000000                                                                                                                                                                                                                                                                                                                                                              000000        
