EPN42
DA000000791100000565720019884064RAFAEL AUGUSTO                                    SENCION                                                                         C01000119568              19560107001MC000000000000000000000000000000                                                  LAS CARRERAS # 57                                                                                                                                                                                                   000010N00000000000000000000000000000000000000000000000000                                                                                                                                                           00000000000000000000000000000000000000000                                                                                                                                                                                                                                                          000000                                                                                                                                                                                                                                                                                                                                                              000000        
DA000000467400000576770022934896MERCEDES                                          FELIZ                                   DE PEÑA                                 C01800323329              19440210001FC000000000000000000000000000000                                                  SANCHEZ #19                                                                                                                                                                                                         000018N00000000000000000000000000000000000000000000000000                                                                                                                                                           00000000000000000000000000000000000000000                                                                                                                                                                                                                                                          000000                                                                                                                                                                                                                                                                                                                                                              000000        
DA000000446700000574360023698805ISABEL VICTORIA                                   BURRUDUGHS                              BATISTA                                 C01800136804              19440612001FC000000000000000000000000000000                                                  C/ 16 DE AGOSTO 318                                                                                                                                                                                                 000018N00000000000000000000000000000000000000000000000000                                                                                                                                                           00000000000000000000000000000000000000000                                                                                                                                                                                                                                                          000000                                                                                                                                                                                                                                                                                                                                                              000000        
DA000000186500000575610022592243ARMANDO                                           REYES                                   RODRIGUEZ                               C01800218610              19540202001MC000000000000000000000000000000                                                  CENTRAL #36                                                                                                                                                                                                         000018N00000000000000000000000000000000000000000000000000                                                                                                                                                           00000000000000000000000000000000000000000                                                                                                                                                                                                                                                          000000                                                                                                                                                                                                                                                                                                                                                              000000        
DA000000625900000658180049702216YSABEL                                            BELLO                                   PEREZ                                   C07700038107              19390507001FS000000000000000000000000000000                                                  C/ SANCHEZ # 15                                                                                                                                                                                                     000077N00000000000000000000000000000000000000000000000000                                                                                                                                                           00000000000000000000000000000000000000000                                                                                                                                                                                                                                                          000000                                                                                                                                                                                                                                                                                                                                                              000000        
DA000000383000000598530026533651ALTAGRACIA MIRQUEYA                               MUÑOZ                                   CABRERA                                 C02600499731              19480809001FS000000000000000000000000000000                                                  C/ J # 28                                                                                                                                                                                                           000026N00000000000000000000000000000000000000000000000000                                                                                                                                                           00000000000000000000000000000000000000000                                                                                                                                                                                                                                                          000000                                                                                                                                                                                                                                                                                                                                                              000000        
DA000000186000000490080012527918EVALINA                                           SANCHEZ                                 A DE CUBILETE                           C00100920487              19420209001FS000000000000000000000000000000                                                  RESP. SAN MARTIN # 16                                                                                                                                                                                               000001N00000000000000000000000000000000000000000000000000                                                                                                                                                           00000000000000000000000000000000000000000                                                                                                                                                                                                                                                          000000                                                                                                                                                                                                                                                                                                                                                              000000        
DA000000790100000482670014953673MARINA R                                          ESPINAL                                 JOSE                                    C00100087857              19520902001FC000000000000000000000000000000                                                  C/ ESTE # 64                                                                                                                                                                                                        000001N00000000000000000000000000000000000000000000000000                                                                                                                                                           00000000000000000000000000000000000000000                                                                                                                                                                                                                                                          000000                                                                                                                                                                                                                                                                                                                                                              000000        
DA000000382700000500350012898036CAMILA ALTAGRACIA                                 CABRERA                                 RIVERA                                  C00101927689              19510918001FC000000000000000000000000000000                                                  C/ MARIA MARCELINO # 37                                                                                                                                                                                             000225N00000000000000000000000000000000000000000000000000                                                                                                                                                           00000000000000000000000000000000000000000                                                                                                                                                                                                                                                          000000                                                                                                                                                                                                                                                                                                                                                              000000        
DA000000790500000490270010243390DRIXIE CIRCE LOTTY                                JOB                                     DE ISSA                                 C00100955616              19440829001MC000000000000000000000000000000                                                  TETELO VARGAS # 4                                                                                                                                                                                                   000001N00000000000000000000000000000000000000000000000000                                                                                                                                                           00000000000000000000000000000000000000000                                                                                                                                                                                                                                                          000000                                                                                                                                                                                                                                                                                                                                                              000000        
DA000000383100000493120003290557ANA FRANCISCA                                     PAULINO                                 OGANDO                                  C00101220630              19460627001FS000000000000000000000000000000                                                  FRANCISCO DOMINGUEZ CHARRO # 162                                                                                                                                                                                    000001N00000000000000000000000000000000000000000000000000                                                                                                                                                           00000000000000000000000000000000000000000                                                                                                                                                                                                                                                          000000                                                                                                                                                                                                                                                                                                                                                              000000        
DA000001655900000658080049082832MAGDA AGUSTINA                                    ROA                                     DE DELGADO                              C07700003457              19540530001FS000000000000000000000000000000                                                  C/ VENECIA #22                                                                                                                                                                                                      000001N00000000000000000000000000000000000000000000000000                                                                                                                                                           00000000000000000000000000000000000000000                                                                                                                                                                                                                                                          000000                                                                                                                                                                                                                                                                                                                                                              000000        
DA000000793100000563730017722475MARTIN                                            GARCIA                                  SANCHEZ                                 C00500099734              19451111001MC000000000000000000000000000000                                                  C/SAN CARLOS #5                                                                                                                                                                                                     000048N00000000000000000000000000000000000000000000000000                                                                                                                                                           00000000000000000000000000000000000000000                                                                                                                                                                                                                                                          000000                                                                                                                                                                                                                                                                                                                                                              000000        
DA000000266000000000000000000000LUIS JOSE                                         NUÑEZ                                   PANTALEON                               C05600426053              19460622001MS000000000000000000000000000000                                                  SECCION HATILLO#122-23                                                                                                                                                                                              000056N00000000000000000000000000000000000000000000000000                                                                                                                                                           00000000000000000000000000000000000000000                                                                                                                                                                                                                                                          000000                                                                                                                                                                                                                                                                                                                                                              000000        
DA000000627000000658040049319204CARMELITA                                         NOVAS                                   VOLQUEZ                                 C07700002145              19400510001FC000000000000000000000000000000                                                  C/ SANCEZ # 22                                                                                                                                                                                                      000077N00000000000000000000000000000000000000000000000000                                                                                                                                                           00000000000000000000000000000000000000000                                                                                                                                                                                                                                                          000000                                                                                                                                                                                                                                                                                                                                                              000000        
DA000000683200000838110023696914HUGO ULDARICO                                     MATOS                                                                           C02000042909              19440415001MC000000000000000000000000000000                                                  C/ LUPERON # 49-B                                                                                                                                                                                                   000020N00000000000000000000000000000000000000000000000000                                                                                                                                                           00000000000000000000000000000000000000000                                                                                                                                                                                                                                                          000000                                                                                                                                                                                                                                                                                                                                                              000000        
DA000000476100000561310018477720CLARA E                                           LARA                                    ANDUJAR                                 C00300067964              19290207001FS000000000000000000000000000000                                                  SANTOME #70                                                                                                                                                                                                         000003N00000000000000000000000000000000000000000000000000                                                                                                                                                           00000000000000000000000000000000000000000                                                                                                                                                                                                                                                          000000                                                                                                                                                                                                                                                                                                                                                              000000        
DA000000284000000639320040893794VICTORIANA                                        OTA#EZ                                  DE GUTIERREZ                            C04900007578              19390904001FS000000000000000000000000000000                                                  C/ JUAN SANCHEZ RAMIREZ # 99                                                                                                                                                                                        000049N00000000000000000000000000000000000000000000000000                                                                                                                                                           00000000000000000000000000000000000000000                                                                                                                                                                                                                                                          000000                                                                                                                                                                                                                                                                                                                                                              000000        
DA000000090400000643330045011054FRANCISCA ANTONIA                                 VASQUEZ                                 VASQUEZ                                 C05400282744              19550712001FC000000000000000000000000000000                                                  C/ MELLA APTO.01                                                                                                                                                                                                    000049N00000000000000000000000000000000000000000000000000                                                                                                                                                           00000000000000000000000000000000000000000                                                                                                                                                                                                                                                          000000                                                                                                                                                                                                                                                                                                                                                              000000        
DA000000571700000620110035788613YOLANDA MARIA                                     RODRIGUEZ                               RODRIGUEZ                               C03102785973              19741203001FS000000000000000000000000000000                                                  C/ PRINCIPAL # 20                                                                                                                                                                                                   000031N00000000000000000000000000000000000000000000000000                                                                                                                                                           00000000000000000000000000000000000000000                                                                                                                                                                                                                                                          000000                                                                                                                                                                                                                                                                                                                                                              000000        
DA000000537400000600030025321828ANIBAL                                            CASTILLO                                GONZALEZ                                C02700020940              19450901001MS000000000000000000000000000000                                                  C/PADRE MERI#O #71                                                                                                                                                                                                  000027N00000000000000000000000000000000000000000000000000                                                                                                                                                           00000000000000000000000000000000000000000                                                                                                                                                                                                                                                          000000                                                                                                                                                                                                                                                                                                                                                              000000        
DA000000502400000658220049225027JOSE                                              CUEVAS                                  DIAZ                                    C07800011897              19370807001MS000000000000000000000000000000                                                  VITERVINO RIVAS SEGURA # 6                                                                                                                                                                                          000078N00000000000000000000000000000000000000000000000000                                                                                                                                                           00000000000000000000000000000000000000000                                                                                                                                                                                                                                                          000000                                                                                                                                                                                                                                                                                                                                                              000000        
DA000000033400000593650029391397PEDRO JACOBO                                      NOLASCO                                 RODRIGUEZ                               C02600084285              19201130001MS000000000000000000000000000000                                                  MARIA TRINIDAD SANCHEZ # 47                                                                                                                                                                                         000026N00000000000000000000000000000000000000000000000000                                                                                                                                                           00000000000000000000000000000000000000000                                                                                                                                                                                                                                                          000000                                                                                                                                                                                                                                                                                                                                                              000000        
DA000000033300000596380027775505GERTRUDIS                                         SANTILLAN                               BERROA                                  C02600299669              19390117001FC000000000000000000000000000000                                                  3RA, EDF. 39, # 4                                                                                                                                                                                                   000026N00000000000000000000000000000000000000000000000000                                                                                                                                                           00000000000000000000000000000000000000000                                                                                                                                                                                                                                                          000000                                                                                                                                                                                                                                                                                                                                                              000000        
DA000000033200000594540025525057NEREIDA                                           POLANCO                                 CEDEÑO                                  C02600134957              19520220001FC000000000000000000000000000000                                                  PEDRO A. LLUBERES # 195                                                                                                                                                                                             000026N00000000000000000000000000000000000000000000000000                                                                                                                                                           00000000000000000000000000000000000000000                                                                                                                                                                                                                                                          000000                                                                                                                                                                                                                                                                                                                                                              000000        
DA000000031200000594850026820567VICTORIANO                                        GUERRERO                                                                        C02600165332              19210306001MS000000000000000000000000000000                                                  1RA # 17                                                                                                                                                                                                            000026N00000000000000000000000000000000000000000000000000                                                                                                                                                           00000000000000000000000000000000000000000                                                                                                                                                                                                                                                          000000                                                                                                                                                                                                                                                                                                                                                              000000        
DA000000033800001033430028680562JOSE                                              BALIO                                                                           C02600147272              19410516001MS000000000000000000000000000000                                                  24 DE ABRIL # 29                                                                                                                                                                                                    000026N00000000000000000000000000000000000000000000000000                                                                                                                                                           00000000000000000000000000000000000000000                                                                                                                                                                                                                                                          000000                                                                                                                                                                                                                                                                                                                                                              000000        
DA000000033700000596030028695741ROSA HERMINIA                                     LEONARDO                                                                        C02600271718              19340121001FS000000000000000000000000000000                                                  JOSE JOAQUIN PEREZ # 8                                                                                                                                                                                              000026N00000000000000000000000000000000000000000000000000                                                                                                                                                           00000000000000000000000000000000000000000                                                                                                                                                                                                                                                          000000                                                                                                                                                                                                                                                                                                                                                              000000        
DA000000031800000599820025300048MARIA ALTAGRACIA                                  RONDON                                  RONDON                                  C02600982504              19580126001FS000000000000000000000000000000                                                  TOMAS DE LA CONCHA # 59                                                                                                                                                                                             000026N00000000000000000000000000000000000000000000000000                                                                                                                                                           00000000000000000000000000000000000000000                                                                                                                                                                                                                                                          000000                                                                                                                                                                                                                                                                                                                                                              000000        
DA000000032900001036530028411788ADOLFO                                            DIAZ                                                                            C02600429332              19310319001MS000000000000000000000000000000                                                  PEDRO A. LLUBERES # 26                                                                                                                                                                                              000026N00000000000000000000000000000000000000000000000000                                                                                                                                                           00000000000000000000000000000000000000000                                                                                                                                                                                                                                                          000000                                                                                                                                                                                                                                                                                                                                                              000000        
DA000000613200000638540040257466DOMINGO                                           RAMIREZ                                 SURIEL                                  C04800325427              19450225001MS000000000000000000000000000000                                                  BOCA DE JUMA # 116                                                                                                                                                                                                  000048N00000000000000000000000000000000000000000000000000                                                                                                                                                           00000000000000000000000000000000000000000                                                                                                                                                                                                                                                          000000                                                                                                                                                                                                                                                                                                                                                              000000        
DA000000357000000505540012636650ALFIDA                                            EUSEBIO                                 NATANIEL                                C00102607272              19370705001FS000000000000000000000000000000                                                  LAS AMERICAS MANZ. 14 # 5                                                                                                                                                                                           000223N00000000000000000000000000000000000000000000000000                                                                                                                                                           00000000000000000000000000000000000000000                                                                                                                                                                                                                                                          000000                                                                                                                                                                                                                                                                                                                                                              000000        
DA000000357100000506190015144592MIGUEL                                            PAULINO                                                                         C00102698651              19410419001MS000000000000000000000000000000                                                  MARIA NAZARET # 9                                                                                                                                                                                                   000001N00000000000000000000000000000000000000000000000000                                                                                                                                                           00000000000000000000000000000000000000000                                                                                                                                                                                                                                                          000000                                                                                                                                                                                                                                                                                                                                                              000000        
DA000000358300000580070027307108TULIO                                             MATEO                                   PEÑA                                    C02200028252              19271020001MS000000000000000000000000000000                                                  GRAL. REYES # 88                                                                                                                                                                                                    000022N00000000000000000000000000000000000000000000000000                                                                                                                                                           00000000000000000000000000000000000000000                                                                                                                                                                                                                                                          000000                                                                                                                                                                                                                                                                                                                                                              000000        
DA000000358100000519270005607875OLGA YOLANDA                                      LLUBERES                                GONELL                                  C00104876628              19371208001FS000000000000000000000000000000                                                  PEDRO FRANCISCO BONO # 12                                                                                                                                                                                           000223N00000000000000000000000000000000000000000000000000                                                                                                                                                           00000000000000000000000000000000000000000                                                                                                                                                                                                                                                          000000                                                                                                                                                                                                                                                                                                                                                              000000        
DA000000359100000501270011840411JESUS                                             DE LA CRUZ                              ARVELO                                  C00102002680              19421004001MS000000000000000000000000000000                                                  LA ALTAGRACIA # 4                                                                                                                                                                                                   000001N00000000000000000000000000000000000000000000000000                                                                                                                                                           00000000000000000000000000000000000000000                                                                                                                                                                                                                                                          000000                                                                                                                                                                                                                                                                                                                                                              000000        
DA000000355500000519290009872001MARIA                                             MEJIA                                   CRUZ                                    C00104877147              19470611001FS000000000000000000000000000000                                                  6 # 78                                                                                                                                                                                                              000223N00000000000000000000000000000000000000000000000000                                                                                                                                                           00000000000000000000000000000000000000000                                                                                                                                                                                                                                                          000000                                                                                                                                                                                                                                                                                                                                                              000000        
DA000000543400000491210012548647ANA BARTOLA                                       ARIAS                                                                           C00101084002              19270323001FS000000000000000000000000000000                                                  JOSE CONTRERAS # 159                                                                                                                                                                                                000001N00000000000000000000000000000000000000000000000000                                                                                                                                                           00000000000000000000000000000000000000000                                                                                                                                                                                                                                                          000000                                                                                                                                                                                                                                                                                                                                                              000000        
DA000000353800000500030015912971PEDRO TOMAS                                       PERALTA                                 NUÑEZ                                   C00101891034              19410909001MS000000000000000000000000000000                                                  PASEO # 14-B                                                                                                                                                                                                        000225N00000000000000000000000000000000000000000000000000                                                                                                                                                           00000000000000000000000000000000000000000                                                                                                                                                                                                                                                          000000                                                                                                                                                                                                                                                                                                                                                              000000        
DA000000342200000488030004287420CARMEN CAMILA                                     VILLALONA                               REYES                                   C00100654029              19480715001FS000000000000000000000000000000                                                  A # 29                                                                                                                                                                                                              000224N00000000000000000000000000000000000000000000000000                                                                                                                                                           00000000000000000000000000000000000000000                                                                                                                                                                                                                                                          000000                                                                                                                                                                                                                                                                                                                                                              000000        
DA000000348200000669080052698593NILDA ALTAGRACIA E                                RIVAS                                   SILVESTRE                               C09300174357              19570604001FS000000000000000000000000000000                                                  RES. PLAZA IND. # 9-302A                                                                                                                                                                                            000001N00000000000000000000000000000000000000000000000000                                                                                                                                                           00000000000000000000000000000000000000000                                                                                                                                                                                                                                                          000000                                                                                                                                                                                                                                                                                                                                                              000000        
DA000000347800000545480009569831MARIA MERCEDES                                    GOMEZ                                                                           C00108472283              19561003001FS000000000000000000000000000000                                                  PEATONAL B # 2                                                                                                                                                                                                      000223N00000000000000000000000000000000000000000000000000                                                                                                                                                           00000000000000000000000000000000000000000                                                                                                                                                                                                                                                          000000                                                                                                                                                                                                                                                                                                                                                              000000        
DA000000541600000536960007250490JOSEFA                                            VASQUEZ                                                                         C00107216269              19400913001FS000000000000000000000000000000                                                  SANTA ROSA # 26                                                                                                                                                                                                     000229N00000000000000000000000000000000000000000000000000                                                                                                                                                           00000000000000000000000000000000000000000                                                                                                                                                                                                                                                          000000                                                                                                                                                                                                                                                                                                                                                              000000        
DA000000318400000484530001093985BAUDILIA ALTAGRACIA                               HOLGUIN                                 MERCEDES                                C00100252642              19500520001FS000000000000000000000000000000                                                  ALVARO GARRIDO # 42                                                                                                                                                                                                 000001N00000000000000000000000000000000000000000000000000                                                                                                                                                           00000000000000000000000000000000000000000                                                                                                                                                                                                                                                          000000                                                                                                                                                                                                                                                                                                                                                              000000        
DA000000541200000040410014804532NATALIA                                           ABREU                                   ALVAREZ                                 C00101144228              19480428001FS000000000000000000000000000000                                                  AV. ANACAONA # 77, CONDOMINIO MIRDA 1, APTO. 3B                                                                                                                                                                     000001N00000000000000000000000000000000000000000000000000                                                                                                                                                           00000000000000000000000000000000000000000                                                                                                                                                                                                                                                          000000                                                                                                                                                                                                                                                                                                                                                              000000        
DA000000014300000484560001094018SALVADOR                                          POCHE                                                                           C00100253863              19291030001MS000000000000000000000000000000                                                  FELIX MARCANO # 200                                                                                                                                                                                                 000225N00000000000000000000000000000000000000000000000000                                                                                                                                                           00000000000000000000000000000000000000000                                                                                                                                                                                                                                                          000000                                                                                                                                                                                                                                                                                                                                                              000000        
DA000000665300000580030025710940ROSA LADY                                         NOVAS                                   PEREZ                                   C02200024749              19530815001FS000000000000000000000000000000                                                  RODEO # 38                                                                                                                                                                                                          000022N00000000000000000000000000000000000000000000000000                                                                                                                                                           00000000000000000000000000000000000000000                                                                                                                                                                                                                                                          000000                                                                                                                                                                                                                                                                                                                                                              000000        
DA000000666400000580240025064421ROSA ENEYDA                                       FERRERAS                                                                        C02200071005              19420830001FS000000000000000000000000000000                                                  2DA # 49                                                                                                                                                                                                            000022N00000000000000000000000000000000000000000000000000                                                                                                                                                           00000000000000000000000000000000000000000                                                                                                                                                                                                                                                          000000                                                                                                                                                                                                                                                                                                                                                              000000        
DA000000338000000537580000458164MIGUEL ANGEL                                      GONZALEZ                                GONZALEZ                                C00107280893              19470410001MS000000000000000000000000000000                                                  MANZ. 4710, EDF/ 3, APTO. 1-C                                                                                                                                                                                       000223N00000000000000000000000000000000000000000000000000                                                                                                                                                           00000000000000000000000000000000000000000                                                                                                                                                                                                                                                          000000                                                                                                                                                                                                                                                                                                                                                              000000        
DA000000351500000541590001501481ROSA                                              CEPEDA                                  CORDERO                                 C00107826174              19530904001FS000000000000000000000000000000                                                  AMAPOLA # 39                                                                                                                                                                                                        000223N00000000000000000000000000000000000000000000000000                                                                                                                                                           00000000000000000000000000000000000000000                                                                                                                                                                                                                                                          000000                                                                                                                                                                                                                                                                                                                                                              000000        
DA000000350300000000000000000000LUIS                                              RUIZ                                    DIPRE                                   C10400075346              19350812001MS000000000000000000000000000000                                                  SEGUNDA # 58                                                                                                                                                                                                        000104N00000000000000000000000000000000000000000000000000                                                                                                                                                           00000000000000000000000000000000000000000                                                                                                                                                                                                                                                          000000                                                                                                                                                                                                                                                                                                                                                              000000        
DA000000105400000000000000000000ADRIANO DE JESUS                                  GRULLON                                 MORONTA                                 C03101116697              19471129001MS000000000000000000000000000000                                                  4 # 3                                                                                                                                                                                                               000031N00000000000000000000000000000000000000000000000000                                                                                                                                                           00000000000000000000000000000000000000000                                                                                                                                                                                                                                                          000000                                                                                                                                                                                                                                                                                                                                                              000000        
DA000000008300000659010051104854SATURNINO                                         MENDEZ                                  BALBUENA                                C08100030256              19281129001MS000000000000000000000000000000                                                  ARROYO GRANDE # 66                                                                                                                                                                                                  000081N00000000000000000000000000000000000000000000000000                                                                                                                                                           00000000000000000000000000000000000000000                                                                                                                                                                                                                                                          000000                                                                                                                                                                                                                                                                                                                                                              000000        
DA000000151200000643370046228067JESUS MARIA                                       OVALLES                                 BENCOSME                                C05400298674              19320603001MS000000000000000000000000000000                                                  S/C                                                                                                                                                                                                                 000054N00000000000000000000000000000000000000000000000000                                                                                                                                                           00000000000000000000000000000000000000000                                                                                                                                                                                                                                                          000000                                                                                                                                                                                                                                                                                                                                                              000000        
DA000000154200000610140033399752FRANCIA MERCEDES                                  ESPINAL                                 ORTEGA                                  C03100771439              19400825001FC000000000000000000000000000000                                                  C/ 11 # 34                                                                                                                                                                                                          000031N00000000000000000000000000000000000000000000000000                                                                                                                                                           00000000000000000000000000000000000000000                                                                                                                                                                                                                                                          000000                                                                                                                                                                                                                                                                                                                                                              000000        
DA000000100000000629230035806964RAMON                                             PEÑA                                                                            C03900019427              19290626001MS000000000000000000000000000000                                                  C/ MARIA TRINIDAD SANCHEZ # 7                                                                                                                                                                                       000037N00000000000000000000000000000000000000000000000000                                                                                                                                                           00000000000000000000000000000000000000000                                                                                                                                                                                                                                                          000000                                                                                                                                                                                                                                                                                                                                                              000000        
DA000000169200000629300036028826GEORGINA                                          FRANCISCO                                                                       C03900022546              19410221001FS000000000000000000000000000000                                                  LA MARIPOSA#9                                                                                                                                                                                                       000120N00000000000000000000000000000000000000000000000000                                                                                                                                                           00000000000000000000000000000000000000000                                                                                                                                                                                                                                                          000000                                                                                                                                                                                                                                                                                                                                                              000000        
DA000000169200000629260035808614ROSA MARIA                                        ABREU                                   DIAZ                                    C03900021373              19441221001FC000000000000000000000000000000                                                  LA SABANA #26                                                                                                                                                                                                       000120N00000000000000000000000000000000000000000000000000                                                                                                                                                           00000000000000000000000000000000000000000                                                                                                                                                                                                                                                          000000                                                                                                                                                                                                                                                                                                                                                              000000        
DA000000147000000614320030069986ANA MERCEDES                                      ALMONTE                                 MINAYA                                  C03101390361              19450906001FS000000000000000000000000000000                                                                                                                                                                                                                                                                      000031N00000000000000000000000000000000000000000000000000                                                                                                                                                           00000000000000000000000000000000000000000                                                                                                                                                                                                                                                          000000                                                                                                                                                                                                                                                                                                                                                              000000        
DA000000311500000728370000764705MARIA ASUNCIONJ                                   CARRILLO                                CALVO                                   C00112062534              19110816001FS000000000000000000000000000000                                                  GALVAN # 32                                                                                                                                                                                                         000223N00000000000000000000000000000000000000000000000000                                                                                                                                                           00000000000000000000000000000000000000000                                                                                                                                                                                                                                                          000000                                                                                                                                                                                                                                                                                                                                                              000000        
DA000000033600000598850026201548NICOLAS                                           BATISTA                                 RIJO                                    C02600550095              19270210001MS000000000000000000000000000000                                                  HECTOR J. DIAZ # 40                                                                                                                                                                                                 000026N00000000000000000000000000000000000000000000000000                                                                                                                                                           00000000000000000000000000000000000000000                                                                                                                                                                                                                                                          000000                                                                                                                                                                                                                                                                                                                                                              000000        
DA000000033100000595100027762333DOMINGA                                           PEREZ                                   MATEO                                   C02600189944              19320415001FS000000000000000000000000000000                                                  JULIO A. GARCIA # 8                                                                                                                                                                                                 000026N00000000000000000000000000000000000000000000000000                                                                                                                                                           00000000000000000000000000000000000000000                                                                                                                                                                                                                                                          000000                                                                                                                                                                                                                                                                                                                                                              000000        
DA000000182800000525910015106211DANIEL SANTO                                      MORENO                                  JAVIER                                  C00105928816              19470710001MS000000000000000000000000000000                                                  BELLA VISTA # 12                                                                                                                                                                                                    000225N00000000000000000000000000000000000000000000000000                                                                                                                                                           00000000000000000000000000000000000000000                                                                                                                                                                                                                                                          000000                                                                                                                                                                                                                                                                                                                                                              000000        
DA000000033500000593610028665803ANDRES AVELINO                                    BERROA                                  BAEZ                                    C02600080812              19311110001MS000000000000000000000000000000                                                  COMPLEJO HABITACIONAL LOS MAESTROS # 6                                                                                                                                                                              000026N00000000000000000000000000000000000000000000000000                                                                                                                                                           00000000000000000000000000000000000000000                                                                                                                                                                                                                                                          000000                                                                                                                                                                                                                                                                                                                                                              000000        
S000066                                                                                                                               
