EPN42
DA000000364000000631710039207455ROSA MERCEDES                                     RIVAS                                   M DE REINOSO                            C04400136232              19570914001FS000000000000000000000000000000                                                  ENTRADA DE LOS ARROYOS # 8                                                                                                                                                                                          000044S00000000199209090000000000000000000000000000000000                                                                                                                                                           00000000000000000000000000000000000000000                                                                                                                                                                                                                                                          000000                                                                                                                                                                                                                                                                                                                                                              000000        
DA000000364100000631340039795178MIGUEL ANDRES                                     CASTRO                                  SOSA                                    C04400030021              19481130001MC000000000000000000000000000000                                                  C/ SENFLEUR # 19                                                                                                                                                                                                    000044N00000000000000000000000000000000000000000000000000                                                                                                                                                           00000000000000000000000000000000000000000                                                                                                                                                                                                                                                          000000                                                                                                                                                                                                                                                                                                                                                              000000        
DA000000363800000631430041383755LUISA ANDREA                                      RIVAS                                   DE RIVAS                                C04400081214              19521230001FS000000000000000000000000000000                                                  C/ PRIMERA # 09                                                                                                                                                                                                     000044N00000000000000000000000000000000000000000000000000                                                                                                                                                           00000000000000000000000000000000000000000                                                                                                                                                                                                                                                          000000                                                                                                                                                                                                                                                                                                                                                              000000        
DA000000364600000631620039801003FAUSTINO RAMON ANTONIO                            RODRIGUEZ                               PERALTA                                 C04400104784              19511206001MC000000000000000000000000000000                                                  C/ COLONIA 30 DE MAYO # 120                                                                                                                                                                                         000044S00000000199205070000000000000000000000000000000000                                                                                                                                                           00000000000000000000000000000000000000000                                                                                                                                                                                                                                                          000000                                                                                                                                                                                                                                                                                                                                                              000000        
DA000000911500000547620013036494EFIGENIA                                          MENDEZ                                  GERMAN                                  C00108826959              19460921001FC000000000000000000000000000000                                                  C/ERCILIA PEPIN#4, K.M. CARRT. DUARTE                                                                                                                                                                               000001N00000000000000000000000000000000000000000000000000                                                                                                                                                           00000000000000000000000000000000000000000                                                                                                                                                                                                                                                          000000                                                                                                                                                                                                                                                                                                                                                              000000        
DA000000919100000520510016323057TERESA                                            MEDINA                                  CASTRO                                  C00105056667              19480827001FC000000000000000000000000000000                                                  MANZ. C#7, SALOME UREÑA                                                                                                                                                                                             000225N00000000000000000000000000000000000000000000000000                                                                                                                                                           00000000000000000000000000000000000000000                                                                                                                                                                                                                                                          000000                                                                                                                                                                                                                                                                                                                                                              000000        
DA000000911800000532790001548408ISABEL                                            JIMENEZ                                 CARABALLO                               C00106808520              19540718001FC000000000000000000000000000000                                                  VILLA DE PANTOJA#28 MANZ. M                                                                                                                                                                                         000224N00000000000000000000000000000000000000000000000000                                                                                                                                                           00000000000000000000000000000000000000000                                                                                                                                                                                                                                                          000000                                                                                                                                                                                                                                                                                                                                                              000000        
DA000000872700000511510001259327YASKARA MARIA                                     POLANCO                                 VASQUEZ                                 C00103549044              19570507001FS000000000000000000000000000000                                                  MANZ.H EDIF.10 APTO 1B                                                                                                                                                                                              000001N00000000000000000000000000000000000000000000000000                                                                                                                                                           00000000000000000000000000000000000000000                                                                                                                                                                                                                                                          000000                                                                                                                                                                                                                                                                                                                                                              000000        
DA000000930100000538760008409917ALTAGRACIA                                        MOLINA                                  Y VASQUEZ                               C00107423964              19360302001FS000000000000000000000000000000                                                  C/ 2DA #21-B                                                                                                                                                                                                        000223N00000000000000000000000000000000000000000000000000                                                                                                                                                           00000000000000000000000000000000000000000                                                                                                                                                                                                                                                          000000                                                                                                                                                                                                                                                                                                                                                              000000        
DA000000911100000501350002221748ANA ANTONIA                                       SANCHEZ                                 DE GARCIA                               C00102007994              19351202001FC000000000000000000000000000000                                                  C/JARDINES ENCANTADOR#41                                                                                                                                                                                            000225N00000000000000000000000000000000000000000000000000                                                                                                                                                           00000000000000000000000000000000000000000                                                                                                                                                                                                                                                          000000                                                                                                                                                                                                                                                                                                                                                              000000        
DA000000911600000539310000489121PATRIA PELAGIA                                    MENDEZ                                  DE RODRIGUEZ                            C00107477663              19430711001FC000000000000000000000000000000                                                  C/ CENTRAL #4                                                                                                                                                                                                       000001N00000000000000000000000000000000000000000000000000                                                                                                                                                           00000000000000000000000000000000000000000                                                                                                                                                                                                                                                          000000                                                                                                                                                                                                                                                                                                                                                              000000        
DA000000871400000518400005592021ELBA CORINA                                       MERCEDES                                MORENO                                  C00104744958              19390616001FS000000000000000000000000000000                                                  C/ CAMINITO # 84                                                                                                                                                                                                    000225N00000000000000000000000000000000000000000000000000                                                                                                                                                           00000000000000000000000000000000000000000                                                                                                                                                                                                                                                          000000                                                                                                                                                                                                                                                                                                                                                              000000        
DA000000836500000652040048539765LERIDA                                            TRINIDAD                                Y HERRERA                               C06600010398              19530415001FC000000000000000000000000000000                                                  C/ DUARTE # 28                                                                                                                                                                                                      000066N00000000000000000000000000000000000000000000000000                                                                                                                                                           00000000000000000000000000000000000000000                                                                                                                                                                                                                                                          000000                                                                                                                                                                                                                                                                                                                                                              000000        
DA000000876000000484870012822213JESUS BDO                                         MARTINEZ                                REYES                                   C00100290014              19440222001MS000000000000000000000000000000                                                  C/FCO. HQUEZ Y CARVAJAL #166                                                                                                                                                                                        000001S00000000199202050000000000000000000000000000000000                                                                                                                                                           00000000000000000000000000000000000000000                                                                                                                                                                                                                                                          000000                                                                                                                                                                                                                                                                                                                                                              000000        
DA000000910100000801720010354927ALTAGRACIA                                        SAMBOY                                  CUEVAS                                  C00102672722              19460507001FS000000000000000000000000000000                                                  C/ 8 # 5 HERRERA                                                                                                                                                                                                    000001N00000000000000000000000000000000000000000000000000                                                                                                                                                           00000000000000000000000000000000000000000                                                                                                                                                                                                                                                          000000                                                                                                                                                                                                                                                                                                                                                              000000        
DA000000837800000652390047309371JUANA DOLORES                                     FERREIRA                                                                        C06600158239              19510615001FC000000000000000000000000000000                                                  C/ LUPERON # 05                                                                                                                                                                                                     000066N00000000000000000000000000000000000000000000000000                                                                                                                                                           00000000000000000000000000000000000000000                                                                                                                                                                                                                                                          000000                                                                                                                                                                                                                                                                                                                                                              000000        
DA000000874100000578620023469341BEATA ANTONIA DEL JESUS                           HERNANDEZ                               PEREZ                                   C02000001004              19490315001FC000000000000000000000000000000                                                  MANZ. 4704 EDIF. 1 APTO. 1-B                                                                                                                                                                                        000223N00000000000000000000000000000000000000000000000000                                                                                                                                                           00000000000000000000000000000000000000000                                                                                                                                                                                                                                                          000000                                                                                                                                                                                                                                                                                                                                                              000000        
DA000000268800000646960043469500SOBELDA                                           FRANCISCO                               ALMANZAR                                C05600231178              19511203001FS000000000000000000000000000000                                                  C /MANUEL SIMO, EDIF. TREBOL I, APTO 4-B                                                                                                                                                                            000056N00000000000000000000000000000000000000000000000000                                                                                                                                                           00000000000000000000000000000000000000000                                                                                                                                                                                                                                                          000000                                                                                                                                                                                                                                                                                                                                                              000000        
DA000000277700000646920042674476ANA MATILDE                                       PEREZ                                   DE VENTURA                              C05600227341              19470224001FC000000000000000000000000000000                                                  C/ DUVERGE # 68                                                                                                                                                                                                     000056N00000000000000000000000000000000000000000000000000                                                                                                                                                           00000000000000000000000000000000000000000                                                                                                                                                                                                                                                          000000                                                                                                                                                                                                                                                                                                                                                              000000        
DA000000608400000648030045076974DOLORES                                           MORILLO                                 GUTIERREZ DE OLIVO                      C05600749500              19420625001FC000000000000000000000000000000                                                  EDIF. 5 APTO. 301                                                                                                                                                                                                   000056N00000000000000000000000000000000000000000000000000                                                                                                                                                           00000000000000000000000000000000000000000                                                                                                                                                                                                                                                          000000                                                                                                                                                                                                                                                                                                                                                              000000        
DA000000277900000879320043996500ANA SELESTE                                       HIDALGO                                 MARIA                                   C05600588411              19500409001FS000000000000000000000000000000                                                  EDIF. 8, APTO. 2-A                                                                                                                                                                                                  000056N00000000000000000000000000000000000000000000000000                                                                                                                                                           00000000000000000000000000000000000000000                                                                                                                                                                                                                                                          000000                                                                                                                                                                                                                                                                                                                                                              000000        
DA000000269100000645880046649718FLORA                                             SALAZAR                                 RIVERA                                  C05600012131              19400620001FC000000000000000000000000000000                                                  C/ MELLA # 67                                                                                                                                                                                                       000056N00000000000000000000000000000000000000000000000000                                                                                                                                                           00000000000000000000000000000000000000000                                                                                                                                                                                                                                                          000000                                                                                                                                                                                                                                                                                                                                                              000000        
DA000000507700000645410046618316THELMA                                            CRUZ                                    DE GONZALEZ                             C05500151419              19460506001FC000000000000000000000000000000                                                  C/ SAN JOSE DE CONUCO # 33                                                                                                                                                                                          000055N00000000000000000000000000000000000000000000000000                                                                                                                                                           00000000000000000000000000000000000000000                                                                                                                                                                                                                                                          000000                                                                                                                                                                                                                                                                                                                                                              000000        
DA000000269200000647260044523093CARLOS                                            PAULINO                                 AMPARO                                  C05600374762              19531016001MC000000000000000000000000000000                                                  LOMA DE LA JOYA                                                                                                                                                                                                     000056S19920309199303131997031119980612000000000000000000                                                                                                                                                           00000000000000000000000000000000000000000                                                                                                                                                                                                                                                          000000                                                                                                                                                                                                                                                                                                                                                              000000        
DA000000909600000570960023408634FEDERICO                                          DE LA ROSA                              MATEO                                   C01500009343              19571015001MC000000000000000000000000000000                                                  SABANA CRUZ # 28                                                                                                                                                                                                    000015N00000000000000000000000000000000000000000000000000                                                                                                                                                           00000000000000000000000000000000000000000                                                                                                                                                                                                                                                          000000                                                                                                                                                                                                                                                                                                                                                              000000        
DA000000364800000657260049406905NICANOR                                           AQUINO                                  ALCANTARA                               C07400026543              19440110001MC000000000000000000000000000000                                                  C/ 27 DE FEBRERO # 16                                                                                                                                                                                               000044N00000000000000000000000000000000000000000000000000                                                                                                                                                           00000000000000000000000000000000000000000                                                                                                                                                                                                                                                          000000                                                                                                                                                                                                                                                                                                                                                              000000        
DA000000296800000666790051376753ELENA ALTAGRACIA                                  MOTA                                                                            C09300049880              19520103001FC000000000000000000000000000000                                                  C/ LA GUINEA #20                                                                                                                                                                                                    000085N00000000000000000000000000000000000000000000000000                                                                                                                                                           00000000000000000000000000000000000000000                                                                                                                                                                                                                                                          000000                                                                                                                                                                                                                                                                                                                                                              000000        
DA000000043900000873610038328336MARIA                                             LOPEZ                                   VALDEZ                                  C04700248513              19321102001FS000000000000000000000000000000                                                  C/ 2 # 52                                                                                                                                                                                                           000047N00000000000000000000000000000000000000000000000000                                                                                                                                                           00000000000000000000000000000000000000000                                                                                                                                                                                                                                                          000000                                                                                                                                                                                                                                                                                                                                                              000000        
DA000000060000000635060041082198LUZ JOSEFINA                                      RODRIGUEZ                               HIDALGO                                 C04700244900              19411126001FS000000000000000000000000000000                                                  C/ PEÑA Y REINOSO # 15                                                                                                                                                                                              000047N00000000000000000000000000000000000000000000000000                                                                                                                                                           00000000000000000000000000000000000000000                                                                                                                                                                                                                                                          000000                                                                                                                                                                                                                                                                                                                                                              000000        
DA000000061700000635770040805632MARIA                                             ROSARIO                                                                         C04700549829              19400908001FC000000000000000000000000000000                                                  C/ PRINCIPAL # 79                                                                                                                                                                                                   000047N00000000000000000000000000000000000000000000000000                                                                                                                                                           00000000000000000000000000000000000000000                                                                                                                                                                                                                                                          000000                                                                                                                                                                                                                                                                                                                                                              000000        
DA000000063000001060200039871872YOLANDA DE JESUS                                  RODRIGUEZ                               NUÑEZ DE PEREZ                          C04700116744              19470330001FC000000000000000000000000000000                                                  C/ JUANA SALTITOPA # 20                                                                                                                                                                                             000047N00000000000000000000000000000000000000000000000000                                                                                                                                                           00000000000000000000000000000000000000000                                                                                                                                                                                                                                                          000000                                                                                                                                                                                                                                                                                                                                                              000000        
DA000000060200000873280039249106ANA ZENAIDA                                       ACOSTA                                  SANTOS                                  C04700023452              19461030001FS000000000000000000000000000000                                                  C/ 5 # 8                                                                                                                                                                                                            000047N00000000000000000000000000000000000000000000000000                                                                                                                                                           00000000000000000000000000000000000000000                                                                                                                                                                                                                                                          000000                                                                                                                                                                                                                                                                                                                                                              000000        
DA000000060700000636130042327665JULIO CESAR                                       TINEO                                   RGUEZ                                   C04700688874              19330904001MC000000000000000000000000000000                                                  C/ DE GUACO # 81                                                                                                                                                                                                    000047N00000000000000000000000000000000000000000000000000                                                                                                                                                           00000000000000000000000000000000000000000                                                                                                                                                                                                                                                          000000                                                                                                                                                                                                                                                                                                                                                              000000        
DA000000793200000000000000000000JULIO CESAR                                       DURAN                                   ORTIZ                                   C05000252527              19421005001MC000000000000000000000000000000                                                  C/ EUGENIO MARIA DE HOSTO # 8                                                                                                                                                                                       000050N00000000000000000000000000000000000000000000000000                                                                                                                                                           00000000000000000000000000000000000000000                                                                                                                                                                                                                                                          000000                                                                                                                                                                                                                                                                                                                                                              000000        
DA000000042900000636640040785691ALTAGRACIA GUINAMARIS                             DELGADO                                 DE MORILLO                              C04700988597              19530917001FC000000000000000000000000000000                                                  ANACAHUITA                                                                                                                                                                                                          000047N00000000000000000000000000000000000000000000000000                                                                                                                                                           00000000000000000000000000000000000000000                                                                                                                                                                                                                                                          000000                                                                                                                                                                                                                                                                                                                                                              000000        
DA000000059800000633990039863976JOSE FRANCELIN                                    ALMONTE                                 MANCEBO                                 C04700059480              19600710001MC000000000000000000000000000000                                                  C/ 5 # 14                                                                                                                                                                                                           000047S00000000199612290000000000000000000000000000000000                                                                                                                                                           00000000000000000000000000000000000000000                                                                                                                                                                                                                                                          000000                                                                                                                                                                                                                                                                                                                                                              000000        
DA000000043300000635880038940928MARIA I                                           ABREU                                   HICIANO                                 C04700566625              19400501001FS000000000000000000000000000000                                                  ARENOSO KM. 1 S/N                                                                                                                                                                                                   000047N00000000000000000000000000000000000000000000000000                                                                                                                                                           00000000000000000000000000000000000000000                                                                                                                                                                                                                                                          000000                                                                                                                                                                                                                                                                                                                                                              000000        
DA000000062300000873320041050056ALTAGRACIA                                        BAEZ                                    ABREU                                   C04700045703              19430205001FS000000000000000000000000000000                                                  C/ MELLA # 17                                                                                                                                                                                                       000047N00000000000000000000000000000000000000000000000000                                                                                                                                                           00000000000000000000000000000000000000000                                                                                                                                                                                                                                                          000000                                                                                                                                                                                                                                                                                                                                                              000000        
DA000000061600000634890040183097ELIAS ALBERTO                                     PE#A                                                                            C04700205752              19370704001MC000000000000000000000000000000                                                  C/ MANUEL UBALDO GOMEZ # 88                                                                                                                                                                                         000047N00000000000000000000000000000000000000000000000000                                                                                                                                                           00000000000000000000000000000000000000000                                                                                                                                                                                                                                                          000000                                                                                                                                                                                                                                                                                                                                                              000000        
DA000000061100000634410040167127YOLANDA ARGENTINA                                 VALDEZ                                  FERNANDEZ                               C04700123138              19430825001FC000000000000000000000000000000                                                  C /PADRE MOYA # 3 ALTOS                                                                                                                                                                                             000047N00000000000000000000000000000000000000000000000000                                                                                                                                                           00000000000000000000000000000000000000000                                                                                                                                                                                                                                                          000000                                                                                                                                                                                                                                                                                                                                                              000000        
DA000000060300000636140041741843MIGUEL PAULINO                                    GOMEZ                                   ACOSTA                                  C04700695887              19391202001MC000000000000000000000000000000                                                  C/ JULIO CESAR LUMBAR # 35                                                                                                                                                                                          000047N00000000000000000000000000000000000000000000000000                                                                                                                                                           00000000000000000000000000000000000000000                                                                                                                                                                                                                                                          000000                                                                                                                                                                                                                                                                                                                                                              000000        
DA000000043500000622340036625332MILADY INOCENCIA                                  CRUZ                                    GARCIA                                  C03400043232              19500622001FS000000000000000000000000000000                                                  C/ PADRE ADOLFO # 10                                                                                                                                                                                                000047N00000000000000000000000000000000000000000000000000                                                                                                                                                           00000000000000000000000000000000000000000                                                                                                                                                                                                                                                          000000                                                                                                                                                                                                                                                                                                                                                              000000        
DA000000678200000637920040545366JOSEFINA DE LOS ANGELES                           CEPEDA                                  HERNANDEZ                               C04800128557              19450826001FC000000000000000000000000000000                                                  AV. MEXICO #54                                                                                                                                                                                                      000048N00000000000000000000000000000000000000000000000000                                                                                                                                                           00000000000000000000000000000000000000000                                                                                                                                                                                                                                                          000000                                                                                                                                                                                                                                                                                                                                                              000000        
DA000000673300000638410040887924HERMINIA ALTAGRACIA                               CACERES                                 VASQUEZ DE GONZALEZ                     C04800278246              19441223001FC000000000000000000000000000000                                                  LA SALVIA #                                                                                                                                                                                                         000048N00000000000000000000000000000000000000000000000000                                                                                                                                                           00000000000000000000000000000000000000000                                                                                                                                                                                                                                                          000000                                                                                                                                                                                                                                                                                                                                                              000000        
DA000000723300000656570049188515ELSA MARIBEL                                      LEON                                    GONZALEZ                                C07200064140              19670618001FC000000000000000000000000000000                                                  C/ LA ALTAGRACIA S/N                                                                                                                                                                                                000072S19940223199508090000000000000000000000000000000000                                                                                                                                                           00000000000000000000000000000000000000000                                                                                                                                                                                                                                                          000000                                                                                                                                                                                                                                                                                                                                                              000000        
DA000000831900000563700019056651ALEJO                                             CONTRERAS                               BELLO                                   C00500095989              19370424001MC000000000000000000000000000000                                                  C/ SAN ANTONIO # 122                                                                                                                                                                                                000005N00000000000000000000000000000000000000000000000000                                                                                                                                                           00000000000000000000000000000000000000000                                                                                                                                                                                                                                                          000000                                                                                                                                                                                                                                                                                                                                                              000000        
DA000000832100000563860021354932BARTOLO                                           PAREDES                                 M                                       C00500183520              19541110001MC000000000000000000000000000000                                                  C/ LOS BOTADOS # 2-234                                                                                                                                                                                              000005S19950418000000000000000000000000000000000000000000                                                                                                                                                           00000000000000000000000000000000000000000                                                                                                                                                                                                                                                          000000                                                                                                                                                                                                                                                                                                                                                              000000        
DA000000911300000564490018226028JULIA                                             SANTANA                                 ALBUEZ                                  C00800037053              19480101001FS000000000000000000000000000000                                                  FCO. A CAAMAÑO #10                                                                                                                                                                                                  000008N00000000000000000000000000000000000000000000000000                                                                                                                                                           00000000000000000000000000000000000000000                                                                                                                                                                                                                                                          000000                                                                                                                                                                                                                                                                                                                                                              000000        
DA000000831800000563750021349651RAMON                                             DEL ROSARIO                             REYES                                   C00500149760              19421014001MC000000000000000000000000000000                                                  LOS CAIMITOS# 13                                                                                                                                                                                                    000005N00000000000000000000000000000000000000000000000000                                                                                                                                                           00000000000000000000000000000000000000000                                                                                                                                                                                                                                                          000000                                                                                                                                                                                                                                                                                                                                                              000000        
DA000000831600000563280020067508NICOLACINA                                        BERIGUETE                               EVANGELISTA                             C00500000732              19621028001FS000000000000000000000000000000                                                  C/ JUAN BAUTISTA CRUZ #25                                                                                                                                                                                           000005S19940721000000000000000000000000000000000000000000                                                                                                                                                           00000000000000000000000000000000000000000                                                                                                                                                                                                                                                          000000                                                                                                                                                                                                                                                                                                                                                              000000        
DA000000550200000563820020625254CLETO                                             DE LA CRUZ                                                                      C00500171137              19521120001MS000000000000000000000000000000                                                  LA COLORADA # 24                                                                                                                                                                                                    000005N00000000000000000000000000000000000000000000000000                                                                                                                                                           00000000000000000000000000000000000000000                                                                                                                                                                                                                                                          000000                                                                                                                                                                                                                                                                                                                                                              000000        
DA000000833400000563720021180328FELIX                                             DE LA CRUZ                              ALMONTE                                 C00500096458              19480710001MC000000000000000000000000000000                                                  C/ SAN ANTONIO # 11                                                                                                                                                                                                 000005N00000000000000000000000000000000000000000000000000                                                                                                                                                           00000000000000000000000000000000000000000                                                                                                                                                                                                                                                          000000                                                                                                                                                                                                                                                                                                                                                              000000        
DA000000784700000561750018487184SERGIO DANILO                                     OBJIO                                   MORDAN                                  C00300144771              19440610001MC000000000000000000000000000000                                                  C/ FRANCISCO GOMEZ #11                                                                                                                                                                                              000003N00000000000000000000000000000000000000000000000000                                                                                                                                                           00000000000000000000000000000000000000000                                                                                                                                                                                                                                                          000000                                                                                                                                                                                                                                                                                                                                                              000000        
DA000000723900000629470034614214EDUARDA                                           SOSA                                    TORIBIO                                 C03900067301              19501113001FC000000000000000000000000000000                                                  QUEBRADA HONDA S/N                                                                                                                                                                                                  000039N00000000000000000000000000000000000000000000000000                                                                                                                                                           00000000000000000000000000000000000000000                                                                                                                                                                                                                                                          000000                                                                                                                                                                                                                                                                                                                                                              000000        
DA000000074900001047010046260210DULCE IRENE                                       PEREZ                                                                           C05500186670              19410405001FC000000000000000000000000000000                                                  ALTO DE PIEDRA # 90                                                                                                                                                                                                 000055N00000000000000000000000000000000000000000000000000                                                                                                                                                           00000000000000000000000000000000000000000                                                                                                                                                                                                                                                          000000                                                                                                                                                                                                                                                                                                                                                              000000        
DA000000710300000644610046602784FRANCISCO JOSE                                    BRITO                                   LIRIANO                                 C05500021661              19421010001MC000000000000000000000000000000                                                  C/ PROF. NICOLAS CAMILO EDIF. 36 APTO. 101                                                                                                                                                                          000055N00000000000000000000000000000000000000000000000000                                                                                                                                                           00000000000000000000000000000000000000000                                                                                                                                                                                                                                                          000000                                                                                                                                                                                                                                                                                                                                                              000000        
DA000000074800000644500046576804AMANDA H                                          GARCIA                                  DE PEREZ                                C05500006308              19460822001FC000000000000000000000000000000                                                  C/ SANCHEZ # 65                                                                                                                                                                                                     000055N00000000000000000000000000000000000000000000000000                                                                                                                                                           00000000000000000000000000000000000000000                                                                                                                                                                                                                                                          000000                                                                                                                                                                                                                                                                                                                                                              000000        
DA000000710600000645650045358164ZOILA ESPERANZA                                   REYNOSO                                 MARQUEZ                                 C05500209019              19461212001FC000000000000000000000000000000                                                  EDIF. 35 APTO. 101                                                                                                                                                                                                  000055N00000000000000000000000000000000000000000000000000                                                                                                                                                           00000000000000000000000000000000000000000                                                                                                                                                                                                                                                          000000                                                                                                                                                                                                                                                                                                                                                              000000        
DA000000074700000645720046000856REYNA I                                           REYES                                   DE LIRIANO                              C05500223952              19441119001FC000000000000000000000000000000                                                  C/ ROMAN BRACHE # 43                                                                                                                                                                                                000055N00000000000000000000000000000000000000000000000000                                                                                                                                                           00000000000000000000000000000000000000000                                                                                                                                                                                                                                                          000000                                                                                                                                                                                                                                                                                                                                                              000000        
DA000000072900000878950045346120MARIA YOLANDA                                     ALMANZAR                                ROSARIO                                 C05500117394              19420616001FC000000000000000000000000000000                                                  C/ OJO DE AGUA # 131                                                                                                                                                                                                000055N00000000000000000000000000000000000000000000000000                                                                                                                                                           00000000000000000000000000000000000000000                                                                                                                                                                                                                                                          000000                                                                                                                                                                                                                                                                                                                                                              000000        
DA000000073600000645190043728406AURA VIRGEN                                       LUNA                                    DE GOMEZ                                C05500112064              19400311001FC000000000000000000000000000000                                                  C/ OJO DE AGUA # 19                                                                                                                                                                                                 000055N00000000000000000000000000000000000000000000000000                                                                                                                                                           00000000000000000000000000000000000000000                                                                                                                                                                                                                                                          000000                                                                                                                                                                                                                                                                                                                                                              000000        
DA000000507100000636670038109677ANTONIA MERCEDES                                  POLANCO                                 BRITO                                   C04700995626              19480315001FC000000000000000000000000000000                                                  C/ BUDY DEHSSE # 53-A                                                                                                                                                                                               000055N00000000000000000000000000000000000000000000000000                                                                                                                                                           00000000000000000000000000000000000000000                                                                                                                                                                                                                                                          000000                                                                                                                                                                                                                                                                                                                                                              000000        
DA000000072500000878910046612680DANILO ANTONIO                                    GIL                                     JIMENEZ                                 C05500108013              19471202001MC000000000000000000000000000000                                                  MONTE ADENTRO # 81                                                                                                                                                                                                  000055N00000000000000000000000000000000000000000000000000                                                                                                                                                           00000000000000000000000000000000000000000                                                                                                                                                                                                                                                          000000                                                                                                                                                                                                                                                                                                                                                              000000        
DA000000072800000645260045346361VIRGEN                                            TAVERAS                                 SANCHEZ                                 C05500120885              19430911001FS000000000000000000000000000000                                                  C/ OJO DE AGUA # 22                                                                                                                                                                                                 000055N00000000000000000000000000000000000000000000000000                                                                                                                                                           00000000000000000000000000000000000000000                                                                                                                                                                                                                                                          000000                                                                                                                                                                                                                                                                                                                                                              000000        
DA000003071700000644990042934916HILDA MARIA                                       TAVERAS                                 SANCHEZ DE GERMAN                       C05500048797              19410424001FC000000000000000000000000000000                                                  LAS CAOBAS # 8-66                                                                                                                                                                                                   000055N00000000000000000000000000000000000000000000000000                                                                                                                                                           00000000000000000000000000000000000000000                                                                                                                                                                                                                                                          000000                                                                                                                                                                                                                                                                                                                                                              000000        
DA000000073200000645240044138304LUIS ESPERANZA                                    GONZALEZ                                FAMILIA                                 C05500118715              19421218001MC000000000000000000000000000000                                                  C/ ORLANDO MARTINEZ # 24                                                                                                                                                                                            000031N00000000000000000000000000000000000000000000000000                                                                                                                                                           00000000000000000000000000000000000000000                                                                                                                                                                                                                                                          000000                                                                                                                                                                                                                                                                                                                                                              000000        
DA000000710400000644470045036996YSIDRO MIGUEL                                     GONZALEZ                                ESCA#O                                  C05500001903              19410515001MC000000000000000000000000000000                                                  C/ BUDY DHOSSE # 37                                                                                                                                                                                                 000055N00000000000000000000000000000000000000000000000000                                                                                                                                                           00000000000000000000000000000000000000000                                                                                                                                                                                                                                                          000000                                                                                                                                                                                                                                                                                                                                                              000000        
DA000000072600000644760045033175MARIA TERESA                                      OSORIO                                  REYES                                   C05500032668              19410910001FC000000000000000000000000000000                                                  EDIF. 4, APTO. 102                                                                                                                                                                                                  000055N00000000000000000000000000000000000000000000000000                                                                                                                                                           00000000000000000000000000000000000000000                                                                                                                                                                                                                                                          000000                                                                                                                                                                                                                                                                                                                                                              000000        
DA000000507000000645540044530047CANDIDA ESPERANZA                                 BRITO                                   PE#A                                    C05500184782              19340202001FS000000000000000000000000000000                                                  C/ LAS CAOBAS S/N                                                                                                                                                                                                   000055N00000000000000000000000000000000000000000000000000                                                                                                                                                           00000000000000000000000000000000000000000                                                                                                                                                                                                                                                          000000                                                                                                                                                                                                                                                                                                                                                              000000        
DA000000837700000652370047072992PAULA                                             DUARTE                                  REYES DE MUÑOZ                          C06600156852              19430126001FC000000000000000000000000000000                                                  C/ PADRE BILLINI # 43                                                                                                                                                                                               000066N00000000000000000000000000000000000000000000000000                                                                                                                                                           00000000000000000000000000000000000000000                                                                                                                                                                                                                                                          000000                                                                                                                                                                                                                                                                                                                                                              000000        
DA000000836200000652210048215885TRINIDAD                                          ADAMES                                  Y DE LA CRUZ DE J                       C06600034398              19460917001FC000000000000000000000000000000                                                  C/ TRINA DE MOYA # 24-ALTOS, ESQ. RIVAS.                                                                                                                                                                            000066N00000000000000000000000000000000000000000000000000                                                                                                                                                           00000000000000000000000000000000000000000                                                                                                                                                                                                                                                          000000                                                                                                                                                                                                                                                                                                                                                              000000        
DA000000837900000652100048442607GRACIELA                                          PAREDES                                 RESTITUYO                               C06600019720              19430820001FS000000000000000000000000000000                                                  C/MELLA # 31                                                                                                                                                                                                        000066N00000000000000000000000000000000000000000000000000                                                                                                                                                           00000000000000000000000000000000000000000                                                                                                                                                                                                                                                          000000                                                                                                                                                                                                                                                                                                                                                              000000        
DA000000836300000652230048541647MAXIMA                                            DE SALAS                                DE LOS SANTOS                           C06600039066              19371113001FC000000000000000000000000000000                                                  C/ TRINA DE MOYA # 17                                                                                                                                                                                               000066N00000000000000000000000000000000000000000000000000                                                                                                                                                           00000000000000000000000000000000000000000                                                                                                                                                                                                                                                          000000                                                                                                                                                                                                                                                                                                                                                              000000        
