EPN42
DA000001204800000086240010864226CELESTE ZENEIDA                                   PEREZ                                   RODRIGUEZ                               C00103355699              19370124001FC000000000000000000000000000000                                                  MANZ. I, EDIF. 1, APTO 3-B                                                                                                                                                                                          000223N00000000000000000000000000000000000000000000000000                                                                                                                                                           00000000000000000000000000000000000000000                                                                                                                                                                                                                                                          000000                                                                                                                                                                                                                                                                                                                                                              000000        
DA000001082100000621620035443134MARIA MAGDALENA                                   BERNARD                                 CRUZ DE AYALA                           C03300021858              19570622001FC000000000000000000000000000000                                                  AV. MARIA TRINIDAD SANCHEZ #14                                                                                                                                                                                      000033N00000000000000000000000000000000000000000000000000                                                                                                                                                           00000000000000000000000000000000000000000                                                                                                                                                                                                                                                          000000                                                                                                                                                                                                                                                                                                                                                              000000        
DA000001197700000678220054028510CARMEN                                            PEÑA                                    MARTINEZ                                C11800054493              19540423001FS000000000000000000000000000000                                                  C/ PADRE FANTINO #80                                                                                                                                                                                                000048N00000000000000000000000000000000000000000000000000                                                                                                                                                           00000000000000000000000000000000000000000                                                                                                                                                                                                                                                          000000                                                                                                                                                                                                                                                                                                                                                              000000        
DA000001276500000648870043534530CRISTINA                                          ROJAS                                   Y ROJAS                                 C05800007675              19400401001FU000000000000000000000000000000                                                  C/ OSTO                                                                                                                                                                                                             000058N00000000000000000000000000000000000000000000000000                                                                                                                                                           00000000000000000000000000000000000000000                                                                                                                                                                                                                                                          000000                                                                                                                                                                                                                                                                                                                                                              000000        
DA000001428200000228760024138138CRUZ ALEJANDRINA                                  PINA                                                                            C01100017357              19450503001FS000000000000000000000000000000                                                  C/ GENERAL RODRIGUEZ REYES #9                                                                                                                                                                                       000011N00000000000000000000000000000000000000000000000000                                                                                                                                                           00000000000000000000000000000000000000000                                                                                                                                                                                                                                                          000000                                                                                                                                                                                                                                                                                                                                                              000000        
DA000001421000001044190057504633BRIXEIDA MERCEDES                                 ACOSTA                                  HURTADO                                 C04600356937              19311229001FU000000000000000000000000000000                                                  C/ JUANA SALTITOPA #45                                                                                                                                                                                              000046N00000000000000000000000000000000000000000000000000                                                                                                                                                           00000000000000000000000000000000000000000                                                                                                                                                                                                                                                          000000                                                                                                                                                                                                                                                                                                                                                              000000        
DA000001468500000601000027967986GLADYS MARIA                                      MEJIA                                   UBIERA DE REYES                         C02700192798              19440318001FC000000000000000000000000000000                                                  KM 2 C. SABANA DE LA MAR                                                                                                                                                                                            000027N00000000000000000000000000000000000000000000000000                                                                                                                                                           00000000000000000000000000000000000000000                                                                                                                                                                                                                                                          000000                                                                                                                                                                                                                                                                                                                                                              000000        
DA000001458600005639160000190748LEONIDAS                                          EVANGELISTA                             SANCHEZ                                 C00500235734              19380129001FS000000000000000000000000000000                                                  JAGUEY #13                                                                                                                                                                                                          000005N00000000000000000000000000000000000000000000000000                                                                                                                                                           00000000000000000000000000000000000000000                                                                                                                                                                                                                                                          000000                                                                                                                                                                                                                                                                                                                                                              000000        
DA000001452500000614120000370920ELSA MARGARITA                                    AYBAR                                   VENTURA                                 C03101311029              19440423001FU000000000000000000000000000000                                                  LA CIENEGA, LOS TOCONES #57                                                                                                                                                                                         000031N00000000000000000000000000000000000000000000000000                                                                                                                                                           00000000000000000000000000000000000000000                                                                                                                                                                                                                                                          000000                                                                                                                                                                                                                                                                                                                                                              000000        
DA000001460100000178840002982333JOSEFA                                            ALVAREZ                                                                         C00111423828              19260319001FS000000000000000000000000000000                                                  C/ [EDRO BONILLAESQ. GREGORIO GARCIA EDIF. 5 APTO. 3B                                                                                                                                                               000223N00000000000000000000000000000000000000000000000000                                                                                                                                                           00000000000000000000000000000000000000000                                                                                                                                                                                                                                                          000000                                                                                                                                                                                                                                                                                                                                                              000000        
DA000001471600000526130003566023DOMITILA                                          SANTY                                   SORIANO                                 C00105950398              19410506001FS000000000000000000000000000000                                                  C/ CENTRO DE LA CIUDAD #30                                                                                                                                                                                          000225N00000000000000000000000000000000000000000000000000                                                                                                                                                           00000000000000000000000000000000000000000                                                                                                                                                                                                                                                          000000                                                                                                                                                                                                                                                                                                                                                              000000        
DA000001472000000484940005357531JUAN ANTONIO                                      JORGE                                   MARILLA                                 C00100300540              19511215001MC000000000000000000000000000000                                                  C/ INDEPENDENCIA #47                                                                                                                                                                                                000228N00000000000000000000000000000000000000000000000000                                                                                                                                                           00000000000000000000000000000000000000000                                                                                                                                                                                                                                                          000000                                                                                                                                                                                                                                                                                                                                                              000000        
DA000001440500000999500011678368MARIA LUISA                                       BELTRE                                                                          C00105519458              19620715001FS000000000000000000000000000000                                                  C/ SAN MIGUEL #59, LOS FRAILES II                                                                                                                                                                                   000223N00000000000000000000000000000000000000000000000000                                                                                                                                                           00000000000000000000000000000000000000000                                                                                                                                                                                                                                                          000000                                                                                                                                                                                                                                                                                                                                                              000000        
DA000001111300000648740046995290MERCEDES                                          CRUZ                                    PAULINO                                 C05800000969              19400808001FS000000000000000000000000000000                                                  HOSTOS #26                                                                                                                                                                                                          000058N00000000000000000000000000000000000000000000000000                                                                                                                                                           00000000000000000000000000000000000000000                                                                                                                                                                                                                                                          000000                                                                                                                                                                                                                                                                                                                                                              000000        
DA000000542600000359240047055043OLGA MIREYA                                       GUZMAN                                  GUZMAN DE FERREIRA                      C06400001928              19400105001FC000000000000000000000000000000                                                  C/JUAN CARTAGENA ALVAREZ#30                                                                                                                                                                                         000001N00000000000000000000000000000000000000000000000000                                                                                                                                                           00000000000000000000000000000000000000000                                                                                                                                                                                                                                                          000000                                                                                                                                                                                                                                                                                                                                                              000000        
DA000001305200000373770049881193JOSE ALTAGRACIA                                   PEREZ                                   FLORIAN                                 C07700005403              19620319001MC000000000000000000000000000000                                                  C/3RA #39                                                                                                                                                                                                           000077N00000000000000000000000000000000000000000000000000                                                                                                                                                           00000000000000000000000000000000000000000                                                                                                                                                                                                                                                          000000                                                                                                                                                                                                                                                                                                                                                              000000        
DA000001133300000657120049758106JOSE MANUEL                                       DIAZ                                    GARCIA                                  C07300112625              19511129001MC000000000000000000000000000000                                                  C/ 3  # 1                                                                                                                                                                                                           000031N00000000000000000000000000000000000000000000000000                                                                                                                                                           00000000000000000000000000000000000000000                                                                                                                                                                                                                                                          000000                                                                                                                                                                                                                                                                                                                                                              000000        
DA000001476400000489460002121891MARIA DE JESUS                                    RODRIGUEZ                               MENDEZ                                  C00100302579              19560124001FC000000000000000000000000000000                                                  C/ CAIMANES # 20                                                                                                                                                                                                    000225N00000000000000000000000000000000000000000000000000                                                                                                                                                           00000000000000000000000000000000000000000                                                                                                                                                                                                                                                          000000                                                                                                                                                                                                                                                                                                                                                              000000        
DA000001179100000546880009597537NEIDA                                             MONTILLA                                DE LORENZO                              C00108707357              19540222001FS000000000000000000000000000000                                                  JOSE DEL CARMEN RAMIREZ #52                                                                                                                                                                                         000012N00000000000000000000000000000000000000000000000000                                                                                                                                                           00000000000000000000000000000000000000000                                                                                                                                                                                                                                                          000000                                                                                                                                                                                                                                                                                                                                                              000000        
DA000001225100000230280023361004ANA JULIA                                         MONTES DE OCA                           PIÑA                                    C01200021838              19520110001FS000000000000000000000000000000                                                  A #89 APTO. 402                                                                                                                                                                                                     000001N00000000000000000000000000000000000000000000000000                                                                                                                                                           00000000000000000000000000000000000000000                                                                                                                                                                                                                                                          000000                                                                                                                                                                                                                                                                                                                                                              000000        
DA000001477000000526400007811000QUINTINO                                          SANTANA                                 JAVIER                                  C00105997605              19531030001MS000000000000000000000000000000                                                  LA RESBALOSA #32                                                                                                                                                                                                    000227N00000000000000000000000000000000000000000000000000                                                                                                                                                           00000000000000000000000000000000000000000                                                                                                                                                                                                                                                          000000                                                                                                                                                                                                                                                                                                                                                              000000        
DA000001430000000268350027659863YOLANDA MERCEDES                                  DIAZ                                    MATEO DE SANCHEZ                        C02700040161              19380223001FC000000000000000000000000000000                                                  PALO HINCADO #77                                                                                                                                                                                                    000027N00000000000000000000000000000000000000000000000000                                                                                                                                                           00000000000000000000000000000000000000000                                                                                                                                                                                                                                                          000000                                                                                                                                                                                                                                                                                                                                                              000000        
DA000001424600000267200026838410PORFIRIA                                          DE LA ROSA                              SANTANA                                 C02600388116              19480906001FC000000000000000000000000000000                                                  APTO LOS MAESTROS LA ROMANA #1-B                                                                                                                                                                                    000026N00000000000000000000000000000000000000000000000000                                                                                                                                                           00000000000000000000000000000000000000000                                                                                                                                                                                                                                                          000000                                                                                                                                                                                                                                                                                                                                                              000000        
DA000001429000000517290014094136JUANA TOMASINA                                    SALAS                                   AQUINO DE SANCHEZ                       C00104567979              19391206001FC000000000000000000000000000000                                                  MANZ. 24 #6                                                                                                                                                                                                         000225N00000000000000000000000000000000000000000000000000                                                                                                                                                           00000000000000000000000000000000000000000                                                                                                                                                                                                                                                          000000                                                                                                                                                                                                                                                                                                                                                              000000        
DA000001428900000359080047937808AGUEDO                                            MARTE                                   ARIAS                                   C06100163697              19430305001MS000000000000000000000000000000                                                  C/ PRINCIPAL S/N                                                                                                                                                                                                    000001N00000000000000000000000000000000000000000000000000                                                                                                                                                           00000000000000000000000000000000000000000                                                                                                                                                                                                                                                          000000                                                                                                                                                                                                                                                                                                                                                              000000        
DA000001245500000641450041586884LEONIDAS                                          MARTE                                                                           C05000235027              19430310001FU000000000000000000000000000000                                                  LA CONFLUENCIA #62                                                                                                                                                                                                  000050N00000000000000000000000000000000000000000000000000                                                                                                                                                           00000000000000000000000000000000000000000                                                                                                                                                                                                                                                          000000                                                                                                                                                                                                                                                                                                                                                              000000        
DA000001082200000301800033596306RAMON ANTONIO                                     AYALA                                   DE LEON                                 C03300029893              19490417001MC000000000000000000000000000000                                                  AVE MARIA TRINIDAD SANCHEZ NO. 14                                                                                                                                                                                   000033N00000000000000000000000000000000000000000000000000                                                                                                                                                           00000000000000000000000000000000000000000                                                                                                                                                                                                                                                          000000                                                                                                                                                                                                                                                                                                                                                              000000        
DA000001244100000175190009665762JULIA VIOLETA                                     CASTRO                                  SOSA                                    C00110012895              19520110001FC000000000000000000000000000000                                                  C/ 2DA, #42                                                                                                                                                                                                         000223N00000000000000000000000000000000000000000000000000                                                                                                                                                           00000000000000000000000000000000000000000                                                                                                                                                                                                                                                          000000                                                                                                                                                                                                                                                                                                                                                              000000        
DA000001417300000650520047245652YRENE                                             FERMIN                                  DE ZAPATA                               C06100053161              19520505001FS000000000000000000000000000000                                                  C/ 7 #37                                                                                                                                                                                                            000037N00000000000000000000000000000000000000000000000000                                                                                                                                                           00000000000000000000000000000000000000000                                                                                                                                                                                                                                                          000000                                                                                                                                                                                                                                                                                                                                                              000000        
DA000001418200000371530048855348RAMONA AUSTRALIA                                  PACHECO                                 E DE ESPINAL                            C07300060519              19381004001FC000000000000000000000000000000                                                  C/3#13 APTO 1-B                                                                                                                                                                                                     000031N00000000000000000000000000000000000000000000000000                                                                                                                                                           00000000000000000000000000000000000000000                                                                                                                                                                                                                                                          000000                                                                                                                                                                                                                                                                                                                                                              000000        
DA000001450100000232540022795008ERASMO                                            SANTOS                                  MATEO                                   C01200118022              19471215001MC000000000000000000000000000000                                                  C/ 19 #176                                                                                                                                                                                                          000012N00000000000000000000000000000000000000000000000000                                                                                                                                                           00000000000000000000000000000000000000000                                                                                                                                                                                                                                                          000000                                                                                                                                                                                                                                                                                                                                                              000000        
DA000001450000000509720000176450MARCELINA DEL CARMEN                              LOVERA                                                                          C00103257838              19540810001FC000000000000000000000000000000                                                  ALONSO PEREZ PEATONA19 EDIF.217 APT.1-B                                                                                                                                                                             000223N00000000000000000000000000000000000000000000000000                                                                                                                                                           00000000000000000000000000000000000000000                                                                                                                                                                                                                                                          000000                                                                                                                                                                                                                                                                                                                                                              000000        
DA000000544300000021240013618373NILDA MERCEDES                                    RIVAS                                   JEREZ                                   C00100592203              19411115001FU000000000000000000000000000000                                                  AV.GEORGE WASHINGTON  # 151                                                                                                                                                                                         000001N00000000000000000000000000000000000000000000000000                                                                                                                                                           00000000000000000000000000000000000000000                                                                                                                                                                                                                                                          000000                                                                                                                                                                                                                                                                                                                                                              000000        
DA000001449900000802760001340221PABLO                                             OLIVERO                                 FELIZ                                   C00102831013              19480828001MC000000000000000000000000000000                                                  AV. DUARTE #41-A APTO. I-D                                                                                                                                                                                          000001N00000000000000000000000000000000000000000000000000                                                                                                                                                           00000000000000000000000000000000000000000                                                                                                                                                                                                                                                          000000                                                                                                                                                                                                                                                                                                                                                              000000        
DA000001452200000236090024410713ALTAGRACIA ANGIOLINA                              ALCANTARA                               CASTILLO                                C01300132048              19541015001FC000000000000000000000000000000                                                  ANTONIO DUVERGE #169                                                                                                                                                                                                000013N00000000000000000000000000000000000000000000000000                                                                                                                                                           00000000000000000000000000000000000000000                                                                                                                                                                                                                                                          000000                                                                                                                                                                                                                                                                                                                                                              000000        
DA000001243800000107640014124993JACOBO                                            MANCEBO                                 URBAEZ                                  C00104815204              19390225001MC000000000000000000000000000000                                                  MANZ.4719 EDF.3 APT.1A                                                                                                                                                                                              000223N00000000000000000000000000000000000000000000000000                                                                                                                                                           00000000000000000000000000000000000000000                                                                                                                                                                                                                                                          000000                                                                                                                                                                                                                                                                                                                                                              000000        
DA000001452800001049660050101453ANA CORNELIA                                      TATIS                                   MOREL DE GUTIERREZ                      C07200024821              19400330001FC000000000000000000000000000000                                                  GUILLERMO MAURIZ #40                                                                                                                                                                                                000072N00000000000000000000000000000000000000000000000000                                                                                                                                                           00000000000000000000000000000000000000000                                                                                                                                                                                                                                                          000000                                                                                                                                                                                                                                                                                                                                                              000000        
DA000001452700001043580032428990PEDRO NOLASCO                                     ARIAS                                                                           C03900055025              19490414001MC000000000000000000000000000000                                                  LA MARIPOSA#30                                                                                                                                                                                                      000120N00000000000000000000000000000000000000000000000000                                                                                                                                                           00000000000000000000000000000000000000000                                                                                                                                                                                                                                                          000000                                                                                                                                                                                                                                                                                                                                                              000000        
DA000001475300000493900002410283MARIA ALTAGRACIA                                  PEREZ                                   TAPIA                                   C00101278976              19530214001FC000000000000000000000000000000                                                  C/ PALLA EDIF.3 #17                                                                                                                                                                                                 000001N00000000000000000000000000000000000000000000000000                                                                                                                                                           00000000000000000000000000000000000000000                                                                                                                                                                                                                                                          000000                                                                                                                                                                                                                                                                                                                                                              000000        
DA000001460700000525130002671662MARIA CARIDAD                                     BAUTISTA                                CUSTODIO                                C00105788434              19420719001FU000000000000000000000000000000                                                  C/ OESTE #19                                                                                                                                                                                                        000223N00000000000000000000000000000000000000000000000000                                                                                                                                                           00000000000000000000000000000000000000000                                                                                                                                                                                                                                                          000000                                                                                                                                                                                                                                                                                                                                                              000000        
DA000001460800000677120053109522RUBEN DARIO                                       SIERRA                                  SEGURA                                  C10400044144              19500202001MC000000000000000000000000000000                                                  C/OSVALDO BAZIL #78                                                                                                                                                                                                 000002N00000000000000000000000000000000000000000000000000                                                                                                                                                           00000000000000000000000000000000000000000                                                                                                                                                                                                                                                          000000                                                                                                                                                                                                                                                                                                                                                              000000        
DA000001459400000228220021975160LEONILA TEODORA                                   BAEZ                                    SEGURA                                  C01100000320              19360317001FS000000000000000000000000000000                                                  CAYETANO GERMOSEN#69-1B                                                                                                                                                                                             000225N00000000000000000000000000000000000000000000000000                                                                                                                                                           00000000000000000000000000000000000000000                                                                                                                                                                                                                                                          000000                                                                                                                                                                                                                                                                                                                                                              000000        
DA000001446500000317320040746811GLORIA LETICIA                                    CASTILLO                                PERALTA DE CRUZ                         C04400084762              19350505001FC000000000000000000000000000000                                                  AVE. ANDRES MEDINA NO. 158                                                                                                                                                                                          000115N00000000000000000000000000000000000000000000000000                                                                                                                                                           00000000000000000000000000000000000000000                                                                                                                                                                                                                                                          000000                                                                                                                                                                                                                                                                                                                                                              000000        
DA000001459000000657850049785921MARIA                                             FLORIAN                                 MONTILLA                                C07600083807              19371017001FC000000000000000000000000000000                                                  AV. LIBERTAD #17                                                                                                                                                                                                    000076N00000000000000000000000000000000000000000000000000                                                                                                                                                           00000000000000000000000000000000000000000                                                                                                                                                                                                                                                          000000                                                                                                                                                                                                                                                                                                                                                              000000        
DA000001433600001048090043555848ELMA                                              CACERES                                 MENA                                    C05800189093              19420718001FU000000000000000000000000000000                                                  C/ INDEPENDENCIA #39-A                                                                                                                                                                                              000058N00000000000000000000000000000000000000000000000000                                                                                                                                                           00000000000000000000000000000000000000000                                                                                                                                                                                                                                                          000000                                                                                                                                                                                                                                                                                                                                                              000000        
DA000001434000000647490046853047AGUSTINA                                          BALCACER                                LA RLAGOITTIS                           C05600604242              19480505001FC000000000000000000000000000000                                                  C/GASPAR HERNANDEZ #4                                                                                                                                                                                               000056N00000000000000000000000000000000000000000000000000                                                                                                                                                           00000000000000000000000000000000000000000                                                                                                                                                                                                                                                          000000                                                                                                                                                                                                                                                                                                                                                              000000        
DA000000881400000645430045994237RAFAELA                                           TIFA                                    RODRIGUEZ                               C05500164529              19420913001FC000000000000000000000000000000                                                  AGUACATE ABAJO       7-2                                                                                                                                                                                            000054N00000000000000000000000000000000000000000000000000                                                                                                                                                           00000000000000000000000000000000000000000                                                                                                                                                                                                                                                          000000                                                                                                                                                                                                                                                                                                                                                              000000        
DA000001323300000632740037670291CRISTINA ANICETA                                  GOMEZ                                   MOSQUEA                                 C04600025680              19410724001FC000000000000000000000000000000                                                  C/ PEDRO THOMAS # 34                                                                                                                                                                                                000046N00000000000000000000000000000000000000000000000000                                                                                                                                                           00000000000000000000000000000000000000000                                                                                                                                                                                                                                                          000000                                                                                                                                                                                                                                                                                                                                                              000000        
DA000001429100000248210024311428ALTAGRACIA HILDA                                  MENDEZ                                  DE MATOS                                C02000005138              19240717001FC000000000000000000000000000000                                                  C/ COLON #57                                                                                                                                                                                                        000020N00000000000000000000000000000000000000000000000000                                                                                                                                                           00000000000000000000000000000000000000000                                                                                                                                                                                                                                                          000000                                                                                                                                                                                                                                                                                                                                                              000000        
DA000001469000000672700051968567VICTOR TOMAS                                      RODRIGUEZ                               GARCIA                                  C09500104857              19630427001MC000000000000000000000000000000                                                  KM.6, CARRT.DUARTE                                                                                                                                                                                                  000095N00000000000000000000000000000000000000000000000000                                                                                                                                                           00000000000000000000000000000000000000000                                                                                                                                                                                                                                                          000000                                                                                                                                                                                                                                                                                                                                                              000000        
DA000001476900000523220010519060ANGELA MARGARITA                                  MONTILLA                                MOTA                                    C00105467153              19440606001FC000000000000000000000000000000                                                  MANZ. L #10                                                                                                                                                                                                         000225N00000000000000000000000000000000000000000000000000                                                                                                                                                           00000000000000000000000000000000000000000                                                                                                                                                                                                                                                          000000                                                                                                                                                                                                                                                                                                                                                              000000        
DA000001474500000638160041200170FULGENCIA M                                       CACERES                                 REYNOSO                                 C04800157606              19520116001FS000000000000000000000000000000                                                  C/PEÑA BALLE #13                                                                                                                                                                                                    000048N00000000000000000000000000000000000000000000000000                                                                                                                                                           00000000000000000000000000000000000000000                                                                                                                                                                                                                                                          000000                                                                                                                                                                                                                                                                                                                                                              000000        
DA000001058500000514860004811680MIGUEL                                            HENRIQUEZ                               HENRIQUEZ                               C00104101803              19460214001MS000000000000000000000000000000                                                  C/ C # 3                                                                                                                                                                                                            000223N00000000000000000000000000000000000000000000000000                                                                                                                                                           00000000000000000000000000000000000000000                                                                                                                                                                                                                                                          000000                                                                                                                                                                                                                                                                                                                                                              000000        
DA000001474600000523470007452255EMILIANA                                          ALEJO                                   NUÑEZ                                   C00105514038              19410105001FS000000000000000000000000000000                                                  HOGAR MADRE AMADORA                                                                                                                                                                                                 000223N00000000000000000000000000000000000000000000000000                                                                                                                                                           00000000000000000000000000000000000000000                                                                                                                                                                                                                                                          000000                                                                                                                                                                                                                                                                                                                                                              000000        
DA000001472600000652750047320587LOURDES                                           JIMENEZ                                 DOMINGUEZ                               C06700046193              19380107001FS000000000000000000000000000000                                                  C/ ANDRES #57                                                                                                                                                                                                       000226N00000000000000000000000000000000000000000000000000                                                                                                                                                           00000000000000000000000000000000000000000                                                                                                                                                                                                                                                          000000                                                                                                                                                                                                                                                                                                                                                              000000        
DA000001420400000643930045723948RAMONA ALTAGRACIA                                 DIPLAN                                  TAVERAS DE REYE                         C05400459052              19531121001FS000000000000000000000000000000                                                  C/ ANGEL ROSARIO CANDELIER  # 10                                                                                                                                                                                    000054N00000000000000000000000000000000000000000000000000                                                                                                                                                           00000000000000000000000000000000000000000                                                                                                                                                                                                                                                          000000                                                                                                                                                                                                                                                                                                                                                              000000        
DA000001155000000644660046835378RAMON ANTONIO                                     TAVERAS                                 RODRIGUEZ                               C05500026249              19550531001MS000000000000000000000000000000                                                  SAN FCO. #02                                                                                                                                                                                                        000055N00000000000000000000000000000000000000000000000000                                                                                                                                                           00000000000000000000000000000000000000000                                                                                                                                                                                                                                                          000000                                                                                                                                                                                                                                                                                                                                                              000000        
DA000001431900000051070003478166CORNELIA                                          URBAEZ                                                                          C00101478535              19270108001FS000000000000000000000000000000                                                  ROMULO BETANCOURT EDIF.3 APTO 1-A                                                                                                                                                                                   000001N00000000000000000000000000000000000000000000000000                                                                                                                                                           00000000000000000000000000000000000000000                                                                                                                                                                                                                                                          000000                                                                                                                                                                                                                                                                                                                                                              000000        
DA000001405700000038190000000000MILAGROS                                          MULLER                                  FCO DE GERALDINO                        C00101098416              19360903001FS000000000000000000000000000000                                                  HEROES DE LUPERON #30                                                                                                                                                                                               000001N00000000000000000000000000000000000000000000000000                                                                                                                                                           00000000000000000000000000000000000000000                                                                                                                                                                                                                                                          000000                                                                                                                                                                                                                                                                                                                                                              000000        
DA000001444600000389390053078372JOSE ALTAGRACIA                                   ALVAREZ                                 RODRIGUEZ                               C10400009014              19460305001MC000000000000000000000000000000                                                  PEATONAL 1 #7B                                                                                                                                                                                                      000104N00000000000000000000000000000000000000000000000000                                                                                                                                                           00000000000000000000000000000000000000000                                                                                                                                                                                                                                                          000000                                                                                                                                                                                                                                                                                                                                                              000000        
DA000001415800000619850032609868RAMONA ANTONIA                                    DIAZ                                                                            C03102631250              19400221001FS000000000000000000000000000000                                                  C/ PRINCIPAL #13                                                                                                                                                                                                    000031N00000000000000000000000000000000000000000000000000                                                                                                                                                           00000000000000000000000000000000000000000                                                                                                                                                                                                                                                          000000                                                                                                                                                                                                                                                                                                                                                              000000        
DA000001439800000571510023267924ROSA ESTELA                                       SOTO                                    AMANCIO                                 C01700008814              19481129001FC000000000000000000000000000000                                                  C/ DARIO PAULINO #10                                                                                                                                                                                                000017N00000000000000000000000000000000000000000000000000                                                                                                                                                           00000000000000000000000000000000000000000                                                                                                                                                                                                                                                          000000                                                                                                                                                                                                                                                                                                                                                              000000        
DA000001433500000648300045104261PEDRO ALCIBIADES                                  CASTILLO                                TAVAREZ                                 C05600922016              19530320001MC000000000000000000000000000000                                                  C/ M #33                                                                                                                                                                                                            000056N00000000000000000000000000000000000000000000000000                                                                                                                                                           00000000000000000000000000000000000000000                                                                                                                                                                                                                                                          000000                                                                                                                                                                                                                                                                                                                                                              000000        
DA000001476000000677050053034371REINA                                             RIVERA                                                                          C10400027131              19581025001FC000000000000000000000000000000                                                  C/LOS LIRIOS #4                                                                                                                                                                                                     000002N00000000000000000000000000000000000000000000000000                                                                                                                                                           00000000000000000000000000000000000000000                                                                                                                                                                                                                                                          000000                                                                                                                                                                                                                                                                                                                                                              000000        
DA000001460200000105520011979164CELESTE                                           FRANCES                                 PEREZ                                   C00104696455              19281006001FC000000000000000000000000000000                                                  C/ 1 #13                                                                                                                                                                                                            000223N00000000000000000000000000000000000000000000000000                                                                                                                                                           00000000000000000000000000000000000000000                                                                                                                                                                                                                                                          000000                                                                                                                                                                                                                                                                                                                                                              000000        
DA000001475800000000000020474421JULIO                                             AGUILAR                                 NINA                                    C00200210839              19431129001MC000000000000000000000000000000                                                  C/ PADRE AYALA #110                                                                                                                                                                                                 000002N00000000000000000000000000000000000000000000000000                                                                                                                                                           00000000000000000000000000000000000000000                                                                                                                                                                                                                                                          000000                                                                                                                                                                                                                                                                                                                                                              000000        
DA000001459900000557920018421797JOSE ELPIDIO                                      AYALA                                                                           C00200199149              19450827001MC000000000000000000000000000000                                                  C/CLUB DE LEONES EDIF. 8 APTO 301                                                                                                                                                                                   000002N00000000000000000000000000000000000000000000000000                                                                                                                                                           00000000000000000000000000000000000000000                                                                                                                                                                                                                                                          000000                                                                                                                                                                                                                                                                                                                                                              000000        
DA000001459700000331880037862668TERESA                                            INOA                                    ACOSTA                                  C04800486419              19421015001FS000000000000000000000000000000                                                  MAXIMO GOMEZ NO. 10                                                                                                                                                                                                 000048N00000000000000000000000000000000000000000000000000                                                                                                                                                           00000000000000000000000000000000000000000                                                                                                                                                                                                                                                          000000                                                                                                                                                                                                                                                                                                                                                              000000        
DA000001460000000267990025870884MARIA YOLANDA                                     PEGUERO                                 SANCHEZ                                 C02700003649              19300121001FC000000000000000000000000000000                                                  C/8                                                                                                                                                                                                                 000027N00000000000000000000000000000000000000000000000000                                                                                                                                                           00000000000000000000000000000000000000000                                                                                                                                                                                                                                                          000000                                                                                                                                                                                                                                                                                                                                                              000000        
DA000001460900000251300027306428AMBROSIA FARA                                     ACOSTA                                  HERASME                                 C02200013619              19391207001FC000000000000000000000000000000                                                  MANZ. 9 EDIF 5 APTO. 1-B                                                                                                                                                                                            000223N00000000000000000000000000000000000000000000000000                                                                                                                                                           00000000000000000000000000000000000000000                                                                                                                                                                                                                                                          000000                                                                                                                                                                                                                                                                                                                                                              000000        
DA000001459200000527580001397273HILDA DOMINGA                                     MONTAÑO                                 BURET                                   C00106183858              19580828001FC000000000000000000000000000000                                                  C/ 4A #12                                                                                                                                                                                                           000225N00000000000000000000000000000000000000000000000000                                                                                                                                                           00000000000000000000000000000000000000000                                                                                                                                                                                                                                                          000000                                                                                                                                                                                                                                                                                                                                                              000000        
DA000001461400000333440038458247ADRIANA                                           MONEGRO                                 CAMACHO                                 C04900039407              19330306001FU000000000000000000000000000000                                                  C/ SALOME UREÑA #8                                                                                                                                                                                                  000049N00000000000000000000000000000000000000000000000000                                                                                                                                                           00000000000000000000000000000000000000000                                                                                                                                                                                                                                                          000000                                                                                                                                                                                                                                                                                                                                                              000000        
DA000001461600000046940011426732ANA BIENVENIDA                                    TORIBIO                                 VERAS                                   C00101358208              19380929001FC000000000000000000000000000000                                                  C/LUIS AMAINA TIO #8                                                                                                                                                                                                000001N00000000000000000000000000000000000000000000000000                                                                                                                                                           00000000000000000000000000000000000000000                                                                                                                                                                                                                                                          000000                                                                                                                                                                                                                                                                                                                                                              000000        
