EPN42
DA000001452900000307480030810585DELFINA                                           FERNANDEZ                               BLANCO                                  C03700027034              19240224001FS000000000000000000000000000000                                                  C/ SEPARACION # 40                                                                                                                                                                                                  000037N00000000000000000000000000000000000000000000000000                                                                                                                                                           00000000000000000000000000000000000000000                                                                                                                                                                                                                                                          000000                                                                                                                                                                                                                                                                                                                                                              000000        
DA000001132600000388440053406160BERTA AMINTA                                      BELLIARD                                DE VASQUEZ                              C10100037083              19281105001FC000000000000000000000000000000                                                  SALVADOR ESTRELLA SADHALA # 4                                                                                                                                                                                       000101N00000000000000000000000000000000000000000000000000                                                                                                                                                           00000000000000000000000000000000000000000                                                                                                                                                                                                                                                          000000                                                                                                                                                                                                                                                                                                                                                              000000        
DA000001465500000359220004801527NELSIDA C                                         GONZALEZ                                DE FERNANDEZ                            C06400001761              19400724001FC000000000000000000000000000000                                                  HERMANAS MIRABAL #46                                                                                                                                                                                                000064N00000000000000000000000000000000000000000000000000                                                                                                                                                           00000000000000000000000000000000000000000                                                                                                                                                                                                                                                          000000                                                                                                                                                                                                                                                                                                                                                              000000        
DA000001325000000145600010657064LUCILA                                            PEÑA                                    LOPEZ                                   C00107304727              19420628001FC000000000000000000000000000000                                                  EZEQUIEL GALLARDO, NO.26                                                                                                                                                                                            000038N00000000000000000000000000000000000000000000000000                                                                                                                                                           00000000000000000000000000000000000000000                                                                                                                                                                                                                                                          000000                                                                                                                                                                                                                                                                                                                                                              000000        
DA000001463400000289220032513935ANA ANTONIA                                       SOSA                                    CORNIEL                                 C03101126286              19220118001FS000000000000000000000000000000                                                  45# 4                                                                                                                                                                                                               000031N00000000000000000000000000000000000000000000000000                                                                                                                                                           00000000000000000000000000000000000000000                                                                                                                                                                                                                                                          000000                                                                                                                                                                                                                                                                                                                                                              000000        
DA000001419500000385640052354991JOSE ANANIAS                                      BENEOIT                                 GOMEZ                                   C09400029519              19380421001MU000000000000000000000000000000                                                  MANUEL BOITEL NO. 5                                                                                                                                                                                                 000094N00000000000000000000000000000000000000000000000000                                                                                                                                                           00000000000000000000000000000000000000000                                                                                                                                                                                                                                                          000000                                                                                                                                                                                                                                                                                                                                                              000000        
DA000001374800000226080019886136LUIS OVIDIO                                       SENCION                                 ORTIZ                                   C01000129252              19380222001MC000000000000000000000000000000                                                  C/SANTOME #7                                                                                                                                                                                                        000010N00000000000000000000000000000000000000000000000000                                                                                                                                                           00000000000000000000000000000000000000000                                                                                                                                                                                                                                                          000000                                                                                                                                                                                                                                                                                                                                                              000000        
DA000001260000000233790022604200VICTOR MANUEL                                     PEREZ                                   PAYANO                                  C01200296539              19550810001MC000000000000000000000000000000                                                  C/ ANACAONA # 16-A                                                                                                                                                                                                  000129N00000000000000000000000000000000000000000000000000                                                                                                                                                           00000000000000000000000000000000000000000                                                                                                                                                                                                                                                          000000                                                                                                                                                                                                                                                                                                                                                              000000        
DA000000379000000654480048651727JOSE ALBERTO                                      FRANCO                                  SANTIAGO                                C06800322007              19760824001MS000000000000000000000000000000                                                  C/ 30 DE MARZO#107,                                                                                                                                                                                                 000068N00000000000000000000000000000000000000000000000000                                                                                                                                                           00000000000000000000000000000000000000000                                                                                                                                                                                                                                                          000000                                                                                                                                                                                                                                                                                                                                                              000000        
DA000001354600000544600005832562BIENVENIDO                                        PAREDES                                 DE LA ROSA                              C00108311085              19510413001MC000000000000000000000000000000                                                  ESTADOS UNIDOS #19                                                                                                                                                                                                  000224N00000000000000000000000000000000000000000000000000                                                                                                                                                           00000000000000000000000000000000000000000                                                                                                                                                                                                                                                          000000                                                                                                                                                                                                                                                                                                                                                              000000        
DA000001473900000540190011101228CLARA MILAGROS                                    SENA                                    CARRASCO                                C00107630667              19570705001FC000000000000000000000000000000                                                  C/3 #24                                                                                                                                                                                                             000001N00000000000000000000000000000000000000000000000000                                                                                                                                                           00000000000000000000000000000000000000000                                                                                                                                                                                                                                                          000000                                                                                                                                                                                                                                                                                                                                                              000000        
DA000001431800000568350021957925MERCEDES YVONNE                                   CARABALLO                               ALCANTARA                               C01200119228              19640923001FC000000000000000000000000000000                                                  CAYETANO GERMOSEN EDF.3 APTO.301                                                                                                                                                                                    000225N00000000000000000000000000000000000000000000000000                                                                                                                                                           00000000000000000000000000000000000000000                                                                                                                                                                                                                                                          000000                                                                                                                                                                                                                                                                                                                                                              000000        
DA000001330300000375810050897426ALBERTO                                           FERMIN                                  ROSARIO                                 C08100006777              19381023001MC000000000000000000000000000000                                                  DESIDERIO ACOSTA                                                                                                                                                                                                    000081N00000000000000000000000000000000000000000000000000                                                                                                                                                           00000000000000000000000000000000000000000                                                                                                                                                                                                                                                          000000                                                                                                                                                                                                                                                                                                                                                              000000        
DA000001470400000038710006879927VICTOR JOSE                                       BURGOS                                  LEMOINE                                 C00101113934              19280918001MU000000000000000000000000000000                                                  EL CONDADO #16                                                                                                                                                                                                      000001N00000000000000000000000000000000000000000000000000                                                                                                                                                           00000000000000000000000000000000000000000                                                                                                                                                                                                                                                          000000                                                                                                                                                                                                                                                                                                                                                              000000        
DA000001470300000362920048220194GUILLERMINA                                       DIAZ                                    SANTOS DE BRETON                        C06600111519              19300826001FC000000000000000000000000000000                                                  PUNTA GORDA SANCHEZ #78                                                                                                                                                                                             000065N00000000000000000000000000000000000000000000000000                                                                                                                                                           00000000000000000000000000000000000000000                                                                                                                                                                                                                                                          000000                                                                                                                                                                                                                                                                                                                                                              000000        
DA000001471300000271490028460685SANTA SIMEONA                                     RODRIGUEZ                               MEJIA                                   C02800081347              19451018001FU000000000000000000000000000000                                                  JOSE MARTI #26                                                                                                                                                                                                      000028N00000000000000000000000000000000000000000000000000                                                                                                                                                           00000000000000000000000000000000000000000                                                                                                                                                                                                                                                          000000                                                                                                                                                                                                                                                                                                                                                              000000        
DA000001460600000144030011786752MERCEDES                                          RAMON                                   VICIOSO                                 C00107227985              19441107001FC000000000000000000000000000000                                                  C/ 1RA. # 63                                                                                                                                                                                                        000001N00000000000000000000000000000000000000000000000000                                                                                                                                                           00000000000000000000000000000000000000000                                                                                                                                                                                                                                                          000000                                                                                                                                                                                                                                                                                                                                                              000000        
DA000001470100000090940008141570ANTONIA MILEDYS                                   CABRERA                                 REYNOSO                                 C00103697769              19521119001FC000000000000000000000000000000                                                  C/MANZ.12 #14                                                                                                                                                                                                       000223N00000000000000000000000000000000000000000000000000                                                                                                                                                           00000000000000000000000000000000000000000                                                                                                                                                                                                                                                          000000                                                                                                                                                                                                                                                                                                                                                              000000        
DA000001472300000002340006789210JULIA                                             ACEVEDO                                 ROJAS DE RAMIREZ                        C00100039924              19450902001FU000000000000000000000000000000                                                  RES, APOLO 1 #3                                                                                                                                                                                                     000001N00000000000000000000000000000000000000000000000000                                                                                                                                                           00000000000000000000000000000000000000000                                                                                                                                                                                                                                                          000000                                                                                                                                                                                                                                                                                                                                                              000000        
DA000001311500000324510038328867MARIA ALTAGRACIA                                  GIL                                     MARTINEZ                                C04700257316              19421207001FC000000000000000000000000000000                                                  MANUEL MEJIA #69                                                                                                                                                                                                    000047N00000000000000000000000000000000000000000000000000                                                                                                                                                           00000000000000000000000000000000000000000                                                                                                                                                                                                                                                          000000                                                                                                                                                                                                                                                                                                                                                              000000        
DA000001475400000572800023488775MARTINA                                           CUEVAS                                  CUEVAS                                  C01800057489              19580527001FS000000000000000000000000000000                                                  MARIA TRINIDAD SANCHEZ # 54                                                                                                                                                                                         000018N00000000000000000000000000000000000000000000000000                                                                                                                                                           00000000000000000000000000000000000000000                                                                                                                                                                                                                                                          000000                                                                                                                                                                                                                                                                                                                                                              000000        
DA000001311800000324540039887747MARIA SILVERIA                                    RAMIREZ                                 ABREU                                   C04700258405              19341124001FS000000000000000000000000000000                                                  MONSEÑOR PANAL #65                                                                                                                                                                                                  000047N00000000000000000000000000000000000000000000000000                                                                                                                                                           00000000000000000000000000000000000000000                                                                                                                                                                                                                                                          000000                                                                                                                                                                                                                                                                                                                                                              000000        
DA000001433700000347850044464288DOMINGA                                           MERCEDES                                DIAZ DE GOMEZ                           C05600002140              19491020001FC000000000000000000000000000000                                                  AV. LIBERTAD # 276                                                                                                                                                                                                  000056N00000000000000000000000000000000000000000000000000                                                                                                                                                           00000000000000000000000000000000000000000                                                                                                                                                                                                                                                          000000                                                                                                                                                                                                                                                                                                                                                              000000        
DA000001311400000323440041364483ANA VICTORIA                                      GOMEZ                                   MARCIAL                                 C04700165782              19590520001FC000000000000000000000000000000                                                  C/ PRINCIPAL #16                                                                                                                                                                                                    000047N00000000000000000000000000000000000000000000000000                                                                                                                                                           00000000000000000000000000000000000000000                                                                                                                                                                                                                                                          000000                                                                                                                                                                                                                                                                                                                                                              000000        
DA000001471500000567650023361700VICENTE                                           ESCALANTE                                                                       C01200033759              19470405001MC000000000000000000000000000000                                                  C/M.P. #16                                                                                                                                                                                                          000012N00000000000000000000000000000000000000000000000000                                                                                                                                                           00000000000000000000000000000000000000000                                                                                                                                                                                                                                                          000000                                                                                                                                                                                                                                                                                                                                                              000000        
DA000001283200000516140015004887ANA MERCEDES                                      VALOY                                   GONZALEZ                                C00104338629              19480307001FS000000000000000000000000000000                                                  BARTOLOME COLOM #70                                                                                                                                                                                                 000001N00000000000000000000000000000000000000000000000000                                                                                                                                                           00000000000000000000000000000000000000000                                                                                                                                                                                                                                                          000000                                                                                                                                                                                                                                                                                                                                                              000000        
DA000001502300000667360052060938JOSE DEL CARMEN                                   PEREZ                                   JIMENEZ                                 C09300084804              19581209001MC000000000000000000000000000000                                                  CAPOTILLO #35                                                                                                                                                                                                       000002N00000000000000000000000000000000000000000000000000                                                                                                                                                           00000000000000000000000000000000000000000                                                                                                                                                                                                                                                          000000                                                                                                                                                                                                                                                                                                                                                              000000        
DA000001464300000273360034221146CAMILA                                            CRUZ                                    ALMANZAR                                C03100007735              19410718001FU000000000000000000000000000000                                                  CARRETERA DUARTE # 92                                                                                                                                                                                               000094N00000000000000000000000000000000000000000000000000                                                                                                                                                           00000000000000000000000000000000000000000                                                                                                                                                                                                                                                          000000                                                                                                                                                                                                                                                                                                                                                              000000        
DA000001428400000499710016126146ESPERANZA AMPARO                                  GOMEZ                                   URBAEZ                                  C00101855823              19401218001FU000000000000000000000000000000                                                  AV, SIMON OROSCO MANZ,4709 EDIF,4 APTO1-D                                                                                                                                                                           000223N00000000000000000000000000000000000000000000000000                                                                                                                                                           00000000000000000000000000000000000000000                                                                                                                                                                                                                                                          000000                                                                                                                                                                                                                                                                                                                                                              000000        
DA000001504900000489920001074340AMADO                                             PEREZ                                   CUELLO                                  C00100900166              19450724001MS000000000000000000000000000000                                                  CAHONABO #66                                                                                                                                                                                                        000001N00000000000000000000000000000000000000000000000000                                                                                                                                                           00000000000000000000000000000000000000000                                                                                                                                                                                                                                                          000000                                                                                                                                                                                                                                                                                                                                                              000000        
DA000002366500000549220001578195MARIA DEL CARMEN                                  FERNANDEZ                               CRUZ                                    C00109194779              19730911001FS000000000000000000000000000000                                                  C/ B # 31                                                                                                                                                                                                           000001N00000000000000000000000000000000000000000000000000                                                                                                                                                           00000000000000000000000000000000000000000                                                                                                                                                                                                                                                          000000                                                                                                                                                                                                                                                                                                                                                              000000        
DA000001502200000652270047924353NICOLAS                                           ROQUES                                  ACOSTA                                  C06600064601              19540223001MC000000000000000000000000000000                                                  JAIMITO #72                                                                                                                                                                                                         000066N00000000000000000000000000000000000000000000000000                                                                                                                                                           00000000000000000000000000000000000000000                                                                                                                                                                                                                                                          000000                                                                                                                                                                                                                                                                                                                                                              000000        
DA000006140300000510500011710497LUZ RAMONA MERCEDES                               FERNANDEZ                               CRUZ                                    C00103362489              19370224001FS000000000000000000000000000000                                                  C/ GALVAN #32                                                                                                                                                                                                       000001N00000000000000000000000000000000000000000000000000                                                                                                                                                           00000000000000000000000000000000000000000                                                                                                                                                                                                                                                          000000                                                                                                                                                                                                                                                                                                                                                              000000        
DA000001323300000632740037670291CRISTINA ANICETA                                  GOMEZ                                   MOSQUEA                                 C04600025680              19410724001FC000000000000000000000000000000                                                  C/ PEDRO THOMAS # 34                                                                                                                                                                                                000046N00000000000000000000000000000000000000000000000000                                                                                                                                                           00000000000000000000000000000000000000000                                                                                                                                                                                                                                                          000000                                                                                                                                                                                                                                                                                                                                                              000000        
DA000001312300000635170040138421JOSEFINA ALTAGRACIA                               JIMENEZ                                 PEÑA                                    C04700281969              19610707001FS000000000000000000000000000000                                                  C/ PRINCIPAL #86                                                                                                                                                                                                    000047N00000000000000000000000000000000000000000000000000                                                                                                                                                           00000000000000000000000000000000000000000                                                                                                                                                                                                                                                          000000                                                                                                                                                                                                                                                                                                                                                              000000        
DA000001444200000535010008365354MARINA                                            LLUBERES                                ORTIZ                                   C00107043655              19300701001FS000000000000000000000000000000                                                  EL PALMAR                                                                                                                                                                                                           000224N00000000000000000000000000000000000000000000000000                                                                                                                                                           00000000000000000000000000000000000000000                                                                                                                                                                                                                                                          000000                                                                                                                                                                                                                                                                                                                                                              000000        
DA000001360000000499380013944056PEDRO                                             FERRERAS                                                                        C00101819753              19451019001MS000000000000000000000000000000                                                  LIBERTAD ESQ. COLON# 02                                                                                                                                                                                             000078N00000000000000000000000000000000000000000000000000                                                                                                                                                           00000000000000000000000000000000000000000                                                                                                                                                                                                                                                          000000                                                                                                                                                                                                                                                                                                                                                              000000        
DA000000537700000600360027080794MILAGROS MAURENIS                                 SABINO                                  MENDOZA DE ASTACIO                      C02700069475              19441129001FS000000000000000000000000000000                                                  C/ GRAL. SANTANA # 52                                                                                                                                                                                               000027N00000000000000000000000000000000000000000000000000                                                                                                                                                           00000000000000000000000000000000000000000                                                                                                                                                                                                                                                          000000                                                                                                                                                                                                                                                                                                                                                              000000        
DA000000259800000646120043289763GLADYS MERCEDES                                   DURAN                                   HERNANDEZ                               C05600060619              19450803001FU000000000000000000000000000000                                                  AV. CAONABO#42-A                                                                                                                                                                                                    000056N00000000000000000000000000000000000000000000000000                                                                                                                                                           00000000000000000000000000000000000000000                                                                                                                                                                                                                                                          000000                                                                                                                                                                                                                                                                                                                                                              000000        
DA000001080800000614000033006594NORMA RAFAELA                                     SANCHEZ                                 Y RODRIGUEZ                             C03101273070              19420828001FC000000000000000000000000000000                                                  C/RAUL STERLING #26-C                                                                                                                                                                                               000031N00000000000000000000000000000000000000000000000000                                                                                                                                                           00000000000000000000000000000000000000000                                                                                                                                                                                                                                                          000000                                                                                                                                                                                                                                                                                                                                                              000000        
DA000001408600000578220023884386AURA MARIA                                        FELIZ                                   VARGAS                                  C01900039932              19530612001FC000000000000000000000000000000                                                  PROYECTO #24 EDF. CONSTANZA1                                                                                                                                                                                        000001N00000000000000000000000000000000000000000000000000                                                                                                                                                           00000000000000000000000000000000000000000                                                                                                                                                                                                                                                          000000                                                                                                                                                                                                                                                                                                                                                              000000        
DA000001430100000530540016398727GLADYS MERCEDES                                   HENRIQUEZ                               GOMEZ                                   C00106496128              19380712001FS000000000000000000000000000000                                                  C/ JUAN ISIDRO JIMENEZ # 30                                                                                                                                                                                         000229N00000000000000000000000000000000000000000000000000                                                                                                                                                           00000000000000000000000000000000000000000                                                                                                                                                                                                                                                          000000                                                                                                                                                                                                                                                                                                                                                              000000        
DA000001502100000489820015020382MAXIMO EMILIO                                     PEÑA                                    NOVO                                    C00100884105              19440711001MC000000000000000000000000000000                                                  C/ 6 MI SUEÑO #6                                                                                                                                                                                                    000223N00000000000000000000000000000000000000000000000000                                                                                                                                                           00000000000000000000000000000000000000000                                                                                                                                                                                                                                                          000000                                                                                                                                                                                                                                                                                                                                                              000000        
DA000001502000000830870019956196CELIDE MERCEDES                                   LORENZO                                                                         C00200148179              19441028001FS000000000000000000000000000000                                                  C/ C #2                                                                                                                                                                                                             000002N00000000000000000000000000000000000000000000000000                                                                                                                                                           00000000000000000000000000000000000000000                                                                                                                                                                                                                                                          000000                                                                                                                                                                                                                                                                                                                                                              000000        
DA000001329200000281040036333432ROSA PATRIA                                       BLYDEN                                  ALBERTO DE CRUZ                         C03100449267              19411120001FS000000000000000000000000000000                                                  C/ MANUEL RODRIGUEZ OBJIO #52                                                                                                                                                                                       000031N00000000000000000000000000000000000000000000000000                                                                                                                                                           00000000000000000000000000000000000000000                                                                                                                                                                                                                                                          000000                                                                                                                                                                                                                                                                                                                                                              000000        
DA000001475800000558000020474421JULIO                                             AGUILAR                                 NINA                                    C00200210839              19431129001MC000000000000000000000000000000                                                  C/ PADRE AYALA #110                                                                                                                                                                                                 000002N00000000000000000000000000000000000000000000000000                                                                                                                                                           00000000000000000000000000000000000000000                                                                                                                                                                                                                                                          000000                                                                                                                                                                                                                                                                                                                                                              000000        
DA000001504600000543000007947690ALEJANDRINA                                       ENCARNACION                                                                     C00108021924              19440518001FS000000000000000000000000000000                                                  C/ 24 DE ABRIL BARRIO VILLA ESFUERZO #7                                                                                                                                                                             000223N00000000000000000000000000000000000000000000000000                                                                                                                                                           00000000000000000000000000000000000000000                                                                                                                                                                                                                                                          000000                                                                                                                                                                                                                                                                                                                                                              000000        
DA000001436600001054830060739610ANA                                               SALDIVAR                                ANTONIO                                 C22300580069              19281201001FS000000000000000000000000000000                                                  SAN VICENTE DE PAUL #3 PARTE ATRAS                                                                                                                                                                                  000223N00000000000000000000000000000000000000000000000000                                                                                                                                                           00000000000000000000000000000000000000000                                                                                                                                                                                                                                                          000000                                                                                                                                                                                                                                                                                                                                                              000000        
DA000001474600000523470007452255EMILIANA                                          ALEJO                                   NUÑEZ                                   C00105514038              19410105001FS000000000000000000000000000000                                                  HOGAR MADRE AMADORA                                                                                                                                                                                                 000223N00000000000000000000000000000000000000000000000000                                                                                                                                                           00000000000000000000000000000000000000000                                                                                                                                                                                                                                                          000000                                                                                                                                                                                                                                                                                                                                                              000000        
DA000001438600000143860020905924RAIMUNDO ISMAEL                                   MIRANDA                                 MENDEZ                                  C01000138220              19381018001MC000000000000000000000000000000                                                  URB. ITALIA - VESUBIO #22                                                                                                                                                                                           000223N00000000000000000000000000000000000000000000000000                                                                                                                                                           00000000000000000000000000000000000000000                                                                                                                                                                                                                                                          000000                                                                                                                                                                                                                                                                                                                                                              000000        
DA000001471000000250810027951942LUISA MARIA                                       MARMOLEJOS                              SAMBOY                                  C02100043302              19361220001FC000000000000000000000000000000                                                  CALETON                                                                                                                                                                                                             000021N00000000000000000000000000000000000000000000000000                                                                                                                                                           00000000000000000000000000000000000000000                                                                                                                                                                                                                                                          000000                                                                                                                                                                                                                                                                                                                                                              000000        
DA000001506600000497200004299543RAFAEL REYNALDO                                   BEATO                                                                           C00101537686              19361016001MC000000000000000000000000000000                                                  C/DR. LUIS F. THOMEN #269                                                                                                                                                                                           000001N00000000000000000000000000000000000000000000000000                                                                                                                                                           00000000000000000000000000000000000000000                                                                                                                                                                                                                                                          000000                                                                                                                                                                                                                                                                                                                                                              000000        
DA000001431000000557360018882605SOFIA                                             LORENZO                                 PAREDES                                 C00200137727              19640101001FS000000000000000000000000000000                                                  C/ORLANDO MARTINEZ #17                                                                                                                                                                                              000002N00000000000000000000000000000000000000000000000000                                                                                                                                                           00000000000000000000000000000000000000000                                                                                                                                                                                                                                                          000000                                                                                                                                                                                                                                                                                                                                                              000000        
DA000001410400000226260020413194ALTAGRACIA LIGIA                                  VELOZ                                   RAMIREZ                                 C01000140879              19490514001FC000000000000000000000000000000                                                  C/JARDIN DEL EDEN APT.3-A                                                                                                                                                                                           000223N00000000000000000000000000000000000000000000000000                                                                                                                                                           00000000000000000000000000000000000000000                                                                                                                                                                                                                                                          000000                                                                                                                                                                                                                                                                                                                                                              000000        
DA000001410500000528140004601270MARIA MAGDALENA                                   CRUZ                                    ARAUJO                                  C00106262702              19531026001FS000000000000000000000000000000                                                  AV. PENETRACION #3                                                                                                                                                                                                  000001N00000000000000000000000000000000000000000000000000                                                                                                                                                           00000000000000000000000000000000000000000                                                                                                                                                                                                                                                          000000                                                                                                                                                                                                                                                                                                                                                              000000        
DA000001408700000598660028722828FRANCISCA                                         SARMIENTO                               ROSARIO                                 C02600519124              19420311001FC000000000000000000000000000000                                                  C/ PENETRACION NORTE S/N                                                                                                                                                                                            000295N00000000000000000000000000000000000000000000000000                                                                                                                                                           00000000000000000000000000000000000000000                                                                                                                                                                                                                                                          000000                                                                                                                                                                                                                                                                                                                                                              000000        
DA000001408100000017950001360898LEOPOLDO LUPERINO                                 CORREA                                  JIMENEZ                                 C00100464817              19411116001MC000000000000000000000000000000                                                  CARACA NO. 18                                                                                                                                                                                                       000001N00000000000000000000000000000000000000000000000000                                                                                                                                                           00000000000000000000000000000000000000000                                                                                                                                                                                                                                                          000000                                                                                                                                                                                                                                                                                                                                                              000000        
DA000001410600000883720051077644VICTOR MANUEL                                     KERY                                                                            C09000119827              19470511001MC000000000000000000000000000000                                                  DUARTE #80                                                                                                                                                                                                          000090N00000000000000000000000000000000000000000000000000                                                                                                                                                           00000000000000000000000000000000000000000                                                                                                                                                                                                                                                          000000                                                                                                                                                                                                                                                                                                                                                              000000        
DA000001386700001066800077327192MARIA CELESTE                                     DIAZ                                    RAMOS                                   C03200383028              19250406001FU000000000000000000000000000000                                                  DON PEDRO #35                                                                                                                                                                                                       000032N00000000000000000000000000000000000000000000000000                                                                                                                                                           00000000000000000000000000000000000000000                                                                                                                                                                                                                                                          000000                                                                                                                                                                                                                                                                                                                                                              000000        
DA000001309200000516310001082542HAYDEE CARMEN MERCEDES                            CAMILO                                  RAMOS                                   C00104370374              19501016001FC000000000000000000000000000000                                                  C/ 4 EDF. 19 APTO.1A                                                                                                                                                                                                000031N00000000000000000000000000000000000000000000000000                                                                                                                                                           00000000000000000000000000000000000000000                                                                                                                                                                                                                                                          000000                                                                                                                                                                                                                                                                                                                                                              000000        
DA000001441300000061070005416781MERCEDES ANTONIA                                  REYNOSO                                 ALMONTE                                 C00101804979              19380818001FS000000000000000000000000000000                                                  C/ CARLOS GARDEL # 12                                                                                                                                                                                               000001N00000000000000000000000000000000000000000000000000                                                                                                                                                           00000000000000000000000000000000000000000                                                                                                                                                                                                                                                          000000                                                                                                                                                                                                                                                                                                                                                              000000        
DA000001437900000098300001407392NICOLAS RADHAMES                                  CEBALLOS                                MARTE                                   C00104139936              19491119001MS000000000000000000000000000000                                                  C/ BRISA DEL NORTE #70                                                                                                                                                                                              000224N00000000000000000000000000000000000000000000000000                                                                                                                                                           00000000000000000000000000000000000000000                                                                                                                                                                                                                                                          000000                                                                                                                                                                                                                                                                                                                                                              000000        
DA000001438000000640780040059766MARIA EVANGELISTA                                 TIBURCIO                                DOMINGUEZ                               C05000021260              19490425001FS000000000000000000000000000000                                                  AV. CONFLUENCIA #70                                                                                                                                                                                                 000050N00000000000000000000000000000000000000000000000000                                                                                                                                                           00000000000000000000000000000000000000000                                                                                                                                                                                                                                                          000000                                                                                                                                                                                                                                                                                                                                                              000000        
DA000001422600000371560000000000GLADYS MODESTA                                    PACHECO                                 ESPINAL                                 C07300067373              19420615001FS000000000000000000000000000000                                                  MANZ. E EDIF.5 APTO 3C                                                                                                                                                                                              000035N00000000000000000000000000000000000000000000000000                                                                                                                                                           00000000000000000000000000000000000000000                                                                                                                                                                                                                                                          000000                                                                                                                                                                                                                                                                                                                                                              000000        
DA000001420900000296520034002471MINERVA ALTAGRACIA                                HERNANDEZ                                                                       C03102212374              19490605001FC000000000000000000000000000000                                                  C/ FEDERICO ESQUERDO EDF.20 APTO.1-A                                                                                                                                                                                000031N00000000000000000000000000000000000000000000000000                                                                                                                                                           00000000000000000000000000000000000000000                                                                                                                                                                                                                                                          000000                                                                                                                                                                                                                                                                                                                                                              000000        
DA000001419700000335700039785707PERSEVERANCIA                                     TIBURCIO                                DOMINGUEZ                               C05000021302              19470626001FC000000000000000000000000000000                                                  AVENIDA NORBERTO    TIBURCIO #115                                                                                                                                                                                   000050N00000000000000000000000000000000000000000000000000                                                                                                                                                           00000000000000000000000000000000000000000                                                                                                                                                                                                                                                          000000                                                                                                                                                                                                                                                                                                                                                              000000        
DA000001416500000644330043936526MARIA DEL CARMEN                                  POLANCO                                                                         C05400802699              19660222001FS000000000000000000000000000000                                                  MOCA                                                                                                                                                                                                                000054N00000000000000000000000000000000000000000000000000                                                                                                                                                           00000000000000000000000000000000000000000                                                                                                                                                                                                                                                          000000                                                                                                                                                                                                                                                                                                                                                              000000        
DA000000465500000572530021921662MAXIMINA                                          CANARIO                                 DE PEÑA                                 C01800046409              19321127001FC000000000000000000000000000000                                                  C/ C # 109                                                                                                                                                                                                          000018N00000000000000000000000000000000000000000000000000                                                                                                                                                           00000000000000000000000000000000000000000                                                                                                                                                                                                                                                          000000                                                                                                                                                                                                                                                                                                                                                              000000        
DA000001437700000545790009332768ANTONIA DE JESUS                                  BAEZ                                    PEREZ                                   C00104282025              19581215001FC000000000000000000000000000000                                                  C/ ALONSO SANCHEZ #40                                                                                                                                                                                               000223N00000000000000000000000000000000000000000000000000                                                                                                                                                           00000000000000000000000000000000000000000                                                                                                                                                                                                                                                          000000                                                                                                                                                                                                                                                                                                                                                              000000        
DA000001408900000579510028863398BRUNILDA                                          PEREZ                                   MENDEZ                                  C02100013057              19360126001FC000000000000000000000000000000                                                  C/19 #11                                                                                                                                                                                                            000224N00000000000000000000000000000000000000000000000000                                                                                                                                                           00000000000000000000000000000000000000000                                                                                                                                                                                                                                                          000000                                                                                                                                                                                                                                                                                                                                                              000000        
DA000001433100000351240045407036YOLANDA                                           FAJARDO                                                                         C05600256332              19531124001FU000000000000000000000000000000                                                  C/ PRINCIPAL # 46                                                                                                                                                                                                   000056N00000000000000000000000000000000000000000000000000                                                                                                                                                           00000000000000000000000000000000000000000                                                                                                                                                                                                                                                          000000                                                                                                                                                                                                                                                                                                                                                              000000        
DA000001439300000562290021396722MARIA VITALINA                                    DIAZ                                    JIMENEZ                                 C00300333762              19560513001FC000000000000000000000000000000                                                  C/27 DE FEBRERO #30                                                                                                                                                                                                 000003N00000000000000000000000000000000000000000000000000                                                                                                                                                           00000000000000000000000000000000000000000                                                                                                                                                                                                                                                          000000                                                                                                                                                                                                                                                                                                                                                              000000        
DA000001436100000218030020790730BERTA ARMIDA                                      TEJEDA                                  TEJEDA                                  C00300177763              19471125001FU000000000000000000000000000000                                                  C/CAMBRONAL #13                                                                                                                                                                                                     000003N00000000000000000000000000000000000000000000000000                                                                                                                                                           00000000000000000000000000000000000000000                                                                                                                                                                                                                                                          000000                                                                                                                                                                                                                                                                                                                                                              000000        
