EPN42
DA000000815600000655680049871564FRANCISCO MARIA                                   VASQUEZ                                                                         C07100106033              19451009001MC000000000000000000000000000000                                                  C/ BELLA VISTA S/N                                                                                                                                                                                                  000071N00000000000000000000000000000000000000000000000000                                                                                                                                                           00000000000000000000000000000000000000000                                                                                                                                                                                                                                                          000000                                                                                                                                                                                                                                                                                                                                                              000000        
DA000001502900000678440054148713LAZARO                                            ACOSTA                                  ACOSTA                                  C12300000226              19441217001MU000000000000000000000000000000                                                  JOSE REYES #33                                                                                                                                                                                                      000123N00000000000000000000000000000000000000000000000000                                                                                                                                                           00000000000000000000000000000000000000000                                                                                                                                                                                                                                                          000000                                                                                                                                                                                                                                                                                                                                                              000000        
DA000001548100000637610038722455MARIA                                             MEDINA                                  JIMENEZ                                 C04800081376              19480704001FC000000000000000000000000000000                                                  C/MARCOS ADON, MANZ. 20                                                                                                                                                                                             000001N00000000000000000000000000000000000000000000000000                                                                                                                                                           00000000000000000000000000000000000000000                                                                                                                                                                                                                                                          000000                                                                                                                                                                                                                                                                                                                                                              000000        
DA000000147200000829710037401325AMPARO                                            VENTURA                                 TORIBIO                                 C00116880691              19421030001FC000000000000000000000000000000                                                  AVE. LOS PROCERES # 12                                                                                                                                                                                              000225N00000000000000000000000000000000000000000000000000                                                                                                                                                           00000000000000000000000000000000000000000                                                                                                                                                                                                                                                          000000                                                                                                                                                                                                                                                                                                                                                              000000        
DA000000795100000578440024698670JUSTO GERMAN                                      TERRERO                                 RUBIO                                   C01900086107              19380508001MC000000000000000000000000000000                                                  LOS ARROYOS # 17                                                                                                                                                                                                    000019N00000000000000000000000000000000000000000000000000                                                                                                                                                           00000000000000000000000000000000000000000                                                                                                                                                                                                                                                          000000                                                                                                                                                                                                                                                                                                                                                              000000        
DA000000397100001254290003479275FRANCISCO                                         PIMENTEL                                PEÑA                                    C00105232631              19441001001MC000000000000000000000000000000                                                  C/ LA LOMETA #6                                                                                                                                                                                                     000223N00000000000000000000000000000000000000000000000000                                                                                                                                                           00000000000000000000000000000000000000000                                                                                                                                                                                                                                                          000000                                                                                                                                                                                                                                                                                                                                                              000000        
DA000001017000000873660039825632ANA MARIA                                         PLACENCIA                               BLANCO DE ROSARIO                       C04700318548              19551215001FC000000000000000000000000000000                                                  C/ PRESA DE TAVERAS#0                                                                                                                                                                                               000047N00000000000000000000000000000000000000000000000000                                                                                                                                                           00000000000000000000000000000000000000000                                                                                                                                                                                                                                                          000000                                                                                                                                                                                                                                                                                                                                                              000000        
DA000001534600000499490001077412EUGENIO                                           DRULLARD                                                                        C00101834893              19501216001MS000000000000000000000000000000                                                  SANCHEZ PUNTA GORDA #40                                                                                                                                                                                             000065N00000000000000000000000000000000000000000000000000                                                                                                                                                           00000000000000000000000000000000000000000                                                                                                                                                                                                                                                          000000                                                                                                                                                                                                                                                                                                                                                              000000        
DA000001533300000492620001226730VICTORINA                                         GUZMAN                                  Y GUZMAN                                C00101177947              19630826001FC000000000000000000000000000000                                                  C/ BAJOS DE HAINA #0                                                                                                                                                                                                000093N00000000000000000000000000000000000000000000000000                                                                                                                                                           00000000000000000000000000000000000000000                                                                                                                                                                                                                                                          000000                                                                                                                                                                                                                                                                                                                                                              000000        
DA000001524400000562440021413034ROSA JULIA                                        ENCARNACION                                                                     C00300473295              19371001001FS000000000000000000000000000000                                                  CARRETERA CAÑAFISTOL                                                                                                                                                                                                000003N00000000000000000000000000000000000000000000000000                                                                                                                                                           00000000000000000000000000000000000000000                                                                                                                                                                                                                                                          000000                                                                                                                                                                                                                                                                                                                                                              000000        
DA000001363100000379210052108260LOURDES BRICEIDA                                  SANCHEZ                                 TERRERO                                 C09100008540              19480709001FU000000000000000000000000000000                                                  C/1 #10                                                                                                                                                                                                             000223N00000000000000000000000000000000000000000000000000                                                                                                                                                           00000000000000000000000000000000000000000                                                                                                                                                                                                                                                          000000                                                                                                                                                                                                                                                                                                                                                              000000        
DA000010283800000613860036633680ANA TULIA                                         PEREZ                                                                           C03101222788              19540711001FC000000000000000000000000000000                                                  10 # 14                                                                                                                                                                                                             000031N00000000000000000000000000000000000000000000000000                                                                                                                                                           00000000000000000000000000000000000000000                                                                                                                                                                                                                                                          000000                                                                                                                                                                                                                                                                                                                                                              000000        
DA000001537900000645380045991910MARGARITA MARIA DEL R                             PANTALEON                               PANTALEON                               C05500149439              19441010001FU000000000000000000000000000000                                                  C/TRINIDAD #2                                                                                                                                                                                                       000056N00000000000000000000000000000000000000000000000000                                                                                                                                                           00000000000000000000000000000000000000000                                                                                                                                                                                                                                                          000000                                                                                                                                                                                                                                                                                                                                                              000000        
DA000000397000000386700051482803ROSA DOLORES                                      GARCIA                                  DE BLANCO                               C09500101812              19501126001FC000000000000000000000000000000                                                  LIMONAL ABAJO,#61B                                                                                                                                                                                                  000095N00000000000000000000000000000000000000000000000000                                                                                                                                                           00000000000000000000000000000000000000000                                                                                                                                                                                                                                                          000000                                                                                                                                                                                                                                                                                                                                                              000000        
DA000001076900000295720037415207ANA DILIA                                         GARCIA                                  REYES  DE RODRIGUEZ                     C03102011495              19310506001FU000000000000000000000000000000                                                  DUARTE # 0                                                                                                                                                                                                          000042N00000000000000000000000000000000000000000000000000                                                                                                                                                           00000000000000000000000000000000000000000                                                                                                                                                                                                                                                          000000                                                                                                                                                                                                                                                                                                                                                              000000        
DA000001324100000654980049682245ARMANDA ALTAGRACIA                                DICKSON                                 POLONIA DE HILARIO                      C07100000970              19450827001FS000000000000000000000000000000                                                  C/ PRINCIPAL #5                                                                                                                                                                                                     000071N00000000000000000000000000000000000000000000000000                                                                                                                                                           00000000000000000000000000000000000000000                                                                                                                                                                                                                                                          000000                                                                                                                                                                                                                                                                                                                                                              000000        
DA000000622100000216870018661874AMPARO ALTAGRACIA                                 PERELLO                                 RUIZ                                    C00300116241              19331030001FC000000000000000000000000000000                                                  C/ 27 DE FEBRERO #3OESTE                                                                                                                                                                                            000003N00000000000000000000000000000000000000000000000000                                                                                                                                                           00000000000000000000000000000000000000000                                                                                                                                                                                                                                                          000000                                                                                                                                                                                                                                                                                                                                                              000000        
DA000001547500000246650022143640MIGUEL                                            FELIZ                                   Y FELIZ                                 C01900012632              19360212001MC000000000000000000000000000000                                                  LIBERTAD NO. 53                                                                                                                                                                                                     000019N00000000000000000000000000000000000000000000000000                                                                                                                                                           00000000000000000000000000000000000000000                                                                                                                                                                                                                                                          000000                                                                                                                                                                                                                                                                                                                                                              000000        
DA000001305800000373740049881110ROSA                                              CUEVAS                                  NOVAS                                   C07700004521              19350830001FU000000000000000000000000000000                                                  C/ PEÑA Y REINOSO #10                                                                                                                                                                                               000001N00000000000000000000000000000000000000000000000000                                                                                                                                                           00000000000000000000000000000000000000000                                                                                                                                                                                                                                                          000000                                                                                                                                                                                                                                                                                                                                                              000000        
DA000001561300000672080052962794MARTIN DE JESUS                                   MARTINEZ                                ARIAS                                   C09500013223              19550415001MC000000000000000000000000000000                                                  C/ MELLA # 5                                                                                                                                                                                                        000095N00000000000000000000000000000000000000000000000000                                                                                                                                                           00000000000000000000000000000000000000000                                                                                                                                                                                                                                                          000000                                                                                                                                                                                                                                                                                                                                                              000000        
DA000001530900000301050030700874RAMONA EMILIA                                     BARRERA                                 LLANOS                                  C03200071896              19291005001FC000000000000000000000000000000                                                  PRINCIPAL #70                                                                                                                                                                                                       000032N00000000000000000000000000000000000000000000000000                                                                                                                                                           00000000000000000000000000000000000000000                                                                                                                                                                                                                                                          000000                                                                                                                                                                                                                                                                                                                                                              000000        
DA000001506100000623500031727733JOSE BIENVENIDO                                   NUÑEZ                                   GUTIERREZ                               C03500075142              19690412001MS000000000000000000000000000000                                                  JUNCALITO#34                                                                                                                                                                                                        000031N00000000000000000000000000000000000000000000000000                                                                                                                                                           00000000000000000000000000000000000000000                                                                                                                                                                                                                                                          000000                                                                                                                                                                                                                                                                                                                                                              000000        
DA000000142800000565070018785305DAYSI MARGARITA                                   OVANDO                                  RIVAS                                   C01000036200              19580416001FS000000000000000000000000000000                                                  TORTUGUERO.  #62                                                                                                                                                                                                    000010N00000000000000000000000000000000000000000000000000                                                                                                                                                           00000000000000000000000000000000000000000                                                                                                                                                                                                                                                          000000                                                                                                                                                                                                                                                                                                                                                              000000        
DA000000385400000566720018530782RAFAELA VIENVENIDA                                MENDEZ                                  RAMIREZ                                 C01000612711              19550425001FS000000000000000000000000000000                                                  FRANCISCO DEL ROSARIO SANCHEZ #139                                                                                                                                                                                  000010N00000000000000000000000000000000000000000000000000                                                                                                                                                           00000000000000000000000000000000000000000                                                                                                                                                                                                                                                          000000                                                                                                                                                                                                                                                                                                                                                              000000        
DA000000647600000577570021937660DIGNORA LEONOR                                    GOMEZ                                                                           C01900001767              19420221001FS000000000000000000000000000000                                                  AV. LIBERTAD #3                                                                                                                                                                                                     000019N00000000000000000000000000000000000000000000000000                                                                                                                                                           00000000000000000000000000000000000000000                                                                                                                                                                                                                                                          000000                                                                                                                                                                                                                                                                                                                                                              000000        
DA000001434100000646120043289763GLADYS MERCEDES                                   DURAN                                   HERNANDEZ                               C05600060619              19450803001FU000000000000000000000000000000                                                  AV. CAONABO#42-A                                                                                                                                                                                                    000056N00000000000000000000000000000000000000000000000000                                                                                                                                                           00000000000000000000000000000000000000000                                                                                                                                                                                                                                                          000000                                                                                                                                                                                                                                                                                                                                                              000000        
DA000001295800000375460005010490MARIA OCTAVIA                                     GONZALEZ                                G DE ACOSTA                             C08000019730              19301020001FC000000000000000000000000000000                                                  C/ PRIMERA #5                                                                                                                                                                                                       000080N00000000000000000000000000000000000000000000000000                                                                                                                                                           00000000000000000000000000000000000000000                                                                                                                                                                                                                                                          000000                                                                                                                                                                                                                                                                                                                                                              000000        
DA000001552200000565450019615587NERTYS BIENVENIDA                                 DE LA CRUZ                                                                      C01000079606              19380315001FC000000000000000000000000000000                                                  EUGENIO COHEN #33                                                                                                                                                                                                   000010N00000000000000000000000000000000000000000000000000                                                                                                                                                           00000000000000000000000000000000000000000                                                                                                                                                                                                                                                          000000                                                                                                                                                                                                                                                                                                                                                              000000        
DA000000398000000656770049747653CORNELIA EDITA                                    SANTANA                                 TAPIA                                   C07300013039              19540916001FC000000000000000000000000000000                                                  C/ SOLTERO BLANCO # 78                                                                                                                                                                                              000073N00000000000000000000000000000000000000000000000000                                                                                                                                                           00000000000000000000000000000000000000000                                                                                                                                                                                                                                                          000000                                                                                                                                                                                                                                                                                                                                                              000000        
DA000001153200000647240042995600ZENEIDA                                           JEREZ                                   CONCE                                   C05600361256              19560112001FS000000000000000000000000000000                                                  TORRE DON LUIS #5 A                                                                                                                                                                                                 000056N00000000000000000000000000000000000000000000000000                                                                                                                                                           00000000000000000000000000000000000000000                                                                                                                                                                                                                                                          000000                                                                                                                                                                                                                                                                                                                                                              000000        
DA000000936900000505710011504528HILDA ANTONIA CARLITA                             HENRIQUEZ                               PEREZ                                   C00102640075              19450721001FC000000000000000000000000000000                                                  C/ MARCOS RUIZ # 89                                                                                                                                                                                                 000001N00000000000000000000000000000000000000000000000000                                                                                                                                                           00000000000000000000000000000000000000000                                                                                                                                                                                                                                                          000000                                                                                                                                                                                                                                                                                                                                                              000000        
DA000000024900000567170024939673ETANISLAO                                         MONTERO                                 GARCIA                                  C01100061645              19350601001MS000000000000000000000000000000                                                  C/ CENTRAL DEL CENTRO # 129                                                                                                                                                                                         000011N00000000000000000000000000000000000000000000000000                                                                                                                                                           00000000000000000000000000000000000000000                                                                                                                                                                                                                                                          000000                                                                                                                                                                                                                                                                                                                                                              000000        
DA000001415600000606110036120896LUMINADA                                          CEPEDA                                  ALMONTE                                 C03100242175              19530914001FS000000000000000000000000000000                                                  C/1 NO. 1                                                                                                                                                                                                           000031N00000000000000000000000000000000000000000000000000                                                                                                                                                           00000000000000000000000000000000000000000                                                                                                                                                                                                                                                          000000                                                                                                                                                                                                                                                                                                                                                              000000        
DA000001462300000577580024689431ADA AFRICA                                        OLIVERO                                 URBAEZ                                  C01900002138              19361225001FU000000000000000000000000000000                                                  C/SANCHEZ NO. 13                                                                                                                                                                                                    000019N00000000000000000000000000000000000000000000000000                                                                                                                                                           00000000000000000000000000000000000000000                                                                                                                                                                                                                                                          000000                                                                                                                                                                                                                                                                                                                                                              000000        
DA000001076000000674350053209664HERMINIA                                          REYES                                                                           C10100019545              19391016001FS000000000000000000000000000000                                                  30 DE MAYO # 35                                                                                                                                                                                                     000041N00000000000000000000000000000000000000000000000000                                                                                                                                                           00000000000000000000000000000000000000000                                                                                                                                                                                                                                                          000000                                                                                                                                                                                                                                                                                                                                                              000000        
DA000000621500001048120045849562FRANCISCO                                         ROJAS                                                                           C05900001917              19440618001MC000000000000000000000000000000                                                  C/PEDRO MA. GOMEZ#14                                                                                                                                                                                                000059N00000000000000000000000000000000000000000000000000                                                                                                                                                           00000000000000000000000000000000000000000                                                                                                                                                                                                                                                          000000                                                                                                                                                                                                                                                                                                                                                              000000        
DA000001112400000647850004361624GLADYS ALTAGRACIA                                 REYNOSO                                 PAREDES                                 C05600730674              19341130001FC000000000000000000000000000000                                                  C/ JUAN XX111 # 26                                                                                                                                                                                                  000056N00000000000000000000000000000000000000000000000000                                                                                                                                                           00000000000000000000000000000000000000000                                                                                                                                                                                                                                                          000000                                                                                                                                                                                                                                                                                                                                                              000000        
DA000001417000000342460042873364DOMINGO                                           GUZMAN                                  LANTIGUA                                C05400228069              19350804001MC000000000000000000000000000000                                                  LAS LAGUNAS  ARRIBA MOCA   #19                                                                                                                                                                                      000054N00000000000000000000000000000000000000000000000000                                                                                                                                                           00000000000000000000000000000000000000000                                                                                                                                                                                                                                                          000000                                                                                                                                                                                                                                                                                                                                                              000000        
DA000000101400000621840036389955MARIA DE LOS ANGELES                              PALLERO                                 LORA                                    C03300079740              19610304001FC000000000000000000000000000000                                                  C/ COLON # 25                                                                                                                                                                                                       000033N00000000000000000000000000000000000000000000000000                                                                                                                                                           00000000000000000000000000000000000000000                                                                                                                                                                                                                                                          000000                                                                                                                                                                                                                                                                                                                                                              000000        
DA000001250700000568740023374375EUSEBIA                                           ZARZUELA                                BIDO                                    C01200165999              19530322001FS000000000000000000000000000000                                                  C/10 # 106                                                                                                                                                                                                          000001N00000000000000000000000000000000000000000000000000                                                                                                                                                           00000000000000000000000000000000000000000                                                                                                                                                                                                                                                          000000                                                                                                                                                                                                                                                                                                                                                              000000        
DA000001278800000228790021976190ALTAGRACIA NIDIA                                  BAUTISTA                                VERIHUETE DE FAMILIA                    C01100019304              19410301001FC000000000000000000000000000000                                                  RAFAEL  GAUTEAUX #9                                                                                                                                                                                                 000223N00000000000000000000000000000000000000000000000000                                                                                                                                                           00000000000000000000000000000000000000000                                                                                                                                                                                                                                                          000000                                                                                                                                                                                                                                                                                                                                                              000000        
DA000001105800000677080053529887EUFEMIO                                           SOLANO                                  ROMERO                                  C10400032701              19470903001MS000000000000000000000000000000                                                  CAMBITA GARABITO # 5-C                                                                                                                                                                                              000104N00000000000000000000000000000000000000000000000000                                                                                                                                                           00000000000000000000000000000000000000000                                                                                                                                                                                                                                                          000000                                                                                                                                                                                                                                                                                                                                                              000000        
DA000000999900000628650033836462ANA FERMINA                                       RODRIGUEZ                               MARTINEZ                                C03800067641              19470707001FC000000000000000000000000000000                                                  LLANOS DEL PEREZ # 50                                                                                                                                                                                               000038N00000000000000000000000000000000000000000000000000                                                                                                                                                           00000000000000000000000000000000000000000                                                                                                                                                                                                                                                          000000                                                                                                                                                                                                                                                                                                                                                              000000        
DA000000925800000077340053776800LIBRADO                                           GERONIMO                                BAEZ                                    C10400112735              19320128001MC000000000000000000000000000000                                                  C/ 1RA # 2                                                                                                                                                                                                          000002N00000000000000000000000000000000000000000000000000                                                                                                                                                           00000000000000000000000000000000000000000                                                                                                                                                                                                                                                          000000                                                                                                                                                                                                                                                                                                                                                              000000        
DA000000191400000677010053771447WILFREDO                                          SANTANA                                 DUVERGE                                 C10400015458              19481215001MC000000000000000000000000000000                                                  C/ DANIEL # 29                                                                                                                                                                                                      000104N00000000000000000000000000000000000000000000000000                                                                                                                                                           00000000000000000000000000000000000000000                                                                                                                                                                                                                                                          000000                                                                                                                                                                                                                                                                                                                                                              000000        
DA000001176200000655690049385964CARIDAD                                           CAMPOS                                  DE MOSQUEA                              C07100106405              19530829001FC000000000000000000000000000000                                                  KM. 4, AUTOPISTA NAGUA-CABRERA # 7                                                                                                                                                                                  000071N00000000000000000000000000000000000000000000000000                                                                                                                                                           00000000000000000000000000000000000000000                                                                                                                                                                                                                                                          000000                                                                                                                                                                                                                                                                                                                                                              000000        
DA000001356900000367160048777703VIANELA                                           RAMIREZ                                 DE MENDEZ                               C07000014402              19400308001FC000000000000000000000000000000                                                  PEATON 6#14                                                                                                                                                                                                         000070N00000000000000000000000000000000000000000000000000                                                                                                                                                           00000000000000000000000000000000000000000                                                                                                                                                                                                                                                          000000                                                                                                                                                                                                                                                                                                                                                              000000        
DA000001506100000336170041274754HECTOR DARIO                                      ABREU                                   HERNANDEZ                               C05000055193              19461119001MC000000000000000000000000000000                                                  C/ FRANCISCO PRATTS RAMIREZ #558                                                                                                                                                                                    000001N00000000000000000000000000000000000000000000000000                                                                                                                                                           00000000000000000000000000000000000000000                                                                                                                                                                                                                                                          000000                                                                                                                                                                                                                                                                                                                                                              000000        
DA000001082400000629320030949232AGUSTINA                                          POLANCO                                 DE RODRIGUEZ                            C03900024476              19510405001FC000000000000000000000000000000                                                  C/ RAMON ANTONIO SILA #5                                                                                                                                                                                            000120N00000000000000000000000000000000000000000000000000                                                                                                                                                           00000000000000000000000000000000000000000                                                                                                                                                                                                                                                          000000                                                                                                                                                                                                                                                                                                                                                              000000        
DA000000583600000566890037359773ISIDRA DE JESUS                                   RODRIGUEZ                               JAQUEZ                                  C03600078327              19580515001FC000000000000000000000000000000                                                  EL GALLO #32                                                                                                                                                                                                        000031N00000000000000000000000000000000000000000000000000                                                                                                                                                           00000000000000000000000000000000000000000                                                                                                                                                                                                                                                          000000                                                                                                                                                                                                                                                                                                                                                              000000        
DA000004358300000134210003821873DIONICIA ALTAGRACIA                               ALMANZAR                                MARQUEZ                                 C00106484355              19500803001FU000000000000000000000000000000                                                  LAS DAMAS #48                                                                                                                                                                                                       000068N00000000000000000000000000000000000000000000000000                                                                                                                                                           00000000000000000000000000000000000000000                                                                                                                                                                                                                                                          000000                                                                                                                                                                                                                                                                                                                                                              000000        
DA000001503400000565850019623720NIEVES LUISA                                      SENCION                                 ESCANIO                                 C01000134161              19400127001FS000000000000000000000000000000                                                  C/LAS CARRERAS #33                                                                                                                                                                                                  000010N00000000000000000000000000000000000000000000000000                                                                                                                                                           00000000000000000000000000000000000000000                                                                                                                                                                                                                                                          000000                                                                                                                                                                                                                                                                                                                                                              000000        
DA000001466600000618550036667834FIORDALIZA                                        CABRERA                                 LAFONTAINE                              C03102256462              19501106001FC000000000000000000000000000000                                                  C/5 #2                                                                                                                                                                                                              000031N00000000000000000000000000000000000000000000000000                                                                                                                                                           00000000000000000000000000000000000000000                                                                                                                                                                                                                                                          000000                                                                                                                                                                                                                                                                                                                                                              000000        
DA000003636800000568340022795082DOLORES SALVINIA                                  CAMINERO                                GERONIMO                                C01200119202              19371101001FS000000000000000000000000000000                                                  27 DE FEBRERO #96-A                                                                                                                                                                                                 000012N00000000000000000000000000000000000000000000000000                                                                                                                                                           00000000000000000000000000000000000000000                                                                                                                                                                                                                                                          000000                                                                                                                                                                                                                                                                                                                                                              000000        
DA000001467400000632050039821210MARGARITA ANTONIA                                 ROSA                                    GOMEZ                                   C04500055159              19371205001FS000000000000000000000000000000                                                  C/ 3 #20A                                                                                                                                                                                                           000031N00000000000000000000000000000000000000000000000000                                                                                                                                                           00000000000000000000000000000000000000000                                                                                                                                                                                                                                                          000000                                                                                                                                                                                                                                                                                                                                                              000000        
DA000001554900000531760007885410ANDRES                                            MACARIO                                 DE JESUS                                C00106720279              19530524001MC000000000000000000000000000000                                                  C/ SAN JOSE # 4-A                                                                                                                                                                                                   000001N00000000000000000000000000000000000000000000000000                                                                                                                                                           00000000000000000000000000000000000000000                                                                                                                                                                                                                                                          000000                                                                                                                                                                                                                                                                                                                                                              000000        
DA000001543800000558030020732480MARIA ASUNCION                                    POLANCO                                 SURIEL                                  C00200217016              19320613001FS000000000000000000000000000000                                                  C/ LUIS ALBERTI #38                                                                                                                                                                                                 000002N00000000000000000000000000000000000000000000000000                                                                                                                                                           00000000000000000000000000000000000000000                                                                                                                                                                                                                                                          000000                                                                                                                                                                                                                                                                                                                                                              000000        
DA000000290800000639920038470797LIDIA ALTAGRACIA ALT                              SORIANO                                 ABREU                                   C04900145626              19400214001FS000000000000000000000000000000                                                  C/ BIENVENIDO GARCIA GAUTIER RES. MANNY #2                                                                                                                                                                          000001N00000000000000000000000000000000000000000000000000                                                                                                                                                           00000000000000000000000000000000000000000                                                                                                                                                                                                                                                          000000                                                                                                                                                                                                                                                                                                                                                              000000        
DA000001467900000606140031881937ANGELA MARIA                                      ALMONTE                                 MORAN                                   C03100245822              19531003001FC000000000000000000000000000000                                                  C/ B #30                                                                                                                                                                                                            000031N00000000000000000000000000000000000000000000000000                                                                                                                                                           00000000000000000000000000000000000000000                                                                                                                                                                                                                                                          000000                                                                                                                                                                                                                                                                                                                                                              000000        
DA000001260000000233790022604200VICTOR MANUEL                                     PEREZ                                   PAYANO                                  C01200296539              19550810001MC000000000000000000000000000000                                                  C/ ANACAONA # 16-A                                                                                                                                                                                                  000129N00000000000000000000000000000000000000000000000000                                                                                                                                                           00000000000000000000000000000000000000000                                                                                                                                                                                                                                                          000000                                                                                                                                                                                                                                                                                                                                                              000000        
DA000001353900000547290003722427CARMEN MARIA                                      ALVARADO                                GUZMAN                                  C00108788027              19541231001FS000000000000000000000000000000                                                  LA PAZ DUARTE HERRERA #34                                                                                                                                                                                           000224N00000000000000000000000000000000000000000000000000                                                                                                                                                           00000000000000000000000000000000000000000                                                                                                                                                                                                                                                          000000                                                                                                                                                                                                                                                                                                                                                              000000        
DA000001383100000822300008963245FAUSTO RAMON                                      UREÑA                                   FERNANDEZ                               C00107762536              19470701001MC000000000000000000000000000000                                                  EDIF. 28 APTO #4-C                                                                                                                                                                                                  000224N00000000000000000000000000000000000000000000000000                                                                                                                                                           00000000000000000000000000000000000000000                                                                                                                                                                                                                                                          000000                                                                                                                                                                                                                                                                                                                                                              000000        
DA000001476200000042240011405796LEDA MINETA                                       PEREZ                                   PEREZ                                   C00101193316              19460810001FS000000000000000000000000000000                                                  C/ 25 ESTE MANZ.65 #24                                                                                                                                                                                              000223N00000000000000000000000000000000000000000000000000                                                                                                                                                           00000000000000000000000000000000000000000                                                                                                                                                                                                                                                          000000                                                                                                                                                                                                                                                                                                                                                              000000        
DA000001470700000122800007151225MILAGROS                                          GARCIA                                  LEDESMA                                 C00105678171              19490505001FC000000000000000000000000000000                                                  C/4 # 66                                                                                                                                                                                                            000223N00000000000000000000000000000000000000000000000000                                                                                                                                                           00000000000000000000000000000000000000000                                                                                                                                                                                                                                                          000000                                                                                                                                                                                                                                                                                                                                                              000000        
DA000001473800000000190002281214CELIA ALICIA                                      MICHES                                  VICIOSO                                 C00100003102              19321215001FS000000000000000000000000000000                                                  ARZOBISPO PORTE NO. 63                                                                                                                                                                                              000001N00000000000000000000000000000000000000000000000000                                                                                                                                                           00000000000000000000000000000000000000000                                                                                                                                                                                                                                                          000000                                                                                                                                                                                                                                                                                                                                                              000000        
DA000001474000000208980019696012CELINA GERTRUDYS                                  GARCIA                                  DE DIAZ                                 C00200206589              19310317001FC000000000000000000000000000000                                                  17 #20                                                                                                                                                                                                              000224N00000000000000000000000000000000000000000000000000                                                                                                                                                           00000000000000000000000000000000000000000                                                                                                                                                                                                                                                          000000                                                                                                                                                                                                                                                                                                                                                              000000        
DA000001474300000164490001696092DARIA                                             TERRERO                                 DE PEREZ                                C00108710567              19440209001FC000000000000000000000000000000                                                  EDF. 24 APTO. 1-1                                                                                                                                                                                                   000001N00000000000000000000000000000000000000000000000000                                                                                                                                                           00000000000000000000000000000000000000000                                                                                                                                                                                                                                                          000000                                                                                                                                                                                                                                                                                                                                                              000000        
DA000001435100000299170027081560MERCEDES                                          EVERTZ                                  CRISPIN                                 C02700084110              19340608001FU000000000000000000000000000000                                                  C/INDEPENDENCIA #35                                                                                                                                                                                                 000027N00000000000000000000000000000000000000000000000000                                                                                                                                                           00000000000000000000000000000000000000000                                                                                                                                                                                                                                                          000000                                                                                                                                                                                                                                                                                                                                                              000000        
DA000001271600000655430049690540AMERICA                                           FERMIN                                  DE LA CRUZ                              C07100060586              19440102001FS000000000000000000000000000000                                                  C/DUARTE #105                                                                                                                                                                                                       000071N00000000000000000000000000000000000000000000000000                                                                                                                                                           00000000000000000000000000000000000000000                                                                                                                                                                                                                                                          000000                                                                                                                                                                                                                                                                                                                                                              000000        
DA000001311700000323220039574617MARIA DOLORES                                     GIL                                     MARTINEZ                                C04700159579              19421207001FC000000000000000000000000000000                                                  C/SEGUNDA #26                                                                                                                                                                                                       000047N00000000000000000000000000000000000000000000000000                                                                                                                                                           00000000000000000000000000000000000000000                                                                                                                                                                                                                                                          000000                                                                                                                                                                                                                                                                                                                                                              000000        
DA000001402200000344080044700456JUANA                                             GOMEZ                                   PEÑA DE HERNANDEZ                       C05400565965              19210501001FS000000000000000000000000000000                                                  C/ PRINCIPAL                                                                                                                                                                                                        000047N00000000000000000000000000000000000000000000000000                                                                                                                                                           00000000000000000000000000000000000000000                                                                                                                                                                                                                                                          000000                                                                                                                                                                                                                                                                                                                                                              000000        
DA000001221400000638020038120237DAVID                                             BAUTISTA                                DIAZ                                    C04800136527              19500130001MS000000000000000000000000000000                                                  URBANIZACION LOS PROSERES                                                                                                                                                                                           000048N00000000000000000000000000000000000000000000000000                                                                                                                                                           00000000000000000000000000000000000000000                                                                                                                                                                                                                                                          000000                                                                                                                                                                                                                                                                                                                                                              000000        
DA000000488300000561860019226130JUAN BOLIVAR                                      ANDUJAR                                 SANCHEZ                                 C00300156411              19410516001MC000000000000000000000000000000                                                  EDIF. 21, APTO. 202, RIVERA DEL SUR                                                                                                                                                                                 000003N00000000000000000000000000000000000000000000000000                                                                                                                                                           00000000000000000000000000000000000000000                                                                                                                                                                                                                                                          000000                                                                                                                                                                                                                                                                                                                                                              000000        
