EPN42
DA000001527900000503040000139405JUANA MARIA                                       VENTURA                                 DIAZ                                    C00102264272              19520818001FC000000000000000000000000000000                                                  C/ LIBERTAD #24B                                                                                                                                                                                                    000224N00000000000000000000000000000000000000000000000000                                                                                                                                                           00000000000000000000000000000000000000000                                                                                                                                                                                                                                                          000000                                                                                                                                                                                                                                                                                                                                                              000000        
DA000001504500000376280050311144HILDA MARTA                                       CASANOVA                                BRITO DE PEREZ                          C08200006537              19360917001FS000000000000000000000000000000                                                  C/ FELIX REYES #49                                                                                                                                                                                                  000082N00000000000000000000000000000000000000000000000000                                                                                                                                                           00000000000000000000000000000000000000000                                                                                                                                                                                                                                                          000000                                                                                                                                                                                                                                                                                                                                                              000000        
DA000001448100000309540034144241ROSA                                              ALMONTE                                 JORGE VDA ABREU                         C03700265485              19210830001FS000000000000000000000000000000                                                  C/ JUAN LAFFIT #12                                                                                                                                                                                                  000037N00000000000000000000000000000000000000000000000000                                                                                                                                                           00000000000000000000000000000000000000000                                                                                                                                                                                                                                                          000000                                                                                                                                                                                                                                                                                                                                                              000000        
DA000001230100000656860048851928ANA SABINA                                        ULLOA                                   REYES                                   C07300028045              19380421001FS000000000000000000000000000000                                                  C/LA HOYA #41                                                                                                                                                                                                       000073N00000000000000000000000000000000000000000000000000                                                                                                                                                           00000000000000000000000000000000000000000                                                                                                                                                                                                                                                          000000                                                                                                                                                                                                                                                                                                                                                              000000        
DA000000005300000144050014064868ROSA AMELIA                                       VINCENT                                 CEPEDA                                  C00107229429              19250626001FU000000000000000000000000000000                                                  C/ SOMBRERO                                                                                                                                                                                                         000001N00000000000000000000000000000000000000000000000000                                                                                                                                                           00000000000000000000000000000000000000000                                                                                                                                                                                                                                                          000000                                                                                                                                                                                                                                                                                                                                                              000000        
DA000001170500000042860006892046MARIA YSABEL                                      PAULINO                                 CABRERA                                 C00101214450              19270915001FS000000000000000000000000000000                                                  AV. HELIN, RESD. ACKLTOU III APTO.203, #139                                                                                                                                                                         000001N00000000000000000000000000000000000000000000000000                                                                                                                                                           00000000000000000000000000000000000000000                                                                                                                                                                                                                                                          000000                                                                                                                                                                                                                                                                                                                                                              000000        
DA000001208500000062710003527226LIDVIA ONDINA                                     GUZMAN                                  MENDEZ                                  C00101895928              19451206001FC000000000000000000000000000000                                                  C/ 1RA # 51                                                                                                                                                                                                         000229N00000000000000000000000000000000000000000000000000                                                                                                                                                           00000000000000000000000000000000000000000                                                                                                                                                                                                                                                          000000                                                                                                                                                                                                                                                                                                                                                              000000        
DA000001283900000630440041024336GLADYS GENEROSA                                   GOMEZ                                   GRULLON                                 C04100037409              19381020001FC000000000000000000000000000000                                                  C/ 16 DE AGOSTO #55                                                                                                                                                                                                 000041N00000000000000000000000000000000000000000000000000                                                                                                                                                           00000000000000000000000000000000000000000                                                                                                                                                                                                                                                          000000                                                                                                                                                                                                                                                                                                                                                              000000        
DA000001467400000146740039821210MARGARITA ANTONIA                                 ROSA                                    GOMEZ                                   C04500055159              19371205001FS000000000000000000000000000000                                                  C/ 3 #20A                                                                                                                                                                                                           000031N00000000000000000000000000000000000000000000000000                                                                                                                                                           00000000000000000000000000000000000000000                                                                                                                                                                                                                                                          000000                                                                                                                                                                                                                                                                                                                                                              000000        
DA000001324900001242290045713723MARCELINA DEL C                                   RODRIGUEZ                                                                       C05200034030              19490426001FC000000000000000000000000000000                                                  C/ DUARTE #134                                                                                                                                                                                                      000052N00000000000000000000000000000000000000000000000000                                                                                                                                                           00000000000000000000000000000000000000000                                                                                                                                                                                                                                                          000000                                                                                                                                                                                                                                                                                                                                                              000000        
DA000001505200000245510002293440LEONEL ANTONIO                                    BATISTA                                 CEDEÑO                                  C01800312975              19421029001MC000000000000000000000000000000                                                  C/ 2DA #19 PROL. 27 DE FEB.                                                                                                                                                                                         000225N00000000000000000000000000000000000000000000000000                                                                                                                                                           00000000000000000000000000000000000000000                                                                                                                                                                                                                                                          000000                                                                                                                                                                                                                                                                                                                                                              000000        
DA000001347400001038170028874227MARINO                                            PEGUERO                                 PEGUERO                                 C02700023530              19380412001MC000000000000000000000000000000                                                  COLON # 14                                                                                                                                                                                                          000027N00000000000000000000000000000000000000000000000000                                                                                                                                                           00000000000000000000000000000000000000000                                                                                                                                                                                                                                                          000000                                                                                                                                                                                                                                                                                                                                                              000000        
DA000001455300000650750047623557GERMAN                                            SALAZAR                                 GIL                                     C06100159372              19510303001MC000000000000000000000000000000                                                  BEJUCO BLANCO                                                                                                                                                                                                       000061N00000000000000000000000000000000000000000000000000                                                                                                                                                           00000000000000000000000000000000000000000                                                                                                                                                                                                                                                          000000                                                                                                                                                                                                                                                                                                                                                              000000        
DA000000458900000374800049105995LUIS                                              FERRERAS                                GOMEZ                                   C07900000816              19500227001MC000000000000000000000000000000                                                  C/ ARZOBISPO M. #96                                                                                                                                                                                                 000079N00000000000000000000000000000000000000000000000000                                                                                                                                                           00000000000000000000000000000000000000000                                                                                                                                                                                                                                                          000000                                                                                                                                                                                                                                                                                                                                                              000000        
DA000001524700000497590015873858NERIS MILADY                                      TEJEDA                                  TEJEDA                                  C00101578318              19430725001FC000000000000000000000000000000                                                  C/PIDAGRO #56                                                                                                                                                                                                       000001N00000000000000000000000000000000000000000000000000                                                                                                                                                           00000000000000000000000000000000000000000                                                                                                                                                                                                                                                          000000                                                                                                                                                                                                                                                                                                                                                              000000        
DA000001237000000655660049694273MARIA ESTELA                                      CORNIEL                                 SOLANO                                  C07100097356              19610908001FC000000000000000000000000000000                                                  C/ MC, EDIF. 2, APTO. 101                                                                                                                                                                                           000071N00000000000000000000000000000000000000000000000000                                                                                                                                                           00000000000000000000000000000000000000000                                                                                                                                                                                                                                                          000000                                                                                                                                                                                                                                                                                                                                                              000000        
DA000001446600000614170031914363TEODORA YSABEL                                    ESPINAL                                 DE PORRA                                C03101323248              19361109001FC000000000000000000000000000000                                                  JACAGUA AL MEDIO #51                                                                                                                                                                                                000031N00000000000000000000000000000000000000000000000000                                                                                                                                                           00000000000000000000000000000000000000000                                                                                                                                                                                                                                                          000000                                                                                                                                                                                                                                                                                                                                                              000000        
DA000001453500000612190035418757MARIA ENCARNACION                                 TORRES                                  TORRES DE PERALTA                       C03101045312              19540717001FC000000000000000000000000000000                                                  C/ EL NARANJITO                                                                                                                                                                                                     000031N00000000000000000000000000000000000000000000000000                                                                                                                                                           00000000000000000000000000000000000000000                                                                                                                                                                                                                                                          000000                                                                                                                                                                                                                                                                                                                                                              000000        
DA000001454900000633490038936278MARIA ALTAGRACIA                                  GARCIA                                  ARIAS                                   C04600208252              19511202001FC000000000000000000000000000000                                                  SAN IGNACIO #17                                                                                                                                                                                                     000072N00000000000000000000000000000000000000000000000000                                                                                                                                                           00000000000000000000000000000000000000000                                                                                                                                                                                                                                                          000000                                                                                                                                                                                                                                                                                                                                                              000000        
DA000000281700000626450034140264FELIX                                             SANCHEZ                                                                         C03700223401              19390729001MC000000000000000000000000000000                                                  C/ VISTA ALEGRE # 19                                                                                                                                                                                                000037N00000000000000000000000000000000000000000000000000                                                                                                                                                           00000000000000000000000000000000000000000                                                                                                                                                                                                                                                          000000                                                                                                                                                                                                                                                                                                                                                              000000        
DA000001521600001044560041423086ANA MERCEDES                                      ABREU                                   SOLIS DE L                              C04700503685              19480728001FC000000000000000000000000000000                                                  BURENDE                                                                                                                                                                                                             000047N00000000000000000000000000000000000000000000000000                                                                                                                                                           00000000000000000000000000000000000000000                                                                                                                                                                                                                                                          000000                                                                                                                                                                                                                                                                                                                                                              000000        
DA000000465600000573090024082540ALCIDES DAVID                                     PENA                                                                            C01800070847              19440420001MC000000000000000000000000000000                                                  C/ 3RA, EDIF. 20, APTO. 301.                                                                                                                                                                                        000018N00000000000000000000000000000000000000000000000000                                                                                                                                                           00000000000000000000000000000000000000000                                                                                                                                                                                                                                                          000000                                                                                                                                                                                                                                                                                                                                                              000000        
DA000000861200000568510022193704YANIRE DE LOS MILAGROS                            MONTAS                                  MONTES DE OCA                           C01200130266              19621227001FC000000000000000000000000000000                                                  DR. PINEYRO # 174, C-1                                                                                                                                                                                              000001N00000000000000000000000000000000000000000000000000                                                                                                                                                           00000000000000000000000000000000000000000                                                                                                                                                                                                                                                          000000                                                                                                                                                                                                                                                                                                                                                              000000        
DA000001330700000544120009016420PAULINA                                           DE LA ROSA                                                                      C00108224767              19390126001FS000000000000000000000000000000                                                  C/ B EDFI. 6 APTO. 302, LOS FARALLONES                                                                                                                                                                              000001N00000000000000000000000000000000000000000000000000                                                                                                                                                           00000000000000000000000000000000000000000                                                                                                                                                                                                                                                          000000                                                                                                                                                                                                                                                                                                                                                              000000        
DA000001310500000500270009702891ANA ELENA YOLANDA                                 JIMENEZ                                 REYNOSO                                 C00101916989              19300818001FS000000000000000000000000000000                                                  C/ WASCAR TEJEDA APT. 401                                                                                                                                                                                           000001N00000000000000000000000000000000000000000000000000                                                                                                                                                           00000000000000000000000000000000000000000                                                                                                                                                                                                                                                          000000                                                                                                                                                                                                                                                                                                                                                              000000        
DA000001310600000483720002295991DANIA ARELIS                                      ALMONTE                                 VARGAS                                  C00100166891              19580326001FS000000000000000000000000000000                                                  M 15 BP. 203                                                                                                                                                                                                        000225N00000000000000000000000000000000000000000000000000                                                                                                                                                           00000000000000000000000000000000000000000                                                                                                                                                                                                                                                          000000                                                                                                                                                                                                                                                                                                                                                              000000        
DA000001307700000506820013791464MARINA ANTONIA                                    BURGOS                                  BAUTISTA                                C00102781879              19420117001FS000000000000000000000000000000                                                  C/ JUAN ERAZO #60                                                                                                                                                                                                   000001N00000000000000000000000000000000000000000000000000                                                                                                                                                           00000000000000000000000000000000000000000                                                                                                                                                                                                                                                          000000                                                                                                                                                                                                                                                                                                                                                              000000        
DA000001315000000102520001289295TEODORA                                           BIDO                                    SEGURA                                  C00104546544              19510207001FS000000000000000000000000000000                                                  LA MILAGROSA #15 ALTOS                                                                                                                                                                                              000223N00000000000000000000000000000000000000000000000000                                                                                                                                                           00000000000000000000000000000000000000000                                                                                                                                                                                                                                                          000000                                                                                                                                                                                                                                                                                                                                                              000000        
DA000001316800000524370002658026JUSTINA                                           PEÑA                                    DIAZ                                    C00105667083              19570926001FS000000000000000000000000000000                                                  C/ 1ERA. MANZ,T #34                                                                                                                                                                                                 000223N00000000000000000000000000000000000000000000000000                                                                                                                                                           00000000000000000000000000000000000000000                                                                                                                                                                                                                                                          000000                                                                                                                                                                                                                                                                                                                                                              000000        
DA000001190400000634390040753136CARMEN MILAGROS                                   DIAZ                                    CORONADO                                C04700119037              19451110001FC000000000000000000000000000000                                                  C/ PRINCIPAL #2                                                                                                                                                                                                     000047N00000000000000000000000000000000000000000000000000                                                                                                                                                           00000000000000000000000000000000000000000                                                                                                                                                                                                                                                          000000                                                                                                                                                                                                                                                                                                                                                              000000        
DA000001278500000873910039603217RAMON ANDRES                                      RODRIGUEZ                               VILLA                                   C04700905039              19490328001MC000000000000000000000000000000                                                  C/ DUARTE#230                                                                                                                                                                                                       000047N00000000000000000000000000000000000000000000000000                                                                                                                                                           00000000000000000000000000000000000000000                                                                                                                                                                                                                                                          000000                                                                                                                                                                                                                                                                                                                                                              000000        
DA000001315700000632000038883135LILIA MARIA                                       GUERRERO                                DE CRUZ                                 C04500033982              19460111001FS000000000000000000000000000000                                                  SANTA ANA #32                                                                                                                                                                                                       000224N00000000000000000000000000000000000000000000000000                                                                                                                                                           00000000000000000000000000000000000000000                                                                                                                                                                                                                                                          000000                                                                                                                                                                                                                                                                                                                                                              000000        
DA000001270500000655520049384245MARIA MAGDALENA                                   DE JESUS                                                                        C07100076749              19560722001FC000000000000000000000000000000                                                  SANCHEZ #64 ALTOS                                                                                                                                                                                                   000071N00000000000000000000000000000000000000000000000000                                                                                                                                                           00000000000000000000000000000000000000000                                                                                                                                                                                                                                                          000000                                                                                                                                                                                                                                                                                                                                                              000000        
DA000000819600000655080049009665ZOILA BIENVENIDA                                  CAPELLAN                                DE DEL ROSARIO                          C07100030431              19520210001FC000000000000000000000000000000                                                  C/LUPERON #5                                                                                                                                                                                                        000071N00000000000000000000000000000000000000000000000000                                                                                                                                                           00000000000000000000000000000000000000000                                                                                                                                                                                                                                                          000000                                                                                                                                                                                                                                                                                                                                                              000000        
DA000001315900000530290005710236CONFESOR                                          GOMEZ                                   REYES                                   C00106476781              19591105001MS000000000000000000000000000000                                                  C/16 #16                                                                                                                                                                                                            000229N00000000000000000000000000000000000000000000000000                                                                                                                                                           00000000000000000000000000000000000000000                                                                                                                                                                                                                                                          000000                                                                                                                                                                                                                                                                                                                                                              000000        
DA000001344200000650120045568755JUAN ALBERTO                                      PAULINO                                 AZA                                     C06000105533              19510210001MC000000000000000000000000000000                                                  RESPALDO LAS COLINAS DEL NORTE                                                                                                                                                                                      000001N00000000000000000000000000000000000000000000000000                                                                                                                                                           00000000000000000000000000000000000000000                                                                                                                                                                                                                                                          000000                                                                                                                                                                                                                                                                                                                                                              000000        
DA000001270800000888320054428471FRANCISCO                                         GARCIA                                  CAPELLAN                                C13600063179              19441020001MC000000000000000000000000000000                                                  C/LOS LIMONES #1-34                                                                                                                                                                                                 000136N00000000000000000000000000000000000000000000000000                                                                                                                                                           00000000000000000000000000000000000000000                                                                                                                                                                                                                                                          000000                                                                                                                                                                                                                                                                                                                                                              000000        
DA000001271700000655360050166364ANA MARIA                                         CASTILLO                                DE TAVERAS                              C07100051221              19490730001FC000000000000000000000000000000                                                  DUARTE NO. 81                                                                                                                                                                                                       000071N00000000000000000000000000000000000000000000000000                                                                                                                                                           00000000000000000000000000000000000000000                                                                                                                                                                                                                                                          000000                                                                                                                                                                                                                                                                                                                                                              000000        
DA000001316100000040920000097795ARMANDO                                           OGANDO                                  AQUINO                                  C00101154656              19440627001MS000000000000000000000000000000                                                  CORREA Y CIDRON #97                                                                                                                                                                                                 000223N00000000000000000000000000000000000000000000000000                                                                                                                                                           00000000000000000000000000000000000000000                                                                                                                                                                                                                                                          000000                                                                                                                                                                                                                                                                                                                                                              000000        
DA000001316500000056740016099335ROSA ALTAGRACIA                                   SALAZAR                                 PEREZ                                   C00101630150              19490312001FC000000000000000000000000000000                                                  CALLE 1RA. #5                                                                                                                                                                                                       000001N00000000000000000000000000000000000000000000000000                                                                                                                                                           00000000000000000000000000000000000000000                                                                                                                                                                                                                                                          000000                                                                                                                                                                                                                                                                                                                                                              000000        
DA000001278400000321650040472923FAUSTO                                            GIL                                     CRUZ                                    C04700067178              19390726001MC000000000000000000000000000000                                                  C/ 5 EDIF.20  #102                                                                                                                                                                                                  000047N00000000000000000000000000000000000000000000000000                                                                                                                                                           00000000000000000000000000000000000000000                                                                                                                                                                                                                                                          000000                                                                                                                                                                                                                                                                                                                                                              000000        
DA000001278300000328030041380108MARIA CASIMIRA                                    ROSARIO                                 CASTILLO                                C04701088975              19460304001FC000000000000000000000000000000                                                  C/ 5 EDIF. 15 # 201                                                                                                                                                                                                 000047N00000000000000000000000000000000000000000000000000                                                                                                                                                           00000000000000000000000000000000000000000                                                                                                                                                                                                                                                          000000                                                                                                                                                                                                                                                                                                                                                              000000        
DA000001454000000280580036908900FRANCISCO RAMON                                   MARTE                                   PASCAL                                  C03100403918              19310504001MC000000000000000000000000000000                                                  C/ FRANCISCO AUGUSTO GONZALEZ #91                                                                                                                                                                                   000031N00000000000000000000000000000000000000000000000000                                                                                                                                                           00000000000000000000000000000000000000000                                                                                                                                                                                                                                                          000000                                                                                                                                                                                                                                                                                                                                                              000000        
DA000001522000000128030005664981MARIA CONSUELO                                    MONTERO                                 RAMIREZ                                 C00106111230              19391204001FC000000000000000000000000000000                                                  C/ MARIA T. SANCHEZ #41                                                                                                                                                                                             000228N00000000000000000000000000000000000000000000000000                                                                                                                                                           00000000000000000000000000000000000000000                                                                                                                                                                                                                                                          000000                                                                                                                                                                                                                                                                                                                                                              000000        
DA000001310300000013820006409050ROSA LIRDA BEATRIZ                                RUIZ                                    LORA                                    C00100258623              19310508001FC000000000000000000000000000000                                                  PIMENTEL #4, ALTOS                                                                                                                                                                                                  000001N00000000000000000000000000000000000000000000000000                                                                                                                                                           00000000000000000000000000000000000000000                                                                                                                                                                                                                                                          000000                                                                                                                                                                                                                                                                                                                                                              000000        
DA000001306500000165270015259308AMADEO                                            LEBRON                                  JIMENEZ                                 C00108733189              19360331001MC000000000000000000000000000000                                                  C/ LOS EDUCADOR #12                                                                                                                                                                                                 000223N00000000000000000000000000000000000000000000000000                                                                                                                                                           00000000000000000000000000000000000000000                                                                                                                                                                                                                                                          000000                                                                                                                                                                                                                                                                                                                                                              000000        
DA000001310100000092710007018673AIDEE ALTAGRACIA                                  ARIAS                                   CARRASCO DE GANTUZ                      C00103797650              19460406001FC000000000000000000000000000000                                                  C/ 3RA #19                                                                                                                                                                                                          000225N00000000000000000000000000000000000000000000000000                                                                                                                                                           00000000000000000000000000000000000000000                                                                                                                                                                                                                                                          000000                                                                                                                                                                                                                                                                                                                                                              000000        
DA000001315800000051800005381993ANA ANTONIA                                       DE LA OZ                                R DE AYBAR                              C00101488948              19250425001FC000000000000000000000000000000                                                  C/FURCY PICHARDO #01 APTO B-2                                                                                                                                                                                       000001N00000000000000000000000000000000000000000000000000                                                                                                                                                           00000000000000000000000000000000000000000                                                                                                                                                                                                                                                          000000                                                                                                                                                                                                                                                                                                                                                              000000        
DA000001315200000051650013912633ALMA BEATRIZ                                      TRONCOSO                                A DE MARTINEZ                           C00101486447              19281112001FC000000000000000000000000000000                                                  C/. EL ALTO # 13 COLINAS DEL SEMINARIO                                                                                                                                                                              000001N00000000000000000000000000000000000000000000000000                                                                                                                                                           00000000000000000000000000000000000000000                                                                                                                                                                                                                                                          000000                                                                                                                                                                                                                                                                                                                                                              000000        
DA000001315100000205050018580688BENITA                                            ALVAREZ                                 ARAUJO DE DE LOS SANTOS                 C00200054880              19500610001FC000000000000000000000000000000                                                  C/ PROF. JUAN TOMAS DIAZ #68                                                                                                                                                                                        000001N00000000000000000000000000000000000000000000000000                                                                                                                                                           00000000000000000000000000000000000000000                                                                                                                                                                                                                                                          000000                                                                                                                                                                                                                                                                                                                                                              000000        
DA000001320500000540190011101228CLARA MILAGROS                                    SENA                                    CARRASCO                                C00107630667              19570705001FC000000000000000000000000000000                                                  C/3 #24                                                                                                                                                                                                             000001N00000000000000000000000000000000000000000000000000                                                                                                                                                           00000000000000000000000000000000000000000                                                                                                                                                                                                                                                          000000                                                                                                                                                                                                                                                                                                                                                              000000        
DA000001140700000620100037491404MIGUEL BARTOLO                                    SEVERINO                                ROSARIO                                 C03102782921              19571119001MS000000000000000000000000000000                                                  C/6 #29                                                                                                                                                                                                             000031N00000000000000000000000000000000000000000000000000                                                                                                                                                           00000000000000000000000000000000000000000                                                                                                                                                                                                                                                          000000                                                                                                                                                                                                                                                                                                                                                              000000        
DA000001313900000634130038965671ESPERANZA DE JESUS                                GALVEZ                                  HERNANDEZ                               C04700087366              19520314001FC000000000000000000000000000000                                                  C/ CAONABO #15                                                                                                                                                                                                      000047N00000000000000000000000000000000000000000000000000                                                                                                                                                           00000000000000000000000000000000000000000                                                                                                                                                                                                                                                          000000                                                                                                                                                                                                                                                                                                                                                              000000        
DA000001319900000851480025502395MARTINA                                           CAMPECHANO                              NIEVES                                  C02500038845              19440223001FS000000000000000000000000000000                                                  ARZOBISPO NUOEL #43                                                                                                                                                                                                 000025N00000000000000000000000000000000000000000000000000                                                                                                                                                           00000000000000000000000000000000000000000                                                                                                                                                                                                                                                          000000                                                                                                                                                                                                                                                                                                                                                              000000        
DA000001320300000580240025064421ROSA ENEYDA                                       FERRERAS                                HERASME                                 C02200071005              19420830001FS000000000000000000000000000000                                                  2DA # 49                                                                                                                                                                                                            000022N00000000000000000000000000000000000000000000000000                                                                                                                                                           00000000000000000000000000000000000000000                                                                                                                                                                                                                                                          000000                                                                                                                                                                                                                                                                                                                                                              000000        
DA000001359300000565580018615103MARGARITA ESTELA                                  PEREZ                                   FELIZ DE BELTRE                         C01000101004              19470618001FC000000000000000000000000000000                                                  C/DR. ARMANDO AYBAR #120                                                                                                                                                                                            000010N00000000000000000000000000000000000000000000000000                                                                                                                                                           00000000000000000000000000000000000000000                                                                                                                                                                                                                                                          000000                                                                                                                                                                                                                                                                                                                                                              000000        
DA000001319600000510560001237642MARIA ALTAGRACIA                                  MARTINEZ                                CEDEÑO                                  C00103368361              19520512001FU000000000000000000000000000000                                                  C/ LA PERLA #3                                                                                                                                                                                                      000225N00000000000000000000000000000000000000000000000000                                                                                                                                                           00000000000000000000000000000000000000000                                                                                                                                                                                                                                                          000000                                                                                                                                                                                                                                                                                                                                                              000000        
DA000001338200000652590047316761CARMEN ADOLFINA                                   PIMENTEL                                PIMENTEL                                C06700024968              19550921001FC000000000000000000000000000000                                                  MANZ. 5, EDFI. 18, APTO 3B                                                                                                                                                                                          000067N00000000000000000000000000000000000000000000000000                                                                                                                                                           00000000000000000000000000000000000000000                                                                                                                                                                                                                                                          000000                                                                                                                                                                                                                                                                                                                                                              000000        
DA000001308800000522310003491693MERCEDES MARIA                                    FIS                                     M DE RIVERA                             C00105332175              19390810001FC000000000000000000000000000000                                                  C/ JOSE ANT, JIMENEZ #3                                                                                                                                                                                             000224N00000000000000000000000000000000000000000000000000                                                                                                                                                           00000000000000000000000000000000000000000                                                                                                                                                                                                                                                          000000                                                                                                                                                                                                                                                                                                                                                              000000        
DA000001317200000482480016040807MARINA                                            DE LA CRUZ                              SANTANA                                 C00100068311              19460718001FC000000000000000000000000000000                                                  KM,11 1/2 AUT, 30DE MAYO EDIF,6 APTO,102                                                                                                                                                                            000001N00000000000000000000000000000000000000000000000000                                                                                                                                                           00000000000000000000000000000000000000000                                                                                                                                                                                                                                                          000000                                                                                                                                                                                                                                                                                                                                                              000000        
DA000001464000001053040053751138ANA                                               REYES                                   MARTINEZ                                C10100054955              19540106001FC000000000000000000000000000000                                                  LOMA DE CASTAÑUELAS #55                                                                                                                                                                                             000101N00000000000000000000000000000000000000000000000000                                                                                                                                                           00000000000000000000000000000000000000000                                                                                                                                                                                                                                                          000000                                                                                                                                                                                                                                                                                                                                                              000000        
DA000001422000000631380041057782TERESA DE JESUS                                   CRUZ                                    RODRIGUEZ                               C04400060556              19570827001FC000000000000000000000000000000                                                  AV. PENETRACION                                                                                                                                                                                                     000031N00000000000000000000000000000000000000000000000000                                                                                                                                                           00000000000000000000000000000000000000000                                                                                                                                                                                                                                                          000000                                                                                                                                                                                                                                                                                                                                                              000000        
DA000001067400000342040042574311AQUILES ARISMENDY                                 GRULLON                                 TORRES                                  C05400139456              19341107001MS000000000000000000000000000000                                                  PRINCIPAL # S/N                                                                                                                                                                                                     000054N00000000000000000000000000000000000000000000000000                                                                                                                                                           00000000000000000000000000000000000000000                                                                                                                                                                                                                                                          000000                                                                                                                                                                                                                                                                                                                                                              000000        
DA000001510900000645160046612696WILLIAM DARIO                                     GOMEZ                                   FERMIN                                  C05500108138              19430310001MC000000000000000000000000000000                                                  MONTE ADENTRO                                                                                                                                                                                                       000047N00000000000000000000000000000000000000000000000000                                                                                                                                                           00000000000000000000000000000000000000000                                                                                                                                                                                                                                                          000000                                                                                                                                                                                                                                                                                                                                                              000000        
DA000001260200000567610023544645ELSA MARIA                                        ENCARNACION                             BENITEZ                                 C01200029161              19421221001FS000000000000000000000000000000                                                  MANUEL PAULINO #44                                                                                                                                                                                                  000012N00000000000000000000000000000000000000000000000000                                                                                                                                                           00000000000000000000000000000000000000000                                                                                                                                                                                                                                                          000000                                                                                                                                                                                                                                                                                                                                                              000000        
DA000001315500000567890024155800BIENVENIDO                                        PEÑA                                    SANCHEZ                                 C01200055737              19580917001MS000000000000000000000000000000                                                  AV, INDEPENDENCIA #1803 APTO,D-3                                                                                                                                                                                    000001N00000000000000000000000000000000000000000000000000                                                                                                                                                           00000000000000000000000000000000000000000                                                                                                                                                                                                                                                          000000                                                                                                                                                                                                                                                                                                                                                              000000        
DA000001314900000483390016047531ELVIRA ALEJANDRINA                                PEREZ                                                                           C00100131267              19400703001FC000000000000000000000000000000                                                  C/19 DE MARZO #401                                                                                                                                                                                                  000001N00000000000000000000000000000000000000000000000000                                                                                                                                                           00000000000000000000000000000000000000000                                                                                                                                                                                                                                                          000000                                                                                                                                                                                                                                                                                                                                                              000000        
DA000001337100000529600012087048ANTERA                                            SANTOS                                  SARITA                                  C00106364730              19510103001FU000000000000000000000000000000                                                  ALTAGRACIA #5                                                                                                                                                                                                       000001N00000000000000000000000000000000000000000000000000                                                                                                                                                           00000000000000000000000000000000000000000                                                                                                                                                                                                                                                          000000                                                                                                                                                                                                                                                                                                                                                              000000        
DA000001317500000485560005671965FERNANDO ARTURO                                   MINAYA                                  CARO                                    C00100382936              19420909001MS000000000000000000000000000000                                                  DR. BETANCES MANZ. D EDIF. 3                                                                                                                                                                                        000001N00000000000000000000000000000000000000000000000000                                                                                                                                                           00000000000000000000000000000000000000000                                                                                                                                                                                                                                                          000000                                                                                                                                                                                                                                                                                                                                                              000000        
DA000001270300000655980049042817MARTHA MINERVA                                    CARO                                    TAVERAS DE MARTINEZ                     C07100287932              19500609001FC000000000000000000000000000000                                                  KM3 PROYECTO LOS MAESTROS #101                                                                                                                                                                                      000071N00000000000000000000000000000000000000000000000000                                                                                                                                                           00000000000000000000000000000000000000000                                                                                                                                                                                                                                                          000000                                                                                                                                                                                                                                                                                                                                                              000000        
DA000001307400000389810053429504FILOMENA                                          ENCARNACION                             CANELO                                  C10400077185              19390604001FC000000000000000000000000000000                                                  C/ EL SOL # 36                                                                                                                                                                                                      000104N00000000000000000000000000000000000000000000000000                                                                                                                                                           00000000000000000000000000000000000000000                                                                                                                                                                                                                                                          000000                                                                                                                                                                                                                                                                                                                                                              000000        
DA000001402300000634320040164846MARIA DEL C                                       MARCIAL                                 VALDEZ                                  C04700109962              19520615001FU000000000000000000000000000000                                                  C/ 7 #35                                                                                                                                                                                                            000047N00000000000000000000000000000000000000000000000000                                                                                                                                                           00000000000000000000000000000000000000000                                                                                                                                                                                                                                                          000000                                                                                                                                                                                                                                                                                                                                                              000000        
DA000001171600000367440049250888MIREYA  ALTAGRACIA                                BELLO                                   GUZMAN DE MATA                          C07100000376              19371014001FU000000000000000000000000000000                                                  C/ SANCHEZ #113                                                                                                                                                                                                     000071N00000000000000000000000000000000000000000000000000                                                                                                                                                           00000000000000000000000000000000000000000                                                                                                                                                                                                                                                          000000                                                                                                                                                                                                                                                                                                                                                              000000        
