EPN52
DA000002550700000982750014827043MARIA                                             MARTE                                                                           C00101342277              19381008001FS000000000000000000000000000000                                                  LOS TULIPANES                                                                                                                                         6           LAS TERRENAS                                      000001N00000000000000000000000000000000000000000000000000                                                                                                                                                           00000000000000000000000000000000000000000                                                                                                                                                                                                                                                          000000                                                                                                                                                                                                                                                                                                                                                              000000        
DA000002571100000983180003478776DILENIA MERCEDES                                  BEJARAN                                                                         C00101487668              19590401001FS000000000000000000000000000000                                                  N                                                                                                                                                     N           N                                                 000001N00000000000000000000000000000000000000000000000000                                                                                                                                                           00000000000000000000000000000000000000000                                                                                                                                                                                                                                                          000000                                                                                                                                                                                                                                                                                                                                                              000000        
DA000002816800000016340012827454PERSIO ANTONIO                                    POLANCO                                                                         C00100378694              19421126001MS000000000000000000000000000000                                                  PUERTO PLATA                                                                                                                                          60          ENSANCHE CAPOTILLO                                000001N00000000000000000000000000000000000000000000000000                                                                                                                                                           00000000000000000000000000000000000000000                                                                                                                                                                                                                                                          000000                                                                                                                                                                                                                                                                                                                                                              000000        
DA000000049100000125160009438792GREGORIO                                          FIGUEROA                                                                        C00105824213              19330310001MC000000000000000000000000000000                                                  1RA                                                                                                                                                   53          EL PEDREGAL                                       000226N00000000000000000000000000000000000000000000000000                                                                                                                                                           00000000000000000000000000000000000000000                                                                                                                                                                                                                                                          000000                                                                                                                                                                                                                                                                                                                                                              000000        
DA000003658200000722930008431746MARCOS                                            LOPEZ                                                                           C00108443367              19580105001MS000000000000000000000000000000                                                  1RA                                                                                                                                                   13          LOS RIOS                                          000001N00000000000000000000000000000000000000000000000000                                                                                                                                                           00000000000000000000000000000000000000000                                                                                                                                                                                                                                                          000000                                                                                                                                                                                                                                                                                                                                                              000000        
DA000003490300001202530008763183CARMEN MARTA                                      DIAZ                                                                            C00103688230              19470429001FS000000000000000000000000000000                                                  ANDROMEDA                                                                                                                                             7           SOL DE LUZ VILLA MELLLA                           000001N00000000000000000000000000000000000000000000000000                                                                                                                                                           00000000000000000000000000000000000000000                                                                                                                                                                                                                                                          000000                                                                                                                                                                                                                                                                                                                                                              000000        
DA000000294000000280370030485048PRIAMO ANTONIO                                    APONTE                                                                          C03100375538              19260725001MC000000000000000000000000000000                                                  FERNANDO BERMUDEZ                                                                                                                                     2           BELLA VISTA                                       000031N00000000000000000000000000000000000000000000000000                                                                                                                                                           00000000000000000000000000000000000000000                                                                                                                                                                                                                                                          000000                                                                                                                                                                                                                                                                                                                                                              000000        
DA000000374500000296880036670885DEMETRIO ANTONIO                                  GOMEZ                                                                           C03102283029              19470519001MS000000000000000000000000000000                                                  N                                                                                                                                                     15          N                                                 000001N00000000000000000000000000000000000000000000000000                                                                                                                                                           00000000000000000000000000000000000000000                                                                                                                                                                                                                                                          000000                                                                                                                                                                                                                                                                                                                                                              000000        
DA000000712600000668330052553828RAMON                                             GARCIA                                                                          C09300146603              19610419001MC000000000000000000000000000000                                                  N                                                                                                                                                     24A         N                                                 000001N00000000000000000000000000000000000000000000000000                                                                                                                                                           00000000000000000000000000000000000000000                                                                                                                                                                                                                                                          000000                                                                                                                                                                                                                                                                                                                                                              000000        
DA000002045200000157170004723387DIOMIRO                                           CALDERON                                                                        C00108067828              19460729001MS000000000000000000000000000000                                                  N                                                                                                                                                     5           N                                                 000001N00000000000000000000000000000000000000000000000000                                                                                                                                                           00000000000000000000000000000000000000000                                                                                                                                                                                                                                                          000000                                                                                                                                                                                                                                                                                                                                                              000000        
DA000003064500000668390051750078JOSE                                              PAULINO                                                                         C09300148740              19481023001MC000000000000000000000000000000                                                  PAYA                                                                                                                                                  22          PAYA                                              000001N00000000000000000000000000000000000000000000000000                                                                                                                                                           00000000000000000000000000000000000000000                                                                                                                                                                                                                                                          000000                                                                                                                                                                                                                                                                                                                                                              000000        
DA000000382600000618380037439098JOSE RAMON                                        CABRERA                                                                         C03102205097              19370312001MC000000000000000000000000000000                                                  ABUA RODRIGUEZ                                                                                                                                        68          PUEBLO NUEVO                                      000001N00000000000000000000000000000000000000000000000000                                                                                                                                                           00000000000000000000000000000000000000000                                                                                                                                                                                                                                                          000000                                                                                                                                                                                                                                                                                                                                                              000000        
DA000000673800000659220051271242ANDRES ROBERTO                                    DE LEON                                                                         C08200007055              19520509001MS000000000000000000000000000000                                                  N                                                                                                                                                     39          N                                                 000001N00000000000000000000000000000000000000000000000000                                                                                                                                                           00000000000000000000000000000000000000000                                                                                                                                                                                                                                                          000000                                                                                                                                                                                                                                                                                                                                                              000000        
DA000000398200000287840030047601MARCOS ANTONIO                                    RODRIGUEZ                                                                       C03101067761              19461129001MS000000000000000000000000000000                                                  NN                                                                                                                                                    N           N                                                 000001N00000000000000000000000000000000000000000000000000                                                                                                                                                           00000000000000000000000000000000000000000                                                                                                                                                                                                                                                          000000                                                                                                                                                                                                                                                                                                                                                              000000        
DA000002404400000512090016028855JOSE BENERITO                                     HERNANDEZ                                                                       C00103665212              19640618001MS000000000000000000000000000000                                                  N                                                                                                                                                     86          N                                                 000001N00000000000000000000000000000000000000000000000000                                                                                                                                                           00000000000000000000000000000000000000000                                                                                                                                                                                                                                                          000000                                                                                                                                                                                                                                                                                                                                                              000000        
DA000000389700000611900034452081CARMEN ROSA                                       OTTENWALDER                                                                     C03101013526              19500903001FS000000000000000000000000000000                                                  N                                                                                                                                                     13          N                                                 000001N00000000000000000000000000000000000000000000000000                                                                                                                                                           00000000000000000000000000000000000000000                                                                                                                                                                                                                                                          000000                                                                                                                                                                                                                                                                                                                                                              000000        
DA000000762000000558680018116595LUZ VIRGINIA                                      SEPULVEDA                                                                       C00200388403              19570925001FS000000000000000000000000000000                                                  JOSE JAVIER                                                                                                                                           6           SANCRISTOBAL                                      000002N00000000000000000000000000000000000000000000000000                                                                                                                                                           00000000000000000000000000000000000000000                                                                                                                                                                                                                                                          000000                                                                                                                                                                                                                                                                                                                                                              000000        
DA000003220200000206330020722976JUAN                                              ABREU                                                                           C00200103570              19520424001MS000000000000000000000000000000                                                  PRESIDENTE BILLINI 30                                                                                                                                 30          SAN CRISTOBAL                                     000002N00000000000000000000000000000000000000000000000000                                                                                                                                                           00000000000000000000000000000000000000000                                                                                                                                                                                                                                                          000000                                                                                                                                                                                                                                                                                                                                                              000000        
DA000000678900000213960019125238ROQUE                                             LARA                                                                            C00200760726              19620415001MS000000000000000000000000000000                                                  CPRIMERA 72                                                                                                                                           72          CAMBITA GARABITO                                  000104N00000000000000000000000000000000000000000000000000                                                                                                                                                           00000000000000000000000000000000000000000                                                                                                                                                                                                                                                          000000                                                                                                                                                                                                                                                                                                                                                              000000        
DA000000679600000389410053227412ALEJANDRO                                         CRUZ                                                                            C10400009352              19450312001MC000000000000000000000000000000                                                  FRANC ALBERTO CAMOÑO                                                                                                                                  16          CANBITA                                           000104N00000000000000000000000000000000000000000000000000                                                                                                                                                           00000000000000000000000000000000000000000                                                                                                                                                                                                                                                          000000                                                                                                                                                                                                                                                                                                                                                              000000        
DA000000804100000436000020716127DULCIRA                                           ARIAS                                                                           C00200017382              19370704001FS000000000000000000000000000000                                                  PRIMERA 14                                                                                                                                            14          SANCRISTOBAL                                      000002N00000000000000000000000000000000000000000000000000                                                                                                                                                           00000000000000000000000000000000000000000                                                                                                                                                                                                                                                          000000                                                                                                                                                                                                                                                                                                                                                              000000        
DA000000783500000206830020462657LUIS                                              DURAN                                                                           C00200124139              19320426001MC000000000000000000000000000000                                                  RESP. FLORENCIO ARAUJO 7                                                                                                                              7           SANCRISTOBAL                                      000002N00000000000000000000000000000000000000000000000000                                                                                                                                                           00000000000000000000000000000000000000000                                                                                                                                                                                                                                                          000000                                                                                                                                                                                                                                                                                                                                                              000000        
DA000000777300000205730017826485MARIA ALTAGRACIA                                  GUERRERO                                                                        C00200080588              19400219001FC000000000000000000000000000000                                                  SANCHEZ 61                                                                                                                                            61          SANCRISTOBAL                                      000002N00000000000000000000000000000000000000000000000000                                                                                                                                                           00000000000000000000000000000000000000000                                                                                                                                                                                                                                                          000000                                                                                                                                                                                                                                                                                                                                                              000000        
DA000001614000001007380010662642JUAN ANTONIO                                      UPIA                                                                            C00107374274              19560612001MC000000000000000000000000000000                                                  26                                                                                                                                                    13          STO DGO NORTE                                     000225N00000000000000000000000000000000000000000000000000                                                                                                                                                           00000000000000000000000000000000000000000                                                                                                                                                                                                                                                          000000                                                                                                                                                                                                                                                                                                                                                              000000        
DA000003355200000070300000141505LUIS OSVALDO ANTONIO OSMAR                        FELIZ                                                                           C00102301181              19380811001MS000000000000000000000000000000                                                  GNAL. MODESTO DIAZ 88                                                                                                                                 88          STO DGO NORTE                                     000225N00000000000000000000000000000000000000000000000000                                                                                                                                                           00000000000000000000000000000000000000000                                                                                                                                                                                                                                                          000000                                                                                                                                                                                                                                                                                                                                                              000000        
DA000001614300000145800001607902ISIDRO                                            ROJAS                                                                           C00107319584              19370515001MS000000000000000000000000000000                                                  CALLEJON OBREROS 119                                                                                                                                  119         STO DGO NORTE                                     000225N00000000000000000000000000000000000000000000000000                                                                                                                                                           00000000000000000000000000000000000000000                                                                                                                                                                                                                                                          000000                                                                                                                                                                                                                                                                                                                                                              000000        
DA000000063200000235280024581908LUIS MANUEL                                       GERONIMO                                                                        C01300009188              19341205001MC000000000000000000000000000000                                                  PRINCIPAL                                                                                                                                             30          SAN JOSE D OCOA                                   000013N00000000000000000000000000000000000000000000000000                                                                                                                                                           00000000000000000000000000000000000000000                                                                                                                                                                                                                                                          000000                                                                                                                                                                                                                                                                                                                                                              000000        
DA000000062000000235320021827487ANGEL MARIA                                       ARIAS                                                                           C01300012133              19481017001MS000000000000000000000000000000                                                  PRINCIPAL 34                                                                                                                                          34          SAN JOSE D OCOA                                   000013N00000000000000000000000000000000000000000000000000                                                                                                                                                           00000000000000000000000000000000000000000                                                                                                                                                                                                                                                          000000                                                                                                                                                                                                                                                                                                                                                              000000        
DA000001586300000109570007774418RAMON NARCISO                                     PEA                                                                             C00104926134              19560416001MS000000000000000000000000000000                                                  AV. LOS RESTAURADORES 729                                                                                                                             729         STO DGO NORTE                                     000225N00000000000000000000000000000000000000000000000000                                                                                                                                                           00000000000000000000000000000000000000000                                                                                                                                                                                                                                                          000000                                                                                                                                                                                                                                                                                                                                                              000000        
DA000001632900000169480010108648ISIDRO RADHAMES                                   REYES                                                                           C00109128462              19540227001MS000000000000000000000000000000                                                  JACOBO MAGLUTA 69                                                                                                                                     69          STO DGO NORTE                                     000225N00000000000000000000000000000000000000000000000000                                                                                                                                                           00000000000000000000000000000000000000000                                                                                                                                                                                                                                                          000000                                                                                                                                                                                                                                                                                                                                                              000000        
DA000001587700000706580004511432RENE ABERSIO                                      CANDELARIO                                                                      C00104689260              19531022001MC000000000000000000000000000000                                                  HERMANAS MIRABAL 10                                                                                                                                   10          STO DGO NORTE                                     000225N00000000000000000000000000000000000000000000000000                                                                                                                                                           00000000000000000000000000000000000000000                                                                                                                                                                                                                                                          000000                                                                                                                                                                                                                                                                                                                                                              000000        
DA000003372300000148290015444991VICTOR MANUEL                                     ARAUJO                                                                          C00107453300              19660419001MS000000000000000000000000000000                                                  BRISAL DEL RIO                                                                                                                                        32          STO DGO OESTE                                     000224N00000000000000000000000000000000000000000000000000                                                                                                                                                           00000000000000000000000000000000000000000                                                                                                                                                                                                                                                          000000                                                                                                                                                                                                                                                                                                                                                              000000        
DA000001638900000725490014378270FRANCISCO ANTONIO                                 DE LA CRUZ                                                                      C00109256065              19560720001MS000000000000000000000000000000                                                  EL BONITO                                                                                                                                             122         STO DGO NORTE                                     000225N00000000000000000000000000000000000000000000000000                                                                                                                                                           00000000000000000000000000000000000000000                                                                                                                                                                                                                                                          000000                                                                                                                                                                                                                                                                                                                                                              000000        
DA000001634500000166910008483847ISIDRO                                            SORIANO                                                                         C00108885062              19220103001MS000000000000000000000000000000                                                  FAUSTO SEJA RODRIGUEZ 9                                                                                                                               9           STO DGO NORTE                                     000225N00000000000000000000000000000000000000000000000000                                                                                                                                                           00000000000000000000000000000000000000000                                                                                                                                                                                                                                                          000000                                                                                                                                                                                                                                                                                                                                                              000000        
DA000003141900000463050036363108LIGIA                                             MACHADO                                                                         C03100690704              19540113001FS000000000000000000000000000000                                                  LA CASSIAS                                                                                                                                            N           SANTIAGO DE LOS CABALLERO                         000031N00000000000000000000000000000000000000000000000000                                                                                                                                                           00000000000000000000000000000000000000000                                                                                                                                                                                                                                                          000000                                                                                                                                                                                                                                                                                                                                                              000000        
DA000001620600000163170002820472MANUEL ANTONIO                                    ROMERO                                                                          C00108572942              19400818001MS000000000000000000000000000000                                                  DUARTE                                                                                                                                                61          STO DGO NORTE                                     000225N00000000000000000000000000000000000000000000000000                                                                                                                                                           00000000000000000000000000000000000000000                                                                                                                                                                                                                                                          000000                                                                                                                                                                                                                                                                                                                                                              000000        
DA000001620000000163110000527273PASCUALA                                          DE LOS SANTOS                                                                   C00108568551              19260515001FC000000000000000000000000000000                                                  MANZANA 36                                                                                                                                            5           STO DGO NORTE                                     000225N00000000000000000000000000000000000000000000000000                                                                                                                                                           00000000000000000000000000000000000000000                                                                                                                                                                                                                                                          000000                                                                                                                                                                                                                                                                                                                                                              000000        
DA000001605700000128290001390883BARTOLO                                           MARTINEZ                                                                        C00106134745              19300412001MC000000000000000000000000000000                                                  2, EL PROGRESO                                                                                                                                        7           STO DGO NORTE                                     000225N00000000000000000000000000000000000000000000000000                                                                                                                                                           00000000000000000000000000000000000000000                                                                                                                                                                                                                                                          000000                                                                                                                                                                                                                                                                                                                                                              000000        
DA000002362100000081740006537105ELIDA                                             DIAZ                                                                            C00103038543              19340303001FC000000000000000000000000000000                                                  AV. LOS MARTIRES                                                                                                                                      103         DISTRITO NACIONAL                                 000001N00000000000000000000000000000000000000000000000000                                                                                                                                                           00000000000000000000000000000000000000000                                                                                                                                                                                                                                                          000000                                                                                                                                                                                                                                                                                                                                                              000000        
DA000001642900000176720005214573RAMON EMILIO                                      LA OZ                                                                           C00110437241              19410417001MC000000000000000000000000000000                                                  9                                                                                                                                                     13          STO DGO NORTE                                     000225N00000000000000000000000000000000000000000000000000                                                                                                                                                           00000000000000000000000000000000000000000                                                                                                                                                                                                                                                          000000                                                                                                                                                                                                                                                                                                                                                              000000        
DA000002490200000808000015233043MILAGRO                                           GARCIA                                                                          C00104191499              19411216001FS000000000000000000000000000000                                                  GUAROCUYA ESQ.37 ESTE                                                                                                                                 10          DISTRITO NACIONAL                                 000001N00000000000000000000000000000000000000000000000000                                                                                                                                                           00000000000000000000000000000000000000000                                                                                                                                                                                                                                                          000000                                                                                                                                                                                                                                                                                                                                                              000000        
DA000001280600000265100027284246DOMINGA                                           FEBLES                                                                          C02500032624              19230823001FC000000000000000000000000000000                                                  CARRETERA ENGOMBRE                                                                                                                                    62          STO DGO OESTE                                     000224N00000000000000000000000000000000000000000000000000                                                                                                                                                           00000000000000000000000000000000000000000                                                                                                                                                                                                                                                          000000                                                                                                                                                                                                                                                                                                                                                              000000        
DA000001377900000351160043887450LUIS POMPEYO                                      GOMEZ                                                                           C05600251705              19360717001MS000000000000000000000000000000                                                  LUPERON                                                                                                                                               22          SANCHEZ                                           000066N00000000000000000000000000000000000000000000000000                                                                                                                                                           00000000000000000000000000000000000000000                                                                                                                                                                                                                                                          000000                                                                                                                                                                                                                                                                                                                                                              000000        
DA000002290100000691200011442127CARMEN JOSEFINA                                   FABIAN                                                                          C00102218336              19720707001FS000000000000000000000000000000                                                  MANZ A                                                                                                                                                17          DORADO II                                         000225N00000000000000000000000000000000000000000000000000                                                                                                                                                           00000000000000000000000000000000000000000                                                                                                                                                                                                                                                          000000                                                                                                                                                                                                                                                                                                                                                              000000        
DA000002547900000046610013706181JOSE JOAQUIN                                      TAVAREZ                                                                         C00101346765              19280319001MC000000000000000000000000000000                                                  1ERA                                                                                                                                                  N           DISTRITO NACIONAL                                 000001N00000000000000000000000000000000000000000000000000                                                                                                                                                           00000000000000000000000000000000000000000                                                                                                                                                                                                                                                          000000                                                                                                                                                                                                                                                                                                                                                              000000        
DA000003567200000050160000132254ANA MARINA                                        RAMOS                                                                           C00101454544              19411226001FC000000000000000000000000000000                                                  FRANCISCO PROS R                                                                                                                                      315         TORRE CHADAI                                      000001N00000000000000000000000000000000000000000000000000                                                                                                                                                           00000000000000000000000000000000000000000                                                                                                                                                                                                                                                          000000                                                                                                                                                                                                                                                                                                                                                              000000        
DA000003545100000500050008645764JULIO BERNARDO                                    VALENZUELA                                                                      C00101892776              19490415001MS000000000000000000000000000000                                                  MANZ 6                                                                                                                                                N           D.N                                               000001N00000000000000000000000000000000000000000000000000                                                                                                                                                           00000000000000000000000000000000000000000                                                                                                                                                                                                                                                          000000                                                                                                                                                                                                                                                                                                                                                              000000        
DA000002720100000488460002145711BIENVENIDA ANTONIA                                PEA                                                                             C00100722024              19520802001FS000000000000000000000000000000                                                  EL SOL                                                                                                                                                16          STO DGO ESTE                                      000001N00000000000000000000000000000000000000000000000000                                                                                                                                                           00000000000000000000000000000000000000000                                                                                                                                                                                                                                                          000000                                                                                                                                                                                                                                                                                                                                                              000000        
DA000003595400000034230015039287ROSARIO ELIZABETH DEL J                           PELLETIER                                                                       C00101018703              19440517001FS000000000000000000000000000000                                                  PORFIRIO HERRERA                                                                                                                                      11          D.N                                               000001N00000000000000000000000000000000000000000000000000                                                                                                                                                           00000000000000000000000000000000000000000                                                                                                                                                                                                                                                          000000                                                                                                                                                                                                                                                                                                                                                              000000        
DA000002489600000414390014986291HECTOR                                            ARIAS                                                                           C00104182415              19530215001MS000000000000000000000000000000                                                  MANZ 4                                                                                                                                                N           STO DGO ESTE                                      000001N00000000000000000000000000000000000000000000000000                                                                                                                                                           00000000000000000000000000000000000000000                                                                                                                                                                                                                                                          000000                                                                                                                                                                                                                                                                                                                                                              000000        
DA000002023800000151740002538301JOSE LUCIANO                                      VALERIO                                                                         C00107708257              19510107001MC000000000000000000000000000000                                                  23 DE DICIEMBRE                                                                                                                                       5           STO DGO ESTE                                      000223N00000000000000000000000000000000000000000000000000                                                                                                                                                           00000000000000000000000000000000000000000                                                                                                                                                                                                                                                          000000                                                                                                                                                                                                                                                                                                                                                              000000        
DA000003350600000162280014129346RUFFY ANDRES                                      MENDEZ                                                                          C00108509043              19500407001MS000000000000000000000000000000                                                  1ERA                                                                                                                                                  25          VILLA MELLA STO DGO NORTE                         000225N00000000000000000000000000000000000000000000000000                                                                                                                                                           00000000000000000000000000000000000000000                                                                                                                                                                                                                                                          000000                                                                                                                                                                                                                                                                                                                                                              000000        
DA000003658000000545280014120511SUPER                                             CASTRO                                                                          C00108439605              19580805001MS000000000000000000000000000000                                                  CALLE "A                                                                                                                                              301         D.N                                               000001N00000000000000000000000000000000000000000000000000                                                                                                                                                           00000000000000000000000000000000000000000                                                                                                                                                                                                                                                          000000                                                                                                                                                                                                                                                                                                                                                              000000        
DA000002049100000157360013280446FRANCISCO                                         SOTO                                                                            C00108086794              19531116001MS000000000000000000000000000000                                                  1ERA                                                                                                                                                  01          BOCA CHICA                                        000223N00000000000000000000000000000000000000000000000000                                                                                                                                                           00000000000000000000000000000000000000000                                                                                                                                                                                                                                                          000000                                                                                                                                                                                                                                                                                                                                                              000000        
DA000001575900000422400001446458ISIDRO                                            BATISTA                                                                         C00106589872              19510310001MS000000000000000000000000000000                                                  EL BRISAL                                                                                                                                             25          STO DGO ESTE                                      000226N00000000000000000000000000000000000000000000000000                                                                                                                                                           00000000000000000000000000000000000000000                                                                                                                                                                                                                                                          000000                                                                                                                                                                                                                                                                                                                                                              000000        
DA000002207200000055840005394713VIVIAN DOMINICA                                   ESTRELLA                                                                        C00101597995              19460804001FS000000000000000000000000000000                                                  ARISTIDES GARCIA MELLA                                                                                                                                23          DISTRITO NACIONAL                                 000001N00000000000000000000000000000000000000000000000000                                                                                                                                                           00000000000000000000000000000000000000000                                                                                                                                                                                                                                                          000000                                                                                                                                                                                                                                                                                                                                                              000000        
DA000000244000000466880032652192FELIX ANTONIO                                     RODRIGUEZ                                                                       C03600095602              19720724001MS000000000000000000000000000000                                                  LAS MANACLAS                                                                                                                                          11          SAN JOSE DE LAS MATAS                             000036N00000000000000000000000000000000000000000000000000                                                                                                                                                           00000000000000000000000000000000000000000                                                                                                                                                                                                                                                          000000                                                                                                                                                                                                                                                                                                                                                              000000        
DA000000262400000369700050077032CRISTINA                                          GOMEZ                                                                           C07100288716              19440206001FS000000000000000000000000000000                                                  PRIMERA                                                                                                                                               N           ANTIAGO DE LOS CABALLEROS                         000031N00000000000000000000000000000000000000000000000000                                                                                                                                                           00000000000000000000000000000000000000000                                                                                                                                                                                                                                                          000000                                                                                                                                                                                                                                                                                                                                                              000000        
DA000000275500000283050036360326FLORENTINA VIRGINIA                               CRUZ                                                                            C03100669187              19390620001FS000000000000000000000000000000                                                  LOLO PICHARDO                                                                                                                                         N           SANTIAGO DE LOS CABALLEROS                        000031N00000000000000000000000000000000000000000000000000                                                                                                                                                           00000000000000000000000000000000000000000                                                                                                                                                                                                                                                          000000                                                                                                                                                                                                                                                                                                                                                              000000        
DA000000381900000296500034002348BRIGIDA                                           ABREU                                                                           C03102210295              19351028001FS000000000000000000000000000000                                                  3                                                                                                                                                     53          SANTIAGO DE LOS CABALLEROS                        000031N00000000000000000000000000000000000000000000000000                                                                                                                                                           00000000000000000000000000000000000000000                                                                                                                                                                                                                                                          000000                                                                                                                                                                                                                                                                                                                                                              000000        
DA000001230300000340720044986040PEDRO                                             BRITO                                                                           C05400068689              19290719001MC000000000000000000000000000000                                                  2DA NUEVA ZUIZA                                                                                                                                       18          MERCADO NUEVO                                     000054N00000000000000000000000000000000000000000000000000                                                                                                                                                           00000000000000000000000000000000000000000                                                                                                                                                                                                                                                          000000                                                                                                                                                                                                                                                                                                                                                              000000        
DA000001238200000344930046002107FRANCISCO                                         HERNANDEZ                                                                       C05400757000              19301104001MS000000000000000000000000000000                                                  EL CAIMITO, PROL ROSARIO 23                                                                                                                           23          SAN LUIS                                          000054N00000000000000000000000000000000000000000000000000                                                                                                                                                           00000000000000000000000000000000000000000                                                                                                                                                                                                                                                          000000                                                                                                                                                                                                                                                                                                                                                              000000        
DA000003372400000148380012427451MANUEL JOAQUIN                                    ESPINAL                                                                         C00107456063              19370403001MS000000000000000000000000000000                                                  MANZANA46                                                                                                                                             4A          STO DGO OESTE                                     000224N00000000000000000000000000000000000000000000000000                                                                                                                                                           00000000000000000000000000000000000000000                                                                                                                                                                                                                                                          000000                                                                                                                                                                                                                                                                                                                                                              000000        
DA000000490000000209520018054194DIONICIO                                          LIRIANO                                                                         C00200229151              19361008001MS000000000000000000000000000000                                                  COMEDERO FANTINO 18                                                                                                                                   18          N                                                 000049N00000000000000000000000000000000000000000000000000                                                                                                                                                           00000000000000000000000000000000000000000                                                                                                                                                                                                                                                          000000                                                                                                                                                                                                                                                                                                                                                              000000        
DA000000696600000383340052560870ESTANISLA                                         CUEVAS                                                                          C09300210839              19481113001FS000000000000000000000000000000                                                  CENTRAL                                                                                                                                               23          N                                                 000093N00000000000000000000000000000000000000000000000000                                                                                                                                                           00000000000000000000000000000000000000000                                                                                                                                                                                                                                                          000000                                                                                                                                                                                                                                                                                                                                                              000000        
DA000003065900000000080014943487CESAR LEON                                        FLAVIA                                                                          C00100001676              19320622001MC000000000000000000000000000000                                                  CESAR AUGUSTO                                                                                                                                         10          BELLA VISTA                                       000001N00000000000000000000000000000000000000000000000000                                                                                                                                                           00000000000000000000000000000000000000000                                                                                                                                                                                                                                                          000000                                                                                                                                                                                                                                                                                                                                                              000000        
S000068
