EPN42
DA000001311400000323440000000000ANA VICTORIA                                      GOMEZ                                   MARCIAL                                 C04700165782              19590520001FC000000000000000000000000000000                                                  C/ PRINCIPAL #16                                                                                                                                                                                                    000047N00000000000000000000000000000000000000000000000000                                                                                                                                                           00000000000000000000000000000000000000000                                                                                                                                                                                                                                                          000000                                                                                                                                                                                                                                                                                                                                                              000000        
DA000001471500000000560023361700VICENTE                                           ESCALANTE                                                                       C01200033759              19470405001MC000000000000000000000000000000                                                  C/M.P. #16                                                                                                                                                                                                          000012N00000000000000000000000000000000000000000000000000                                                                                                                                                           00000000000000000000000000000000000000000                                                                                                                                                                                                                                                          000000                                                                                                                                                                                                                                                                                                                                                              000000        
DA000001471900000832120019153895ARGELIA                                           VENTURA                                 JIMENEZ DE DE LEON                      C00200619062              19500823001FC000000000000000000000000000000                                                  PROLONGACION GENERAL CABRAL #4                                                                                                                                                                                      000002N00000000000000000000000000000000000000000000000000                                                                                                                                                           00000000000000000000000000000000000000000                                                                                                                                                                                                                                                          000000                                                                                                                                                                                                                                                                                                                                                              000000        
DA000001433700000347850000000000DOMINGA                                           MERCEDES                                DIAZ DE GOMEZ                           C05600002140              19491020001FC000000000000000000000000000000                                                  AV. LIBERTAD # 276                                                                                                                                                                                                  000056N00000000000000000000000000000000000000000000000000                                                                                                                                                           00000000000000000000000000000000000000000                                                                                                                                                                                                                                                          000000                                                                                                                                                                                                                                                                                                                                                              000000        
DA000001470900000658350048968488LUIS ANTONIO                                      CUEVAS                                  SEGURA                                  C07800027232              19460316001MC000000000000000000000000000000                                                  CALLE G EDIF.69 APTO.302                                                                                                                                                                                            000001N00000000000000000000000000000000000000000000000000                                                                                                                                                           00000000000000000000000000000000000000000                                                                                                                                                                                                                                                          000000                                                                                                                                                                                                                                                                                                                                                              000000        
DA000001311800000324540000000000MARIA SILVERIA                                    RAMIREZ                                 ABREU                                   C04700258405              19341124001FS000000000000000000000000000000                                                  MONSEÑOR PANAL #65                                                                                                                                                                                                  000047N00000000000000000000000000000000000000000000000000                                                                                                                                                           00000000000000000000000000000000000000000                                                                                                                                                                                                                                                          000000                                                                                                                                                                                                                                                                                                                                                              000000        
DA000001311600000324790000000000BENJAMIN FELIX                                    CASTILLO                                ROSARIO                                 C04700326681              19400410001MC000000000000000000000000000000                                                  C/ PRINCIPAL #38                                                                                                                                                                                                    000047N00000000000000000000000000000000000000000000000000                                                                                                                                                           00000000000000000000000000000000000000000                                                                                                                                                                                                                                                          000000                                                                                                                                                                                                                                                                                                                                                              000000        
DA000001311500000324510000000000MARIA ALTAGRACIA                                  GIL                                     MARTINEZ                                C04700257316              19421207001FC000000000000000000000000000000                                                  MANUEL MEJIA #69                                                                                                                                                                                                    000047N00000000000000000000000000000000000000000000000000                                                                                                                                                           00000000000000000000000000000000000000000                                                                                                                                                                                                                                                          000000                                                                                                                                                                                                                                                                                                                                                              000000        
DA000001311700000323220039574617MARIA DOLORES                                     GIL                                     MARTINEZ                                C04700159579              19421207001FC000000000000000000000000000000                                                  C/2DA #26                                                                                                                                                                                                           000047N00000000000000000000000000000000000000000000000000                                                                                                                                                           00000000000000000000000000000000000000000                                                                                                                                                                                                                                                          000000                                                                                                                                                                                                                                                                                                                                                              000000        
DA000001449000000522640000320777ASIA EUDALINA                                     MOQUETE                                 MOQUETE                                 C00105369995              19430117001FC000000000000000000000000000000                                                  COLON NO. 29                                                                                                                                                                                                        000223N00000000000000000000000000000000000000000000000000                                                                                                                                                           00000000000000000000000000000000000000000                                                                                                                                                                                                                                                          000000                                                                                                                                                                                                                                                                                                                                                              000000        
DA000001471800000659340050640497EFRAIN                                            VILLAR                                  HERNANDEZ                               C08200011230              19511009001MC000000000000000000000000000000                                                  C/SALOME UREÑA #7                                                                                                                                                                                                   000082N00000000000000000000000000000000000000000000000000                                                                                                                                                           00000000000000000000000000000000000000000                                                                                                                                                                                                                                                          000000                                                                                                                                                                                                                                                                                                                                                              000000        
DA000001472300000002340006789210JULIA                                             ACEVEDO                                 ROJAS DE RAMIREZ                        C00100039924              19450902001FU000000000000000000000000000000                                                  RES, APOLO 1 #3                                                                                                                                                                                                     000001N00000000000000000000000000000000000000000000000000                                                                                                                                                           00000000000000000000000000000000000000000                                                                                                                                                                                                                                                          000000                                                                                                                                                                                                                                                                                                                                                              000000        
DA000001472400000021830004575306CESAR                                             REYES                                   SANCHEZ                                 C00100606532              19470704001MC000000000000000000000000000000                                                  C/ 15 #11                                                                                                                                                                                                           000224N00000000000000000000000000000000000000000000000000                                                                                                                                                           00000000000000000000000000000000000000000                                                                                                                                                                                                                                                          000000                                                                                                                                                                                                                                                                                                                                                              000000        
DA000001470100000090940008141570ANTONIA MILEDYS                                   CABRERA                                 REYNOSO                                 C00103697769              19521119001FC000000000000000000000000000000                                                  C/MANZ.12 #14                                                                                                                                                                                                       000223N00000000000000000000000000000000000000000000000000                                                                                                                                                           00000000000000000000000000000000000000000                                                                                                                                                                                                                                                          000000                                                                                                                                                                                                                                                                                                                                                              000000        
DA000001472700000372640049485406MARYS                                             PINEDA                                  GONZALEZ                                C07600013853              19471012001FC000000000000000000000000000000                                                  C/RAFAEL REYES #13                                                                                                                                                                                                  000076N00000000000000000000000000000000000000000000000000                                                                                                                                                           00000000000000000000000000000000000000000                                                                                                                                                                                                                                                          000000                                                                                                                                                                                                                                                                                                                                                              000000        
DA000001460600000144030000000000MERCEDES                                          RAMON                                   VICIOSO                                 C00107227985              19441107001FC000000000000000000000000000000                                                  C/ 1RA. # 63                                                                                                                                                                                                        000001N00000000000000000000000000000000000000000000000000                                                                                                                                                           00000000000000000000000000000000000000000                                                                                                                                                                                                                                                          000000                                                                                                                                                                                                                                                                                                                                                              000000        
DA000001461500000048140000000000TEOJINIS OCEANIA                                  SANTOS                                  JORGE                                   C00101393247              19350608001FC000000000000000000000000000000                                                  AV. ROMULO BETANCURT #255                                                                                                                                                                                           000001N00000000000000000000000000000000000000000000000000                                                                                                                                                           00000000000000000000000000000000000000000                                                                                                                                                                                                                                                          000000                                                                                                                                                                                                                                                                                                                                                              000000        
DA000001461700000171380000000000ESTELVIDA MERCEDES                                MARTINEZ                                                                        C00109393199              19310513001FU000000000000000000000000000000                                                  C/LEA DE CASTRO#2                                                                                                                                                                                                   000001N00000000000000000000000000000000000000000000000000                                                                                                                                                           00000000000000000000000000000000000000000                                                                                                                                                                                                                                                          000000                                                                                                                                                                                                                                                                                                                                                              000000        
DA000001468800000506910011523313CARMEN GUILLERMINA                                CASTILLO                                C DE PEREZ                              C00102797057              19450224001FC000000000000000000000000000000                                                  PASEO DE LOS LOCUTORES #50                                                                                                                                                                                          000001N00000000000000000000000000000000000000000000000000                                                                                                                                                           00000000000000000000000000000000000000000                                                                                                                                                                                                                                                          000000                                                                                                                                                                                                                                                                                                                                                              000000        
DA000001444100000544710009023362MERGENCIA                                         SUAREZ                                  PAULINO                                 C00108340365              19501203001FS000000000000000000000000000000                                                  C/ 20 # 5                                                                                                                                                                                                           000224N00000000000000000000000000000000000000000000000000                                                                                                                                                           00000000000000000000000000000000000000000                                                                                                                                                                                                                                                          000000                                                                                                                                                                                                                                                                                                                                                              000000        
DA000000096300000629630036039221MARIA CONCEPCION                                  ALMONTE                                 CABRERA                                 C03900141197              19540105001FC000000000000000000000000000000                                                  DUARTE #55                                                                                                                                                                                                          000039N00000000000000000000000000000000000000000000000000                                                                                                                                                           00000000000000000000000000000000000000000                                                                                                                                                                                                                                                          000000                                                                                                                                                                                                                                                                                                                                                              000000        
DA000000290600000876310040592444RAMON ANTONIO                                     OTAÑEZ                                  MORALES                                 C04900007651              19370109001MC000000000000000000000000000000                                                  C/ JUAN SANCHEZ RAMIREZ # 17                                                                                                                                                                                        000049N00000000000000000000000000000000000000000000000000                                                                                                                                                           00000000000000000000000000000000000000000                                                                                                                                                                                                                                                          000000                                                                                                                                                                                                                                                                                                                                                              000000        
DA000001283200000516140015004887ANA MERCEDES                                      VALOY                                   GONZALEZ                                C00104338629              19480307001FS000000000000000000000000000000                                                  BARTOLOME COLOM #70                                                                                                                                                                                                 000001N00000000000000000000000000000000000000000000000000                                                                                                                                                           00000000000000000000000000000000000000000                                                                                                                                                                                                                                                          000000                                                                                                                                                                                                                                                                                                                                                              000000        
DA000001306400000543360007952041FREDDY                                            MARMOLEJOS                              MEDINA                                  C00108071333              19480430001MC000000000000000000000000000000                                                  C/PRESIDENTE VASQUEZ #20                                                                                                                                                                                            000001N00000000000000000000000000000000000000000000000000                                                                                                                                                           00000000000000000000000000000000000000000                                                                                                                                                                                                                                                          000000                                                                                                                                                                                                                                                                                                                                                              000000        
DA000001308500000203710017817698ESPERANZA                                         BENITEZ                                 DE RODRIGUEZ                            C00200011484              19421218001FC000000000000000000000000000000                                                  AV. CIRCUNVALACION #135                                                                                                                                                                                             000002N00000000000000000000000000000000000000000000000000                                                                                                                                                           00000000000000000000000000000000000000000                                                                                                                                                                                                                                                          000000                                                                                                                                                                                                                                                                                                                                                              000000        
DA000001344400000092640004773066GLORIA                                            GOMEZ                                   M DE HENRIQUEZ                          C00103794582              19451228001FC000000000000000000000000000000                                                  C/ LOS ROMEROS #28                                                                                                                                                                                                  000001N00000000000000000000000000000000000000000000000000                                                                                                                                                           00000000000000000000000000000000000000000                                                                                                                                                                                                                                                          000000                                                                                                                                                                                                                                                                                                                                                              000000        
DA000000246000000623490032797723ROSA MARIA                                        FERREIRA                                YNOA                                    C03500074525              19460921001FC000000000000000000000000000000                                                  C/ LOS PLATANOS # 22                                                                                                                                                                                                000035N00000000000000000000000000000000000000000000000000                                                                                                                                                           00000000000000000000000000000000000000000                                                                                                                                                                                                                                                          000000                                                                                                                                                                                                                                                                                                                                                              000000        
DA000001278800000228790021976190ALTAGRACIA NIDIA                                  BAUTISTA                                VERIHUETE DE FAMILIA                    C01100019304              19410301001FC000000000000000000000000000000                                                  RAFAEL  GAUTEAUX #9                                                                                                                                                                                                 000223N00000000000000000000000000000000000000000000000000                                                                                                                                                           00000000000000000000000000000000000000000                                                                                                                                                                                                                                                          000000                                                                                                                                                                                                                                                                                                                                                              000000        
DA000001242300000677320053336160RAMONA DEL CARMEN                                 CHALAS                                  DIAZ DE PEÑA                            C10400105549              19580831001FC000000000000000000000000000000                                                  C/ PRINCIPAL # 12                                                                                                                                                                                                   000104N00000000000000000000000000000000000000000000000000                                                                                                                                                           00000000000000000000000000000000000000000                                                                                                                                                                                                                                                          000000                                                                                                                                                                                                                                                                                                                                                              000000        
DA000001250700000568740023374375EUSEBIA                                           ZARZUELA                                BIDO                                    C01200165999              19530322001FS000000000000000000000000000000                                                  C/10 # 106                                                                                                                                                                                                          000001N00000000000000000000000000000000000000000000000000                                                                                                                                                           00000000000000000000000000000000000000000                                                                                                                                                                                                                                                          000000                                                                                                                                                                                                                                                                                                                                                              000000        
DA000000221400000630420041024287SILVIA ALTAGRACIA                                 CELESTINO                               CASTILLO                                C04100036831              19390508001FS000000000000000000000000000000                                                  C/ 27 DE FEBRERO # 23                                                                                                                                                                                               000041N00000000000000000000000000000000000000000000000000                                                                                                                                                           00000000000000000000000000000000000000000                                                                                                                                                                                                                                                          000000                                                                                                                                                                                                                                                                                                                                                              000000        
DA000001019900000364990047404604ANTONIA MARGARITA                                 RODRIGUEZ                               RODRIGUEZ                               C06800040005              19460610001FC000000000000000000000000000000                                                  C/ISABEL LA CATOLICA #31                                                                                                                                                                                            000068N00000000000000000000000000000000000000000000000000                                                                                                                                                           00000000000000000000000000000000000000000                                                                                                                                                                                                                                                          000000                                                                                                                                                                                                                                                                                                                                                              000000        
DA000000521000000628400031813135FRANCISCA                                         DIAZ                                    SENCION                                 C03800010112              19600309001FU000000000000000000000000000000                                                  C/ PRESIDENTE ULISES HEUREAUX  # 35                                                                                                                                                                                 000038N00000000000000000000000000000000000000000000000000                                                                                                                                                           00000000000000000000000000000000000000000                                                                                                                                                                                                                                                          000000                                                                                                                                                                                                                                                                                                                                                              000000        
DA000001260000000233790022604200VICTOR MANUEL                                     PEREZ                                   PAYANO                                  C01200296539              19550810001MC000000000000000000000000000000                                                  C/ ANACAONA # 16-A                                                                                                                                                                                                  000129N00000000000000000000000000000000000000000000000000                                                                                                                                                           00000000000000000000000000000000000000000                                                                                                                                                                                                                                                          000000                                                                                                                                                                                                                                                                                                                                                              000000        
DA000001327300000318440037656838JUANA                                             TORRES                                  HERNANDEZ                               C04500118205              19570516001FC000000000000000000000000000000                                                  CARRE. DUARTE #10                                                                                                                                                                                                   000045N00000000000000000000000000000000000000000000000000                                                                                                                                                           00000000000000000000000000000000000000000                                                                                                                                                                                                                                                          000000                                                                                                                                                                                                                                                                                                                                                              000000        
DA000001338800000344710044972833JUANA ESTELA                                      SANTIAGO                                GRULLON DE HERNANDEZ                    C05400693858              19500626001FC000000000000000000000000000000                                                  C/DUARTE , KM. 2 1/2 #34                                                                                                                                                                                            000054N00000000000000000000000000000000000000000000000000                                                                                                                                                           00000000000000000000000000000000000000000                                                                                                                                                                                                                                                          000000                                                                                                                                                                                                                                                                                                                                                              000000        
DA000001356700000152950010040043ROSA JULIA                                        MENDEZ                                  DE PEREZ                                C00107784472              19341209001FC000000000000000000000000000000                                                  GUARIONEX #15  ATRAS,  KM. 10 1/2                                                                                                                                                                                   000001N00000000000000000000000000000000000000000000000000                                                                                                                                                           00000000000000000000000000000000000000000                                                                                                                                                                                                                                                          000000                                                                                                                                                                                                                                                                                                                                                              000000        
DA000001385000000078110012655358ESPERANZA DE JESUS                                BELTRE                                  MELO                                    C00102754926              19491210001FC000000000000000000000000000000                                                  AV. V CENT, EDFI. 8, APTO. 1C                                                                                                                                                                                       000001N00000000000000000000000000000000000000000000000000                                                                                                                                                           00000000000000000000000000000000000000000                                                                                                                                                                                                                                                          000000                                                                                                                                                                                                                                                                                                                                                              000000        
DA000001384500000220340019529793EDILIA                                            GUZMAN                                  AQUINO DE RAMIREZ                       C00400066734              19331022001FS000000000000000000000000000000                                                  EL COPEY # 1313                                                                                                                                                                                                     000004N00000000000000000000000000000000000000000000000000                                                                                                                                                           00000000000000000000000000000000000000000                                                                                                                                                                                                                                                          000000                                                                                                                                                                                                                                                                                                                                                              000000        
DA000001327100000284810032481291TEOLINDA                                          PAEZ                                    TINEO                                   C03100808132              19061101001FS000000000000000000000000000000                                                  C/ 3ERA #03                                                                                                                                                                                                         000031N00000000000000000000000000000000000000000000000000                                                                                                                                                           00000000000000000000000000000000000000000                                                                                                                                                                                                                                                          000000                                                                                                                                                                                                                                                                                                                                                              000000        
DA000001339200000297170033050025ROSA                                              PEREZ                                   JORGE                                   C03102366311              19490830001FC000000000000000000000000000000                                                  C/ 3 EDF. 25 APTO. 1A                                                                                                                                                                                               000031N00000000000000000000000000000000000000000000000000                                                                                                                                                           00000000000000000000000000000000000000000                                                                                                                                                                                                                                                          000000                                                                                                                                                                                                                                                                                                                                                              000000        
DA000001312400000473260044909228ADELAIDA                                          EUSEBIO                                 LOPEZ                                   C06000197670              19391211001FC000000000000000000000000000000                                                  C/ PADRE MARIN #1                                                                                                                                                                                                   000047N00000000000000000000000000000000000000000000000000                                                                                                                                                           00000000000000000000000000000000000000000                                                                                                                                                                                                                                                          000000                                                                                                                                                                                                                                                                                                                                                              000000        
DA000001312500000324100037713884MARCIA GENOVEVA                                   ALBA                                    REYES DE ESPINAL                        C04700227962              19350327001FC000000000000000000000000000000                                                  CALLEJON DE LAS MOTA #11                                                                                                                                                                                            000047N00000000000000000000000000000000000000000000000000                                                                                                                                                           00000000000000000000000000000000000000000                                                                                                                                                                                                                                                          000000                                                                                                                                                                                                                                                                                                                                                              000000        
DA000001262200000656960049289743MAXIMA MERCEDES                                   PERALTA                                 ALMONTE                                 C07300072605              19520109001FC000000000000000000000000000000                                                  27 DE FEBRERO #42                                                                                                                                                                                                   000151N00000000000000000000000000000000000000000000000000                                                                                                                                                           00000000000000000000000000000000000000000                                                                                                                                                                                                                                                          000000                                                                                                                                                                                                                                                                                                                                                              000000        
DA000001288800000345450046576574CARMEN GISELA                                     PEÑA                                    CAMILO                                  C05500003339              19530502001FS000000000000000000000000000000                                                  C/3 #23                                                                                                                                                                                                             000031N00000000000000000000000000000000000000000000000000                                                                                                                                                           00000000000000000000000000000000000000000                                                                                                                                                                                                                                                          000000                                                                                                                                                                                                                                                                                                                                                              000000        
DA000001375300000178660016518613MARTHA MARGARITA                                  BATISTA                                 MENDEZ                                  C00111355277              19450919001FC000000000000000000000000000000                                                  CARRETERA MENDOZA #42                                                                                                                                                                                               000223N00000000000000000000000000000000000000000000000000                                                                                                                                                           00000000000000000000000000000000000000000                                                                                                                                                                                                                                                          000000                                                                                                                                                                                                                                                                                                                                                              000000        
DA000001383900000646000043451307RAFAELA EDUVIGIS                                  GONZALEZ                                                                        C05600029010              19400218001FS000000000000000000000000000000                                                  C/ 9 #13 LOS PALMARES                                                                                                                                                                                               000225N00000000000000000000000000000000000000000000000000                                                                                                                                                           00000000000000000000000000000000000000000                                                                                                                                                                                                                                                          000000                                                                                                                                                                                                                                                                                                                                                              000000        
DA000001383400000063910001156994ANA AMELIA YOLANDA                                HERNANDEZ                               P DE ROSARIO                            C00101935187              19440822001FS000000000000000000000000000000                                                  C/4TA #6                                                                                                                                                                                                            000001N00000000000000000000000000000000000000000000000000                                                                                                                                                           00000000000000000000000000000000000000000                                                                                                                                                                                                                                                          000000                                                                                                                                                                                                                                                                                                                                                              000000        
DA000001374700000150720005759492RAMON MATIAS                                      GOMEZ                                   FELIZ                                   C00107633422              19550520001MC000000000000000000000000000000                                                  C/ ED 4I APT 3B                                                                                                                                                                                                     000001N00000000000000000000000000000000000000000000000000                                                                                                                                                           00000000000000000000000000000000000000000                                                                                                                                                                                                                                                          000000                                                                                                                                                                                                                                                                                                                                                              000000        
DA000001383100000822300008963245FAUSTO RAMON                                      UREÑA                                   FERNANDEZ                               C00107762536              19470701001MC000000000000000000000000000000                                                  EDIF. 28 APTO #4-C                                                                                                                                                                                                  000224N00000000000000000000000000000000000000000000000000                                                                                                                                                           00000000000000000000000000000000000000000                                                                                                                                                                                                                                                          000000                                                                                                                                                                                                                                                                                                                                                              000000        
DA000001383000000146160002761440LEDA ALTAGRACIA                                   ECHAVARRIA                              MOTA                                    C00107338972              19351222001FU000000000000000000000000000000                                                  C/CLUB ROTARIO #228                                                                                                                                                                                                 000223N00000000000000000000000000000000000000000000000000                                                                                                                                                           00000000000000000000000000000000000000000                                                                                                                                                                                                                                                          000000                                                                                                                                                                                                                                                                                                                                                              000000        
DA000001414400000624460034546195MODESTA DOLORES                                   PERALTA                                 CHECO                                   C03600211985              19530112001FC000000000000000000000000000000                                                  C/ EL RUBIO S/N                                                                                                                                                                                                     000036N00000000000000000000000000000000000000000000000000                                                                                                                                                           00000000000000000000000000000000000000000                                                                                                                                                                                                                                                          000000                                                                                                                                                                                                                                                                                                                                                              000000        
DA000001416600000621260031753555CRUZ MARIA                                        LOPEZ                                   VERAS                                   C03200098014              19580102001FC000000000000000000000000000000                                                  C/ALBERTO VALENTIN #4                                                                                                                                                                                               000032N00000000000000000000000000000000000000000000000000                                                                                                                                                           00000000000000000000000000000000000000000                                                                                                                                                                                                                                                          000000                                                                                                                                                                                                                                                                                                                                                              000000        
DA000001420500000344360000000000ROSA ALTAGRACIA CAROLINA                          PEREZ                                   PERALTA DE BENCOSME                     C05400602792              19420804001FS000000000000000000000000000000                                                  C/VICENTE DE LA MOZA #3                                                                                                                                                                                             000054N00000000000000000000000000000000000000000000000000                                                                                                                                                           00000000000000000000000000000000000000000                                                                                                                                                                                                                                                          000000                                                                                                                                                                                                                                                                                                                                                              000000        
DA000001469100000523660004894912OLGA MERCY AMALIA                                 PEGUERO                                 BOBADILLA                               C00105541775              19530423001FS000000000000000000000000000000                                                  C/ B EDF.19 APT.102                                                                                                                                                                                                 000223N00000000000000000000000000000000000000000000000000                                                                                                                                                           00000000000000000000000000000000000000000                                                                                                                                                                                                                                                          000000                                                                                                                                                                                                                                                                                                                                                              000000        
DA000001469500000569310024208472CRISTIANA IVELISSE                                VICENTE                                 RAMIREZ                                 C01200527883              19601222001FS000000000000000000000000000000                                                  C/SAN ISIDRO#142                                                                                                                                                                                                    000105N00000000000000000000000000000000000000000000000000                                                                                                                                                           00000000000000000000000000000000000000000                                                                                                                                                                                                                                                          000000                                                                                                                                                                                                                                                                                                                                                              000000        
DA000001417500000606460033793472AIDA ALTAGRACIA                                   BUENO                                   VDA GIRON                               C03100283252              19390718001FU000000000000000000000000000000                                                  C/BARTOLOME COLON #45                                                                                                                                                                                               000031N00000000000000000000000000000000000000000000000000                                                                                                                                                           00000000000000000000000000000000000000000                                                                                                                                                                                                                                                          000000                                                                                                                                                                                                                                                                                                                                                              000000        
DA000001469600000167420007371851ARGENTINA                                         PEÑA                                    DE FRANCO                               C00108936030              19610115001FS000000000000000000000000000000                                                  C/ 5TA #3                                                                                                                                                                                                           000224N00000000000000000000000000000000000000000000000000                                                                                                                                                           00000000000000000000000000000000000000000                                                                                                                                                                                                                                                          000000                                                                                                                                                                                                                                                                                                                                                              000000        
DA000001376900000365570015935498JUANA                                             DE LA CRUZ                              PINEDA                                  C00116182056              19260101001FS000000000000000000000000000000                                                  C/PEATON 4 # 16                                                                                                                                                                                                     000223N00000000000000000000000000000000000000000000000000                                                                                                                                                           00000000000000000000000000000000000000000                                                                                                                                                                                                                                                          000000                                                                                                                                                                                                                                                                                                                                                              000000        
DA000001471300000271490000000000SANTA SIMEONA                                     RODRIGUEZ                               MEJIA                                   C02800081347              19451018001FU000000000000000000000000000000                                                  JOSE MARTI #26                                                                                                                                                                                                      000028N00000000000000000000000000000000000000000000000000                                                                                                                                                           00000000000000000000000000000000000000000                                                                                                                                                                                                                                                          000000                                                                                                                                                                                                                                                                                                                                                              000000        
DA000001470300000362920048220194GUILLERMINA                                       DIAZ                                    SANTOS DE BRETON                        C06600111519              19300826001FC000000000000000000000000000000                                                  PUNTA GORDA SANCHEZ #78                                                                                                                                                                                             000065N00000000000000000000000000000000000000000000000000                                                                                                                                                           00000000000000000000000000000000000000000                                                                                                                                                                                                                                                          000000                                                                                                                                                                                                                                                                                                                                                              000000        
DA000001470500000250610000000000RAMON PAULINO                                     FRANCIS                                 RUIZ                                    C02100012224              19460622001MS000000000000000000000000000000                                                  RESPALDO CAROLINA #28                                                                                                                                                                                               000224N00000000000000000000000000000000000000000000000000                                                                                                                                                           00000000000000000000000000000000000000000                                                                                                                                                                                                                                                          000000                                                                                                                                                                                                                                                                                                                                                              000000        
DA000001118400000303830000000000EMILIA CONCEPCION                                 CASTELLANOS                                                                     C03400067686              19240705001FS000000000000000000000000000000                                                  C/ SABANA LARGA # 41                                                                                                                                                                                                000034N00000000000000000000000000000000000000000000000000                                                                                                                                                           00000000000000000000000000000000000000000                                                                                                                                                                                                                                                          000000                                                                                                                                                                                                                                                                                                                                                              000000        
DA000001416100000371720048887516CECILIA VERIDIANA                                 GOMEZ                                   F DE PLASENCIO                          C07300099368              19340201001FC000000000000000000000000000000                                                  C/DUARTE #38                                                                                                                                                                                                        000073N00000000000000000000000000000000000000000000000000                                                                                                                                                           00000000000000000000000000000000000000000                                                                                                                                                                                                                                                          000000                                                                                                                                                                                                                                                                                                                                                              000000        
DA000001470400000038710006879927VICTOR JOSE                                       BURGOS                                  LEMOINE                                 C00101113934              19280918001MU000000000000000000000000000000                                                  EL CONDADO #16                                                                                                                                                                                                      000001N00000000000000000000000000000000000000000000000000                                                                                                                                                           00000000000000000000000000000000000000000                                                                                                                                                                                                                                                          000000                                                                                                                                                                                                                                                                                                                                                              000000        
DA000001470800000655300049509098JUANA                                             FLORES                                  GONZALEZ                                C07100047963              19550624001FC000000000000000000000000000000                                                  C/3 #6                                                                                                                                                                                                              000071N00000000000000000000000000000000000000000000000000                                                                                                                                                           00000000000000000000000000000000000000000                                                                                                                                                                                                                                                          000000                                                                                                                                                                                                                                                                                                                                                              000000        
DA000001462300000577580024689431ADA AFRICA                                        OLIVERO                                 URBAEZ                                  C01900002138              19361225001FU000000000000000000000000000000                                                  C/SANCHEZ NO. 13                                                                                                                                                                                                    000019N00000000000000000000000000000000000000000000000000                                                                                                                                                           00000000000000000000000000000000000000000                                                                                                                                                                                                                                                          000000                                                                                                                                                                                                                                                                                                                                                              000000        
DA000001461200000212920000000000MARTIN ANTONIO                                    ADAMES                                  NINA                                    C00200641074              19280826001MC000000000000000000000000000000                                                  C/G #21                                                                                                                                                                                                             000002N00000000000000000000000000000000000000000000000000                                                                                                                                                           00000000000000000000000000000000000000000                                                                                                                                                                                                                                                          000000                                                                                                                                                                                                                                                                                                                                                              000000        
DA000001155100000645240044138304LUIS ESPERANZA                                    GONZALEZ                                FAMILIA                                 C05500118715              19421218001MC000000000000000000000000000000                                                  C/ ORLANDO MARTINEZ # 24                                                                                                                                                                                            000055N00000000000000000000000000000000000000000000000000                                                                                                                                                           00000000000000000000000000000000000000000                                                                                                                                                                                                                                                          000000                                                                                                                                                                                                                                                                                                                                                              000000        
DA000000586700000633010039819815ELENA EMPERATRIZ                                  GOMEZ                                   DURAN                                   C04600051967              19350530001FC000000000000000000000000000000                                                  C/ BABOSO # 32                                                                                                                                                                                                      000046N00000000000000000000000000000000000000000000000000                                                                                                                                                           00000000000000000000000000000000000000000                                                                                                                                                                                                                                                          000000                                                                                                                                                                                                                                                                                                                                                              000000        
DA000001418100000614110030501696JUAN MANUEL                                       DE LEON                                                                         C03101307050              19491224001MC000000000000000000000000000000                                                  C/ PRICIPAL #12                                                                                                                                                                                                     000031N00000000000000000000000000000000000000000000000000                                                                                                                                                           00000000000000000000000000000000000000000                                                                                                                                                                                                                                                          000000                                                                                                                                                                                                                                                                                                                                                              000000        
DA000001415600000606110036120896LUMINADA                                          CEPEDA                                  ALMONTE                                 C03100242175              19530914001FS000000000000000000000000000000                                                  C/1 NO. 1                                                                                                                                                                                                           000031N00000000000000000000000000000000000000000000000000                                                                                                                                                           00000000000000000000000000000000000000000                                                                                                                                                                                                                                                          000000                                                                                                                                                                                                                                                                                                                                                              000000        
DA000000371200000621840036389955MARIA DE LOS ANGELES                              PALLERO                                 LORA                                    C03300079740              19610304001FC000000000000000000000000000000                                                  C/ COLON # 25                                                                                                                                                                                                       000033N00000000000000000000000000000000000000000000000000                                                                                                                                                           00000000000000000000000000000000000000000                                                                                                                                                                                                                                                          000000                                                                                                                                                                                                                                                                                                                                                              000000        
