EPN42
DA000001232700000176250009698482CARMEN LUISA                                      PAREDES                                                                         C00110217676              19451029001FS000000000000000000000000000000                                                  C/ CLAVELES # 7-C                                                                                                                                                                                                   000225N00000000000000000000000000000000000000000000000000                                                                                                                                                           00000000000000000000000000000000000000000                                                                                                                                                                                                                                                          000000                                                                                                                                                                                                                                                                                                                                                              000000        
DA000000245400000631510039800237HERMINIA MERCEDES                                 TEJADA                                  PEÑA                                    C04400088565              19350819001FS000000000000000000000000000000                                                  ANDRES MEDINA # 150                                                                                                                                                                                                 000115N00000000000000000000000000000000000000000000000000                                                                                                                                                           00000000000000000000000000000000000000000                                                                                                                                                                                                                                                          000000                                                                                                                                                                                                                                                                                                                                                              000000        
DA000001248000000481970012805755MILDA RAMONA                                      VASQUEZ                                 SOSA                                    C00100028828              19430628001FS000000000000000000000000000000                                                  C/ PADRE BILLINI # 455                                                                                                                                                                                              000001N00000000000000000000000000000000000000000000000000                                                                                                                                                           00000000000000000000000000000000000000000                                                                                                                                                                                                                                                          000000                                                                                                                                                                                                                                                                                                                                                              000000        
DA000001247800000592140028059021BERNARDINA                                        DE LA CRUZ                              P. DE CONSTANZO                         C02500297813              19430919001FC000000000000000000000000000000                                                  C/ VICTOR DE CASTRO # 1                                                                                                                                                                                             000025N00000000000000000000000000000000000000000000000000                                                                                                                                                           00000000000000000000000000000000000000000                                                                                                                                                                                                                                                          000000                                                                                                                                                                                                                                                                                                                                                              000000        
DA000000191300000677020053033895ALTAGRACIA                                        ORTIZ                                                                           C10400019229              19391222001FS000000000000000000000000000000                                                  JENOVA# 6                                                                                                                                                                                                           000104N00000000000000000000000000000000000000000000000000                                                                                                                                                           00000000000000000000000000000000000000000                                                                                                                                                                                                                                                          000000                                                                                                                                                                                                                                                                                                                                                              000000        
DA000001176200000655690049385964CARIDAD                                           CAMPOS                                  DE MOSQUEA                              C07100106405              19530829001FC000000000000000000000000000000                                                  KM. 4, AUTOPISTA NAGUA-CABRERA # 7                                                                                                                                                                                  000071N00000000000000000000000000000000000000000000000000                                                                                                                                                           00000000000000000000000000000000000000000                                                                                                                                                                                                                                                          000000                                                                                                                                                                                                                                                                                                                                                              000000        
DA000000191200000676820053626000TERESA DEL JESUS                                  BELLO                                   URBAEZ                                  C10400000443              19401015001FC000000000000000000000000000000                                                  C/ 2 DE MARZO # 18                                                                                                                                                                                                  000104N00000000000000000000000000000000000000000000000000                                                                                                                                                           00000000000000000000000000000000000000000                                                                                                                                                                                                                                                          000000                                                                                                                                                                                                                                                                                                                                                              000000        
DA000000191000000676990053033515MARIA NELIZ                                       LORENZO                                 MARTICH                                 C10400013909              19460105001FS000000000000000000000000000000                                                  C/ TRINITARIO # 8                                                                                                                                                                                                   000104N00000000000000000000000000000000000000000000000000                                                                                                                                                           00000000000000000000000000000000000000000                                                                                                                                                                                                                                                          000000                                                                                                                                                                                                                                                                                                                                                              000000        
DA000000190900000677040053574995MARGARITA DE                                      LEON                                    RUIZ DE LORENZO                         C10400023700              19520125001FC000000000000000000000000000000                                                  C/ TRINITARIA # 5                                                                                                                                                                                                   000104N00000000000000000000000000000000000000000000000000                                                                                                                                                           00000000000000000000000000000000000000000                                                                                                                                                                                                                                                          000000                                                                                                                                                                                                                                                                                                                                                              000000        
DA000000190000000677220053630081DIOGENES                                          TEJEDA                                  NOVA                                    C10400075569              19480805001MS000000000000000000000000000000                                                  C/ EL SOL # 17                                                                                                                                                                                                      000104N00000000000000000000000000000000000000000000000000                                                                                                                                                           00000000000000000000000000000000000000000                                                                                                                                                                                                                                                          000000                                                                                                                                                                                                                                                                                                                                                              000000        
DA000000316600000677560053055033JUAN PABLO                                        MATEO                                                                           C10800016106              19430126001MC000000000000000000000000000000                                                  C/ CAONABO #04                                                                                                                                                                                                      000108N00000000000000000000000000000000000000000000000000                                                                                                                                                           00000000000000000000000000000000000000000                                                                                                                                                                                                                                                          000000                                                                                                                                                                                                                                                                                                                                                              000000        
S000013                                                                                                                               
