EPN52
DA000007235500000456100028751548YSIDRO                                            GUZMAN                                  RODRIGUEZ                               C02500215807              19350505001MS000000000000000000000000000000                                                  CALLE L #27 VARRIO RESTAURACION                                                                                                                                                                                     000000N00000000000000000000000000000000000000000000000000                                                                                                                                                           00000000000000000000000000000000000000000                                                                                                                                                                                                                                                          000000                                                                                                                                                                                                                                                                                                                                                              000000TN      
DA000007054400000136100002487953RAFAEL ANTONIO                                    UREÑA                                                                           C00106612286              19411218001M 000000000000000000000000000000                                                  CALLE # 10 ANDRES                                                                                                                                                                                                   000000N00000000000000000000000000000000000000000000000000                                                                                                                                                           00000000000000000000000000000000000000000                                                                                                                                                                                                                                                          000000                                                                                                                                                                                                                                                                                                                                                              000000TN      
DA000002333600001222760017857043MATIAS                                            IBEL                                                                            C00200410827              19400315001MS000000000000000000000000000000                                                  CENTRO DE LA CIUDAD                                                                                                                                                                                                 000000N00000000000000000000000000000000000000000000000000                                                                                                                                                           00000000000000000000000000000000000000000                                                                                                                                                                                                                                                          000000                                                                                                                                                                                                                                                                                                                                                              000000TN      
DA000007190700001211540031925317THELMA MILAGROS                                   RODRIGUEZ                               HERNANDEZ                               C03101449472              19460530001FS000000000000000000000000000000                                                  CENTRO DE LA CIUDAD                                                                                                                                                                                                 000000N00000000000000000000000000000000000000000000000000                                                                                                                                                           00000000000000000000000000000000000000000                                                                                                                                                                                                                                                          000000                                                                                                                                                                                                                                                                                                                                                              000000TN      
DA000005964700000508810002257930SIMON                                             MARTINEZ                                DE LA ROSA                              C00103118824              19381012001MS000000000000000000000000000000                                                  C/FRANCISCO DEL ROSARIO CASA 61                                                                                                                                                                                     000000N00000000000000000000000000000000000000000000000000                                                                                                                                                           00000000000000000000000000000000000000000                                                                                                                                                                                                                                                          000000                                                                                                                                                                                                                                                                                                                                                              000000TN      
DA000006062800000846940029551996FRANCISCO                                         GIL                                                                             C02300611478              19380311001MS000000000000000000000000000000                                                  CALLER 1ERA. CASA # 11                                                                                                                                                                                              000000N00000000000000000000000000000000000000000000000000                                                                                                                                                           00000000000000000000000000000000000000000                                                                                                                                                                                                                                                          000000                                                                                                                                                                                                                                                                                                                                                              000000TN      
DA000007072500000795190001195893LOURDES                                           LINARES                                 DE MORILLO                              C00100914035              19360102001FC000000000000000000000000000000                                                  CALLE RESPALDO 39.. ENSANCHE KENNEDY. 8096168171                                                                                                                                                                    000000N00000000000000000000000000000000000000000000000000                                                                                                                                                           00000000000000000000000000000000000000000                                                                                                                                                                                                                                                          000000                                                                                                                                                                                                                                                                                                                                                              000000TN      
DA000007262900001069790001212340ARSENIO                                           PINEDA                                  PEÑA                                    C00103150702              19431214001MS000000000000000000000000000000                                                  MANUELA DIEZ #111                                                                                                                                                                                                   000000N00000000000000000000000000000000000000000000000000                                                                                                                                                           00000000000000000000000000000000000000000                                                                                                                                                                                                                                                          000000                                                                                                                                                                                                                                                                                                                                                              000000TN      
DA000001766300000788480053163607WILKIN                                            LARA                                    CASADO                                  C10400046271              19750520001MS000000000000000000000000000000                                                  LOS CACAOS.. CENTRO DE LA CIUDAD                                                                                                                                                                                    000000N00000000000000000000000000000000000000000000000000                                                                                                                                                           00000000000000000000000000000000000000000                                                                                                                                                                                                                                                          000000                                                                                                                                                                                                                                                                                                                                                              000000TN      
DA000007522900000537610017252277CANDIDO                                           MARTINEZ                                ASENCIO                                 C00107282642              19380427001MS000000000000000000000000000000                                                  PEATON 8 #06                                                                                                                                                                                                        000000N00000000000000000000000000000000000000000000000000                                                                                                                                                           00000000000000000000000000000000000000000                                                                                                                                                                                                                                                          000000                                                                                                                                                                                                                                                                                                                                                              000000TN      
DA000007211300000002470004535975CELESTE AURORA                                    HERNANDEZ                               M DE PEREZ                              C00100041474              19310814001FS000000000000000000000000000000                                                  ESTER ROSARIO #32 RECIDENCIAL DOMONI                                                                                                                                                                                000000N00000000000000000000000000000000000000000000000000                                                                                                                                                           00000000000000000000000000000000000000000                                                                                                                                                                                                                                                          000000                                                                                                                                                                                                                                                                                                                                                              000000TN      
DA000007486300000412700008770072FRANCISCO VINICIO                                 OLIVO                                   SANTOS                                  C00103747069              19310616001MS000000000000000000000000000000                                                  VILLA FARO                                                                                                                                                                                                          000000N00000000000000000000000000000000000000000000000000                                                                                                                                                           00000000000000000000000000000000000000000                                                                                                                                                                                                                                                          000000                                                                                                                                                                                                                                                                                                                                                              000000TN      
DA000000141500000676660053374082ISRAEL                                            RUIZ                                                                            C10300061123              19350102001MS000000000000000000000000000000                                                  CENTRO CIUDAD                                                                                                                                                                                                       000000N00000000000000000000000000000000000000000000000000                                                                                                                                                           00000000000000000000000000000000000000000                                                                                                                                                                                                                                                          000000                                                                                                                                                                                                                                                                                                                                                              000000TN      
DA000007411100001202980008086287ANTONIO                                           PEREZ                                   SALAZAR                                 C00102504750              19380715001MS000000000000000000000000000000                                                  LAS CAOBAS                                                                                                                                                                                                          000000N00000000000000000000000000000000000000000000000000                                                                                                                                                           00000000000000000000000000000000000000000                                                                                                                                                                                                                                                          000000                                                                                                                                                                                                                                                                                                                                                              000000TN      
DA000007246500001220310010483272AQUILINO                                          JAVIER                                  MARTINEZ                                C00104416185              19440204001MS000000000000000000000000000000                                                  RESPALDO AV. BETANCE #48 CAPOTILLO                                                                                                                                                                                  000000N00000000000000000000000000000000000000000000000000                                                                                                                                                           00000000000000000000000000000000000000000                                                                                                                                                                                                                                                          000000                                                                                                                                                                                                                                                                                                                                                              000000TN      
DA000007196400000746150027742265JULIO                                             FELIZ                                                                           C02200099287              19430310001M 000000000000000000000000000000                                                  MANOGUAYABO                                                                                                                                                                                                         000000N00000000000000000000000000000000000000000000000000                                                                                                                                                           00000000000000000000000000000000000000000                                                                                                                                                                                                                                                          000000                                                                                                                                                                                                                                                                                                                                                              000000TN      
DA000006478500001216860026091196GREGORIA                                          DEL ROSARIO                             MARTE                                   C02300350028              19430422001FS000000000000000000000000000000                                                  MIRAMAR.8094903393                                                                                                                                                                                                  000000N00000000000000000000000000000000000000000000000000                                                                                                                                                           00000000000000000000000000000000000000000                                                                                                                                                                                                                                                          000000                                                                                                                                                                                                                                                                                                                                                              000000TN      
DA000006981500001001160009438405MATEO                                             MARTINEZ                                                                        C00105818892              19430505001MS000000000000000000000000000000                                                  EL PEDREGAL                                                                                                                                                                                                         000000N00000000000000000000000000000000000000000000000000                                                                                                                                                           00000000000000000000000000000000000000000                                                                                                                                                                                                                                                          000000                                                                                                                                                                                                                                                                                                                                                              000000TN      
DA000005590800001026280025117696MARIO                                             OGANDO                                  DE OLEO                                 C02300327778              19440916001MS000000000000000000000000000000                                                  CALLE EUGENIO CABRAL CASA 26 VILLA HERMOSA                                                                                                                                                                          000000N00000000000000000000000000000000000000000000000000                                                                                                                                                           00000000000000000000000000000000000000000                                                                                                                                                                                                                                                          000000                                                                                                                                                                                                                                                                                                                                                              000000TN      
DA000006062700000844430025486740ALBERTO                                           DAVID                                                                           C02300453830              19350912001MS000000000000000000000000000000                                                  CALLE MANZ. F #2. BARRIO INVI. VILLA CONSUELO                                                                                                                                                                       000000N00000000000000000000000000000000000000000000000000                                                                                                                                                           00000000000000000000000000000000000000000                                                                                                                                                                                                                                                          000000                                                                                                                                                                                                                                                                                                                                                              000000TN      
DA000006082900000260470025489538FERMIN                                            ROSARIO                                                                         C02300482284              19230602001MS000000000000000000000000000000                                                  CENTRO DE LA CIUDAD                                                                                                                                                                                                 000000N00000000000000000000000000000000000000000000000000                                                                                                                                                           00000000000000000000000000000000000000000                                                                                                                                                                                                                                                          000000                                                                                                                                                                                                                                                                                                                                                              000000TN      
DA000006061600000847170026304730CARLOS                                            JOHNSON                                 SMITH                                   C02300622418              19310521001MS000000000000000000000000000000                                                  C/ 5TA #67                                                                                                                                                                                                          000000N00000000000000000000000000000000000000000000000000                                                                                                                                                           00000000000000000000000000000000000000000                                                                                                                                                                                                                                                          000000                                                                                                                                                                                                                                                                                                                                                              000000TN      
DA000000541700000869450037139256ANGELITA DEL CARMEN                               AZCONA                                  BONIFACIO                               C03300029901              19451001001FS000000000000000000000000000000                                                  C/ PEDRO PICHARDO CASA 47 ESPERANZA. 8095028075                                                                                                                                                                     000000N00000000000000000000000000000000000000000000000000                                                                                                                                                           00000000000000000000000000000000000000000                                                                                                                                                                                                                                                          000000                                                                                                                                                                                                                                                                                                                                                              000000TN      
DA000007238100000681080000021012LUIS EMILIO                                       MOTA                                    ROSA                                    C00100310531              19430218001MS000000000000000000000000000000                                                  URBANIZACION.. SABANA PERDIDA.8492014843                                                                                                                                                                            000000N00000000000000000000000000000000000000000000000000                                                                                                                                                           00000000000000000000000000000000000000000                                                                                                                                                                                                                                                          000000                                                                                                                                                                                                                                                                                                                                                              000000TN      
DA000004396500000785350051376094GABRIEL                                           SERRANO                                                                         C09300038305              19230820001M 000000000000000000000000000000                                                  CALLE PRINCIPAL # 40. SABANILLA                                                                                                                                                                                     000000N00000000000000000000000000000000000000000000000000                                                                                                                                                           00000000000000000000000000000000000000000                                                                                                                                                                                                                                                          000000                                                                                                                                                                                                                                                                                                                                                              000000TN      
DA000008795900000879590046110913LEONIDES                                          DE LA CRUZ                              ROSARIO                                 C05700064511              19591222001FS000000000000000000000000000000                                                  CENTRO DE LA CIUDAD                                                                                                                                                                                                 000000N00000000000000000000000000000000000000000000000000                                                                                                                                                           00000000000000000000000000000000000000000                                                                                                                                                                                                                                                          000000                                                                                                                                                                                                                                                                                                                                                              000000TN      
DA000007107600000886380053135796DOMINGO                                           SEVERINO                                DEL RIO                                 C10300014825              19250425001MS000000000000000000000000000000                                                  CHAVON ARRIBA                                                                                                                                                                                                       000000N00000000000000000000000000000000000000000000000000                                                                                                                                                           00000000000000000000000000000000000000000                                                                                                                                                                                                                                                          000000                                                                                                                                                                                                                                                                                                                                                              000000TN      
DA000006317000001234800032822172CRISTOBAL                                         BALBUENA                                                                        C03700432572              19421117001MS000000000000000000000000000000                                                  PANCHO MATEO                                                                                                                                                                                                        000000N00000000000000000000000000000000000000000000000000                                                                                                                                                           00000000000000000000000000000000000000000                                                                                                                                                                                                                                                          000000                                                                                                                                                                                                                                                                                                                                                              000000TN      
DA000007037100000880120047833255JOSE                                              ARAUJO                                  BELTRE                                  C06800005065              19450608001MC000000000000000000000000000000                                                  C/ANA SILVERIO PARRA #122                                                                                                                                                                                           000000N00000000000000000000000000000000000000000000000000                                                                                                                                                           00000000000000000000000000000000000000000                                                                                                                                                                                                                                                          000000                                                                                                                                                                                                                                                                                                                                                              000000TN      
DA000006062200000259350027565475CARMELO                                           LOPEZ                                                                           C02300442601              19410321001MS000000000000000000000000000000                                                  LA HABANA                                                                                                                                                                                                           000000N00000000000000000000000000000000000000000000000000                                                                                                                                                           00000000000000000000000000000000000000000                                                                                                                                                                                                                                                          000000                                                                                                                                                                                                                                                                                                                                                              000000TN      
DA000006810800000849170028493048DOMINGA                                           HERNANDEZ                                                                       C02300776008              19730505001FS000000000000000000000000000000                                                  SECTOR AUTOVIA CALLE AUTOVIA DEL ESTE KM 1 1/2 COLONIA INOCENCIA NUMERO SN                                                                                                                                          000000N00000000000000000000000000000000000000000000000000                                                                                                                                                           00000000000000000000000000000000000000000                                                                                                                                                                                                                                                          000000                                                                                                                                                                                                                                                                                                                                                              000000TN      
DA000006083500000848250025431184JACOBO                                            BRAZOBAN                                                                        C02300674328              19380304001MS000000000000000000000000000000                                                  SECTOR ZONA COLONIAL CALLE ISABEL LA CATOLICA NUMERO 158                                                                                                                                                            000000N00000000000000000000000000000000000000000000000000                                                                                                                                                           00000000000000000000000000000000000000000                                                                                                                                                                                                                                                          000000                                                                                                                                                                                                                                                                                                                                                              000000TN      
DA000001307100000462300035206621JUAN FRANCISCO                                    DE LOS SANTOS                                                                   C03100358211              19360324001MS000000000000000000000000000000                                                  JUAN ISIDRO PEREZ #79                                                                                                                                                                                               000000N00000000000000000000000000000000000000000000000000                                                                                                                                                           00000000000000000000000000000000000000000                                                                                                                                                                                                                                                          000000                                                                                                                                                                                                                                                                                                                                                              000000TN      
DA000007410100000422860008931077RAFAEL                                            PEGUERO                                 CASTRO                                  C00106650898              19410908001MS000000000000000000000000000000                                                  SALOME UREÑA.                                                                                                                                                                                                       000000N00000000000000000000000000000000000000000000000000                                                                                                                                                           00000000000000000000000000000000000000000                                                                                                                                                                                                                                                          000000                                                                                                                                                                                                                                                                                                                                                              000000TN      
DA000002369500000469200038841484JOSE ALTAGRASIA                                   LAGARES                                                                         C04500120342              19420121001MS000000000000000000000000000000                                                  DUARTE #10                                                                                                                                                                                                          000000N00000000000000000000000000000000000000000000000000                                                                                                                                                           00000000000000000000000000000000000000000                                                                                                                                                                                                                                                          000000                                                                                                                                                                                                                                                                                                                                                              000000TN      
DA000001362400000425820008950827ENEDINA DE JESUS                                  RODRIGUEZ                                                                       C00107654410              19410220001FS000000000000000000000000000000                                                  RESPALDO 27 #12                                                                                                                                                                                                     000000N00000000000000000000000000000000000000000000000000                                                                                                                                                           00000000000000000000000000000000000000000                                                                                                                                                                                                                                                          000000                                                                                                                                                                                                                                                                                                                                                              000000TN      
DA000002982500000444420026863914TEODOSIO                                          NUÑEZ                                   RODRIGUEZ                               C02300035207              19320415001MS000000000000000000000000000000                                                  CALLE B #16                                                                                                                                                                                                         000000N00000000000000000000000000000000000000000000000000                                                                                                                                                           00000000000000000000000000000000000000000                                                                                                                                                                                                                                                          000000                                                                                                                                                                                                                                                                                                                                                              000000TN      
DA000000592600000557300020978253LUIS                                              PEÑA                                                                            C00200120095              19441025001MS000000000000000000000000000000                                                  MANUEL A TRONCOSO #3 TROPICALIA                                                                                                                                                                                     000000N00000000000000000000000000000000000000000000000000                                                                                                                                                           00000000000000000000000000000000000000000                                                                                                                                                                                                                                                          000000                                                                                                                                                                                                                                                                                                                                                              000000TN      
DA000007529700000810340002371685RAMON FABIAN                                      MARCELO                                                                         C00104918842              19240120001MS000000000000000000000000000000                                                  LOS MINA                                                                                                                                                                                                            000000N00000000000000000000000000000000000000000000000000                                                                                                                                                           00000000000000000000000000000000000000000                                                                                                                                                                                                                                                          000000                                                                                                                                                                                                                                                                                                                                                              000000TN      
DA000002341500000991620007663714MARIANO ABREU                                     CIPRIAN                                                                         C00103274593              19380430001MS000000000000000000000000000000                                                  OSVALDO BAZIL #126 MARIA AUXILIADORA                                                                                                                                                                                000000N00000000000000000000000000000000000000000000000000                                                                                                                                                           00000000000000000000000000000000000000000                                                                                                                                                                                                                                                          000000                                                                                                                                                                                                                                                                                                                                                              000000TN      
DA000006315800000871260034281493FELIPE SANTIAGO                                   HENRIQUEZ                               MERCEDES                                C03700414893              19450118001M 000000000000000000000000000000                                                  CENTRO DE LA CIUDAD                                                                                                                                                                                                 000000N00000000000000000000000000000000000000000000000000                                                                                                                                                           00000000000000000000000000000000000000000                                                                                                                                                                                                                                                          000000                                                                                                                                                                                                                                                                                                                                                              000000TN      
DA000001642600001047280046304935GUMERSINDO                                        ROMANO                                  PEREZ                                   C05600156862              19300113001MS000000000000000000000000000000                                                  CENTRO DE LA CIUDAD                                                                                                                                                                                                 000000N00000000000000000000000000000000000000000000000000                                                                                                                                                           00000000000000000000000000000000000000000                                                                                                                                                                                                                                                          000000                                                                                                                                                                                                                                                                                                                                                              000000TN      
DA000007521600000400360009139043JUANA AURORA                                      TRONCOSO                                AVILES                                  C00101136497              19400908001FS000000000000000000000000000000                                                  CALLE 10 # 2 EL CAFE DE HERRERA                                                                                                                                                                                     000000N00000000000000000000000000000000000000000000000000                                                                                                                                                           00000000000000000000000000000000000000000                                                                                                                                                                                                                                                          000000                                                                                                                                                                                                                                                                                                                                                              000000TN      
DA000007470300000599120027902507LEONIDAS                                          MOYA                                                                            C02600599670              19410102001MS000000000000000000000000000000                                                  ALBERT LARACUENT CASA # 19                                                                                                                                                                                          000000N00000000000000000000000000000000000000000000000000                                                                                                                                                           00000000000000000000000000000000000000000                                                                                                                                                                                                                                                          000000                                                                                                                                                                                                                                                                                                                                                              000000TN      
DA000007226700000842850028404992CATALINO                                          ROMERO                                  MORILLO                                 C02300360449              19421125001MS000000000000000000000000000000                                                  C/ DR. GEORGE #70                                                                                                                                                                                                   000000N00000000000000000000000000000000000000000000000000                                                                                                                                                           00000000000000000000000000000000000000000                                                                                                                                                                                                                                                          000000                                                                                                                                                                                                                                                                                                                                                              000000TN      
DA000006524600000795870002397535ANTONIO                                           MARTINEZ                                                                        C00101172328              19320316001MS000000000000000000000000000000                                                  LOTES Y SERVICIOS                                                                                                                                                                                                   000000N00000000000000000000000000000000000000000000000000                                                                                                                                                           00000000000000000000000000000000000000000                                                                                                                                                                                                                                                          000000                                                                                                                                                                                                                                                                                                                                                              000000TN      
DA000005938100000856940026514998MANUEL                                            CANELO                                                                          C02600251256              19470320001MS000000000000000000000000000000                                                  CENTRO DE LA CIUDAD.                                                                                                                                                                                                000000N00000000000000000000000000000000000000000000000000                                                                                                                                                           00000000000000000000000000000000000000000                                                                                                                                                                                                                                                          000000                                                                                                                                                                                                                                                                                                                                                              000000TN      
DA000007205400000720540003877248NOE ROBERTO                                       HERNANDEZ                                                                       C00107711269              19340105001MS000000000000000000000000000000                                                  JARRO SUCIO                                                                                                                                                                                                         000000N00000000000000000000000000000000000000000000000000                                                                                                                                                           00000000000000000000000000000000000000000                                                                                                                                                                                                                                                          000000                                                                                                                                                                                                                                                                                                                                                              000000TN      
DA000007523500000706100007737978SIMEON                                            ASCENCION                               GUZMAN                                  C00104634175              19260110001MS000000000000000000000000000000                                                  CALLE TENIENTE AMADO   809-599-5127////809-599-0626  MEJORAMIENTO SOCIAL                                                                                                                                            000000N00000000000000000000000000000000000000000000000000                                                                                                                                                           00000000000000000000000000000000000000000                                                                                                                                                                                                                                                          000000                                                                                                                                                                                                                                                                                                                                                              000000TN      
DA000003674300000703500011598832PASCUAL                                           RODRIGUEZ                                                                       C00104176755              19360517001MS000000000000000000000000000000                                                  REYNA ISABEL 1ER #1 SIMON BOLIVAR                                                                                                                                                                                   000000N00000000000000000000000000000000000000000000000000                                                                                                                                                           00000000000000000000000000000000000000000                                                                                                                                                                                                                                                          000000                                                                                                                                                                                                                                                                                                                                                              000000TN      
DA000005582600000844160025485710MANUEL ANTONIO                                    DE LA CRUZ                                                                      C02300434814              19370401001MS000000000000000000000000000000                                                  KG CASA NO.3                                                                                                                                                                                                        000000N00000000000000000000000000000000000000000000000000                                                                                                                                                           00000000000000000000000000000000000000000                                                                                                                                                                                                                                                          000000                                                                                                                                                                                                                                                                                                                                                              000000TN      
DA000007520900000844340027275967FRANCISCO                                         EUSEBIO                                                                         C02300447857              19480511001MS000000000000000000000000000000                                                  MOLINOS KM # 13 LAS AMERICAS                                                                                                                                                                                        000000N00000000000000000000000000000000000000000000000000                                                                                                                                                           00000000000000000000000000000000000000000                                                                                                                                                                                                                                                          000000                                                                                                                                                                                                                                                                                                                                                              000000TN      
DA000007405200000803820007624984LUIS APOLINAR                                     POLANCO                                 POLANCO                                 C00102970050              19440323001MS000000000000000000000000000000                                                  VILLA AGRICOLA                                                                                                                                                                                                      000000N00000000000000000000000000000000000000000000000000                                                                                                                                                           00000000000000000000000000000000000000000                                                                                                                                                                                                                                                          000000                                                                                                                                                                                                                                                                                                                                                              000000TN      
DA000000456000000242680023904183CONFESOR                                          DE LA CRUZ                              DE LOS SANTOS                           C01800107425              19290626001MS000000000000000000000000000000                                                  URUGUAY #140                                                                                                                                                                                                        000000N00000000000000000000000000000000000000000000000000                                                                                                                                                           00000000000000000000000000000000000000000                                                                                                                                                                                                                                                          000000                                                                                                                                                                                                                                                                                                                                                              000000TN      
DA000006315400001215140034788991FRANCISCO                                         SANCHEZ                                                                         C03700674223              19341004001MS000000000000000000000000000000                                                  CENTRO DE LA CIUDAD                                                                                                                                                                                                 000000N00000000000000000000000000000000000000000000000000                                                                                                                                                           00000000000000000000000000000000000000000                                                                                                                                                                                                                                                          000000                                                                                                                                                                                                                                                                                                                                                              000000TN      
DA000002703000000713000004917277SANTIAGO                                          AYBAR                                   AMADOR                                  C00105731632              19350224001MS000000000000000000000000000000                                                  CALLE A #49                                                                                                                                                                                                         000000N00000000000000000000000000000000000000000000000000                                                                                                                                                           00000000000000000000000000000000000000000                                                                                                                                                                                                                                                          000000                                                                                                                                                                                                                                                                                                                                                              000000TN      
DA000000568800000985850009718460PAULINO SARITA                                    SARITA FABIAN                                                                   C00102053014              19440622001MS000000000000000000000000000000                                                  CRISTO REY                                                                                                                                                                                                          000000N00000000000000000000000000000000000000000000000000                                                                                                                                                           00000000000000000000000000000000000000000                                                                                                                                                                                                                                                          000000                                                                                                                                                                                                                                                                                                                                                              000000TN      
DA000007029300000832810021089810JUAN PABLO                                        RIVERA                                  HEREDIA                                 C00201129889              19760906001MS000000000000000000000000000000                                                  CARRETERA SANCHEZ #30 NIGUA                                                                                                                                                                                         000000N00000000000000000000000000000000000000000000000000                                                                                                                                                           00000000000000000000000000000000000000000                                                                                                                                                                                                                                                          000000                                                                                                                                                                                                                                                                                                                                                              000000TN      
DA000006062500001059240026580455DORA                                              WILLIAMS                                DE LA CRUZ                              C02300201767              19520408001FS000000000000000000000000000000                                                  SECTOR LA FE CALLE AVE SAN CRISTOBAL ESQ TIRADENTES NUMERO S/N                                                                                                                                                      000000N00000000000000000000000000000000000000000000000000                                                                                                                                                           00000000000000000000000000000000000000000                                                                                                                                                                                                                                                          000000                                                                                                                                                                                                                                                                                                                                                              000000TN      
DA000000679700000694610001337042FELIX                                             ARIAS                                   MARTE                                   C00102803426              19391101001MS000000000000000000000000000000                                                  PARAGUAY  VILLA JUANA                                                                                                                                                                                               000000N00000000000000000000000000000000000000000000000000                                                                                                                                                           00000000000000000000000000000000000000000                                                                                                                                                                                                                                                          000000                                                                                                                                                                                                                                                                                                                                                              000000TN      
DA000001177500000620230030145103GREGORIO                                          FERNANDEZ                                                                       C03102832890              19420509001MS000000000000000000000000000000                                                  PEATON #1 CERRO HERMOSO                                                                                                                                                                                             000000N00000000000000000000000000000000000000000000000000                                                                                                                                                           00000000000000000000000000000000000000000                                                                                                                                                                                                                                                          000000                                                                                                                                                                                                                                                                                                                                                              000000TN      
DA000007187700000757120037022515CATALINA                                          PARRA                                                                           C03100010218              19390405001FS000000000000000000000000000000                                                  LOS SALADOS                                                                                                                                                                                                         000000N00000000000000000000000000000000000000000000000000                                                                                                                                                           00000000000000000000000000000000000000000                                                                                                                                                                                                                                                          000000                                                                                                                                                                                                                                                                                                                                                              000000TN      
DA000005936600000508770009748730YOSENY ESTHER                                     ZARZUELA                                RODRIGUEZ                               C00103107744              19751110001FS000000000000000000000000000000                                                  VILLA MELLA                                                                                                                                                                                                         000000N00000000000000000000000000000000000000000000000000                                                                                                                                                           00000000000000000000000000000000000000000                                                                                                                                                                                                                                                          000000                                                                                                                                                                                                                                                                                                                                                              000000TN      
DA000007054500000780640050222881DOMINGO                                           MONTERO                                 MANCEBO                                 C07600038132              19400831001MS000000000000000000000000000000                                                  EL JOBO                                                                                                                                                                                                             000000N00000000000000000000000000000000000000000000000000                                                                                                                                                           00000000000000000000000000000000000000000                                                                                                                                                                                                                                                          000000                                                                                                                                                                                                                                                                                                                                                              000000TN      
DA000007405300001005990010599955CATALINO                                          RODRIGUEZ                                                                       C00106924889              19410213001MS000000000000000000000000000000                                                  CENTRO DE LA CIUDAD                                                                                                                                                                                                 000000N00000000000000000000000000000000000000000000000000                                                                                                                                                           00000000000000000000000000000000000000000                                                                                                                                                                                                                                                          000000                                                                                                                                                                                                                                                                                                                                                              000000TN      
DA000007072000000577110023636054ANA                                               VALDEZ                                  DE LA ROSA                              C01800376053              19300724001FS000000000000000000000000000000                                                  BATEY CENTRAL..                                                                                                                                                                                                     000000N00000000000000000000000000000000000000000000000000                                                                                                                                                           00000000000000000000000000000000000000000                                                                                                                                                                                                                                                          000000                                                                                                                                                                                                                                                                                                                                                              000000TN      
DA000007480300000125340000372964JUAN                                              BUSSI                                   SUERO                                   C00105839112              19531222001MS000000000000000000000000000000                                                  KM. 22 #144                                                                                                                                                                                                         000000N00000000000000000000000000000000000000000000000000                                                                                                                                                           00000000000000000000000000000000000000000                                                                                                                                                                                                                                                          000000                                                                                                                                                                                                                                                                                                                                                              000000TN      
DA000007520700000018440004278814FELICIA                                           CABRERA                                                                         C00100489590              19581118001FS000000000000000000000000000000                                                  MAXIMILIANO GOMEZ #38                                                                                                                                                                                               000000N00000000000000000000000000000000000000000000000000                                                                                                                                                           00000000000000000000000000000000000000000                                                                                                                                                                                                                                                          000000                                                                                                                                                                                                                                                                                                                                                              000000TN      
DA000005936100000094560017137575GUSTAVO                                           FRANCISCO                               ROSA                                    C00103893723              19321015001MS000000000000000000000000000000                                                  ELIAS PIQA #202                                                                                                                                                                                                     000000N00000000000000000000000000000000000000000000000000                                                                                                                                                           00000000000000000000000000000000000000000                                                                                                                                                                                                                                                          000000                                                                                                                                                                                                                                                                                                                                                              000000TN      
DA000007106000000168000011907183MANUEL DE JESUS                                   DE LA CRUZ                              UREÑA                                   C00108975921              19300815001MS000000000000000000000000000000                                                  08 ESQUINA 9 #54                                                                                                                                                                                                    000000N00000000000000000000000000000000000000000000000000                                                                                                                                                           00000000000000000000000000000000000000000                                                                                                                                                                                                                                                          000000                                                                                                                                                                                                                                                                                                                                                              000000TN      
DA000007410300000166290000557573VICTORIA                                          JIMENEZ                                 MARTINEZ                                C00108816778              19470323001FC000000000000000000000000000000                                                  SATURNO #14                                                                                                                                                                                                         000000N00000000000000000000000000000000000000000000000000                                                                                                                                                           00000000000000000000000000000000000000000                                                                                                                                                                                                                                                          000000                                                                                                                                                                                                                                                                                                                                                              000000TN      
DA000007411600000412000001250123SILVIA                                            ALFONSECA                                                                       C00103470779              19480510001FS000000000000000000000000000000                                                  REP.17 #5                                                                                                                                                                                                           000000N00000000000000000000000000000000000000000000000000                                                                                                                                                           00000000000000000000000000000000000000000                                                                                                                                                                                                                                                          000000                                                                                                                                                                                                                                                                                                                                                              000000TN      
DA000005113600000066670001166454PABLO                                             MAGALLANES                                                                      C00102040920              19291008001MS000000000000000000000000000000                                                  C/ PANORAMA #17                                                                                                                                                                                                     000000N00000000000000000000000000000000000000000000000000                                                                                                                                                           00000000000000000000000000000000000000000                                                                                                                                                                                                                                                          000000                                                                                                                                                                                                                                                                                                                                                              000000TN      
